{
  "contractName": "Dao",
  "abi": [
    {
      "inputs": [
        {
          "internalType": "string",
          "name": "_name",
          "type": "string"
        },
        {
          "internalType": "uint8",
          "name": "membershipMode",
          "type": "uint8"
        },
        {
          "internalType": "string",
          "name": "_description",
          "type": "string"
        },
        {
          "internalType": "bool",
          "name": "isPrivate",
          "type": "bool"
        }
      ],
      "stateMutability": "nonpayable",
      "type": "constructor"
    },
    {
      "anonymous": false,
      "inputs": [
        {
          "indexed": false,
          "internalType": "address",
          "name": "newMember",
          "type": "address"
        }
      ],
      "name": "MemberAdded",
      "type": "event"
    },
    {
      "anonymous": false,
      "inputs": [
        {
          "indexed": false,
          "internalType": "address",
          "name": "memberRequestor",
          "type": "address"
        }
      ],
      "name": "MemberAskedJoin",
      "type": "event"
    },
    {
      "anonymous": false,
      "inputs": [
        {
          "indexed": false,
          "internalType": "address",
          "name": "memberInvitor",
          "type": "address"
        },
        {
          "indexed": false,
          "internalType": "address",
          "name": "memberInvited",
          "type": "address"
        }
      ],
      "name": "MemberInvited",
      "type": "event"
    },
    {
      "anonymous": false,
      "inputs": [
        {
          "indexed": false,
          "internalType": "address",
          "name": "memberJoined",
          "type": "address"
        }
      ],
      "name": "MemberJoined",
      "type": "event"
    },
    {
      "anonymous": false,
      "inputs": [
        {
          "indexed": true,
          "internalType": "address",
          "name": "previousOwner",
          "type": "address"
        },
        {
          "indexed": true,
          "internalType": "address",
          "name": "newOwner",
          "type": "address"
        }
      ],
      "name": "OwnershipTransferred",
      "type": "event"
    },
    {
      "inputs": [],
      "name": "description",
      "outputs": [
        {
          "internalType": "string",
          "name": "",
          "type": "string"
        }
      ],
      "stateMutability": "view",
      "type": "function"
    },
    {
      "inputs": [
        {
          "internalType": "uint256",
          "name": "",
          "type": "uint256"
        }
      ],
      "name": "memberAddresses",
      "outputs": [
        {
          "internalType": "address",
          "name": "",
          "type": "address"
        }
      ],
      "stateMutability": "view",
      "type": "function"
    },
    {
      "inputs": [
        {
          "internalType": "address",
          "name": "",
          "type": "address"
        }
      ],
      "name": "members",
      "outputs": [
        {
          "internalType": "enum Data.memberStatus",
          "name": "status",
          "type": "uint8"
        }
      ],
      "stateMutability": "view",
      "type": "function"
    },
    {
      "inputs": [],
      "name": "membersCount",
      "outputs": [
        {
          "internalType": "uint256",
          "name": "",
          "type": "uint256"
        }
      ],
      "stateMutability": "view",
      "type": "function"
    },
    {
      "inputs": [],
      "name": "membershipModeMode",
      "outputs": [
        {
          "internalType": "enum Data.membershipModeEnum",
          "name": "",
          "type": "uint8"
        }
      ],
      "stateMutability": "view",
      "type": "function"
    },
    {
      "inputs": [
        {
          "internalType": "uint256",
          "name": "",
          "type": "uint256"
        }
      ],
      "name": "modules",
      "outputs": [
        {
          "internalType": "uint256",
          "name": "",
          "type": "uint256"
        }
      ],
      "stateMutability": "view",
      "type": "function"
    },
    {
      "inputs": [],
      "name": "name",
      "outputs": [
        {
          "internalType": "string",
          "name": "",
          "type": "string"
        }
      ],
      "stateMutability": "view",
      "type": "function"
    },
    {
      "inputs": [],
      "name": "owner",
      "outputs": [
        {
          "internalType": "address",
          "name": "",
          "type": "address"
        }
      ],
      "stateMutability": "view",
      "type": "function"
    },
    {
      "inputs": [],
      "name": "renounceOwnership",
      "outputs": [],
      "stateMutability": "nonpayable",
      "type": "function"
    },
    {
      "inputs": [
        {
          "internalType": "address",
          "name": "newOwner",
          "type": "address"
        }
      ],
      "name": "transferOwnership",
      "outputs": [],
      "stateMutability": "nonpayable",
      "type": "function"
    },
    {
      "inputs": [],
      "name": "visibility",
      "outputs": [
        {
          "internalType": "enum Data.visibilityEnum",
          "name": "",
          "type": "uint8"
        }
      ],
      "stateMutability": "view",
      "type": "function"
    },
    {
      "inputs": [
        {
          "internalType": "enum Data.membershipModeEnum",
          "name": "_mode",
          "type": "uint8"
        }
      ],
      "name": "setMode",
      "outputs": [],
      "stateMutability": "nonpayable",
      "type": "function"
    },
    {
      "inputs": [],
      "name": "getMemberShipMode",
      "outputs": [
        {
          "internalType": "enum Data.membershipModeEnum",
          "name": "",
          "type": "uint8"
        }
      ],
      "stateMutability": "view",
      "type": "function"
    },
    {
      "inputs": [
        {
          "internalType": "string",
          "name": "_name",
          "type": "string"
        }
      ],
      "name": "setName",
      "outputs": [],
      "stateMutability": "nonpayable",
      "type": "function"
    },
    {
      "inputs": [],
      "name": "getName",
      "outputs": [
        {
          "internalType": "string",
          "name": "",
          "type": "string"
        }
      ],
      "stateMutability": "view",
      "type": "function"
    },
    {
      "inputs": [
        {
          "internalType": "string",
          "name": "_description",
          "type": "string"
        }
      ],
      "name": "setDescription",
      "outputs": [],
      "stateMutability": "nonpayable",
      "type": "function"
    },
    {
      "inputs": [],
      "name": "getDescription",
      "outputs": [
        {
          "internalType": "string",
          "name": "",
          "type": "string"
        }
      ],
      "stateMutability": "view",
      "type": "function"
    },
    {
      "inputs": [],
      "name": "getVisibility",
      "outputs": [
        {
          "internalType": "enum Data.visibilityEnum",
          "name": "",
          "type": "uint8"
        }
      ],
      "stateMutability": "view",
      "type": "function"
    },
    {
      "inputs": [
        {
          "internalType": "address",
          "name": "_member",
          "type": "address"
        }
      ],
      "name": "getMemberInfo",
      "outputs": [
        {
          "components": [
            {
              "internalType": "enum Data.memberStatus",
              "name": "status",
              "type": "uint8"
            }
          ],
          "internalType": "struct Data.member",
          "name": "",
          "type": "tuple"
        }
      ],
      "stateMutability": "view",
      "type": "function"
    },
    {
      "inputs": [],
      "name": "getInfoDao",
      "outputs": [
        {
          "components": [
            {
              "internalType": "string",
              "name": "daoType",
              "type": "string"
            },
            {
              "internalType": "enum Data.visibilityEnum",
              "name": "visibility",
              "type": "uint8"
            }
          ],
          "internalType": "struct Data.daoData",
          "name": "info",
          "type": "tuple"
        }
      ],
      "stateMutability": "view",
      "type": "function"
    },
    {
      "inputs": [
        {
          "internalType": "address",
          "name": "addressMember",
          "type": "address"
        }
      ],
      "name": "addMember",
      "outputs": [],
      "stateMutability": "nonpayable",
      "type": "function"
    },
    {
      "inputs": [
        {
          "internalType": "address",
          "name": "addressMember",
          "type": "address"
        }
      ],
      "name": "acceptMember",
      "outputs": [],
      "stateMutability": "nonpayable",
      "type": "function"
    },
    {
      "inputs": [
        {
          "internalType": "address",
          "name": "addressMember",
          "type": "address"
        }
      ],
      "name": "inviteMember",
      "outputs": [],
      "stateMutability": "nonpayable",
      "type": "function"
    },
    {
      "inputs": [],
      "name": "requestJoin",
      "outputs": [],
      "stateMutability": "nonpayable",
      "type": "function"
    },
    {
      "inputs": [
        {
          "internalType": "address",
          "name": "addressMember",
          "type": "address"
        }
      ],
      "name": "isActiveMember",
      "outputs": [
        {
          "internalType": "bool",
          "name": "",
          "type": "bool"
        }
      ],
      "stateMutability": "view",
      "type": "function"
    },
    {
      "inputs": [],
      "name": "join",
      "outputs": [],
      "stateMutability": "nonpayable",
      "type": "function"
    },
    {
      "inputs": [
        {
          "internalType": "address",
          "name": "_contractAddress",
          "type": "address"
        }
      ],
      "name": "authorizeContract",
      "outputs": [],
      "stateMutability": "nonpayable",
      "type": "function"
    },
    {
      "inputs": [
        {
          "internalType": "address",
          "name": "_contractAddress",
          "type": "address"
        }
      ],
      "name": "denyContract",
      "outputs": [],
      "stateMutability": "nonpayable",
      "type": "function"
    }
  ],
  "bytecode": "0x60806040523480156200001157600080fd5b5060405162002c0038038062002c008339818101604052810190620000379190620004e8565b620000696200005462000154640100000000026401000000009004565b6200015c640100000000026401000000009004565b83600290805190602001906200008192919062000220565b5081600390805190602001906200009a92919062000220565b508260ff166002811115620000b457620000b362000598565b5b600760006101000a81548160ff02191690836002811115620000db57620000da62000598565b5b021790555080156200011b576000600760016101000a81548160ff0219169083600181111562000110576200010f62000598565b5b02179055506200014a565b6001600760016101000a81548160ff0219169083600181111562000144576200014362000598565b5b02179055505b505050506200062c565b600033905090565b60008060009054906101000a900473ffffffffffffffffffffffffffffffffffffffff169050816000806101000a81548173ffffffffffffffffffffffffffffffffffffffff021916908373ffffffffffffffffffffffffffffffffffffffff1602179055508173ffffffffffffffffffffffffffffffffffffffff168173ffffffffffffffffffffffffffffffffffffffff167f8be0079c531659141344cd1fd0a4f28419497f9722a3daafe3b4186f6b6457e060405160405180910390a35050565b8280546200022e90620005f6565b90600052602060002090601f0160209004810192826200025257600085556200029e565b82601f106200026d57805160ff19168380011785556200029e565b828001600101855582156200029e579182015b828111156200029d57825182559160200191906001019062000280565b5b509050620002ad9190620002b1565b5090565b5b80821115620002cc576000816000905550600101620002b2565b5090565b6000604051905090565b600080fd5b600080fd5b600080fd5b600080fd5b6000601f19601f8301169050919050565b7f4e487b7100000000000000000000000000000000000000000000000000000000600052604160045260246000fd5b6200033982620002ee565b810181811067ffffffffffffffff821117156200035b576200035a620002ff565b5b80604052505050565b600062000370620002d0565b90506200037e82826200032e565b919050565b600067ffffffffffffffff821115620003a157620003a0620002ff565b5b620003ac82620002ee565b9050602081019050919050565b60005b83811015620003d9578082015181840152602081019050620003bc565b83811115620003e9576000848401525b50505050565b600062000406620004008462000383565b62000364565b905082815260208101848484011115620004255762000424620002e9565b5b62000432848285620003b9565b509392505050565b600082601f830112620004525762000451620002e4565b5b815162000464848260208601620003ef565b91505092915050565b600060ff82169050919050565b62000485816200046d565b81146200049157600080fd5b50565b600081519050620004a5816200047a565b92915050565b60008115159050919050565b620004c281620004ab565b8114620004ce57600080fd5b50565b600081519050620004e281620004b7565b92915050565b60008060008060808587031215620005055762000504620002da565b5b600085015167ffffffffffffffff811115620005265762000525620002df565b5b62000534878288016200043a565b9450506020620005478782880162000494565b935050604085015167ffffffffffffffff8111156200056b576200056a620002df565b5b62000579878288016200043a565b92505060606200058c87828801620004d1565b91505092959194509250565b7f4e487b7100000000000000000000000000000000000000000000000000000000600052602160045260246000fd5b7f4e487b7100000000000000000000000000000000000000000000000000000000600052602260045260246000fd5b600060028204905060018216806200060f57607f821691505b60208210811415620006265762000625620005c7565b5b50919050565b6125c4806200063c6000396000f3fe608060405234801561001057600080fd5b50600436106101e1576000357c0100000000000000000000000000000000000000000000000000000000900480636075aac711610116578063b688a363116100b4578063c47f00271161008e578063c47f0027146104b6578063ca6d56dc146104d2578063cc4e6299146104ee578063f2fde38b1461051e576101e1565b8063b688a36314610472578063b7e2077e1461047c578063c391944314610498576101e1565b80637284e416116100f05780637284e416146103ea57806381b2248a146104085780638da5cb5b1461043857806390c3f38f14610456576101e1565b80636075aac7146103a657806367561d93146103c4578063715018a6146103e0576101e1565b8063297f9af01161018357806341e4ba921161015d57806341e4ba921461032057806345ecd02f1461032a57806358a003751461035a5780635f1231ea14610376576101e1565b8063297f9af0146102c857806329adec14146102e65780632f890b9314610304576101e1565b806317d7de7c116101bf57806317d7de7c146102525780631a092541146102705780631f46cc621461028e57806321175b4a146102ac576101e1565b806306fdde03146101e657806308ae4b0c146102045780630a05fb0914610234575b600080fd5b6101ee61053a565b6040516101fb9190611ce2565b60405180910390f35b61021e60048036038101906102199190611d76565b6105c8565b60405161022b9190611e1a565b60405180910390f35b61023c6105f3565b6040516102499190611e7d565b60405180910390f35b61025a61060a565b6040516102679190611ce2565b60405180910390f35b61027861069c565b6040516102859190611ce2565b60405180910390f35b61029661072e565b6040516102a39190611ee0565b60405180910390f35b6102c660048036038101906102c19190611f20565b610741565b005b6102d06107ea565b6040516102dd9190611f66565b60405180910390f35b6102ee6107f0565b6040516102fb9190611e7d565b60405180910390f35b61031e60048036038101906103199190611d76565b610803565b005b610328610a24565b005b610344600480360381019061033f9190611d76565b610be8565b6040516103519190611f9c565b60405180910390f35b610374600480360381019061036f9190611d76565b610c67565b005b610390600480360381019061038b9190611d76565b610e1c565b60405161039d9190611fe2565b60405180910390f35b6103ae610eb0565b6040516103bb9190612093565b60405180910390f35b6103de60048036038101906103d99190611d76565b610f38565b005b6103e8611063565b005b6103f26110eb565b6040516103ff9190611ce2565b60405180910390f35b610422600480360381019061041d91906120e1565b611179565b60405161042f9190611f66565b60405180910390f35b61044061119d565b60405161044d919061211d565b60405180910390f35b610470600480360381019061046b919061226d565b6111c6565b005b61047a61125c565b005b61049660048036038101906104919190611d76565b611567565b005b6104a0611692565b6040516104ad9190611ee0565b60405180910390f35b6104d060048036038101906104cb919061226d565b6116a9565b005b6104ec60048036038101906104e79190611d76565b61173f565b005b610508600480360381019061050391906120e1565b61195e565b604051610515919061211d565b60405180910390f35b61053860048036038101906105339190611d76565b611991565b005b60028054610547906122e5565b80601f0160208091040260200160405190810160405280929190818152602001828054610573906122e5565b80156105c05780601f10610595576101008083540402835291602001916105c0565b820191906000526020600020905b8154815290600101906020018083116105a357829003601f168201915b505050505081565b60066020528060005260406000206000915090508060000160009054906101000a900460ff16905081565b6000600760019054906101000a900460ff16905090565b606060028054610619906122e5565b80601f0160208091040260200160405190810160405280929190818152602001828054610645906122e5565b80156106925780601f1061066757610100808354040283529160200191610692565b820191906000526020600020905b81548152906001019060200180831161067557829003601f168201915b5050505050905090565b6060600380546106ab906122e5565b80601f01602080910402602001604051908101604052809291908181526020018280546106d7906122e5565b80156107245780601f106106f957610100808354040283529160200191610724565b820191906000526020600020905b81548152906001019060200180831161070757829003601f168201915b5050505050905090565b600760009054906101000a900460ff1681565b610749611a89565b73ffffffffffffffffffffffffffffffffffffffff1661076761119d565b73ffffffffffffffffffffffffffffffffffffffff16146107bd576040517f08c379a00000000000000000000000000000000000000000000000000000000081526004016107b490612363565b60405180910390fd5b80600760006101000a81548160ff021916908360028111156107e2576107e1611da3565b5b021790555050565b60045481565b600760019054906101000a900460ff1681565b60038081111561081657610815611da3565b5b600660003373ffffffffffffffffffffffffffffffffffffffff1673ffffffffffffffffffffffffffffffffffffffff16815260200190815260200160002060000160009054906101000a900460ff16600381111561087857610877611da3565b5b14806108d4575060011515600860003373ffffffffffffffffffffffffffffffffffffffff1673ffffffffffffffffffffffffffffffffffffffff16815260200190815260200160002060009054906101000a900460ff161515145b610913576040517f08c379a000000000000000000000000000000000000000000000000000000000815260040161090a906123cf565b60405180910390fd5b6001600660008373ffffffffffffffffffffffffffffffffffffffff1673ffffffffffffffffffffffffffffffffffffffff16815260200190815260200160002060000160006101000a81548160ff0219169083600381111561097957610978611da3565b5b02179055508060056000600454815260200190815260200160002060006101000a81548173ffffffffffffffffffffffffffffffffffffffff021916908373ffffffffffffffffffffffffffffffffffffffff1602179055506004600081546109e19061241e565b919050819055507f6c246c8894ac239253d22cd508dbe8eb7e027e0589cdd4ff16dbb4238ccd98343382604051610a19929190612467565b60405180910390a150565b600380811115610a3757610a36611da3565b5b600660003373ffffffffffffffffffffffffffffffffffffffff1673ffffffffffffffffffffffffffffffffffffffff16815260200190815260200160002060000160009054906101000a900460ff166003811115610a9957610a98611da3565b5b1415610ada576040517f08c379a0000000000000000000000000000000000000000000000000000000008152600401610ad1906123cf565b60405180910390fd5b6002600660003373ffffffffffffffffffffffffffffffffffffffff1673ffffffffffffffffffffffffffffffffffffffff16815260200190815260200160002060000160006101000a81548160ff02191690836003811115610b4057610b3f611da3565b5b02179055503360056000600454815260200190815260200160002060006101000a81548173ffffffffffffffffffffffffffffffffffffffff021916908373ffffffffffffffffffffffffffffffffffffffff160217905550600460008154610ba89061241e565b919050819055507fbed19f5b65ad42d891f94ee997a95c1c635d47af67169b52c2b2f0f823b7cd7133604051610bde919061211d565b60405180910390a1565b6000600380811115610bfd57610bfc611da3565b5b600660008473ffffffffffffffffffffffffffffffffffffffff1673ffffffffffffffffffffffffffffffffffffffff16815260200190815260200160002060000160009054906101000a900460ff166003811115610c5f57610c5e611da3565b5b149050919050565b600380811115610c7a57610c79611da3565b5b600660003373ffffffffffffffffffffffffffffffffffffffff1673ffffffffffffffffffffffffffffffffffffffff16815260200190815260200160002060000160009054906101000a900460ff166003811115610cdc57610cdb611da3565b5b1480610d38575060011515600860003373ffffffffffffffffffffffffffffffffffffffff1673ffffffffffffffffffffffffffffffffffffffff16815260200190815260200160002060009054906101000a900460ff161515145b610d77576040517f08c379a0000000000000000000000000000000000000000000000000000000008152600401610d6e906123cf565b60405180910390fd5b6003600660008373ffffffffffffffffffffffffffffffffffffffff1673ffffffffffffffffffffffffffffffffffffffff16815260200190815260200160002060000160006101000a81548160ff02191690836003811115610ddd57610ddc611da3565b5b02179055507fb251eb052afc73ffd02ffe85ad79990a8b3fed60d76dbc2fa2fdd7123dffd91481604051610e11919061211d565b60405180910390a150565b610e24611b55565b600660008373ffffffffffffffffffffffffffffffffffffffff1673ffffffffffffffffffffffffffffffffffffffff1681526020019081526020016000206040518060200160405290816000820160009054906101000a900460ff166003811115610e9357610e92611da3565b5b6003811115610ea557610ea4611da3565b5b815250509050919050565b610eb8611b7a565b6040518060400160405280601681526020017f44414f2c20496e76697465206f722052657175657374000000000000000000008152508160000181905250600760019054906101000a900460ff1681602001906001811115610f1d57610f1c611da3565b5b90816001811115610f3157610f30611da3565b5b8152505090565b60011515600860003373ffffffffffffffffffffffffffffffffffffffff1673ffffffffffffffffffffffffffffffffffffffff16815260200190815260200160002060009054906101000a900460ff1615151480610fc95750610f9a61119d565b73ffffffffffffffffffffffffffffffffffffffff163373ffffffffffffffffffffffffffffffffffffffff16145b611008576040517f08c379a0000000000000000000000000000000000000000000000000000000008152600401610fff906123cf565b60405180910390fd5b6001600860008373ffffffffffffffffffffffffffffffffffffffff1673ffffffffffffffffffffffffffffffffffffffff16815260200190815260200160002060006101000a81548160ff02191690831515021790555050565b61106b611a89565b73ffffffffffffffffffffffffffffffffffffffff1661108961119d565b73ffffffffffffffffffffffffffffffffffffffff16146110df576040517f08c379a00000000000000000000000000000000000000000000000000000000081526004016110d690612363565b60405180910390fd5b6110e96000611a91565b565b600380546110f8906122e5565b80601f0160208091040260200160405190810160405280929190818152602001828054611124906122e5565b80156111715780601f1061114657610100808354040283529160200191611171565b820191906000526020600020905b81548152906001019060200180831161115457829003601f168201915b505050505081565b6001818154811061118957600080fd5b906000526020600020016000915090505481565b60008060009054906101000a900473ffffffffffffffffffffffffffffffffffffffff16905090565b6111ce611a89565b73ffffffffffffffffffffffffffffffffffffffff166111ec61119d565b73ffffffffffffffffffffffffffffffffffffffff1614611242576040517f08c379a000000000000000000000000000000000000000000000000000000000815260040161123990612363565b60405180910390fd5b8060039080519060200190611258929190611ba6565b5050565b60038081111561126f5761126e611da3565b5b600660003373ffffffffffffffffffffffffffffffffffffffff1673ffffffffffffffffffffffffffffffffffffffff16815260200190815260200160002060000160009054906101000a900460ff1660038111156112d1576112d0611da3565b5b1415611312576040517f08c379a0000000000000000000000000000000000000000000000000000000008152600401611309906123cf565b60405180910390fd5b6001600381111561132657611325611da3565b5b600660003373ffffffffffffffffffffffffffffffffffffffff1673ffffffffffffffffffffffffffffffffffffffff16815260200190815260200160002060000160009054906101000a900460ff16600381111561138857611387611da3565b5b1480156113c85750600060028111156113a4576113a3611da3565b5b600760009054906101000a900460ff1660028111156113c6576113c5611da3565b5b145b806114845750600060038111156113e2576113e1611da3565b5b600660003373ffffffffffffffffffffffffffffffffffffffff1673ffffffffffffffffffffffffffffffffffffffff16815260200190815260200160002060000160009054906101000a900460ff16600381111561144457611443611da3565b5b148015611483575060028081111561145f5761145e611da3565b5b600760009054906101000a900460ff16600281111561148157611480611da3565b5b145b5b6114c3576040517f08c379a00000000000000000000000000000000000000000000000000000000081526004016114ba906124dc565b60405180910390fd5b6003600660003373ffffffffffffffffffffffffffffffffffffffff1673ffffffffffffffffffffffffffffffffffffffff16815260200190815260200160002060000160006101000a81548160ff0219169083600381111561152957611528611da3565b5b02179055507f0abf3b3f643594d958297062a019458e27d7766629590ac621aa1000fa1298ab3360405161155d919061211d565b60405180910390a1565b60011515600860003373ffffffffffffffffffffffffffffffffffffffff1673ffffffffffffffffffffffffffffffffffffffff16815260200190815260200160002060009054906101000a900460ff16151514806115f857506115c961119d565b73ffffffffffffffffffffffffffffffffffffffff163373ffffffffffffffffffffffffffffffffffffffff16145b611637576040517f08c379a000000000000000000000000000000000000000000000000000000000815260040161162e906123cf565b60405180910390fd5b6000600860008373ffffffffffffffffffffffffffffffffffffffff1673ffffffffffffffffffffffffffffffffffffffff16815260200190815260200160002060006101000a81548160ff02191690831515021790555050565b6000600760009054906101000a900460ff16905090565b6116b1611a89565b73ffffffffffffffffffffffffffffffffffffffff166116cf61119d565b73ffffffffffffffffffffffffffffffffffffffff1614611725576040517f08c379a000000000000000000000000000000000000000000000000000000000815260040161171c90612363565b60405180910390fd5b806002908051906020019061173b929190611ba6565b5050565b60038081111561175257611751611da3565b5b600660003373ffffffffffffffffffffffffffffffffffffffff1673ffffffffffffffffffffffffffffffffffffffff16815260200190815260200160002060000160009054906101000a900460ff1660038111156117b4576117b3611da3565b5b1480611810575060011515600860003373ffffffffffffffffffffffffffffffffffffffff1673ffffffffffffffffffffffffffffffffffffffff16815260200190815260200160002060009054906101000a900460ff161515145b61184f576040517f08c379a0000000000000000000000000000000000000000000000000000000008152600401611846906123cf565b60405180910390fd5b6003600660008373ffffffffffffffffffffffffffffffffffffffff1673ffffffffffffffffffffffffffffffffffffffff16815260200190815260200160002060000160006101000a81548160ff021916908360038111156118b5576118b4611da3565b5b02179055508060056000600454815260200190815260200160002060006101000a81548173ffffffffffffffffffffffffffffffffffffffff021916908373ffffffffffffffffffffffffffffffffffffffff16021790555060046000815461191d9061241e565b919050819055507fb251eb052afc73ffd02ffe85ad79990a8b3fed60d76dbc2fa2fdd7123dffd91481604051611953919061211d565b60405180910390a150565b60056020528060005260406000206000915054906101000a900473ffffffffffffffffffffffffffffffffffffffff1681565b611999611a89565b73ffffffffffffffffffffffffffffffffffffffff166119b761119d565b73ffffffffffffffffffffffffffffffffffffffff1614611a0d576040517f08c379a0000000000000000000000000000000000000000000000000000000008152600401611a0490612363565b60405180910390fd5b600073ffffffffffffffffffffffffffffffffffffffff168173ffffffffffffffffffffffffffffffffffffffff161415611a7d576040517f08c379a0000000000000000000000000000000000000000000000000000000008152600401611a749061256e565b60405180910390fd5b611a8681611a91565b50565b600033905090565b60008060009054906101000a900473ffffffffffffffffffffffffffffffffffffffff169050816000806101000a81548173ffffffffffffffffffffffffffffffffffffffff021916908373ffffffffffffffffffffffffffffffffffffffff1602179055508173ffffffffffffffffffffffffffffffffffffffff168173ffffffffffffffffffffffffffffffffffffffff167f8be0079c531659141344cd1fd0a4f28419497f9722a3daafe3b4186f6b6457e060405160405180910390a35050565b604051806020016040528060006003811115611b7457611b73611da3565b5b81525090565b60405180604001604052806060815260200160006001811115611ba057611b9f611da3565b5b81525090565b828054611bb2906122e5565b90600052602060002090601f016020900481019282611bd45760008555611c1b565b82601f10611bed57805160ff1916838001178555611c1b565b82800160010185558215611c1b579182015b82811115611c1a578251825591602001919060010190611bff565b5b509050611c289190611c2c565b5090565b5b80821115611c45576000816000905550600101611c2d565b5090565b600081519050919050565b600082825260208201905092915050565b60005b83811015611c83578082015181840152602081019050611c68565b83811115611c92576000848401525b50505050565b6000601f19601f8301169050919050565b6000611cb482611c49565b611cbe8185611c54565b9350611cce818560208601611c65565b611cd781611c98565b840191505092915050565b60006020820190508181036000830152611cfc8184611ca9565b905092915050565b6000604051905090565b600080fd5b600080fd5b600073ffffffffffffffffffffffffffffffffffffffff82169050919050565b6000611d4382611d18565b9050919050565b611d5381611d38565b8114611d5e57600080fd5b50565b600081359050611d7081611d4a565b92915050565b600060208284031215611d8c57611d8b611d0e565b5b6000611d9a84828501611d61565b91505092915050565b7f4e487b7100000000000000000000000000000000000000000000000000000000600052602160045260246000fd5b60048110611de357611de2611da3565b5b50565b6000819050611df482611dd2565b919050565b6000611e0482611de6565b9050919050565b611e1481611df9565b82525050565b6000602082019050611e2f6000830184611e0b565b92915050565b60028110611e4657611e45611da3565b5b50565b6000819050611e5782611e35565b919050565b6000611e6782611e49565b9050919050565b611e7781611e5c565b82525050565b6000602082019050611e926000830184611e6e565b92915050565b60038110611ea957611ea8611da3565b5b50565b6000819050611eba82611e98565b919050565b6000611eca82611eac565b9050919050565b611eda81611ebf565b82525050565b6000602082019050611ef56000830184611ed1565b92915050565b60038110611f0857600080fd5b50565b600081359050611f1a81611efb565b92915050565b600060208284031215611f3657611f35611d0e565b5b6000611f4484828501611f0b565b91505092915050565b6000819050919050565b611f6081611f4d565b82525050565b6000602082019050611f7b6000830184611f57565b92915050565b60008115159050919050565b611f9681611f81565b82525050565b6000602082019050611fb16000830184611f8d565b92915050565b611fc081611df9565b82525050565b602082016000820151611fdc6000850182611fb7565b50505050565b6000602082019050611ff76000830184611fc6565b92915050565b600082825260208201905092915050565b600061201982611c49565b6120238185611ffd565b9350612033818560208601611c65565b61203c81611c98565b840191505092915050565b61205081611e5c565b82525050565b60006040830160008301518482036000860152612073828261200e565b91505060208301516120886020860182612047565b508091505092915050565b600060208201905081810360008301526120ad8184612056565b905092915050565b6120be81611f4d565b81146120c957600080fd5b50565b6000813590506120db816120b5565b92915050565b6000602082840312156120f7576120f6611d0e565b5b6000612105848285016120cc565b91505092915050565b61211781611d38565b82525050565b6000602082019050612132600083018461210e565b92915050565b600080fd5b600080fd5b7f4e487b7100000000000000000000000000000000000000000000000000000000600052604160045260246000fd5b61217a82611c98565b810181811067ffffffffffffffff8211171561219957612198612142565b5b80604052505050565b60006121ac611d04565b90506121b88282612171565b919050565b600067ffffffffffffffff8211156121d8576121d7612142565b5b6121e182611c98565b9050602081019050919050565b82818337600083830152505050565b600061221061220b846121bd565b6121a2565b90508281526020810184848401111561222c5761222b61213d565b5b6122378482856121ee565b509392505050565b600082601f83011261225457612253612138565b5b81356122648482602086016121fd565b91505092915050565b60006020828403121561228357612282611d0e565b5b600082013567ffffffffffffffff8111156122a1576122a0611d13565b5b6122ad8482850161223f565b91505092915050565b7f4e487b7100000000000000000000000000000000000000000000000000000000600052602260045260246000fd5b600060028204905060018216806122fd57607f821691505b60208210811415612311576123106122b6565b5b50919050565b7f4f776e61626c653a2063616c6c6572206973206e6f7420746865206f776e6572600082015250565b600061234d602083611c54565b915061235882612317565b602082019050919050565b6000602082019050818103600083015261237c81612340565b9050919050565b7f4e6f7420617574686f72697a6564000000000000000000000000000000000000600082015250565b60006123b9600e83611c54565b91506123c482612383565b602082019050919050565b600060208201905081810360008301526123e8816123ac565b9050919050565b7f4e487b7100000000000000000000000000000000000000000000000000000000600052601160045260246000fd5b600061242982611f4d565b91507fffffffffffffffffffffffffffffffffffffffffffffffffffffffffffffffff82141561245c5761245b6123ef565b5b600182019050919050565b600060408201905061247c600083018561210e565b612489602083018461210e565b9392505050565b7f496d706f737369626c6520746f206a6f696e0000000000000000000000000000600082015250565b60006124c6601283611c54565b91506124d182612490565b602082019050919050565b600060208201905081810360008301526124f5816124b9565b9050919050565b7f4f776e61626c653a206e6577206f776e657220697320746865207a65726f206160008201527f6464726573730000000000000000000000000000000000000000000000000000602082015250565b6000612558602683611c54565b9150612563826124fc565b604082019050919050565b600060208201905081810360008301526125878161254b565b905091905056fea2646970667358221220cde951d33d59ddca39c12dec9191270e6716abdc931655e039d8472a52f857b064736f6c63430008090033",
  "immutableReferences": {},
  "source": "// SPDX-License-Identifier: MIT\r\npragma solidity ^0.8.9;\r\n\r\nimport \"../../node_modules/@openzeppelin/contracts/utils/math/SafeMath.sol\";\r\nimport \"../../node_modules/@openzeppelin/contracts/access/Ownable.sol\";\r\nimport \"../Data.sol\";\r\n\r\n//is DaosFactory\r\ncontract Dao is Ownable {\r\n  using SafeMath for uint256;\r\n\r\n  uint256[] public modules;\r\n  string public name;\r\n  string public description;\r\n  uint256 public membersCount;\r\n  mapping(uint256 => address) public memberAddresses;\r\n  mapping(address => Data.member) public members;\r\n  Data.membershipModeEnum public membershipModeMode;\r\n  Data.visibilityEnum public visibility;\r\n  mapping(address => bool) private authorizedContracts;\r\n  //member[] public members;\r\n\r\n  constructor (string memory _name, uint8 membershipMode, string memory _description, bool isPrivate)\r\n    {\r\n      name = _name;\r\n      description = _description;\r\n    membershipModeMode = Data.membershipModeEnum(membershipMode);\r\n      if(isPrivate)\r\n          visibility = Data.visibilityEnum.privateDao;\r\n      else\r\n          visibility = Data.visibilityEnum.publicDao;\r\n    }\r\n\r\n  event MemberAdded(address newMember);\r\n  event MemberInvited(address memberInvitor, address memberInvited);\r\n  event MemberJoined(address memberJoined);\r\n  event MemberAskedJoin(address memberRequestor);\r\n\r\n//   struct member {\r\n//         memberStatus status;\r\n//         //address memberAddress;\r\n//     }\r\n\r\n//   enum visibilityEnum {\r\n//         privateDao,\r\n//         publicDao\r\n//     }\r\n\r\n//   enum memberStatus {\r\n//         notMember,\r\n//         invited,\r\n//         asking,\r\n//         active\r\n//     }\r\n\r\n    // enum membershipModeEnum {\r\n    //     invite,\r\n    //     request,\r\n    //     open\r\n    // }\r\n\r\n    modifier onlyActiveMembersOrAuthorizeContracts() {\r\n        require(members[msg.sender].status == Data.memberStatus.active || authorizedContracts[msg.sender] == true, \"Not authorized\");\r\n        _;\r\n    }\r\n\r\n    modifier onlyNotActiveMembers() {\r\n        require(members[msg.sender].status != Data.memberStatus.active, \"Not authorized\");\r\n        _;\r\n    }\r\n\r\n    modifier onlyAuthorizeContracts() {\r\n        require(authorizedContracts[msg.sender] == true, \"Not authorized\");\r\n        _;\r\n    }\r\n\r\n    modifier onlyAuthorizeContractsOrOwner() {\r\n        require(((authorizedContracts[msg.sender] == true) || msg.sender == owner()), \"Not authorized\");\r\n        _;\r\n    }\r\n\r\n    function setMode(Data.membershipModeEnum _mode) public onlyOwner() {\r\n       membershipModeMode = _mode;\r\n    }\r\n\r\n    function getMemberShipMode() public view returns(Data.membershipModeEnum) {\r\n       return membershipModeMode;\r\n    }\r\n\r\n    function setName(string memory _name) public onlyOwner() {\r\n       name = _name;\r\n    }\r\n\r\n    function getName() public view returns(string memory) {\r\n       return name;\r\n    }\r\n\r\n    function setDescription(string memory _description) public onlyOwner() {\r\n       description = _description;\r\n    }\r\n\r\n    function getDescription() public view returns(string memory) {\r\n       return description;\r\n    }\r\n\r\n    function getVisibility() public view returns(Data.visibilityEnum) {\r\n       return visibility;\r\n    }\r\n    function getMemberInfo(address _member) external view returns(Data.member memory) {\r\n        return(members[_member]);\r\n    }\r\n    function getInfoDao() external view returns(Data.daoData memory info) {\r\n        info.daoType = \"DAO, Invite or Request\";\r\n        info.visibility = visibility;\r\n    }\r\n\r\n    function addMember(address addressMember) public onlyActiveMembersOrAuthorizeContracts() {\r\n        members[addressMember].status = Data.memberStatus.active;\r\n        memberAddresses[membersCount] = addressMember;\r\n        ++membersCount;\r\n        emit MemberAdded(addressMember);\r\n    }\r\n\r\n    function acceptMember(address addressMember) public onlyActiveMembersOrAuthorizeContracts() {\r\n        members[addressMember].status = Data.memberStatus.active;\r\n        emit MemberAdded(addressMember);\r\n    }\r\n\r\n    function inviteMember(address addressMember) public onlyActiveMembersOrAuthorizeContracts() {\r\n        members[addressMember].status = Data.memberStatus.invited;\r\n        memberAddresses[membersCount] = addressMember;\r\n        ++membersCount;\r\n        emit MemberInvited(msg.sender, addressMember);\r\n    }\r\n\r\n    function requestJoin() public onlyNotActiveMembers() {\r\n        members[msg.sender].status = Data.memberStatus.asking;\r\n        memberAddresses[membersCount] = msg.sender;\r\n        ++membersCount;\r\n        emit MemberAskedJoin(msg.sender);\r\n    }\r\n\r\n    function isActiveMember(address addressMember) public view returns (bool){\r\n        return members[addressMember].status == Data.memberStatus.active;\r\n    }\r\n\r\n    function join() public onlyNotActiveMembers() {\r\n        require((members[msg.sender].status == Data.memberStatus.invited && membershipModeMode == Data.membershipModeEnum.invite)\r\n         || (members[msg.sender].status == Data.memberStatus.notMember && membershipModeMode == Data.membershipModeEnum.open)\r\n                , \"Impossible to join\");\r\n        members[msg.sender].status = Data.memberStatus.active;\r\n        emit MemberJoined(msg.sender);\r\n    }\r\n\r\n    function authorizeContract(address _contractAddress) external onlyAuthorizeContractsOrOwner() {\r\n        authorizedContracts[_contractAddress] = true;\r\n    }\r\n\r\n    function denyContract(address _contractAddress) external onlyAuthorizeContractsOrOwner() {\r\n        authorizedContracts[_contractAddress] = false;\r\n    }\r\n}",
  "sourcePath": "C:\\Users\\mdmou\\source\\repos\\MY-DAO\\contracts\\Daos\\Dao.sol",
  "compiler": {
    "name": "solc",
    "version": "0.8.9+commit.e5eed63a.Emscripten.clang"
  },
  "schemaVersion": "3.4.4",
  "updatedAt": "2022-05-10T07:02:55.798Z",
  "devdoc": {
    "kind": "dev",
    "methods": {
      "owner()": {
        "details": "Returns the address of the current owner."
      },
      "renounceOwnership()": {
        "details": "Leaves the contract without owner. It will not be possible to call `onlyOwner` functions anymore. Can only be called by the current owner. NOTE: Renouncing ownership will leave the contract without an owner, thereby removing any functionality that is only available to the owner."
      },
      "transferOwnership(address)": {
        "details": "Transfers ownership of the contract to a new account (`newOwner`). Can only be called by the current owner."
      }
    },
    "version": 1
  },
  "userdoc": {
    "kind": "user",
    "methods": {},
    "version": 1
  }
}