{
  "contractName": "Dao",
  "abi": [
    {
      "inputs": [
        {
          "internalType": "string",
          "name": "_name",
          "type": "string"
        },
        {
          "internalType": "bool",
          "name": "byInvitation",
          "type": "bool"
        },
        {
          "internalType": "string",
          "name": "_description",
          "type": "string"
        },
        {
          "internalType": "bool",
          "name": "isPrivate",
          "type": "bool"
        }
      ],
      "stateMutability": "nonpayable",
      "type": "constructor"
    },
    {
      "anonymous": false,
      "inputs": [
        {
          "indexed": false,
          "internalType": "address",
          "name": "newMember",
          "type": "address"
        }
      ],
      "name": "MemberAdded",
      "type": "event"
    },
    {
      "anonymous": false,
      "inputs": [
        {
          "indexed": false,
          "internalType": "address",
          "name": "memberInvitor",
          "type": "address"
        },
        {
          "indexed": false,
          "internalType": "address",
          "name": "memberInvited",
          "type": "address"
        }
      ],
      "name": "MemberInvited",
      "type": "event"
    },
    {
      "anonymous": false,
      "inputs": [
        {
          "indexed": false,
          "internalType": "address",
          "name": "memberJoined",
          "type": "address"
        }
      ],
      "name": "MemberJoined",
      "type": "event"
    },
    {
      "anonymous": false,
      "inputs": [
        {
          "indexed": true,
          "internalType": "address",
          "name": "previousOwner",
          "type": "address"
        },
        {
          "indexed": true,
          "internalType": "address",
          "name": "newOwner",
          "type": "address"
        }
      ],
      "name": "OwnershipTransferred",
      "type": "event"
    },
    {
      "inputs": [],
      "name": "description",
      "outputs": [
        {
          "internalType": "string",
          "name": "",
          "type": "string"
        }
      ],
      "stateMutability": "view",
      "type": "function"
    },
    {
      "inputs": [],
      "name": "id",
      "outputs": [
        {
          "internalType": "uint256",
          "name": "",
          "type": "uint256"
        }
      ],
      "stateMutability": "view",
      "type": "function"
    },
    {
      "inputs": [
        {
          "internalType": "address",
          "name": "",
          "type": "address"
        }
      ],
      "name": "members",
      "outputs": [
        {
          "internalType": "enum Dao.memberStatus",
          "name": "status",
          "type": "uint8"
        }
      ],
      "stateMutability": "view",
      "type": "function"
    },
    {
      "inputs": [],
      "name": "membershipModeMode",
      "outputs": [
        {
          "internalType": "enum Dao.membershipModeEnum",
          "name": "",
          "type": "uint8"
        }
      ],
      "stateMutability": "view",
      "type": "function"
    },
    {
      "inputs": [
        {
          "internalType": "uint256",
          "name": "",
          "type": "uint256"
        }
      ],
      "name": "modules",
      "outputs": [
        {
          "internalType": "uint256",
          "name": "",
          "type": "uint256"
        }
      ],
      "stateMutability": "view",
      "type": "function"
    },
    {
      "inputs": [],
      "name": "name",
      "outputs": [
        {
          "internalType": "string",
          "name": "",
          "type": "string"
        }
      ],
      "stateMutability": "view",
      "type": "function"
    },
    {
      "inputs": [],
      "name": "owner",
      "outputs": [
        {
          "internalType": "address",
          "name": "",
          "type": "address"
        }
      ],
      "stateMutability": "view",
      "type": "function"
    },
    {
      "inputs": [],
      "name": "renounceOwnership",
      "outputs": [],
      "stateMutability": "nonpayable",
      "type": "function"
    },
    {
      "inputs": [
        {
          "internalType": "address",
          "name": "newOwner",
          "type": "address"
        }
      ],
      "name": "transferOwnership",
      "outputs": [],
      "stateMutability": "nonpayable",
      "type": "function"
    },
    {
      "inputs": [],
      "name": "visibility",
      "outputs": [
        {
          "internalType": "enum Dao.visibilityEnum",
          "name": "",
          "type": "uint8"
        }
      ],
      "stateMutability": "view",
      "type": "function"
    },
    {
      "inputs": [
        {
          "internalType": "enum Dao.membershipModeEnum",
          "name": "_mode",
          "type": "uint8"
        }
      ],
      "name": "setMode",
      "outputs": [],
      "stateMutability": "nonpayable",
      "type": "function"
    },
    {
      "inputs": [],
      "name": "getMemberShipMode",
      "outputs": [
        {
          "internalType": "enum Dao.membershipModeEnum",
          "name": "",
          "type": "uint8"
        }
      ],
      "stateMutability": "view",
      "type": "function"
    },
    {
      "inputs": [
        {
          "internalType": "string",
          "name": "_name",
          "type": "string"
        }
      ],
      "name": "setName",
      "outputs": [],
      "stateMutability": "nonpayable",
      "type": "function"
    },
    {
      "inputs": [],
      "name": "getName",
      "outputs": [
        {
          "internalType": "string",
          "name": "",
          "type": "string"
        }
      ],
      "stateMutability": "view",
      "type": "function"
    },
    {
      "inputs": [
        {
          "internalType": "string",
          "name": "_description",
          "type": "string"
        }
      ],
      "name": "setDescription",
      "outputs": [],
      "stateMutability": "nonpayable",
      "type": "function"
    },
    {
      "inputs": [],
      "name": "getDescription",
      "outputs": [
        {
          "internalType": "string",
          "name": "",
          "type": "string"
        }
      ],
      "stateMutability": "view",
      "type": "function"
    },
    {
      "inputs": [],
      "name": "getVisibility",
      "outputs": [
        {
          "internalType": "enum Dao.visibilityEnum",
          "name": "",
          "type": "uint8"
        }
      ],
      "stateMutability": "view",
      "type": "function"
    },
    {
      "inputs": [
        {
          "internalType": "address",
          "name": "addressMember",
          "type": "address"
        }
      ],
      "name": "addMember",
      "outputs": [],
      "stateMutability": "nonpayable",
      "type": "function"
    },
    {
      "inputs": [
        {
          "internalType": "address",
          "name": "addressMember",
          "type": "address"
        }
      ],
      "name": "inviteMember",
      "outputs": [],
      "stateMutability": "nonpayable",
      "type": "function"
    },
    {
      "inputs": [
        {
          "internalType": "address",
          "name": "addressMember",
          "type": "address"
        }
      ],
      "name": "isActiveMember",
      "outputs": [
        {
          "internalType": "bool",
          "name": "",
          "type": "bool"
        }
      ],
      "stateMutability": "view",
      "type": "function"
    },
    {
      "inputs": [],
      "name": "join",
      "outputs": [],
      "stateMutability": "nonpayable",
      "type": "function"
    },
    {
      "inputs": [
        {
          "internalType": "address",
          "name": "_contractAddress",
          "type": "address"
        }
      ],
      "name": "authorizeContract",
      "outputs": [],
      "stateMutability": "nonpayable",
      "type": "function"
    },
    {
      "inputs": [
        {
          "internalType": "address",
          "name": "_contractAddress",
          "type": "address"
        }
      ],
      "name": "denyContract",
      "outputs": [],
      "stateMutability": "nonpayable",
      "type": "function"
    }
  ],
  "bytecode": "0x60806040523480156200001157600080fd5b5060405162002365380380620023658339818101604052810190620000379190620004cf565b620000696200005462000179640100000000026401000000009004565b62000181640100000000026401000000009004565b83600290805190602001906200008192919062000245565b5081600390805190602001906200009a92919062000245565b508215620000d6576000600660006101000a81548160ff02191690836002811115620000cb57620000ca6200057f565b5b021790555062000105565b6002600660006101000a81548160ff02191690836002811115620000ff57620000fe6200057f565b5b02179055505b801562000140576000600660016101000a81548160ff021916908360018111156200013557620001346200057f565b5b02179055506200016f565b6001600660016101000a81548160ff021916908360018111156200016957620001686200057f565b5b02179055505b5050505062000612565b600033905090565b60008060009054906101000a900473ffffffffffffffffffffffffffffffffffffffff169050816000806101000a81548173ffffffffffffffffffffffffffffffffffffffff021916908373ffffffffffffffffffffffffffffffffffffffff1602179055508173ffffffffffffffffffffffffffffffffffffffff168173ffffffffffffffffffffffffffffffffffffffff167f8be0079c531659141344cd1fd0a4f28419497f9722a3daafe3b4186f6b6457e060405160405180910390a35050565b8280546200025390620005dd565b90600052602060002090601f016020900481019282620002775760008555620002c3565b82601f106200029257805160ff1916838001178555620002c3565b82800160010185558215620002c3579182015b82811115620002c2578251825591602001919060010190620002a5565b5b509050620002d29190620002d6565b5090565b5b80821115620002f1576000816000905550600101620002d7565b5090565b6000604051905090565b600080fd5b600080fd5b600080fd5b600080fd5b6000601f19601f8301169050919050565b7f4e487b7100000000000000000000000000000000000000000000000000000000600052604160045260246000fd5b6200035e8262000313565b810181811067ffffffffffffffff8211171562000380576200037f62000324565b5b80604052505050565b600062000395620002f5565b9050620003a3828262000353565b919050565b600067ffffffffffffffff821115620003c657620003c562000324565b5b620003d18262000313565b9050602081019050919050565b60005b83811015620003fe578082015181840152602081019050620003e1565b838111156200040e576000848401525b50505050565b60006200042b6200042584620003a8565b62000389565b9050828152602081018484840111156200044a57620004496200030e565b5b62000457848285620003de565b509392505050565b600082601f83011262000477576200047662000309565b5b81516200048984826020860162000414565b91505092915050565b60008115159050919050565b620004a98162000492565b8114620004b557600080fd5b50565b600081519050620004c9816200049e565b92915050565b60008060008060808587031215620004ec57620004eb620002ff565b5b600085015167ffffffffffffffff8111156200050d576200050c62000304565b5b6200051b878288016200045f565b94505060206200052e87828801620004b8565b935050604085015167ffffffffffffffff81111562000552576200055162000304565b5b62000560878288016200045f565b92505060606200057387828801620004b8565b91505092959194509250565b7f4e487b7100000000000000000000000000000000000000000000000000000000600052602160045260246000fd5b7f4e487b7100000000000000000000000000000000000000000000000000000000600052602260045260246000fd5b60006002820490506001821680620005f657607f821691505b6020821081036200060c576200060b620005ae565b5b50919050565b611d4380620006226000396000f3fe608060405234801561001057600080fd5b506004361061016a576000357c010000000000000000000000000000000000000000000000000000000090048063715018a6116100e0578063b688a36311610099578063b688a36314610387578063b7e2077e14610391578063c3919443146103ad578063c47f0027146103cb578063ca6d56dc146103e7578063f2fde38b146104035761016a565b8063715018a6146102d75780637284e416146102e157806381b2248a146102ff5780638da5cb5b1461032f57806390c3f38f1461034d578063af640d0f146103695761016a565b80631f46cc62116101325780631f46cc621461021757806321175b4a1461023557806329adec14146102515780632f890b931461026f57806345ecd02f1461028b57806367561d93146102bb5761016a565b806306fdde031461016f57806308ae4b0c1461018d5780630a05fb09146101bd57806317d7de7c146101db5780631a092541146101f9575b600080fd5b61017761041f565b60405161018491906115d8565b60405180910390f35b6101a760048036038101906101a2919061166c565b6104ad565b6040516101b49190611710565b60405180910390f35b6101c56104d8565b6040516101d29190611773565b60405180910390f35b6101e36104ef565b6040516101f091906115d8565b60405180910390f35b610201610581565b60405161020e91906115d8565b60405180910390f35b61021f610613565b60405161022c91906117d6565b60405180910390f35b61024f600480360381019061024a9190611816565b610626565b005b6102596106cf565b6040516102669190611773565b60405180910390f35b6102896004803603810190610284919061166c565b6106e2565b005b6102a560048036038101906102a0919061166c565b610899565b6040516102b2919061185e565b60405180910390f35b6102d560048036038101906102d0919061166c565b610918565b005b6102df610a43565b005b6102e9610acb565b6040516102f691906115d8565b60405180910390f35b610319600480360381019061031491906118af565b610b59565b60405161032691906118eb565b60405180910390f35b610337610b7d565b6040516103449190611915565b60405180910390f35b61036760048036038101906103629190611a65565b610ba6565b005b610371610c3c565b60405161037e91906118eb565b60405180910390f35b61038f610c42565b005b6103ab60048036038101906103a6919061166c565b610f4c565b005b6103b5611077565b6040516103c291906117d6565b60405180910390f35b6103e560048036038101906103e09190611a65565b61108e565b005b61040160048036038101906103fc919061166c565b611124565b005b61041d6004803603810190610418919061166c565b6112d9565b005b6002805461042c90611add565b80601f016020809104026020016040519081016040528092919081815260200182805461045890611add565b80156104a55780601f1061047a576101008083540402835291602001916104a5565b820191906000526020600020905b81548152906001019060200180831161048857829003601f168201915b505050505081565b60056020528060005260406000206000915090508060000160009054906101000a900460ff16905081565b6000600660019054906101000a900460ff16905090565b6060600280546104fe90611add565b80601f016020809104026020016040519081016040528092919081815260200182805461052a90611add565b80156105775780601f1061054c57610100808354040283529160200191610577565b820191906000526020600020905b81548152906001019060200180831161055a57829003601f168201915b5050505050905090565b60606003805461059090611add565b80601f01602080910402602001604051908101604052809291908181526020018280546105bc90611add565b80156106095780601f106105de57610100808354040283529160200191610609565b820191906000526020600020905b8154815290600101906020018083116105ec57829003601f168201915b5050505050905090565b600660009054906101000a900460ff1681565b61062e6113d0565b73ffffffffffffffffffffffffffffffffffffffff1661064c610b7d565b73ffffffffffffffffffffffffffffffffffffffff16146106a2576040517f08c379a000000000000000000000000000000000000000000000000000000000815260040161069990611b5a565b60405180910390fd5b80600660006101000a81548160ff021916908360028111156106c7576106c6611699565b5b021790555050565b600660019054906101000a900460ff1681565b6003808111156106f5576106f4611699565b5b600560003373ffffffffffffffffffffffffffffffffffffffff1673ffffffffffffffffffffffffffffffffffffffff16815260200190815260200160002060000160009054906101000a900460ff16600381111561075757610756611699565b5b14806107b3575060011515600760003373ffffffffffffffffffffffffffffffffffffffff1673ffffffffffffffffffffffffffffffffffffffff16815260200190815260200160002060009054906101000a900460ff161515145b6107f2576040517f08c379a00000000000000000000000000000000000000000000000000000000081526004016107e990611bc6565b60405180910390fd5b6001600560008373ffffffffffffffffffffffffffffffffffffffff1673ffffffffffffffffffffffffffffffffffffffff16815260200190815260200160002060000160006101000a81548160ff0219169083600381111561085857610857611699565b5b02179055507f6c246c8894ac239253d22cd508dbe8eb7e027e0589cdd4ff16dbb4238ccd9834338260405161088e929190611be6565b60405180910390a150565b60006003808111156108ae576108ad611699565b5b600560008473ffffffffffffffffffffffffffffffffffffffff1673ffffffffffffffffffffffffffffffffffffffff16815260200190815260200160002060000160009054906101000a900460ff1660038111156109105761090f611699565b5b149050919050565b60011515600760003373ffffffffffffffffffffffffffffffffffffffff1673ffffffffffffffffffffffffffffffffffffffff16815260200190815260200160002060009054906101000a900460ff16151514806109a9575061097a610b7d565b73ffffffffffffffffffffffffffffffffffffffff163373ffffffffffffffffffffffffffffffffffffffff16145b6109e8576040517f08c379a00000000000000000000000000000000000000000000000000000000081526004016109df90611bc6565b60405180910390fd5b6001600760008373ffffffffffffffffffffffffffffffffffffffff1673ffffffffffffffffffffffffffffffffffffffff16815260200190815260200160002060006101000a81548160ff02191690831515021790555050565b610a4b6113d0565b73ffffffffffffffffffffffffffffffffffffffff16610a69610b7d565b73ffffffffffffffffffffffffffffffffffffffff1614610abf576040517f08c379a0000000000000000000000000000000000000000000000000000000008152600401610ab690611b5a565b60405180910390fd5b610ac960006113d8565b565b60038054610ad890611add565b80601f0160208091040260200160405190810160405280929190818152602001828054610b0490611add565b8015610b515780601f10610b2657610100808354040283529160200191610b51565b820191906000526020600020905b815481529060010190602001808311610b3457829003601f168201915b505050505081565b60018181548110610b6957600080fd5b906000526020600020016000915090505481565b60008060009054906101000a900473ffffffffffffffffffffffffffffffffffffffff16905090565b610bae6113d0565b73ffffffffffffffffffffffffffffffffffffffff16610bcc610b7d565b73ffffffffffffffffffffffffffffffffffffffff1614610c22576040517f08c379a0000000000000000000000000000000000000000000000000000000008152600401610c1990611b5a565b60405180910390fd5b8060039080519060200190610c3892919061149c565b5050565b60045481565b600380811115610c5557610c54611699565b5b600560003373ffffffffffffffffffffffffffffffffffffffff1673ffffffffffffffffffffffffffffffffffffffff16815260200190815260200160002060000160009054906101000a900460ff166003811115610cb757610cb6611699565b5b03610cf7576040517f08c379a0000000000000000000000000000000000000000000000000000000008152600401610cee90611bc6565b60405180910390fd5b60016003811115610d0b57610d0a611699565b5b600560003373ffffffffffffffffffffffffffffffffffffffff1673ffffffffffffffffffffffffffffffffffffffff16815260200190815260200160002060000160009054906101000a900460ff166003811115610d6d57610d6c611699565b5b148015610dad575060006002811115610d8957610d88611699565b5b600660009054906101000a900460ff166002811115610dab57610daa611699565b5b145b80610e69575060006003811115610dc757610dc6611699565b5b600560003373ffffffffffffffffffffffffffffffffffffffff1673ffffffffffffffffffffffffffffffffffffffff16815260200190815260200160002060000160009054906101000a900460ff166003811115610e2957610e28611699565b5b148015610e685750600280811115610e4457610e43611699565b5b600660009054906101000a900460ff166002811115610e6657610e65611699565b5b145b5b610ea8576040517f08c379a0000000000000000000000000000000000000000000000000000000008152600401610e9f90611c5b565b60405180910390fd5b6003600560003373ffffffffffffffffffffffffffffffffffffffff1673ffffffffffffffffffffffffffffffffffffffff16815260200190815260200160002060000160006101000a81548160ff02191690836003811115610f0e57610f0d611699565b5b02179055507f0abf3b3f643594d958297062a019458e27d7766629590ac621aa1000fa1298ab33604051610f429190611915565b60405180910390a1565b60011515600760003373ffffffffffffffffffffffffffffffffffffffff1673ffffffffffffffffffffffffffffffffffffffff16815260200190815260200160002060009054906101000a900460ff1615151480610fdd5750610fae610b7d565b73ffffffffffffffffffffffffffffffffffffffff163373ffffffffffffffffffffffffffffffffffffffff16145b61101c576040517f08c379a000000000000000000000000000000000000000000000000000000000815260040161101390611bc6565b60405180910390fd5b6000600760008373ffffffffffffffffffffffffffffffffffffffff1673ffffffffffffffffffffffffffffffffffffffff16815260200190815260200160002060006101000a81548160ff02191690831515021790555050565b6000600660009054906101000a900460ff16905090565b6110966113d0565b73ffffffffffffffffffffffffffffffffffffffff166110b4610b7d565b73ffffffffffffffffffffffffffffffffffffffff161461110a576040517f08c379a000000000000000000000000000000000000000000000000000000000815260040161110190611b5a565b60405180910390fd5b806002908051906020019061112092919061149c565b5050565b60038081111561113757611136611699565b5b600560003373ffffffffffffffffffffffffffffffffffffffff1673ffffffffffffffffffffffffffffffffffffffff16815260200190815260200160002060000160009054906101000a900460ff16600381111561119957611198611699565b5b14806111f5575060011515600760003373ffffffffffffffffffffffffffffffffffffffff1673ffffffffffffffffffffffffffffffffffffffff16815260200190815260200160002060009054906101000a900460ff161515145b611234576040517f08c379a000000000000000000000000000000000000000000000000000000000815260040161122b90611bc6565b60405180910390fd5b6003600560008373ffffffffffffffffffffffffffffffffffffffff1673ffffffffffffffffffffffffffffffffffffffff16815260200190815260200160002060000160006101000a81548160ff0219169083600381111561129a57611299611699565b5b02179055507fb251eb052afc73ffd02ffe85ad79990a8b3fed60d76dbc2fa2fdd7123dffd914816040516112ce9190611915565b60405180910390a150565b6112e16113d0565b73ffffffffffffffffffffffffffffffffffffffff166112ff610b7d565b73ffffffffffffffffffffffffffffffffffffffff1614611355576040517f08c379a000000000000000000000000000000000000000000000000000000000815260040161134c90611b5a565b60405180910390fd5b600073ffffffffffffffffffffffffffffffffffffffff168173ffffffffffffffffffffffffffffffffffffffff16036113c4576040517f08c379a00000000000000000000000000000000000000000000000000000000081526004016113bb90611ced565b60405180910390fd5b6113cd816113d8565b50565b600033905090565b60008060009054906101000a900473ffffffffffffffffffffffffffffffffffffffff169050816000806101000a81548173ffffffffffffffffffffffffffffffffffffffff021916908373ffffffffffffffffffffffffffffffffffffffff1602179055508173ffffffffffffffffffffffffffffffffffffffff168173ffffffffffffffffffffffffffffffffffffffff167f8be0079c531659141344cd1fd0a4f28419497f9722a3daafe3b4186f6b6457e060405160405180910390a35050565b8280546114a890611add565b90600052602060002090601f0160209004810192826114ca5760008555611511565b82601f106114e357805160ff1916838001178555611511565b82800160010185558215611511579182015b828111156115105782518255916020019190600101906114f5565b5b50905061151e9190611522565b5090565b5b8082111561153b576000816000905550600101611523565b5090565b600081519050919050565b600082825260208201905092915050565b60005b8381101561157957808201518184015260208101905061155e565b83811115611588576000848401525b50505050565b6000601f19601f8301169050919050565b60006115aa8261153f565b6115b4818561154a565b93506115c481856020860161155b565b6115cd8161158e565b840191505092915050565b600060208201905081810360008301526115f2818461159f565b905092915050565b6000604051905090565b600080fd5b600080fd5b600073ffffffffffffffffffffffffffffffffffffffff82169050919050565b60006116398261160e565b9050919050565b6116498161162e565b811461165457600080fd5b50565b60008135905061166681611640565b92915050565b60006020828403121561168257611681611604565b5b600061169084828501611657565b91505092915050565b7f4e487b7100000000000000000000000000000000000000000000000000000000600052602160045260246000fd5b600481106116d9576116d8611699565b5b50565b60008190506116ea826116c8565b919050565b60006116fa826116dc565b9050919050565b61170a816116ef565b82525050565b60006020820190506117256000830184611701565b92915050565b6002811061173c5761173b611699565b5b50565b600081905061174d8261172b565b919050565b600061175d8261173f565b9050919050565b61176d81611752565b82525050565b60006020820190506117886000830184611764565b92915050565b6003811061179f5761179e611699565b5b50565b60008190506117b08261178e565b919050565b60006117c0826117a2565b9050919050565b6117d0816117b5565b82525050565b60006020820190506117eb60008301846117c7565b92915050565b600381106117fe57600080fd5b50565b600081359050611810816117f1565b92915050565b60006020828403121561182c5761182b611604565b5b600061183a84828501611801565b91505092915050565b60008115159050919050565b61185881611843565b82525050565b6000602082019050611873600083018461184f565b92915050565b6000819050919050565b61188c81611879565b811461189757600080fd5b50565b6000813590506118a981611883565b92915050565b6000602082840312156118c5576118c4611604565b5b60006118d38482850161189a565b91505092915050565b6118e581611879565b82525050565b600060208201905061190060008301846118dc565b92915050565b61190f8161162e565b82525050565b600060208201905061192a6000830184611906565b92915050565b600080fd5b600080fd5b7f4e487b7100000000000000000000000000000000000000000000000000000000600052604160045260246000fd5b6119728261158e565b810181811067ffffffffffffffff821117156119915761199061193a565b5b80604052505050565b60006119a46115fa565b90506119b08282611969565b919050565b600067ffffffffffffffff8211156119d0576119cf61193a565b5b6119d98261158e565b9050602081019050919050565b82818337600083830152505050565b6000611a08611a03846119b5565b61199a565b905082815260208101848484011115611a2457611a23611935565b5b611a2f8482856119e6565b509392505050565b600082601f830112611a4c57611a4b611930565b5b8135611a5c8482602086016119f5565b91505092915050565b600060208284031215611a7b57611a7a611604565b5b600082013567ffffffffffffffff811115611a9957611a98611609565b5b611aa584828501611a37565b91505092915050565b7f4e487b7100000000000000000000000000000000000000000000000000000000600052602260045260246000fd5b60006002820490506001821680611af557607f821691505b602082108103611b0857611b07611aae565b5b50919050565b7f4f776e61626c653a2063616c6c6572206973206e6f7420746865206f776e6572600082015250565b6000611b4460208361154a565b9150611b4f82611b0e565b602082019050919050565b60006020820190508181036000830152611b7381611b37565b9050919050565b7f4e6f7420617574686f72697a6564000000000000000000000000000000000000600082015250565b6000611bb0600e8361154a565b9150611bbb82611b7a565b602082019050919050565b60006020820190508181036000830152611bdf81611ba3565b9050919050565b6000604082019050611bfb6000830185611906565b611c086020830184611906565b9392505050565b7f496d706f737369626c6520746f206a6f696e0000000000000000000000000000600082015250565b6000611c4560128361154a565b9150611c5082611c0f565b602082019050919050565b60006020820190508181036000830152611c7481611c38565b9050919050565b7f4f776e61626c653a206e6577206f776e657220697320746865207a65726f206160008201527f6464726573730000000000000000000000000000000000000000000000000000602082015250565b6000611cd760268361154a565b9150611ce282611c7b565b604082019050919050565b60006020820190508181036000830152611d0681611cca565b905091905056fea26469706673582212202769b85f40cd78856dba85a16196d854fe74492846bcb5fcd9ea1f35809108b364736f6c634300080d0033",
  "immutableReferences": {},
  "source": "// SPDX-License-Identifier: MIT\r\npragma solidity 0.8.13;\r\n\r\nimport \"../node_modules/@openzeppelin/contracts/utils/math/SafeMath.sol\";\r\nimport \"../node_modules/@openzeppelin/contracts/access/Ownable.sol\";\r\n\r\n//is DaosFactory\r\ncontract Dao is Ownable {\r\n  using SafeMath for uint256;\r\n  \r\n    constructor (string memory _name, bool byInvitation, string memory _description, bool isPrivate)\r\n    {\r\n      name = _name;\r\n      description = _description;\r\n      if(byInvitation)\r\n          membershipModeMode = membershipModeEnum.invite;\r\n      else\r\n          membershipModeMode = membershipModeEnum.open;\r\n      if(isPrivate)\r\n          visibility = visibilityEnum.privateDao;\r\n      else\r\n          visibility = visibilityEnum.publicDao;\r\n    }\r\n\r\n  uint256[] public modules;\r\n  string public name;\r\n  string public description;\r\n  uint256 public id;\r\n  mapping(address => member) public members;\r\n  membershipModeEnum public membershipModeMode;\r\n  visibilityEnum public visibility;\r\n  mapping(address => bool) private authorizedContracts;\r\n  //member[] public members;\r\n\r\n  event MemberAdded(address newMember);\r\n  event MemberInvited(address memberInvitor, address memberInvited);\r\n  event MemberJoined(address memberJoined);\r\n\r\n  struct member {\r\n        memberStatus status;\r\n        //address memberAddress;\r\n    }\r\n\r\n  enum visibilityEnum {\r\n        privateDao,\r\n        publicDao\r\n    }\r\n\r\n  enum memberStatus {\r\n        notMember,\r\n        invited,\r\n        asking,\r\n        active\r\n    }\r\n\r\n    enum membershipModeEnum {\r\n        invite,\r\n        request,\r\n        open\r\n    }\r\n\r\n    modifier onlyActiveMembersOrAuthorizeContracts() {\r\n        require(members[msg.sender].status == memberStatus.active || authorizedContracts[msg.sender] == true, \"Not authorized\");\r\n        _;\r\n    }\r\n\r\n    modifier onlyNotActiveMembers() {\r\n        require(members[msg.sender].status != memberStatus.active, \"Not authorized\");\r\n        _;\r\n    }\r\n\r\n    modifier onlyAuthorizeContracts() {\r\n        require(authorizedContracts[msg.sender] == true, \"Not authorized\");\r\n        _;\r\n    }\r\n\r\n    modifier onlyAuthorizeContractsOrOwner() {\r\n        require(((authorizedContracts[msg.sender] == true) || msg.sender == owner()), \"Not authorized\");\r\n        _;\r\n    }\r\n\r\n    function setMode(membershipModeEnum _mode) public onlyOwner() {\r\n       membershipModeMode = _mode;\r\n    }\r\n\r\n    function getMemberShipMode() public view returns(membershipModeEnum) {\r\n       return membershipModeMode;\r\n    }\r\n\r\n    function setName(string memory _name) public onlyOwner() {\r\n       name = _name;\r\n    }\r\n\r\n    function getName() public view returns(string memory) {\r\n       return name;\r\n    }\r\n\r\n    function setDescription(string memory _description) public onlyOwner() {\r\n       description = _description;\r\n    }\r\n\r\n    function getDescription() public view returns(string memory) {\r\n       return description;\r\n    }\r\n\r\n    function getVisibility() public view returns(visibilityEnum) {\r\n       return visibility;\r\n    }\r\n\r\n    function addMember(address addressMember) public onlyActiveMembersOrAuthorizeContracts() {\r\n        members[addressMember].status = memberStatus.active;\r\n        emit MemberAdded(addressMember);\r\n    }\r\n\r\n    function inviteMember(address addressMember) public onlyActiveMembersOrAuthorizeContracts() {\r\n        members[addressMember].status = memberStatus.invited;\r\n        emit MemberInvited(msg.sender, addressMember);\r\n    }\r\n\r\n    function isActiveMember(address addressMember) public view returns (bool){\r\n        return members[addressMember].status == memberStatus.active;\r\n    }\r\n\r\n    function join() public onlyNotActiveMembers() {\r\n        require((members[msg.sender].status == memberStatus.invited && membershipModeMode == membershipModeEnum.invite)\r\n         || (members[msg.sender].status == memberStatus.notMember && membershipModeMode == membershipModeEnum.open)\r\n                , \"Impossible to join\");\r\n        members[msg.sender].status = memberStatus.active;\r\n        emit MemberJoined(msg.sender);\r\n    }\r\n\r\n    function authorizeContract(address _contractAddress) external onlyAuthorizeContractsOrOwner() {\r\n        authorizedContracts[_contractAddress] = true;\r\n    }\r\n\r\n    function denyContract(address _contractAddress) external onlyAuthorizeContractsOrOwner() {\r\n        authorizedContracts[_contractAddress] = false;\r\n    }\r\n  \r\n\r\n    // function addMember(address addressMember) public {\r\n    //     member memory _member;\r\n    //     _member.status = memberStatus.member;\r\n    //     _member.memberAddress = addressMember;\r\n    //    members.push(_member);\r\n    // }\r\n\r\n    // function inviteMember(address addressMember) public {\r\n    //     member memory _member;\r\n    //     _member.status = memberStatus.invited;\r\n    //     _member.memberAddress = addressMember;\r\n    //    members.push(_member);\r\n    // }\r\n  \r\n}",
  "sourcePath": "C:\\Users\\mdmou\\source\\repos\\MY-DAO\\contracts\\Dao.sol",
  "compiler": {
    "name": "solc",
    "version": "0.8.13+commit.abaa5c0e.Emscripten.clang"
  },
  "schemaVersion": "3.4.4",
  "updatedAt": "2022-05-02T15:26:36.597Z",
  "devdoc": {
    "kind": "dev",
    "methods": {
      "owner()": {
        "details": "Returns the address of the current owner."
      },
      "renounceOwnership()": {
        "details": "Leaves the contract without owner. It will not be possible to call `onlyOwner` functions anymore. Can only be called by the current owner. NOTE: Renouncing ownership will leave the contract without an owner, thereby removing any functionality that is only available to the owner."
      },
      "transferOwnership(address)": {
        "details": "Transfers ownership of the contract to a new account (`newOwner`). Can only be called by the current owner."
      }
    },
    "version": 1
  },
  "userdoc": {
    "kind": "user",
    "methods": {},
    "version": 1
  }
}