{
  "contractName": "Dao",
  "abi": [
    {
      "anonymous": false,
      "inputs": [
        {
          "indexed": true,
          "internalType": "address",
          "name": "previousOwner",
          "type": "address"
        },
        {
          "indexed": true,
          "internalType": "address",
          "name": "newOwner",
          "type": "address"
        }
      ],
      "name": "OwnershipTransferred",
      "type": "event"
    },
    {
      "inputs": [],
      "name": "id",
      "outputs": [
        {
          "internalType": "uint256",
          "name": "",
          "type": "uint256"
        }
      ],
      "stateMutability": "view",
      "type": "function"
    },
    {
      "inputs": [
        {
          "internalType": "uint256",
          "name": "",
          "type": "uint256"
        }
      ],
      "name": "members",
      "outputs": [
        {
          "internalType": "enum Dao.memberStatus",
          "name": "status",
          "type": "uint8"
        }
      ],
      "stateMutability": "view",
      "type": "function"
    },
    {
      "inputs": [
        {
          "internalType": "uint256",
          "name": "",
          "type": "uint256"
        }
      ],
      "name": "modules",
      "outputs": [
        {
          "internalType": "uint256",
          "name": "",
          "type": "uint256"
        }
      ],
      "stateMutability": "view",
      "type": "function"
    },
    {
      "inputs": [],
      "name": "name",
      "outputs": [
        {
          "internalType": "string",
          "name": "",
          "type": "string"
        }
      ],
      "stateMutability": "view",
      "type": "function"
    },
    {
      "inputs": [],
      "name": "owner",
      "outputs": [
        {
          "internalType": "address",
          "name": "",
          "type": "address"
        }
      ],
      "stateMutability": "view",
      "type": "function"
    },
    {
      "inputs": [],
      "name": "renounceOwnership",
      "outputs": [],
      "stateMutability": "nonpayable",
      "type": "function"
    },
    {
      "inputs": [
        {
          "internalType": "address",
          "name": "newOwner",
          "type": "address"
        }
      ],
      "name": "transferOwnership",
      "outputs": [],
      "stateMutability": "nonpayable",
      "type": "function"
    }
  ],
  "bytecode": "0x608060405234801561001057600080fd5b5061003f61002b610044640100000000026401000000009004565b61004c640100000000026401000000009004565b610110565b600033905090565b60008060009054906101000a900473ffffffffffffffffffffffffffffffffffffffff169050816000806101000a81548173ffffffffffffffffffffffffffffffffffffffff021916908373ffffffffffffffffffffffffffffffffffffffff1602179055508173ffffffffffffffffffffffffffffffffffffffff168173ffffffffffffffffffffffffffffffffffffffff167f8be0079c531659141344cd1fd0a4f28419497f9722a3daafe3b4186f6b6457e060405160405180910390a35050565b61090a8061011f6000396000f3fe608060405234801561001057600080fd5b506004361061009a576000357c01000000000000000000000000000000000000000000000000000000009004806381b2248a1161007857806381b2248a146100f75780638da5cb5b14610127578063af640d0f14610145578063f2fde38b146101635761009a565b806306fdde031461009f5780635daf08ca146100bd578063715018a6146100ed575b600080fd5b6100a761017f565b6040516100b4919061057b565b60405180910390f35b6100d760048036038101906100d291906105d8565b61020d565b6040516100e4919061067c565b60405180910390f35b6100f5610244565b005b610111600480360381019061010c91906105d8565b6102cc565b60405161011e91906106a6565b60405180910390f35b61012f6102f0565b60405161013c9190610702565b60405180910390f35b61014d610319565b60405161015a91906106a6565b60405180910390f35b61017d60048036038101906101789190610749565b61031f565b005b6003805461018c906107a5565b80601f01602080910402602001604051908101604052809291908181526020018280546101b8906107a5565b80156102055780601f106101da57610100808354040283529160200191610205565b820191906000526020600020905b8154815290600101906020018083116101e857829003601f168201915b505050505081565b6005818154811061021d57600080fd5b906000526020600020016000915090508060000160009054906101000a900460ff16905081565b61024c610416565b73ffffffffffffffffffffffffffffffffffffffff1661026a6102f0565b73ffffffffffffffffffffffffffffffffffffffff16146102c0576040517f08c379a00000000000000000000000000000000000000000000000000000000081526004016102b790610822565b60405180910390fd5b6102ca600061041e565b565b600281815481106102dc57600080fd5b906000526020600020016000915090505481565b60008060009054906101000a900473ffffffffffffffffffffffffffffffffffffffff16905090565b60045481565b610327610416565b73ffffffffffffffffffffffffffffffffffffffff166103456102f0565b73ffffffffffffffffffffffffffffffffffffffff161461039b576040517f08c379a000000000000000000000000000000000000000000000000000000000815260040161039290610822565b60405180910390fd5b600073ffffffffffffffffffffffffffffffffffffffff168173ffffffffffffffffffffffffffffffffffffffff160361040a576040517f08c379a0000000000000000000000000000000000000000000000000000000008152600401610401906108b4565b60405180910390fd5b6104138161041e565b50565b600033905090565b60008060009054906101000a900473ffffffffffffffffffffffffffffffffffffffff169050816000806101000a81548173ffffffffffffffffffffffffffffffffffffffff021916908373ffffffffffffffffffffffffffffffffffffffff1602179055508173ffffffffffffffffffffffffffffffffffffffff168173ffffffffffffffffffffffffffffffffffffffff167f8be0079c531659141344cd1fd0a4f28419497f9722a3daafe3b4186f6b6457e060405160405180910390a35050565b600081519050919050565b600082825260208201905092915050565b60005b8381101561051c578082015181840152602081019050610501565b8381111561052b576000848401525b50505050565b6000601f19601f8301169050919050565b600061054d826104e2565b61055781856104ed565b93506105678185602086016104fe565b61057081610531565b840191505092915050565b600060208201905081810360008301526105958184610542565b905092915050565b600080fd5b6000819050919050565b6105b5816105a2565b81146105c057600080fd5b50565b6000813590506105d2816105ac565b92915050565b6000602082840312156105ee576105ed61059d565b5b60006105fc848285016105c3565b91505092915050565b7f4e487b7100000000000000000000000000000000000000000000000000000000600052602160045260246000fd5b6004811061064557610644610605565b5b50565b600081905061065682610634565b919050565b600061066682610648565b9050919050565b6106768161065b565b82525050565b6000602082019050610691600083018461066d565b92915050565b6106a0816105a2565b82525050565b60006020820190506106bb6000830184610697565b92915050565b600073ffffffffffffffffffffffffffffffffffffffff82169050919050565b60006106ec826106c1565b9050919050565b6106fc816106e1565b82525050565b600060208201905061071760008301846106f3565b92915050565b610726816106e1565b811461073157600080fd5b50565b6000813590506107438161071d565b92915050565b60006020828403121561075f5761075e61059d565b5b600061076d84828501610734565b91505092915050565b7f4e487b7100000000000000000000000000000000000000000000000000000000600052602260045260246000fd5b600060028204905060018216806107bd57607f821691505b6020821081036107d0576107cf610776565b5b50919050565b7f4f776e61626c653a2063616c6c6572206973206e6f7420746865206f776e6572600082015250565b600061080c6020836104ed565b9150610817826107d6565b602082019050919050565b6000602082019050818103600083015261083b816107ff565b9050919050565b7f4f776e61626c653a206e6577206f776e657220697320746865207a65726f206160008201527f6464726573730000000000000000000000000000000000000000000000000000602082015250565b600061089e6026836104ed565b91506108a982610842565b604082019050919050565b600060208201905081810360008301526108cd81610891565b905091905056fea264697066735822122032f37cec5ee8f281c3abe4562d126c46d5c3f411fbdd32680b4f3a9126e92adb64736f6c634300080d0033",
  "immutableReferences": {},
  "source": "// SPDX-License-Identifier: MIT\r\npragma solidity 0.8.13;\r\n\r\nimport \"../node_modules/@openzeppelin/contracts/utils/math/SafeMath.sol\";\r\nimport \"../node_modules/@openzeppelin/contracts/access/Ownable.sol\";\r\n\r\n//is DaosFactory\r\ncontract Dao is Ownable {\r\n  using SafeMath for uint256;\r\n  uint256 private daoId;\r\n  \r\n  uint256[] public modules;\r\n  string public name;\r\n  uint256 public id;\r\n  member[] public members;\r\n\r\n  struct member {\r\n        memberStatus status;\r\n    }\r\n\r\n  enum memberStatus {\r\n        notMember,\r\n        invited,\r\n        asking,\r\n        member\r\n    }\r\n  \r\n}",
  "sourcePath": "C:\\Users\\mdmou\\source\\repos\\MY-DAO\\contracts\\Dao.sol",
  "compiler": {
    "name": "solc",
    "version": "0.8.13+commit.abaa5c0e.Emscripten.clang"
  },
  "schemaVersion": "3.4.4",
  "updatedAt": "2022-04-30T12:06:34.970Z",
  "devdoc": {
    "kind": "dev",
    "methods": {
      "owner()": {
        "details": "Returns the address of the current owner."
      },
      "renounceOwnership()": {
        "details": "Leaves the contract without owner. It will not be possible to call `onlyOwner` functions anymore. Can only be called by the current owner. NOTE: Renouncing ownership will leave the contract without an owner, thereby removing any functionality that is only available to the owner."
      },
      "transferOwnership(address)": {
        "details": "Transfers ownership of the contract to a new account (`newOwner`). Can only be called by the current owner."
      }
    },
    "version": 1
  },
  "userdoc": {
    "kind": "user",
    "methods": {},
    "version": 1
  }
}