{
  "contractName": "Dao",
  "abi": [
    {
      "inputs": [
        {
          "internalType": "string",
          "name": "_name",
          "type": "string"
        },
        {
          "internalType": "bool",
          "name": "byInvitation",
          "type": "bool"
        }
      ],
      "stateMutability": "nonpayable",
      "type": "constructor"
    },
    {
      "anonymous": false,
      "inputs": [
        {
          "indexed": false,
          "internalType": "address",
          "name": "newMember",
          "type": "address"
        }
      ],
      "name": "MemberAdded",
      "type": "event"
    },
    {
      "anonymous": false,
      "inputs": [
        {
          "indexed": false,
          "internalType": "address",
          "name": "memberInvitor",
          "type": "address"
        },
        {
          "indexed": false,
          "internalType": "address",
          "name": "memberInvited",
          "type": "address"
        }
      ],
      "name": "MemberInvited",
      "type": "event"
    },
    {
      "anonymous": false,
      "inputs": [
        {
          "indexed": false,
          "internalType": "address",
          "name": "memberJoined",
          "type": "address"
        }
      ],
      "name": "MemberJoined",
      "type": "event"
    },
    {
      "anonymous": false,
      "inputs": [
        {
          "indexed": true,
          "internalType": "address",
          "name": "previousOwner",
          "type": "address"
        },
        {
          "indexed": true,
          "internalType": "address",
          "name": "newOwner",
          "type": "address"
        }
      ],
      "name": "OwnershipTransferred",
      "type": "event"
    },
    {
      "inputs": [],
      "name": "id",
      "outputs": [
        {
          "internalType": "uint256",
          "name": "",
          "type": "uint256"
        }
      ],
      "stateMutability": "view",
      "type": "function"
    },
    {
      "inputs": [
        {
          "internalType": "address",
          "name": "",
          "type": "address"
        }
      ],
      "name": "members",
      "outputs": [
        {
          "internalType": "enum Dao.memberStatus",
          "name": "status",
          "type": "uint8"
        }
      ],
      "stateMutability": "view",
      "type": "function"
    },
    {
      "inputs": [],
      "name": "membershipModeMode",
      "outputs": [
        {
          "internalType": "enum Dao.membershipModeEnum",
          "name": "",
          "type": "uint8"
        }
      ],
      "stateMutability": "view",
      "type": "function"
    },
    {
      "inputs": [
        {
          "internalType": "uint256",
          "name": "",
          "type": "uint256"
        }
      ],
      "name": "modules",
      "outputs": [
        {
          "internalType": "uint256",
          "name": "",
          "type": "uint256"
        }
      ],
      "stateMutability": "view",
      "type": "function"
    },
    {
      "inputs": [],
      "name": "name",
      "outputs": [
        {
          "internalType": "string",
          "name": "",
          "type": "string"
        }
      ],
      "stateMutability": "view",
      "type": "function"
    },
    {
      "inputs": [],
      "name": "owner",
      "outputs": [
        {
          "internalType": "address",
          "name": "",
          "type": "address"
        }
      ],
      "stateMutability": "view",
      "type": "function"
    },
    {
      "inputs": [],
      "name": "renounceOwnership",
      "outputs": [],
      "stateMutability": "nonpayable",
      "type": "function"
    },
    {
      "inputs": [
        {
          "internalType": "address",
          "name": "newOwner",
          "type": "address"
        }
      ],
      "name": "transferOwnership",
      "outputs": [],
      "stateMutability": "nonpayable",
      "type": "function"
    },
    {
      "inputs": [],
      "name": "visibility",
      "outputs": [
        {
          "internalType": "enum Dao.visibilityEnum",
          "name": "",
          "type": "uint8"
        }
      ],
      "stateMutability": "view",
      "type": "function"
    },
    {
      "inputs": [
        {
          "internalType": "enum Dao.membershipModeEnum",
          "name": "_mode",
          "type": "uint8"
        }
      ],
      "name": "setMode",
      "outputs": [],
      "stateMutability": "nonpayable",
      "type": "function"
    },
    {
      "inputs": [
        {
          "internalType": "string",
          "name": "_name",
          "type": "string"
        }
      ],
      "name": "setName",
      "outputs": [],
      "stateMutability": "nonpayable",
      "type": "function"
    },
    {
      "inputs": [
        {
          "internalType": "address",
          "name": "addressMember",
          "type": "address"
        }
      ],
      "name": "addMember",
      "outputs": [],
      "stateMutability": "nonpayable",
      "type": "function"
    },
    {
      "inputs": [
        {
          "internalType": "address",
          "name": "addressMember",
          "type": "address"
        }
      ],
      "name": "inviteMember",
      "outputs": [],
      "stateMutability": "nonpayable",
      "type": "function"
    },
    {
      "inputs": [
        {
          "internalType": "address",
          "name": "addressMember",
          "type": "address"
        }
      ],
      "name": "isActiveMember",
      "outputs": [
        {
          "internalType": "bool",
          "name": "",
          "type": "bool"
        }
      ],
      "stateMutability": "view",
      "type": "function"
    },
    {
      "inputs": [],
      "name": "join",
      "outputs": [],
      "stateMutability": "nonpayable",
      "type": "function"
    },
    {
      "inputs": [
        {
          "internalType": "address",
          "name": "_contractAddress",
          "type": "address"
        }
      ],
      "name": "authorizeContract",
      "outputs": [],
      "stateMutability": "nonpayable",
      "type": "function"
    },
    {
      "inputs": [
        {
          "internalType": "address",
          "name": "_contractAddress",
          "type": "address"
        }
      ],
      "name": "denyContract",
      "outputs": [],
      "stateMutability": "nonpayable",
      "type": "function"
    }
  ],
  "bytecode": "0x60806040523480156200001157600080fd5b5060405162001e5238038062001e5283398181016040528101906200003791906200044a565b6200006962000054620000f4640100000000026401000000009004565b620000fc640100000000026401000000009004565b816002908051906020019062000081929190620001c0565b508015620000bd576000600560006101000a81548160ff02191690836002811115620000b257620000b1620004b0565b5b0217905550620000ec565b6002600560006101000a81548160ff02191690836002811115620000e657620000e5620004b0565b5b02179055505b505062000543565b600033905090565b60008060009054906101000a900473ffffffffffffffffffffffffffffffffffffffff169050816000806101000a81548173ffffffffffffffffffffffffffffffffffffffff021916908373ffffffffffffffffffffffffffffffffffffffff1602179055508173ffffffffffffffffffffffffffffffffffffffff168173ffffffffffffffffffffffffffffffffffffffff167f8be0079c531659141344cd1fd0a4f28419497f9722a3daafe3b4186f6b6457e060405160405180910390a35050565b828054620001ce906200050e565b90600052602060002090601f016020900481019282620001f257600085556200023e565b82601f106200020d57805160ff19168380011785556200023e565b828001600101855582156200023e579182015b828111156200023d57825182559160200191906001019062000220565b5b5090506200024d919062000251565b5090565b5b808211156200026c57600081600090555060010162000252565b5090565b6000604051905090565b600080fd5b600080fd5b600080fd5b600080fd5b6000601f19601f8301169050919050565b7f4e487b7100000000000000000000000000000000000000000000000000000000600052604160045260246000fd5b620002d9826200028e565b810181811067ffffffffffffffff82111715620002fb57620002fa6200029f565b5b80604052505050565b60006200031062000270565b90506200031e8282620002ce565b919050565b600067ffffffffffffffff8211156200034157620003406200029f565b5b6200034c826200028e565b9050602081019050919050565b60005b83811015620003795780820151818401526020810190506200035c565b8381111562000389576000848401525b50505050565b6000620003a6620003a08462000323565b62000304565b905082815260208101848484011115620003c557620003c462000289565b5b620003d284828562000359565b509392505050565b600082601f830112620003f257620003f162000284565b5b8151620004048482602086016200038f565b91505092915050565b60008115159050919050565b62000424816200040d565b81146200043057600080fd5b50565b600081519050620004448162000419565b92915050565b600080604083850312156200046457620004636200027a565b5b600083015167ffffffffffffffff8111156200048557620004846200027f565b5b6200049385828601620003da565b9250506020620004a68582860162000433565b9150509250929050565b7f4e487b7100000000000000000000000000000000000000000000000000000000600052602160045260246000fd5b7f4e487b7100000000000000000000000000000000000000000000000000000000600052602260045260246000fd5b600060028204905060018216806200052757607f821691505b6020821081036200053d576200053c620004df565b5b50919050565b6118ff80620005536000396000f3fe608060405234801561001057600080fd5b5060043610610128576000357c010000000000000000000000000000000000000000000000000000000090048063715018a6116100bf578063b688a3631161008e578063b688a363146102b1578063b7e2077e146102bb578063c47f0027146102d7578063ca6d56dc146102f3578063f2fde38b1461030f57610128565b8063715018a61461023b57806381b2248a146102455780638da5cb5b14610275578063af640d0f1461029357610128565b806329adec14116100fb57806329adec14146101b55780632f890b93146101d357806345ecd02f146101ef57806367561d931461021f57610128565b806306fdde031461012d57806308ae4b0c1461014b5780631f46cc621461017b57806321175b4a14610199575b600080fd5b61013561032b565b604051610142919061126a565b60405180910390f35b610165600480360381019061016091906112f4565b6103b9565b6040516101729190611398565b60405180910390f35b6101836103e4565b60405161019091906113fb565b60405180910390f35b6101b360048036038101906101ae919061143b565b6103f7565b005b6101bd6104a0565b6040516101ca91906114b0565b60405180910390f35b6101ed60048036038101906101e891906112f4565b6104b3565b005b610209600480360381019061020491906112f4565b61066a565b60405161021691906114e6565b60405180910390f35b610239600480360381019061023491906112f4565b6106e9565b005b610243610814565b005b61025f600480360381019061025a9190611537565b61089c565b60405161026c9190611573565b60405180910390f35b61027d6108c0565b60405161028a919061159d565b60405180910390f35b61029b6108e9565b6040516102a89190611573565b60405180910390f35b6102b96108ef565b005b6102d560048036038101906102d091906112f4565b610bf9565b005b6102f160048036038101906102ec919061161d565b610d24565b005b61030d600480360381019061030891906112f4565b610db6565b005b610329600480360381019061032491906112f4565b610f6b565b005b6002805461033890611699565b80601f016020809104026020016040519081016040528092919081815260200182805461036490611699565b80156103b15780601f10610386576101008083540402835291602001916103b1565b820191906000526020600020905b81548152906001019060200180831161039457829003601f168201915b505050505081565b60046020528060005260406000206000915090508060000160009054906101000a900460ff16905081565b600560009054906101000a900460ff1681565b6103ff611062565b73ffffffffffffffffffffffffffffffffffffffff1661041d6108c0565b73ffffffffffffffffffffffffffffffffffffffff1614610473576040517f08c379a000000000000000000000000000000000000000000000000000000000815260040161046a90611716565b60405180910390fd5b80600560006101000a81548160ff0219169083600281111561049857610497611321565b5b021790555050565b600560019054906101000a900460ff1681565b6003808111156104c6576104c5611321565b5b600460003373ffffffffffffffffffffffffffffffffffffffff1673ffffffffffffffffffffffffffffffffffffffff16815260200190815260200160002060000160009054906101000a900460ff16600381111561052857610527611321565b5b1480610584575060011515600660003373ffffffffffffffffffffffffffffffffffffffff1673ffffffffffffffffffffffffffffffffffffffff16815260200190815260200160002060009054906101000a900460ff161515145b6105c3576040517f08c379a00000000000000000000000000000000000000000000000000000000081526004016105ba90611782565b60405180910390fd5b6001600460008373ffffffffffffffffffffffffffffffffffffffff1673ffffffffffffffffffffffffffffffffffffffff16815260200190815260200160002060000160006101000a81548160ff0219169083600381111561062957610628611321565b5b02179055507f6c246c8894ac239253d22cd508dbe8eb7e027e0589cdd4ff16dbb4238ccd9834338260405161065f9291906117a2565b60405180910390a150565b600060038081111561067f5761067e611321565b5b600460008473ffffffffffffffffffffffffffffffffffffffff1673ffffffffffffffffffffffffffffffffffffffff16815260200190815260200160002060000160009054906101000a900460ff1660038111156106e1576106e0611321565b5b149050919050565b60011515600660003373ffffffffffffffffffffffffffffffffffffffff1673ffffffffffffffffffffffffffffffffffffffff16815260200190815260200160002060009054906101000a900460ff161515148061077a575061074b6108c0565b73ffffffffffffffffffffffffffffffffffffffff163373ffffffffffffffffffffffffffffffffffffffff16145b6107b9576040517f08c379a00000000000000000000000000000000000000000000000000000000081526004016107b090611782565b60405180910390fd5b6001600660008373ffffffffffffffffffffffffffffffffffffffff1673ffffffffffffffffffffffffffffffffffffffff16815260200190815260200160002060006101000a81548160ff02191690831515021790555050565b61081c611062565b73ffffffffffffffffffffffffffffffffffffffff1661083a6108c0565b73ffffffffffffffffffffffffffffffffffffffff1614610890576040517f08c379a000000000000000000000000000000000000000000000000000000000815260040161088790611716565b60405180910390fd5b61089a600061106a565b565b600181815481106108ac57600080fd5b906000526020600020016000915090505481565b60008060009054906101000a900473ffffffffffffffffffffffffffffffffffffffff16905090565b60035481565b60038081111561090257610901611321565b5b600460003373ffffffffffffffffffffffffffffffffffffffff1673ffffffffffffffffffffffffffffffffffffffff16815260200190815260200160002060000160009054906101000a900460ff16600381111561096457610963611321565b5b036109a4576040517f08c379a000000000000000000000000000000000000000000000000000000000815260040161099b90611782565b60405180910390fd5b600160038111156109b8576109b7611321565b5b600460003373ffffffffffffffffffffffffffffffffffffffff1673ffffffffffffffffffffffffffffffffffffffff16815260200190815260200160002060000160009054906101000a900460ff166003811115610a1a57610a19611321565b5b148015610a5a575060006002811115610a3657610a35611321565b5b600560009054906101000a900460ff166002811115610a5857610a57611321565b5b145b80610b16575060006003811115610a7457610a73611321565b5b600460003373ffffffffffffffffffffffffffffffffffffffff1673ffffffffffffffffffffffffffffffffffffffff16815260200190815260200160002060000160009054906101000a900460ff166003811115610ad657610ad5611321565b5b148015610b155750600280811115610af157610af0611321565b5b600560009054906101000a900460ff166002811115610b1357610b12611321565b5b145b5b610b55576040517f08c379a0000000000000000000000000000000000000000000000000000000008152600401610b4c90611817565b60405180910390fd5b6003600460003373ffffffffffffffffffffffffffffffffffffffff1673ffffffffffffffffffffffffffffffffffffffff16815260200190815260200160002060000160006101000a81548160ff02191690836003811115610bbb57610bba611321565b5b02179055507f0abf3b3f643594d958297062a019458e27d7766629590ac621aa1000fa1298ab33604051610bef919061159d565b60405180910390a1565b60011515600660003373ffffffffffffffffffffffffffffffffffffffff1673ffffffffffffffffffffffffffffffffffffffff16815260200190815260200160002060009054906101000a900460ff1615151480610c8a5750610c5b6108c0565b73ffffffffffffffffffffffffffffffffffffffff163373ffffffffffffffffffffffffffffffffffffffff16145b610cc9576040517f08c379a0000000000000000000000000000000000000000000000000000000008152600401610cc090611782565b60405180910390fd5b6000600660008373ffffffffffffffffffffffffffffffffffffffff1673ffffffffffffffffffffffffffffffffffffffff16815260200190815260200160002060006101000a81548160ff02191690831515021790555050565b610d2c611062565b73ffffffffffffffffffffffffffffffffffffffff16610d4a6108c0565b73ffffffffffffffffffffffffffffffffffffffff1614610da0576040517f08c379a0000000000000000000000000000000000000000000000000000000008152600401610d9790611716565b60405180910390fd5b818160029190610db192919061112e565b505050565b600380811115610dc957610dc8611321565b5b600460003373ffffffffffffffffffffffffffffffffffffffff1673ffffffffffffffffffffffffffffffffffffffff16815260200190815260200160002060000160009054906101000a900460ff166003811115610e2b57610e2a611321565b5b1480610e87575060011515600660003373ffffffffffffffffffffffffffffffffffffffff1673ffffffffffffffffffffffffffffffffffffffff16815260200190815260200160002060009054906101000a900460ff161515145b610ec6576040517f08c379a0000000000000000000000000000000000000000000000000000000008152600401610ebd90611782565b60405180910390fd5b6003600460008373ffffffffffffffffffffffffffffffffffffffff1673ffffffffffffffffffffffffffffffffffffffff16815260200190815260200160002060000160006101000a81548160ff02191690836003811115610f2c57610f2b611321565b5b02179055507fb251eb052afc73ffd02ffe85ad79990a8b3fed60d76dbc2fa2fdd7123dffd91481604051610f60919061159d565b60405180910390a150565b610f73611062565b73ffffffffffffffffffffffffffffffffffffffff16610f916108c0565b73ffffffffffffffffffffffffffffffffffffffff1614610fe7576040517f08c379a0000000000000000000000000000000000000000000000000000000008152600401610fde90611716565b60405180910390fd5b600073ffffffffffffffffffffffffffffffffffffffff168173ffffffffffffffffffffffffffffffffffffffff1603611056576040517f08c379a000000000000000000000000000000000000000000000000000000000815260040161104d906118a9565b60405180910390fd5b61105f8161106a565b50565b600033905090565b60008060009054906101000a900473ffffffffffffffffffffffffffffffffffffffff169050816000806101000a81548173ffffffffffffffffffffffffffffffffffffffff021916908373ffffffffffffffffffffffffffffffffffffffff1602179055508173ffffffffffffffffffffffffffffffffffffffff168173ffffffffffffffffffffffffffffffffffffffff167f8be0079c531659141344cd1fd0a4f28419497f9722a3daafe3b4186f6b6457e060405160405180910390a35050565b82805461113a90611699565b90600052602060002090601f01602090048101928261115c57600085556111a3565b82601f1061117557803560ff19168380011785556111a3565b828001600101855582156111a3579182015b828111156111a2578235825591602001919060010190611187565b5b5090506111b091906111b4565b5090565b5b808211156111cd5760008160009055506001016111b5565b5090565b600081519050919050565b600082825260208201905092915050565b60005b8381101561120b5780820151818401526020810190506111f0565b8381111561121a576000848401525b50505050565b6000601f19601f8301169050919050565b600061123c826111d1565b61124681856111dc565b93506112568185602086016111ed565b61125f81611220565b840191505092915050565b600060208201905081810360008301526112848184611231565b905092915050565b600080fd5b600080fd5b600073ffffffffffffffffffffffffffffffffffffffff82169050919050565b60006112c182611296565b9050919050565b6112d1816112b6565b81146112dc57600080fd5b50565b6000813590506112ee816112c8565b92915050565b60006020828403121561130a5761130961128c565b5b6000611318848285016112df565b91505092915050565b7f4e487b7100000000000000000000000000000000000000000000000000000000600052602160045260246000fd5b6004811061136157611360611321565b5b50565b600081905061137282611350565b919050565b600061138282611364565b9050919050565b61139281611377565b82525050565b60006020820190506113ad6000830184611389565b92915050565b600381106113c4576113c3611321565b5b50565b60008190506113d5826113b3565b919050565b60006113e5826113c7565b9050919050565b6113f5816113da565b82525050565b600060208201905061141060008301846113ec565b92915050565b6003811061142357600080fd5b50565b60008135905061143581611416565b92915050565b6000602082840312156114515761145061128c565b5b600061145f84828501611426565b91505092915050565b6002811061147957611478611321565b5b50565b600081905061148a82611468565b919050565b600061149a8261147c565b9050919050565b6114aa8161148f565b82525050565b60006020820190506114c560008301846114a1565b92915050565b60008115159050919050565b6114e0816114cb565b82525050565b60006020820190506114fb60008301846114d7565b92915050565b6000819050919050565b61151481611501565b811461151f57600080fd5b50565b6000813590506115318161150b565b92915050565b60006020828403121561154d5761154c61128c565b5b600061155b84828501611522565b91505092915050565b61156d81611501565b82525050565b60006020820190506115886000830184611564565b92915050565b611597816112b6565b82525050565b60006020820190506115b2600083018461158e565b92915050565b600080fd5b600080fd5b600080fd5b60008083601f8401126115dd576115dc6115b8565b5b8235905067ffffffffffffffff8111156115fa576115f96115bd565b5b602083019150836001820283011115611616576116156115c2565b5b9250929050565b600080602083850312156116345761163361128c565b5b600083013567ffffffffffffffff81111561165257611651611291565b5b61165e858286016115c7565b92509250509250929050565b7f4e487b7100000000000000000000000000000000000000000000000000000000600052602260045260246000fd5b600060028204905060018216806116b157607f821691505b6020821081036116c4576116c361166a565b5b50919050565b7f4f776e61626c653a2063616c6c6572206973206e6f7420746865206f776e6572600082015250565b60006117006020836111dc565b915061170b826116ca565b602082019050919050565b6000602082019050818103600083015261172f816116f3565b9050919050565b7f4e6f7420617574686f72697a6564000000000000000000000000000000000000600082015250565b600061176c600e836111dc565b915061177782611736565b602082019050919050565b6000602082019050818103600083015261179b8161175f565b9050919050565b60006040820190506117b7600083018561158e565b6117c4602083018461158e565b9392505050565b7f496d706f737369626c6520746f206a6f696e0000000000000000000000000000600082015250565b60006118016012836111dc565b915061180c826117cb565b602082019050919050565b60006020820190508181036000830152611830816117f4565b9050919050565b7f4f776e61626c653a206e6577206f776e657220697320746865207a65726f206160008201527f6464726573730000000000000000000000000000000000000000000000000000602082015250565b60006118936026836111dc565b915061189e82611837565b604082019050919050565b600060208201905081810360008301526118c281611886565b905091905056fea264697066735822122042a81acf722ed7cb14a04c4eae5f1391627fbf3f2a40b308cbb548add062d82b64736f6c634300080d0033",
  "immutableReferences": {},
  "source": "// SPDX-License-Identifier: MIT\r\npragma solidity 0.8.13;\r\n\r\nimport \"../node_modules/@openzeppelin/contracts/utils/math/SafeMath.sol\";\r\nimport \"../node_modules/@openzeppelin/contracts/access/Ownable.sol\";\r\n\r\n//is DaosFactory\r\ncontract Dao is Ownable {\r\n  using SafeMath for uint256;\r\n  \r\n    constructor (string memory _name, bool byInvitation)\r\n    {\r\n      name = _name;\r\n      if(byInvitation)\r\n          membershipModeMode = membershipModeEnum.invite;\r\n      else\r\n          membershipModeMode = membershipModeEnum.open;\r\n    }\r\n\r\n  uint256[] public modules;\r\n  string public name;\r\n  uint256 public id;\r\n  mapping(address => member) public members;\r\n  membershipModeEnum public membershipModeMode;\r\n  visibilityEnum public visibility;\r\n  mapping(address => bool) private authorizedContracts;\r\n  //member[] public members;\r\n\r\n  event MemberAdded(address newMember);\r\n  event MemberInvited(address memberInvitor, address memberInvited);\r\n  event MemberJoined(address memberJoined);\r\n\r\n  struct member {\r\n        memberStatus status;\r\n        //address memberAddress;\r\n    }\r\n\r\n  enum visibilityEnum {\r\n        privateDao,\r\n        publicDao\r\n    }\r\n\r\n  enum memberStatus {\r\n        notMember,\r\n        invited,\r\n        asking,\r\n        active\r\n    }\r\n\r\n    enum membershipModeEnum {\r\n        invite,\r\n        request,\r\n        open\r\n    }\r\n\r\n    modifier onlyActiveMembersOrAuthorizeContracts() {\r\n        require(members[msg.sender].status == memberStatus.active || authorizedContracts[msg.sender] == true, \"Not authorized\");\r\n        _;\r\n    }\r\n\r\n    modifier onlyNotActiveMembers() {\r\n        require(members[msg.sender].status != memberStatus.active, \"Not authorized\");\r\n        _;\r\n    }\r\n\r\n    modifier onlyAuthorizeContracts() {\r\n        require(authorizedContracts[msg.sender] == true, \"Not authorized\");\r\n        _;\r\n    }\r\n\r\n    modifier onlyAuthorizeContractsOrOwner() {\r\n        require(((authorizedContracts[msg.sender] == true) || msg.sender == owner()), \"Not authorized\");\r\n        _;\r\n    }\r\n\r\n    function setMode(membershipModeEnum _mode) public onlyOwner() {\r\n       membershipModeMode = _mode;\r\n    }\r\n\r\n    function setName(string calldata _name) public onlyOwner() {\r\n       name = _name;\r\n    }\r\n\r\n    function addMember(address addressMember) public onlyActiveMembersOrAuthorizeContracts() {\r\n        members[addressMember].status = memberStatus.active;\r\n        emit MemberAdded(addressMember);\r\n    }\r\n\r\n    function inviteMember(address addressMember) public onlyActiveMembersOrAuthorizeContracts() {\r\n        members[addressMember].status = memberStatus.invited;\r\n        emit MemberInvited(msg.sender, addressMember);\r\n    }\r\n\r\n    function isActiveMember(address addressMember) public view returns (bool){\r\n        return members[addressMember].status == memberStatus.active;\r\n    }\r\n\r\n    function join() public onlyNotActiveMembers() {\r\n        require((members[msg.sender].status == memberStatus.invited && membershipModeMode == membershipModeEnum.invite)\r\n         || (members[msg.sender].status == memberStatus.notMember && membershipModeMode == membershipModeEnum.open)\r\n                , \"Impossible to join\");\r\n        members[msg.sender].status = memberStatus.active;\r\n        emit MemberJoined(msg.sender);\r\n    }\r\n\r\n    function authorizeContract(address _contractAddress) external onlyAuthorizeContractsOrOwner() {\r\n        authorizedContracts[_contractAddress] = true;\r\n    }\r\n\r\n    function denyContract(address _contractAddress) external onlyAuthorizeContractsOrOwner() {\r\n        authorizedContracts[_contractAddress] = false;\r\n    }\r\n  \r\n\r\n    // function addMember(address addressMember) public {\r\n    //     member memory _member;\r\n    //     _member.status = memberStatus.member;\r\n    //     _member.memberAddress = addressMember;\r\n    //    members.push(_member);\r\n    // }\r\n\r\n    // function inviteMember(address addressMember) public {\r\n    //     member memory _member;\r\n    //     _member.status = memberStatus.invited;\r\n    //     _member.memberAddress = addressMember;\r\n    //    members.push(_member);\r\n    // }\r\n  \r\n}",
  "sourcePath": "C:\\Users\\mdmou\\source\\repos\\MY-DAO\\contracts\\Dao.sol",
  "compiler": {
    "name": "solc",
    "version": "0.8.13+commit.abaa5c0e.Emscripten.clang"
  },
  "schemaVersion": "3.4.4",
  "updatedAt": "2022-05-01T07:21:45.712Z",
  "devdoc": {
    "kind": "dev",
    "methods": {
      "owner()": {
        "details": "Returns the address of the current owner."
      },
      "renounceOwnership()": {
        "details": "Leaves the contract without owner. It will not be possible to call `onlyOwner` functions anymore. Can only be called by the current owner. NOTE: Renouncing ownership will leave the contract without an owner, thereby removing any functionality that is only available to the owner."
      },
      "transferOwnership(address)": {
        "details": "Transfers ownership of the contract to a new account (`newOwner`). Can only be called by the current owner."
      }
    },
    "version": 1
  },
  "userdoc": {
    "kind": "user",
    "methods": {},
    "version": 1
  }
}