{
  "contractName": "DaoBase",
  "abi": [
    {
      "inputs": [
        {
          "internalType": "string",
          "name": "_name",
          "type": "string"
        },
        {
          "internalType": "string",
          "name": "_description",
          "type": "string"
        },
        {
          "internalType": "enum Data.visibilityEnum",
          "name": "_visibility",
          "type": "uint8"
        }
      ],
      "stateMutability": "nonpayable",
      "type": "constructor"
    },
    {
      "anonymous": false,
      "inputs": [
        {
          "indexed": false,
          "internalType": "address",
          "name": "daoAddress",
          "type": "address"
        },
        {
          "indexed": false,
          "internalType": "address",
          "name": "creatorAddress",
          "type": "address"
        }
      ],
      "name": "DaoCreated",
      "type": "event"
    },
    {
      "anonymous": false,
      "inputs": [
        {
          "indexed": false,
          "internalType": "string",
          "name": "moduleCode",
          "type": "string"
        },
        {
          "indexed": false,
          "internalType": "address",
          "name": "moduleAddress",
          "type": "address"
        },
        {
          "indexed": false,
          "internalType": "address",
          "name": "adderAddress",
          "type": "address"
        }
      ],
      "name": "ModuleAdded",
      "type": "event"
    },
    {
      "anonymous": false,
      "inputs": [
        {
          "indexed": true,
          "internalType": "address",
          "name": "previousOwner",
          "type": "address"
        },
        {
          "indexed": true,
          "internalType": "address",
          "name": "newOwner",
          "type": "address"
        }
      ],
      "name": "OwnershipTransferred",
      "type": "event"
    },
    {
      "inputs": [],
      "name": "description",
      "outputs": [
        {
          "internalType": "string",
          "name": "",
          "type": "string"
        }
      ],
      "stateMutability": "view",
      "type": "function"
    },
    {
      "inputs": [
        {
          "internalType": "uint256",
          "name": "",
          "type": "uint256"
        }
      ],
      "name": "moduleType",
      "outputs": [
        {
          "internalType": "bytes8",
          "name": "",
          "type": "bytes8"
        }
      ],
      "stateMutability": "view",
      "type": "function"
    },
    {
      "inputs": [
        {
          "internalType": "bytes8",
          "name": "",
          "type": "bytes8"
        }
      ],
      "name": "modules",
      "outputs": [
        {
          "internalType": "uint256",
          "name": "id",
          "type": "uint256"
        },
        {
          "internalType": "address",
          "name": "moduleAddress",
          "type": "address"
        },
        {
          "internalType": "bool",
          "name": "isActive",
          "type": "bool"
        },
        {
          "internalType": "bytes8",
          "name": "moduleType",
          "type": "bytes8"
        },
        {
          "internalType": "bytes8",
          "name": "moduleCode",
          "type": "bytes8"
        },
        {
          "internalType": "string",
          "name": "moduleInfo",
          "type": "string"
        }
      ],
      "stateMutability": "view",
      "type": "function"
    },
    {
      "inputs": [],
      "name": "modulesCount",
      "outputs": [
        {
          "internalType": "uint256",
          "name": "",
          "type": "uint256"
        }
      ],
      "stateMutability": "view",
      "type": "function"
    },
    {
      "inputs": [],
      "name": "name",
      "outputs": [
        {
          "internalType": "string",
          "name": "",
          "type": "string"
        }
      ],
      "stateMutability": "view",
      "type": "function"
    },
    {
      "inputs": [],
      "name": "owner",
      "outputs": [
        {
          "internalType": "address",
          "name": "",
          "type": "address"
        }
      ],
      "stateMutability": "view",
      "type": "function"
    },
    {
      "inputs": [],
      "name": "renounceOwnership",
      "outputs": [],
      "stateMutability": "nonpayable",
      "type": "function"
    },
    {
      "inputs": [
        {
          "internalType": "address",
          "name": "newOwner",
          "type": "address"
        }
      ],
      "name": "transferOwnership",
      "outputs": [],
      "stateMutability": "nonpayable",
      "type": "function"
    },
    {
      "inputs": [],
      "name": "visibility",
      "outputs": [
        {
          "internalType": "enum Data.visibilityEnum",
          "name": "",
          "type": "uint8"
        }
      ],
      "stateMutability": "view",
      "type": "function"
    },
    {
      "inputs": [
        {
          "internalType": "string",
          "name": "_name",
          "type": "string"
        }
      ],
      "name": "hash",
      "outputs": [
        {
          "internalType": "bytes8",
          "name": "",
          "type": "bytes8"
        }
      ],
      "stateMutability": "pure",
      "type": "function"
    },
    {
      "inputs": [
        {
          "internalType": "bytes8",
          "name": "_type",
          "type": "bytes8"
        },
        {
          "internalType": "address",
          "name": "_moduleAddr",
          "type": "address"
        }
      ],
      "name": "addModule",
      "outputs": [],
      "stateMutability": "nonpayable",
      "type": "function"
    },
    {
      "inputs": [
        {
          "internalType": "address",
          "name": "_contractAddress",
          "type": "address"
        }
      ],
      "name": "authorizeContract",
      "outputs": [],
      "stateMutability": "nonpayable",
      "type": "function"
    },
    {
      "inputs": [
        {
          "internalType": "address",
          "name": "_contractAddress",
          "type": "address"
        }
      ],
      "name": "denyContract",
      "outputs": [],
      "stateMutability": "nonpayable",
      "type": "function"
    },
    {
      "inputs": [],
      "name": "getAllModuleHash",
      "outputs": [
        {
          "internalType": "bytes8[]",
          "name": "allModuleHash",
          "type": "bytes8[]"
        }
      ],
      "stateMutability": "view",
      "type": "function"
    },
    {
      "inputs": [],
      "name": "getAllModulesData",
      "outputs": [
        {
          "components": [
            {
              "internalType": "uint256",
              "name": "id",
              "type": "uint256"
            },
            {
              "internalType": "address",
              "name": "moduleAddress",
              "type": "address"
            },
            {
              "internalType": "bool",
              "name": "isActive",
              "type": "bool"
            },
            {
              "internalType": "bytes8",
              "name": "moduleType",
              "type": "bytes8"
            },
            {
              "internalType": "bytes8",
              "name": "moduleCode",
              "type": "bytes8"
            },
            {
              "internalType": "string",
              "name": "moduleInfo",
              "type": "string"
            }
          ],
          "internalType": "struct Data.Module[]",
          "name": "allModuleData",
          "type": "tuple[]"
        }
      ],
      "stateMutability": "view",
      "type": "function"
    },
    {
      "inputs": [
        {
          "internalType": "uint256",
          "name": "_moduleId",
          "type": "uint256"
        }
      ],
      "name": "getModuleData",
      "outputs": [
        {
          "components": [
            {
              "internalType": "uint256",
              "name": "id",
              "type": "uint256"
            },
            {
              "internalType": "address",
              "name": "moduleAddress",
              "type": "address"
            },
            {
              "internalType": "bool",
              "name": "isActive",
              "type": "bool"
            },
            {
              "internalType": "bytes8",
              "name": "moduleType",
              "type": "bytes8"
            },
            {
              "internalType": "bytes8",
              "name": "moduleCode",
              "type": "bytes8"
            },
            {
              "internalType": "string",
              "name": "moduleInfo",
              "type": "string"
            }
          ],
          "internalType": "struct Data.Module",
          "name": "",
          "type": "tuple"
        }
      ],
      "stateMutability": "view",
      "type": "function"
    }
  ],
  "bytecode": "0x60806040523480156200001157600080fd5b50604051620025be380380620025be83398181016040528101906200003791906200046a565b620000696200005462000129640100000000026401000000009004565b62000131640100000000026401000000009004565b826001908051906020019062000081929190620001f5565b5081600290805190602001906200009a929190620001f5565b5080600360006101000a81548160ff02191690836001811115620000c357620000c262000504565b5b02179055506001600660003373ffffffffffffffffffffffffffffffffffffffff1673ffffffffffffffffffffffffffffffffffffffff16815260200190815260200160002060006101000a81548160ff02191690831515021790555050505062000598565b600033905090565b60008060009054906101000a900473ffffffffffffffffffffffffffffffffffffffff169050816000806101000a81548173ffffffffffffffffffffffffffffffffffffffff021916908373ffffffffffffffffffffffffffffffffffffffff1602179055508173ffffffffffffffffffffffffffffffffffffffff168173ffffffffffffffffffffffffffffffffffffffff167f8be0079c531659141344cd1fd0a4f28419497f9722a3daafe3b4186f6b6457e060405160405180910390a35050565b828054620002039062000562565b90600052602060002090601f01602090048101928262000227576000855562000273565b82601f106200024257805160ff191683800117855562000273565b8280016001018555821562000273579182015b828111156200027257825182559160200191906001019062000255565b5b50905062000282919062000286565b5090565b5b80821115620002a157600081600090555060010162000287565b5090565b6000604051905090565b600080fd5b600080fd5b600080fd5b600080fd5b6000601f19601f8301169050919050565b7f4e487b7100000000000000000000000000000000000000000000000000000000600052604160045260246000fd5b6200030e82620002c3565b810181811067ffffffffffffffff8211171562000330576200032f620002d4565b5b80604052505050565b600062000345620002a5565b905062000353828262000303565b919050565b600067ffffffffffffffff821115620003765762000375620002d4565b5b6200038182620002c3565b9050602081019050919050565b60005b83811015620003ae57808201518184015260208101905062000391565b83811115620003be576000848401525b50505050565b6000620003db620003d58462000358565b62000339565b905082815260208101848484011115620003fa57620003f9620002be565b5b620004078482856200038e565b509392505050565b600082601f830112620004275762000426620002b9565b5b815162000439848260208601620003c4565b91505092915050565b600281106200045057600080fd5b50565b600081519050620004648162000442565b92915050565b600080600060608486031215620004865762000485620002af565b5b600084015167ffffffffffffffff811115620004a757620004a6620002b4565b5b620004b5868287016200040f565b935050602084015167ffffffffffffffff811115620004d957620004d8620002b4565b5b620004e7868287016200040f565b9250506040620004fa8682870162000453565b9150509250925092565b7f4e487b7100000000000000000000000000000000000000000000000000000000600052602160045260246000fd5b7f4e487b7100000000000000000000000000000000000000000000000000000000600052602260045260246000fd5b600060028204905060018216806200057b57607f821691505b6020821081141562000592576200059162000533565b5b50919050565b61201680620005a86000396000f3fe608060405234801561001057600080fd5b506004361061011c576000357c0100000000000000000000000000000000000000000000000000000000900480637284e416116100b4578063d5cd3a3711610083578063d5cd3a37146102aa578063ee760f38146102c8578063f2fde38b146102f8578063f315aafe146103145761011c565b80637284e416146102225780638da5cb5b14610240578063b411ee941461025e578063b7e2077e1461028e5761011c565b8063536c44d6116100f0578063536c44d6146101ae57806367561d93146101de5780636bcfc011146101fa578063715018a6146102185761011c565b80628682391461012157806306fdde031461013d57806329adec141461015b57806352450cf914610179575b600080fd5b61013b600480360381019061013691906114ca565b610332565b005b610145610569565b60405161015291906115a3565b60405180910390f35b6101636105f7565b604051610170919061163c565b60405180910390f35b610193600480360381019061018e9190611657565b61060a565b6040516101a5969594939291906116d6565b60405180910390f35b6101c860048036038101906101c3919061176a565b610745565b6040516101d591906118a6565b60405180910390f35b6101f860048036038101906101f391906118c8565b6109b7565b005b610202610ae2565b60405161020f9190611a40565b60405180910390f35b610220610ddf565b005b61022a610e67565b60405161023791906115a3565b60405180910390f35b610248610ef5565b6040516102559190611a62565b60405180910390f35b61027860048036038101906102739190611bb2565b610f1e565b6040516102859190611bfb565b60405180910390f35b6102a860048036038101906102a391906118c8565b610f4e565b005b6102b2611079565b6040516102bf9190611cc5565b60405180910390f35b6102e260048036038101906102dd919061176a565b61117a565b6040516102ef9190611bfb565b60405180910390f35b610312600480360381019061030d91906118c8565b6111b2565b005b61031c6112aa565b6040516103299190611ce7565b60405180910390f35b600660003373ffffffffffffffffffffffffffffffffffffffff1673ffffffffffffffffffffffffffffffffffffffff16815260200190815260200160002060009054906101000a900460ff166103be576040517f08c379a00000000000000000000000000000000000000000000000000000000081526004016103b590611d4e565b60405180910390fd5b6001600860008477ffffffffffffffffffffffffffffffffffffffffffffffff191677ffffffffffffffffffffffffffffffffffffffffffffffff1916815260200190815260200160002060010160146101000a81548160ff021916908315150217905550600454600860008477ffffffffffffffffffffffffffffffffffffffffffffffff191677ffffffffffffffffffffffffffffffffffffffffffffffff191681526020019081526020016000206000018190555080600860008477ffffffffffffffffffffffffffffffffffffffffffffffff191677ffffffffffffffffffffffffffffffffffffffffffffffff1916815260200190815260200160002060010160006101000a81548173ffffffffffffffffffffffffffffffffffffffff021916908373ffffffffffffffffffffffffffffffffffffffff1602179055508160076000600454815260200190815260200160002060006101000a81548167ffffffffffffffff021916908378010000000000000000000000000000000000000000000000009004021790555060046000815461055e90611d9d565b919050819055505050565b6001805461057690611e15565b80601f01602080910402602001604051908101604052809291908181526020018280546105a290611e15565b80156105ef5780601f106105c4576101008083540402835291602001916105ef565b820191906000526020600020905b8154815290600101906020018083116105d257829003601f168201915b505050505081565b600360009054906101000a900460ff1681565b60086020528060005260406000206000915090508060000154908060010160009054906101000a900473ffffffffffffffffffffffffffffffffffffffff16908060010160149054906101000a900460ff16908060010160159054906101000a9004780100000000000000000000000000000000000000000000000002908060020160009054906101000a9004780100000000000000000000000000000000000000000000000002908060030180546106c290611e15565b80601f01602080910402602001604051908101604052809291908181526020018280546106ee90611e15565b801561073b5780601f106107105761010080835404028352916020019161073b565b820191906000526020600020905b81548152906001019060200180831161071e57829003601f168201915b5050505050905086565b61074d61137c565b600860006007600085815260200190815260200160002060009054906101000a900478010000000000000000000000000000000000000000000000000277ffffffffffffffffffffffffffffffffffffffffffffffff191677ffffffffffffffffffffffffffffffffffffffffffffffff191681526020019081526020016000206040518060c0016040529081600082015481526020016001820160009054906101000a900473ffffffffffffffffffffffffffffffffffffffff1673ffffffffffffffffffffffffffffffffffffffff1673ffffffffffffffffffffffffffffffffffffffff1681526020016001820160149054906101000a900460ff161515151581526020016001820160159054906101000a900478010000000000000000000000000000000000000000000000000277ffffffffffffffffffffffffffffffffffffffffffffffff191677ffffffffffffffffffffffffffffffffffffffffffffffff191681526020016002820160009054906101000a900478010000000000000000000000000000000000000000000000000277ffffffffffffffffffffffffffffffffffffffffffffffff191677ffffffffffffffffffffffffffffffffffffffffffffffff1916815260200160038201805461092e90611e15565b80601f016020809104026020016040519081016040528092919081815260200182805461095a90611e15565b80156109a75780601f1061097c576101008083540402835291602001916109a7565b820191906000526020600020905b81548152906001019060200180831161098a57829003601f168201915b5050505050815250509050919050565b60011515600560003373ffffffffffffffffffffffffffffffffffffffff1673ffffffffffffffffffffffffffffffffffffffff16815260200190815260200160002060009054906101000a900460ff1615151480610a485750610a19610ef5565b73ffffffffffffffffffffffffffffffffffffffff163373ffffffffffffffffffffffffffffffffffffffff16145b610a87576040517f08c379a0000000000000000000000000000000000000000000000000000000008152600401610a7e90611e93565b60405180910390fd5b6001600560008373ffffffffffffffffffffffffffffffffffffffff1673ffffffffffffffffffffffffffffffffffffffff16815260200190815260200160002060006101000a81548160ff02191690831515021790555050565b606060045467ffffffffffffffff811115610b0057610aff611a87565b5b604051908082528060200260200182016040528015610b3957816020015b610b2661137c565b815260200190600190039081610b1e5790505b50905060005b600454811015610ddb57600860006007600084815260200190815260200160002060009054906101000a900478010000000000000000000000000000000000000000000000000277ffffffffffffffffffffffffffffffffffffffffffffffff191677ffffffffffffffffffffffffffffffffffffffffffffffff191681526020019081526020016000206040518060c0016040529081600082015481526020016001820160009054906101000a900473ffffffffffffffffffffffffffffffffffffffff1673ffffffffffffffffffffffffffffffffffffffff1673ffffffffffffffffffffffffffffffffffffffff1681526020016001820160149054906101000a900460ff161515151581526020016001820160159054906101000a900478010000000000000000000000000000000000000000000000000277ffffffffffffffffffffffffffffffffffffffffffffffff191677ffffffffffffffffffffffffffffffffffffffffffffffff191681526020016002820160009054906101000a900478010000000000000000000000000000000000000000000000000277ffffffffffffffffffffffffffffffffffffffffffffffff191677ffffffffffffffffffffffffffffffffffffffffffffffff19168152602001600382018054610d2a90611e15565b80601f0160208091040260200160405190810160405280929190818152602001828054610d5690611e15565b8015610da35780601f10610d7857610100808354040283529160200191610da3565b820191906000526020600020905b815481529060010190602001808311610d8657829003601f168201915b505050505081525050828281518110610dbf57610dbe611eb3565b5b602002602001018190525080610dd490611d9d565b9050610b3f565b5090565b610de76112b0565b73ffffffffffffffffffffffffffffffffffffffff16610e05610ef5565b73ffffffffffffffffffffffffffffffffffffffff1614610e5b576040517f08c379a0000000000000000000000000000000000000000000000000000000008152600401610e5290611f2e565b60405180910390fd5b610e6560006112b8565b565b60028054610e7490611e15565b80601f0160208091040260200160405190810160405280929190818152602001828054610ea090611e15565b8015610eed5780601f10610ec257610100808354040283529160200191610eed565b820191906000526020600020905b815481529060010190602001808311610ed057829003601f168201915b505050505081565b60008060009054906101000a900473ffffffffffffffffffffffffffffffffffffffff16905090565b600081604051602001610f3191906115a3565b604051602081830303815290604052805190602001209050919050565b60011515600560003373ffffffffffffffffffffffffffffffffffffffff1673ffffffffffffffffffffffffffffffffffffffff16815260200190815260200160002060009054906101000a900460ff1615151480610fdf5750610fb0610ef5565b73ffffffffffffffffffffffffffffffffffffffff163373ffffffffffffffffffffffffffffffffffffffff16145b61101e576040517f08c379a000000000000000000000000000000000000000000000000000000000815260040161101590611e93565b60405180910390fd5b6000600560008373ffffffffffffffffffffffffffffffffffffffff1673ffffffffffffffffffffffffffffffffffffffff16815260200190815260200160002060006101000a81548160ff02191690831515021790555050565b606060045467ffffffffffffffff81111561109757611096611a87565b5b6040519080825280602002602001820160405280156110c55781602001602082028036833780820191505090505b50905060005b600454811015611176576007600082815260200190815260200160002060009054906101000a900478010000000000000000000000000000000000000000000000000282828151811061112157611120611eb3565b5b602002602001019077ffffffffffffffffffffffffffffffffffffffffffffffff1916908177ffffffffffffffffffffffffffffffffffffffffffffffff1916815250508061116f90611d9d565b90506110cb565b5090565b60076020528060005260406000206000915054906101000a900478010000000000000000000000000000000000000000000000000281565b6111ba6112b0565b73ffffffffffffffffffffffffffffffffffffffff166111d8610ef5565b73ffffffffffffffffffffffffffffffffffffffff161461122e576040517f08c379a000000000000000000000000000000000000000000000000000000000815260040161122590611f2e565b60405180910390fd5b600073ffffffffffffffffffffffffffffffffffffffff168173ffffffffffffffffffffffffffffffffffffffff16141561129e576040517f08c379a000000000000000000000000000000000000000000000000000000000815260040161129590611fc0565b60405180910390fd5b6112a7816112b8565b50565b60045481565b600033905090565b60008060009054906101000a900473ffffffffffffffffffffffffffffffffffffffff169050816000806101000a81548173ffffffffffffffffffffffffffffffffffffffff021916908373ffffffffffffffffffffffffffffffffffffffff1602179055508173ffffffffffffffffffffffffffffffffffffffff168173ffffffffffffffffffffffffffffffffffffffff167f8be0079c531659141344cd1fd0a4f28419497f9722a3daafe3b4186f6b6457e060405160405180910390a35050565b6040518060c0016040528060008152602001600073ffffffffffffffffffffffffffffffffffffffff168152602001600015158152602001600077ffffffffffffffffffffffffffffffffffffffffffffffff19168152602001600077ffffffffffffffffffffffffffffffffffffffffffffffff19168152602001606081525090565b6000604051905090565b600080fd5b600080fd5b60007fffffffffffffffff00000000000000000000000000000000000000000000000082169050919050565b61144981611414565b811461145457600080fd5b50565b60008135905061146681611440565b92915050565b600073ffffffffffffffffffffffffffffffffffffffff82169050919050565b60006114978261146c565b9050919050565b6114a78161148c565b81146114b257600080fd5b50565b6000813590506114c48161149e565b92915050565b600080604083850312156114e1576114e061140a565b5b60006114ef85828601611457565b9250506020611500858286016114b5565b9150509250929050565b600081519050919050565b600082825260208201905092915050565b60005b83811015611544578082015181840152602081019050611529565b83811115611553576000848401525b50505050565b6000601f19601f8301169050919050565b60006115758261150a565b61157f8185611515565b935061158f818560208601611526565b61159881611559565b840191505092915050565b600060208201905081810360008301526115bd818461156a565b905092915050565b7f4e487b7100000000000000000000000000000000000000000000000000000000600052602160045260246000fd5b60028110611605576116046115c5565b5b50565b6000819050611616826115f4565b919050565b600061162682611608565b9050919050565b6116368161161b565b82525050565b6000602082019050611651600083018461162d565b92915050565b60006020828403121561166d5761166c61140a565b5b600061167b84828501611457565b91505092915050565b6000819050919050565b61169781611684565b82525050565b6116a68161148c565b82525050565b60008115159050919050565b6116c1816116ac565b82525050565b6116d081611414565b82525050565b600060c0820190506116eb600083018961168e565b6116f8602083018861169d565b61170560408301876116b8565b61171260608301866116c7565b61171f60808301856116c7565b81810360a0830152611731818461156a565b9050979650505050505050565b61174781611684565b811461175257600080fd5b50565b6000813590506117648161173e565b92915050565b6000602082840312156117805761177f61140a565b5b600061178e84828501611755565b91505092915050565b6117a081611684565b82525050565b6117af8161148c565b82525050565b6117be816116ac565b82525050565b6117cd81611414565b82525050565b600082825260208201905092915050565b60006117ef8261150a565b6117f981856117d3565b9350611809818560208601611526565b61181281611559565b840191505092915050565b600060c0830160008301516118356000860182611797565b50602083015161184860208601826117a6565b50604083015161185b60408601826117b5565b50606083015161186e60608601826117c4565b50608083015161188160808601826117c4565b5060a083015184820360a086015261189982826117e4565b9150508091505092915050565b600060208201905081810360008301526118c0818461181d565b905092915050565b6000602082840312156118de576118dd61140a565b5b60006118ec848285016114b5565b91505092915050565b600081519050919050565b600082825260208201905092915050565b6000819050602082019050919050565b600060c0830160008301516119396000860182611797565b50602083015161194c60208601826117a6565b50604083015161195f60408601826117b5565b50606083015161197260608601826117c4565b50608083015161198560808601826117c4565b5060a083015184820360a086015261199d82826117e4565b9150508091505092915050565b60006119b68383611921565b905092915050565b6000602082019050919050565b60006119d6826118f5565b6119e08185611900565b9350836020820285016119f285611911565b8060005b85811015611a2e5784840389528151611a0f85826119aa565b9450611a1a836119be565b925060208a019950506001810190506119f6565b50829750879550505050505092915050565b60006020820190508181036000830152611a5a81846119cb565b905092915050565b6000602082019050611a77600083018461169d565b92915050565b600080fd5b600080fd5b7f4e487b7100000000000000000000000000000000000000000000000000000000600052604160045260246000fd5b611abf82611559565b810181811067ffffffffffffffff82111715611ade57611add611a87565b5b80604052505050565b6000611af1611400565b9050611afd8282611ab6565b919050565b600067ffffffffffffffff821115611b1d57611b1c611a87565b5b611b2682611559565b9050602081019050919050565b82818337600083830152505050565b6000611b55611b5084611b02565b611ae7565b905082815260208101848484011115611b7157611b70611a82565b5b611b7c848285611b33565b509392505050565b600082601f830112611b9957611b98611a7d565b5b8135611ba9848260208601611b42565b91505092915050565b600060208284031215611bc857611bc761140a565b5b600082013567ffffffffffffffff811115611be657611be561140f565b5b611bf284828501611b84565b91505092915050565b6000602082019050611c1060008301846116c7565b92915050565b600081519050919050565b600082825260208201905092915050565b6000819050602082019050919050565b6000611c4e83836117c4565b60208301905092915050565b6000602082019050919050565b6000611c7282611c16565b611c7c8185611c21565b9350611c8783611c32565b8060005b83811015611cb8578151611c9f8882611c42565b9750611caa83611c5a565b925050600181019050611c8b565b5085935050505092915050565b60006020820190508181036000830152611cdf8184611c67565b905092915050565b6000602082019050611cfc600083018461168e565b92915050565b7f496e76616c696420557365720000000000000000000000000000000000000000600082015250565b6000611d38600c83611515565b9150611d4382611d02565b602082019050919050565b60006020820190508181036000830152611d6781611d2b565b9050919050565b7f4e487b7100000000000000000000000000000000000000000000000000000000600052601160045260246000fd5b6000611da882611684565b91507fffffffffffffffffffffffffffffffffffffffffffffffffffffffffffffffff821415611ddb57611dda611d6e565b5b600182019050919050565b7f4e487b7100000000000000000000000000000000000000000000000000000000600052602260045260246000fd5b60006002820490506001821680611e2d57607f821691505b60208210811415611e4157611e40611de6565b5b50919050565b7f4e6f7420617574686f72697a6564000000000000000000000000000000000000600082015250565b6000611e7d600e83611515565b9150611e8882611e47565b602082019050919050565b60006020820190508181036000830152611eac81611e70565b9050919050565b7f4e487b7100000000000000000000000000000000000000000000000000000000600052603260045260246000fd5b7f4f776e61626c653a2063616c6c6572206973206e6f7420746865206f776e6572600082015250565b6000611f18602083611515565b9150611f2382611ee2565b602082019050919050565b60006020820190508181036000830152611f4781611f0b565b9050919050565b7f4f776e61626c653a206e6577206f776e657220697320746865207a65726f206160008201527f6464726573730000000000000000000000000000000000000000000000000000602082015250565b6000611faa602683611515565b9150611fb582611f4e565b604082019050919050565b60006020820190508181036000830152611fd981611f9d565b905091905056fea2646970667358221220901ba2140df13e365d18983b9b8f8fc4d98858a3a5b4a8a2962482eb2adf20ae64736f6c63430008090033",
  "immutableReferences": {},
  "source": "// SPDX-License-Identifier: MIT\r\npragma solidity ^0.8.9;\r\n\r\nimport \"@openzeppelin/contracts/access/Ownable.sol\";\r\nimport \"./Data.sol\";\r\n\r\ncontract DaoBase is Ownable {\r\n  string public name;\r\n  string public description;\r\n  Data.visibilityEnum public visibility;\r\n  uint256 public modulesCount;\r\n\r\n  mapping(address => bool) private authorizedContracts;\r\n  mapping(address => bool) owners;\r\n  mapping(uint256 => bytes8) public moduleType;\r\n  mapping(bytes8 => Data.Module) public modules;\r\n  // type => module {code, type, descr}\r\n  // member => module { \"nft member\", \"\", \"\"}\r\n\r\n  //membership => module\r\n  //nft member => module\r\n\r\n  //type => module\r\n\r\n  modifier onlyOwners() {\r\n    require(owners[msg.sender], \"Invalid User\");\r\n    _;\r\n  }\r\n  // modifier onlyActiveMembersOrAuthorizeContracts() {\r\n  //       require(members[msg.sender].status == Data.memberStatus.active || authorizedContracts[msg.sender] == true, \"Not authorized\");\r\n  //       _;\r\n  //   }\r\n\r\n  //   modifier onlyNotActiveMembers() {\r\n  //       require(members[msg.sender].status != Data.memberStatus.active, \"Not authorized\");\r\n  //       _;\r\n  //   }\r\n\r\n  modifier onlyAuthorizeContracts() {\r\n    require(authorizedContracts[msg.sender] == true, \"Not authorized\");\r\n    _;\r\n  }\r\n\r\n  modifier onlyAuthorizeContractsOrOwner() {\r\n    require(((authorizedContracts[msg.sender] == true) || msg.sender == owner()), \"Not authorized\");\r\n    _;\r\n  }\r\n\r\n  event DaoCreated(address daoAddress, address creatorAddress);\r\n  event ModuleAdded(string moduleCode, address moduleAddress, address adderAddress);\r\n\r\n  constructor(string memory _name, string memory _description, Data.visibilityEnum _visibility) {\r\n    name = _name;\r\n    description = _description;\r\n    visibility = _visibility;\r\n    owners[msg.sender] = true;\r\n  }\r\n\r\n  // function activateModule(ModuleType _moduleType, bytes8 memory code) external onlyOwners() {\r\n  //     modules[code].isActive = true;\r\n  //     modules[code].moduleAddress = _moduleAddress;\r\n  //     emit ModuleAdded(code, _moduleAddress, msg.sender);\r\n  // }\r\n  function hash(string memory _name) public pure returns(bytes8) {\r\n    return (bytes8(keccak256(abi.encode(_name))));\r\n  }\r\n  \r\n//   function activateModule(address _moduleAddress, string memory code) external {\r\n//       modules[code].isActive = true;\r\n//       modules[code].moduleAddress = _moduleAddress;\r\n//       emit ModuleAdded(code, _moduleAddress, msg.sender);\r\n//   }\r\n\r\n\r\n  function addModule(bytes8 _type, address _moduleAddr) public onlyOwners() {\r\n    modules[_type].isActive = true;\r\n    modules[_type].id = modulesCount;\r\n    modules[_type].moduleAddress = _moduleAddr;\r\n    moduleType[modulesCount] = _type;\r\n    ++modulesCount;\r\n  }\r\n\r\n  function authorizeContract(address _contractAddress) external onlyAuthorizeContractsOrOwner() {\r\n    authorizedContracts[_contractAddress] = true;\r\n  }\r\n\r\n  function denyContract(address _contractAddress) external onlyAuthorizeContractsOrOwner() {\r\n    authorizedContracts[_contractAddress] = false;\r\n  }\r\n\r\n  // get info\r\n  function getAllModuleHash() public view returns(bytes8[] memory allModuleHash) {\r\n    allModuleHash = new bytes8[](modulesCount);\r\n    for (uint256 i = 0; i < modulesCount; ++i) {\r\n      allModuleHash[i] = moduleType[i];\r\n    }\r\n  }\r\n  function getAllModulesData() public view returns(Data.Module[] memory allModuleData) {\r\n    allModuleData = new Data.Module[](modulesCount);\r\n    for (uint256 i = 0; i < modulesCount; ++i) {\r\n      allModuleData[i] = modules[moduleType[i]];\r\n    }\r\n  }\r\n  function getModuleData(uint256 _moduleId) public view returns(Data.Module memory) {\r\n    return(modules[moduleType[_moduleId]]);\r\n  }\r\n  // function memberInfo(address _member) external view returns(Data.member memory) {\r\n  //   return(IDao(modules[0]).getMemberInfo(_member));\r\n  // }\r\n  // function addrId(uint256 _id) external view returns(address) {\r\n  //   return(IDao(modules[0]).getAddrById(_id));\r\n  // }\r\n  // function totalId() external view returns(uint256) {\r\n  //   return(IDao(modules[0]).getTotalId());\r\n  // }\r\n  // function daoInfo() external view returns(Data.daoData memory) {\r\n  //   return(IDao(modules[0]).getInfoDao());\r\n  // }\r\n  // add new modules\r\n  // function addModule(address _newModule) external {\r\n  //   modules.push(_newModule);\r\n  // }\r\n}",
  "sourcePath": "C:\\Users\\mdmou\\source\\repos\\MY-DAO\\contracts\\DaoBase.sol",
  "compiler": {
    "name": "solc",
    "version": "0.8.9+commit.e5eed63a.Emscripten.clang"
  },
  "schemaVersion": "3.4.4",
  "updatedAt": "2022-05-15T14:44:37.311Z",
  "devdoc": {
    "kind": "dev",
    "methods": {
      "owner()": {
        "details": "Returns the address of the current owner."
      },
      "renounceOwnership()": {
        "details": "Leaves the contract without owner. It will not be possible to call `onlyOwner` functions anymore. Can only be called by the current owner. NOTE: Renouncing ownership will leave the contract without an owner, thereby removing any functionality that is only available to the owner."
      },
      "transferOwnership(address)": {
        "details": "Transfers ownership of the contract to a new account (`newOwner`). Can only be called by the current owner."
      }
    },
    "version": 1
  },
  "userdoc": {
    "kind": "user",
    "methods": {},
    "version": 1
  }
}