{
  "contractName": "DaoBase",
  "abi": [
    {
      "inputs": [
        {
          "internalType": "string",
          "name": "_name",
          "type": "string"
        },
        {
          "internalType": "string",
          "name": "_description",
          "type": "string"
        },
        {
          "internalType": "enum Data.visibilityEnum",
          "name": "_visibility",
          "type": "uint8"
        }
      ],
      "stateMutability": "nonpayable",
      "type": "constructor"
    },
    {
      "anonymous": false,
      "inputs": [
        {
          "indexed": false,
          "internalType": "address",
          "name": "daoAddress",
          "type": "address"
        },
        {
          "indexed": false,
          "internalType": "address",
          "name": "creatorAddress",
          "type": "address"
        }
      ],
      "name": "DaoCreated",
      "type": "event"
    },
    {
      "anonymous": false,
      "inputs": [
        {
          "indexed": false,
          "internalType": "string",
          "name": "moduleCode",
          "type": "string"
        },
        {
          "indexed": false,
          "internalType": "address",
          "name": "moduleAddress",
          "type": "address"
        },
        {
          "indexed": false,
          "internalType": "address",
          "name": "adderAddress",
          "type": "address"
        }
      ],
      "name": "ModuleAdded",
      "type": "event"
    },
    {
      "anonymous": false,
      "inputs": [
        {
          "indexed": true,
          "internalType": "address",
          "name": "previousOwner",
          "type": "address"
        },
        {
          "indexed": true,
          "internalType": "address",
          "name": "newOwner",
          "type": "address"
        }
      ],
      "name": "OwnershipTransferred",
      "type": "event"
    },
    {
      "inputs": [],
      "name": "description",
      "outputs": [
        {
          "internalType": "string",
          "name": "",
          "type": "string"
        }
      ],
      "stateMutability": "view",
      "type": "function"
    },
    {
      "inputs": [
        {
          "internalType": "uint256",
          "name": "",
          "type": "uint256"
        }
      ],
      "name": "moduleType",
      "outputs": [
        {
          "internalType": "bytes8",
          "name": "",
          "type": "bytes8"
        }
      ],
      "stateMutability": "view",
      "type": "function"
    },
    {
      "inputs": [
        {
          "internalType": "bytes8",
          "name": "",
          "type": "bytes8"
        }
      ],
      "name": "modules",
      "outputs": [
        {
          "internalType": "uint256",
          "name": "id",
          "type": "uint256"
        },
        {
          "internalType": "address",
          "name": "moduleAddress",
          "type": "address"
        },
        {
          "internalType": "bool",
          "name": "isActive",
          "type": "bool"
        },
        {
          "internalType": "bytes8",
          "name": "moduleType",
          "type": "bytes8"
        },
        {
          "internalType": "bytes8",
          "name": "moduleCode",
          "type": "bytes8"
        },
        {
          "internalType": "string",
          "name": "moduleInfo",
          "type": "string"
        }
      ],
      "stateMutability": "view",
      "type": "function"
    },
    {
      "inputs": [],
      "name": "modulesCount",
      "outputs": [
        {
          "internalType": "uint256",
          "name": "",
          "type": "uint256"
        }
      ],
      "stateMutability": "view",
      "type": "function"
    },
    {
      "inputs": [],
      "name": "name",
      "outputs": [
        {
          "internalType": "string",
          "name": "",
          "type": "string"
        }
      ],
      "stateMutability": "view",
      "type": "function"
    },
    {
      "inputs": [],
      "name": "owner",
      "outputs": [
        {
          "internalType": "address",
          "name": "",
          "type": "address"
        }
      ],
      "stateMutability": "view",
      "type": "function"
    },
    {
      "inputs": [],
      "name": "renounceOwnership",
      "outputs": [],
      "stateMutability": "nonpayable",
      "type": "function"
    },
    {
      "inputs": [
        {
          "internalType": "address",
          "name": "newOwner",
          "type": "address"
        }
      ],
      "name": "transferOwnership",
      "outputs": [],
      "stateMutability": "nonpayable",
      "type": "function"
    },
    {
      "inputs": [],
      "name": "visibility",
      "outputs": [
        {
          "internalType": "enum Data.visibilityEnum",
          "name": "",
          "type": "uint8"
        }
      ],
      "stateMutability": "view",
      "type": "function"
    },
    {
      "inputs": [
        {
          "internalType": "string",
          "name": "_name",
          "type": "string"
        }
      ],
      "name": "hash",
      "outputs": [
        {
          "internalType": "bytes8",
          "name": "",
          "type": "bytes8"
        }
      ],
      "stateMutability": "pure",
      "type": "function"
    },
    {
      "inputs": [
        {
          "internalType": "bytes8",
          "name": "_type",
          "type": "bytes8"
        },
        {
          "internalType": "bytes8",
          "name": "_code",
          "type": "bytes8"
        },
        {
          "internalType": "address",
          "name": "_moduleAddr",
          "type": "address"
        }
      ],
      "name": "addModule",
      "outputs": [],
      "stateMutability": "nonpayable",
      "type": "function"
    },
    {
      "inputs": [
        {
          "internalType": "address",
          "name": "_contractAddress",
          "type": "address"
        }
      ],
      "name": "authorizeContract",
      "outputs": [],
      "stateMutability": "nonpayable",
      "type": "function"
    },
    {
      "inputs": [
        {
          "internalType": "address",
          "name": "_contractAddress",
          "type": "address"
        }
      ],
      "name": "denyContract",
      "outputs": [],
      "stateMutability": "nonpayable",
      "type": "function"
    },
    {
      "inputs": [
        {
          "internalType": "bytes8",
          "name": "_type",
          "type": "bytes8"
        }
      ],
      "name": "getModuleData",
      "outputs": [
        {
          "components": [
            {
              "internalType": "uint256",
              "name": "id",
              "type": "uint256"
            },
            {
              "internalType": "address",
              "name": "moduleAddress",
              "type": "address"
            },
            {
              "internalType": "bool",
              "name": "isActive",
              "type": "bool"
            },
            {
              "internalType": "bytes8",
              "name": "moduleType",
              "type": "bytes8"
            },
            {
              "internalType": "bytes8",
              "name": "moduleCode",
              "type": "bytes8"
            },
            {
              "internalType": "string",
              "name": "moduleInfo",
              "type": "string"
            }
          ],
          "internalType": "struct Data.Module",
          "name": "",
          "type": "tuple"
        }
      ],
      "stateMutability": "view",
      "type": "function"
    },
    {
      "inputs": [],
      "name": "getDaoSettings",
      "outputs": [
        {
          "components": [
            {
              "internalType": "address",
              "name": "addressDao",
              "type": "address"
            },
            {
              "internalType": "enum Data.visibilityEnum",
              "name": "visibility",
              "type": "uint8"
            },
            {
              "internalType": "string",
              "name": "name",
              "type": "string"
            },
            {
              "internalType": "string",
              "name": "description",
              "type": "string"
            }
          ],
          "internalType": "struct Data.DaoSettings",
          "name": "",
          "type": "tuple"
        }
      ],
      "stateMutability": "view",
      "type": "function"
    }
  ],
  "bytecode": "0x60806040523480156200001157600080fd5b50604051620022503803806200225083398181016040528101906200003791906200046a565b620000696200005462000129640100000000026401000000009004565b62000131640100000000026401000000009004565b826001908051906020019062000081929190620001f5565b5081600290805190602001906200009a929190620001f5565b5080600360006101000a81548160ff02191690836001811115620000c357620000c262000504565b5b02179055506001600660003373ffffffffffffffffffffffffffffffffffffffff1673ffffffffffffffffffffffffffffffffffffffff16815260200190815260200160002060006101000a81548160ff02191690831515021790555050505062000598565b600033905090565b60008060009054906101000a900473ffffffffffffffffffffffffffffffffffffffff169050816000806101000a81548173ffffffffffffffffffffffffffffffffffffffff021916908373ffffffffffffffffffffffffffffffffffffffff1602179055508173ffffffffffffffffffffffffffffffffffffffff168173ffffffffffffffffffffffffffffffffffffffff167f8be0079c531659141344cd1fd0a4f28419497f9722a3daafe3b4186f6b6457e060405160405180910390a35050565b828054620002039062000562565b90600052602060002090601f01602090048101928262000227576000855562000273565b82601f106200024257805160ff191683800117855562000273565b8280016001018555821562000273579182015b828111156200027257825182559160200191906001019062000255565b5b50905062000282919062000286565b5090565b5b80821115620002a157600081600090555060010162000287565b5090565b6000604051905090565b600080fd5b600080fd5b600080fd5b600080fd5b6000601f19601f8301169050919050565b7f4e487b7100000000000000000000000000000000000000000000000000000000600052604160045260246000fd5b6200030e82620002c3565b810181811067ffffffffffffffff8211171562000330576200032f620002d4565b5b80604052505050565b600062000345620002a5565b905062000353828262000303565b919050565b600067ffffffffffffffff821115620003765762000375620002d4565b5b6200038182620002c3565b9050602081019050919050565b60005b83811015620003ae57808201518184015260208101905062000391565b83811115620003be576000848401525b50505050565b6000620003db620003d58462000358565b62000339565b905082815260208101848484011115620003fa57620003f9620002be565b5b620004078482856200038e565b509392505050565b600082601f830112620004275762000426620002b9565b5b815162000439848260208601620003c4565b91505092915050565b600281106200045057600080fd5b50565b600081519050620004648162000442565b92915050565b600080600060608486031215620004865762000485620002af565b5b600084015167ffffffffffffffff811115620004a757620004a6620002b4565b5b620004b5868287016200040f565b935050602084015167ffffffffffffffff811115620004d957620004d8620002b4565b5b620004e7868287016200040f565b9250506040620004fa8682870162000453565b9150509250925092565b7f4e487b7100000000000000000000000000000000000000000000000000000000600052602160045260246000fd5b7f4e487b7100000000000000000000000000000000000000000000000000000000600052602260045260246000fd5b600060028204905060018216806200057b57607f821691505b6020821081141562000592576200059162000533565b5b50919050565b611ca880620005a86000396000f3fe608060405234801561001057600080fd5b5060043610610112576000357c0100000000000000000000000000000000000000000000000000000000900480637284e416116100b4578063d8d8e93c11610083578063d8d8e93c14610270578063ee760f38146102a0578063f2fde38b146102d0578063f315aafe146102ec57610112565b80637284e416146101e85780638da5cb5b14610206578063b411ee9414610224578063b7e2077e1461025457610112565b806336e70eaa116100f057806336e70eaa1461016f57806352450cf91461018d57806367561d93146101c2578063715018a6146101de57610112565b806304a87c551461011757806306fdde031461013357806329adec1414610151575b600080fd5b610131600480360381019061012c9190611387565b61030a565b005b61013b610690565b6040516101489190611473565b60405180910390f35b61015961071e565b604051610166919061150c565b60405180910390f35b610177610731565b60405161018491906115f9565b60405180910390f35b6101a760048036038101906101a2919061161b565b6108ad565b6040516101b99695949392919061169a565b60405180910390f35b6101dc60048036038101906101d79190611702565b6109e8565b005b6101e6610b13565b005b6101f0610b9b565b6040516101fd9190611473565b60405180910390f35b61020e610c29565b60405161021b919061172f565b60405180910390f35b61023e6004803603810190610239919061187f565b610c52565b60405161024b91906118c8565b60405180910390f35b61026e60048036038101906102699190611702565b610c82565b005b61028a6004803603810190610285919061161b565b610dad565b6040516102979190611999565b60405180910390f35b6102ba60048036038101906102b591906119e7565b610fe7565b6040516102c791906118c8565b60405180910390f35b6102ea60048036038101906102e59190611702565b61101f565b005b6102f4611117565b6040516103019190611a14565b60405180910390f35b60011515600560003373ffffffffffffffffffffffffffffffffffffffff1673ffffffffffffffffffffffffffffffffffffffff16815260200190815260200160002060009054906101000a900460ff161515148061039b575061036c610c29565b73ffffffffffffffffffffffffffffffffffffffff163373ffffffffffffffffffffffffffffffffffffffff16145b6103da576040517f08c379a00000000000000000000000000000000000000000000000000000000081526004016103d190611a7b565b60405180910390fd5b6001600860008577ffffffffffffffffffffffffffffffffffffffffffffffff191677ffffffffffffffffffffffffffffffffffffffffffffffff1916815260200190815260200160002060010160146101000a81548160ff021916908315150217905550600454600860008577ffffffffffffffffffffffffffffffffffffffffffffffff191677ffffffffffffffffffffffffffffffffffffffffffffffff191681526020019081526020016000206000018190555080600860008577ffffffffffffffffffffffffffffffffffffffffffffffff191677ffffffffffffffffffffffffffffffffffffffffffffffff1916815260200190815260200160002060010160006101000a81548173ffffffffffffffffffffffffffffffffffffffff021916908373ffffffffffffffffffffffffffffffffffffffff16021790555081600860008577ffffffffffffffffffffffffffffffffffffffffffffffff191677ffffffffffffffffffffffffffffffffffffffffffffffff1916815260200190815260200160002060020160006101000a81548167ffffffffffffffff021916908378010000000000000000000000000000000000000000000000009004021790555082600860008577ffffffffffffffffffffffffffffffffffffffffffffffff191677ffffffffffffffffffffffffffffffffffffffffffffffff1916815260200190815260200160002060010160156101000a81548167ffffffffffffffff02191690837801000000000000000000000000000000000000000000000000900402179055508260076000600454815260200190815260200160002060006101000a81548167ffffffffffffffff021916908378010000000000000000000000000000000000000000000000009004021790555060046000815461068490611aca565b91905081905550505050565b6001805461069d90611b42565b80601f01602080910402602001604051908101604052809291908181526020018280546106c990611b42565b80156107165780601f106106eb57610100808354040283529160200191610716565b820191906000526020600020905b8154815290600101906020018083116106f957829003601f168201915b505050505081565b600360009054906101000a900460ff1681565b6107396111e9565b6107416111e9565b6001805461074e90611b42565b80601f016020809104026020016040519081016040528092919081815260200182805461077a90611b42565b80156107c75780601f1061079c576101008083540402835291602001916107c7565b820191906000526020600020905b8154815290600101906020018083116107aa57829003601f168201915b50505050508160400181905250600280546107e190611b42565b80601f016020809104026020016040519081016040528092919081815260200182805461080d90611b42565b801561085a5780601f1061082f5761010080835404028352916020019161085a565b820191906000526020600020905b81548152906001019060200180831161083d57829003601f168201915b50505050508160600181905250600360009054906101000a900460ff168160200190600181111561088e5761088d611495565b5b908160018111156108a2576108a1611495565b5b815250508091505090565b60086020528060005260406000206000915090508060000154908060010160009054906101000a900473ffffffffffffffffffffffffffffffffffffffff16908060010160149054906101000a900460ff16908060010160159054906101000a9004780100000000000000000000000000000000000000000000000002908060020160009054906101000a90047801000000000000000000000000000000000000000000000000029080600301805461096590611b42565b80601f016020809104026020016040519081016040528092919081815260200182805461099190611b42565b80156109de5780601f106109b3576101008083540402835291602001916109de565b820191906000526020600020905b8154815290600101906020018083116109c157829003601f168201915b5050505050905086565b60011515600560003373ffffffffffffffffffffffffffffffffffffffff1673ffffffffffffffffffffffffffffffffffffffff16815260200190815260200160002060009054906101000a900460ff1615151480610a795750610a4a610c29565b73ffffffffffffffffffffffffffffffffffffffff163373ffffffffffffffffffffffffffffffffffffffff16145b610ab8576040517f08c379a0000000000000000000000000000000000000000000000000000000008152600401610aaf90611a7b565b60405180910390fd5b6001600560008373ffffffffffffffffffffffffffffffffffffffff1673ffffffffffffffffffffffffffffffffffffffff16815260200190815260200160002060006101000a81548160ff02191690831515021790555050565b610b1b61111d565b73ffffffffffffffffffffffffffffffffffffffff16610b39610c29565b73ffffffffffffffffffffffffffffffffffffffff1614610b8f576040517f08c379a0000000000000000000000000000000000000000000000000000000008152600401610b8690611bc0565b60405180910390fd5b610b996000611125565b565b60028054610ba890611b42565b80601f0160208091040260200160405190810160405280929190818152602001828054610bd490611b42565b8015610c215780601f10610bf657610100808354040283529160200191610c21565b820191906000526020600020905b815481529060010190602001808311610c0457829003601f168201915b505050505081565b60008060009054906101000a900473ffffffffffffffffffffffffffffffffffffffff16905090565b600081604051602001610c659190611473565b604051602081830303815290604052805190602001209050919050565b60011515600560003373ffffffffffffffffffffffffffffffffffffffff1673ffffffffffffffffffffffffffffffffffffffff16815260200190815260200160002060009054906101000a900460ff1615151480610d135750610ce4610c29565b73ffffffffffffffffffffffffffffffffffffffff163373ffffffffffffffffffffffffffffffffffffffff16145b610d52576040517f08c379a0000000000000000000000000000000000000000000000000000000008152600401610d4990611a7b565b60405180910390fd5b6000600560008373ffffffffffffffffffffffffffffffffffffffff1673ffffffffffffffffffffffffffffffffffffffff16815260200190815260200160002060006101000a81548160ff02191690831515021790555050565b610db5611239565b600860008377ffffffffffffffffffffffffffffffffffffffffffffffff191677ffffffffffffffffffffffffffffffffffffffffffffffff191681526020019081526020016000206040518060c0016040529081600082015481526020016001820160009054906101000a900473ffffffffffffffffffffffffffffffffffffffff1673ffffffffffffffffffffffffffffffffffffffff1673ffffffffffffffffffffffffffffffffffffffff1681526020016001820160149054906101000a900460ff161515151581526020016001820160159054906101000a900478010000000000000000000000000000000000000000000000000277ffffffffffffffffffffffffffffffffffffffffffffffff191677ffffffffffffffffffffffffffffffffffffffffffffffff191681526020016002820160009054906101000a900478010000000000000000000000000000000000000000000000000277ffffffffffffffffffffffffffffffffffffffffffffffff191677ffffffffffffffffffffffffffffffffffffffffffffffff19168152602001600382018054610f5e90611b42565b80601f0160208091040260200160405190810160405280929190818152602001828054610f8a90611b42565b8015610fd75780601f10610fac57610100808354040283529160200191610fd7565b820191906000526020600020905b815481529060010190602001808311610fba57829003601f168201915b5050505050815250509050919050565b60076020528060005260406000206000915054906101000a900478010000000000000000000000000000000000000000000000000281565b61102761111d565b73ffffffffffffffffffffffffffffffffffffffff16611045610c29565b73ffffffffffffffffffffffffffffffffffffffff161461109b576040517f08c379a000000000000000000000000000000000000000000000000000000000815260040161109290611bc0565b60405180910390fd5b600073ffffffffffffffffffffffffffffffffffffffff168173ffffffffffffffffffffffffffffffffffffffff16141561110b576040517f08c379a000000000000000000000000000000000000000000000000000000000815260040161110290611c52565b60405180910390fd5b61111481611125565b50565b60045481565b600033905090565b60008060009054906101000a900473ffffffffffffffffffffffffffffffffffffffff169050816000806101000a81548173ffffffffffffffffffffffffffffffffffffffff021916908373ffffffffffffffffffffffffffffffffffffffff1602179055508173ffffffffffffffffffffffffffffffffffffffff168173ffffffffffffffffffffffffffffffffffffffff167f8be0079c531659141344cd1fd0a4f28419497f9722a3daafe3b4186f6b6457e060405160405180910390a35050565b6040518060800160405280600073ffffffffffffffffffffffffffffffffffffffff1681526020016000600181111561122557611224611495565b5b815260200160608152602001606081525090565b6040518060c0016040528060008152602001600073ffffffffffffffffffffffffffffffffffffffff168152602001600015158152602001600077ffffffffffffffffffffffffffffffffffffffffffffffff19168152602001600077ffffffffffffffffffffffffffffffffffffffffffffffff19168152602001606081525090565b6000604051905090565b600080fd5b600080fd5b60007fffffffffffffffff00000000000000000000000000000000000000000000000082169050919050565b611306816112d1565b811461131157600080fd5b50565b600081359050611323816112fd565b92915050565b600073ffffffffffffffffffffffffffffffffffffffff82169050919050565b600061135482611329565b9050919050565b61136481611349565b811461136f57600080fd5b50565b6000813590506113818161135b565b92915050565b6000806000606084860312156113a05761139f6112c7565b5b60006113ae86828701611314565b93505060206113bf86828701611314565b92505060406113d086828701611372565b9150509250925092565b600081519050919050565b600082825260208201905092915050565b60005b838110156114145780820151818401526020810190506113f9565b83811115611423576000848401525b50505050565b6000601f19601f8301169050919050565b6000611445826113da565b61144f81856113e5565b935061145f8185602086016113f6565b61146881611429565b840191505092915050565b6000602082019050818103600083015261148d818461143a565b905092915050565b7f4e487b7100000000000000000000000000000000000000000000000000000000600052602160045260246000fd5b600281106114d5576114d4611495565b5b50565b60008190506114e6826114c4565b919050565b60006114f6826114d8565b9050919050565b611506816114eb565b82525050565b600060208201905061152160008301846114fd565b92915050565b61153081611349565b82525050565b61153f816114eb565b82525050565b600082825260208201905092915050565b6000611561826113da565b61156b8185611545565b935061157b8185602086016113f6565b61158481611429565b840191505092915050565b60006080830160008301516115a76000860182611527565b5060208301516115ba6020860182611536565b50604083015184820360408601526115d28282611556565b915050606083015184820360608601526115ec8282611556565b9150508091505092915050565b60006020820190508181036000830152611613818461158f565b905092915050565b600060208284031215611631576116306112c7565b5b600061163f84828501611314565b91505092915050565b6000819050919050565b61165b81611648565b82525050565b61166a81611349565b82525050565b60008115159050919050565b61168581611670565b82525050565b611694816112d1565b82525050565b600060c0820190506116af6000830189611652565b6116bc6020830188611661565b6116c9604083018761167c565b6116d6606083018661168b565b6116e3608083018561168b565b81810360a08301526116f5818461143a565b9050979650505050505050565b600060208284031215611718576117176112c7565b5b600061172684828501611372565b91505092915050565b60006020820190506117446000830184611661565b92915050565b600080fd5b600080fd5b7f4e487b7100000000000000000000000000000000000000000000000000000000600052604160045260246000fd5b61178c82611429565b810181811067ffffffffffffffff821117156117ab576117aa611754565b5b80604052505050565b60006117be6112bd565b90506117ca8282611783565b919050565b600067ffffffffffffffff8211156117ea576117e9611754565b5b6117f382611429565b9050602081019050919050565b82818337600083830152505050565b600061182261181d846117cf565b6117b4565b90508281526020810184848401111561183e5761183d61174f565b5b611849848285611800565b509392505050565b600082601f8301126118665761186561174a565b5b813561187684826020860161180f565b91505092915050565b600060208284031215611895576118946112c7565b5b600082013567ffffffffffffffff8111156118b3576118b26112cc565b5b6118bf84828501611851565b91505092915050565b60006020820190506118dd600083018461168b565b92915050565b6118ec81611648565b82525050565b6118fb81611670565b82525050565b61190a816112d1565b82525050565b600060c08301600083015161192860008601826118e3565b50602083015161193b6020860182611527565b50604083015161194e60408601826118f2565b5060608301516119616060860182611901565b5060808301516119746080860182611901565b5060a083015184820360a086015261198c8282611556565b9150508091505092915050565b600060208201905081810360008301526119b38184611910565b905092915050565b6119c481611648565b81146119cf57600080fd5b50565b6000813590506119e1816119bb565b92915050565b6000602082840312156119fd576119fc6112c7565b5b6000611a0b848285016119d2565b91505092915050565b6000602082019050611a296000830184611652565b92915050565b7f4e6f7420617574686f72697a6564000000000000000000000000000000000000600082015250565b6000611a65600e836113e5565b9150611a7082611a2f565b602082019050919050565b60006020820190508181036000830152611a9481611a58565b9050919050565b7f4e487b7100000000000000000000000000000000000000000000000000000000600052601160045260246000fd5b6000611ad582611648565b91507fffffffffffffffffffffffffffffffffffffffffffffffffffffffffffffffff821415611b0857611b07611a9b565b5b600182019050919050565b7f4e487b7100000000000000000000000000000000000000000000000000000000600052602260045260246000fd5b60006002820490506001821680611b5a57607f821691505b60208210811415611b6e57611b6d611b13565b5b50919050565b7f4f776e61626c653a2063616c6c6572206973206e6f7420746865206f776e6572600082015250565b6000611baa6020836113e5565b9150611bb582611b74565b602082019050919050565b60006020820190508181036000830152611bd981611b9d565b9050919050565b7f4f776e61626c653a206e6577206f776e657220697320746865207a65726f206160008201527f6464726573730000000000000000000000000000000000000000000000000000602082015250565b6000611c3c6026836113e5565b9150611c4782611be0565b604082019050919050565b60006020820190508181036000830152611c6b81611c2f565b905091905056fea2646970667358221220578dae7b7a3a75eb957133d2348f9fe2dda6bc5a167ec5153bf22a0d5a5ede0f64736f6c63430008090033",
  "immutableReferences": {},
  "source": "// SPDX-License-Identifier: MIT\r\npragma solidity ^0.8.9;\r\n\r\nimport \"@openzeppelin/contracts/access/Ownable.sol\";\r\nimport \"./Data.sol\";\r\n\r\ncontract DaoBase is Ownable {\r\n  string public name;\r\n  string public description;\r\n  Data.visibilityEnum public visibility;\r\n  uint256 public modulesCount;\r\n\r\n  mapping(address => bool) private authorizedContracts;\r\n  mapping(address => bool) owners;\r\n  mapping(uint256 => bytes8) public moduleType;\r\n  mapping(bytes8 => Data.Module) public modules;\r\n  // type => module {code, type, descr}\r\n  // member => module { \"nft member\", \"\", \"\"}\r\n\r\n  //membership => module\r\n  //nft member => module\r\n\r\n  //type => module\r\n\r\n  modifier onlyOwners() {\r\n    require(owners[msg.sender], \"Invalid User\");\r\n    _;\r\n  }\r\n  // modifier onlyActiveMembersOrAuthorizeContracts() {\r\n  //       require(members[msg.sender].status == Data.memberStatus.active || authorizedContracts[msg.sender] == true, \"Not authorized\");\r\n  //       _;\r\n  //   }\r\n\r\n  //   modifier onlyNotActiveMembers() {\r\n  //       require(members[msg.sender].status != Data.memberStatus.active, \"Not authorized\");\r\n  //       _;\r\n  //   }\r\n\r\n  modifier onlyAuthorizeContracts() {\r\n    require(authorizedContracts[msg.sender] == true, \"Not authorized\");\r\n    _;\r\n  }\r\n\r\n  modifier onlyAuthorizeContractsOrOwner() {\r\n    require(((authorizedContracts[msg.sender] == true) || msg.sender == owner()), \"Not authorized\");\r\n    _;\r\n  }\r\n\r\n  event DaoCreated(address daoAddress, address creatorAddress);\r\n  event ModuleAdded(string moduleCode, address moduleAddress, address adderAddress);\r\n\r\n  constructor(string memory _name, string memory _description, Data.visibilityEnum _visibility) {\r\n    name = _name;\r\n    description = _description;\r\n    visibility = _visibility;\r\n    owners[msg.sender] = true;\r\n  }\r\n\r\n  // function activateModule(ModuleType _moduleType, bytes8 memory code) external onlyOwners() {\r\n  //     modules[code].isActive = true;\r\n  //     modules[code].moduleAddress = _moduleAddress;\r\n  //     emit ModuleAdded(code, _moduleAddress, msg.sender);\r\n  // }\r\n  function hash(string memory _name) public pure returns(bytes8) {\r\n    return (bytes8(keccak256(abi.encode(_name))));\r\n  }\r\n  \r\n//   function activateModule(address _moduleAddress, string memory code) external {\r\n//       modules[code].isActive = true;\r\n//       modules[code].moduleAddress = _moduleAddress;\r\n//       emit ModuleAdded(code, _moduleAddress, msg.sender);\r\n//   }\r\n\r\n\r\n  function addModule(bytes8 _type, bytes8 _code, address _moduleAddr) public onlyAuthorizeContractsOrOwner() {\r\n    modules[_type].isActive = true;\r\n    modules[_type].id = modulesCount;\r\n    modules[_type].moduleAddress = _moduleAddr;\r\n    modules[_type].moduleCode = _code;\r\n    modules[_type].moduleType = _type;\r\n    moduleType[modulesCount] = _type;\r\n    ++modulesCount;\r\n  }\r\n\r\n  function authorizeContract(address _contractAddress) external onlyAuthorizeContractsOrOwner() {\r\n    authorizedContracts[_contractAddress] = true;\r\n  }\r\n\r\n  function denyContract(address _contractAddress) external onlyAuthorizeContractsOrOwner() {\r\n    authorizedContracts[_contractAddress] = false;\r\n  }\r\n\r\n  // get info\r\n  // function getAllModuleHash() public view returns(bytes8[] memory allModuleHash) {\r\n  //   allModuleHash = new bytes8[](modulesCount);\r\n  //   for (uint256 i = 0; i < modulesCount; ++i) {\r\n  //     allModuleHash[i] = moduleType[i];\r\n  //   }\r\n  // }\r\n  // function getAllModulesData() public view returns(Data.Module[] memory allModuleData) {\r\n  //   allModuleData = new Data.Module[](modulesCount);\r\n  //   for (uint256 i = 0; i < modulesCount; ++i) {\r\n  //     allModuleData[i] = modules[moduleType[i]];\r\n  //   }\r\n  // }\r\n  // function getModuleData(uint256 _moduleId) public view returns(Data.Module memory) {\r\n  //   return(modules[moduleType[_moduleId]]);\r\n  // }\r\n\r\n  function getModuleData(bytes8 _type) public view returns(Data.Module memory) {\r\n    return(modules[_type]);\r\n  }\r\n\r\n  function getDaoSettings() public view returns(Data.DaoSettings memory) {\r\n    Data.DaoSettings memory daoSettings;\r\n    daoSettings.name = name;\r\n    daoSettings.description = description;\r\n    daoSettings.visibility = visibility;\r\n    return daoSettings;\r\n  }\r\n\r\n  // function memberInfo(address _member) external view returns(Data.member memory) {\r\n  //   return(IDao(modules[0]).getMemberInfo(_member));\r\n  // }\r\n  // function addrId(uint256 _id) external view returns(address) {\r\n  //   return(IDao(modules[0]).getAddrById(_id));\r\n  // }\r\n  // function totalId() external view returns(uint256) {\r\n  //   return(IDao(modules[0]).getTotalId());\r\n  // }\r\n  // function daoInfo() external view returns(Data.daoData memory) {\r\n  //   return(IDao(modules[0]).getInfoDao());\r\n  // }\r\n  // add new modules\r\n  // function addModule(address _newModule) external {\r\n  //   modules.push(_newModule);\r\n  // }\r\n}",
  "sourcePath": "C:\\Users\\mdmou\\source\\repos\\MY-DAO\\contracts\\DaoBase.sol",
  "compiler": {
    "name": "solc",
    "version": "0.8.9+commit.e5eed63a.Emscripten.clang"
  },
  "schemaVersion": "3.4.4",
  "updatedAt": "2022-05-16T19:58:15.091Z",
  "devdoc": {
    "kind": "dev",
    "methods": {
      "owner()": {
        "details": "Returns the address of the current owner."
      },
      "renounceOwnership()": {
        "details": "Leaves the contract without owner. It will not be possible to call `onlyOwner` functions anymore. Can only be called by the current owner. NOTE: Renouncing ownership will leave the contract without an owner, thereby removing any functionality that is only available to the owner."
      },
      "transferOwnership(address)": {
        "details": "Transfers ownership of the contract to a new account (`newOwner`). Can only be called by the current owner."
      }
    },
    "version": 1
  },
  "userdoc": {
    "kind": "user",
    "methods": {},
    "version": 1
  }
}