{
  "contractName": "DaoBase",
  "abi": [
    {
      "inputs": [
        {
          "internalType": "string",
          "name": "_name",
          "type": "string"
        },
        {
          "internalType": "string",
          "name": "_description",
          "type": "string"
        },
        {
          "internalType": "enum Data.visibilityEnum",
          "name": "_visibility",
          "type": "uint8"
        }
      ],
      "stateMutability": "nonpayable",
      "type": "constructor"
    },
    {
      "anonymous": false,
      "inputs": [
        {
          "indexed": false,
          "internalType": "address",
          "name": "daoAddress",
          "type": "address"
        },
        {
          "indexed": false,
          "internalType": "address",
          "name": "creatorAddress",
          "type": "address"
        }
      ],
      "name": "DaoCreated",
      "type": "event"
    },
    {
      "anonymous": false,
      "inputs": [
        {
          "indexed": false,
          "internalType": "string",
          "name": "moduleCode",
          "type": "string"
        },
        {
          "indexed": false,
          "internalType": "address",
          "name": "moduleAddress",
          "type": "address"
        },
        {
          "indexed": false,
          "internalType": "address",
          "name": "adderAddress",
          "type": "address"
        }
      ],
      "name": "ModuleAdded",
      "type": "event"
    },
    {
      "anonymous": false,
      "inputs": [
        {
          "indexed": true,
          "internalType": "address",
          "name": "previousOwner",
          "type": "address"
        },
        {
          "indexed": true,
          "internalType": "address",
          "name": "newOwner",
          "type": "address"
        }
      ],
      "name": "OwnershipTransferred",
      "type": "event"
    },
    {
      "inputs": [],
      "name": "description",
      "outputs": [
        {
          "internalType": "string",
          "name": "",
          "type": "string"
        }
      ],
      "stateMutability": "view",
      "type": "function"
    },
    {
      "inputs": [
        {
          "internalType": "uint256",
          "name": "",
          "type": "uint256"
        }
      ],
      "name": "moduleType",
      "outputs": [
        {
          "internalType": "bytes8",
          "name": "",
          "type": "bytes8"
        }
      ],
      "stateMutability": "view",
      "type": "function"
    },
    {
      "inputs": [
        {
          "internalType": "bytes8",
          "name": "",
          "type": "bytes8"
        }
      ],
      "name": "modules",
      "outputs": [
        {
          "internalType": "uint256",
          "name": "id",
          "type": "uint256"
        },
        {
          "internalType": "address",
          "name": "moduleAddress",
          "type": "address"
        },
        {
          "internalType": "bool",
          "name": "isActive",
          "type": "bool"
        },
        {
          "internalType": "bytes8",
          "name": "moduleType",
          "type": "bytes8"
        },
        {
          "internalType": "bytes8",
          "name": "moduleCode",
          "type": "bytes8"
        },
        {
          "internalType": "string",
          "name": "moduleInfo",
          "type": "string"
        }
      ],
      "stateMutability": "view",
      "type": "function"
    },
    {
      "inputs": [],
      "name": "modulesCount",
      "outputs": [
        {
          "internalType": "uint256",
          "name": "",
          "type": "uint256"
        }
      ],
      "stateMutability": "view",
      "type": "function"
    },
    {
      "inputs": [],
      "name": "name",
      "outputs": [
        {
          "internalType": "string",
          "name": "",
          "type": "string"
        }
      ],
      "stateMutability": "view",
      "type": "function"
    },
    {
      "inputs": [],
      "name": "owner",
      "outputs": [
        {
          "internalType": "address",
          "name": "",
          "type": "address"
        }
      ],
      "stateMutability": "view",
      "type": "function"
    },
    {
      "inputs": [],
      "name": "renounceOwnership",
      "outputs": [],
      "stateMutability": "nonpayable",
      "type": "function"
    },
    {
      "inputs": [
        {
          "internalType": "address",
          "name": "newOwner",
          "type": "address"
        }
      ],
      "name": "transferOwnership",
      "outputs": [],
      "stateMutability": "nonpayable",
      "type": "function"
    },
    {
      "inputs": [],
      "name": "visibility",
      "outputs": [
        {
          "internalType": "enum Data.visibilityEnum",
          "name": "",
          "type": "uint8"
        }
      ],
      "stateMutability": "view",
      "type": "function"
    },
    {
      "inputs": [
        {
          "internalType": "string",
          "name": "_name",
          "type": "string"
        }
      ],
      "name": "hash",
      "outputs": [
        {
          "internalType": "bytes8",
          "name": "",
          "type": "bytes8"
        }
      ],
      "stateMutability": "pure",
      "type": "function"
    },
    {
      "inputs": [
        {
          "internalType": "bytes8",
          "name": "_type",
          "type": "bytes8"
        },
        {
          "internalType": "address",
          "name": "_moduleAddr",
          "type": "address"
        }
      ],
      "name": "addModule",
      "outputs": [],
      "stateMutability": "nonpayable",
      "type": "function"
    },
    {
      "inputs": [
        {
          "internalType": "address",
          "name": "_contractAddress",
          "type": "address"
        }
      ],
      "name": "authorizeContract",
      "outputs": [],
      "stateMutability": "nonpayable",
      "type": "function"
    },
    {
      "inputs": [
        {
          "internalType": "address",
          "name": "_contractAddress",
          "type": "address"
        }
      ],
      "name": "denyContract",
      "outputs": [],
      "stateMutability": "nonpayable",
      "type": "function"
    },
    {
      "inputs": [
        {
          "internalType": "bytes8",
          "name": "_type",
          "type": "bytes8"
        }
      ],
      "name": "getModuleData",
      "outputs": [
        {
          "components": [
            {
              "internalType": "uint256",
              "name": "id",
              "type": "uint256"
            },
            {
              "internalType": "address",
              "name": "moduleAddress",
              "type": "address"
            },
            {
              "internalType": "bool",
              "name": "isActive",
              "type": "bool"
            },
            {
              "internalType": "bytes8",
              "name": "moduleType",
              "type": "bytes8"
            },
            {
              "internalType": "bytes8",
              "name": "moduleCode",
              "type": "bytes8"
            },
            {
              "internalType": "string",
              "name": "moduleInfo",
              "type": "string"
            }
          ],
          "internalType": "struct Data.Module",
          "name": "",
          "type": "tuple"
        }
      ],
      "stateMutability": "view",
      "type": "function"
    },
    {
      "inputs": [],
      "name": "getDaoSettings",
      "outputs": [
        {
          "components": [
            {
              "internalType": "address",
              "name": "addressDao",
              "type": "address"
            },
            {
              "internalType": "enum Data.visibilityEnum",
              "name": "visibility",
              "type": "uint8"
            },
            {
              "internalType": "string",
              "name": "name",
              "type": "string"
            },
            {
              "internalType": "string",
              "name": "description",
              "type": "string"
            }
          ],
          "internalType": "struct Data.DaoSettings",
          "name": "",
          "type": "tuple"
        }
      ],
      "stateMutability": "view",
      "type": "function"
    }
  ],
  "bytecode": "0x60806040523480156200001157600080fd5b50604051620020dd380380620020dd83398181016040528101906200003791906200046a565b620000696200005462000129640100000000026401000000009004565b62000131640100000000026401000000009004565b826001908051906020019062000081929190620001f5565b5081600290805190602001906200009a929190620001f5565b5080600360006101000a81548160ff02191690836001811115620000c357620000c262000504565b5b02179055506001600660003373ffffffffffffffffffffffffffffffffffffffff1673ffffffffffffffffffffffffffffffffffffffff16815260200190815260200160002060006101000a81548160ff02191690831515021790555050505062000598565b600033905090565b60008060009054906101000a900473ffffffffffffffffffffffffffffffffffffffff169050816000806101000a81548173ffffffffffffffffffffffffffffffffffffffff021916908373ffffffffffffffffffffffffffffffffffffffff1602179055508173ffffffffffffffffffffffffffffffffffffffff168173ffffffffffffffffffffffffffffffffffffffff167f8be0079c531659141344cd1fd0a4f28419497f9722a3daafe3b4186f6b6457e060405160405180910390a35050565b828054620002039062000562565b90600052602060002090601f01602090048101928262000227576000855562000273565b82601f106200024257805160ff191683800117855562000273565b8280016001018555821562000273579182015b828111156200027257825182559160200191906001019062000255565b5b50905062000282919062000286565b5090565b5b80821115620002a157600081600090555060010162000287565b5090565b6000604051905090565b600080fd5b600080fd5b600080fd5b600080fd5b6000601f19601f8301169050919050565b7f4e487b7100000000000000000000000000000000000000000000000000000000600052604160045260246000fd5b6200030e82620002c3565b810181811067ffffffffffffffff8211171562000330576200032f620002d4565b5b80604052505050565b600062000345620002a5565b905062000353828262000303565b919050565b600067ffffffffffffffff821115620003765762000375620002d4565b5b6200038182620002c3565b9050602081019050919050565b60005b83811015620003ae57808201518184015260208101905062000391565b83811115620003be576000848401525b50505050565b6000620003db620003d58462000358565b62000339565b905082815260208101848484011115620003fa57620003f9620002be565b5b620004078482856200038e565b509392505050565b600082601f830112620004275762000426620002b9565b5b815162000439848260208601620003c4565b91505092915050565b600281106200045057600080fd5b50565b600081519050620004648162000442565b92915050565b600080600060608486031215620004865762000485620002af565b5b600084015167ffffffffffffffff811115620004a757620004a6620002b4565b5b620004b5868287016200040f565b935050602084015167ffffffffffffffff811115620004d957620004d8620002b4565b5b620004e7868287016200040f565b9250506040620004fa8682870162000453565b9150509250925092565b7f4e487b7100000000000000000000000000000000000000000000000000000000600052602160045260246000fd5b7f4e487b7100000000000000000000000000000000000000000000000000000000600052602260045260246000fd5b600060028204905060018216806200057b57607f821691505b6020821081141562000592576200059162000533565b5b50919050565b611b3580620005a86000396000f3fe608060405234801561001057600080fd5b5060043610610111576000357c0100000000000000000000000000000000000000000000000000000000900480637284e416116100b4578063d8d8e93c11610083578063d8d8e93c1461026f578063ee760f381461029f578063f2fde38b146102cf578063f315aafe146102eb57610111565b80637284e416146101e75780638da5cb5b14610205578063b411ee9414610223578063b7e2077e1461025357610111565b806336e70eaa116100f057806336e70eaa1461016e57806352450cf91461018c57806367561d93146101c1578063715018a6146101dd57610111565b80628682391461011657806306fdde031461013257806329adec1414610150575b600080fd5b610130600480360381019061012b9190611227565b610309565b005b61013a610530565b6040516101479190611300565b60405180910390f35b6101586105be565b6040516101659190611399565b60405180910390f35b6101766105d1565b6040516101839190611486565b60405180910390f35b6101a660048036038101906101a191906114a8565b61074d565b6040516101b896959493929190611527565b60405180910390f35b6101db60048036038101906101d6919061158f565b610888565b005b6101e56109b3565b005b6101ef610a3b565b6040516101fc9190611300565b60405180910390f35b61020d610ac9565b60405161021a91906115bc565b60405180910390f35b61023d6004803603810190610238919061170c565b610af2565b60405161024a9190611755565b60405180910390f35b61026d6004803603810190610268919061158f565b610b22565b005b610289600480360381019061028491906114a8565b610c4d565b6040516102969190611826565b60405180910390f35b6102b960048036038101906102b49190611874565b610e87565b6040516102c69190611755565b60405180910390f35b6102e960048036038101906102e4919061158f565b610ebf565b005b6102f3610fb7565b60405161030091906118a1565b60405180910390f35b610311610fbd565b73ffffffffffffffffffffffffffffffffffffffff1661032f610ac9565b73ffffffffffffffffffffffffffffffffffffffff1614610385576040517f08c379a000000000000000000000000000000000000000000000000000000000815260040161037c90611908565b60405180910390fd5b6001600860008477ffffffffffffffffffffffffffffffffffffffffffffffff191677ffffffffffffffffffffffffffffffffffffffffffffffff1916815260200190815260200160002060010160146101000a81548160ff021916908315150217905550600454600860008477ffffffffffffffffffffffffffffffffffffffffffffffff191677ffffffffffffffffffffffffffffffffffffffffffffffff191681526020019081526020016000206000018190555080600860008477ffffffffffffffffffffffffffffffffffffffffffffffff191677ffffffffffffffffffffffffffffffffffffffffffffffff1916815260200190815260200160002060010160006101000a81548173ffffffffffffffffffffffffffffffffffffffff021916908373ffffffffffffffffffffffffffffffffffffffff1602179055508160076000600454815260200190815260200160002060006101000a81548167ffffffffffffffff021916908378010000000000000000000000000000000000000000000000009004021790555060046000815461052590611957565b919050819055505050565b6001805461053d906119cf565b80601f0160208091040260200160405190810160405280929190818152602001828054610569906119cf565b80156105b65780601f1061058b576101008083540402835291602001916105b6565b820191906000526020600020905b81548152906001019060200180831161059957829003601f168201915b505050505081565b600360009054906101000a900460ff1681565b6105d9611089565b6105e1611089565b600180546105ee906119cf565b80601f016020809104026020016040519081016040528092919081815260200182805461061a906119cf565b80156106675780601f1061063c57610100808354040283529160200191610667565b820191906000526020600020905b81548152906001019060200180831161064a57829003601f168201915b5050505050816040018190525060028054610681906119cf565b80601f01602080910402602001604051908101604052809291908181526020018280546106ad906119cf565b80156106fa5780601f106106cf576101008083540402835291602001916106fa565b820191906000526020600020905b8154815290600101906020018083116106dd57829003601f168201915b50505050508160600181905250600360009054906101000a900460ff168160200190600181111561072e5761072d611322565b5b9081600181111561074257610741611322565b5b815250508091505090565b60086020528060005260406000206000915090508060000154908060010160009054906101000a900473ffffffffffffffffffffffffffffffffffffffff16908060010160149054906101000a900460ff16908060010160159054906101000a9004780100000000000000000000000000000000000000000000000002908060020160009054906101000a900478010000000000000000000000000000000000000000000000000290806003018054610805906119cf565b80601f0160208091040260200160405190810160405280929190818152602001828054610831906119cf565b801561087e5780601f106108535761010080835404028352916020019161087e565b820191906000526020600020905b81548152906001019060200180831161086157829003601f168201915b5050505050905086565b60011515600560003373ffffffffffffffffffffffffffffffffffffffff1673ffffffffffffffffffffffffffffffffffffffff16815260200190815260200160002060009054906101000a900460ff161515148061091957506108ea610ac9565b73ffffffffffffffffffffffffffffffffffffffff163373ffffffffffffffffffffffffffffffffffffffff16145b610958576040517f08c379a000000000000000000000000000000000000000000000000000000000815260040161094f90611a4d565b60405180910390fd5b6001600560008373ffffffffffffffffffffffffffffffffffffffff1673ffffffffffffffffffffffffffffffffffffffff16815260200190815260200160002060006101000a81548160ff02191690831515021790555050565b6109bb610fbd565b73ffffffffffffffffffffffffffffffffffffffff166109d9610ac9565b73ffffffffffffffffffffffffffffffffffffffff1614610a2f576040517f08c379a0000000000000000000000000000000000000000000000000000000008152600401610a2690611908565b60405180910390fd5b610a396000610fc5565b565b60028054610a48906119cf565b80601f0160208091040260200160405190810160405280929190818152602001828054610a74906119cf565b8015610ac15780601f10610a9657610100808354040283529160200191610ac1565b820191906000526020600020905b815481529060010190602001808311610aa457829003601f168201915b505050505081565b60008060009054906101000a900473ffffffffffffffffffffffffffffffffffffffff16905090565b600081604051602001610b059190611300565b604051602081830303815290604052805190602001209050919050565b60011515600560003373ffffffffffffffffffffffffffffffffffffffff1673ffffffffffffffffffffffffffffffffffffffff16815260200190815260200160002060009054906101000a900460ff1615151480610bb35750610b84610ac9565b73ffffffffffffffffffffffffffffffffffffffff163373ffffffffffffffffffffffffffffffffffffffff16145b610bf2576040517f08c379a0000000000000000000000000000000000000000000000000000000008152600401610be990611a4d565b60405180910390fd5b6000600560008373ffffffffffffffffffffffffffffffffffffffff1673ffffffffffffffffffffffffffffffffffffffff16815260200190815260200160002060006101000a81548160ff02191690831515021790555050565b610c556110d9565b600860008377ffffffffffffffffffffffffffffffffffffffffffffffff191677ffffffffffffffffffffffffffffffffffffffffffffffff191681526020019081526020016000206040518060c0016040529081600082015481526020016001820160009054906101000a900473ffffffffffffffffffffffffffffffffffffffff1673ffffffffffffffffffffffffffffffffffffffff1673ffffffffffffffffffffffffffffffffffffffff1681526020016001820160149054906101000a900460ff161515151581526020016001820160159054906101000a900478010000000000000000000000000000000000000000000000000277ffffffffffffffffffffffffffffffffffffffffffffffff191677ffffffffffffffffffffffffffffffffffffffffffffffff191681526020016002820160009054906101000a900478010000000000000000000000000000000000000000000000000277ffffffffffffffffffffffffffffffffffffffffffffffff191677ffffffffffffffffffffffffffffffffffffffffffffffff19168152602001600382018054610dfe906119cf565b80601f0160208091040260200160405190810160405280929190818152602001828054610e2a906119cf565b8015610e775780601f10610e4c57610100808354040283529160200191610e77565b820191906000526020600020905b815481529060010190602001808311610e5a57829003601f168201915b5050505050815250509050919050565b60076020528060005260406000206000915054906101000a900478010000000000000000000000000000000000000000000000000281565b610ec7610fbd565b73ffffffffffffffffffffffffffffffffffffffff16610ee5610ac9565b73ffffffffffffffffffffffffffffffffffffffff1614610f3b576040517f08c379a0000000000000000000000000000000000000000000000000000000008152600401610f3290611908565b60405180910390fd5b600073ffffffffffffffffffffffffffffffffffffffff168173ffffffffffffffffffffffffffffffffffffffff161415610fab576040517f08c379a0000000000000000000000000000000000000000000000000000000008152600401610fa290611adf565b60405180910390fd5b610fb481610fc5565b50565b60045481565b600033905090565b60008060009054906101000a900473ffffffffffffffffffffffffffffffffffffffff169050816000806101000a81548173ffffffffffffffffffffffffffffffffffffffff021916908373ffffffffffffffffffffffffffffffffffffffff1602179055508173ffffffffffffffffffffffffffffffffffffffff168173ffffffffffffffffffffffffffffffffffffffff167f8be0079c531659141344cd1fd0a4f28419497f9722a3daafe3b4186f6b6457e060405160405180910390a35050565b6040518060800160405280600073ffffffffffffffffffffffffffffffffffffffff168152602001600060018111156110c5576110c4611322565b5b815260200160608152602001606081525090565b6040518060c0016040528060008152602001600073ffffffffffffffffffffffffffffffffffffffff168152602001600015158152602001600077ffffffffffffffffffffffffffffffffffffffffffffffff19168152602001600077ffffffffffffffffffffffffffffffffffffffffffffffff19168152602001606081525090565b6000604051905090565b600080fd5b600080fd5b60007fffffffffffffffff00000000000000000000000000000000000000000000000082169050919050565b6111a681611171565b81146111b157600080fd5b50565b6000813590506111c38161119d565b92915050565b600073ffffffffffffffffffffffffffffffffffffffff82169050919050565b60006111f4826111c9565b9050919050565b611204816111e9565b811461120f57600080fd5b50565b600081359050611221816111fb565b92915050565b6000806040838503121561123e5761123d611167565b5b600061124c858286016111b4565b925050602061125d85828601611212565b9150509250929050565b600081519050919050565b600082825260208201905092915050565b60005b838110156112a1578082015181840152602081019050611286565b838111156112b0576000848401525b50505050565b6000601f19601f8301169050919050565b60006112d282611267565b6112dc8185611272565b93506112ec818560208601611283565b6112f5816112b6565b840191505092915050565b6000602082019050818103600083015261131a81846112c7565b905092915050565b7f4e487b7100000000000000000000000000000000000000000000000000000000600052602160045260246000fd5b6002811061136257611361611322565b5b50565b600081905061137382611351565b919050565b600061138382611365565b9050919050565b61139381611378565b82525050565b60006020820190506113ae600083018461138a565b92915050565b6113bd816111e9565b82525050565b6113cc81611378565b82525050565b600082825260208201905092915050565b60006113ee82611267565b6113f881856113d2565b9350611408818560208601611283565b611411816112b6565b840191505092915050565b600060808301600083015161143460008601826113b4565b50602083015161144760208601826113c3565b506040830151848203604086015261145f82826113e3565b9150506060830151848203606086015261147982826113e3565b9150508091505092915050565b600060208201905081810360008301526114a0818461141c565b905092915050565b6000602082840312156114be576114bd611167565b5b60006114cc848285016111b4565b91505092915050565b6000819050919050565b6114e8816114d5565b82525050565b6114f7816111e9565b82525050565b60008115159050919050565b611512816114fd565b82525050565b61152181611171565b82525050565b600060c08201905061153c60008301896114df565b61154960208301886114ee565b6115566040830187611509565b6115636060830186611518565b6115706080830185611518565b81810360a083015261158281846112c7565b9050979650505050505050565b6000602082840312156115a5576115a4611167565b5b60006115b384828501611212565b91505092915050565b60006020820190506115d160008301846114ee565b92915050565b600080fd5b600080fd5b7f4e487b7100000000000000000000000000000000000000000000000000000000600052604160045260246000fd5b611619826112b6565b810181811067ffffffffffffffff82111715611638576116376115e1565b5b80604052505050565b600061164b61115d565b90506116578282611610565b919050565b600067ffffffffffffffff821115611677576116766115e1565b5b611680826112b6565b9050602081019050919050565b82818337600083830152505050565b60006116af6116aa8461165c565b611641565b9050828152602081018484840111156116cb576116ca6115dc565b5b6116d684828561168d565b509392505050565b600082601f8301126116f3576116f26115d7565b5b813561170384826020860161169c565b91505092915050565b60006020828403121561172257611721611167565b5b600082013567ffffffffffffffff8111156117405761173f61116c565b5b61174c848285016116de565b91505092915050565b600060208201905061176a6000830184611518565b92915050565b611779816114d5565b82525050565b611788816114fd565b82525050565b61179781611171565b82525050565b600060c0830160008301516117b56000860182611770565b5060208301516117c860208601826113b4565b5060408301516117db604086018261177f565b5060608301516117ee606086018261178e565b506080830151611801608086018261178e565b5060a083015184820360a086015261181982826113e3565b9150508091505092915050565b60006020820190508181036000830152611840818461179d565b905092915050565b611851816114d5565b811461185c57600080fd5b50565b60008135905061186e81611848565b92915050565b60006020828403121561188a57611889611167565b5b60006118988482850161185f565b91505092915050565b60006020820190506118b660008301846114df565b92915050565b7f4f776e61626c653a2063616c6c6572206973206e6f7420746865206f776e6572600082015250565b60006118f2602083611272565b91506118fd826118bc565b602082019050919050565b60006020820190508181036000830152611921816118e5565b9050919050565b7f4e487b7100000000000000000000000000000000000000000000000000000000600052601160045260246000fd5b6000611962826114d5565b91507fffffffffffffffffffffffffffffffffffffffffffffffffffffffffffffffff82141561199557611994611928565b5b600182019050919050565b7f4e487b7100000000000000000000000000000000000000000000000000000000600052602260045260246000fd5b600060028204905060018216806119e757607f821691505b602082108114156119fb576119fa6119a0565b5b50919050565b7f4e6f7420617574686f72697a6564000000000000000000000000000000000000600082015250565b6000611a37600e83611272565b9150611a4282611a01565b602082019050919050565b60006020820190508181036000830152611a6681611a2a565b9050919050565b7f4f776e61626c653a206e6577206f776e657220697320746865207a65726f206160008201527f6464726573730000000000000000000000000000000000000000000000000000602082015250565b6000611ac9602683611272565b9150611ad482611a6d565b604082019050919050565b60006020820190508181036000830152611af881611abc565b905091905056fea2646970667358221220d29a8c57c722611ee610b04f5cc40f39295af7c2db839565899d8551f269e8f664736f6c63430008090033",
  "immutableReferences": {},
  "source": "// SPDX-License-Identifier: MIT\r\npragma solidity ^0.8.9;\r\n\r\nimport \"@openzeppelin/contracts/access/Ownable.sol\";\r\nimport \"./Data.sol\";\r\n\r\ncontract DaoBase is Ownable {\r\n  string public name;\r\n  string public description;\r\n  Data.visibilityEnum public visibility;\r\n  uint256 public modulesCount;\r\n\r\n  mapping(address => bool) private authorizedContracts;\r\n  mapping(address => bool) owners;\r\n  mapping(uint256 => bytes8) public moduleType;\r\n  mapping(bytes8 => Data.Module) public modules;\r\n  // type => module {code, type, descr}\r\n  // member => module { \"nft member\", \"\", \"\"}\r\n\r\n  //membership => module\r\n  //nft member => module\r\n\r\n  //type => module\r\n\r\n  modifier onlyOwners() {\r\n    require(owners[msg.sender], \"Invalid User\");\r\n    _;\r\n  }\r\n  // modifier onlyActiveMembersOrAuthorizeContracts() {\r\n  //       require(members[msg.sender].status == Data.memberStatus.active || authorizedContracts[msg.sender] == true, \"Not authorized\");\r\n  //       _;\r\n  //   }\r\n\r\n  //   modifier onlyNotActiveMembers() {\r\n  //       require(members[msg.sender].status != Data.memberStatus.active, \"Not authorized\");\r\n  //       _;\r\n  //   }\r\n\r\n  modifier onlyAuthorizeContracts() {\r\n    require(authorizedContracts[msg.sender] == true, \"Not authorized\");\r\n    _;\r\n  }\r\n\r\n  modifier onlyAuthorizeContractsOrOwner() {\r\n    require(((authorizedContracts[msg.sender] == true) || msg.sender == owner()), \"Not authorized\");\r\n    _;\r\n  }\r\n\r\n  event DaoCreated(address daoAddress, address creatorAddress);\r\n  event ModuleAdded(string moduleCode, address moduleAddress, address adderAddress);\r\n\r\n  constructor(string memory _name, string memory _description, Data.visibilityEnum _visibility) {\r\n    name = _name;\r\n    description = _description;\r\n    visibility = _visibility;\r\n    owners[msg.sender] = true;\r\n  }\r\n\r\n  // function activateModule(ModuleType _moduleType, bytes8 memory code) external onlyOwners() {\r\n  //     modules[code].isActive = true;\r\n  //     modules[code].moduleAddress = _moduleAddress;\r\n  //     emit ModuleAdded(code, _moduleAddress, msg.sender);\r\n  // }\r\n  function hash(string memory _name) public pure returns(bytes8) {\r\n    return (bytes8(keccak256(abi.encode(_name))));\r\n  }\r\n  \r\n//   function activateModule(address _moduleAddress, string memory code) external {\r\n//       modules[code].isActive = true;\r\n//       modules[code].moduleAddress = _moduleAddress;\r\n//       emit ModuleAdded(code, _moduleAddress, msg.sender);\r\n//   }\r\n\r\n\r\n  function addModule(bytes8 _type, address _moduleAddr) public onlyOwner() {\r\n    modules[_type].isActive = true;\r\n    modules[_type].id = modulesCount;\r\n    modules[_type].moduleAddress = _moduleAddr;\r\n    moduleType[modulesCount] = _type;\r\n    ++modulesCount;\r\n  }\r\n\r\n  function authorizeContract(address _contractAddress) external onlyAuthorizeContractsOrOwner() {\r\n    authorizedContracts[_contractAddress] = true;\r\n  }\r\n\r\n  function denyContract(address _contractAddress) external onlyAuthorizeContractsOrOwner() {\r\n    authorizedContracts[_contractAddress] = false;\r\n  }\r\n\r\n  // get info\r\n  // function getAllModuleHash() public view returns(bytes8[] memory allModuleHash) {\r\n  //   allModuleHash = new bytes8[](modulesCount);\r\n  //   for (uint256 i = 0; i < modulesCount; ++i) {\r\n  //     allModuleHash[i] = moduleType[i];\r\n  //   }\r\n  // }\r\n  // function getAllModulesData() public view returns(Data.Module[] memory allModuleData) {\r\n  //   allModuleData = new Data.Module[](modulesCount);\r\n  //   for (uint256 i = 0; i < modulesCount; ++i) {\r\n  //     allModuleData[i] = modules[moduleType[i]];\r\n  //   }\r\n  // }\r\n  // function getModuleData(uint256 _moduleId) public view returns(Data.Module memory) {\r\n  //   return(modules[moduleType[_moduleId]]);\r\n  // }\r\n\r\n  function getModuleData(bytes8 _type) public view returns(Data.Module memory) {\r\n    return(modules[_type]);\r\n  }\r\n\r\n  function getDaoSettings() public view returns(Data.DaoSettings memory) {\r\n    Data.DaoSettings memory daoSettings;\r\n    daoSettings.name = name;\r\n    daoSettings.description = description;\r\n    daoSettings.visibility = visibility;\r\n    return daoSettings;\r\n  }\r\n\r\n  // function memberInfo(address _member) external view returns(Data.member memory) {\r\n  //   return(IDao(modules[0]).getMemberInfo(_member));\r\n  // }\r\n  // function addrId(uint256 _id) external view returns(address) {\r\n  //   return(IDao(modules[0]).getAddrById(_id));\r\n  // }\r\n  // function totalId() external view returns(uint256) {\r\n  //   return(IDao(modules[0]).getTotalId());\r\n  // }\r\n  // function daoInfo() external view returns(Data.daoData memory) {\r\n  //   return(IDao(modules[0]).getInfoDao());\r\n  // }\r\n  // add new modules\r\n  // function addModule(address _newModule) external {\r\n  //   modules.push(_newModule);\r\n  // }\r\n}",
  "sourcePath": "C:\\Users\\mdmou\\source\\repos\\MY-DAO\\contracts\\DaoBase.sol",
  "compiler": {
    "name": "solc",
    "version": "0.8.9+commit.e5eed63a.Emscripten.clang"
  },
  "schemaVersion": "3.4.4",
  "updatedAt": "2022-05-15T22:21:09.361Z",
  "devdoc": {
    "kind": "dev",
    "methods": {
      "owner()": {
        "details": "Returns the address of the current owner."
      },
      "renounceOwnership()": {
        "details": "Leaves the contract without owner. It will not be possible to call `onlyOwner` functions anymore. Can only be called by the current owner. NOTE: Renouncing ownership will leave the contract without an owner, thereby removing any functionality that is only available to the owner."
      },
      "transferOwnership(address)": {
        "details": "Transfers ownership of the contract to a new account (`newOwner`). Can only be called by the current owner."
      }
    },
    "version": 1
  },
  "userdoc": {
    "kind": "user",
    "methods": {},
    "version": 1
  }
}