{
  "contractName": "DaoBase",
  "abi": [
    {
      "inputs": [
        {
          "internalType": "string",
          "name": "_name",
          "type": "string"
        },
        {
          "internalType": "string",
          "name": "_description",
          "type": "string"
        },
        {
          "internalType": "enum Data.visibilityEnum",
          "name": "_visibility",
          "type": "uint8"
        }
      ],
      "stateMutability": "nonpayable",
      "type": "constructor"
    },
    {
      "anonymous": false,
      "inputs": [
        {
          "indexed": false,
          "internalType": "address",
          "name": "daoAddress",
          "type": "address"
        },
        {
          "indexed": false,
          "internalType": "address",
          "name": "creatorAddress",
          "type": "address"
        }
      ],
      "name": "DaoCreated",
      "type": "event"
    },
    {
      "anonymous": false,
      "inputs": [
        {
          "indexed": false,
          "internalType": "string",
          "name": "moduleCode",
          "type": "string"
        },
        {
          "indexed": false,
          "internalType": "address",
          "name": "moduleAddress",
          "type": "address"
        },
        {
          "indexed": false,
          "internalType": "address",
          "name": "adderAddress",
          "type": "address"
        }
      ],
      "name": "ModuleAdded",
      "type": "event"
    },
    {
      "anonymous": false,
      "inputs": [
        {
          "indexed": true,
          "internalType": "address",
          "name": "previousOwner",
          "type": "address"
        },
        {
          "indexed": true,
          "internalType": "address",
          "name": "newOwner",
          "type": "address"
        }
      ],
      "name": "OwnershipTransferred",
      "type": "event"
    },
    {
      "inputs": [],
      "name": "description",
      "outputs": [
        {
          "internalType": "string",
          "name": "",
          "type": "string"
        }
      ],
      "stateMutability": "view",
      "type": "function"
    },
    {
      "inputs": [
        {
          "internalType": "uint256",
          "name": "",
          "type": "uint256"
        }
      ],
      "name": "moduleType",
      "outputs": [
        {
          "internalType": "bytes8",
          "name": "",
          "type": "bytes8"
        }
      ],
      "stateMutability": "view",
      "type": "function"
    },
    {
      "inputs": [
        {
          "internalType": "bytes8",
          "name": "",
          "type": "bytes8"
        }
      ],
      "name": "modules",
      "outputs": [
        {
          "internalType": "uint256",
          "name": "id",
          "type": "uint256"
        },
        {
          "internalType": "address",
          "name": "moduleAddress",
          "type": "address"
        },
        {
          "internalType": "bool",
          "name": "isActive",
          "type": "bool"
        },
        {
          "internalType": "bytes8",
          "name": "moduleType",
          "type": "bytes8"
        },
        {
          "internalType": "bytes8",
          "name": "moduleCode",
          "type": "bytes8"
        },
        {
          "internalType": "string",
          "name": "moduleInfo",
          "type": "string"
        }
      ],
      "stateMutability": "view",
      "type": "function"
    },
    {
      "inputs": [],
      "name": "modulesCount",
      "outputs": [
        {
          "internalType": "uint256",
          "name": "",
          "type": "uint256"
        }
      ],
      "stateMutability": "view",
      "type": "function"
    },
    {
      "inputs": [],
      "name": "name",
      "outputs": [
        {
          "internalType": "string",
          "name": "",
          "type": "string"
        }
      ],
      "stateMutability": "view",
      "type": "function"
    },
    {
      "inputs": [],
      "name": "owner",
      "outputs": [
        {
          "internalType": "address",
          "name": "",
          "type": "address"
        }
      ],
      "stateMutability": "view",
      "type": "function"
    },
    {
      "inputs": [],
      "name": "renounceOwnership",
      "outputs": [],
      "stateMutability": "nonpayable",
      "type": "function"
    },
    {
      "inputs": [
        {
          "internalType": "address",
          "name": "newOwner",
          "type": "address"
        }
      ],
      "name": "transferOwnership",
      "outputs": [],
      "stateMutability": "nonpayable",
      "type": "function"
    },
    {
      "inputs": [],
      "name": "visibility",
      "outputs": [
        {
          "internalType": "enum Data.visibilityEnum",
          "name": "",
          "type": "uint8"
        }
      ],
      "stateMutability": "view",
      "type": "function"
    },
    {
      "inputs": [
        {
          "internalType": "string",
          "name": "_name",
          "type": "string"
        }
      ],
      "name": "hash",
      "outputs": [
        {
          "internalType": "bytes8",
          "name": "",
          "type": "bytes8"
        }
      ],
      "stateMutability": "pure",
      "type": "function"
    },
    {
      "inputs": [
        {
          "internalType": "bytes8",
          "name": "_type",
          "type": "bytes8"
        },
        {
          "internalType": "address",
          "name": "_moduleAddr",
          "type": "address"
        }
      ],
      "name": "addModule",
      "outputs": [],
      "stateMutability": "nonpayable",
      "type": "function"
    },
    {
      "inputs": [
        {
          "internalType": "address",
          "name": "_contractAddress",
          "type": "address"
        }
      ],
      "name": "authorizeContract",
      "outputs": [],
      "stateMutability": "nonpayable",
      "type": "function"
    },
    {
      "inputs": [
        {
          "internalType": "address",
          "name": "_contractAddress",
          "type": "address"
        }
      ],
      "name": "denyContract",
      "outputs": [],
      "stateMutability": "nonpayable",
      "type": "function"
    },
    {
      "inputs": [
        {
          "internalType": "bytes8",
          "name": "_type",
          "type": "bytes8"
        }
      ],
      "name": "getModuleData",
      "outputs": [
        {
          "components": [
            {
              "internalType": "uint256",
              "name": "id",
              "type": "uint256"
            },
            {
              "internalType": "address",
              "name": "moduleAddress",
              "type": "address"
            },
            {
              "internalType": "bool",
              "name": "isActive",
              "type": "bool"
            },
            {
              "internalType": "bytes8",
              "name": "moduleType",
              "type": "bytes8"
            },
            {
              "internalType": "bytes8",
              "name": "moduleCode",
              "type": "bytes8"
            },
            {
              "internalType": "string",
              "name": "moduleInfo",
              "type": "string"
            }
          ],
          "internalType": "struct Data.Module",
          "name": "",
          "type": "tuple"
        }
      ],
      "stateMutability": "view",
      "type": "function"
    }
  ],
  "bytecode": "0x60806040523480156200001157600080fd5b5060405162001ec938038062001ec983398181016040528101906200003791906200046a565b620000696200005462000129640100000000026401000000009004565b62000131640100000000026401000000009004565b826001908051906020019062000081929190620001f5565b5081600290805190602001906200009a929190620001f5565b5080600360006101000a81548160ff02191690836001811115620000c357620000c262000504565b5b02179055506001600660003373ffffffffffffffffffffffffffffffffffffffff1673ffffffffffffffffffffffffffffffffffffffff16815260200190815260200160002060006101000a81548160ff02191690831515021790555050505062000598565b600033905090565b60008060009054906101000a900473ffffffffffffffffffffffffffffffffffffffff169050816000806101000a81548173ffffffffffffffffffffffffffffffffffffffff021916908373ffffffffffffffffffffffffffffffffffffffff1602179055508173ffffffffffffffffffffffffffffffffffffffff168173ffffffffffffffffffffffffffffffffffffffff167f8be0079c531659141344cd1fd0a4f28419497f9722a3daafe3b4186f6b6457e060405160405180910390a35050565b828054620002039062000562565b90600052602060002090601f01602090048101928262000227576000855562000273565b82601f106200024257805160ff191683800117855562000273565b8280016001018555821562000273579182015b828111156200027257825182559160200191906001019062000255565b5b50905062000282919062000286565b5090565b5b80821115620002a157600081600090555060010162000287565b5090565b6000604051905090565b600080fd5b600080fd5b600080fd5b600080fd5b6000601f19601f8301169050919050565b7f4e487b7100000000000000000000000000000000000000000000000000000000600052604160045260246000fd5b6200030e82620002c3565b810181811067ffffffffffffffff8211171562000330576200032f620002d4565b5b80604052505050565b600062000345620002a5565b905062000353828262000303565b919050565b600067ffffffffffffffff821115620003765762000375620002d4565b5b6200038182620002c3565b9050602081019050919050565b60005b83811015620003ae57808201518184015260208101905062000391565b83811115620003be576000848401525b50505050565b6000620003db620003d58462000358565b62000339565b905082815260208101848484011115620003fa57620003f9620002be565b5b620004078482856200038e565b509392505050565b600082601f830112620004275762000426620002b9565b5b815162000439848260208601620003c4565b91505092915050565b600281106200045057600080fd5b50565b600081519050620004648162000442565b92915050565b600080600060608486031215620004865762000485620002af565b5b600084015167ffffffffffffffff811115620004a757620004a6620002b4565b5b620004b5868287016200040f565b935050602084015167ffffffffffffffff811115620004d957620004d8620002b4565b5b620004e7868287016200040f565b9250506040620004fa8682870162000453565b9150509250925092565b7f4e487b7100000000000000000000000000000000000000000000000000000000600052602160045260246000fd5b7f4e487b7100000000000000000000000000000000000000000000000000000000600052602260045260246000fd5b600060028204905060018216806200057b57607f821691505b6020821081141562000592576200059162000533565b5b50919050565b61192180620005a86000396000f3fe608060405234801561001057600080fd5b5060043610610106576000357c0100000000000000000000000000000000000000000000000000000000900480638da5cb5b116100a9578063d8d8e93c11610083578063d8d8e93c14610246578063ee760f3814610276578063f2fde38b146102a6578063f315aafe146102c257610106565b80638da5cb5b146101dc578063b411ee94146101fa578063b7e2077e1461022a57610106565b806352450cf9116100e557806352450cf91461016357806367561d9314610198578063715018a6146101b45780637284e416146101be57610106565b80628682391461010b57806306fdde031461012757806329adec1414610145575b600080fd5b61012560048036038101906101209190611042565b6102e0565b005b61012f610517565b60405161013c919061111b565b60405180910390f35b61014d6105a5565b60405161015a91906111b4565b60405180910390f35b61017d600480360381019061017891906111cf565b6105b8565b60405161018f9695949392919061124e565b60405180910390f35b6101b260048036038101906101ad91906112b6565b6106f3565b005b6101bc61081e565b005b6101c66108a6565b6040516101d3919061111b565b60405180910390f35b6101e4610934565b6040516101f191906112e3565b60405180910390f35b610214600480360381019061020f9190611433565b61095d565b604051610221919061147c565b60405180910390f35b610244600480360381019061023f91906112b6565b61098d565b005b610260600480360381019061025b91906111cf565b610ab8565b60405161026d91906115a6565b60405180910390f35b610290600480360381019061028b91906115f4565b610cf2565b60405161029d919061147c565b60405180910390f35b6102c060048036038101906102bb91906112b6565b610d2a565b005b6102ca610e22565b6040516102d79190611621565b60405180910390f35b600660003373ffffffffffffffffffffffffffffffffffffffff1673ffffffffffffffffffffffffffffffffffffffff16815260200190815260200160002060009054906101000a900460ff1661036c576040517f08c379a000000000000000000000000000000000000000000000000000000000815260040161036390611688565b60405180910390fd5b6001600860008477ffffffffffffffffffffffffffffffffffffffffffffffff191677ffffffffffffffffffffffffffffffffffffffffffffffff1916815260200190815260200160002060010160146101000a81548160ff021916908315150217905550600454600860008477ffffffffffffffffffffffffffffffffffffffffffffffff191677ffffffffffffffffffffffffffffffffffffffffffffffff191681526020019081526020016000206000018190555080600860008477ffffffffffffffffffffffffffffffffffffffffffffffff191677ffffffffffffffffffffffffffffffffffffffffffffffff1916815260200190815260200160002060010160006101000a81548173ffffffffffffffffffffffffffffffffffffffff021916908373ffffffffffffffffffffffffffffffffffffffff1602179055508160076000600454815260200190815260200160002060006101000a81548167ffffffffffffffff021916908378010000000000000000000000000000000000000000000000009004021790555060046000815461050c906116d7565b919050819055505050565b600180546105249061174f565b80601f01602080910402602001604051908101604052809291908181526020018280546105509061174f565b801561059d5780601f106105725761010080835404028352916020019161059d565b820191906000526020600020905b81548152906001019060200180831161058057829003601f168201915b505050505081565b600360009054906101000a900460ff1681565b60086020528060005260406000206000915090508060000154908060010160009054906101000a900473ffffffffffffffffffffffffffffffffffffffff16908060010160149054906101000a900460ff16908060010160159054906101000a9004780100000000000000000000000000000000000000000000000002908060020160009054906101000a9004780100000000000000000000000000000000000000000000000002908060030180546106709061174f565b80601f016020809104026020016040519081016040528092919081815260200182805461069c9061174f565b80156106e95780601f106106be576101008083540402835291602001916106e9565b820191906000526020600020905b8154815290600101906020018083116106cc57829003601f168201915b5050505050905086565b60011515600560003373ffffffffffffffffffffffffffffffffffffffff1673ffffffffffffffffffffffffffffffffffffffff16815260200190815260200160002060009054906101000a900460ff16151514806107845750610755610934565b73ffffffffffffffffffffffffffffffffffffffff163373ffffffffffffffffffffffffffffffffffffffff16145b6107c3576040517f08c379a00000000000000000000000000000000000000000000000000000000081526004016107ba906117cd565b60405180910390fd5b6001600560008373ffffffffffffffffffffffffffffffffffffffff1673ffffffffffffffffffffffffffffffffffffffff16815260200190815260200160002060006101000a81548160ff02191690831515021790555050565b610826610e28565b73ffffffffffffffffffffffffffffffffffffffff16610844610934565b73ffffffffffffffffffffffffffffffffffffffff161461089a576040517f08c379a000000000000000000000000000000000000000000000000000000000815260040161089190611839565b60405180910390fd5b6108a46000610e30565b565b600280546108b39061174f565b80601f01602080910402602001604051908101604052809291908181526020018280546108df9061174f565b801561092c5780601f106109015761010080835404028352916020019161092c565b820191906000526020600020905b81548152906001019060200180831161090f57829003601f168201915b505050505081565b60008060009054906101000a900473ffffffffffffffffffffffffffffffffffffffff16905090565b600081604051602001610970919061111b565b604051602081830303815290604052805190602001209050919050565b60011515600560003373ffffffffffffffffffffffffffffffffffffffff1673ffffffffffffffffffffffffffffffffffffffff16815260200190815260200160002060009054906101000a900460ff1615151480610a1e57506109ef610934565b73ffffffffffffffffffffffffffffffffffffffff163373ffffffffffffffffffffffffffffffffffffffff16145b610a5d576040517f08c379a0000000000000000000000000000000000000000000000000000000008152600401610a54906117cd565b60405180910390fd5b6000600560008373ffffffffffffffffffffffffffffffffffffffff1673ffffffffffffffffffffffffffffffffffffffff16815260200190815260200160002060006101000a81548160ff02191690831515021790555050565b610ac0610ef4565b600860008377ffffffffffffffffffffffffffffffffffffffffffffffff191677ffffffffffffffffffffffffffffffffffffffffffffffff191681526020019081526020016000206040518060c0016040529081600082015481526020016001820160009054906101000a900473ffffffffffffffffffffffffffffffffffffffff1673ffffffffffffffffffffffffffffffffffffffff1673ffffffffffffffffffffffffffffffffffffffff1681526020016001820160149054906101000a900460ff161515151581526020016001820160159054906101000a900478010000000000000000000000000000000000000000000000000277ffffffffffffffffffffffffffffffffffffffffffffffff191677ffffffffffffffffffffffffffffffffffffffffffffffff191681526020016002820160009054906101000a900478010000000000000000000000000000000000000000000000000277ffffffffffffffffffffffffffffffffffffffffffffffff191677ffffffffffffffffffffffffffffffffffffffffffffffff19168152602001600382018054610c699061174f565b80601f0160208091040260200160405190810160405280929190818152602001828054610c959061174f565b8015610ce25780601f10610cb757610100808354040283529160200191610ce2565b820191906000526020600020905b815481529060010190602001808311610cc557829003601f168201915b5050505050815250509050919050565b60076020528060005260406000206000915054906101000a900478010000000000000000000000000000000000000000000000000281565b610d32610e28565b73ffffffffffffffffffffffffffffffffffffffff16610d50610934565b73ffffffffffffffffffffffffffffffffffffffff1614610da6576040517f08c379a0000000000000000000000000000000000000000000000000000000008152600401610d9d90611839565b60405180910390fd5b600073ffffffffffffffffffffffffffffffffffffffff168173ffffffffffffffffffffffffffffffffffffffff161415610e16576040517f08c379a0000000000000000000000000000000000000000000000000000000008152600401610e0d906118cb565b60405180910390fd5b610e1f81610e30565b50565b60045481565b600033905090565b60008060009054906101000a900473ffffffffffffffffffffffffffffffffffffffff169050816000806101000a81548173ffffffffffffffffffffffffffffffffffffffff021916908373ffffffffffffffffffffffffffffffffffffffff1602179055508173ffffffffffffffffffffffffffffffffffffffff168173ffffffffffffffffffffffffffffffffffffffff167f8be0079c531659141344cd1fd0a4f28419497f9722a3daafe3b4186f6b6457e060405160405180910390a35050565b6040518060c0016040528060008152602001600073ffffffffffffffffffffffffffffffffffffffff168152602001600015158152602001600077ffffffffffffffffffffffffffffffffffffffffffffffff19168152602001600077ffffffffffffffffffffffffffffffffffffffffffffffff19168152602001606081525090565b6000604051905090565b600080fd5b600080fd5b60007fffffffffffffffff00000000000000000000000000000000000000000000000082169050919050565b610fc181610f8c565b8114610fcc57600080fd5b50565b600081359050610fde81610fb8565b92915050565b600073ffffffffffffffffffffffffffffffffffffffff82169050919050565b600061100f82610fe4565b9050919050565b61101f81611004565b811461102a57600080fd5b50565b60008135905061103c81611016565b92915050565b6000806040838503121561105957611058610f82565b5b600061106785828601610fcf565b92505060206110788582860161102d565b9150509250929050565b600081519050919050565b600082825260208201905092915050565b60005b838110156110bc5780820151818401526020810190506110a1565b838111156110cb576000848401525b50505050565b6000601f19601f8301169050919050565b60006110ed82611082565b6110f7818561108d565b935061110781856020860161109e565b611110816110d1565b840191505092915050565b6000602082019050818103600083015261113581846110e2565b905092915050565b7f4e487b7100000000000000000000000000000000000000000000000000000000600052602160045260246000fd5b6002811061117d5761117c61113d565b5b50565b600081905061118e8261116c565b919050565b600061119e82611180565b9050919050565b6111ae81611193565b82525050565b60006020820190506111c960008301846111a5565b92915050565b6000602082840312156111e5576111e4610f82565b5b60006111f384828501610fcf565b91505092915050565b6000819050919050565b61120f816111fc565b82525050565b61121e81611004565b82525050565b60008115159050919050565b61123981611224565b82525050565b61124881610f8c565b82525050565b600060c0820190506112636000830189611206565b6112706020830188611215565b61127d6040830187611230565b61128a606083018661123f565b611297608083018561123f565b81810360a08301526112a981846110e2565b9050979650505050505050565b6000602082840312156112cc576112cb610f82565b5b60006112da8482850161102d565b91505092915050565b60006020820190506112f86000830184611215565b92915050565b600080fd5b600080fd5b7f4e487b7100000000000000000000000000000000000000000000000000000000600052604160045260246000fd5b611340826110d1565b810181811067ffffffffffffffff8211171561135f5761135e611308565b5b80604052505050565b6000611372610f78565b905061137e8282611337565b919050565b600067ffffffffffffffff82111561139e5761139d611308565b5b6113a7826110d1565b9050602081019050919050565b82818337600083830152505050565b60006113d66113d184611383565b611368565b9050828152602081018484840111156113f2576113f1611303565b5b6113fd8482856113b4565b509392505050565b600082601f83011261141a576114196112fe565b5b813561142a8482602086016113c3565b91505092915050565b60006020828403121561144957611448610f82565b5b600082013567ffffffffffffffff81111561146757611466610f87565b5b61147384828501611405565b91505092915050565b6000602082019050611491600083018461123f565b92915050565b6114a0816111fc565b82525050565b6114af81611004565b82525050565b6114be81611224565b82525050565b6114cd81610f8c565b82525050565b600082825260208201905092915050565b60006114ef82611082565b6114f981856114d3565b935061150981856020860161109e565b611512816110d1565b840191505092915050565b600060c0830160008301516115356000860182611497565b50602083015161154860208601826114a6565b50604083015161155b60408601826114b5565b50606083015161156e60608601826114c4565b50608083015161158160808601826114c4565b5060a083015184820360a086015261159982826114e4565b9150508091505092915050565b600060208201905081810360008301526115c0818461151d565b905092915050565b6115d1816111fc565b81146115dc57600080fd5b50565b6000813590506115ee816115c8565b92915050565b60006020828403121561160a57611609610f82565b5b6000611618848285016115df565b91505092915050565b60006020820190506116366000830184611206565b92915050565b7f496e76616c696420557365720000000000000000000000000000000000000000600082015250565b6000611672600c8361108d565b915061167d8261163c565b602082019050919050565b600060208201905081810360008301526116a181611665565b9050919050565b7f4e487b7100000000000000000000000000000000000000000000000000000000600052601160045260246000fd5b60006116e2826111fc565b91507fffffffffffffffffffffffffffffffffffffffffffffffffffffffffffffffff821415611715576117146116a8565b5b600182019050919050565b7f4e487b7100000000000000000000000000000000000000000000000000000000600052602260045260246000fd5b6000600282049050600182168061176757607f821691505b6020821081141561177b5761177a611720565b5b50919050565b7f4e6f7420617574686f72697a6564000000000000000000000000000000000000600082015250565b60006117b7600e8361108d565b91506117c282611781565b602082019050919050565b600060208201905081810360008301526117e6816117aa565b9050919050565b7f4f776e61626c653a2063616c6c6572206973206e6f7420746865206f776e6572600082015250565b600061182360208361108d565b915061182e826117ed565b602082019050919050565b6000602082019050818103600083015261185281611816565b9050919050565b7f4f776e61626c653a206e6577206f776e657220697320746865207a65726f206160008201527f6464726573730000000000000000000000000000000000000000000000000000602082015250565b60006118b560268361108d565b91506118c082611859565b604082019050919050565b600060208201905081810360008301526118e4816118a8565b905091905056fea26469706673582212200c14a432b2a3f698cb3ec40c731bf788da1a3ab359509d1633be0be9ee60f9bd64736f6c63430008090033",
  "immutableReferences": {},
  "source": "// SPDX-License-Identifier: MIT\r\npragma solidity ^0.8.9;\r\n\r\nimport \"@openzeppelin/contracts/access/Ownable.sol\";\r\nimport \"./Data.sol\";\r\n\r\ncontract DaoBase is Ownable {\r\n  string public name;\r\n  string public description;\r\n  Data.visibilityEnum public visibility;\r\n  uint256 public modulesCount;\r\n\r\n  mapping(address => bool) private authorizedContracts;\r\n  mapping(address => bool) owners;\r\n  mapping(uint256 => bytes8) public moduleType;\r\n  mapping(bytes8 => Data.Module) public modules;\r\n  // type => module {code, type, descr}\r\n  // member => module { \"nft member\", \"\", \"\"}\r\n\r\n  //membership => module\r\n  //nft member => module\r\n\r\n  //type => module\r\n\r\n  modifier onlyOwners() {\r\n    require(owners[msg.sender], \"Invalid User\");\r\n    _;\r\n  }\r\n  // modifier onlyActiveMembersOrAuthorizeContracts() {\r\n  //       require(members[msg.sender].status == Data.memberStatus.active || authorizedContracts[msg.sender] == true, \"Not authorized\");\r\n  //       _;\r\n  //   }\r\n\r\n  //   modifier onlyNotActiveMembers() {\r\n  //       require(members[msg.sender].status != Data.memberStatus.active, \"Not authorized\");\r\n  //       _;\r\n  //   }\r\n\r\n  modifier onlyAuthorizeContracts() {\r\n    require(authorizedContracts[msg.sender] == true, \"Not authorized\");\r\n    _;\r\n  }\r\n\r\n  modifier onlyAuthorizeContractsOrOwner() {\r\n    require(((authorizedContracts[msg.sender] == true) || msg.sender == owner()), \"Not authorized\");\r\n    _;\r\n  }\r\n\r\n  event DaoCreated(address daoAddress, address creatorAddress);\r\n  event ModuleAdded(string moduleCode, address moduleAddress, address adderAddress);\r\n\r\n  constructor(string memory _name, string memory _description, Data.visibilityEnum _visibility) {\r\n    name = _name;\r\n    description = _description;\r\n    visibility = _visibility;\r\n    owners[msg.sender] = true;\r\n  }\r\n\r\n  // function activateModule(ModuleType _moduleType, bytes8 memory code) external onlyOwners() {\r\n  //     modules[code].isActive = true;\r\n  //     modules[code].moduleAddress = _moduleAddress;\r\n  //     emit ModuleAdded(code, _moduleAddress, msg.sender);\r\n  // }\r\n  function hash(string memory _name) public pure returns(bytes8) {\r\n    return (bytes8(keccak256(abi.encode(_name))));\r\n  }\r\n  \r\n//   function activateModule(address _moduleAddress, string memory code) external {\r\n//       modules[code].isActive = true;\r\n//       modules[code].moduleAddress = _moduleAddress;\r\n//       emit ModuleAdded(code, _moduleAddress, msg.sender);\r\n//   }\r\n\r\n\r\n  function addModule(bytes8 _type, address _moduleAddr) public onlyOwners() {\r\n    modules[_type].isActive = true;\r\n    modules[_type].id = modulesCount;\r\n    modules[_type].moduleAddress = _moduleAddr;\r\n    moduleType[modulesCount] = _type;\r\n    ++modulesCount;\r\n  }\r\n\r\n  function authorizeContract(address _contractAddress) external onlyAuthorizeContractsOrOwner() {\r\n    authorizedContracts[_contractAddress] = true;\r\n  }\r\n\r\n  function denyContract(address _contractAddress) external onlyAuthorizeContractsOrOwner() {\r\n    authorizedContracts[_contractAddress] = false;\r\n  }\r\n\r\n  // get info\r\n  // function getAllModuleHash() public view returns(bytes8[] memory allModuleHash) {\r\n  //   allModuleHash = new bytes8[](modulesCount);\r\n  //   for (uint256 i = 0; i < modulesCount; ++i) {\r\n  //     allModuleHash[i] = moduleType[i];\r\n  //   }\r\n  // }\r\n  // function getAllModulesData() public view returns(Data.Module[] memory allModuleData) {\r\n  //   allModuleData = new Data.Module[](modulesCount);\r\n  //   for (uint256 i = 0; i < modulesCount; ++i) {\r\n  //     allModuleData[i] = modules[moduleType[i]];\r\n  //   }\r\n  // }\r\n  // function getModuleData(uint256 _moduleId) public view returns(Data.Module memory) {\r\n  //   return(modules[moduleType[_moduleId]]);\r\n  // }\r\n\r\n  function getModuleData(bytes8 _type) public view returns(Data.Module memory) {\r\n    return(modules[_type]);\r\n  }\r\n\r\n  // function memberInfo(address _member) external view returns(Data.member memory) {\r\n  //   return(IDao(modules[0]).getMemberInfo(_member));\r\n  // }\r\n  // function addrId(uint256 _id) external view returns(address) {\r\n  //   return(IDao(modules[0]).getAddrById(_id));\r\n  // }\r\n  // function totalId() external view returns(uint256) {\r\n  //   return(IDao(modules[0]).getTotalId());\r\n  // }\r\n  // function daoInfo() external view returns(Data.daoData memory) {\r\n  //   return(IDao(modules[0]).getInfoDao());\r\n  // }\r\n  // add new modules\r\n  // function addModule(address _newModule) external {\r\n  //   modules.push(_newModule);\r\n  // }\r\n}",
  "sourcePath": "C:\\Users\\mdmou\\source\\repos\\MY-DAO\\contracts\\DaoBase.sol",
  "compiler": {
    "name": "solc",
    "version": "0.8.9+commit.e5eed63a.Emscripten.clang"
  },
  "schemaVersion": "3.4.4",
  "updatedAt": "2022-05-15T16:10:08.710Z",
  "devdoc": {
    "kind": "dev",
    "methods": {
      "owner()": {
        "details": "Returns the address of the current owner."
      },
      "renounceOwnership()": {
        "details": "Leaves the contract without owner. It will not be possible to call `onlyOwner` functions anymore. Can only be called by the current owner. NOTE: Renouncing ownership will leave the contract without an owner, thereby removing any functionality that is only available to the owner."
      },
      "transferOwnership(address)": {
        "details": "Transfers ownership of the contract to a new account (`newOwner`). Can only be called by the current owner."
      }
    },
    "version": 1
  },
  "userdoc": {
    "kind": "user",
    "methods": {},
    "version": 1
  }
}