{
  "contractName": "DaoBase",
  "abi": [
    {
      "inputs": [
        {
          "internalType": "string",
          "name": "_name",
          "type": "string"
        },
        {
          "internalType": "string",
          "name": "_description",
          "type": "string"
        },
        {
          "internalType": "enum Data.visibilityEnum",
          "name": "_visibility",
          "type": "uint8"
        },
        {
          "internalType": "string",
          "name": "_rules",
          "type": "string"
        }
      ],
      "stateMutability": "nonpayable",
      "type": "constructor"
    },
    {
      "anonymous": false,
      "inputs": [
        {
          "indexed": false,
          "internalType": "address",
          "name": "daoAddress",
          "type": "address"
        },
        {
          "indexed": false,
          "internalType": "address",
          "name": "creatorAddress",
          "type": "address"
        }
      ],
      "name": "DaoCreated",
      "type": "event"
    },
    {
      "anonymous": false,
      "inputs": [
        {
          "indexed": false,
          "internalType": "string",
          "name": "moduleCode",
          "type": "string"
        },
        {
          "indexed": false,
          "internalType": "address",
          "name": "moduleAddress",
          "type": "address"
        },
        {
          "indexed": false,
          "internalType": "address",
          "name": "adderAddress",
          "type": "address"
        }
      ],
      "name": "ModuleAdded",
      "type": "event"
    },
    {
      "anonymous": false,
      "inputs": [
        {
          "indexed": true,
          "internalType": "address",
          "name": "previousOwner",
          "type": "address"
        },
        {
          "indexed": true,
          "internalType": "address",
          "name": "newOwner",
          "type": "address"
        }
      ],
      "name": "OwnershipTransferred",
      "type": "event"
    },
    {
      "inputs": [],
      "name": "description",
      "outputs": [
        {
          "internalType": "string",
          "name": "",
          "type": "string"
        }
      ],
      "stateMutability": "view",
      "type": "function"
    },
    {
      "inputs": [
        {
          "internalType": "uint256",
          "name": "",
          "type": "uint256"
        }
      ],
      "name": "moduleType",
      "outputs": [
        {
          "internalType": "bytes8",
          "name": "",
          "type": "bytes8"
        }
      ],
      "stateMutability": "view",
      "type": "function"
    },
    {
      "inputs": [
        {
          "internalType": "bytes8",
          "name": "",
          "type": "bytes8"
        }
      ],
      "name": "modules",
      "outputs": [
        {
          "internalType": "uint256",
          "name": "id",
          "type": "uint256"
        },
        {
          "internalType": "address",
          "name": "moduleAddress",
          "type": "address"
        },
        {
          "internalType": "bool",
          "name": "isActive",
          "type": "bool"
        },
        {
          "internalType": "bytes8",
          "name": "moduleType",
          "type": "bytes8"
        },
        {
          "internalType": "bytes8",
          "name": "moduleCode",
          "type": "bytes8"
        },
        {
          "internalType": "string",
          "name": "moduleInfo",
          "type": "string"
        }
      ],
      "stateMutability": "view",
      "type": "function"
    },
    {
      "inputs": [],
      "name": "modulesCount",
      "outputs": [
        {
          "internalType": "uint256",
          "name": "",
          "type": "uint256"
        }
      ],
      "stateMutability": "view",
      "type": "function"
    },
    {
      "inputs": [],
      "name": "name",
      "outputs": [
        {
          "internalType": "string",
          "name": "",
          "type": "string"
        }
      ],
      "stateMutability": "view",
      "type": "function"
    },
    {
      "inputs": [],
      "name": "owner",
      "outputs": [
        {
          "internalType": "address",
          "name": "",
          "type": "address"
        }
      ],
      "stateMutability": "view",
      "type": "function"
    },
    {
      "inputs": [],
      "name": "renounceOwnership",
      "outputs": [],
      "stateMutability": "nonpayable",
      "type": "function"
    },
    {
      "inputs": [],
      "name": "rules",
      "outputs": [
        {
          "internalType": "string",
          "name": "",
          "type": "string"
        }
      ],
      "stateMutability": "view",
      "type": "function"
    },
    {
      "inputs": [
        {
          "internalType": "address",
          "name": "newOwner",
          "type": "address"
        }
      ],
      "name": "transferOwnership",
      "outputs": [],
      "stateMutability": "nonpayable",
      "type": "function"
    },
    {
      "inputs": [],
      "name": "visibility",
      "outputs": [
        {
          "internalType": "enum Data.visibilityEnum",
          "name": "",
          "type": "uint8"
        }
      ],
      "stateMutability": "view",
      "type": "function"
    },
    {
      "inputs": [
        {
          "internalType": "string",
          "name": "_name",
          "type": "string"
        }
      ],
      "name": "hash",
      "outputs": [
        {
          "internalType": "bytes8",
          "name": "",
          "type": "bytes8"
        }
      ],
      "stateMutability": "pure",
      "type": "function"
    },
    {
      "inputs": [
        {
          "internalType": "bytes8",
          "name": "_type",
          "type": "bytes8"
        },
        {
          "internalType": "bytes8",
          "name": "_code",
          "type": "bytes8"
        },
        {
          "internalType": "address",
          "name": "_moduleAddr",
          "type": "address"
        }
      ],
      "name": "addModule",
      "outputs": [],
      "stateMutability": "nonpayable",
      "type": "function"
    },
    {
      "inputs": [
        {
          "internalType": "address",
          "name": "_contractAddress",
          "type": "address"
        }
      ],
      "name": "authorizeContract",
      "outputs": [],
      "stateMutability": "nonpayable",
      "type": "function"
    },
    {
      "inputs": [
        {
          "internalType": "address",
          "name": "_contractAddress",
          "type": "address"
        }
      ],
      "name": "denyContract",
      "outputs": [],
      "stateMutability": "nonpayable",
      "type": "function"
    },
    {
      "inputs": [
        {
          "internalType": "bytes8",
          "name": "_type",
          "type": "bytes8"
        }
      ],
      "name": "getModuleData",
      "outputs": [
        {
          "components": [
            {
              "internalType": "uint256",
              "name": "id",
              "type": "uint256"
            },
            {
              "internalType": "address",
              "name": "moduleAddress",
              "type": "address"
            },
            {
              "internalType": "bool",
              "name": "isActive",
              "type": "bool"
            },
            {
              "internalType": "bytes8",
              "name": "moduleType",
              "type": "bytes8"
            },
            {
              "internalType": "bytes8",
              "name": "moduleCode",
              "type": "bytes8"
            },
            {
              "internalType": "string",
              "name": "moduleInfo",
              "type": "string"
            }
          ],
          "internalType": "struct Data.Module",
          "name": "",
          "type": "tuple"
        }
      ],
      "stateMutability": "view",
      "type": "function"
    },
    {
      "inputs": [],
      "name": "getDaoSettings",
      "outputs": [
        {
          "components": [
            {
              "internalType": "address",
              "name": "addressDao",
              "type": "address"
            },
            {
              "internalType": "enum Data.visibilityEnum",
              "name": "visibility",
              "type": "uint8"
            },
            {
              "internalType": "string",
              "name": "name",
              "type": "string"
            },
            {
              "internalType": "string",
              "name": "description",
              "type": "string"
            },
            {
              "internalType": "string",
              "name": "rules",
              "type": "string"
            }
          ],
          "internalType": "struct Data.DaoSettings",
          "name": "",
          "type": "tuple"
        }
      ],
      "stateMutability": "view",
      "type": "function"
    }
  ],
  "bytecode": "0x60806040523480156200001157600080fd5b506040516200241438038062002414833981810160405281019062000037919062000521565b620000696200005462000148640100000000026401000000009004565b62000150640100000000026401000000009004565b83600190805190602001906200008192919062000214565b5082600290805190602001906200009a92919062000214565b506003808054620000ab906200061f565b620000b8929190620002a5565b5081600460006101000a81548160ff02191690836001811115620000e157620000e062000655565b5b02179055506001600760003373ffffffffffffffffffffffffffffffffffffffff1673ffffffffffffffffffffffffffffffffffffffff16815260200190815260200160002060006101000a81548160ff0219169083151502179055505050505062000684565b600033905090565b60008060009054906101000a900473ffffffffffffffffffffffffffffffffffffffff169050816000806101000a81548173ffffffffffffffffffffffffffffffffffffffff021916908373ffffffffffffffffffffffffffffffffffffffff1602179055508173ffffffffffffffffffffffffffffffffffffffff168173ffffffffffffffffffffffffffffffffffffffff167f8be0079c531659141344cd1fd0a4f28419497f9722a3daafe3b4186f6b6457e060405160405180910390a35050565b82805462000222906200061f565b90600052602060002090601f01602090048101928262000246576000855562000292565b82601f106200026157805160ff191683800117855562000292565b8280016001018555821562000292579182015b828111156200029157825182559160200191906001019062000274565b5b509050620002a191906200033d565b5090565b828054620002b3906200061f565b90600052602060002090601f016020900481019282620002d757600085556200032a565b82601f10620002ea57805485556200032a565b828001600101855582156200032a57600052602060002091601f016020900482015b82811115620003295782548255916001019190600101906200030c565b5b5090506200033991906200033d565b5090565b5b80821115620003585760008160009055506001016200033e565b5090565b6000604051905090565b600080fd5b600080fd5b600080fd5b600080fd5b6000601f19601f8301169050919050565b7f4e487b7100000000000000000000000000000000000000000000000000000000600052604160045260246000fd5b620003c5826200037a565b810181811067ffffffffffffffff82111715620003e757620003e66200038b565b5b80604052505050565b6000620003fc6200035c565b90506200040a8282620003ba565b919050565b600067ffffffffffffffff8211156200042d576200042c6200038b565b5b62000438826200037a565b9050602081019050919050565b60005b838110156200046557808201518184015260208101905062000448565b8381111562000475576000848401525b50505050565b6000620004926200048c846200040f565b620003f0565b905082815260208101848484011115620004b157620004b062000375565b5b620004be84828562000445565b509392505050565b600082601f830112620004de57620004dd62000370565b5b8151620004f08482602086016200047b565b91505092915050565b600281106200050757600080fd5b50565b6000815190506200051b81620004f9565b92915050565b600080600080608085870312156200053e576200053d62000366565b5b600085015167ffffffffffffffff8111156200055f576200055e6200036b565b5b6200056d87828801620004c6565b945050602085015167ffffffffffffffff8111156200059157620005906200036b565b5b6200059f87828801620004c6565b9350506040620005b2878288016200050a565b925050606085015167ffffffffffffffff811115620005d657620005d56200036b565b5b620005e487828801620004c6565b91505092959194509250565b7f4e487b7100000000000000000000000000000000000000000000000000000000600052602260045260246000fd5b600060028204905060018216806200063857607f821691505b602082108114156200064f576200064e620005f0565b5b50919050565b7f4e487b7100000000000000000000000000000000000000000000000000000000600052602160045260246000fd5b611d8080620006946000396000f3fe608060405234801561001057600080fd5b506004361061011d576000357c0100000000000000000000000000000000000000000000000000000000900480637284e416116100b4578063d8d8e93c11610083578063d8d8e93c14610299578063ee760f38146102c9578063f2fde38b146102f9578063f315aafe146103155761011d565b80637284e416146102115780638da5cb5b1461022f578063b411ee941461024d578063b7e2077e1461027d5761011d565b806352450cf9116100f057806352450cf91461019857806352f6747a146101cd57806367561d93146101eb578063715018a6146102075761011d565b806304a87c551461012257806306fdde031461013e57806329adec141461015c57806336e70eaa1461017a575b600080fd5b61013c60048036038101906101379190611445565b610333565b005b6101466106b9565b6040516101539190611531565b60405180910390f35b610164610747565b60405161017191906115ca565b60405180910390f35b61018261075a565b60405161018f91906116d1565b60405180910390f35b6101b260048036038101906101ad91906116f3565b6108d6565b6040516101c496959493929190611772565b60405180910390f35b6101d5610a11565b6040516101e29190611531565b60405180910390f35b610205600480360381019061020091906117da565b610a9f565b005b61020f610bca565b005b610219610c52565b6040516102269190611531565b60405180910390f35b610237610ce0565b6040516102449190611807565b60405180910390f35b61026760048036038101906102629190611957565b610d09565b60405161027491906119a0565b60405180910390f35b610297600480360381019061029291906117da565b610d39565b005b6102b360048036038101906102ae91906116f3565b610e64565b6040516102c09190611a71565b60405180910390f35b6102e360048036038101906102de9190611abf565b61109e565b6040516102f091906119a0565b60405180910390f35b610313600480360381019061030e91906117da565b6110d6565b005b61031d6111ce565b60405161032a9190611aec565b60405180910390f35b60011515600660003373ffffffffffffffffffffffffffffffffffffffff1673ffffffffffffffffffffffffffffffffffffffff16815260200190815260200160002060009054906101000a900460ff16151514806103c45750610395610ce0565b73ffffffffffffffffffffffffffffffffffffffff163373ffffffffffffffffffffffffffffffffffffffff16145b610403576040517f08c379a00000000000000000000000000000000000000000000000000000000081526004016103fa90611b53565b60405180910390fd5b6001600960008577ffffffffffffffffffffffffffffffffffffffffffffffff191677ffffffffffffffffffffffffffffffffffffffffffffffff1916815260200190815260200160002060010160146101000a81548160ff021916908315150217905550600554600960008577ffffffffffffffffffffffffffffffffffffffffffffffff191677ffffffffffffffffffffffffffffffffffffffffffffffff191681526020019081526020016000206000018190555080600960008577ffffffffffffffffffffffffffffffffffffffffffffffff191677ffffffffffffffffffffffffffffffffffffffffffffffff1916815260200190815260200160002060010160006101000a81548173ffffffffffffffffffffffffffffffffffffffff021916908373ffffffffffffffffffffffffffffffffffffffff16021790555081600960008577ffffffffffffffffffffffffffffffffffffffffffffffff191677ffffffffffffffffffffffffffffffffffffffffffffffff1916815260200190815260200160002060020160006101000a81548167ffffffffffffffff021916908378010000000000000000000000000000000000000000000000009004021790555082600960008577ffffffffffffffffffffffffffffffffffffffffffffffff191677ffffffffffffffffffffffffffffffffffffffffffffffff1916815260200190815260200160002060010160156101000a81548167ffffffffffffffff02191690837801000000000000000000000000000000000000000000000000900402179055508260086000600554815260200190815260200160002060006101000a81548167ffffffffffffffff02191690837801000000000000000000000000000000000000000000000000900402179055506005600081546106ad90611ba2565b91905081905550505050565b600180546106c690611c1a565b80601f01602080910402602001604051908101604052809291908181526020018280546106f290611c1a565b801561073f5780601f106107145761010080835404028352916020019161073f565b820191906000526020600020905b81548152906001019060200180831161072257829003601f168201915b505050505081565b600460009054906101000a900460ff1681565b6107626112a0565b61076a6112a0565b6001805461077790611c1a565b80601f01602080910402602001604051908101604052809291908181526020018280546107a390611c1a565b80156107f05780601f106107c5576101008083540402835291602001916107f0565b820191906000526020600020905b8154815290600101906020018083116107d357829003601f168201915b505050505081604001819052506002805461080a90611c1a565b80601f016020809104026020016040519081016040528092919081815260200182805461083690611c1a565b80156108835780601f1061085857610100808354040283529160200191610883565b820191906000526020600020905b81548152906001019060200180831161086657829003601f168201915b50505050508160600181905250600460009054906101000a900460ff16816020019060018111156108b7576108b6611553565b5b908160018111156108cb576108ca611553565b5b815250508091505090565b60096020528060005260406000206000915090508060000154908060010160009054906101000a900473ffffffffffffffffffffffffffffffffffffffff16908060010160149054906101000a900460ff16908060010160159054906101000a9004780100000000000000000000000000000000000000000000000002908060020160009054906101000a90047801000000000000000000000000000000000000000000000000029080600301805461098e90611c1a565b80601f01602080910402602001604051908101604052809291908181526020018280546109ba90611c1a565b8015610a075780601f106109dc57610100808354040283529160200191610a07565b820191906000526020600020905b8154815290600101906020018083116109ea57829003601f168201915b5050505050905086565b60038054610a1e90611c1a565b80601f0160208091040260200160405190810160405280929190818152602001828054610a4a90611c1a565b8015610a975780601f10610a6c57610100808354040283529160200191610a97565b820191906000526020600020905b815481529060010190602001808311610a7a57829003601f168201915b505050505081565b60011515600660003373ffffffffffffffffffffffffffffffffffffffff1673ffffffffffffffffffffffffffffffffffffffff16815260200190815260200160002060009054906101000a900460ff1615151480610b305750610b01610ce0565b73ffffffffffffffffffffffffffffffffffffffff163373ffffffffffffffffffffffffffffffffffffffff16145b610b6f576040517f08c379a0000000000000000000000000000000000000000000000000000000008152600401610b6690611b53565b60405180910390fd5b6001600660008373ffffffffffffffffffffffffffffffffffffffff1673ffffffffffffffffffffffffffffffffffffffff16815260200190815260200160002060006101000a81548160ff02191690831515021790555050565b610bd26111d4565b73ffffffffffffffffffffffffffffffffffffffff16610bf0610ce0565b73ffffffffffffffffffffffffffffffffffffffff1614610c46576040517f08c379a0000000000000000000000000000000000000000000000000000000008152600401610c3d90611c98565b60405180910390fd5b610c5060006111dc565b565b60028054610c5f90611c1a565b80601f0160208091040260200160405190810160405280929190818152602001828054610c8b90611c1a565b8015610cd85780601f10610cad57610100808354040283529160200191610cd8565b820191906000526020600020905b815481529060010190602001808311610cbb57829003601f168201915b505050505081565b60008060009054906101000a900473ffffffffffffffffffffffffffffffffffffffff16905090565b600081604051602001610d1c9190611531565b604051602081830303815290604052805190602001209050919050565b60011515600660003373ffffffffffffffffffffffffffffffffffffffff1673ffffffffffffffffffffffffffffffffffffffff16815260200190815260200160002060009054906101000a900460ff1615151480610dca5750610d9b610ce0565b73ffffffffffffffffffffffffffffffffffffffff163373ffffffffffffffffffffffffffffffffffffffff16145b610e09576040517f08c379a0000000000000000000000000000000000000000000000000000000008152600401610e0090611b53565b60405180910390fd5b6000600660008373ffffffffffffffffffffffffffffffffffffffff1673ffffffffffffffffffffffffffffffffffffffff16815260200190815260200160002060006101000a81548160ff02191690831515021790555050565b610e6c6112f7565b600960008377ffffffffffffffffffffffffffffffffffffffffffffffff191677ffffffffffffffffffffffffffffffffffffffffffffffff191681526020019081526020016000206040518060c0016040529081600082015481526020016001820160009054906101000a900473ffffffffffffffffffffffffffffffffffffffff1673ffffffffffffffffffffffffffffffffffffffff1673ffffffffffffffffffffffffffffffffffffffff1681526020016001820160149054906101000a900460ff161515151581526020016001820160159054906101000a900478010000000000000000000000000000000000000000000000000277ffffffffffffffffffffffffffffffffffffffffffffffff191677ffffffffffffffffffffffffffffffffffffffffffffffff191681526020016002820160009054906101000a900478010000000000000000000000000000000000000000000000000277ffffffffffffffffffffffffffffffffffffffffffffffff191677ffffffffffffffffffffffffffffffffffffffffffffffff1916815260200160038201805461101590611c1a565b80601f016020809104026020016040519081016040528092919081815260200182805461104190611c1a565b801561108e5780601f106110635761010080835404028352916020019161108e565b820191906000526020600020905b81548152906001019060200180831161107157829003601f168201915b5050505050815250509050919050565b60086020528060005260406000206000915054906101000a900478010000000000000000000000000000000000000000000000000281565b6110de6111d4565b73ffffffffffffffffffffffffffffffffffffffff166110fc610ce0565b73ffffffffffffffffffffffffffffffffffffffff1614611152576040517f08c379a000000000000000000000000000000000000000000000000000000000815260040161114990611c98565b60405180910390fd5b600073ffffffffffffffffffffffffffffffffffffffff168173ffffffffffffffffffffffffffffffffffffffff1614156111c2576040517f08c379a00000000000000000000000000000000000000000000000000000000081526004016111b990611d2a565b60405180910390fd5b6111cb816111dc565b50565b60055481565b600033905090565b60008060009054906101000a900473ffffffffffffffffffffffffffffffffffffffff169050816000806101000a81548173ffffffffffffffffffffffffffffffffffffffff021916908373ffffffffffffffffffffffffffffffffffffffff1602179055508173ffffffffffffffffffffffffffffffffffffffff168173ffffffffffffffffffffffffffffffffffffffff167f8be0079c531659141344cd1fd0a4f28419497f9722a3daafe3b4186f6b6457e060405160405180910390a35050565b6040518060a00160405280600073ffffffffffffffffffffffffffffffffffffffff168152602001600060018111156112dc576112db611553565b5b81526020016060815260200160608152602001606081525090565b6040518060c0016040528060008152602001600073ffffffffffffffffffffffffffffffffffffffff168152602001600015158152602001600077ffffffffffffffffffffffffffffffffffffffffffffffff19168152602001600077ffffffffffffffffffffffffffffffffffffffffffffffff19168152602001606081525090565b6000604051905090565b600080fd5b600080fd5b60007fffffffffffffffff00000000000000000000000000000000000000000000000082169050919050565b6113c48161138f565b81146113cf57600080fd5b50565b6000813590506113e1816113bb565b92915050565b600073ffffffffffffffffffffffffffffffffffffffff82169050919050565b6000611412826113e7565b9050919050565b61142281611407565b811461142d57600080fd5b50565b60008135905061143f81611419565b92915050565b60008060006060848603121561145e5761145d611385565b5b600061146c868287016113d2565b935050602061147d868287016113d2565b925050604061148e86828701611430565b9150509250925092565b600081519050919050565b600082825260208201905092915050565b60005b838110156114d25780820151818401526020810190506114b7565b838111156114e1576000848401525b50505050565b6000601f19601f8301169050919050565b600061150382611498565b61150d81856114a3565b935061151d8185602086016114b4565b611526816114e7565b840191505092915050565b6000602082019050818103600083015261154b81846114f8565b905092915050565b7f4e487b7100000000000000000000000000000000000000000000000000000000600052602160045260246000fd5b6002811061159357611592611553565b5b50565b60008190506115a482611582565b919050565b60006115b482611596565b9050919050565b6115c4816115a9565b82525050565b60006020820190506115df60008301846115bb565b92915050565b6115ee81611407565b82525050565b6115fd816115a9565b82525050565b600082825260208201905092915050565b600061161f82611498565b6116298185611603565b93506116398185602086016114b4565b611642816114e7565b840191505092915050565b600060a08301600083015161166560008601826115e5565b50602083015161167860208601826115f4565b50604083015184820360408601526116908282611614565b915050606083015184820360608601526116aa8282611614565b915050608083015184820360808601526116c48282611614565b9150508091505092915050565b600060208201905081810360008301526116eb818461164d565b905092915050565b60006020828403121561170957611708611385565b5b6000611717848285016113d2565b91505092915050565b6000819050919050565b61173381611720565b82525050565b61174281611407565b82525050565b60008115159050919050565b61175d81611748565b82525050565b61176c8161138f565b82525050565b600060c082019050611787600083018961172a565b6117946020830188611739565b6117a16040830187611754565b6117ae6060830186611763565b6117bb6080830185611763565b81810360a08301526117cd81846114f8565b9050979650505050505050565b6000602082840312156117f0576117ef611385565b5b60006117fe84828501611430565b91505092915050565b600060208201905061181c6000830184611739565b92915050565b600080fd5b600080fd5b7f4e487b7100000000000000000000000000000000000000000000000000000000600052604160045260246000fd5b611864826114e7565b810181811067ffffffffffffffff821117156118835761188261182c565b5b80604052505050565b600061189661137b565b90506118a2828261185b565b919050565b600067ffffffffffffffff8211156118c2576118c161182c565b5b6118cb826114e7565b9050602081019050919050565b82818337600083830152505050565b60006118fa6118f5846118a7565b61188c565b90508281526020810184848401111561191657611915611827565b5b6119218482856118d8565b509392505050565b600082601f83011261193e5761193d611822565b5b813561194e8482602086016118e7565b91505092915050565b60006020828403121561196d5761196c611385565b5b600082013567ffffffffffffffff81111561198b5761198a61138a565b5b61199784828501611929565b91505092915050565b60006020820190506119b56000830184611763565b92915050565b6119c481611720565b82525050565b6119d381611748565b82525050565b6119e28161138f565b82525050565b600060c083016000830151611a0060008601826119bb565b506020830151611a1360208601826115e5565b506040830151611a2660408601826119ca565b506060830151611a3960608601826119d9565b506080830151611a4c60808601826119d9565b5060a083015184820360a0860152611a648282611614565b9150508091505092915050565b60006020820190508181036000830152611a8b81846119e8565b905092915050565b611a9c81611720565b8114611aa757600080fd5b50565b600081359050611ab981611a93565b92915050565b600060208284031215611ad557611ad4611385565b5b6000611ae384828501611aaa565b91505092915050565b6000602082019050611b01600083018461172a565b92915050565b7f4e6f7420617574686f72697a6564000000000000000000000000000000000000600082015250565b6000611b3d600e836114a3565b9150611b4882611b07565b602082019050919050565b60006020820190508181036000830152611b6c81611b30565b9050919050565b7f4e487b7100000000000000000000000000000000000000000000000000000000600052601160045260246000fd5b6000611bad82611720565b91507fffffffffffffffffffffffffffffffffffffffffffffffffffffffffffffffff821415611be057611bdf611b73565b5b600182019050919050565b7f4e487b7100000000000000000000000000000000000000000000000000000000600052602260045260246000fd5b60006002820490506001821680611c3257607f821691505b60208210811415611c4657611c45611beb565b5b50919050565b7f4f776e61626c653a2063616c6c6572206973206e6f7420746865206f776e6572600082015250565b6000611c826020836114a3565b9150611c8d82611c4c565b602082019050919050565b60006020820190508181036000830152611cb181611c75565b9050919050565b7f4f776e61626c653a206e6577206f776e657220697320746865207a65726f206160008201527f6464726573730000000000000000000000000000000000000000000000000000602082015250565b6000611d146026836114a3565b9150611d1f82611cb8565b604082019050919050565b60006020820190508181036000830152611d4381611d07565b905091905056fea2646970667358221220eae1cf2a943ea57f18a27f4c0f92e2e25f4dacc95bbba866ae3766e1c8089e1d64736f6c63430008090033",
  "immutableReferences": {},
  "source": "// SPDX-License-Identifier: MIT\r\npragma solidity ^0.8.9;\r\n\r\nimport \"@openzeppelin/contracts/access/Ownable.sol\";\r\nimport \"./Data.sol\";\r\n\r\ncontract DaoBase is Ownable {\r\n  string public name;\r\n  string public description;\r\n  string public rules;\r\n  Data.visibilityEnum public visibility;\r\n  uint256 public modulesCount;\r\n\r\n  mapping(address => bool) private authorizedContracts;\r\n  mapping(address => bool) owners;\r\n  mapping(uint256 => bytes8) public moduleType;\r\n  mapping(bytes8 => Data.Module) public modules;\r\n  // type => module {code, type, descr}\r\n  // member => module { \"nft member\", \"\", \"\"}\r\n\r\n  //membership => module\r\n  //nft member => module\r\n\r\n  //type => module\r\n\r\n  modifier onlyOwners() {\r\n    require(owners[msg.sender], \"Invalid User: DaoBase\");\r\n    _;\r\n  }\r\n  // modifier onlyActiveMembersOrAuthorizeContracts() {\r\n  //       require(members[msg.sender].status == Data.memberStatus.active || authorizedContracts[msg.sender] == true, \"Not authorized\");\r\n  //       _;\r\n  //   }\r\n\r\n  //   modifier onlyNotActiveMembers() {\r\n  //       require(members[msg.sender].status != Data.memberStatus.active, \"Not authorized\");\r\n  //       _;\r\n  //   }\r\n\r\n  modifier onlyAuthorizeContracts() {\r\n    require(authorizedContracts[msg.sender] == true, \"Not authorized\");\r\n    _;\r\n  }\r\n\r\n  modifier onlyAuthorizeContractsOrOwner() {\r\n    require(((authorizedContracts[msg.sender] == true) || msg.sender == owner()), \"Not authorized\");\r\n    _;\r\n  }\r\n\r\n  event DaoCreated(address daoAddress, address creatorAddress);\r\n  event ModuleAdded(string moduleCode, address moduleAddress, address adderAddress);\r\n\r\n  constructor(string memory _name, string memory _description, Data.visibilityEnum _visibility\r\n            , string memory _rules) {\r\n    name = _name;\r\n    description = _description;\r\n    rules = rules;\r\n    visibility = _visibility;\r\n    owners[msg.sender] = true;\r\n  }\r\n\r\n  // function activateModule(ModuleType _moduleType, bytes8 memory code) external onlyOwners() {\r\n  //     modules[code].isActive = true;\r\n  //     modules[code].moduleAddress = _moduleAddress;\r\n  //     emit ModuleAdded(code, _moduleAddress, msg.sender);\r\n  // }\r\n  function hash(string memory _name) public pure returns(bytes8) {\r\n    return (bytes8(keccak256(abi.encode(_name))));\r\n  }\r\n  \r\n//   function activateModule(address _moduleAddress, string memory code) external {\r\n//       modules[code].isActive = true;\r\n//       modules[code].moduleAddress = _moduleAddress;\r\n//       emit ModuleAdded(code, _moduleAddress, msg.sender);\r\n//   }\r\n\r\n\r\n  function addModule(bytes8 _type, bytes8 _code, address _moduleAddr) public onlyAuthorizeContractsOrOwner() {\r\n    modules[_type].isActive = true;\r\n    modules[_type].id = modulesCount;\r\n    modules[_type].moduleAddress = _moduleAddr;\r\n    modules[_type].moduleCode = _code;\r\n    modules[_type].moduleType = _type;\r\n    moduleType[modulesCount] = _type;\r\n    ++modulesCount;\r\n  }\r\n\r\n  function authorizeContract(address _contractAddress) external onlyAuthorizeContractsOrOwner() {\r\n    authorizedContracts[_contractAddress] = true;\r\n  }\r\n\r\n  function denyContract(address _contractAddress) external onlyAuthorizeContractsOrOwner() {\r\n    authorizedContracts[_contractAddress] = false;\r\n  }\r\n\r\n  // get info\r\n  // function getAllModuleHash() public view returns(bytes8[] memory allModuleHash) {\r\n  //   allModuleHash = new bytes8[](modulesCount);\r\n  //   for (uint256 i = 0; i < modulesCount; ++i) {\r\n  //     allModuleHash[i] = moduleType[i];\r\n  //   }\r\n  // }\r\n  // function getAllModulesData() public view returns(Data.Module[] memory allModuleData) {\r\n  //   allModuleData = new Data.Module[](modulesCount);\r\n  //   for (uint256 i = 0; i < modulesCount; ++i) {\r\n  //     allModuleData[i] = modules[moduleType[i]];\r\n  //   }\r\n  // }\r\n  // function getModuleData(uint256 _moduleId) public view returns(Data.Module memory) {\r\n  //   return(modules[moduleType[_moduleId]]);\r\n  // }\r\n\r\n  function getModuleData(bytes8 _type) public view returns(Data.Module memory) {\r\n    return(modules[_type]);\r\n  }\r\n\r\n  function getDaoSettings() public view returns(Data.DaoSettings memory) {\r\n    Data.DaoSettings memory daoSettings;\r\n    daoSettings.name = name;\r\n    daoSettings.description = description;\r\n    daoSettings.visibility = visibility;\r\n    return daoSettings;\r\n  }\r\n\r\n  // function memberInfo(address _member) external view returns(Data.member memory) {\r\n  //   return(IDao(modules[0]).getMemberInfo(_member));\r\n  // }\r\n  // function addrId(uint256 _id) external view returns(address) {\r\n  //   return(IDao(modules[0]).getAddrById(_id));\r\n  // }\r\n  // function totalId() external view returns(uint256) {\r\n  //   return(IDao(modules[0]).getTotalId());\r\n  // }\r\n  // function daoInfo() external view returns(Data.daoData memory) {\r\n  //   return(IDao(modules[0]).getInfoDao());\r\n  // }\r\n  // add new modules\r\n  // function addModule(address _newModule) external {\r\n  //   modules.push(_newModule);\r\n  // }\r\n}",
  "sourcePath": "C:\\Users\\mdmou\\source\\repos\\MY-DAO\\contracts\\DaoBase.sol",
  "compiler": {
    "name": "solc",
    "version": "0.8.9+commit.e5eed63a.Emscripten.clang"
  },
  "schemaVersion": "3.4.4",
  "updatedAt": "2022-05-18T22:25:09.888Z",
  "devdoc": {
    "kind": "dev",
    "methods": {
      "owner()": {
        "details": "Returns the address of the current owner."
      },
      "renounceOwnership()": {
        "details": "Leaves the contract without owner. It will not be possible to call `onlyOwner` functions anymore. Can only be called by the current owner. NOTE: Renouncing ownership will leave the contract without an owner, thereby removing any functionality that is only available to the owner."
      },
      "transferOwnership(address)": {
        "details": "Transfers ownership of the contract to a new account (`newOwner`). Can only be called by the current owner."
      }
    },
    "version": 1
  },
  "userdoc": {
    "kind": "user",
    "methods": {},
    "version": 1
  }
}