{
  "contractName": "DaoBase",
  "abi": [
    {
      "inputs": [
        {
          "internalType": "string",
          "name": "_name",
          "type": "string"
        },
        {
          "internalType": "string",
          "name": "_description",
          "type": "string"
        },
        {
          "internalType": "enum Data.visibilityEnum",
          "name": "_visibility",
          "type": "uint8"
        }
      ],
      "stateMutability": "nonpayable",
      "type": "constructor"
    },
    {
      "anonymous": false,
      "inputs": [
        {
          "indexed": false,
          "internalType": "address",
          "name": "daoAddress",
          "type": "address"
        },
        {
          "indexed": false,
          "internalType": "address",
          "name": "creatorAddress",
          "type": "address"
        }
      ],
      "name": "DaoCreated",
      "type": "event"
    },
    {
      "anonymous": false,
      "inputs": [
        {
          "indexed": false,
          "internalType": "string",
          "name": "moduleCode",
          "type": "string"
        },
        {
          "indexed": false,
          "internalType": "address",
          "name": "moduleAddress",
          "type": "address"
        },
        {
          "indexed": false,
          "internalType": "address",
          "name": "adderAddress",
          "type": "address"
        }
      ],
      "name": "ModuleAdded",
      "type": "event"
    },
    {
      "anonymous": false,
      "inputs": [
        {
          "indexed": true,
          "internalType": "address",
          "name": "previousOwner",
          "type": "address"
        },
        {
          "indexed": true,
          "internalType": "address",
          "name": "newOwner",
          "type": "address"
        }
      ],
      "name": "OwnershipTransferred",
      "type": "event"
    },
    {
      "inputs": [],
      "name": "description",
      "outputs": [
        {
          "internalType": "string",
          "name": "",
          "type": "string"
        }
      ],
      "stateMutability": "view",
      "type": "function"
    },
    {
      "inputs": [
        {
          "internalType": "uint256",
          "name": "",
          "type": "uint256"
        }
      ],
      "name": "moduleType",
      "outputs": [
        {
          "internalType": "bytes8",
          "name": "",
          "type": "bytes8"
        }
      ],
      "stateMutability": "view",
      "type": "function"
    },
    {
      "inputs": [
        {
          "internalType": "bytes8",
          "name": "",
          "type": "bytes8"
        }
      ],
      "name": "modules",
      "outputs": [
        {
          "internalType": "uint256",
          "name": "id",
          "type": "uint256"
        },
        {
          "internalType": "address",
          "name": "moduleAddress",
          "type": "address"
        },
        {
          "internalType": "bool",
          "name": "isActive",
          "type": "bool"
        },
        {
          "internalType": "bytes8",
          "name": "moduleType",
          "type": "bytes8"
        },
        {
          "internalType": "bytes8",
          "name": "moduleCode",
          "type": "bytes8"
        },
        {
          "internalType": "string",
          "name": "moduleInfo",
          "type": "string"
        }
      ],
      "stateMutability": "view",
      "type": "function"
    },
    {
      "inputs": [],
      "name": "modulesCount",
      "outputs": [
        {
          "internalType": "uint256",
          "name": "",
          "type": "uint256"
        }
      ],
      "stateMutability": "view",
      "type": "function"
    },
    {
      "inputs": [],
      "name": "name",
      "outputs": [
        {
          "internalType": "string",
          "name": "",
          "type": "string"
        }
      ],
      "stateMutability": "view",
      "type": "function"
    },
    {
      "inputs": [],
      "name": "owner",
      "outputs": [
        {
          "internalType": "address",
          "name": "",
          "type": "address"
        }
      ],
      "stateMutability": "view",
      "type": "function"
    },
    {
      "inputs": [],
      "name": "renounceOwnership",
      "outputs": [],
      "stateMutability": "nonpayable",
      "type": "function"
    },
    {
      "inputs": [
        {
          "internalType": "address",
          "name": "newOwner",
          "type": "address"
        }
      ],
      "name": "transferOwnership",
      "outputs": [],
      "stateMutability": "nonpayable",
      "type": "function"
    },
    {
      "inputs": [],
      "name": "visibility",
      "outputs": [
        {
          "internalType": "enum Data.visibilityEnum",
          "name": "",
          "type": "uint8"
        }
      ],
      "stateMutability": "view",
      "type": "function"
    },
    {
      "inputs": [
        {
          "internalType": "string",
          "name": "_name",
          "type": "string"
        }
      ],
      "name": "hash",
      "outputs": [
        {
          "internalType": "bytes8",
          "name": "",
          "type": "bytes8"
        }
      ],
      "stateMutability": "pure",
      "type": "function"
    },
    {
      "inputs": [
        {
          "internalType": "bytes8",
          "name": "_type",
          "type": "bytes8"
        },
        {
          "internalType": "address",
          "name": "_moduleAddr",
          "type": "address"
        }
      ],
      "name": "addModule",
      "outputs": [],
      "stateMutability": "nonpayable",
      "type": "function"
    },
    {
      "inputs": [
        {
          "internalType": "address",
          "name": "_contractAddress",
          "type": "address"
        }
      ],
      "name": "authorizeContract",
      "outputs": [],
      "stateMutability": "nonpayable",
      "type": "function"
    },
    {
      "inputs": [
        {
          "internalType": "address",
          "name": "_contractAddress",
          "type": "address"
        }
      ],
      "name": "denyContract",
      "outputs": [],
      "stateMutability": "nonpayable",
      "type": "function"
    },
    {
      "inputs": [
        {
          "internalType": "bytes8",
          "name": "_type",
          "type": "bytes8"
        }
      ],
      "name": "getModuleData",
      "outputs": [
        {
          "components": [
            {
              "internalType": "uint256",
              "name": "id",
              "type": "uint256"
            },
            {
              "internalType": "address",
              "name": "moduleAddress",
              "type": "address"
            },
            {
              "internalType": "bool",
              "name": "isActive",
              "type": "bool"
            },
            {
              "internalType": "bytes8",
              "name": "moduleType",
              "type": "bytes8"
            },
            {
              "internalType": "bytes8",
              "name": "moduleCode",
              "type": "bytes8"
            },
            {
              "internalType": "string",
              "name": "moduleInfo",
              "type": "string"
            }
          ],
          "internalType": "struct Data.Module",
          "name": "",
          "type": "tuple"
        }
      ],
      "stateMutability": "view",
      "type": "function"
    },
    {
      "inputs": [],
      "name": "getDaoSettings",
      "outputs": [
        {
          "components": [
            {
              "internalType": "address",
              "name": "addressDao",
              "type": "address"
            },
            {
              "internalType": "enum Data.visibilityEnum",
              "name": "visibility",
              "type": "uint8"
            },
            {
              "internalType": "string",
              "name": "name",
              "type": "string"
            },
            {
              "internalType": "string",
              "name": "description",
              "type": "string"
            }
          ],
          "internalType": "struct Data.DaoSettings",
          "name": "",
          "type": "tuple"
        }
      ],
      "stateMutability": "view",
      "type": "function"
    }
  ],
  "bytecode": "0x60806040523480156200001157600080fd5b50604051620021313803806200213183398181016040528101906200003791906200046a565b620000696200005462000129640100000000026401000000009004565b62000131640100000000026401000000009004565b826001908051906020019062000081929190620001f5565b5081600290805190602001906200009a929190620001f5565b5080600360006101000a81548160ff02191690836001811115620000c357620000c262000504565b5b02179055506001600660003373ffffffffffffffffffffffffffffffffffffffff1673ffffffffffffffffffffffffffffffffffffffff16815260200190815260200160002060006101000a81548160ff02191690831515021790555050505062000598565b600033905090565b60008060009054906101000a900473ffffffffffffffffffffffffffffffffffffffff169050816000806101000a81548173ffffffffffffffffffffffffffffffffffffffff021916908373ffffffffffffffffffffffffffffffffffffffff1602179055508173ffffffffffffffffffffffffffffffffffffffff168173ffffffffffffffffffffffffffffffffffffffff167f8be0079c531659141344cd1fd0a4f28419497f9722a3daafe3b4186f6b6457e060405160405180910390a35050565b828054620002039062000562565b90600052602060002090601f01602090048101928262000227576000855562000273565b82601f106200024257805160ff191683800117855562000273565b8280016001018555821562000273579182015b828111156200027257825182559160200191906001019062000255565b5b50905062000282919062000286565b5090565b5b80821115620002a157600081600090555060010162000287565b5090565b6000604051905090565b600080fd5b600080fd5b600080fd5b600080fd5b6000601f19601f8301169050919050565b7f4e487b7100000000000000000000000000000000000000000000000000000000600052604160045260246000fd5b6200030e82620002c3565b810181811067ffffffffffffffff8211171562000330576200032f620002d4565b5b80604052505050565b600062000345620002a5565b905062000353828262000303565b919050565b600067ffffffffffffffff821115620003765762000375620002d4565b5b6200038182620002c3565b9050602081019050919050565b60005b83811015620003ae57808201518184015260208101905062000391565b83811115620003be576000848401525b50505050565b6000620003db620003d58462000358565b62000339565b905082815260208101848484011115620003fa57620003f9620002be565b5b620004078482856200038e565b509392505050565b600082601f830112620004275762000426620002b9565b5b815162000439848260208601620003c4565b91505092915050565b600281106200045057600080fd5b50565b600081519050620004648162000442565b92915050565b600080600060608486031215620004865762000485620002af565b5b600084015167ffffffffffffffff811115620004a757620004a6620002b4565b5b620004b5868287016200040f565b935050602084015167ffffffffffffffff811115620004d957620004d8620002b4565b5b620004e7868287016200040f565b9250506040620004fa8682870162000453565b9150509250925092565b7f4e487b7100000000000000000000000000000000000000000000000000000000600052602160045260246000fd5b7f4e487b7100000000000000000000000000000000000000000000000000000000600052602260045260246000fd5b600060028204905060018216806200057b57607f821691505b6020821081141562000592576200059162000533565b5b50919050565b611b8980620005a86000396000f3fe608060405234801561001057600080fd5b5060043610610111576000357c0100000000000000000000000000000000000000000000000000000000900480637284e416116100b4578063d8d8e93c11610083578063d8d8e93c1461026f578063ee760f381461029f578063f2fde38b146102cf578063f315aafe146102eb57610111565b80637284e416146101e75780638da5cb5b14610205578063b411ee9414610223578063b7e2077e1461025357610111565b806336e70eaa116100f057806336e70eaa1461016e57806352450cf91461018c57806367561d93146101c1578063715018a6146101dd57610111565b80628682391461011657806306fdde031461013257806329adec1414610150575b600080fd5b610130600480360381019061012b919061127b565b610309565b005b61013a610584565b6040516101479190611354565b60405180910390f35b610158610612565b60405161016591906113ed565b60405180910390f35b610176610625565b60405161018391906114da565b60405180910390f35b6101a660048036038101906101a191906114fc565b6107a1565b6040516101b89695949392919061157b565b60405180910390f35b6101db60048036038101906101d691906115e3565b6108dc565b005b6101e5610a07565b005b6101ef610a8f565b6040516101fc9190611354565b60405180910390f35b61020d610b1d565b60405161021a9190611610565b60405180910390f35b61023d60048036038101906102389190611760565b610b46565b60405161024a91906117a9565b60405180910390f35b61026d600480360381019061026891906115e3565b610b76565b005b610289600480360381019061028491906114fc565b610ca1565b604051610296919061187a565b60405180910390f35b6102b960048036038101906102b491906118c8565b610edb565b6040516102c691906117a9565b60405180910390f35b6102e960048036038101906102e491906115e3565b610f13565b005b6102f361100b565b60405161030091906118f5565b60405180910390f35b60011515600560003373ffffffffffffffffffffffffffffffffffffffff1673ffffffffffffffffffffffffffffffffffffffff16815260200190815260200160002060009054906101000a900460ff161515148061039a575061036b610b1d565b73ffffffffffffffffffffffffffffffffffffffff163373ffffffffffffffffffffffffffffffffffffffff16145b6103d9576040517f08c379a00000000000000000000000000000000000000000000000000000000081526004016103d09061195c565b60405180910390fd5b6001600860008477ffffffffffffffffffffffffffffffffffffffffffffffff191677ffffffffffffffffffffffffffffffffffffffffffffffff1916815260200190815260200160002060010160146101000a81548160ff021916908315150217905550600454600860008477ffffffffffffffffffffffffffffffffffffffffffffffff191677ffffffffffffffffffffffffffffffffffffffffffffffff191681526020019081526020016000206000018190555080600860008477ffffffffffffffffffffffffffffffffffffffffffffffff191677ffffffffffffffffffffffffffffffffffffffffffffffff1916815260200190815260200160002060010160006101000a81548173ffffffffffffffffffffffffffffffffffffffff021916908373ffffffffffffffffffffffffffffffffffffffff1602179055508160076000600454815260200190815260200160002060006101000a81548167ffffffffffffffff0219169083780100000000000000000000000000000000000000000000000090040217905550600460008154610579906119ab565b919050819055505050565b6001805461059190611a23565b80601f01602080910402602001604051908101604052809291908181526020018280546105bd90611a23565b801561060a5780601f106105df5761010080835404028352916020019161060a565b820191906000526020600020905b8154815290600101906020018083116105ed57829003601f168201915b505050505081565b600360009054906101000a900460ff1681565b61062d6110dd565b6106356110dd565b6001805461064290611a23565b80601f016020809104026020016040519081016040528092919081815260200182805461066e90611a23565b80156106bb5780601f10610690576101008083540402835291602001916106bb565b820191906000526020600020905b81548152906001019060200180831161069e57829003601f168201915b50505050508160400181905250600280546106d590611a23565b80601f016020809104026020016040519081016040528092919081815260200182805461070190611a23565b801561074e5780601f106107235761010080835404028352916020019161074e565b820191906000526020600020905b81548152906001019060200180831161073157829003601f168201915b50505050508160600181905250600360009054906101000a900460ff168160200190600181111561078257610781611376565b5b9081600181111561079657610795611376565b5b815250508091505090565b60086020528060005260406000206000915090508060000154908060010160009054906101000a900473ffffffffffffffffffffffffffffffffffffffff16908060010160149054906101000a900460ff16908060010160159054906101000a9004780100000000000000000000000000000000000000000000000002908060020160009054906101000a90047801000000000000000000000000000000000000000000000000029080600301805461085990611a23565b80601f016020809104026020016040519081016040528092919081815260200182805461088590611a23565b80156108d25780601f106108a7576101008083540402835291602001916108d2565b820191906000526020600020905b8154815290600101906020018083116108b557829003601f168201915b5050505050905086565b60011515600560003373ffffffffffffffffffffffffffffffffffffffff1673ffffffffffffffffffffffffffffffffffffffff16815260200190815260200160002060009054906101000a900460ff161515148061096d575061093e610b1d565b73ffffffffffffffffffffffffffffffffffffffff163373ffffffffffffffffffffffffffffffffffffffff16145b6109ac576040517f08c379a00000000000000000000000000000000000000000000000000000000081526004016109a39061195c565b60405180910390fd5b6001600560008373ffffffffffffffffffffffffffffffffffffffff1673ffffffffffffffffffffffffffffffffffffffff16815260200190815260200160002060006101000a81548160ff02191690831515021790555050565b610a0f611011565b73ffffffffffffffffffffffffffffffffffffffff16610a2d610b1d565b73ffffffffffffffffffffffffffffffffffffffff1614610a83576040517f08c379a0000000000000000000000000000000000000000000000000000000008152600401610a7a90611aa1565b60405180910390fd5b610a8d6000611019565b565b60028054610a9c90611a23565b80601f0160208091040260200160405190810160405280929190818152602001828054610ac890611a23565b8015610b155780601f10610aea57610100808354040283529160200191610b15565b820191906000526020600020905b815481529060010190602001808311610af857829003601f168201915b505050505081565b60008060009054906101000a900473ffffffffffffffffffffffffffffffffffffffff16905090565b600081604051602001610b599190611354565b604051602081830303815290604052805190602001209050919050565b60011515600560003373ffffffffffffffffffffffffffffffffffffffff1673ffffffffffffffffffffffffffffffffffffffff16815260200190815260200160002060009054906101000a900460ff1615151480610c075750610bd8610b1d565b73ffffffffffffffffffffffffffffffffffffffff163373ffffffffffffffffffffffffffffffffffffffff16145b610c46576040517f08c379a0000000000000000000000000000000000000000000000000000000008152600401610c3d9061195c565b60405180910390fd5b6000600560008373ffffffffffffffffffffffffffffffffffffffff1673ffffffffffffffffffffffffffffffffffffffff16815260200190815260200160002060006101000a81548160ff02191690831515021790555050565b610ca961112d565b600860008377ffffffffffffffffffffffffffffffffffffffffffffffff191677ffffffffffffffffffffffffffffffffffffffffffffffff191681526020019081526020016000206040518060c0016040529081600082015481526020016001820160009054906101000a900473ffffffffffffffffffffffffffffffffffffffff1673ffffffffffffffffffffffffffffffffffffffff1673ffffffffffffffffffffffffffffffffffffffff1681526020016001820160149054906101000a900460ff161515151581526020016001820160159054906101000a900478010000000000000000000000000000000000000000000000000277ffffffffffffffffffffffffffffffffffffffffffffffff191677ffffffffffffffffffffffffffffffffffffffffffffffff191681526020016002820160009054906101000a900478010000000000000000000000000000000000000000000000000277ffffffffffffffffffffffffffffffffffffffffffffffff191677ffffffffffffffffffffffffffffffffffffffffffffffff19168152602001600382018054610e5290611a23565b80601f0160208091040260200160405190810160405280929190818152602001828054610e7e90611a23565b8015610ecb5780601f10610ea057610100808354040283529160200191610ecb565b820191906000526020600020905b815481529060010190602001808311610eae57829003601f168201915b5050505050815250509050919050565b60076020528060005260406000206000915054906101000a900478010000000000000000000000000000000000000000000000000281565b610f1b611011565b73ffffffffffffffffffffffffffffffffffffffff16610f39610b1d565b73ffffffffffffffffffffffffffffffffffffffff1614610f8f576040517f08c379a0000000000000000000000000000000000000000000000000000000008152600401610f8690611aa1565b60405180910390fd5b600073ffffffffffffffffffffffffffffffffffffffff168173ffffffffffffffffffffffffffffffffffffffff161415610fff576040517f08c379a0000000000000000000000000000000000000000000000000000000008152600401610ff690611b33565b60405180910390fd5b61100881611019565b50565b60045481565b600033905090565b60008060009054906101000a900473ffffffffffffffffffffffffffffffffffffffff169050816000806101000a81548173ffffffffffffffffffffffffffffffffffffffff021916908373ffffffffffffffffffffffffffffffffffffffff1602179055508173ffffffffffffffffffffffffffffffffffffffff168173ffffffffffffffffffffffffffffffffffffffff167f8be0079c531659141344cd1fd0a4f28419497f9722a3daafe3b4186f6b6457e060405160405180910390a35050565b6040518060800160405280600073ffffffffffffffffffffffffffffffffffffffff1681526020016000600181111561111957611118611376565b5b815260200160608152602001606081525090565b6040518060c0016040528060008152602001600073ffffffffffffffffffffffffffffffffffffffff168152602001600015158152602001600077ffffffffffffffffffffffffffffffffffffffffffffffff19168152602001600077ffffffffffffffffffffffffffffffffffffffffffffffff19168152602001606081525090565b6000604051905090565b600080fd5b600080fd5b60007fffffffffffffffff00000000000000000000000000000000000000000000000082169050919050565b6111fa816111c5565b811461120557600080fd5b50565b600081359050611217816111f1565b92915050565b600073ffffffffffffffffffffffffffffffffffffffff82169050919050565b60006112488261121d565b9050919050565b6112588161123d565b811461126357600080fd5b50565b6000813590506112758161124f565b92915050565b60008060408385031215611292576112916111bb565b5b60006112a085828601611208565b92505060206112b185828601611266565b9150509250929050565b600081519050919050565b600082825260208201905092915050565b60005b838110156112f55780820151818401526020810190506112da565b83811115611304576000848401525b50505050565b6000601f19601f8301169050919050565b6000611326826112bb565b61133081856112c6565b93506113408185602086016112d7565b6113498161130a565b840191505092915050565b6000602082019050818103600083015261136e818461131b565b905092915050565b7f4e487b7100000000000000000000000000000000000000000000000000000000600052602160045260246000fd5b600281106113b6576113b5611376565b5b50565b60008190506113c7826113a5565b919050565b60006113d7826113b9565b9050919050565b6113e7816113cc565b82525050565b600060208201905061140260008301846113de565b92915050565b6114118161123d565b82525050565b611420816113cc565b82525050565b600082825260208201905092915050565b6000611442826112bb565b61144c8185611426565b935061145c8185602086016112d7565b6114658161130a565b840191505092915050565b60006080830160008301516114886000860182611408565b50602083015161149b6020860182611417565b50604083015184820360408601526114b38282611437565b915050606083015184820360608601526114cd8282611437565b9150508091505092915050565b600060208201905081810360008301526114f48184611470565b905092915050565b600060208284031215611512576115116111bb565b5b600061152084828501611208565b91505092915050565b6000819050919050565b61153c81611529565b82525050565b61154b8161123d565b82525050565b60008115159050919050565b61156681611551565b82525050565b611575816111c5565b82525050565b600060c0820190506115906000830189611533565b61159d6020830188611542565b6115aa604083018761155d565b6115b7606083018661156c565b6115c4608083018561156c565b81810360a08301526115d6818461131b565b9050979650505050505050565b6000602082840312156115f9576115f86111bb565b5b600061160784828501611266565b91505092915050565b60006020820190506116256000830184611542565b92915050565b600080fd5b600080fd5b7f4e487b7100000000000000000000000000000000000000000000000000000000600052604160045260246000fd5b61166d8261130a565b810181811067ffffffffffffffff8211171561168c5761168b611635565b5b80604052505050565b600061169f6111b1565b90506116ab8282611664565b919050565b600067ffffffffffffffff8211156116cb576116ca611635565b5b6116d48261130a565b9050602081019050919050565b82818337600083830152505050565b60006117036116fe846116b0565b611695565b90508281526020810184848401111561171f5761171e611630565b5b61172a8482856116e1565b509392505050565b600082601f8301126117475761174661162b565b5b81356117578482602086016116f0565b91505092915050565b600060208284031215611776576117756111bb565b5b600082013567ffffffffffffffff811115611794576117936111c0565b5b6117a084828501611732565b91505092915050565b60006020820190506117be600083018461156c565b92915050565b6117cd81611529565b82525050565b6117dc81611551565b82525050565b6117eb816111c5565b82525050565b600060c08301600083015161180960008601826117c4565b50602083015161181c6020860182611408565b50604083015161182f60408601826117d3565b50606083015161184260608601826117e2565b50608083015161185560808601826117e2565b5060a083015184820360a086015261186d8282611437565b9150508091505092915050565b6000602082019050818103600083015261189481846117f1565b905092915050565b6118a581611529565b81146118b057600080fd5b50565b6000813590506118c28161189c565b92915050565b6000602082840312156118de576118dd6111bb565b5b60006118ec848285016118b3565b91505092915050565b600060208201905061190a6000830184611533565b92915050565b7f4e6f7420617574686f72697a6564000000000000000000000000000000000000600082015250565b6000611946600e836112c6565b915061195182611910565b602082019050919050565b6000602082019050818103600083015261197581611939565b9050919050565b7f4e487b7100000000000000000000000000000000000000000000000000000000600052601160045260246000fd5b60006119b682611529565b91507fffffffffffffffffffffffffffffffffffffffffffffffffffffffffffffffff8214156119e9576119e861197c565b5b600182019050919050565b7f4e487b7100000000000000000000000000000000000000000000000000000000600052602260045260246000fd5b60006002820490506001821680611a3b57607f821691505b60208210811415611a4f57611a4e6119f4565b5b50919050565b7f4f776e61626c653a2063616c6c6572206973206e6f7420746865206f776e6572600082015250565b6000611a8b6020836112c6565b9150611a9682611a55565b602082019050919050565b60006020820190508181036000830152611aba81611a7e565b9050919050565b7f4f776e61626c653a206e6577206f776e657220697320746865207a65726f206160008201527f6464726573730000000000000000000000000000000000000000000000000000602082015250565b6000611b1d6026836112c6565b9150611b2882611ac1565b604082019050919050565b60006020820190508181036000830152611b4c81611b10565b905091905056fea2646970667358221220626068e4c8de3e70d8b3be88ad230b18688449ee971e0e07f0b846718511747264736f6c63430008090033",
  "immutableReferences": {},
  "source": "// SPDX-License-Identifier: MIT\npragma solidity ^0.8.9;\n\nimport \"@openzeppelin/contracts/access/Ownable.sol\";\nimport \"./Data.sol\";\n\ncontract DaoBase is Ownable {\n  string public name;\n  string public description;\n  Data.visibilityEnum public visibility;\n  uint256 public modulesCount;\n\n  mapping(address => bool) private authorizedContracts;\n  mapping(address => bool) owners;\n  mapping(uint256 => bytes8) public moduleType;\n  mapping(bytes8 => Data.Module) public modules;\n  // type => module {code, type, descr}\n  // member => module { \"nft member\", \"\", \"\"}\n\n  //membership => module\n  //nft member => module\n\n  //type => module\n\n  modifier onlyOwners() {\n    require(owners[msg.sender], \"Invalid User\");\n    _;\n  }\n  // modifier onlyActiveMembersOrAuthorizeContracts() {\n  //       require(members[msg.sender].status == Data.memberStatus.active || authorizedContracts[msg.sender] == true, \"Not authorized\");\n  //       _;\n  //   }\n\n  //   modifier onlyNotActiveMembers() {\n  //       require(members[msg.sender].status != Data.memberStatus.active, \"Not authorized\");\n  //       _;\n  //   }\n\n  modifier onlyAuthorizeContracts() {\n    require(authorizedContracts[msg.sender] == true, \"Not authorized\");\n    _;\n  }\n\n  modifier onlyAuthorizeContractsOrOwner() {\n    require(((authorizedContracts[msg.sender] == true) || msg.sender == owner()), \"Not authorized\");\n    _;\n  }\n\n  event DaoCreated(address daoAddress, address creatorAddress);\n  event ModuleAdded(string moduleCode, address moduleAddress, address adderAddress);\n\n  constructor(string memory _name, string memory _description, Data.visibilityEnum _visibility) {\n    name = _name;\n    description = _description;\n    visibility = _visibility;\n    owners[msg.sender] = true;\n  }\n\n  // function activateModule(ModuleType _moduleType, bytes8 memory code) external onlyOwners() {\n  //     modules[code].isActive = true;\n  //     modules[code].moduleAddress = _moduleAddress;\n  //     emit ModuleAdded(code, _moduleAddress, msg.sender);\n  // }\n  function hash(string memory _name) public pure returns(bytes8) {\n    return (bytes8(keccak256(abi.encode(_name))));\n  }\n  \n//   function activateModule(address _moduleAddress, string memory code) external {\n//       modules[code].isActive = true;\n//       modules[code].moduleAddress = _moduleAddress;\n//       emit ModuleAdded(code, _moduleAddress, msg.sender);\n//   }\n\n\n  function addModule(bytes8 _type, address _moduleAddr) public onlyAuthorizeContractsOrOwner() {\n    modules[_type].isActive = true;\n    modules[_type].id = modulesCount;\n    modules[_type].moduleAddress = _moduleAddr;\n    moduleType[modulesCount] = _type;\n    ++modulesCount;\n  }\n\n  function authorizeContract(address _contractAddress) external onlyAuthorizeContractsOrOwner() {\n    authorizedContracts[_contractAddress] = true;\n  }\n\n  function denyContract(address _contractAddress) external onlyAuthorizeContractsOrOwner() {\n    authorizedContracts[_contractAddress] = false;\n  }\n\n  // get info\n  // function getAllModuleHash() public view returns(bytes8[] memory allModuleHash) {\n  //   allModuleHash = new bytes8[](modulesCount);\n  //   for (uint256 i = 0; i < modulesCount; ++i) {\n  //     allModuleHash[i] = moduleType[i];\n  //   }\n  // }\n  // function getAllModulesData() public view returns(Data.Module[] memory allModuleData) {\n  //   allModuleData = new Data.Module[](modulesCount);\n  //   for (uint256 i = 0; i < modulesCount; ++i) {\n  //     allModuleData[i] = modules[moduleType[i]];\n  //   }\n  // }\n  // function getModuleData(uint256 _moduleId) public view returns(Data.Module memory) {\n  //   return(modules[moduleType[_moduleId]]);\n  // }\n\n  function getModuleData(bytes8 _type) public view returns(Data.Module memory) {\n    return(modules[_type]);\n  }\n\n  function getDaoSettings() public view returns(Data.DaoSettings memory) {\n    Data.DaoSettings memory daoSettings;\n    daoSettings.name = name;\n    daoSettings.description = description;\n    daoSettings.visibility = visibility;\n    return daoSettings;\n  }\n\n  // function memberInfo(address _member) external view returns(Data.member memory) {\n  //   return(IDao(modules[0]).getMemberInfo(_member));\n  // }\n  // function addrId(uint256 _id) external view returns(address) {\n  //   return(IDao(modules[0]).getAddrById(_id));\n  // }\n  // function totalId() external view returns(uint256) {\n  //   return(IDao(modules[0]).getTotalId());\n  // }\n  // function daoInfo() external view returns(Data.daoData memory) {\n  //   return(IDao(modules[0]).getInfoDao());\n  // }\n  // add new modules\n  // function addModule(address _newModule) external {\n  //   modules.push(_newModule);\n  // }\n}",
  "sourcePath": "/Users/chinoiserie/delivery/BLOCKCHAIN/Alyra/MY-DAO/contracts/DaoBase.sol",
  "compiler": {
    "name": "solc",
    "version": "0.8.9+commit.e5eed63a.Emscripten.clang"
  },
  "schemaVersion": "3.2.0",
  "updatedAt": "2022-05-15T22:44:17.099Z",
  "devdoc": {
    "kind": "dev",
    "methods": {
      "owner()": {
        "details": "Returns the address of the current owner."
      },
      "renounceOwnership()": {
        "details": "Leaves the contract without owner. It will not be possible to call `onlyOwner` functions anymore. Can only be called by the current owner. NOTE: Renouncing ownership will leave the contract without an owner, thereby removing any functionality that is only available to the owner."
      },
      "transferOwnership(address)": {
        "details": "Transfers ownership of the contract to a new account (`newOwner`). Can only be called by the current owner."
      }
    },
    "version": 1
  },
  "userdoc": {
    "kind": "user",
    "methods": {},
    "version": 1
  }
}