{
  "contractName": "DaoBase",
  "abi": [
    {
      "inputs": [
        {
          "internalType": "string",
          "name": "_name",
          "type": "string"
        },
        {
          "internalType": "string",
          "name": "_description",
          "type": "string"
        },
        {
          "internalType": "enum Data.visibilityEnum",
          "name": "_visibility",
          "type": "uint8"
        },
        {
          "internalType": "string",
          "name": "_rules",
          "type": "string"
        }
      ],
      "stateMutability": "nonpayable",
      "type": "constructor"
    },
    {
      "anonymous": false,
      "inputs": [
        {
          "indexed": false,
          "internalType": "address",
          "name": "daoAddress",
          "type": "address"
        },
        {
          "indexed": false,
          "internalType": "address",
          "name": "creatorAddress",
          "type": "address"
        }
      ],
      "name": "DaoCreated",
      "type": "event"
    },
    {
      "anonymous": false,
      "inputs": [
        {
          "indexed": false,
          "internalType": "string",
          "name": "moduleCode",
          "type": "string"
        },
        {
          "indexed": false,
          "internalType": "address",
          "name": "moduleAddress",
          "type": "address"
        },
        {
          "indexed": false,
          "internalType": "address",
          "name": "adderAddress",
          "type": "address"
        }
      ],
      "name": "ModuleAdded",
      "type": "event"
    },
    {
      "anonymous": false,
      "inputs": [
        {
          "indexed": true,
          "internalType": "address",
          "name": "previousOwner",
          "type": "address"
        },
        {
          "indexed": true,
          "internalType": "address",
          "name": "newOwner",
          "type": "address"
        }
      ],
      "name": "OwnershipTransferred",
      "type": "event"
    },
    {
      "inputs": [],
      "name": "description",
      "outputs": [
        {
          "internalType": "string",
          "name": "",
          "type": "string"
        }
      ],
      "stateMutability": "view",
      "type": "function"
    },
    {
      "inputs": [
        {
          "internalType": "uint256",
          "name": "",
          "type": "uint256"
        }
      ],
      "name": "moduleType",
      "outputs": [
        {
          "internalType": "bytes8",
          "name": "",
          "type": "bytes8"
        }
      ],
      "stateMutability": "view",
      "type": "function"
    },
    {
      "inputs": [
        {
          "internalType": "bytes8",
          "name": "",
          "type": "bytes8"
        },
        {
          "internalType": "uint256",
          "name": "",
          "type": "uint256"
        }
      ],
      "name": "modules",
      "outputs": [
        {
          "internalType": "uint256",
          "name": "id",
          "type": "uint256"
        },
        {
          "internalType": "address",
          "name": "moduleAddress",
          "type": "address"
        },
        {
          "internalType": "bool",
          "name": "isActive",
          "type": "bool"
        },
        {
          "internalType": "bool",
          "name": "isExclusive",
          "type": "bool"
        },
        {
          "internalType": "bytes8",
          "name": "moduleType",
          "type": "bytes8"
        },
        {
          "internalType": "bytes8",
          "name": "moduleCode",
          "type": "bytes8"
        },
        {
          "internalType": "string",
          "name": "moduleInfo",
          "type": "string"
        }
      ],
      "stateMutability": "view",
      "type": "function"
    },
    {
      "inputs": [],
      "name": "modulesTypeCount",
      "outputs": [
        {
          "internalType": "uint256",
          "name": "",
          "type": "uint256"
        }
      ],
      "stateMutability": "view",
      "type": "function"
    },
    {
      "inputs": [],
      "name": "name",
      "outputs": [
        {
          "internalType": "string",
          "name": "",
          "type": "string"
        }
      ],
      "stateMutability": "view",
      "type": "function"
    },
    {
      "inputs": [],
      "name": "owner",
      "outputs": [
        {
          "internalType": "address",
          "name": "",
          "type": "address"
        }
      ],
      "stateMutability": "view",
      "type": "function"
    },
    {
      "inputs": [],
      "name": "renounceOwnership",
      "outputs": [],
      "stateMutability": "nonpayable",
      "type": "function"
    },
    {
      "inputs": [],
      "name": "rules",
      "outputs": [
        {
          "internalType": "string",
          "name": "",
          "type": "string"
        }
      ],
      "stateMutability": "view",
      "type": "function"
    },
    {
      "inputs": [
        {
          "internalType": "address",
          "name": "newOwner",
          "type": "address"
        }
      ],
      "name": "transferOwnership",
      "outputs": [],
      "stateMutability": "nonpayable",
      "type": "function"
    },
    {
      "inputs": [],
      "name": "visibility",
      "outputs": [
        {
          "internalType": "enum Data.visibilityEnum",
          "name": "",
          "type": "uint8"
        }
      ],
      "stateMutability": "view",
      "type": "function"
    },
    {
      "inputs": [
        {
          "internalType": "bytes8",
          "name": "_type",
          "type": "bytes8"
        },
        {
          "internalType": "bytes8",
          "name": "_code",
          "type": "bytes8"
        },
        {
          "internalType": "address",
          "name": "_moduleAddr",
          "type": "address"
        },
        {
          "internalType": "bool",
          "name": "_isExclusive",
          "type": "bool"
        }
      ],
      "name": "addModule",
      "outputs": [],
      "stateMutability": "nonpayable",
      "type": "function"
    },
    {
      "inputs": [
        {
          "internalType": "address",
          "name": "_contractAddress",
          "type": "address"
        }
      ],
      "name": "authorizeContract",
      "outputs": [],
      "stateMutability": "nonpayable",
      "type": "function"
    },
    {
      "inputs": [
        {
          "internalType": "address",
          "name": "_contractAddress",
          "type": "address"
        }
      ],
      "name": "denyContract",
      "outputs": [],
      "stateMutability": "nonpayable",
      "type": "function"
    },
    {
      "inputs": [
        {
          "internalType": "bytes8",
          "name": "_type",
          "type": "bytes8"
        }
      ],
      "name": "getModuleData",
      "outputs": [
        {
          "components": [
            {
              "internalType": "uint256",
              "name": "id",
              "type": "uint256"
            },
            {
              "internalType": "address",
              "name": "moduleAddress",
              "type": "address"
            },
            {
              "internalType": "bool",
              "name": "isActive",
              "type": "bool"
            },
            {
              "internalType": "bool",
              "name": "isExclusive",
              "type": "bool"
            },
            {
              "internalType": "bytes8",
              "name": "moduleType",
              "type": "bytes8"
            },
            {
              "internalType": "bytes8",
              "name": "moduleCode",
              "type": "bytes8"
            },
            {
              "internalType": "string",
              "name": "moduleInfo",
              "type": "string"
            }
          ],
          "internalType": "struct Data.Module[]",
          "name": "",
          "type": "tuple[]"
        }
      ],
      "stateMutability": "view",
      "type": "function"
    },
    {
      "inputs": [
        {
          "internalType": "bytes8",
          "name": "_type",
          "type": "bytes8"
        },
        {
          "internalType": "uint256",
          "name": "_index",
          "type": "uint256"
        }
      ],
      "name": "getModuleDataByIndex",
      "outputs": [
        {
          "components": [
            {
              "internalType": "uint256",
              "name": "id",
              "type": "uint256"
            },
            {
              "internalType": "address",
              "name": "moduleAddress",
              "type": "address"
            },
            {
              "internalType": "bool",
              "name": "isActive",
              "type": "bool"
            },
            {
              "internalType": "bool",
              "name": "isExclusive",
              "type": "bool"
            },
            {
              "internalType": "bytes8",
              "name": "moduleType",
              "type": "bytes8"
            },
            {
              "internalType": "bytes8",
              "name": "moduleCode",
              "type": "bytes8"
            },
            {
              "internalType": "string",
              "name": "moduleInfo",
              "type": "string"
            }
          ],
          "internalType": "struct Data.Module",
          "name": "",
          "type": "tuple"
        }
      ],
      "stateMutability": "view",
      "type": "function"
    },
    {
      "inputs": [],
      "name": "getDaoSettings",
      "outputs": [
        {
          "components": [
            {
              "internalType": "address",
              "name": "addressDao",
              "type": "address"
            },
            {
              "internalType": "enum Data.visibilityEnum",
              "name": "visibility",
              "type": "uint8"
            },
            {
              "internalType": "string",
              "name": "name",
              "type": "string"
            },
            {
              "internalType": "string",
              "name": "description",
              "type": "string"
            },
            {
              "internalType": "string",
              "name": "rules",
              "type": "string"
            }
          ],
          "internalType": "struct Data.DaoSettings",
          "name": "",
          "type": "tuple"
        }
      ],
      "stateMutability": "view",
      "type": "function"
    }
  ],
  "bytecode": "0x60806040523480156200001157600080fd5b50604051620029383803806200293883398181016040528101906200003791906200042c565b6200006962000054620000eb640100000000026401000000009004565b620000f3640100000000026401000000009004565b836001908051906020019062000081929190620001b7565b5082600290805190602001906200009a929190620001b7565b508060039080519060200190620000b3929190620001b7565b5081600460006101000a81548160ff02191690836001811115620000dc57620000db620004fb565b5b0217905550505050506200058f565b600033905090565b60008060009054906101000a900473ffffffffffffffffffffffffffffffffffffffff169050816000806101000a81548173ffffffffffffffffffffffffffffffffffffffff021916908373ffffffffffffffffffffffffffffffffffffffff1602179055508173ffffffffffffffffffffffffffffffffffffffff168173ffffffffffffffffffffffffffffffffffffffff167f8be0079c531659141344cd1fd0a4f28419497f9722a3daafe3b4186f6b6457e060405160405180910390a35050565b828054620001c59062000559565b90600052602060002090601f016020900481019282620001e9576000855562000235565b82601f106200020457805160ff191683800117855562000235565b8280016001018555821562000235579182015b828111156200023457825182559160200191906001019062000217565b5b50905062000244919062000248565b5090565b5b808211156200026357600081600090555060010162000249565b5090565b6000604051905090565b600080fd5b600080fd5b600080fd5b600080fd5b6000601f19601f8301169050919050565b7f4e487b7100000000000000000000000000000000000000000000000000000000600052604160045260246000fd5b620002d08262000285565b810181811067ffffffffffffffff82111715620002f257620002f162000296565b5b80604052505050565b60006200030762000267565b9050620003158282620002c5565b919050565b600067ffffffffffffffff82111562000338576200033762000296565b5b620003438262000285565b9050602081019050919050565b60005b838110156200037057808201518184015260208101905062000353565b8381111562000380576000848401525b50505050565b60006200039d62000397846200031a565b620002fb565b905082815260208101848484011115620003bc57620003bb62000280565b5b620003c984828562000350565b509392505050565b600082601f830112620003e957620003e86200027b565b5b8151620003fb84826020860162000386565b91505092915050565b600281106200041257600080fd5b50565b600081519050620004268162000404565b92915050565b6000806000806080858703121562000449576200044862000271565b5b600085015167ffffffffffffffff8111156200046a576200046962000276565b5b6200047887828801620003d1565b945050602085015167ffffffffffffffff8111156200049c576200049b62000276565b5b620004aa87828801620003d1565b9350506040620004bd8782880162000415565b925050606085015167ffffffffffffffff811115620004e157620004e062000276565b5b620004ef87828801620003d1565b91505092959194509250565b7f4e487b7100000000000000000000000000000000000000000000000000000000600052602160045260246000fd5b7f4e487b7100000000000000000000000000000000000000000000000000000000600052602260045260246000fd5b600060028204905060018216806200057257607f821691505b602082108114156200058957620005886200052a565b5b50919050565b612399806200059f6000396000f3fe608060405234801561001057600080fd5b506004361061011d576000357c010000000000000000000000000000000000000000000000000000000090048063715018a6116100b4578063d52cb17c11610083578063d52cb17c14610282578063d8d8e93c146102b8578063ee760f38146102e8578063f2fde38b146103185761011d565b8063715018a6146102205780637284e4161461022a5780638da5cb5b14610248578063b7e2077e146102665761011d565b80634ec5ff0a116100f05780634ec5ff0a1461019a57806352f6747a146101b657806363239977146101d457806367561d93146102045761011d565b806301cc15331461012257806306fdde031461014057806329adec141461015e57806336e70eaa1461017c575b600080fd5b61012a610334565b604051610137919061187e565b60405180910390f35b61014861033a565b6040516101559190611932565b60405180910390f35b6101666103c8565b60405161017391906119cb565b60405180910390f35b6101846103db565b6040516101919190611b04565b60405180910390f35b6101b460048036038101906101af9190611be7565b610557565b005b6101be610a44565b6040516101cb9190611932565b60405180910390f35b6101ee60048036038101906101e99190611c7a565b610ad2565b6040516101fb9190611d83565b60405180910390f35b61021e60048036038101906102199190611da5565b610d48565b005b610228610e73565b005b610232610efb565b60405161023f9190611932565b60405180910390f35b610250610f89565b60405161025d9190611de1565b60405180910390f35b610280600480360381019061027b9190611da5565b610fb2565b005b61029c60048036038101906102979190611c7a565b6110dd565b6040516102af9796959493929190611e1a565b60405180910390f35b6102d260048036038101906102cd9190611e90565b611248565b6040516102df919061201b565b60405180910390f35b61030260048036038101906102fd919061203d565b6114e2565b60405161030f919061206a565b60405180910390f35b610332600480360381019061032d9190611da5565b61151a565b005b60055481565b60018054610347906120b4565b80601f0160208091040260200160405190810160405280929190818152602001828054610373906120b4565b80156103c05780601f10610395576101008083540402835291602001916103c0565b820191906000526020600020905b8154815290600101906020018083116103a357829003601f168201915b505050505081565b600460009054906101000a900460ff1681565b6103e36116de565b6103eb6116de565b600180546103f8906120b4565b80601f0160208091040260200160405190810160405280929190818152602001828054610424906120b4565b80156104715780601f1061044657610100808354040283529160200191610471565b820191906000526020600020905b81548152906001019060200180831161045457829003601f168201915b505050505081604001819052506002805461048b906120b4565b80601f01602080910402602001604051908101604052809291908181526020018280546104b7906120b4565b80156105045780601f106104d957610100808354040283529160200191610504565b820191906000526020600020905b8154815290600101906020018083116104e757829003601f168201915b50505050508160600181905250600460009054906101000a900460ff168160200190600181111561053857610537611954565b5b9081600181111561054c5761054b611954565b5b815250508091505090565b60011515600660003373ffffffffffffffffffffffffffffffffffffffff1673ffffffffffffffffffffffffffffffffffffffff16815260200190815260200160002060009054906101000a900460ff16151514806105e857506105b9610f89565b73ffffffffffffffffffffffffffffffffffffffff163373ffffffffffffffffffffffffffffffffffffffff16145b610627576040517f08c379a000000000000000000000000000000000000000000000000000000000815260040161061e90612132565b60405180910390fd5b61062f611735565b60018160400190151590811515815250508181606001901515908115158152505060055481600001818152505082816020019073ffffffffffffffffffffffffffffffffffffffff16908173ffffffffffffffffffffffffffffffffffffffff1681525050838160a0019077ffffffffffffffffffffffffffffffffffffffffffffffff1916908177ffffffffffffffffffffffffffffffffffffffffffffffff19168152505084816080019077ffffffffffffffffffffffffffffffffffffffffffffffff1916908177ffffffffffffffffffffffffffffffffffffffffffffffff1916815250506000600860008777ffffffffffffffffffffffffffffffffffffffffffffffff191677ffffffffffffffffffffffffffffffffffffffffffffffff191681526020019081526020016000208054905014156107d6578460076000600554815260200190815260200160002060006101000a81548167ffffffffffffffff02191690837801000000000000000000000000000000000000000000000000900402179055506005600081546107ca90612181565b91905081905550610898565b60001515600860008777ffffffffffffffffffffffffffffffffffffffffffffffff191677ffffffffffffffffffffffffffffffffffffffffffffffff19168152602001908152602001600020600081548110610836576108356121ca565b5b906000526020600020906004020160010160159054906101000a900460ff16151514610897576040517f08c379a000000000000000000000000000000000000000000000000000000000815260040161088e90612245565b60405180910390fd5b5b600860008677ffffffffffffffffffffffffffffffffffffffffffffffff191677ffffffffffffffffffffffffffffffffffffffffffffffff191681526020019081526020016000208190806001815401808255809150506001900390600052602060002090600402016000909190919091506000820151816000015560208201518160010160006101000a81548173ffffffffffffffffffffffffffffffffffffffff021916908373ffffffffffffffffffffffffffffffffffffffff16021790555060408201518160010160146101000a81548160ff02191690831515021790555060608201518160010160156101000a81548160ff02191690831515021790555060808201518160010160166101000a81548167ffffffffffffffff021916908378010000000000000000000000000000000000000000000000009004021790555060a08201518160020160006101000a81548167ffffffffffffffff021916908378010000000000000000000000000000000000000000000000009004021790555060c0820151816003019080519060200190610a3a9291906117c2565b5050505050505050565b60038054610a51906120b4565b80601f0160208091040260200160405190810160405280929190818152602001828054610a7d906120b4565b8015610aca5780601f10610a9f57610100808354040283529160200191610aca565b820191906000526020600020905b815481529060010190602001808311610aad57829003601f168201915b505050505081565b610ada611735565b600860008477ffffffffffffffffffffffffffffffffffffffffffffffff191677ffffffffffffffffffffffffffffffffffffffffffffffff191681526020019081526020016000208281548110610b3557610b346121ca565b5b90600052602060002090600402016040518060e0016040529081600082015481526020016001820160009054906101000a900473ffffffffffffffffffffffffffffffffffffffff1673ffffffffffffffffffffffffffffffffffffffff1673ffffffffffffffffffffffffffffffffffffffff1681526020016001820160149054906101000a900460ff161515151581526020016001820160159054906101000a900460ff161515151581526020016001820160169054906101000a900478010000000000000000000000000000000000000000000000000277ffffffffffffffffffffffffffffffffffffffffffffffff191677ffffffffffffffffffffffffffffffffffffffffffffffff191681526020016002820160009054906101000a900478010000000000000000000000000000000000000000000000000277ffffffffffffffffffffffffffffffffffffffffffffffff191677ffffffffffffffffffffffffffffffffffffffffffffffff19168152602001600382018054610cbe906120b4565b80601f0160208091040260200160405190810160405280929190818152602001828054610cea906120b4565b8015610d375780601f10610d0c57610100808354040283529160200191610d37565b820191906000526020600020905b815481529060010190602001808311610d1a57829003601f168201915b505050505081525050905092915050565b60011515600660003373ffffffffffffffffffffffffffffffffffffffff1673ffffffffffffffffffffffffffffffffffffffff16815260200190815260200160002060009054906101000a900460ff1615151480610dd95750610daa610f89565b73ffffffffffffffffffffffffffffffffffffffff163373ffffffffffffffffffffffffffffffffffffffff16145b610e18576040517f08c379a0000000000000000000000000000000000000000000000000000000008152600401610e0f90612132565b60405180910390fd5b6001600660008373ffffffffffffffffffffffffffffffffffffffff1673ffffffffffffffffffffffffffffffffffffffff16815260200190815260200160002060006101000a81548160ff02191690831515021790555050565b610e7b611612565b73ffffffffffffffffffffffffffffffffffffffff16610e99610f89565b73ffffffffffffffffffffffffffffffffffffffff1614610eef576040517f08c379a0000000000000000000000000000000000000000000000000000000008152600401610ee6906122b1565b60405180910390fd5b610ef9600061161a565b565b60028054610f08906120b4565b80601f0160208091040260200160405190810160405280929190818152602001828054610f34906120b4565b8015610f815780601f10610f5657610100808354040283529160200191610f81565b820191906000526020600020905b815481529060010190602001808311610f6457829003601f168201915b505050505081565b60008060009054906101000a900473ffffffffffffffffffffffffffffffffffffffff16905090565b60011515600660003373ffffffffffffffffffffffffffffffffffffffff1673ffffffffffffffffffffffffffffffffffffffff16815260200190815260200160002060009054906101000a900460ff16151514806110435750611014610f89565b73ffffffffffffffffffffffffffffffffffffffff163373ffffffffffffffffffffffffffffffffffffffff16145b611082576040517f08c379a000000000000000000000000000000000000000000000000000000000815260040161107990612132565b60405180910390fd5b6000600660008373ffffffffffffffffffffffffffffffffffffffff1673ffffffffffffffffffffffffffffffffffffffff16815260200190815260200160002060006101000a81548160ff02191690831515021790555050565b600860205281600052604060002081815481106110f957600080fd5b9060005260206000209060040201600091509150508060000154908060010160009054906101000a900473ffffffffffffffffffffffffffffffffffffffff16908060010160149054906101000a900460ff16908060010160159054906101000a900460ff16908060010160169054906101000a9004780100000000000000000000000000000000000000000000000002908060020160009054906101000a9004780100000000000000000000000000000000000000000000000002908060030180546111c5906120b4565b80601f01602080910402602001604051908101604052809291908181526020018280546111f1906120b4565b801561123e5780601f106112135761010080835404028352916020019161123e565b820191906000526020600020905b81548152906001019060200180831161122157829003601f168201915b5050505050905087565b6060600860008377ffffffffffffffffffffffffffffffffffffffffffffffff191677ffffffffffffffffffffffffffffffffffffffffffffffff19168152602001908152602001600020805480602002602001604051908101604052809291908181526020016000905b828210156114d757838290600052602060002090600402016040518060e0016040529081600082015481526020016001820160009054906101000a900473ffffffffffffffffffffffffffffffffffffffff1673ffffffffffffffffffffffffffffffffffffffff1673ffffffffffffffffffffffffffffffffffffffff1681526020016001820160149054906101000a900460ff161515151581526020016001820160159054906101000a900460ff161515151581526020016001820160169054906101000a900478010000000000000000000000000000000000000000000000000277ffffffffffffffffffffffffffffffffffffffffffffffff191677ffffffffffffffffffffffffffffffffffffffffffffffff191681526020016002820160009054906101000a900478010000000000000000000000000000000000000000000000000277ffffffffffffffffffffffffffffffffffffffffffffffff191677ffffffffffffffffffffffffffffffffffffffffffffffff19168152602001600382018054611446906120b4565b80601f0160208091040260200160405190810160405280929190818152602001828054611472906120b4565b80156114bf5780601f10611494576101008083540402835291602001916114bf565b820191906000526020600020905b8154815290600101906020018083116114a257829003601f168201915b505050505081525050815260200190600101906112b3565b505050509050919050565b60076020528060005260406000206000915054906101000a900478010000000000000000000000000000000000000000000000000281565b611522611612565b73ffffffffffffffffffffffffffffffffffffffff16611540610f89565b73ffffffffffffffffffffffffffffffffffffffff1614611596576040517f08c379a000000000000000000000000000000000000000000000000000000000815260040161158d906122b1565b60405180910390fd5b600073ffffffffffffffffffffffffffffffffffffffff168173ffffffffffffffffffffffffffffffffffffffff161415611606576040517f08c379a00000000000000000000000000000000000000000000000000000000081526004016115fd90612343565b60405180910390fd5b61160f8161161a565b50565b600033905090565b60008060009054906101000a900473ffffffffffffffffffffffffffffffffffffffff169050816000806101000a81548173ffffffffffffffffffffffffffffffffffffffff021916908373ffffffffffffffffffffffffffffffffffffffff1602179055508173ffffffffffffffffffffffffffffffffffffffff168173ffffffffffffffffffffffffffffffffffffffff167f8be0079c531659141344cd1fd0a4f28419497f9722a3daafe3b4186f6b6457e060405160405180910390a35050565b6040518060a00160405280600073ffffffffffffffffffffffffffffffffffffffff1681526020016000600181111561171a57611719611954565b5b81526020016060815260200160608152602001606081525090565b6040518060e0016040528060008152602001600073ffffffffffffffffffffffffffffffffffffffff168152602001600015158152602001600015158152602001600077ffffffffffffffffffffffffffffffffffffffffffffffff19168152602001600077ffffffffffffffffffffffffffffffffffffffffffffffff19168152602001606081525090565b8280546117ce906120b4565b90600052602060002090601f0160209004810192826117f05760008555611837565b82601f1061180957805160ff1916838001178555611837565b82800160010185558215611837579182015b8281111561183657825182559160200191906001019061181b565b5b5090506118449190611848565b5090565b5b80821115611861576000816000905550600101611849565b5090565b6000819050919050565b61187881611865565b82525050565b6000602082019050611893600083018461186f565b92915050565b600081519050919050565b600082825260208201905092915050565b60005b838110156118d35780820151818401526020810190506118b8565b838111156118e2576000848401525b50505050565b6000601f19601f8301169050919050565b600061190482611899565b61190e81856118a4565b935061191e8185602086016118b5565b611927816118e8565b840191505092915050565b6000602082019050818103600083015261194c81846118f9565b905092915050565b7f4e487b7100000000000000000000000000000000000000000000000000000000600052602160045260246000fd5b6002811061199457611993611954565b5b50565b60008190506119a582611983565b919050565b60006119b582611997565b9050919050565b6119c5816119aa565b82525050565b60006020820190506119e060008301846119bc565b92915050565b600073ffffffffffffffffffffffffffffffffffffffff82169050919050565b6000611a11826119e6565b9050919050565b611a2181611a06565b82525050565b611a30816119aa565b82525050565b600082825260208201905092915050565b6000611a5282611899565b611a5c8185611a36565b9350611a6c8185602086016118b5565b611a75816118e8565b840191505092915050565b600060a083016000830151611a986000860182611a18565b506020830151611aab6020860182611a27565b5060408301518482036040860152611ac38282611a47565b91505060608301518482036060860152611add8282611a47565b91505060808301518482036080860152611af78282611a47565b9150508091505092915050565b60006020820190508181036000830152611b1e8184611a80565b905092915050565b600080fd5b60007fffffffffffffffff00000000000000000000000000000000000000000000000082169050919050565b611b6081611b2b565b8114611b6b57600080fd5b50565b600081359050611b7d81611b57565b92915050565b611b8c81611a06565b8114611b9757600080fd5b50565b600081359050611ba981611b83565b92915050565b60008115159050919050565b611bc481611baf565b8114611bcf57600080fd5b50565b600081359050611be181611bbb565b92915050565b60008060008060808587031215611c0157611c00611b26565b5b6000611c0f87828801611b6e565b9450506020611c2087828801611b6e565b9350506040611c3187828801611b9a565b9250506060611c4287828801611bd2565b91505092959194509250565b611c5781611865565b8114611c6257600080fd5b50565b600081359050611c7481611c4e565b92915050565b60008060408385031215611c9157611c90611b26565b5b6000611c9f85828601611b6e565b9250506020611cb085828601611c65565b9150509250929050565b611cc381611865565b82525050565b611cd281611baf565b82525050565b611ce181611b2b565b82525050565b600060e083016000830151611cff6000860182611cba565b506020830151611d126020860182611a18565b506040830151611d256040860182611cc9565b506060830151611d386060860182611cc9565b506080830151611d4b6080860182611cd8565b5060a0830151611d5e60a0860182611cd8565b5060c083015184820360c0860152611d768282611a47565b9150508091505092915050565b60006020820190508181036000830152611d9d8184611ce7565b905092915050565b600060208284031215611dbb57611dba611b26565b5b6000611dc984828501611b9a565b91505092915050565b611ddb81611a06565b82525050565b6000602082019050611df66000830184611dd2565b92915050565b611e0581611baf565b82525050565b611e1481611b2b565b82525050565b600060e082019050611e2f600083018a61186f565b611e3c6020830189611dd2565b611e496040830188611dfc565b611e566060830187611dfc565b611e636080830186611e0b565b611e7060a0830185611e0b565b81810360c0830152611e8281846118f9565b905098975050505050505050565b600060208284031215611ea657611ea5611b26565b5b6000611eb484828501611b6e565b91505092915050565b600081519050919050565b600082825260208201905092915050565b6000819050602082019050919050565b600060e083016000830151611f016000860182611cba565b506020830151611f146020860182611a18565b506040830151611f276040860182611cc9565b506060830151611f3a6060860182611cc9565b506080830151611f4d6080860182611cd8565b5060a0830151611f6060a0860182611cd8565b5060c083015184820360c0860152611f788282611a47565b9150508091505092915050565b6000611f918383611ee9565b905092915050565b6000602082019050919050565b6000611fb182611ebd565b611fbb8185611ec8565b935083602082028501611fcd85611ed9565b8060005b858110156120095784840389528151611fea8582611f85565b9450611ff583611f99565b925060208a01995050600181019050611fd1565b50829750879550505050505092915050565b600060208201905081810360008301526120358184611fa6565b905092915050565b60006020828403121561205357612052611b26565b5b600061206184828501611c65565b91505092915050565b600060208201905061207f6000830184611e0b565b92915050565b7f4e487b7100000000000000000000000000000000000000000000000000000000600052602260045260246000fd5b600060028204905060018216806120cc57607f821691505b602082108114156120e0576120df612085565b5b50919050565b7f4e6f7420617574686f72697a6564000000000000000000000000000000000000600082015250565b600061211c600e836118a4565b9150612127826120e6565b602082019050919050565b6000602082019050818103600083015261214b8161210f565b9050919050565b7f4e487b7100000000000000000000000000000000000000000000000000000000600052601160045260246000fd5b600061218c82611865565b91507fffffffffffffffffffffffffffffffffffffffffffffffffffffffffffffffff8214156121bf576121be612152565b5b600182019050919050565b7f4e487b7100000000000000000000000000000000000000000000000000000000600052603260045260246000fd5b7f416c7265616479206861766520746869732074797065206f66206d6f64756c65600082015250565b600061222f6020836118a4565b915061223a826121f9565b602082019050919050565b6000602082019050818103600083015261225e81612222565b9050919050565b7f4f776e61626c653a2063616c6c6572206973206e6f7420746865206f776e6572600082015250565b600061229b6020836118a4565b91506122a682612265565b602082019050919050565b600060208201905081810360008301526122ca8161228e565b9050919050565b7f4f776e61626c653a206e6577206f776e657220697320746865207a65726f206160008201527f6464726573730000000000000000000000000000000000000000000000000000602082015250565b600061232d6026836118a4565b9150612338826122d1565b604082019050919050565b6000602082019050818103600083015261235c81612320565b905091905056fea26469706673582212207b21acf9e474ea8db3c3985bf10909bea800f4f96669281da0d0734577e16b5b64736f6c63430008090033",
  "immutableReferences": {},
  "source": "// SPDX-License-Identifier: MIT\npragma solidity ^0.8.9;\n\nimport \"@openzeppelin/contracts/access/Ownable.sol\";\nimport \"./Data.sol\";\n\n/**\n* @title DaoBase\n* @author chixx.eth & Mourad M.\n* @notice DaoBase represents a DAO, deployed by DaosFactory to create a new dao. DaoBase store general infos and all the\n* modules references for the dao\n*/\ncontract DaoBase is Ownable {\n  /**\n  * @notice name of the dao\n  */\n  string public name;\n\n  /**\n  * @notice description of the dao\n  */\n  string public description;\n\n  /*\n  * @notice rules of the dao\n  */\n  string public rules;\n\n  /** \n  * @notice indicates if dao is visible by not members\n  */\n  Data.visibilityEnum public visibility;\n\n  /**\n  * @notice counter of modules of the dao\n  */\n  uint256 public modulesTypeCount;\n\n  /**\n  * @notice store address that can interact with only owner functions. mapping of user or contract address and an boolean indicating if if is authorized\n  */\n  mapping(address => bool) private authorizedContracts;\n\n  /**\n  * @dev moduleType: mapping of module identifier and hashed type module\n  * @notice store module types by module identifier\n  */\n  mapping(uint256 => bytes8) public moduleType;\n\n  /**\n  * @dev mapping of modules array by hashed type module\n  * @notice store module informations\n  */\n  mapping(bytes8 => Data.Module[]) public modules;\n\n  event DaoCreated(address daoAddress, address creatorAddress);\n  event ModuleAdded(string moduleCode, address moduleAddress, address adderAddress);\n\n  /**\n  * @notice check if msg.sender is autorized\n  */\n  modifier onlyAuthorizeContracts() {\n    require(authorizedContracts[msg.sender] == true, \"Not authorized\");\n    _;\n  }\n\n  /**\n  * @notice check if msg.sender is autorized\n  */\n  modifier onlyAuthorizeContractsOrOwner() {\n    require(((authorizedContracts[msg.sender] == true) || msg.sender == owner()), \"Not authorized\");\n    _;\n  }\n\n   /**\n  * @notice contract creation actions/settings\n  * @param _name name of the Dao\n  * @param _description description of the Dao\n  * @param _visibility visibility of the dao see ./Data.sol\n  * @param _rules rules of the Dao\n  */\n  constructor(\n    string memory _name,\n    string memory _description,\n    Data.visibilityEnum _visibility,\n    string memory _rules\n  ) {\n    name = _name;\n    description = _description;\n    rules = _rules;\n    visibility = _visibility;\n  }\n\n  /**\n  * @notice add new module to the Dao\n  * @param _type type hash of the module\n  * @param _code code hash of the module\n  * @param _moduleAddr address of the module\n  * @param _isExclusive if the type module can have multiple module\n  */\n  function addModule(bytes8 _type, bytes8 _code, address _moduleAddr, bool _isExclusive)\n    public\n    onlyAuthorizeContractsOrOwner()\n  {\n    Data.Module memory newModule;\n    newModule.isActive = true;\n    newModule.isExclusive = _isExclusive;\n    newModule.id = modulesTypeCount;\n    newModule.moduleAddress = _moduleAddr;\n    newModule.moduleCode = _code;\n    newModule.moduleType = _type;\n    if(modules[_type].length == 0) {\n      moduleType[modulesTypeCount] = _type;\n      ++modulesTypeCount;\n    } else {\n      require(modules[_type][0].isExclusive == false, \"Already have this type of module\");\n    }\n    modules[_type].push(newModule);\n  }\n\n  /**\n  * @notice authorized a new address\n  * @param _contractAddress address to authorized\n  */\n  function authorizeContract(address _contractAddress) external onlyAuthorizeContractsOrOwner() {\n    authorizedContracts[_contractAddress] = true;\n  }\n\n  /**\n  * @notice deny an authorized address \n  * @param _contractAddress address to deny authorization\n  */\n  function denyContract(address _contractAddress) external onlyAuthorizeContractsOrOwner() {\n    authorizedContracts[_contractAddress] = false;\n  }\n\n  /**\n  * @notice get array of all module from a certain type\n  * @param _type type hash of the module\n  * @return array of module, module type & code hash see >/Data.sol\n  */\n  function getModuleData(bytes8 _type) public view returns(Data.Module[] memory) {\n    return(modules[_type]);\n  }\n\n  /**\n  * @notice get module info from a certain type from a specific index\n  * @param _type type hash of the module\n  * @param _index index of the module\n  * @return module type & code hash\n  */\n  function getModuleDataByIndex(bytes8 _type, uint256 _index) external view returns(Data.Module memory) {\n    return(modules[_type][_index]);\n  }\n\n  /**\n  * @notice get Dao informations\n  * @return DaoSettings informations of the dao\n  */\n  function getDaoSettings() public view returns(Data.DaoSettings memory) {\n    Data.DaoSettings memory daoSettings;\n    daoSettings.name = name;\n    daoSettings.description = description;\n    daoSettings.visibility = visibility;\n    return daoSettings;\n  }\n}",
  "sourcePath": "/Users/chinoiserie/delivery/BLOCKCHAIN/Alyra/MY-DAO/contracts/DaoBase.sol",
  "compiler": {
    "name": "solc",
    "version": "0.8.9+commit.e5eed63a.Emscripten.clang"
  },
  "schemaVersion": "3.2.0",
  "updatedAt": "2022-05-22T22:43:36.283Z",
  "devdoc": {
    "author": "chixx.eth & Mourad M.",
    "kind": "dev",
    "methods": {
      "addModule(bytes8,bytes8,address,bool)": {
        "params": {
          "_code": "code hash of the module",
          "_isExclusive": "if the type module can have multiple module",
          "_moduleAddr": "address of the module",
          "_type": "type hash of the module"
        }
      },
      "authorizeContract(address)": {
        "params": {
          "_contractAddress": "address to authorized"
        }
      },
      "constructor": {
        "params": {
          "_description": "description of the Dao",
          "_name": "name of the Dao",
          "_rules": "rules of the Dao",
          "_visibility": "visibility of the dao see ./Data.sol"
        }
      },
      "denyContract(address)": {
        "params": {
          "_contractAddress": "address to deny authorization"
        }
      },
      "getDaoSettings()": {
        "returns": {
          "_0": "DaoSettings informations of the dao"
        }
      },
      "getModuleData(bytes8)": {
        "params": {
          "_type": "type hash of the module"
        },
        "returns": {
          "_0": "array of module, module type & code hash see >/Data.sol"
        }
      },
      "getModuleDataByIndex(bytes8,uint256)": {
        "params": {
          "_index": "index of the module",
          "_type": "type hash of the module"
        },
        "returns": {
          "_0": "module type & code hash"
        }
      },
      "owner()": {
        "details": "Returns the address of the current owner."
      },
      "renounceOwnership()": {
        "details": "Leaves the contract without owner. It will not be possible to call `onlyOwner` functions anymore. Can only be called by the current owner. NOTE: Renouncing ownership will leave the contract without an owner, thereby removing any functionality that is only available to the owner."
      },
      "transferOwnership(address)": {
        "details": "Transfers ownership of the contract to a new account (`newOwner`). Can only be called by the current owner."
      }
    },
    "stateVariables": {
      "moduleType": {
        "details": "moduleType: mapping of module identifier and hashed type module"
      },
      "modules": {
        "details": "mapping of modules array by hashed type module"
      }
    },
    "title": "DaoBase",
    "version": 1
  },
  "userdoc": {
    "kind": "user",
    "methods": {
      "addModule(bytes8,bytes8,address,bool)": {
        "notice": "add new module to the Dao"
      },
      "authorizeContract(address)": {
        "notice": "authorized a new address"
      },
      "constructor": {
        "notice": "contract creation actions/settings"
      },
      "denyContract(address)": {
        "notice": "deny an authorized address "
      },
      "description()": {
        "notice": "description of the dao"
      },
      "getDaoSettings()": {
        "notice": "get Dao informations"
      },
      "getModuleData(bytes8)": {
        "notice": "get array of all module from a certain type"
      },
      "getModuleDataByIndex(bytes8,uint256)": {
        "notice": "get module info from a certain type from a specific index"
      },
      "moduleType(uint256)": {
        "notice": "store module types by module identifier"
      },
      "modules(bytes8,uint256)": {
        "notice": "store module informations"
      },
      "modulesTypeCount()": {
        "notice": "counter of modules of the dao"
      },
      "name()": {
        "notice": "name of the dao"
      },
      "visibility()": {
        "notice": "indicates if dao is visible by not members"
      }
    },
    "notice": "DaoBase represents a DAO, deployed by DaosFactory to create a new dao. DaoBase store general infos and all the modules references for the dao",
    "version": 1
  }
}