{
  "contractName": "DaoERC721",
  "abi": [
    {
      "inputs": [
        {
          "internalType": "address",
          "name": "_owner",
          "type": "address"
        },
        {
          "internalType": "bool",
          "name": "_visibility",
          "type": "bool"
        },
        {
          "internalType": "address[]",
          "name": "_approvedCollection",
          "type": "address[]"
        }
      ],
      "stateMutability": "nonpayable",
      "type": "constructor"
    },
    {
      "anonymous": false,
      "inputs": [
        {
          "indexed": false,
          "internalType": "address",
          "name": "newApprovedCollection",
          "type": "address"
        },
        {
          "indexed": false,
          "internalType": "address",
          "name": "owner",
          "type": "address"
        }
      ],
      "name": "AddApprovedCollection",
      "type": "event"
    },
    {
      "anonymous": false,
      "inputs": [
        {
          "indexed": false,
          "internalType": "address",
          "name": "collectionRemoved",
          "type": "address"
        },
        {
          "indexed": false,
          "internalType": "address",
          "name": "owner",
          "type": "address"
        }
      ],
      "name": "RemoveApprovedCollection",
      "type": "event"
    },
    {
      "inputs": [
        {
          "internalType": "uint256",
          "name": "",
          "type": "uint256"
        }
      ],
      "name": "collectionApproved",
      "outputs": [
        {
          "internalType": "address",
          "name": "",
          "type": "address"
        }
      ],
      "stateMutability": "view",
      "type": "function"
    },
    {
      "inputs": [
        {
          "internalType": "uint256",
          "name": "",
          "type": "uint256"
        }
      ],
      "name": "owners",
      "outputs": [
        {
          "internalType": "address",
          "name": "",
          "type": "address"
        }
      ],
      "stateMutability": "view",
      "type": "function"
    },
    {
      "inputs": [],
      "name": "visibility",
      "outputs": [
        {
          "internalType": "bool",
          "name": "",
          "type": "bool"
        }
      ],
      "stateMutability": "view",
      "type": "function"
    },
    {
      "inputs": [
        {
          "internalType": "address",
          "name": "_user",
          "type": "address"
        }
      ],
      "name": "autantifyUser",
      "outputs": [
        {
          "internalType": "bool",
          "name": "",
          "type": "bool"
        }
      ],
      "stateMutability": "view",
      "type": "function"
    },
    {
      "inputs": [
        {
          "internalType": "address",
          "name": "_newCollection",
          "type": "address"
        }
      ],
      "name": "addApprovedCollection",
      "outputs": [],
      "stateMutability": "nonpayable",
      "type": "function"
    },
    {
      "inputs": [
        {
          "internalType": "address",
          "name": "_removedCollection",
          "type": "address"
        }
      ],
      "name": "removeApprovedCollection",
      "outputs": [],
      "stateMutability": "nonpayable",
      "type": "function"
    }
  ],
  "bytecode": "0x60806040523480156200001157600080fd5b506040516200106038038062001060833981810160405281019062000037919062000412565b6000339080600181540180825580915050600190039060005260206000200160009091909190916101000a81548173ffffffffffffffffffffffffffffffffffffffff021916908373ffffffffffffffffffffffffffffffffffffffff1602179055506000839080600181540180825580915050600190039060005260206000200160009091909190916101000a81548173ffffffffffffffffffffffffffffffffffffffff021916908373ffffffffffffffffffffffffffffffffffffffff16021790555081600260006101000a81548160ff02191690831515021790555080600190805190602001906200012f92919062000139565b505050506200048d565b828054828255906000526020600020908101928215620001b5579160200282015b82811115620001b45782518260006101000a81548173ffffffffffffffffffffffffffffffffffffffff021916908373ffffffffffffffffffffffffffffffffffffffff160217905550916020019190600101906200015a565b5b509050620001c49190620001c8565b5090565b5b80821115620001e3576000816000905550600101620001c9565b5090565b6000604051905090565b600080fd5b600080fd5b600073ffffffffffffffffffffffffffffffffffffffff82169050919050565b60006200022882620001fb565b9050919050565b6200023a816200021b565b81146200024657600080fd5b50565b6000815190506200025a816200022f565b92915050565b60008115159050919050565b620002778162000260565b81146200028357600080fd5b50565b60008151905062000297816200026c565b92915050565b600080fd5b6000601f19601f8301169050919050565b7f4e487b7100000000000000000000000000000000000000000000000000000000600052604160045260246000fd5b620002ed82620002a2565b810181811067ffffffffffffffff821117156200030f576200030e620002b3565b5b80604052505050565b600062000324620001e7565b9050620003328282620002e2565b919050565b600067ffffffffffffffff821115620003555762000354620002b3565b5b602082029050602081019050919050565b600080fd5b6000620003826200037c8462000337565b62000318565b90508083825260208201905060208402830185811115620003a857620003a762000366565b5b835b81811015620003d55780620003c0888262000249565b845260208401935050602081019050620003aa565b5050509392505050565b600082601f830112620003f757620003f66200029d565b5b8151620004098482602086016200036b565b91505092915050565b6000806000606084860312156200042e576200042d620001f1565b5b60006200043e8682870162000249565b9350506020620004518682870162000286565b925050604084015167ffffffffffffffff811115620004755762000474620001f6565b5b6200048386828701620003df565b9150509250925092565b610bc3806200049d6000396000f3fe608060405234801561001057600080fd5b506004361061007f576000357c010000000000000000000000000000000000000000000000000000000090048063025e7c271461008457806329adec14146100b45780632a399ada146100d25780636f3703ff146101025780639e55378e1461011e578063e73a56061461013a575b600080fd5b61009e60048036038101906100999190610817565b61016a565b6040516100ab9190610885565b60405180910390f35b6100bc6101a9565b6040516100c991906108bb565b60405180910390f35b6100ec60048036038101906100e79190610902565b6101bc565b6040516100f991906108bb565b60405180910390f35b61011c60048036038101906101179190610902565b610313565b005b61013860048036038101906101339190610902565b61048d565b005b610154600480360381019061014f9190610817565b610787565b6040516101619190610885565b60405180910390f35b6000818154811061017a57600080fd5b906000526020600020016000915054906101000a900473ffffffffffffffffffffffffffffffffffffffff1681565b600260009054906101000a900460ff1681565b60008060005b6001805490508110156102c557600181815481106101e3576101e261092f565b5b9060005260206000200160009054906101000a900473ffffffffffffffffffffffffffffffffffffffff1673ffffffffffffffffffffffffffffffffffffffff166370a08231856040518263ffffffff167c01000000000000000000000000000000000000000000000000000000000281526004016102629190610885565b60206040518083038186803b15801561027a57600080fd5b505afa15801561028e573d6000803e3d6000fd5b505050506040513d601f19601f820116820180604052508101906102b29190610973565b9150806102be906109cf565b90506101c2565b5060008111610309576040517f08c379a000000000000000000000000000000000000000000000000000000000815260040161030090610a75565b60405180910390fd5b6001915050919050565b6000805b6000805490508110156103ac57600081815481106103385761033761092f565b5b9060005260206000200160009054906101000a900473ffffffffffffffffffffffffffffffffffffffff1673ffffffffffffffffffffffffffffffffffffffff163373ffffffffffffffffffffffffffffffffffffffff16141561039b57600191505b806103a5906109cf565b9050610317565b50806103ed576040517f08c379a00000000000000000000000000000000000000000000000000000000081526004016103e490610ae1565b60405180910390fd5b6001829080600181540180825580915050600190039060005260206000200160009091909190916101000a81548173ffffffffffffffffffffffffffffffffffffffff021916908373ffffffffffffffffffffffffffffffffffffffff1602179055507f72d70679fee5bb1daf277d28b34916cf57d98a67b0055fb1054118034239887b8233604051610481929190610b01565b60405180910390a15050565b6000805b60008054905081101561052657600081815481106104b2576104b161092f565b5b9060005260206000200160009054906101000a900473ffffffffffffffffffffffffffffffffffffffff1673ffffffffffffffffffffffffffffffffffffffff163373ffffffffffffffffffffffffffffffffffffffff16141561051557600191505b8061051f906109cf565b9050610491565b5080610567576040517f08c379a000000000000000000000000000000000000000000000000000000000815260040161055e90610ae1565b60405180910390fd5b6001808054905014156105bc57600180548061058657610585610b2a565b5b6001900381819060005260206000200160006101000a81549073ffffffffffffffffffffffffffffffffffffffff021916905590555b60005b600180549050811015610749578273ffffffffffffffffffffffffffffffffffffffff16600182815481106105f7576105f661092f565b5b9060005260206000200160009054906101000a900473ffffffffffffffffffffffffffffffffffffffff1673ffffffffffffffffffffffffffffffffffffffff161415610738576001610658600180805490506107c690919063ffffffff16565b815481106106695761066861092f565b5b9060005260206000200160009054906101000a900473ffffffffffffffffffffffffffffffffffffffff16600182815481106106a8576106a761092f565b5b9060005260206000200160006101000a81548173ffffffffffffffffffffffffffffffffffffffff021916908373ffffffffffffffffffffffffffffffffffffffff160217905550600180548061070257610701610b2a565b5b6001900381819060005260206000200160006101000a81549073ffffffffffffffffffffffffffffffffffffffff021916905590555b80610742906109cf565b90506105bf565b507f74307ddbb3a756ba69c2243b47f4a81c0fdc982d1b08b3f37670a862e48c346d823360405161077b929190610b01565b60405180910390a15050565b6001818154811061079757600080fd5b906000526020600020016000915054906101000a900473ffffffffffffffffffffffffffffffffffffffff1681565b600081836107d49190610b59565b905092915050565b600080fd5b6000819050919050565b6107f4816107e1565b81146107ff57600080fd5b50565b600081359050610811816107eb565b92915050565b60006020828403121561082d5761082c6107dc565b5b600061083b84828501610802565b91505092915050565b600073ffffffffffffffffffffffffffffffffffffffff82169050919050565b600061086f82610844565b9050919050565b61087f81610864565b82525050565b600060208201905061089a6000830184610876565b92915050565b60008115159050919050565b6108b5816108a0565b82525050565b60006020820190506108d060008301846108ac565b92915050565b6108df81610864565b81146108ea57600080fd5b50565b6000813590506108fc816108d6565b92915050565b600060208284031215610918576109176107dc565b5b6000610926848285016108ed565b91505092915050565b7f4e487b7100000000000000000000000000000000000000000000000000000000600052603260045260246000fd5b60008151905061096d816107eb565b92915050565b600060208284031215610989576109886107dc565b5b60006109978482850161095e565b91505092915050565b7f4e487b7100000000000000000000000000000000000000000000000000000000600052601160045260246000fd5b60006109da826107e1565b91507fffffffffffffffffffffffffffffffffffffffffffffffffffffffffffffffff821415610a0d57610a0c6109a0565b5b600182019050919050565b600082825260208201905092915050565b7f557365722064656e696564000000000000000000000000000000000000000000600082015250565b6000610a5f600b83610a18565b9150610a6a82610a29565b602082019050919050565b60006020820190508181036000830152610a8e81610a52565b9050919050565b7f4661696c6564207520617265206e6f7420746865206f776e6572000000000000600082015250565b6000610acb601a83610a18565b9150610ad682610a95565b602082019050919050565b60006020820190508181036000830152610afa81610abe565b9050919050565b6000604082019050610b166000830185610876565b610b236020830184610876565b9392505050565b7f4e487b7100000000000000000000000000000000000000000000000000000000600052603160045260246000fd5b6000610b64826107e1565b9150610b6f836107e1565b925082821015610b8257610b816109a0565b5b82820390509291505056fea264697066735822122054e85f90329fdee94d27d0216fe763da87a343d6d614a9bf4d9a26cfd719ec1c64736f6c63430008090033",
  "immutableReferences": {},
  "source": "// SPDX-License-Identifier: MIT\npragma solidity ^0.8.9;\n\nimport \"../../node_modules/@openzeppelin/contracts/utils/math/SafeMath.sol\";\nimport \"../../node_modules/@openzeppelin/contracts/token/ERC721/IERC721.sol\";\n\ncontract DaoERC721 {\n  using SafeMath for uint256;\n  address[] public owners;\n  address[] public collectionApproved;\n  bool public visibility;\n\n  event AddApprovedCollection(address newApprovedCollection, address owner);\n  event RemoveApprovedCollection(address collectionRemoved, address owner);\n\n  constructor(address _owner, bool _visibility, address[] memory _approvedCollection) {\n    owners.push(msg.sender);\n    owners.push(_owner);\n    visibility = _visibility;\n    collectionApproved = _approvedCollection;\n  }\n\n  modifier onlyOwners() {\n    bool success = false;\n    for (uint256 i = 0; i < owners.length; ++i) {\n      if(msg.sender == owners[i])\n        success = true;\n    }\n    require(success, \"Failed u are not the owner\");\n    _;\n  }\n  function autantifyUser(address _user) public view returns(bool) {\n    uint256 balance;\n    for (uint256 i = 0; i < collectionApproved.length; ++i) {\n      balance = IERC721(collectionApproved[i]).balanceOf(_user);\n    }\n    require(balance > 0, \"User denied\");\n    return true;\n  }\n\n  function addApprovedCollection(address _newCollection) external onlyOwners() {\n    collectionApproved.push(_newCollection);\n    emit AddApprovedCollection(_newCollection, msg.sender);\n  }\n  function removeApprovedCollection(address _removedCollection) external onlyOwners() {\n    if (collectionApproved.length == 1)\n      collectionApproved.pop();\n    for (uint256 i = 0; i < collectionApproved.length; ++i) {\n      if (collectionApproved[i] == _removedCollection) {\n        collectionApproved[i] = collectionApproved[collectionApproved.length.sub(1)];\n        collectionApproved.pop();\n      }\n    }\n    emit RemoveApprovedCollection(_removedCollection, msg.sender);\n  }\n}",
  "sourcePath": "/Users/chinoiserie/delivery/BLOCKCHAIN/Alyra/MY-DAO/contracts/Daos/DaoERC721.sol",
  "compiler": {
    "name": "solc",
    "version": "0.8.9+commit.e5eed63a.Emscripten.clang"
  },
  "schemaVersion": "3.2.0",
  "updatedAt": "2022-05-07T20:28:25.319Z",
  "devdoc": {
    "kind": "dev",
    "methods": {},
    "version": 1
  },
  "userdoc": {
    "kind": "user",
    "methods": {},
    "version": 1
  }
}