{
  "contractName": "DaosFactory",
  "abi": [
    {
      "anonymous": false,
      "inputs": [
        {
          "indexed": false,
          "internalType": "address",
          "name": "user",
          "type": "address"
        },
        {
          "indexed": false,
          "internalType": "string",
          "name": "name",
          "type": "string"
        },
        {
          "indexed": false,
          "internalType": "address",
          "name": "daoAddress",
          "type": "address"
        }
      ],
      "name": "DaoCreated",
      "type": "event"
    },
    {
      "anonymous": false,
      "inputs": [
        {
          "indexed": true,
          "internalType": "address",
          "name": "previousOwner",
          "type": "address"
        },
        {
          "indexed": true,
          "internalType": "address",
          "name": "newOwner",
          "type": "address"
        }
      ],
      "name": "OwnershipTransferred",
      "type": "event"
    },
    {
      "inputs": [
        {
          "internalType": "uint256",
          "name": "",
          "type": "uint256"
        }
      ],
      "name": "daos",
      "outputs": [
        {
          "internalType": "address",
          "name": "owner",
          "type": "address"
        },
        {
          "internalType": "address",
          "name": "daoAddress",
          "type": "address"
        }
      ],
      "stateMutability": "view",
      "type": "function",
      "constant": true
    },
    {
      "inputs": [
        {
          "internalType": "address",
          "name": "",
          "type": "address"
        },
        {
          "internalType": "uint256",
          "name": "",
          "type": "uint256"
        }
      ],
      "name": "membershipDaos",
      "outputs": [
        {
          "internalType": "address",
          "name": "",
          "type": "address"
        }
      ],
      "stateMutability": "view",
      "type": "function",
      "constant": true
    },
    {
      "inputs": [],
      "name": "owner",
      "outputs": [
        {
          "internalType": "address",
          "name": "",
          "type": "address"
        }
      ],
      "stateMutability": "view",
      "type": "function",
      "constant": true
    },
    {
      "inputs": [],
      "name": "renounceOwnership",
      "outputs": [],
      "stateMutability": "nonpayable",
      "type": "function"
    },
    {
      "inputs": [
        {
          "internalType": "address",
          "name": "newOwner",
          "type": "address"
        }
      ],
      "name": "transferOwnership",
      "outputs": [],
      "stateMutability": "nonpayable",
      "type": "function"
    },
    {
      "inputs": [],
      "name": "getdeployedDaos",
      "outputs": [
        {
          "components": [
            {
              "internalType": "address",
              "name": "owner",
              "type": "address"
            },
            {
              "internalType": "address",
              "name": "daoAddress",
              "type": "address"
            }
          ],
          "internalType": "struct DaosFactory.deployedDao[]",
          "name": "",
          "type": "tuple[]"
        }
      ],
      "stateMutability": "view",
      "type": "function",
      "constant": true
    },
    {
      "inputs": [
        {
          "internalType": "address",
          "name": "_addressMember",
          "type": "address"
        }
      ],
      "name": "getDaosAddressByMember",
      "outputs": [
        {
          "internalType": "address[]",
          "name": "",
          "type": "address[]"
        }
      ],
      "stateMutability": "view",
      "type": "function",
      "constant": true
    },
    {
      "inputs": [
        {
          "internalType": "string",
          "name": "_name",
          "type": "string"
        },
        {
          "internalType": "bool",
          "name": "_byInvitation",
          "type": "bool"
        },
        {
          "internalType": "string",
          "name": "_description",
          "type": "string"
        },
        {
          "internalType": "bool",
          "name": "isPrivate",
          "type": "bool"
        }
      ],
      "name": "createDAO",
      "outputs": [],
      "stateMutability": "nonpayable",
      "type": "function"
    }
  ],
  "bytecode": "0x608060405234801561001057600080fd5b5061003f61002b610044640100000000026401000000009004565b61004c640100000000026401000000009004565b610110565b600033905090565b60008060009054906101000a900473ffffffffffffffffffffffffffffffffffffffff169050816000806101000a81548173ffffffffffffffffffffffffffffffffffffffff021916908373ffffffffffffffffffffffffffffffffffffffff1602179055508173ffffffffffffffffffffffffffffffffffffffff168173ffffffffffffffffffffffffffffffffffffffff167f8be0079c531659141344cd1fd0a4f28419497f9722a3daafe3b4186f6b6457e060405160405180910390a35050565b61364d8061011f6000396000f3fe60806040523480156200001157600080fd5b5060043610620000b1576000357c0100000000000000000000000000000000000000000000000000000000900480639e99261211620000805780639e9926121462000150578063ccbbd2601462000172578063cf0e4d1914620001a9578063f2fde38b14620001c957620000b1565b80635dbe2f3f14620000b6578063715018a614620000ec5780637fda9d1e14620000f85780638da5cb5b146200012e575b600080fd5b620000d46004803603810190620000ce919062000c1f565b620001e9565b604051620000e3919062000c77565b60405180910390f35b620000f662000238565b005b62000116600480360381019062000110919062000c94565b620002c9565b60405162000125919062000d94565b60405180910390f35b6200013862000398565b60405162000147919062000c77565b60405180910390f35b6200015a620003c1565b60405162000169919062000ea8565b60405180910390f35b6200019060048036038101906200018a919062000ecc565b620004ce565b604051620001a092919062000efe565b60405180910390f35b620001c76004803603810190620001c1919062000fd6565b62000543565b005b620001e76004803603810190620001e1919062000c94565b62000952565b005b600260205281600052604060002081815481106200020657600080fd5b906000526020600020016000915091509054906101000a900473ffffffffffffffffffffffffffffffffffffffff1681565b6200024262000a55565b73ffffffffffffffffffffffffffffffffffffffff166200026262000398565b73ffffffffffffffffffffffffffffffffffffffff1614620002bb576040517f08c379a0000000000000000000000000000000000000000000000000000000008152600401620002b290620010ef565b60405180910390fd5b620002c7600062000a5d565b565b6060600260008373ffffffffffffffffffffffffffffffffffffffff1673ffffffffffffffffffffffffffffffffffffffff1681526020019081526020016000208054806020026020016040519081016040528092919081815260200182805480156200038c57602002820191906000526020600020905b8160009054906101000a900473ffffffffffffffffffffffffffffffffffffffff1673ffffffffffffffffffffffffffffffffffffffff168152602001906001019080831162000341575b50505050509050919050565b60008060009054906101000a900473ffffffffffffffffffffffffffffffffffffffff16905090565b60606003805480602002602001604051908101604052809291908181526020016000905b82821015620004c557838290600052602060002090600202016040518060400160405290816000820160009054906101000a900473ffffffffffffffffffffffffffffffffffffffff1673ffffffffffffffffffffffffffffffffffffffff1673ffffffffffffffffffffffffffffffffffffffff1681526020016001820160009054906101000a900473ffffffffffffffffffffffffffffffffffffffff1673ffffffffffffffffffffffffffffffffffffffff1673ffffffffffffffffffffffffffffffffffffffff168152505081526020019060010190620003e5565b50505050905090565b60038181548110620004df57600080fd5b90600052602060002090600202016000915090508060000160009054906101000a900473ffffffffffffffffffffffffffffffffffffffff16908060010160009054906101000a900473ffffffffffffffffffffffffffffffffffffffff16905082565b6000868686868686604051620005599062000b21565b6200056a9695949392919062001175565b604051809103906000f08015801562000587573d6000803e3d6000fd5b5090508073ffffffffffffffffffffffffffffffffffffffff166367561d93306040518263ffffffff167c0100000000000000000000000000000000000000000000000000000000028152600401620005e1919062000c77565b600060405180830381600087803b158015620005fc57600080fd5b505af115801562000611573d6000803e3d6000fd5b505050508073ffffffffffffffffffffffffffffffffffffffff1663ca6d56dc336040518263ffffffff167c01000000000000000000000000000000000000000000000000000000000281526004016200066c919062000c77565b600060405180830381600087803b1580156200068757600080fd5b505af11580156200069c573d6000803e3d6000fd5b50505050620006aa62000b2f565b33816000019073ffffffffffffffffffffffffffffffffffffffff16908173ffffffffffffffffffffffffffffffffffffffff168152505081816020019073ffffffffffffffffffffffffffffffffffffffff16908173ffffffffffffffffffffffffffffffffffffffff1681525050600381908060018154018082558091505060019003906000526020600020906002020160009091909190915060008201518160000160006101000a81548173ffffffffffffffffffffffffffffffffffffffff021916908373ffffffffffffffffffffffffffffffffffffffff16021790555060208201518160010160006101000a81548173ffffffffffffffffffffffffffffffffffffffff021916908373ffffffffffffffffffffffffffffffffffffffff1602179055505050600260003373ffffffffffffffffffffffffffffffffffffffff1673ffffffffffffffffffffffffffffffffffffffff16815260200190815260200160002081602001519080600181540180825580915050600190039060005260206000200160009091909190916101000a81548173ffffffffffffffffffffffffffffffffffffffff021916908373ffffffffffffffffffffffffffffffffffffffff1602179055508173ffffffffffffffffffffffffffffffffffffffff1663f2fde38b336040518263ffffffff167c0100000000000000000000000000000000000000000000000000000000028152600401620008d1919062000c77565b600060405180830381600087803b158015620008ec57600080fd5b505af115801562000901573d6000803e3d6000fd5b505050507fb1eee3b28a9945db09f7a21d65593e3edb51ab7b10bb1f8e713a9a6afb7e347b3389898460200151604051620009409493929190620011d4565b60405180910390a15050505050505050565b6200095c62000a55565b73ffffffffffffffffffffffffffffffffffffffff166200097c62000398565b73ffffffffffffffffffffffffffffffffffffffff1614620009d5576040517f08c379a0000000000000000000000000000000000000000000000000000000008152600401620009cc90620010ef565b60405180910390fd5b600073ffffffffffffffffffffffffffffffffffffffff168173ffffffffffffffffffffffffffffffffffffffff160362000a47576040517f08c379a000000000000000000000000000000000000000000000000000000000815260040162000a3e9062001290565b60405180910390fd5b62000a528162000a5d565b50565b600033905090565b60008060009054906101000a900473ffffffffffffffffffffffffffffffffffffffff169050816000806101000a81548173ffffffffffffffffffffffffffffffffffffffff021916908373ffffffffffffffffffffffffffffffffffffffff1602179055508173ffffffffffffffffffffffffffffffffffffffff168173ffffffffffffffffffffffffffffffffffffffff167f8be0079c531659141344cd1fd0a4f28419497f9722a3daafe3b4186f6b6457e060405160405180910390a35050565b61236580620012b383390190565b6040518060400160405280600073ffffffffffffffffffffffffffffffffffffffff168152602001600073ffffffffffffffffffffffffffffffffffffffff1681525090565b600080fd5b600080fd5b600073ffffffffffffffffffffffffffffffffffffffff82169050919050565b600062000bac8262000b7f565b9050919050565b62000bbe8162000b9f565b811462000bca57600080fd5b50565b60008135905062000bde8162000bb3565b92915050565b6000819050919050565b62000bf98162000be4565b811462000c0557600080fd5b50565b60008135905062000c198162000bee565b92915050565b6000806040838503121562000c395762000c3862000b75565b5b600062000c498582860162000bcd565b925050602062000c5c8582860162000c08565b9150509250929050565b62000c718162000b9f565b82525050565b600060208201905062000c8e600083018462000c66565b92915050565b60006020828403121562000cad5762000cac62000b75565b5b600062000cbd8482850162000bcd565b91505092915050565b600081519050919050565b600082825260208201905092915050565b6000819050602082019050919050565b62000cfd8162000b9f565b82525050565b600062000d11838362000cf2565b60208301905092915050565b6000602082019050919050565b600062000d378262000cc6565b62000d43818562000cd1565b935062000d508362000ce2565b8060005b8381101562000d8757815162000d6b888262000d03565b975062000d788362000d1d565b92505060018101905062000d54565b5085935050505092915050565b6000602082019050818103600083015262000db0818462000d2a565b905092915050565b600081519050919050565b600082825260208201905092915050565b6000819050602082019050919050565b60408201600082015162000dfc600085018262000cf2565b50602082015162000e11602085018262000cf2565b50505050565b600062000e25838362000de4565b60408301905092915050565b6000602082019050919050565b600062000e4b8262000db8565b62000e57818562000dc3565b935062000e648362000dd4565b8060005b8381101562000e9b57815162000e7f888262000e17565b975062000e8c8362000e31565b92505060018101905062000e68565b5085935050505092915050565b6000602082019050818103600083015262000ec4818462000e3e565b905092915050565b60006020828403121562000ee55762000ee462000b75565b5b600062000ef58482850162000c08565b91505092915050565b600060408201905062000f15600083018562000c66565b62000f24602083018462000c66565b9392505050565b600080fd5b600080fd5b600080fd5b60008083601f84011262000f535762000f5262000f2b565b5b8235905067ffffffffffffffff81111562000f735762000f7262000f30565b5b60208301915083600182028301111562000f925762000f9162000f35565b5b9250929050565b60008115159050919050565b62000fb08162000f99565b811462000fbc57600080fd5b50565b60008135905062000fd08162000fa5565b92915050565b6000806000806000806080878903121562000ff65762000ff562000b75565b5b600087013567ffffffffffffffff81111562001017576200101662000b7a565b5b6200102589828a0162000f3a565b965096505060206200103a89828a0162000fbf565b945050604087013567ffffffffffffffff8111156200105e576200105d62000b7a565b5b6200106c89828a0162000f3a565b935093505060606200108189828a0162000fbf565b9150509295509295509295565b600082825260208201905092915050565b7f4f776e61626c653a2063616c6c6572206973206e6f7420746865206f776e6572600082015250565b6000620010d76020836200108e565b9150620010e4826200109f565b602082019050919050565b600060208201905081810360008301526200110a81620010c8565b9050919050565b82818337600083830152505050565b6000601f19601f8301169050919050565b60006200113f83856200108e565b93506200114e83858462001111565b620011598362001120565b840190509392505050565b6200116f8162000f99565b82525050565b600060808201905081810360008301526200119281888a62001131565b9050620011a3602083018762001164565b8181036040830152620011b881858762001131565b9050620011c9606083018462001164565b979650505050505050565b6000606082019050620011eb600083018762000c66565b81810360208301526200120081858762001131565b905062001211604083018462000c66565b95945050505050565b7f4f776e61626c653a206e6577206f776e657220697320746865207a65726f206160008201527f6464726573730000000000000000000000000000000000000000000000000000602082015250565b6000620012786026836200108e565b915062001285826200121a565b604082019050919050565b60006020820190508181036000830152620012ab8162001269565b905091905056fe60806040523480156200001157600080fd5b5060405162002365380380620023658339818101604052810190620000379190620004cf565b620000696200005462000179640100000000026401000000009004565b62000181640100000000026401000000009004565b83600290805190602001906200008192919062000245565b5081600390805190602001906200009a92919062000245565b508215620000d6576000600660006101000a81548160ff02191690836002811115620000cb57620000ca6200057f565b5b021790555062000105565b6002600660006101000a81548160ff02191690836002811115620000ff57620000fe6200057f565b5b02179055505b801562000140576000600660016101000a81548160ff021916908360018111156200013557620001346200057f565b5b02179055506200016f565b6001600660016101000a81548160ff021916908360018111156200016957620001686200057f565b5b02179055505b5050505062000612565b600033905090565b60008060009054906101000a900473ffffffffffffffffffffffffffffffffffffffff169050816000806101000a81548173ffffffffffffffffffffffffffffffffffffffff021916908373ffffffffffffffffffffffffffffffffffffffff1602179055508173ffffffffffffffffffffffffffffffffffffffff168173ffffffffffffffffffffffffffffffffffffffff167f8be0079c531659141344cd1fd0a4f28419497f9722a3daafe3b4186f6b6457e060405160405180910390a35050565b8280546200025390620005dd565b90600052602060002090601f016020900481019282620002775760008555620002c3565b82601f106200029257805160ff1916838001178555620002c3565b82800160010185558215620002c3579182015b82811115620002c2578251825591602001919060010190620002a5565b5b509050620002d29190620002d6565b5090565b5b80821115620002f1576000816000905550600101620002d7565b5090565b6000604051905090565b600080fd5b600080fd5b600080fd5b600080fd5b6000601f19601f8301169050919050565b7f4e487b7100000000000000000000000000000000000000000000000000000000600052604160045260246000fd5b6200035e8262000313565b810181811067ffffffffffffffff8211171562000380576200037f62000324565b5b80604052505050565b600062000395620002f5565b9050620003a3828262000353565b919050565b600067ffffffffffffffff821115620003c657620003c562000324565b5b620003d18262000313565b9050602081019050919050565b60005b83811015620003fe578082015181840152602081019050620003e1565b838111156200040e576000848401525b50505050565b60006200042b6200042584620003a8565b62000389565b9050828152602081018484840111156200044a57620004496200030e565b5b62000457848285620003de565b509392505050565b600082601f83011262000477576200047662000309565b5b81516200048984826020860162000414565b91505092915050565b60008115159050919050565b620004a98162000492565b8114620004b557600080fd5b50565b600081519050620004c9816200049e565b92915050565b60008060008060808587031215620004ec57620004eb620002ff565b5b600085015167ffffffffffffffff8111156200050d576200050c62000304565b5b6200051b878288016200045f565b94505060206200052e87828801620004b8565b935050604085015167ffffffffffffffff81111562000552576200055162000304565b5b62000560878288016200045f565b92505060606200057387828801620004b8565b91505092959194509250565b7f4e487b7100000000000000000000000000000000000000000000000000000000600052602160045260246000fd5b7f4e487b7100000000000000000000000000000000000000000000000000000000600052602260045260246000fd5b60006002820490506001821680620005f657607f821691505b6020821081036200060c576200060b620005ae565b5b50919050565b611d4380620006226000396000f3fe608060405234801561001057600080fd5b506004361061016a576000357c010000000000000000000000000000000000000000000000000000000090048063715018a6116100e0578063b688a36311610099578063b688a36314610387578063b7e2077e14610391578063c3919443146103ad578063c47f0027146103cb578063ca6d56dc146103e7578063f2fde38b146104035761016a565b8063715018a6146102d75780637284e416146102e157806381b2248a146102ff5780638da5cb5b1461032f57806390c3f38f1461034d578063af640d0f146103695761016a565b80631f46cc62116101325780631f46cc621461021757806321175b4a1461023557806329adec14146102515780632f890b931461026f57806345ecd02f1461028b57806367561d93146102bb5761016a565b806306fdde031461016f57806308ae4b0c1461018d5780630a05fb09146101bd57806317d7de7c146101db5780631a092541146101f9575b600080fd5b61017761041f565b60405161018491906115d8565b60405180910390f35b6101a760048036038101906101a2919061166c565b6104ad565b6040516101b49190611710565b60405180910390f35b6101c56104d8565b6040516101d29190611773565b60405180910390f35b6101e36104ef565b6040516101f091906115d8565b60405180910390f35b610201610581565b60405161020e91906115d8565b60405180910390f35b61021f610613565b60405161022c91906117d6565b60405180910390f35b61024f600480360381019061024a9190611816565b610626565b005b6102596106cf565b6040516102669190611773565b60405180910390f35b6102896004803603810190610284919061166c565b6106e2565b005b6102a560048036038101906102a0919061166c565b610899565b6040516102b2919061185e565b60405180910390f35b6102d560048036038101906102d0919061166c565b610918565b005b6102df610a43565b005b6102e9610acb565b6040516102f691906115d8565b60405180910390f35b610319600480360381019061031491906118af565b610b59565b60405161032691906118eb565b60405180910390f35b610337610b7d565b6040516103449190611915565b60405180910390f35b61036760048036038101906103629190611a65565b610ba6565b005b610371610c3c565b60405161037e91906118eb565b60405180910390f35b61038f610c42565b005b6103ab60048036038101906103a6919061166c565b610f4c565b005b6103b5611077565b6040516103c291906117d6565b60405180910390f35b6103e560048036038101906103e09190611a65565b61108e565b005b61040160048036038101906103fc919061166c565b611124565b005b61041d6004803603810190610418919061166c565b6112d9565b005b6002805461042c90611add565b80601f016020809104026020016040519081016040528092919081815260200182805461045890611add565b80156104a55780601f1061047a576101008083540402835291602001916104a5565b820191906000526020600020905b81548152906001019060200180831161048857829003601f168201915b505050505081565b60056020528060005260406000206000915090508060000160009054906101000a900460ff16905081565b6000600660019054906101000a900460ff16905090565b6060600280546104fe90611add565b80601f016020809104026020016040519081016040528092919081815260200182805461052a90611add565b80156105775780601f1061054c57610100808354040283529160200191610577565b820191906000526020600020905b81548152906001019060200180831161055a57829003601f168201915b5050505050905090565b60606003805461059090611add565b80601f01602080910402602001604051908101604052809291908181526020018280546105bc90611add565b80156106095780601f106105de57610100808354040283529160200191610609565b820191906000526020600020905b8154815290600101906020018083116105ec57829003601f168201915b5050505050905090565b600660009054906101000a900460ff1681565b61062e6113d0565b73ffffffffffffffffffffffffffffffffffffffff1661064c610b7d565b73ffffffffffffffffffffffffffffffffffffffff16146106a2576040517f08c379a000000000000000000000000000000000000000000000000000000000815260040161069990611b5a565b60405180910390fd5b80600660006101000a81548160ff021916908360028111156106c7576106c6611699565b5b021790555050565b600660019054906101000a900460ff1681565b6003808111156106f5576106f4611699565b5b600560003373ffffffffffffffffffffffffffffffffffffffff1673ffffffffffffffffffffffffffffffffffffffff16815260200190815260200160002060000160009054906101000a900460ff16600381111561075757610756611699565b5b14806107b3575060011515600760003373ffffffffffffffffffffffffffffffffffffffff1673ffffffffffffffffffffffffffffffffffffffff16815260200190815260200160002060009054906101000a900460ff161515145b6107f2576040517f08c379a00000000000000000000000000000000000000000000000000000000081526004016107e990611bc6565b60405180910390fd5b6001600560008373ffffffffffffffffffffffffffffffffffffffff1673ffffffffffffffffffffffffffffffffffffffff16815260200190815260200160002060000160006101000a81548160ff0219169083600381111561085857610857611699565b5b02179055507f6c246c8894ac239253d22cd508dbe8eb7e027e0589cdd4ff16dbb4238ccd9834338260405161088e929190611be6565b60405180910390a150565b60006003808111156108ae576108ad611699565b5b600560008473ffffffffffffffffffffffffffffffffffffffff1673ffffffffffffffffffffffffffffffffffffffff16815260200190815260200160002060000160009054906101000a900460ff1660038111156109105761090f611699565b5b149050919050565b60011515600760003373ffffffffffffffffffffffffffffffffffffffff1673ffffffffffffffffffffffffffffffffffffffff16815260200190815260200160002060009054906101000a900460ff16151514806109a9575061097a610b7d565b73ffffffffffffffffffffffffffffffffffffffff163373ffffffffffffffffffffffffffffffffffffffff16145b6109e8576040517f08c379a00000000000000000000000000000000000000000000000000000000081526004016109df90611bc6565b60405180910390fd5b6001600760008373ffffffffffffffffffffffffffffffffffffffff1673ffffffffffffffffffffffffffffffffffffffff16815260200190815260200160002060006101000a81548160ff02191690831515021790555050565b610a4b6113d0565b73ffffffffffffffffffffffffffffffffffffffff16610a69610b7d565b73ffffffffffffffffffffffffffffffffffffffff1614610abf576040517f08c379a0000000000000000000000000000000000000000000000000000000008152600401610ab690611b5a565b60405180910390fd5b610ac960006113d8565b565b60038054610ad890611add565b80601f0160208091040260200160405190810160405280929190818152602001828054610b0490611add565b8015610b515780601f10610b2657610100808354040283529160200191610b51565b820191906000526020600020905b815481529060010190602001808311610b3457829003601f168201915b505050505081565b60018181548110610b6957600080fd5b906000526020600020016000915090505481565b60008060009054906101000a900473ffffffffffffffffffffffffffffffffffffffff16905090565b610bae6113d0565b73ffffffffffffffffffffffffffffffffffffffff16610bcc610b7d565b73ffffffffffffffffffffffffffffffffffffffff1614610c22576040517f08c379a0000000000000000000000000000000000000000000000000000000008152600401610c1990611b5a565b60405180910390fd5b8060039080519060200190610c3892919061149c565b5050565b60045481565b600380811115610c5557610c54611699565b5b600560003373ffffffffffffffffffffffffffffffffffffffff1673ffffffffffffffffffffffffffffffffffffffff16815260200190815260200160002060000160009054906101000a900460ff166003811115610cb757610cb6611699565b5b03610cf7576040517f08c379a0000000000000000000000000000000000000000000000000000000008152600401610cee90611bc6565b60405180910390fd5b60016003811115610d0b57610d0a611699565b5b600560003373ffffffffffffffffffffffffffffffffffffffff1673ffffffffffffffffffffffffffffffffffffffff16815260200190815260200160002060000160009054906101000a900460ff166003811115610d6d57610d6c611699565b5b148015610dad575060006002811115610d8957610d88611699565b5b600660009054906101000a900460ff166002811115610dab57610daa611699565b5b145b80610e69575060006003811115610dc757610dc6611699565b5b600560003373ffffffffffffffffffffffffffffffffffffffff1673ffffffffffffffffffffffffffffffffffffffff16815260200190815260200160002060000160009054906101000a900460ff166003811115610e2957610e28611699565b5b148015610e685750600280811115610e4457610e43611699565b5b600660009054906101000a900460ff166002811115610e6657610e65611699565b5b145b5b610ea8576040517f08c379a0000000000000000000000000000000000000000000000000000000008152600401610e9f90611c5b565b60405180910390fd5b6003600560003373ffffffffffffffffffffffffffffffffffffffff1673ffffffffffffffffffffffffffffffffffffffff16815260200190815260200160002060000160006101000a81548160ff02191690836003811115610f0e57610f0d611699565b5b02179055507f0abf3b3f643594d958297062a019458e27d7766629590ac621aa1000fa1298ab33604051610f429190611915565b60405180910390a1565b60011515600760003373ffffffffffffffffffffffffffffffffffffffff1673ffffffffffffffffffffffffffffffffffffffff16815260200190815260200160002060009054906101000a900460ff1615151480610fdd5750610fae610b7d565b73ffffffffffffffffffffffffffffffffffffffff163373ffffffffffffffffffffffffffffffffffffffff16145b61101c576040517f08c379a000000000000000000000000000000000000000000000000000000000815260040161101390611bc6565b60405180910390fd5b6000600760008373ffffffffffffffffffffffffffffffffffffffff1673ffffffffffffffffffffffffffffffffffffffff16815260200190815260200160002060006101000a81548160ff02191690831515021790555050565b6000600660009054906101000a900460ff16905090565b6110966113d0565b73ffffffffffffffffffffffffffffffffffffffff166110b4610b7d565b73ffffffffffffffffffffffffffffffffffffffff161461110a576040517f08c379a000000000000000000000000000000000000000000000000000000000815260040161110190611b5a565b60405180910390fd5b806002908051906020019061112092919061149c565b5050565b60038081111561113757611136611699565b5b600560003373ffffffffffffffffffffffffffffffffffffffff1673ffffffffffffffffffffffffffffffffffffffff16815260200190815260200160002060000160009054906101000a900460ff16600381111561119957611198611699565b5b14806111f5575060011515600760003373ffffffffffffffffffffffffffffffffffffffff1673ffffffffffffffffffffffffffffffffffffffff16815260200190815260200160002060009054906101000a900460ff161515145b611234576040517f08c379a000000000000000000000000000000000000000000000000000000000815260040161122b90611bc6565b60405180910390fd5b6003600560008373ffffffffffffffffffffffffffffffffffffffff1673ffffffffffffffffffffffffffffffffffffffff16815260200190815260200160002060000160006101000a81548160ff0219169083600381111561129a57611299611699565b5b02179055507fb251eb052afc73ffd02ffe85ad79990a8b3fed60d76dbc2fa2fdd7123dffd914816040516112ce9190611915565b60405180910390a150565b6112e16113d0565b73ffffffffffffffffffffffffffffffffffffffff166112ff610b7d565b73ffffffffffffffffffffffffffffffffffffffff1614611355576040517f08c379a000000000000000000000000000000000000000000000000000000000815260040161134c90611b5a565b60405180910390fd5b600073ffffffffffffffffffffffffffffffffffffffff168173ffffffffffffffffffffffffffffffffffffffff16036113c4576040517f08c379a00000000000000000000000000000000000000000000000000000000081526004016113bb90611ced565b60405180910390fd5b6113cd816113d8565b50565b600033905090565b60008060009054906101000a900473ffffffffffffffffffffffffffffffffffffffff169050816000806101000a81548173ffffffffffffffffffffffffffffffffffffffff021916908373ffffffffffffffffffffffffffffffffffffffff1602179055508173ffffffffffffffffffffffffffffffffffffffff168173ffffffffffffffffffffffffffffffffffffffff167f8be0079c531659141344cd1fd0a4f28419497f9722a3daafe3b4186f6b6457e060405160405180910390a35050565b8280546114a890611add565b90600052602060002090601f0160209004810192826114ca5760008555611511565b82601f106114e357805160ff1916838001178555611511565b82800160010185558215611511579182015b828111156115105782518255916020019190600101906114f5565b5b50905061151e9190611522565b5090565b5b8082111561153b576000816000905550600101611523565b5090565b600081519050919050565b600082825260208201905092915050565b60005b8381101561157957808201518184015260208101905061155e565b83811115611588576000848401525b50505050565b6000601f19601f8301169050919050565b60006115aa8261153f565b6115b4818561154a565b93506115c481856020860161155b565b6115cd8161158e565b840191505092915050565b600060208201905081810360008301526115f2818461159f565b905092915050565b6000604051905090565b600080fd5b600080fd5b600073ffffffffffffffffffffffffffffffffffffffff82169050919050565b60006116398261160e565b9050919050565b6116498161162e565b811461165457600080fd5b50565b60008135905061166681611640565b92915050565b60006020828403121561168257611681611604565b5b600061169084828501611657565b91505092915050565b7f4e487b7100000000000000000000000000000000000000000000000000000000600052602160045260246000fd5b600481106116d9576116d8611699565b5b50565b60008190506116ea826116c8565b919050565b60006116fa826116dc565b9050919050565b61170a816116ef565b82525050565b60006020820190506117256000830184611701565b92915050565b6002811061173c5761173b611699565b5b50565b600081905061174d8261172b565b919050565b600061175d8261173f565b9050919050565b61176d81611752565b82525050565b60006020820190506117886000830184611764565b92915050565b6003811061179f5761179e611699565b5b50565b60008190506117b08261178e565b919050565b60006117c0826117a2565b9050919050565b6117d0816117b5565b82525050565b60006020820190506117eb60008301846117c7565b92915050565b600381106117fe57600080fd5b50565b600081359050611810816117f1565b92915050565b60006020828403121561182c5761182b611604565b5b600061183a84828501611801565b91505092915050565b60008115159050919050565b61185881611843565b82525050565b6000602082019050611873600083018461184f565b92915050565b6000819050919050565b61188c81611879565b811461189757600080fd5b50565b6000813590506118a981611883565b92915050565b6000602082840312156118c5576118c4611604565b5b60006118d38482850161189a565b91505092915050565b6118e581611879565b82525050565b600060208201905061190060008301846118dc565b92915050565b61190f8161162e565b82525050565b600060208201905061192a6000830184611906565b92915050565b600080fd5b600080fd5b7f4e487b7100000000000000000000000000000000000000000000000000000000600052604160045260246000fd5b6119728261158e565b810181811067ffffffffffffffff821117156119915761199061193a565b5b80604052505050565b60006119a46115fa565b90506119b08282611969565b919050565b600067ffffffffffffffff8211156119d0576119cf61193a565b5b6119d98261158e565b9050602081019050919050565b82818337600083830152505050565b6000611a08611a03846119b5565b61199a565b905082815260208101848484011115611a2457611a23611935565b5b611a2f8482856119e6565b509392505050565b600082601f830112611a4c57611a4b611930565b5b8135611a5c8482602086016119f5565b91505092915050565b600060208284031215611a7b57611a7a611604565b5b600082013567ffffffffffffffff811115611a9957611a98611609565b5b611aa584828501611a37565b91505092915050565b7f4e487b7100000000000000000000000000000000000000000000000000000000600052602260045260246000fd5b60006002820490506001821680611af557607f821691505b602082108103611b0857611b07611aae565b5b50919050565b7f4f776e61626c653a2063616c6c6572206973206e6f7420746865206f776e6572600082015250565b6000611b4460208361154a565b9150611b4f82611b0e565b602082019050919050565b60006020820190508181036000830152611b7381611b37565b9050919050565b7f4e6f7420617574686f72697a6564000000000000000000000000000000000000600082015250565b6000611bb0600e8361154a565b9150611bbb82611b7a565b602082019050919050565b60006020820190508181036000830152611bdf81611ba3565b9050919050565b6000604082019050611bfb6000830185611906565b611c086020830184611906565b9392505050565b7f496d706f737369626c6520746f206a6f696e0000000000000000000000000000600082015250565b6000611c4560128361154a565b9150611c5082611c0f565b602082019050919050565b60006020820190508181036000830152611c7481611c38565b9050919050565b7f4f776e61626c653a206e6577206f776e657220697320746865207a65726f206160008201527f6464726573730000000000000000000000000000000000000000000000000000602082015250565b6000611cd760268361154a565b9150611ce282611c7b565b604082019050919050565b60006020820190508181036000830152611d0681611cca565b905091905056fea26469706673582212202769b85f40cd78856dba85a16196d854fe74492846bcb5fcd9ea1f35809108b364736f6c634300080d0033a2646970667358221220a0aade170b2e99e59ab6c1fd71b4349e3632fb0ca609cc731f842b1d1b12115f64736f6c634300080d0033",
  "immutableReferences": {},
  "source": "// SPDX-License-Identifier: MIT\r\npragma solidity 0.8.13;\r\n\r\nimport \"../node_modules/@openzeppelin/contracts/utils/math/SafeMath.sol\";\r\nimport \"../node_modules/@openzeppelin/contracts/access/Ownable.sol\";\r\n\r\nimport './interfaces/IDaosFactory.sol';\r\nimport './Dao.sol';\r\n\r\n//is DaosFactory\r\ncontract DaosFactory is Ownable {\r\n  using SafeMath for uint256;\r\n  uint256 private daoId;\r\n\r\n  //user > daos\r\n  mapping(address => address[]) public membershipDaos;\r\n\r\n  deployedDao[] public daos;\r\n\r\n  struct deployedDao {\r\n    address owner;\r\n    address daoAddress;\r\n  }\r\n\r\n//   event DaoCreated(address user, string name, address daoAddr, uint256[] modules, uint256 id);\r\n  event DaoCreated(address user, string name, address daoAddress);\r\n\r\n  function getdeployedDaos() external view returns (deployedDao[] memory) {\r\n    return daos;\r\n  }\r\n\r\n   function getDaosAddressByMember(address _addressMember) external view returns (address[] memory) {\r\n    return (membershipDaos[_addressMember]);\r\n  }\r\n\r\n  // function getMyDaosIds() external view returns (uint256[] memory) {\r\n  //   return (myDaos[msg.sender]);\r\n  // }\r\n  // function getDaoInfoId(uint256 _id) external view returns (deployedDaos memory) {\r\n  //   return (daos[_id]);\r\n  // }\r\n  \r\n  // after create the DAO we need to change the owner because now this contract is the owner\r\n  //, uint256[] calldata _modules\r\n  function createDAO(string calldata _name, bool _byInvitation, string calldata _description, bool isPrivate) public {\r\n    Dao dao = new Dao(_name, _byInvitation, _description, isPrivate);\r\n    dao.authorizeContract(address(this));\r\n    dao.addMember(msg.sender);\r\n    deployedDao memory _dao;\r\n    _dao.owner = msg.sender;\r\n    _dao.daoAddress = address(dao);\r\n    daos.push(_dao);\r\n    membershipDaos[msg.sender].push(_dao.daoAddress);  \r\n    dao.transferOwnership(msg.sender);\r\n    // deployedDaos memory _dao;\r\n    // _dao.name = _name;\r\n    // _dao.owner = msg.sender;\r\n    // //Dao dao = new Dao();\r\n    // //address contractAddress = new Dao();\r\n    // _dao.daoAddr =  address(0); //dao.address;\r\n    // //_dao.modules = _modules;\r\n    // _dao.id = daoId;\r\n    // _dao.members.push(msg.sender);\r\n    // daos.push(_dao);\r\n    // daoId = daoId.add(1);\r\n    // // emit DaoCreated(msg.sender, _name, _dao.daoAddr, _modules, _dao.id);\r\n    emit DaoCreated(msg.sender, _name, _dao.daoAddress);\r\n  }\r\n}",
  "sourcePath": "C:\\Users\\mdmou\\source\\repos\\MY-DAO\\contracts\\DaosFactory.sol",
  "compiler": {
    "name": "solc",
    "version": "0.8.13+commit.abaa5c0e.Emscripten.clang"
  },
  "schemaVersion": "3.4.4",
  "updatedAt": "2022-05-01T12:23:31.608Z",
  "networkType": "ethereum",
  "devdoc": {
    "kind": "dev",
    "methods": {
      "owner()": {
        "details": "Returns the address of the current owner."
      },
      "renounceOwnership()": {
        "details": "Leaves the contract without owner. It will not be possible to call `onlyOwner` functions anymore. Can only be called by the current owner. NOTE: Renouncing ownership will leave the contract without an owner, thereby removing any functionality that is only available to the owner."
      },
      "transferOwnership(address)": {
        "details": "Transfers ownership of the contract to a new account (`newOwner`). Can only be called by the current owner."
      }
    },
    "version": 1
  },
  "userdoc": {
    "kind": "user",
    "methods": {},
    "version": 1
  }
}