{
  "contractName": "DaosFactory",
  "abi": [
    {
      "anonymous": false,
      "inputs": [
        {
          "indexed": false,
          "internalType": "address",
          "name": "user",
          "type": "address"
        },
        {
          "indexed": false,
          "internalType": "string",
          "name": "name",
          "type": "string"
        },
        {
          "indexed": false,
          "internalType": "address",
          "name": "daoAddress",
          "type": "address"
        }
      ],
      "name": "DaoCreated",
      "type": "event"
    },
    {
      "anonymous": false,
      "inputs": [
        {
          "indexed": false,
          "internalType": "address",
          "name": "user",
          "type": "address"
        },
        {
          "indexed": false,
          "internalType": "string",
          "name": "name",
          "type": "string"
        },
        {
          "indexed": false,
          "internalType": "address",
          "name": "daoAddress",
          "type": "address"
        }
      ],
      "name": "ModuleActivated",
      "type": "event"
    },
    {
      "anonymous": false,
      "inputs": [
        {
          "indexed": true,
          "internalType": "address",
          "name": "previousOwner",
          "type": "address"
        },
        {
          "indexed": true,
          "internalType": "address",
          "name": "newOwner",
          "type": "address"
        }
      ],
      "name": "OwnershipTransferred",
      "type": "event"
    },
    {
      "inputs": [
        {
          "internalType": "address",
          "name": "",
          "type": "address"
        },
        {
          "internalType": "address",
          "name": "",
          "type": "address"
        }
      ],
      "name": "daoOwners",
      "outputs": [
        {
          "internalType": "bool",
          "name": "",
          "type": "bool"
        }
      ],
      "stateMutability": "view",
      "type": "function",
      "constant": true
    },
    {
      "inputs": [
        {
          "internalType": "uint256",
          "name": "",
          "type": "uint256"
        }
      ],
      "name": "daos",
      "outputs": [
        {
          "internalType": "address",
          "name": "owner",
          "type": "address"
        },
        {
          "internalType": "address",
          "name": "daoAddress",
          "type": "address"
        }
      ],
      "stateMutability": "view",
      "type": "function",
      "constant": true
    },
    {
      "inputs": [
        {
          "internalType": "bytes8",
          "name": "",
          "type": "bytes8"
        },
        {
          "internalType": "bytes8",
          "name": "",
          "type": "bytes8"
        }
      ],
      "name": "modulesDaos",
      "outputs": [
        {
          "internalType": "uint256",
          "name": "id",
          "type": "uint256"
        },
        {
          "internalType": "address",
          "name": "moduleAddress",
          "type": "address"
        },
        {
          "internalType": "bool",
          "name": "isActive",
          "type": "bool"
        },
        {
          "internalType": "bytes8",
          "name": "moduleType",
          "type": "bytes8"
        },
        {
          "internalType": "bytes8",
          "name": "moduleCode",
          "type": "bytes8"
        },
        {
          "internalType": "string",
          "name": "moduleInfo",
          "type": "string"
        }
      ],
      "stateMutability": "view",
      "type": "function",
      "constant": true
    },
    {
      "inputs": [],
      "name": "owner",
      "outputs": [
        {
          "internalType": "address",
          "name": "",
          "type": "address"
        }
      ],
      "stateMutability": "view",
      "type": "function",
      "constant": true
    },
    {
      "inputs": [],
      "name": "renounceOwnership",
      "outputs": [],
      "stateMutability": "nonpayable",
      "type": "function"
    },
    {
      "inputs": [
        {
          "internalType": "address",
          "name": "newOwner",
          "type": "address"
        }
      ],
      "name": "transferOwnership",
      "outputs": [],
      "stateMutability": "nonpayable",
      "type": "function"
    },
    {
      "inputs": [],
      "name": "getdeployedDaos",
      "outputs": [
        {
          "components": [
            {
              "internalType": "address",
              "name": "owner",
              "type": "address"
            },
            {
              "internalType": "address",
              "name": "daoAddress",
              "type": "address"
            }
          ],
          "internalType": "struct DaosFactory.deployedDao[]",
          "name": "",
          "type": "tuple[]"
        }
      ],
      "stateMutability": "view",
      "type": "function",
      "constant": true
    },
    {
      "inputs": [
        {
          "internalType": "address",
          "name": "_daoAddress",
          "type": "address"
        },
        {
          "internalType": "bytes8",
          "name": "_type",
          "type": "bytes8"
        },
        {
          "internalType": "bytes8",
          "name": "_code",
          "type": "bytes8"
        }
      ],
      "name": "activateModuleForDao",
      "outputs": [
        {
          "internalType": "address",
          "name": "",
          "type": "address"
        }
      ],
      "stateMutability": "nonpayable",
      "type": "function"
    },
    {
      "inputs": [
        {
          "internalType": "address",
          "name": "_moduleAddress",
          "type": "address"
        },
        {
          "internalType": "bytes8",
          "name": "_type",
          "type": "bytes8"
        },
        {
          "internalType": "bytes8",
          "name": "_code",
          "type": "bytes8"
        }
      ],
      "name": "addModule",
      "outputs": [],
      "stateMutability": "nonpayable",
      "type": "function"
    },
    {
      "inputs": [
        {
          "internalType": "string",
          "name": "_name",
          "type": "string"
        },
        {
          "internalType": "string",
          "name": "_description",
          "type": "string"
        },
        {
          "internalType": "enum Data.visibilityEnum",
          "name": "_visibility",
          "type": "uint8"
        },
        {
          "components": [
            {
              "internalType": "bytes8",
              "name": "moduleType",
              "type": "bytes8"
            },
            {
              "internalType": "bytes8",
              "name": "moduleCode",
              "type": "bytes8"
            }
          ],
          "internalType": "struct Data.ModuleToActivate[]",
          "name": "_modules",
          "type": "tuple[]"
        }
      ],
      "name": "createDAO",
      "outputs": [],
      "stateMutability": "nonpayable",
      "type": "function"
    },
    {
      "inputs": [
        {
          "internalType": "string",
          "name": "_name",
          "type": "string"
        }
      ],
      "name": "hash",
      "outputs": [
        {
          "internalType": "bytes8",
          "name": "",
          "type": "bytes8"
        }
      ],
      "stateMutability": "pure",
      "type": "function",
      "constant": true
    }
  ],
  "bytecode": "0x60806040523480156200001157600080fd5b50620000446200002f6200004a640100000000026401000000009004565b62000052640100000000026401000000009004565b62000116565b600033905090565b60008060009054906101000a900473ffffffffffffffffffffffffffffffffffffffff169050816000806101000a81548173ffffffffffffffffffffffffffffffffffffffff021916908373ffffffffffffffffffffffffffffffffffffffff1602179055508173ffffffffffffffffffffffffffffffffffffffff168173ffffffffffffffffffffffffffffffffffffffff167f8be0079c531659141344cd1fd0a4f28419497f9722a3daafe3b4186f6b6457e060405160405180910390a35050565b614ae280620001266000396000f3fe60806040523480156200001157600080fd5b5060043610620000d5576000357c0100000000000000000000000000000000000000000000000000000000900480639e99261211620000985780639e99261214620001af5780639f4eb5f114620001d1578063b411ee9414620001f1578063ccbbd2601462000227578063f2fde38b146200025e578063fa7eb635146200027e57620000d5565b80631118b1b614620000da578063347791271462000110578063715018a614620001465780638da5cb5b14620001525780638f181a0b1462000174575b600080fd5b620000f86004803603810190620000f2919062001b3c565b6200029e565b60405162000107919062001ba0565b60405180910390f35b6200012e600480360381019062000128919062001c1a565b620002cd565b6040516200013d919062001c87565b60405180910390f35b62000150620007c3565b005b6200015c62000854565b6040516200016b919062001c87565b60405180910390f35b6200019260048036038101906200018c919062001ca4565b6200087d565b604051620001a69695949392919062001dbb565b60405180910390f35b620001b9620009cd565b604051620001c8919062001f30565b60405180910390f35b620001ef6004803603810190620001e9919062001c1a565b62000ada565b005b6200020f6004803603810190620002099190620020a5565b62000e78565b6040516200021e9190620020f6565b60405180910390f35b6200024560048036038101906200023f919062002144565b62000eaa565b6040516200025592919062002176565b60405180910390f35b6200027c6004803603810190620002769190620021a3565b62000f1f565b005b6200029c60048036038101906200029691906200239a565b62001023565b005b60036020528160005260406000206020528060005260406000206000915091509054906101000a900460ff1681565b600083600360008273ffffffffffffffffffffffffffffffffffffffff1673ffffffffffffffffffffffffffffffffffffffff16815260200190815260200160002060003373ffffffffffffffffffffffffffffffffffffffff1673ffffffffffffffffffffffffffffffffffffffff16815260200190815260200160002060009054906101000a900460ff166200039c576040517f08c379a00000000000000000000000000000000000000000000000000000000081526004016200039390620024c1565b60405180910390fd5b60011515600460008677ffffffffffffffffffffffffffffffffffffffffffffffff191677ffffffffffffffffffffffffffffffffffffffffffffffff1916815260200190815260200160002060008577ffffffffffffffffffffffffffffffffffffffffffffffff191677ffffffffffffffffffffffffffffffffffffffffffffffff1916815260200190815260200160002060010160149054906101000a900460ff1615151462000486576040517f08c379a00000000000000000000000000000000000000000000000000000000081526004016200047d9062002533565b60405180910390fd5b600460008577ffffffffffffffffffffffffffffffffffffffffffffffff191677ffffffffffffffffffffffffffffffffffffffffffffffff1916815260200190815260200160002060008477ffffffffffffffffffffffffffffffffffffffffffffffff191677ffffffffffffffffffffffffffffffffffffffffffffffff1916815260200190815260200160002060010160009054906101000a900473ffffffffffffffffffffffffffffffffffffffff1673ffffffffffffffffffffffffffffffffffffffff166312ee7e4186336040518363ffffffff167c01000000000000000000000000000000000000000000000000000000000281526004016200059292919062002176565b600060405180830381600087803b158015620005ad57600080fd5b505af1158015620005c2573d6000803e3d6000fd5b505050508473ffffffffffffffffffffffffffffffffffffffff166286823985600460008877ffffffffffffffffffffffffffffffffffffffffffffffff191677ffffffffffffffffffffffffffffffffffffffffffffffff1916815260200190815260200160002060008777ffffffffffffffffffffffffffffffffffffffffffffffff191677ffffffffffffffffffffffffffffffffffffffffffffffff1916815260200190815260200160002060010160009054906101000a900473ffffffffffffffffffffffffffffffffffffffff166040518363ffffffff167c0100000000000000000000000000000000000000000000000000000000028152600401620006d192919062002555565b600060405180830381600087803b158015620006ec57600080fd5b505af115801562000701573d6000803e3d6000fd5b50505050600460008577ffffffffffffffffffffffffffffffffffffffffffffffff191677ffffffffffffffffffffffffffffffffffffffffffffffff1916815260200190815260200160002060008477ffffffffffffffffffffffffffffffffffffffffffffffff191677ffffffffffffffffffffffffffffffffffffffffffffffff1916815260200190815260200160002060010160009054906101000a900473ffffffffffffffffffffffffffffffffffffffff169150509392505050565b620007cd6200157b565b73ffffffffffffffffffffffffffffffffffffffff16620007ed62000854565b73ffffffffffffffffffffffffffffffffffffffff161462000846576040517f08c379a00000000000000000000000000000000000000000000000000000000081526004016200083d90620025d2565b60405180910390fd5b62000852600062001583565b565b60008060009054906101000a900473ffffffffffffffffffffffffffffffffffffffff16905090565b6004602052816000526040600020602052806000526040600020600091509150508060000154908060010160009054906101000a900473ffffffffffffffffffffffffffffffffffffffff16908060010160149054906101000a900460ff16908060010160159054906101000a9004780100000000000000000000000000000000000000000000000002908060020160009054906101000a900478010000000000000000000000000000000000000000000000000290806003018054620009449062002623565b80601f0160208091040260200160405190810160405280929190818152602001828054620009729062002623565b8015620009c35780601f106200099757610100808354040283529160200191620009c3565b820191906000526020600020905b815481529060010190602001808311620009a557829003601f168201915b5050505050905086565b60606002805480602002602001604051908101604052809291908181526020016000905b8282101562000ad157838290600052602060002090600202016040518060400160405290816000820160009054906101000a900473ffffffffffffffffffffffffffffffffffffffff1673ffffffffffffffffffffffffffffffffffffffff1673ffffffffffffffffffffffffffffffffffffffff1681526020016001820160009054906101000a900473ffffffffffffffffffffffffffffffffffffffff1673ffffffffffffffffffffffffffffffffffffffff1673ffffffffffffffffffffffffffffffffffffffff168152505081526020019060010190620009f1565b50505050905090565b62000ae46200157b565b73ffffffffffffffffffffffffffffffffffffffff1662000b0462000854565b73ffffffffffffffffffffffffffffffffffffffff161462000b5d576040517f08c379a000000000000000000000000000000000000000000000000000000000815260040162000b5490620025d2565b60405180910390fd5b6001600460008477ffffffffffffffffffffffffffffffffffffffffffffffff191677ffffffffffffffffffffffffffffffffffffffffffffffff1916815260200190815260200160002060008377ffffffffffffffffffffffffffffffffffffffffffffffff191677ffffffffffffffffffffffffffffffffffffffffffffffff1916815260200190815260200160002060010160146101000a81548160ff02191690831515021790555081600460008477ffffffffffffffffffffffffffffffffffffffffffffffff191677ffffffffffffffffffffffffffffffffffffffffffffffff1916815260200190815260200160002060008377ffffffffffffffffffffffffffffffffffffffffffffffff191677ffffffffffffffffffffffffffffffffffffffffffffffff1916815260200190815260200160002060010160156101000a81548167ffffffffffffffff021916908378010000000000000000000000000000000000000000000000009004021790555080600460008477ffffffffffffffffffffffffffffffffffffffffffffffff191677ffffffffffffffffffffffffffffffffffffffffffffffff1916815260200190815260200160002060008377ffffffffffffffffffffffffffffffffffffffffffffffff191677ffffffffffffffffffffffffffffffffffffffffffffffff1916815260200190815260200160002060020160006101000a81548167ffffffffffffffff021916908378010000000000000000000000000000000000000000000000009004021790555082600460008477ffffffffffffffffffffffffffffffffffffffffffffffff191677ffffffffffffffffffffffffffffffffffffffffffffffff1916815260200190815260200160002060008377ffffffffffffffffffffffffffffffffffffffffffffffff191677ffffffffffffffffffffffffffffffffffffffffffffffff1916815260200190815260200160002060010160006101000a81548173ffffffffffffffffffffffffffffffffffffffff021916908373ffffffffffffffffffffffffffffffffffffffff160217905550505050565b60008160405160200162000e8d919062002659565b604051602081830303815290604052805190602001209050919050565b6002818154811062000ebb57600080fd5b90600052602060002090600202016000915090508060000160009054906101000a900473ffffffffffffffffffffffffffffffffffffffff16908060010160009054906101000a900473ffffffffffffffffffffffffffffffffffffffff16905082565b62000f296200157b565b73ffffffffffffffffffffffffffffffffffffffff1662000f4962000854565b73ffffffffffffffffffffffffffffffffffffffff161462000fa2576040517f08c379a000000000000000000000000000000000000000000000000000000000815260040162000f9990620025d2565b60405180910390fd5b600073ffffffffffffffffffffffffffffffffffffffff168173ffffffffffffffffffffffffffffffffffffffff16141562001015576040517f08c379a00000000000000000000000000000000000000000000000000000000081526004016200100c90620026f3565b60405180910390fd5b620010208162001583565b50565b600a8151106200106a576040517f08c379a0000000000000000000000000000000000000000000000000000000008152600401620010619062002765565b60405180910390fd5b600086868686866040516200107f9062001a6f565b6200108f9594939291906200283a565b604051809103906000f080158015620010ac573d6000803e3d6000fd5b509050620010b962001a7d565b33816000019073ffffffffffffffffffffffffffffffffffffffff16908173ffffffffffffffffffffffffffffffffffffffff168152505081816020019073ffffffffffffffffffffffffffffffffffffffff16908173ffffffffffffffffffffffffffffffffffffffff1681525050600281908060018154018082558091505060019003906000526020600020906002020160009091909190915060008201518160000160006101000a81548173ffffffffffffffffffffffffffffffffffffffff021916908373ffffffffffffffffffffffffffffffffffffffff16021790555060208201518160010160006101000a81548173ffffffffffffffffffffffffffffffffffffffff021916908373ffffffffffffffffffffffffffffffffffffffff16021790555050508173ffffffffffffffffffffffffffffffffffffffff166367561d93306040518263ffffffff167c01000000000000000000000000000000000000000000000000000000000281526004016200123c919062001c87565b600060405180830381600087803b1580156200125757600080fd5b505af11580156200126c573d6000803e3d6000fd5b505050508173ffffffffffffffffffffffffffffffffffffffff1663f2fde38b336040518263ffffffff167c0100000000000000000000000000000000000000000000000000000000028152600401620012c7919062001c87565b600060405180830381600087803b158015620012e257600080fd5b505af1158015620012f7573d6000803e3d6000fd5b5050505060005b83518110156200149857600115156004600086848151811062001326576200132562002889565b5b60200260200101516000015177ffffffffffffffffffffffffffffffffffffffffffffffff191677ffffffffffffffffffffffffffffffffffffffffffffffff1916815260200190815260200160002060008684815181106200138e576200138d62002889565b5b60200260200101516020015177ffffffffffffffffffffffffffffffffffffffffffffffff191677ffffffffffffffffffffffffffffffffffffffffffffffff1916815260200190815260200160002060010160149054906101000a900460ff1615151462001434576040517f08c379a00000000000000000000000000000000000000000000000000000000081526004016200142b9062002533565b60405180910390fd5b62001483838583815181106200144f576200144e62002889565b5b60200260200101516000015186848151811062001471576200147062002889565b5b60200260200101516020015162001647565b50806200149090620028e7565b9050620012fe565b506001600360008473ffffffffffffffffffffffffffffffffffffffff1673ffffffffffffffffffffffffffffffffffffffff16815260200190815260200160002060003373ffffffffffffffffffffffffffffffffffffffff1673ffffffffffffffffffffffffffffffffffffffff16815260200190815260200160002060006101000a81548160ff0219169083151502179055507fb1eee3b28a9945db09f7a21d65593e3edb51ab7b10bb1f8e713a9a6afb7e347b338989846020015160405162001569949392919062002935565b60405180910390a15050505050505050565b600033905090565b60008060009054906101000a900473ffffffffffffffffffffffffffffffffffffffff169050816000806101000a81548173ffffffffffffffffffffffffffffffffffffffff021916908373ffffffffffffffffffffffffffffffffffffffff1602179055508173ffffffffffffffffffffffffffffffffffffffff168173ffffffffffffffffffffffffffffffffffffffff167f8be0079c531659141344cd1fd0a4f28419497f9722a3daafe3b4186f6b6457e060405160405180910390a35050565b600060011515600460008577ffffffffffffffffffffffffffffffffffffffffffffffff191677ffffffffffffffffffffffffffffffffffffffffffffffff1916815260200190815260200160002060008477ffffffffffffffffffffffffffffffffffffffffffffffff191677ffffffffffffffffffffffffffffffffffffffffffffffff1916815260200190815260200160002060010160149054906101000a900460ff1615151462001733576040517f08c379a00000000000000000000000000000000000000000000000000000000081526004016200172a9062002533565b60405180910390fd5b600460008477ffffffffffffffffffffffffffffffffffffffffffffffff191677ffffffffffffffffffffffffffffffffffffffffffffffff1916815260200190815260200160002060008377ffffffffffffffffffffffffffffffffffffffffffffffff191677ffffffffffffffffffffffffffffffffffffffffffffffff1916815260200190815260200160002060010160009054906101000a900473ffffffffffffffffffffffffffffffffffffffff1673ffffffffffffffffffffffffffffffffffffffff166312ee7e4185336040518363ffffffff167c01000000000000000000000000000000000000000000000000000000000281526004016200183f92919062002176565b600060405180830381600087803b1580156200185a57600080fd5b505af11580156200186f573d6000803e3d6000fd5b505050508373ffffffffffffffffffffffffffffffffffffffff166286823984600460008777ffffffffffffffffffffffffffffffffffffffffffffffff191677ffffffffffffffffffffffffffffffffffffffffffffffff1916815260200190815260200160002060008677ffffffffffffffffffffffffffffffffffffffffffffffff191677ffffffffffffffffffffffffffffffffffffffffffffffff1916815260200190815260200160002060010160009054906101000a900473ffffffffffffffffffffffffffffffffffffffff166040518363ffffffff167c01000000000000000000000000000000000000000000000000000000000281526004016200197e92919062002555565b600060405180830381600087803b1580156200199957600080fd5b505af1158015620019ae573d6000803e3d6000fd5b50505050600460008477ffffffffffffffffffffffffffffffffffffffffffffffff191677ffffffffffffffffffffffffffffffffffffffffffffffff1916815260200190815260200160002060008377ffffffffffffffffffffffffffffffffffffffffffffffff191677ffffffffffffffffffffffffffffffffffffffffffffffff1916815260200190815260200160002060010160009054906101000a900473ffffffffffffffffffffffffffffffffffffffff1690509392505050565b612131806200297c83390190565b6040518060400160405280600073ffffffffffffffffffffffffffffffffffffffff168152602001600073ffffffffffffffffffffffffffffffffffffffff1681525090565b6000604051905090565b600080fd5b600080fd5b600073ffffffffffffffffffffffffffffffffffffffff82169050919050565b600062001b048262001ad7565b9050919050565b62001b168162001af7565b811462001b2257600080fd5b50565b60008135905062001b368162001b0b565b92915050565b6000806040838503121562001b565762001b5562001acd565b5b600062001b668582860162001b25565b925050602062001b798582860162001b25565b9150509250929050565b60008115159050919050565b62001b9a8162001b83565b82525050565b600060208201905062001bb7600083018462001b8f565b92915050565b60007fffffffffffffffff00000000000000000000000000000000000000000000000082169050919050565b62001bf48162001bbd565b811462001c0057600080fd5b50565b60008135905062001c148162001be9565b92915050565b60008060006060848603121562001c365762001c3562001acd565b5b600062001c468682870162001b25565b935050602062001c598682870162001c03565b925050604062001c6c8682870162001c03565b9150509250925092565b62001c818162001af7565b82525050565b600060208201905062001c9e600083018462001c76565b92915050565b6000806040838503121562001cbe5762001cbd62001acd565b5b600062001cce8582860162001c03565b925050602062001ce18582860162001c03565b9150509250929050565b6000819050919050565b62001d008162001ceb565b82525050565b62001d118162001bbd565b82525050565b600081519050919050565b600082825260208201905092915050565b60005b8381101562001d5357808201518184015260208101905062001d36565b8381111562001d63576000848401525b50505050565b6000601f19601f8301169050919050565b600062001d878262001d17565b62001d93818562001d22565b935062001da581856020860162001d33565b62001db08162001d69565b840191505092915050565b600060c08201905062001dd2600083018962001cf5565b62001de1602083018862001c76565b62001df0604083018762001b8f565b62001dff606083018662001d06565b62001e0e608083018562001d06565b81810360a083015262001e22818462001d7a565b9050979650505050505050565b600081519050919050565b600082825260208201905092915050565b6000819050602082019050919050565b62001e668162001af7565b82525050565b60408201600082015162001e84600085018262001e5b565b50602082015162001e99602085018262001e5b565b50505050565b600062001ead838362001e6c565b60408301905092915050565b6000602082019050919050565b600062001ed38262001e2f565b62001edf818562001e3a565b935062001eec8362001e4b565b8060005b8381101562001f2357815162001f07888262001e9f565b975062001f148362001eb9565b92505060018101905062001ef0565b5085935050505092915050565b6000602082019050818103600083015262001f4c818462001ec6565b905092915050565b600080fd5b600080fd5b7f4e487b7100000000000000000000000000000000000000000000000000000000600052604160045260246000fd5b62001f988262001d69565b810181811067ffffffffffffffff8211171562001fba5762001fb962001f5e565b5b80604052505050565b600062001fcf62001ac3565b905062001fdd828262001f8d565b919050565b600067ffffffffffffffff821115620020005762001fff62001f5e565b5b6200200b8262001d69565b9050602081019050919050565b82818337600083830152505050565b60006200203e620020388462001fe2565b62001fc3565b9050828152602081018484840111156200205d576200205c62001f59565b5b6200206a84828562002018565b509392505050565b600082601f8301126200208a576200208962001f54565b5b81356200209c84826020860162002027565b91505092915050565b600060208284031215620020be57620020bd62001acd565b5b600082013567ffffffffffffffff811115620020df57620020de62001ad2565b5b620020ed8482850162002072565b91505092915050565b60006020820190506200210d600083018462001d06565b92915050565b6200211e8162001ceb565b81146200212a57600080fd5b50565b6000813590506200213e8162002113565b92915050565b6000602082840312156200215d576200215c62001acd565b5b60006200216d848285016200212d565b91505092915050565b60006040820190506200218d600083018562001c76565b6200219c602083018462001c76565b9392505050565b600060208284031215620021bc57620021bb62001acd565b5b6000620021cc8482850162001b25565b91505092915050565b600080fd5b600080fd5b60008083601f840112620021f857620021f762001f54565b5b8235905067ffffffffffffffff811115620022185762002217620021d5565b5b602083019150836001820283011115620022375762002236620021da565b5b9250929050565b600281106200224c57600080fd5b50565b60008135905062002260816200223e565b92915050565b600067ffffffffffffffff82111562002284576200228362001f5e565b5b602082029050602081019050919050565b600080fd5b600060408284031215620022b357620022b262002295565b5b620022bf604062001fc3565b90506000620022d18482850162001c03565b6000830152506020620022e78482850162001c03565b60208301525092915050565b60006200230a620023048462002266565b62001fc3565b9050808382526020820190506040840283018581111562002330576200232f620021da565b5b835b818110156200235d57806200234888826200229a565b84526020840193505060408101905062002332565b5050509392505050565b600082601f8301126200237f576200237e62001f54565b5b813562002391848260208601620022f3565b91505092915050565b60008060008060008060808789031215620023ba57620023b962001acd565b5b600087013567ffffffffffffffff811115620023db57620023da62001ad2565b5b620023e989828a01620021df565b9650965050602087013567ffffffffffffffff8111156200240f576200240e62001ad2565b5b6200241d89828a01620021df565b945094505060406200243289828a016200224f565b925050606087013567ffffffffffffffff81111562002456576200245562001ad2565b5b6200246489828a0162002367565b9150509295509295509295565b7f496e76616c696420557365720000000000000000000000000000000000000000600082015250565b6000620024a9600c8362001d22565b9150620024b68262002471565b602082019050919050565b60006020820190508181036000830152620024dc816200249a565b9050919050565b7f4d6f64756c65206e6f7420666f756e6400000000000000000000000000000000600082015250565b60006200251b60108362001d22565b91506200252882620024e3565b602082019050919050565b600060208201905081810360008301526200254e816200250c565b9050919050565b60006040820190506200256c600083018562001d06565b6200257b602083018462001c76565b9392505050565b7f4f776e61626c653a2063616c6c6572206973206e6f7420746865206f776e6572600082015250565b6000620025ba60208362001d22565b9150620025c78262002582565b602082019050919050565b60006020820190508181036000830152620025ed81620025ab565b9050919050565b7f4e487b7100000000000000000000000000000000000000000000000000000000600052602260045260246000fd5b600060028204905060018216806200263c57607f821691505b60208210811415620026535762002652620025f4565b5b50919050565b6000602082019050818103600083015262002675818462001d7a565b905092915050565b7f4f776e61626c653a206e6577206f776e657220697320746865207a65726f206160008201527f6464726573730000000000000000000000000000000000000000000000000000602082015250565b6000620026db60268362001d22565b9150620026e8826200267d565b604082019050919050565b600060208201905081810360008301526200270e81620026cc565b9050919050565b7f4d6f64756c6573206d757374206265206c657373207468616e2031302e000000600082015250565b60006200274d601d8362001d22565b91506200275a8262002715565b602082019050919050565b6000602082019050818103600083015262002780816200273e565b9050919050565b600062002795838562001d22565b9350620027a483858462002018565b620027af8362001d69565b840190509392505050565b7f4e487b7100000000000000000000000000000000000000000000000000000000600052602160045260246000fd5b60028110620027fd57620027fc620027ba565b5b50565b60008190506200281082620027e9565b919050565b6000620028228262002800565b9050919050565b620028348162002815565b82525050565b600060608201905081810360008301526200285781878962002787565b905081810360208301526200286e81858762002787565b90506200287f604083018462002829565b9695505050505050565b7f4e487b7100000000000000000000000000000000000000000000000000000000600052603260045260246000fd5b7f4e487b7100000000000000000000000000000000000000000000000000000000600052601160045260246000fd5b6000620028f48262001ceb565b91507fffffffffffffffffffffffffffffffffffffffffffffffffffffffffffffffff8214156200292a5762002929620028b8565b5b600182019050919050565b60006060820190506200294c600083018762001c76565b81810360208301526200296181858762002787565b905062002972604083018462001c76565b9594505050505056fe60806040523480156200001157600080fd5b50604051620021313803806200213183398181016040528101906200003791906200046a565b620000696200005462000129640100000000026401000000009004565b62000131640100000000026401000000009004565b826001908051906020019062000081929190620001f5565b5081600290805190602001906200009a929190620001f5565b5080600360006101000a81548160ff02191690836001811115620000c357620000c262000504565b5b02179055506001600660003373ffffffffffffffffffffffffffffffffffffffff1673ffffffffffffffffffffffffffffffffffffffff16815260200190815260200160002060006101000a81548160ff02191690831515021790555050505062000598565b600033905090565b60008060009054906101000a900473ffffffffffffffffffffffffffffffffffffffff169050816000806101000a81548173ffffffffffffffffffffffffffffffffffffffff021916908373ffffffffffffffffffffffffffffffffffffffff1602179055508173ffffffffffffffffffffffffffffffffffffffff168173ffffffffffffffffffffffffffffffffffffffff167f8be0079c531659141344cd1fd0a4f28419497f9722a3daafe3b4186f6b6457e060405160405180910390a35050565b828054620002039062000562565b90600052602060002090601f01602090048101928262000227576000855562000273565b82601f106200024257805160ff191683800117855562000273565b8280016001018555821562000273579182015b828111156200027257825182559160200191906001019062000255565b5b50905062000282919062000286565b5090565b5b80821115620002a157600081600090555060010162000287565b5090565b6000604051905090565b600080fd5b600080fd5b600080fd5b600080fd5b6000601f19601f8301169050919050565b7f4e487b7100000000000000000000000000000000000000000000000000000000600052604160045260246000fd5b6200030e82620002c3565b810181811067ffffffffffffffff8211171562000330576200032f620002d4565b5b80604052505050565b600062000345620002a5565b905062000353828262000303565b919050565b600067ffffffffffffffff821115620003765762000375620002d4565b5b6200038182620002c3565b9050602081019050919050565b60005b83811015620003ae57808201518184015260208101905062000391565b83811115620003be576000848401525b50505050565b6000620003db620003d58462000358565b62000339565b905082815260208101848484011115620003fa57620003f9620002be565b5b620004078482856200038e565b509392505050565b600082601f830112620004275762000426620002b9565b5b815162000439848260208601620003c4565b91505092915050565b600281106200045057600080fd5b50565b600081519050620004648162000442565b92915050565b600080600060608486031215620004865762000485620002af565b5b600084015167ffffffffffffffff811115620004a757620004a6620002b4565b5b620004b5868287016200040f565b935050602084015167ffffffffffffffff811115620004d957620004d8620002b4565b5b620004e7868287016200040f565b9250506040620004fa8682870162000453565b9150509250925092565b7f4e487b7100000000000000000000000000000000000000000000000000000000600052602160045260246000fd5b7f4e487b7100000000000000000000000000000000000000000000000000000000600052602260045260246000fd5b600060028204905060018216806200057b57607f821691505b6020821081141562000592576200059162000533565b5b50919050565b611b8980620005a86000396000f3fe608060405234801561001057600080fd5b5060043610610111576000357c0100000000000000000000000000000000000000000000000000000000900480637284e416116100b4578063d8d8e93c11610083578063d8d8e93c1461026f578063ee760f381461029f578063f2fde38b146102cf578063f315aafe146102eb57610111565b80637284e416146101e75780638da5cb5b14610205578063b411ee9414610223578063b7e2077e1461025357610111565b806336e70eaa116100f057806336e70eaa1461016e57806352450cf91461018c57806367561d93146101c1578063715018a6146101dd57610111565b80628682391461011657806306fdde031461013257806329adec1414610150575b600080fd5b610130600480360381019061012b919061127b565b610309565b005b61013a610584565b6040516101479190611354565b60405180910390f35b610158610612565b60405161016591906113ed565b60405180910390f35b610176610625565b60405161018391906114da565b60405180910390f35b6101a660048036038101906101a191906114fc565b6107a1565b6040516101b89695949392919061157b565b60405180910390f35b6101db60048036038101906101d691906115e3565b6108dc565b005b6101e5610a07565b005b6101ef610a8f565b6040516101fc9190611354565b60405180910390f35b61020d610b1d565b60405161021a9190611610565b60405180910390f35b61023d60048036038101906102389190611760565b610b46565b60405161024a91906117a9565b60405180910390f35b61026d600480360381019061026891906115e3565b610b76565b005b610289600480360381019061028491906114fc565b610ca1565b604051610296919061187a565b60405180910390f35b6102b960048036038101906102b491906118c8565b610edb565b6040516102c691906117a9565b60405180910390f35b6102e960048036038101906102e491906115e3565b610f13565b005b6102f361100b565b60405161030091906118f5565b60405180910390f35b60011515600560003373ffffffffffffffffffffffffffffffffffffffff1673ffffffffffffffffffffffffffffffffffffffff16815260200190815260200160002060009054906101000a900460ff161515148061039a575061036b610b1d565b73ffffffffffffffffffffffffffffffffffffffff163373ffffffffffffffffffffffffffffffffffffffff16145b6103d9576040517f08c379a00000000000000000000000000000000000000000000000000000000081526004016103d09061195c565b60405180910390fd5b6001600860008477ffffffffffffffffffffffffffffffffffffffffffffffff191677ffffffffffffffffffffffffffffffffffffffffffffffff1916815260200190815260200160002060010160146101000a81548160ff021916908315150217905550600454600860008477ffffffffffffffffffffffffffffffffffffffffffffffff191677ffffffffffffffffffffffffffffffffffffffffffffffff191681526020019081526020016000206000018190555080600860008477ffffffffffffffffffffffffffffffffffffffffffffffff191677ffffffffffffffffffffffffffffffffffffffffffffffff1916815260200190815260200160002060010160006101000a81548173ffffffffffffffffffffffffffffffffffffffff021916908373ffffffffffffffffffffffffffffffffffffffff1602179055508160076000600454815260200190815260200160002060006101000a81548167ffffffffffffffff0219169083780100000000000000000000000000000000000000000000000090040217905550600460008154610579906119ab565b919050819055505050565b6001805461059190611a23565b80601f01602080910402602001604051908101604052809291908181526020018280546105bd90611a23565b801561060a5780601f106105df5761010080835404028352916020019161060a565b820191906000526020600020905b8154815290600101906020018083116105ed57829003601f168201915b505050505081565b600360009054906101000a900460ff1681565b61062d6110dd565b6106356110dd565b6001805461064290611a23565b80601f016020809104026020016040519081016040528092919081815260200182805461066e90611a23565b80156106bb5780601f10610690576101008083540402835291602001916106bb565b820191906000526020600020905b81548152906001019060200180831161069e57829003601f168201915b50505050508160400181905250600280546106d590611a23565b80601f016020809104026020016040519081016040528092919081815260200182805461070190611a23565b801561074e5780601f106107235761010080835404028352916020019161074e565b820191906000526020600020905b81548152906001019060200180831161073157829003601f168201915b50505050508160600181905250600360009054906101000a900460ff168160200190600181111561078257610781611376565b5b9081600181111561079657610795611376565b5b815250508091505090565b60086020528060005260406000206000915090508060000154908060010160009054906101000a900473ffffffffffffffffffffffffffffffffffffffff16908060010160149054906101000a900460ff16908060010160159054906101000a9004780100000000000000000000000000000000000000000000000002908060020160009054906101000a90047801000000000000000000000000000000000000000000000000029080600301805461085990611a23565b80601f016020809104026020016040519081016040528092919081815260200182805461088590611a23565b80156108d25780601f106108a7576101008083540402835291602001916108d2565b820191906000526020600020905b8154815290600101906020018083116108b557829003601f168201915b5050505050905086565b60011515600560003373ffffffffffffffffffffffffffffffffffffffff1673ffffffffffffffffffffffffffffffffffffffff16815260200190815260200160002060009054906101000a900460ff161515148061096d575061093e610b1d565b73ffffffffffffffffffffffffffffffffffffffff163373ffffffffffffffffffffffffffffffffffffffff16145b6109ac576040517f08c379a00000000000000000000000000000000000000000000000000000000081526004016109a39061195c565b60405180910390fd5b6001600560008373ffffffffffffffffffffffffffffffffffffffff1673ffffffffffffffffffffffffffffffffffffffff16815260200190815260200160002060006101000a81548160ff02191690831515021790555050565b610a0f611011565b73ffffffffffffffffffffffffffffffffffffffff16610a2d610b1d565b73ffffffffffffffffffffffffffffffffffffffff1614610a83576040517f08c379a0000000000000000000000000000000000000000000000000000000008152600401610a7a90611aa1565b60405180910390fd5b610a8d6000611019565b565b60028054610a9c90611a23565b80601f0160208091040260200160405190810160405280929190818152602001828054610ac890611a23565b8015610b155780601f10610aea57610100808354040283529160200191610b15565b820191906000526020600020905b815481529060010190602001808311610af857829003601f168201915b505050505081565b60008060009054906101000a900473ffffffffffffffffffffffffffffffffffffffff16905090565b600081604051602001610b599190611354565b604051602081830303815290604052805190602001209050919050565b60011515600560003373ffffffffffffffffffffffffffffffffffffffff1673ffffffffffffffffffffffffffffffffffffffff16815260200190815260200160002060009054906101000a900460ff1615151480610c075750610bd8610b1d565b73ffffffffffffffffffffffffffffffffffffffff163373ffffffffffffffffffffffffffffffffffffffff16145b610c46576040517f08c379a0000000000000000000000000000000000000000000000000000000008152600401610c3d9061195c565b60405180910390fd5b6000600560008373ffffffffffffffffffffffffffffffffffffffff1673ffffffffffffffffffffffffffffffffffffffff16815260200190815260200160002060006101000a81548160ff02191690831515021790555050565b610ca961112d565b600860008377ffffffffffffffffffffffffffffffffffffffffffffffff191677ffffffffffffffffffffffffffffffffffffffffffffffff191681526020019081526020016000206040518060c0016040529081600082015481526020016001820160009054906101000a900473ffffffffffffffffffffffffffffffffffffffff1673ffffffffffffffffffffffffffffffffffffffff1673ffffffffffffffffffffffffffffffffffffffff1681526020016001820160149054906101000a900460ff161515151581526020016001820160159054906101000a900478010000000000000000000000000000000000000000000000000277ffffffffffffffffffffffffffffffffffffffffffffffff191677ffffffffffffffffffffffffffffffffffffffffffffffff191681526020016002820160009054906101000a900478010000000000000000000000000000000000000000000000000277ffffffffffffffffffffffffffffffffffffffffffffffff191677ffffffffffffffffffffffffffffffffffffffffffffffff19168152602001600382018054610e5290611a23565b80601f0160208091040260200160405190810160405280929190818152602001828054610e7e90611a23565b8015610ecb5780601f10610ea057610100808354040283529160200191610ecb565b820191906000526020600020905b815481529060010190602001808311610eae57829003601f168201915b5050505050815250509050919050565b60076020528060005260406000206000915054906101000a900478010000000000000000000000000000000000000000000000000281565b610f1b611011565b73ffffffffffffffffffffffffffffffffffffffff16610f39610b1d565b73ffffffffffffffffffffffffffffffffffffffff1614610f8f576040517f08c379a0000000000000000000000000000000000000000000000000000000008152600401610f8690611aa1565b60405180910390fd5b600073ffffffffffffffffffffffffffffffffffffffff168173ffffffffffffffffffffffffffffffffffffffff161415610fff576040517f08c379a0000000000000000000000000000000000000000000000000000000008152600401610ff690611b33565b60405180910390fd5b61100881611019565b50565b60045481565b600033905090565b60008060009054906101000a900473ffffffffffffffffffffffffffffffffffffffff169050816000806101000a81548173ffffffffffffffffffffffffffffffffffffffff021916908373ffffffffffffffffffffffffffffffffffffffff1602179055508173ffffffffffffffffffffffffffffffffffffffff168173ffffffffffffffffffffffffffffffffffffffff167f8be0079c531659141344cd1fd0a4f28419497f9722a3daafe3b4186f6b6457e060405160405180910390a35050565b6040518060800160405280600073ffffffffffffffffffffffffffffffffffffffff1681526020016000600181111561111957611118611376565b5b815260200160608152602001606081525090565b6040518060c0016040528060008152602001600073ffffffffffffffffffffffffffffffffffffffff168152602001600015158152602001600077ffffffffffffffffffffffffffffffffffffffffffffffff19168152602001600077ffffffffffffffffffffffffffffffffffffffffffffffff19168152602001606081525090565b6000604051905090565b600080fd5b600080fd5b60007fffffffffffffffff00000000000000000000000000000000000000000000000082169050919050565b6111fa816111c5565b811461120557600080fd5b50565b600081359050611217816111f1565b92915050565b600073ffffffffffffffffffffffffffffffffffffffff82169050919050565b60006112488261121d565b9050919050565b6112588161123d565b811461126357600080fd5b50565b6000813590506112758161124f565b92915050565b60008060408385031215611292576112916111bb565b5b60006112a085828601611208565b92505060206112b185828601611266565b9150509250929050565b600081519050919050565b600082825260208201905092915050565b60005b838110156112f55780820151818401526020810190506112da565b83811115611304576000848401525b50505050565b6000601f19601f8301169050919050565b6000611326826112bb565b61133081856112c6565b93506113408185602086016112d7565b6113498161130a565b840191505092915050565b6000602082019050818103600083015261136e818461131b565b905092915050565b7f4e487b7100000000000000000000000000000000000000000000000000000000600052602160045260246000fd5b600281106113b6576113b5611376565b5b50565b60008190506113c7826113a5565b919050565b60006113d7826113b9565b9050919050565b6113e7816113cc565b82525050565b600060208201905061140260008301846113de565b92915050565b6114118161123d565b82525050565b611420816113cc565b82525050565b600082825260208201905092915050565b6000611442826112bb565b61144c8185611426565b935061145c8185602086016112d7565b6114658161130a565b840191505092915050565b60006080830160008301516114886000860182611408565b50602083015161149b6020860182611417565b50604083015184820360408601526114b38282611437565b915050606083015184820360608601526114cd8282611437565b9150508091505092915050565b600060208201905081810360008301526114f48184611470565b905092915050565b600060208284031215611512576115116111bb565b5b600061152084828501611208565b91505092915050565b6000819050919050565b61153c81611529565b82525050565b61154b8161123d565b82525050565b60008115159050919050565b61156681611551565b82525050565b611575816111c5565b82525050565b600060c0820190506115906000830189611533565b61159d6020830188611542565b6115aa604083018761155d565b6115b7606083018661156c565b6115c4608083018561156c565b81810360a08301526115d6818461131b565b9050979650505050505050565b6000602082840312156115f9576115f86111bb565b5b600061160784828501611266565b91505092915050565b60006020820190506116256000830184611542565b92915050565b600080fd5b600080fd5b7f4e487b7100000000000000000000000000000000000000000000000000000000600052604160045260246000fd5b61166d8261130a565b810181811067ffffffffffffffff8211171561168c5761168b611635565b5b80604052505050565b600061169f6111b1565b90506116ab8282611664565b919050565b600067ffffffffffffffff8211156116cb576116ca611635565b5b6116d48261130a565b9050602081019050919050565b82818337600083830152505050565b60006117036116fe846116b0565b611695565b90508281526020810184848401111561171f5761171e611630565b5b61172a8482856116e1565b509392505050565b600082601f8301126117475761174661162b565b5b81356117578482602086016116f0565b91505092915050565b600060208284031215611776576117756111bb565b5b600082013567ffffffffffffffff811115611794576117936111c0565b5b6117a084828501611732565b91505092915050565b60006020820190506117be600083018461156c565b92915050565b6117cd81611529565b82525050565b6117dc81611551565b82525050565b6117eb816111c5565b82525050565b600060c08301600083015161180960008601826117c4565b50602083015161181c6020860182611408565b50604083015161182f60408601826117d3565b50606083015161184260608601826117e2565b50608083015161185560808601826117e2565b5060a083015184820360a086015261186d8282611437565b9150508091505092915050565b6000602082019050818103600083015261189481846117f1565b905092915050565b6118a581611529565b81146118b057600080fd5b50565b6000813590506118c28161189c565b92915050565b6000602082840312156118de576118dd6111bb565b5b60006118ec848285016118b3565b91505092915050565b600060208201905061190a6000830184611533565b92915050565b7f4e6f7420617574686f72697a6564000000000000000000000000000000000000600082015250565b6000611946600e836112c6565b915061195182611910565b602082019050919050565b6000602082019050818103600083015261197581611939565b9050919050565b7f4e487b7100000000000000000000000000000000000000000000000000000000600052601160045260246000fd5b60006119b682611529565b91507fffffffffffffffffffffffffffffffffffffffffffffffffffffffffffffffff8214156119e9576119e861197c565b5b600182019050919050565b7f4e487b7100000000000000000000000000000000000000000000000000000000600052602260045260246000fd5b60006002820490506001821680611a3b57607f821691505b60208210811415611a4f57611a4e6119f4565b5b50919050565b7f4f776e61626c653a2063616c6c6572206973206e6f7420746865206f776e6572600082015250565b6000611a8b6020836112c6565b9150611a9682611a55565b602082019050919050565b60006020820190508181036000830152611aba81611a7e565b9050919050565b7f4f776e61626c653a206e6577206f776e657220697320746865207a65726f206160008201527f6464726573730000000000000000000000000000000000000000000000000000602082015250565b6000611b1d6026836112c6565b9150611b2882611ac1565b604082019050919050565b60006020820190508181036000830152611b4c81611b10565b905091905056fea2646970667358221220626068e4c8de3e70d8b3be88ad230b18688449ee971e0e07f0b846718511747264736f6c63430008090033a26469706673582212200dfc4be51382a0178c6c500b0186280c8b48a859c3db2da1352030d33c3b0c7c64736f6c63430008090033",
  "immutableReferences": {},
  "source": "// SPDX-License-Identifier: MIT\npragma solidity ^0.8.9;\n\nimport \"@openzeppelin/contracts/utils/math/SafeMath.sol\";\nimport \"@openzeppelin/contracts/access/Ownable.sol\";\n\nimport './Modules/interfaces/IModule.sol';\nimport './DaoBase.sol';\nimport './Data.sol';\n\n//is DaosFactory\ncontract DaosFactory is Ownable {\n  using SafeMath for uint256;\n  uint256 private daoId;\n\n  // //user > daos\n  // mapping(address => address[]) public membershipDaos;\n  deployedDao[] public daos;\n  mapping(address => mapping(address => bool)) public daoOwners;\n  //MyModule[] public availableModules;\n  //mapping(string => MyModule) public availableModules;\n  // mapping(address => ModuleDao[]) public modulesDaos;\n  //dao address => moduleType => module\n  mapping(bytes8 => mapping(bytes8 => Data.Module)) public modulesDaos;\n\n  struct deployedDao {\n    address owner;\n    address daoAddress;\n  }\n\n  // struct MyModule {\n  //   string moduleType;\n  //   string smartContractName;\n  //   string code;\n  //   bool isActive;\n  // }\n\n  // struct ModuleDao {\n  //   uint256 id;\n  //   address moduleAddress;\n  //   // IModule module;\n  //   bool isActive;\n  //   string moduleType;\n  //   string code;\n  //   //string abiCode;\n  // }\n\n  event DaoCreated(address user, string name, address daoAddress);\n  event ModuleActivated(address user, string name, address daoAddress);\n\n  modifier onlyDaoOwners(address _daoAddress) {\n    require(daoOwners[_daoAddress][msg.sender], \"Invalid User\");\n    _;\n  }\n\n  function getdeployedDaos() external view returns (deployedDao[] memory) {\n    return daos;\n  }\n\n  function activateModuleForDao(address _daoAddress, bytes8 _type, bytes8 _code) public onlyDaoOwners(_daoAddress) returns(address) {\n    require(modulesDaos[_type][_code].isActive == true, \"Module not found\");\n    IModule(modulesDaos[_type][_code].moduleAddress).addDao(_daoAddress, msg.sender);\n    DaoBase(_daoAddress).addModule(_type, modulesDaos[_type][_code].moduleAddress);\n    return modulesDaos[_type][_code].moduleAddress;  \n  }\n  function _activateModuleForDao(address _daoAddress, bytes8 _type, bytes8 _code) internal returns(address) {\n    require(modulesDaos[_type][_code].isActive == true, \"Module not found\");\n    IModule(modulesDaos[_type][_code].moduleAddress).addDao(_daoAddress, msg.sender);\n    DaoBase(_daoAddress).addModule(_type, modulesDaos[_type][_code].moduleAddress);\n    return modulesDaos[_type][_code].moduleAddress;  \n  }\n\n  function addModule(address _moduleAddress, bytes8 _type, bytes8 _code) public onlyOwner {\n    modulesDaos[_type][_code].isActive = true;\n    modulesDaos[_type][_code].moduleType = _type;\n    modulesDaos[_type][_code].moduleCode = _code;\n    modulesDaos[_type][_code].moduleAddress = _moduleAddress;\n  }\n\n  //  function getDaosAddressByMember(address _addressMember) external view returns (address[] memory) {\n  //   return (membershipDaos[_addressMember]);\n  // }\n\n  function createDAO(string calldata _name, string calldata _description, Data.visibilityEnum _visibility\n                    , Data.ModuleToActivate[] memory _modules) public {\n    require(_modules.length < 10, \"Modules must be less than 10.\");\n    DaoBase dao = new DaoBase(_name, _description, _visibility);\n    // MembershipDao memberModule = new MembershipDao(membershipMode);\n    // dao.addModule(dao.hash(\"MemberModule\"), address(memberModule));\n    deployedDao memory _dao;\n    _dao.owner = msg.sender;\n    _dao.daoAddress = address(dao);\n    daos.push(_dao); \n    dao.authorizeContract(address(this));\n    dao.transferOwnership(msg.sender);\n\n    for(uint i=0; i<_modules.length; ++i){\n      require(modulesDaos[_modules[i].moduleType][_modules[i].moduleCode].isActive == true, \"Module not found\");\n        _activateModuleForDao(address(dao)\n        , _modules[i].moduleType\n        , _modules[i].moduleCode);\n     }\n    daoOwners[address(dao)][msg.sender] = true;\n    emit DaoCreated(msg.sender, _name, _dao.daoAddress);\n  }\n\n  function hash(string memory _name) public pure returns(bytes8) {\n    return (bytes8(keccak256(abi.encode(_name))));\n  }\n}",
  "sourcePath": "/Users/chinoiserie/delivery/BLOCKCHAIN/Alyra/MY-DAO/contracts/DaosFactory.sol",
  "compiler": {
    "name": "solc",
    "version": "0.8.9+commit.e5eed63a.Emscripten.clang"
  },
  "schemaVersion": "3.2.0",
  "updatedAt": "2022-05-15T23:21:50.243Z",
  "networkType": "ethereum",
  "devdoc": {
    "kind": "dev",
    "methods": {
      "owner()": {
        "details": "Returns the address of the current owner."
      },
      "renounceOwnership()": {
        "details": "Leaves the contract without owner. It will not be possible to call `onlyOwner` functions anymore. Can only be called by the current owner. NOTE: Renouncing ownership will leave the contract without an owner, thereby removing any functionality that is only available to the owner."
      },
      "transferOwnership(address)": {
        "details": "Transfers ownership of the contract to a new account (`newOwner`). Can only be called by the current owner."
      }
    },
    "version": 1
  },
  "userdoc": {
    "kind": "user",
    "methods": {},
    "version": 1
  }
}