{
  "contractName": "DaosFactory",
  "abi": [
    {
      "anonymous": false,
      "inputs": [
        {
          "indexed": false,
          "internalType": "address",
          "name": "user",
          "type": "address"
        },
        {
          "indexed": false,
          "internalType": "string",
          "name": "name",
          "type": "string"
        },
        {
          "indexed": false,
          "internalType": "address",
          "name": "daoAddress",
          "type": "address"
        }
      ],
      "name": "DaoCreated",
      "type": "event"
    },
    {
      "anonymous": false,
      "inputs": [
        {
          "indexed": false,
          "internalType": "address",
          "name": "user",
          "type": "address"
        },
        {
          "indexed": false,
          "internalType": "string",
          "name": "name",
          "type": "string"
        },
        {
          "indexed": false,
          "internalType": "address",
          "name": "daoAddress",
          "type": "address"
        }
      ],
      "name": "ModuleActivated",
      "type": "event"
    },
    {
      "anonymous": false,
      "inputs": [
        {
          "indexed": true,
          "internalType": "address",
          "name": "previousOwner",
          "type": "address"
        },
        {
          "indexed": true,
          "internalType": "address",
          "name": "newOwner",
          "type": "address"
        }
      ],
      "name": "OwnershipTransferred",
      "type": "event"
    },
    {
      "inputs": [
        {
          "internalType": "uint256",
          "name": "",
          "type": "uint256"
        }
      ],
      "name": "daos",
      "outputs": [
        {
          "internalType": "address",
          "name": "owner",
          "type": "address"
        },
        {
          "internalType": "address",
          "name": "daoAddress",
          "type": "address"
        }
      ],
      "stateMutability": "view",
      "type": "function",
      "constant": true
    },
    {
      "inputs": [],
      "name": "owner",
      "outputs": [
        {
          "internalType": "address",
          "name": "",
          "type": "address"
        }
      ],
      "stateMutability": "view",
      "type": "function",
      "constant": true
    },
    {
      "inputs": [],
      "name": "renounceOwnership",
      "outputs": [],
      "stateMutability": "nonpayable",
      "type": "function"
    },
    {
      "inputs": [
        {
          "internalType": "address",
          "name": "newOwner",
          "type": "address"
        }
      ],
      "name": "transferOwnership",
      "outputs": [],
      "stateMutability": "nonpayable",
      "type": "function"
    },
    {
      "inputs": [],
      "name": "getdeployedDaos",
      "outputs": [
        {
          "components": [
            {
              "internalType": "address",
              "name": "owner",
              "type": "address"
            },
            {
              "internalType": "address",
              "name": "daoAddress",
              "type": "address"
            }
          ],
          "internalType": "struct DaosFactory.deployedDao[]",
          "name": "",
          "type": "tuple[]"
        }
      ],
      "stateMutability": "view",
      "type": "function",
      "constant": true
    },
    {
      "inputs": [
        {
          "internalType": "address",
          "name": "_daoAddress",
          "type": "address"
        },
        {
          "internalType": "bytes8",
          "name": "_type",
          "type": "bytes8"
        },
        {
          "internalType": "bytes8",
          "name": "_code",
          "type": "bytes8"
        }
      ],
      "name": "activateModuleForDao",
      "outputs": [
        {
          "internalType": "address",
          "name": "",
          "type": "address"
        }
      ],
      "stateMutability": "nonpayable",
      "type": "function"
    },
    {
      "inputs": [
        {
          "internalType": "address",
          "name": "_moduleAddress",
          "type": "address"
        },
        {
          "internalType": "bytes8",
          "name": "_type",
          "type": "bytes8"
        },
        {
          "internalType": "bytes8",
          "name": "_code",
          "type": "bytes8"
        }
      ],
      "name": "addModule",
      "outputs": [],
      "stateMutability": "nonpayable",
      "type": "function"
    },
    {
      "inputs": [
        {
          "internalType": "string",
          "name": "_name",
          "type": "string"
        },
        {
          "internalType": "string",
          "name": "_description",
          "type": "string"
        },
        {
          "internalType": "enum Data.visibilityEnum",
          "name": "_visibility",
          "type": "uint8"
        },
        {
          "components": [
            {
              "internalType": "bytes8",
              "name": "moduleType",
              "type": "bytes8"
            },
            {
              "internalType": "bytes8",
              "name": "moduleCode",
              "type": "bytes8"
            }
          ],
          "internalType": "struct Data.ModuleToActivate[]",
          "name": "_modules",
          "type": "tuple[]"
        }
      ],
      "name": "createDAO",
      "outputs": [],
      "stateMutability": "nonpayable",
      "type": "function"
    }
  ],
  "bytecode": "0x608060405234801561001057600080fd5b5061003f61002b610044640100000000026401000000009004565b61004c640100000000026401000000009004565b610110565b600033905090565b60008060009054906101000a900473ffffffffffffffffffffffffffffffffffffffff169050816000806101000a81548173ffffffffffffffffffffffffffffffffffffffff021916908373ffffffffffffffffffffffffffffffffffffffff1602179055508173ffffffffffffffffffffffffffffffffffffffff168173ffffffffffffffffffffffffffffffffffffffff167f8be0079c531659141344cd1fd0a4f28419497f9722a3daafe3b4186f6b6457e060405160405180910390a35050565b61454c80620001206000396000f3fe60806040523480156200001157600080fd5b5060043610620000b1576000357c0100000000000000000000000000000000000000000000000000000000900480639f4eb5f111620000805780639f4eb5f1146200013c578063ccbbd260146200015c578063f2fde38b1462000193578063fa7eb63514620001b357620000b1565b80633477912714620000b6578063715018a614620000ec5780638da5cb5b14620000f85780639e992612146200011a575b600080fd5b620000d46004803603810190620000ce9190620014f5565b620001d3565b604051620000e3919062001562565b60405180910390f35b620000f6620006c9565b005b620001026200075a565b60405162000111919062001562565b60405180910390f35b6200012462000783565b60405162000133919062001680565b60405180910390f35b6200015a6004803603810190620001549190620014f5565b62000890565b005b6200017a6004803603810190620001749190620016df565b62000c2e565b6040516200018a92919062001711565b60405180910390f35b620001b16004803603810190620001ab91906200173e565b62000ca3565b005b620001d16004803603810190620001cb9190620019cf565b62000da7565b005b600083600360008273ffffffffffffffffffffffffffffffffffffffff1673ffffffffffffffffffffffffffffffffffffffff16815260200190815260200160002060003373ffffffffffffffffffffffffffffffffffffffff1673ffffffffffffffffffffffffffffffffffffffff16815260200190815260200160002060009054906101000a900460ff16620002a2576040517f08c379a0000000000000000000000000000000000000000000000000000000008152600401620002999062001b07565b60405180910390fd5b60011515600460008677ffffffffffffffffffffffffffffffffffffffffffffffff191677ffffffffffffffffffffffffffffffffffffffffffffffff1916815260200190815260200160002060008577ffffffffffffffffffffffffffffffffffffffffffffffff191677ffffffffffffffffffffffffffffffffffffffffffffffff1916815260200190815260200160002060010160149054906101000a900460ff161515146200038c576040517f08c379a0000000000000000000000000000000000000000000000000000000008152600401620003839062001b79565b60405180910390fd5b600460008577ffffffffffffffffffffffffffffffffffffffffffffffff191677ffffffffffffffffffffffffffffffffffffffffffffffff1916815260200190815260200160002060008477ffffffffffffffffffffffffffffffffffffffffffffffff191677ffffffffffffffffffffffffffffffffffffffffffffffff1916815260200190815260200160002060010160009054906101000a900473ffffffffffffffffffffffffffffffffffffffff1673ffffffffffffffffffffffffffffffffffffffff166312ee7e4186336040518363ffffffff167c01000000000000000000000000000000000000000000000000000000000281526004016200049892919062001711565b600060405180830381600087803b158015620004b357600080fd5b505af1158015620004c8573d6000803e3d6000fd5b505050508473ffffffffffffffffffffffffffffffffffffffff166286823985600460008877ffffffffffffffffffffffffffffffffffffffffffffffff191677ffffffffffffffffffffffffffffffffffffffffffffffff1916815260200190815260200160002060008777ffffffffffffffffffffffffffffffffffffffffffffffff191677ffffffffffffffffffffffffffffffffffffffffffffffff1916815260200190815260200160002060010160009054906101000a900473ffffffffffffffffffffffffffffffffffffffff166040518363ffffffff167c0100000000000000000000000000000000000000000000000000000000028152600401620005d792919062001bac565b600060405180830381600087803b158015620005f257600080fd5b505af115801562000607573d6000803e3d6000fd5b50505050600460008577ffffffffffffffffffffffffffffffffffffffffffffffff191677ffffffffffffffffffffffffffffffffffffffffffffffff1916815260200190815260200160002060008477ffffffffffffffffffffffffffffffffffffffffffffffff191677ffffffffffffffffffffffffffffffffffffffffffffffff1916815260200190815260200160002060010160009054906101000a900473ffffffffffffffffffffffffffffffffffffffff169150509392505050565b620006d3620012ff565b73ffffffffffffffffffffffffffffffffffffffff16620006f36200075a565b73ffffffffffffffffffffffffffffffffffffffff16146200074c576040517f08c379a0000000000000000000000000000000000000000000000000000000008152600401620007439062001c29565b60405180910390fd5b62000758600062001307565b565b60008060009054906101000a900473ffffffffffffffffffffffffffffffffffffffff16905090565b60606002805480602002602001604051908101604052809291908181526020016000905b828210156200088757838290600052602060002090600202016040518060400160405290816000820160009054906101000a900473ffffffffffffffffffffffffffffffffffffffff1673ffffffffffffffffffffffffffffffffffffffff1673ffffffffffffffffffffffffffffffffffffffff1681526020016001820160009054906101000a900473ffffffffffffffffffffffffffffffffffffffff1673ffffffffffffffffffffffffffffffffffffffff1673ffffffffffffffffffffffffffffffffffffffff168152505081526020019060010190620007a7565b50505050905090565b6200089a620012ff565b73ffffffffffffffffffffffffffffffffffffffff16620008ba6200075a565b73ffffffffffffffffffffffffffffffffffffffff161462000913576040517f08c379a00000000000000000000000000000000000000000000000000000000081526004016200090a9062001c29565b60405180910390fd5b6001600460008477ffffffffffffffffffffffffffffffffffffffffffffffff191677ffffffffffffffffffffffffffffffffffffffffffffffff1916815260200190815260200160002060008377ffffffffffffffffffffffffffffffffffffffffffffffff191677ffffffffffffffffffffffffffffffffffffffffffffffff1916815260200190815260200160002060010160146101000a81548160ff02191690831515021790555081600460008477ffffffffffffffffffffffffffffffffffffffffffffffff191677ffffffffffffffffffffffffffffffffffffffffffffffff1916815260200190815260200160002060008377ffffffffffffffffffffffffffffffffffffffffffffffff191677ffffffffffffffffffffffffffffffffffffffffffffffff1916815260200190815260200160002060010160156101000a81548167ffffffffffffffff021916908378010000000000000000000000000000000000000000000000009004021790555080600460008477ffffffffffffffffffffffffffffffffffffffffffffffff191677ffffffffffffffffffffffffffffffffffffffffffffffff1916815260200190815260200160002060008377ffffffffffffffffffffffffffffffffffffffffffffffff191677ffffffffffffffffffffffffffffffffffffffffffffffff1916815260200190815260200160002060020160006101000a81548167ffffffffffffffff021916908378010000000000000000000000000000000000000000000000009004021790555082600460008477ffffffffffffffffffffffffffffffffffffffffffffffff191677ffffffffffffffffffffffffffffffffffffffffffffffff1916815260200190815260200160002060008377ffffffffffffffffffffffffffffffffffffffffffffffff191677ffffffffffffffffffffffffffffffffffffffffffffffff1916815260200190815260200160002060010160006101000a81548173ffffffffffffffffffffffffffffffffffffffff021916908373ffffffffffffffffffffffffffffffffffffffff160217905550505050565b6002818154811062000c3f57600080fd5b90600052602060002090600202016000915090508060000160009054906101000a900473ffffffffffffffffffffffffffffffffffffffff16908060010160009054906101000a900473ffffffffffffffffffffffffffffffffffffffff16905082565b62000cad620012ff565b73ffffffffffffffffffffffffffffffffffffffff1662000ccd6200075a565b73ffffffffffffffffffffffffffffffffffffffff161462000d26576040517f08c379a000000000000000000000000000000000000000000000000000000000815260040162000d1d9062001c29565b60405180910390fd5b600073ffffffffffffffffffffffffffffffffffffffff168173ffffffffffffffffffffffffffffffffffffffff16141562000d99576040517f08c379a000000000000000000000000000000000000000000000000000000000815260040162000d909062001cc1565b60405180910390fd5b62000da48162001307565b50565b600a81511062000dee576040517f08c379a000000000000000000000000000000000000000000000000000000000815260040162000de59062001d33565b60405180910390fd5b6000868686868660405162000e0390620013cb565b62000e1395949392919062001e17565b604051809103906000f08015801562000e30573d6000803e3d6000fd5b5090508073ffffffffffffffffffffffffffffffffffffffff166367561d93306040518263ffffffff167c010000000000000000000000000000000000000000000000000000000002815260040162000e8a919062001562565b600060405180830381600087803b15801562000ea557600080fd5b505af115801562000eba573d6000803e3d6000fd5b5050505062000ec8620013d9565b33816000019073ffffffffffffffffffffffffffffffffffffffff16908173ffffffffffffffffffffffffffffffffffffffff168152505081816020019073ffffffffffffffffffffffffffffffffffffffff16908173ffffffffffffffffffffffffffffffffffffffff168152505060005b8351811015620010d557600115156004600086848151811062000f635762000f6262001e66565b5b60200260200101516000015177ffffffffffffffffffffffffffffffffffffffffffffffff191677ffffffffffffffffffffffffffffffffffffffffffffffff19168152602001908152602001600020600086848151811062000fcb5762000fca62001e66565b5b60200260200101516020015177ffffffffffffffffffffffffffffffffffffffffffffffff191677ffffffffffffffffffffffffffffffffffffffffffffffff1916815260200190815260200160002060010160149054906101000a900460ff1615151462001071576040517f08c379a0000000000000000000000000000000000000000000000000000000008152600401620010689062001b79565b60405180910390fd5b620010c0838583815181106200108c576200108b62001e66565b5b602002602001015160000151868481518110620010ae57620010ad62001e66565b5b602002602001015160200151620001d3565b5080620010cd9062001ec4565b905062000f3b565b506001600360008473ffffffffffffffffffffffffffffffffffffffff1673ffffffffffffffffffffffffffffffffffffffff16815260200190815260200160002060003373ffffffffffffffffffffffffffffffffffffffff1673ffffffffffffffffffffffffffffffffffffffff16815260200190815260200160002060006101000a81548160ff021916908315150217905550600281908060018154018082558091505060019003906000526020600020906002020160009091909190915060008201518160000160006101000a81548173ffffffffffffffffffffffffffffffffffffffff021916908373ffffffffffffffffffffffffffffffffffffffff16021790555060208201518160010160006101000a81548173ffffffffffffffffffffffffffffffffffffffff021916908373ffffffffffffffffffffffffffffffffffffffff16021790555050508173ffffffffffffffffffffffffffffffffffffffff1663f2fde38b336040518263ffffffff167c01000000000000000000000000000000000000000000000000000000000281526004016200127e919062001562565b600060405180830381600087803b1580156200129957600080fd5b505af1158015620012ae573d6000803e3d6000fd5b505050507fb1eee3b28a9945db09f7a21d65593e3edb51ab7b10bb1f8e713a9a6afb7e347b3389898460200151604051620012ed949392919062001f12565b60405180910390a15050505050505050565b600033905090565b60008060009054906101000a900473ffffffffffffffffffffffffffffffffffffffff169050816000806101000a81548173ffffffffffffffffffffffffffffffffffffffff021916908373ffffffffffffffffffffffffffffffffffffffff1602179055508173ffffffffffffffffffffffffffffffffffffffff168173ffffffffffffffffffffffffffffffffffffffff167f8be0079c531659141344cd1fd0a4f28419497f9722a3daafe3b4186f6b6457e060405160405180910390a35050565b6125be8062001f5983390190565b6040518060400160405280600073ffffffffffffffffffffffffffffffffffffffff168152602001600073ffffffffffffffffffffffffffffffffffffffff1681525090565b6000604051905090565b600080fd5b600080fd5b600073ffffffffffffffffffffffffffffffffffffffff82169050919050565b6000620014608262001433565b9050919050565b620014728162001453565b81146200147e57600080fd5b50565b600081359050620014928162001467565b92915050565b60007fffffffffffffffff00000000000000000000000000000000000000000000000082169050919050565b620014cf8162001498565b8114620014db57600080fd5b50565b600081359050620014ef81620014c4565b92915050565b60008060006060848603121562001511576200151062001429565b5b6000620015218682870162001481565b93505060206200153486828701620014de565b92505060406200154786828701620014de565b9150509250925092565b6200155c8162001453565b82525050565b600060208201905062001579600083018462001551565b92915050565b600081519050919050565b600082825260208201905092915050565b6000819050602082019050919050565b620015b68162001453565b82525050565b604082016000820151620015d46000850182620015ab565b506020820151620015e96020850182620015ab565b50505050565b6000620015fd8383620015bc565b60408301905092915050565b6000602082019050919050565b600062001623826200157f565b6200162f81856200158a565b93506200163c836200159b565b8060005b8381101562001673578151620016578882620015ef565b9750620016648362001609565b92505060018101905062001640565b5085935050505092915050565b600060208201905081810360008301526200169c818462001616565b905092915050565b6000819050919050565b620016b981620016a4565b8114620016c557600080fd5b50565b600081359050620016d981620016ae565b92915050565b600060208284031215620016f857620016f762001429565b5b60006200170884828501620016c8565b91505092915050565b600060408201905062001728600083018562001551565b62001737602083018462001551565b9392505050565b60006020828403121562001757576200175662001429565b5b6000620017678482850162001481565b91505092915050565b600080fd5b600080fd5b600080fd5b60008083601f84011262001798576200179762001770565b5b8235905067ffffffffffffffff811115620017b857620017b762001775565b5b602083019150836001820283011115620017d757620017d66200177a565b5b9250929050565b60028110620017ec57600080fd5b50565b6000813590506200180081620017de565b92915050565b6000601f19601f8301169050919050565b7f4e487b7100000000000000000000000000000000000000000000000000000000600052604160045260246000fd5b620018518262001806565b810181811067ffffffffffffffff8211171562001873576200187262001817565b5b80604052505050565b6000620018886200141f565b905062001896828262001846565b919050565b600067ffffffffffffffff821115620018b957620018b862001817565b5b602082029050602081019050919050565b600080fd5b600060408284031215620018e857620018e7620018ca565b5b620018f460406200187c565b905060006200190684828501620014de565b60008301525060206200191c84828501620014de565b60208301525092915050565b60006200193f62001939846200189b565b6200187c565b905080838252602082019050604084028301858111156200196557620019646200177a565b5b835b818110156200199257806200197d8882620018cf565b84526020840193505060408101905062001967565b5050509392505050565b600082601f830112620019b457620019b362001770565b5b8135620019c684826020860162001928565b91505092915050565b60008060008060008060808789031215620019ef57620019ee62001429565b5b600087013567ffffffffffffffff81111562001a105762001a0f6200142e565b5b62001a1e89828a016200177f565b9650965050602087013567ffffffffffffffff81111562001a445762001a436200142e565b5b62001a5289828a016200177f565b9450945050604062001a6789828a01620017ef565b925050606087013567ffffffffffffffff81111562001a8b5762001a8a6200142e565b5b62001a9989828a016200199c565b9150509295509295509295565b600082825260208201905092915050565b7f496e76616c696420557365720000000000000000000000000000000000000000600082015250565b600062001aef600c8362001aa6565b915062001afc8262001ab7565b602082019050919050565b6000602082019050818103600083015262001b228162001ae0565b9050919050565b7f4d6f64756c65206e6f7420666f756e6400000000000000000000000000000000600082015250565b600062001b6160108362001aa6565b915062001b6e8262001b29565b602082019050919050565b6000602082019050818103600083015262001b948162001b52565b9050919050565b62001ba68162001498565b82525050565b600060408201905062001bc3600083018562001b9b565b62001bd2602083018462001551565b9392505050565b7f4f776e61626c653a2063616c6c6572206973206e6f7420746865206f776e6572600082015250565b600062001c1160208362001aa6565b915062001c1e8262001bd9565b602082019050919050565b6000602082019050818103600083015262001c448162001c02565b9050919050565b7f4f776e61626c653a206e6577206f776e657220697320746865207a65726f206160008201527f6464726573730000000000000000000000000000000000000000000000000000602082015250565b600062001ca960268362001aa6565b915062001cb68262001c4b565b604082019050919050565b6000602082019050818103600083015262001cdc8162001c9a565b9050919050565b7f4d6f64756c6573206d757374206265206c657373207468616e2031302e000000600082015250565b600062001d1b601d8362001aa6565b915062001d288262001ce3565b602082019050919050565b6000602082019050818103600083015262001d4e8162001d0c565b9050919050565b82818337600083830152505050565b600062001d72838562001aa6565b935062001d8183858462001d55565b62001d8c8362001806565b840190509392505050565b7f4e487b7100000000000000000000000000000000000000000000000000000000600052602160045260246000fd5b6002811062001dda5762001dd962001d97565b5b50565b600081905062001ded8262001dc6565b919050565b600062001dff8262001ddd565b9050919050565b62001e118162001df2565b82525050565b6000606082019050818103600083015262001e3481878962001d64565b9050818103602083015262001e4b81858762001d64565b905062001e5c604083018462001e06565b9695505050505050565b7f4e487b7100000000000000000000000000000000000000000000000000000000600052603260045260246000fd5b7f4e487b7100000000000000000000000000000000000000000000000000000000600052601160045260246000fd5b600062001ed182620016a4565b91507fffffffffffffffffffffffffffffffffffffffffffffffffffffffffffffffff82141562001f075762001f0662001e95565b5b600182019050919050565b600060608201905062001f29600083018762001551565b818103602083015262001f3e81858762001d64565b905062001f4f604083018462001551565b9594505050505056fe60806040523480156200001157600080fd5b50604051620025be380380620025be83398181016040528101906200003791906200046a565b620000696200005462000129640100000000026401000000009004565b62000131640100000000026401000000009004565b826001908051906020019062000081929190620001f5565b5081600290805190602001906200009a929190620001f5565b5080600360006101000a81548160ff02191690836001811115620000c357620000c262000504565b5b02179055506001600660003373ffffffffffffffffffffffffffffffffffffffff1673ffffffffffffffffffffffffffffffffffffffff16815260200190815260200160002060006101000a81548160ff02191690831515021790555050505062000598565b600033905090565b60008060009054906101000a900473ffffffffffffffffffffffffffffffffffffffff169050816000806101000a81548173ffffffffffffffffffffffffffffffffffffffff021916908373ffffffffffffffffffffffffffffffffffffffff1602179055508173ffffffffffffffffffffffffffffffffffffffff168173ffffffffffffffffffffffffffffffffffffffff167f8be0079c531659141344cd1fd0a4f28419497f9722a3daafe3b4186f6b6457e060405160405180910390a35050565b828054620002039062000562565b90600052602060002090601f01602090048101928262000227576000855562000273565b82601f106200024257805160ff191683800117855562000273565b8280016001018555821562000273579182015b828111156200027257825182559160200191906001019062000255565b5b50905062000282919062000286565b5090565b5b80821115620002a157600081600090555060010162000287565b5090565b6000604051905090565b600080fd5b600080fd5b600080fd5b600080fd5b6000601f19601f8301169050919050565b7f4e487b7100000000000000000000000000000000000000000000000000000000600052604160045260246000fd5b6200030e82620002c3565b810181811067ffffffffffffffff8211171562000330576200032f620002d4565b5b80604052505050565b600062000345620002a5565b905062000353828262000303565b919050565b600067ffffffffffffffff821115620003765762000375620002d4565b5b6200038182620002c3565b9050602081019050919050565b60005b83811015620003ae57808201518184015260208101905062000391565b83811115620003be576000848401525b50505050565b6000620003db620003d58462000358565b62000339565b905082815260208101848484011115620003fa57620003f9620002be565b5b620004078482856200038e565b509392505050565b600082601f830112620004275762000426620002b9565b5b815162000439848260208601620003c4565b91505092915050565b600281106200045057600080fd5b50565b600081519050620004648162000442565b92915050565b600080600060608486031215620004865762000485620002af565b5b600084015167ffffffffffffffff811115620004a757620004a6620002b4565b5b620004b5868287016200040f565b935050602084015167ffffffffffffffff811115620004d957620004d8620002b4565b5b620004e7868287016200040f565b9250506040620004fa8682870162000453565b9150509250925092565b7f4e487b7100000000000000000000000000000000000000000000000000000000600052602160045260246000fd5b7f4e487b7100000000000000000000000000000000000000000000000000000000600052602260045260246000fd5b600060028204905060018216806200057b57607f821691505b6020821081141562000592576200059162000533565b5b50919050565b61201680620005a86000396000f3fe608060405234801561001057600080fd5b506004361061011c576000357c0100000000000000000000000000000000000000000000000000000000900480637284e416116100b4578063d5cd3a3711610083578063d5cd3a37146102aa578063ee760f38146102c8578063f2fde38b146102f8578063f315aafe146103145761011c565b80637284e416146102225780638da5cb5b14610240578063b411ee941461025e578063b7e2077e1461028e5761011c565b8063536c44d6116100f0578063536c44d6146101ae57806367561d93146101de5780636bcfc011146101fa578063715018a6146102185761011c565b80628682391461012157806306fdde031461013d57806329adec141461015b57806352450cf914610179575b600080fd5b61013b600480360381019061013691906114ca565b610332565b005b610145610569565b60405161015291906115a3565b60405180910390f35b6101636105f7565b604051610170919061163c565b60405180910390f35b610193600480360381019061018e9190611657565b61060a565b6040516101a5969594939291906116d6565b60405180910390f35b6101c860048036038101906101c3919061176a565b610745565b6040516101d591906118a6565b60405180910390f35b6101f860048036038101906101f391906118c8565b6109b7565b005b610202610ae2565b60405161020f9190611a40565b60405180910390f35b610220610ddf565b005b61022a610e67565b60405161023791906115a3565b60405180910390f35b610248610ef5565b6040516102559190611a62565b60405180910390f35b61027860048036038101906102739190611bb2565b610f1e565b6040516102859190611bfb565b60405180910390f35b6102a860048036038101906102a391906118c8565b610f4e565b005b6102b2611079565b6040516102bf9190611cc5565b60405180910390f35b6102e260048036038101906102dd919061176a565b61117a565b6040516102ef9190611bfb565b60405180910390f35b610312600480360381019061030d91906118c8565b6111b2565b005b61031c6112aa565b6040516103299190611ce7565b60405180910390f35b600660003373ffffffffffffffffffffffffffffffffffffffff1673ffffffffffffffffffffffffffffffffffffffff16815260200190815260200160002060009054906101000a900460ff166103be576040517f08c379a00000000000000000000000000000000000000000000000000000000081526004016103b590611d4e565b60405180910390fd5b6001600860008477ffffffffffffffffffffffffffffffffffffffffffffffff191677ffffffffffffffffffffffffffffffffffffffffffffffff1916815260200190815260200160002060010160146101000a81548160ff021916908315150217905550600454600860008477ffffffffffffffffffffffffffffffffffffffffffffffff191677ffffffffffffffffffffffffffffffffffffffffffffffff191681526020019081526020016000206000018190555080600860008477ffffffffffffffffffffffffffffffffffffffffffffffff191677ffffffffffffffffffffffffffffffffffffffffffffffff1916815260200190815260200160002060010160006101000a81548173ffffffffffffffffffffffffffffffffffffffff021916908373ffffffffffffffffffffffffffffffffffffffff1602179055508160076000600454815260200190815260200160002060006101000a81548167ffffffffffffffff021916908378010000000000000000000000000000000000000000000000009004021790555060046000815461055e90611d9d565b919050819055505050565b6001805461057690611e15565b80601f01602080910402602001604051908101604052809291908181526020018280546105a290611e15565b80156105ef5780601f106105c4576101008083540402835291602001916105ef565b820191906000526020600020905b8154815290600101906020018083116105d257829003601f168201915b505050505081565b600360009054906101000a900460ff1681565b60086020528060005260406000206000915090508060000154908060010160009054906101000a900473ffffffffffffffffffffffffffffffffffffffff16908060010160149054906101000a900460ff16908060010160159054906101000a9004780100000000000000000000000000000000000000000000000002908060020160009054906101000a9004780100000000000000000000000000000000000000000000000002908060030180546106c290611e15565b80601f01602080910402602001604051908101604052809291908181526020018280546106ee90611e15565b801561073b5780601f106107105761010080835404028352916020019161073b565b820191906000526020600020905b81548152906001019060200180831161071e57829003601f168201915b5050505050905086565b61074d61137c565b600860006007600085815260200190815260200160002060009054906101000a900478010000000000000000000000000000000000000000000000000277ffffffffffffffffffffffffffffffffffffffffffffffff191677ffffffffffffffffffffffffffffffffffffffffffffffff191681526020019081526020016000206040518060c0016040529081600082015481526020016001820160009054906101000a900473ffffffffffffffffffffffffffffffffffffffff1673ffffffffffffffffffffffffffffffffffffffff1673ffffffffffffffffffffffffffffffffffffffff1681526020016001820160149054906101000a900460ff161515151581526020016001820160159054906101000a900478010000000000000000000000000000000000000000000000000277ffffffffffffffffffffffffffffffffffffffffffffffff191677ffffffffffffffffffffffffffffffffffffffffffffffff191681526020016002820160009054906101000a900478010000000000000000000000000000000000000000000000000277ffffffffffffffffffffffffffffffffffffffffffffffff191677ffffffffffffffffffffffffffffffffffffffffffffffff1916815260200160038201805461092e90611e15565b80601f016020809104026020016040519081016040528092919081815260200182805461095a90611e15565b80156109a75780601f1061097c576101008083540402835291602001916109a7565b820191906000526020600020905b81548152906001019060200180831161098a57829003601f168201915b5050505050815250509050919050565b60011515600560003373ffffffffffffffffffffffffffffffffffffffff1673ffffffffffffffffffffffffffffffffffffffff16815260200190815260200160002060009054906101000a900460ff1615151480610a485750610a19610ef5565b73ffffffffffffffffffffffffffffffffffffffff163373ffffffffffffffffffffffffffffffffffffffff16145b610a87576040517f08c379a0000000000000000000000000000000000000000000000000000000008152600401610a7e90611e93565b60405180910390fd5b6001600560008373ffffffffffffffffffffffffffffffffffffffff1673ffffffffffffffffffffffffffffffffffffffff16815260200190815260200160002060006101000a81548160ff02191690831515021790555050565b606060045467ffffffffffffffff811115610b0057610aff611a87565b5b604051908082528060200260200182016040528015610b3957816020015b610b2661137c565b815260200190600190039081610b1e5790505b50905060005b600454811015610ddb57600860006007600084815260200190815260200160002060009054906101000a900478010000000000000000000000000000000000000000000000000277ffffffffffffffffffffffffffffffffffffffffffffffff191677ffffffffffffffffffffffffffffffffffffffffffffffff191681526020019081526020016000206040518060c0016040529081600082015481526020016001820160009054906101000a900473ffffffffffffffffffffffffffffffffffffffff1673ffffffffffffffffffffffffffffffffffffffff1673ffffffffffffffffffffffffffffffffffffffff1681526020016001820160149054906101000a900460ff161515151581526020016001820160159054906101000a900478010000000000000000000000000000000000000000000000000277ffffffffffffffffffffffffffffffffffffffffffffffff191677ffffffffffffffffffffffffffffffffffffffffffffffff191681526020016002820160009054906101000a900478010000000000000000000000000000000000000000000000000277ffffffffffffffffffffffffffffffffffffffffffffffff191677ffffffffffffffffffffffffffffffffffffffffffffffff19168152602001600382018054610d2a90611e15565b80601f0160208091040260200160405190810160405280929190818152602001828054610d5690611e15565b8015610da35780601f10610d7857610100808354040283529160200191610da3565b820191906000526020600020905b815481529060010190602001808311610d8657829003601f168201915b505050505081525050828281518110610dbf57610dbe611eb3565b5b602002602001018190525080610dd490611d9d565b9050610b3f565b5090565b610de76112b0565b73ffffffffffffffffffffffffffffffffffffffff16610e05610ef5565b73ffffffffffffffffffffffffffffffffffffffff1614610e5b576040517f08c379a0000000000000000000000000000000000000000000000000000000008152600401610e5290611f2e565b60405180910390fd5b610e6560006112b8565b565b60028054610e7490611e15565b80601f0160208091040260200160405190810160405280929190818152602001828054610ea090611e15565b8015610eed5780601f10610ec257610100808354040283529160200191610eed565b820191906000526020600020905b815481529060010190602001808311610ed057829003601f168201915b505050505081565b60008060009054906101000a900473ffffffffffffffffffffffffffffffffffffffff16905090565b600081604051602001610f3191906115a3565b604051602081830303815290604052805190602001209050919050565b60011515600560003373ffffffffffffffffffffffffffffffffffffffff1673ffffffffffffffffffffffffffffffffffffffff16815260200190815260200160002060009054906101000a900460ff1615151480610fdf5750610fb0610ef5565b73ffffffffffffffffffffffffffffffffffffffff163373ffffffffffffffffffffffffffffffffffffffff16145b61101e576040517f08c379a000000000000000000000000000000000000000000000000000000000815260040161101590611e93565b60405180910390fd5b6000600560008373ffffffffffffffffffffffffffffffffffffffff1673ffffffffffffffffffffffffffffffffffffffff16815260200190815260200160002060006101000a81548160ff02191690831515021790555050565b606060045467ffffffffffffffff81111561109757611096611a87565b5b6040519080825280602002602001820160405280156110c55781602001602082028036833780820191505090505b50905060005b600454811015611176576007600082815260200190815260200160002060009054906101000a900478010000000000000000000000000000000000000000000000000282828151811061112157611120611eb3565b5b602002602001019077ffffffffffffffffffffffffffffffffffffffffffffffff1916908177ffffffffffffffffffffffffffffffffffffffffffffffff1916815250508061116f90611d9d565b90506110cb565b5090565b60076020528060005260406000206000915054906101000a900478010000000000000000000000000000000000000000000000000281565b6111ba6112b0565b73ffffffffffffffffffffffffffffffffffffffff166111d8610ef5565b73ffffffffffffffffffffffffffffffffffffffff161461122e576040517f08c379a000000000000000000000000000000000000000000000000000000000815260040161122590611f2e565b60405180910390fd5b600073ffffffffffffffffffffffffffffffffffffffff168173ffffffffffffffffffffffffffffffffffffffff16141561129e576040517f08c379a000000000000000000000000000000000000000000000000000000000815260040161129590611fc0565b60405180910390fd5b6112a7816112b8565b50565b60045481565b600033905090565b60008060009054906101000a900473ffffffffffffffffffffffffffffffffffffffff169050816000806101000a81548173ffffffffffffffffffffffffffffffffffffffff021916908373ffffffffffffffffffffffffffffffffffffffff1602179055508173ffffffffffffffffffffffffffffffffffffffff168173ffffffffffffffffffffffffffffffffffffffff167f8be0079c531659141344cd1fd0a4f28419497f9722a3daafe3b4186f6b6457e060405160405180910390a35050565b6040518060c0016040528060008152602001600073ffffffffffffffffffffffffffffffffffffffff168152602001600015158152602001600077ffffffffffffffffffffffffffffffffffffffffffffffff19168152602001600077ffffffffffffffffffffffffffffffffffffffffffffffff19168152602001606081525090565b6000604051905090565b600080fd5b600080fd5b60007fffffffffffffffff00000000000000000000000000000000000000000000000082169050919050565b61144981611414565b811461145457600080fd5b50565b60008135905061146681611440565b92915050565b600073ffffffffffffffffffffffffffffffffffffffff82169050919050565b60006114978261146c565b9050919050565b6114a78161148c565b81146114b257600080fd5b50565b6000813590506114c48161149e565b92915050565b600080604083850312156114e1576114e061140a565b5b60006114ef85828601611457565b9250506020611500858286016114b5565b9150509250929050565b600081519050919050565b600082825260208201905092915050565b60005b83811015611544578082015181840152602081019050611529565b83811115611553576000848401525b50505050565b6000601f19601f8301169050919050565b60006115758261150a565b61157f8185611515565b935061158f818560208601611526565b61159881611559565b840191505092915050565b600060208201905081810360008301526115bd818461156a565b905092915050565b7f4e487b7100000000000000000000000000000000000000000000000000000000600052602160045260246000fd5b60028110611605576116046115c5565b5b50565b6000819050611616826115f4565b919050565b600061162682611608565b9050919050565b6116368161161b565b82525050565b6000602082019050611651600083018461162d565b92915050565b60006020828403121561166d5761166c61140a565b5b600061167b84828501611457565b91505092915050565b6000819050919050565b61169781611684565b82525050565b6116a68161148c565b82525050565b60008115159050919050565b6116c1816116ac565b82525050565b6116d081611414565b82525050565b600060c0820190506116eb600083018961168e565b6116f8602083018861169d565b61170560408301876116b8565b61171260608301866116c7565b61171f60808301856116c7565b81810360a0830152611731818461156a565b9050979650505050505050565b61174781611684565b811461175257600080fd5b50565b6000813590506117648161173e565b92915050565b6000602082840312156117805761177f61140a565b5b600061178e84828501611755565b91505092915050565b6117a081611684565b82525050565b6117af8161148c565b82525050565b6117be816116ac565b82525050565b6117cd81611414565b82525050565b600082825260208201905092915050565b60006117ef8261150a565b6117f981856117d3565b9350611809818560208601611526565b61181281611559565b840191505092915050565b600060c0830160008301516118356000860182611797565b50602083015161184860208601826117a6565b50604083015161185b60408601826117b5565b50606083015161186e60608601826117c4565b50608083015161188160808601826117c4565b5060a083015184820360a086015261189982826117e4565b9150508091505092915050565b600060208201905081810360008301526118c0818461181d565b905092915050565b6000602082840312156118de576118dd61140a565b5b60006118ec848285016114b5565b91505092915050565b600081519050919050565b600082825260208201905092915050565b6000819050602082019050919050565b600060c0830160008301516119396000860182611797565b50602083015161194c60208601826117a6565b50604083015161195f60408601826117b5565b50606083015161197260608601826117c4565b50608083015161198560808601826117c4565b5060a083015184820360a086015261199d82826117e4565b9150508091505092915050565b60006119b68383611921565b905092915050565b6000602082019050919050565b60006119d6826118f5565b6119e08185611900565b9350836020820285016119f285611911565b8060005b85811015611a2e5784840389528151611a0f85826119aa565b9450611a1a836119be565b925060208a019950506001810190506119f6565b50829750879550505050505092915050565b60006020820190508181036000830152611a5a81846119cb565b905092915050565b6000602082019050611a77600083018461169d565b92915050565b600080fd5b600080fd5b7f4e487b7100000000000000000000000000000000000000000000000000000000600052604160045260246000fd5b611abf82611559565b810181811067ffffffffffffffff82111715611ade57611add611a87565b5b80604052505050565b6000611af1611400565b9050611afd8282611ab6565b919050565b600067ffffffffffffffff821115611b1d57611b1c611a87565b5b611b2682611559565b9050602081019050919050565b82818337600083830152505050565b6000611b55611b5084611b02565b611ae7565b905082815260208101848484011115611b7157611b70611a82565b5b611b7c848285611b33565b509392505050565b600082601f830112611b9957611b98611a7d565b5b8135611ba9848260208601611b42565b91505092915050565b600060208284031215611bc857611bc761140a565b5b600082013567ffffffffffffffff811115611be657611be561140f565b5b611bf284828501611b84565b91505092915050565b6000602082019050611c1060008301846116c7565b92915050565b600081519050919050565b600082825260208201905092915050565b6000819050602082019050919050565b6000611c4e83836117c4565b60208301905092915050565b6000602082019050919050565b6000611c7282611c16565b611c7c8185611c21565b9350611c8783611c32565b8060005b83811015611cb8578151611c9f8882611c42565b9750611caa83611c5a565b925050600181019050611c8b565b5085935050505092915050565b60006020820190508181036000830152611cdf8184611c67565b905092915050565b6000602082019050611cfc600083018461168e565b92915050565b7f496e76616c696420557365720000000000000000000000000000000000000000600082015250565b6000611d38600c83611515565b9150611d4382611d02565b602082019050919050565b60006020820190508181036000830152611d6781611d2b565b9050919050565b7f4e487b7100000000000000000000000000000000000000000000000000000000600052601160045260246000fd5b6000611da882611684565b91507fffffffffffffffffffffffffffffffffffffffffffffffffffffffffffffffff821415611ddb57611dda611d6e565b5b600182019050919050565b7f4e487b7100000000000000000000000000000000000000000000000000000000600052602260045260246000fd5b60006002820490506001821680611e2d57607f821691505b60208210811415611e4157611e40611de6565b5b50919050565b7f4e6f7420617574686f72697a6564000000000000000000000000000000000000600082015250565b6000611e7d600e83611515565b9150611e8882611e47565b602082019050919050565b60006020820190508181036000830152611eac81611e70565b9050919050565b7f4e487b7100000000000000000000000000000000000000000000000000000000600052603260045260246000fd5b7f4f776e61626c653a2063616c6c6572206973206e6f7420746865206f776e6572600082015250565b6000611f18602083611515565b9150611f2382611ee2565b602082019050919050565b60006020820190508181036000830152611f4781611f0b565b9050919050565b7f4f776e61626c653a206e6577206f776e657220697320746865207a65726f206160008201527f6464726573730000000000000000000000000000000000000000000000000000602082015250565b6000611faa602683611515565b9150611fb582611f4e565b604082019050919050565b60006020820190508181036000830152611fd981611f9d565b905091905056fea2646970667358221220901ba2140df13e365d18983b9b8f8fc4d98858a3a5b4a8a2962482eb2adf20ae64736f6c63430008090033a264697066735822122063e7a82b9ed0bd3ad44ad832a2b2cb3f960c6eced2c4daa59795164b0a63ffbf64736f6c63430008090033",
  "immutableReferences": {},
  "source": "// SPDX-License-Identifier: MIT\r\npragma solidity ^0.8.9;\r\n\r\nimport \"@openzeppelin/contracts/utils/math/SafeMath.sol\";\r\nimport \"@openzeppelin/contracts/access/Ownable.sol\";\r\n\r\nimport './Modules/interfaces/IModule.sol';\r\nimport './DaoBase.sol';\r\nimport './Data.sol';\r\n\r\n//is DaosFactory\r\ncontract DaosFactory is Ownable {\r\n  using SafeMath for uint256;\r\n  uint256 private daoId;\r\n\r\n  // //user > daos\r\n  // mapping(address => address[]) public membershipDaos;\r\n  deployedDao[] public daos;\r\n  mapping(address => mapping(address => bool)) daoOwners;\r\n  //MyModule[] public availableModules;\r\n  //mapping(string => MyModule) public availableModules;\r\n  // mapping(address => ModuleDao[]) public modulesDaos;\r\n  //dao address => moduleType => module\r\n  mapping(bytes8 => mapping(bytes8 => Data.Module)) modulesDaos;\r\n\r\n  struct deployedDao {\r\n    address owner;\r\n    address daoAddress;\r\n  }\r\n\r\n  // struct MyModule {\r\n  //   string moduleType;\r\n  //   string smartContractName;\r\n  //   string code;\r\n  //   bool isActive;\r\n  // }\r\n\r\n  // struct ModuleDao {\r\n  //   uint256 id;\r\n  //   address moduleAddress;\r\n  //   // IModule module;\r\n  //   bool isActive;\r\n  //   string moduleType;\r\n  //   string code;\r\n  //   //string abiCode;\r\n  // }\r\n\r\n  event DaoCreated(address user, string name, address daoAddress);\r\n  event ModuleActivated(address user, string name, address daoAddress);\r\n\r\n  modifier onlyDaoOwners(address _daoAddress) {\r\n    require(daoOwners[_daoAddress][msg.sender], \"Invalid User\");\r\n    _;\r\n  }\r\n\r\n  function getdeployedDaos() external view returns (deployedDao[] memory) {\r\n    return daos;\r\n  }\r\n\r\n  function activateModuleForDao(address _daoAddress, bytes8 _type, bytes8 _code) public onlyDaoOwners(_daoAddress) returns(address) {\r\n    require(modulesDaos[_type][_code].isActive == true, \"Module not found\");\r\n    IModule(modulesDaos[_type][_code].moduleAddress).addDao(_daoAddress, msg.sender);\r\n    DaoBase(_daoAddress).addModule(_type, modulesDaos[_type][_code].moduleAddress);\r\n    return modulesDaos[_type][_code].moduleAddress;  \r\n  }\r\n\r\n  function addModule(address _moduleAddress, bytes8 _type, bytes8 _code) public onlyOwner {\r\n    modulesDaos[_type][_code].isActive = true;\r\n    modulesDaos[_type][_code].moduleType = _type;\r\n    modulesDaos[_type][_code].moduleCode = _code;\r\n    modulesDaos[_type][_code].moduleAddress = _moduleAddress;\r\n  }\r\n\r\n  //  function getDaosAddressByMember(address _addressMember) external view returns (address[] memory) {\r\n  //   return (membershipDaos[_addressMember]);\r\n  // }\r\n\r\n  function createDAO(string calldata _name, string calldata _description, Data.visibilityEnum _visibility\r\n                    , Data.ModuleToActivate[] memory _modules) public {\r\n    require(_modules.length < 10, \"Modules must be less than 10.\");\r\n    DaoBase dao = new DaoBase(_name, _description, _visibility);\r\n    dao.authorizeContract(address(this));\r\n    // MembershipDao memberModule = new MembershipDao(membershipMode);\r\n    // dao.addModule(dao.hash(\"MemberModule\"), address(memberModule));\r\n    deployedDao memory _dao;\r\n    _dao.owner = msg.sender;\r\n    _dao.daoAddress = address(dao);\r\n\r\n    for(uint i=0; i<_modules.length; ++i){\r\n      require(modulesDaos[_modules[i].moduleType][_modules[i].moduleCode].isActive == true, \"Module not found\");\r\n        activateModuleForDao(address(dao)\r\n        , _modules[i].moduleType\r\n        , _modules[i].moduleCode);\r\n     }\r\n    daoOwners[address(dao)][msg.sender] = true;\r\n    daos.push(_dao); \r\n    dao.transferOwnership(msg.sender);\r\n    emit DaoCreated(msg.sender, _name, _dao.daoAddress);\r\n  }\r\n}",
  "sourcePath": "C:\\Users\\mdmou\\source\\repos\\MY-DAO\\contracts\\DaosFactory.sol",
  "compiler": {
    "name": "solc",
    "version": "0.8.9+commit.e5eed63a.Emscripten.clang"
  },
  "schemaVersion": "3.4.4",
  "updatedAt": "2022-05-15T14:44:42.815Z",
  "networkType": "ethereum",
  "devdoc": {
    "kind": "dev",
    "methods": {
      "owner()": {
        "details": "Returns the address of the current owner."
      },
      "renounceOwnership()": {
        "details": "Leaves the contract without owner. It will not be possible to call `onlyOwner` functions anymore. Can only be called by the current owner. NOTE: Renouncing ownership will leave the contract without an owner, thereby removing any functionality that is only available to the owner."
      },
      "transferOwnership(address)": {
        "details": "Transfers ownership of the contract to a new account (`newOwner`). Can only be called by the current owner."
      }
    },
    "version": 1
  },
  "userdoc": {
    "kind": "user",
    "methods": {},
    "version": 1
  }
}