{
  "contractName": "DaosFactory",
  "abi": [
    {
      "anonymous": false,
      "inputs": [
        {
          "indexed": false,
          "internalType": "address",
          "name": "user",
          "type": "address"
        },
        {
          "indexed": false,
          "internalType": "string",
          "name": "name",
          "type": "string"
        },
        {
          "indexed": false,
          "internalType": "address",
          "name": "daoAddress",
          "type": "address"
        }
      ],
      "name": "DaoCreated",
      "type": "event"
    },
    {
      "anonymous": false,
      "inputs": [
        {
          "indexed": true,
          "internalType": "address",
          "name": "previousOwner",
          "type": "address"
        },
        {
          "indexed": true,
          "internalType": "address",
          "name": "newOwner",
          "type": "address"
        }
      ],
      "name": "OwnershipTransferred",
      "type": "event"
    },
    {
      "inputs": [
        {
          "internalType": "uint256",
          "name": "",
          "type": "uint256"
        }
      ],
      "name": "daos",
      "outputs": [
        {
          "internalType": "address",
          "name": "owner",
          "type": "address"
        },
        {
          "internalType": "address",
          "name": "daoAddress",
          "type": "address"
        }
      ],
      "stateMutability": "view",
      "type": "function",
      "constant": true
    },
    {
      "inputs": [
        {
          "internalType": "address",
          "name": "",
          "type": "address"
        },
        {
          "internalType": "uint256",
          "name": "",
          "type": "uint256"
        }
      ],
      "name": "membershipDaos",
      "outputs": [
        {
          "internalType": "address",
          "name": "",
          "type": "address"
        }
      ],
      "stateMutability": "view",
      "type": "function",
      "constant": true
    },
    {
      "inputs": [],
      "name": "owner",
      "outputs": [
        {
          "internalType": "address",
          "name": "",
          "type": "address"
        }
      ],
      "stateMutability": "view",
      "type": "function",
      "constant": true
    },
    {
      "inputs": [],
      "name": "renounceOwnership",
      "outputs": [],
      "stateMutability": "nonpayable",
      "type": "function"
    },
    {
      "inputs": [
        {
          "internalType": "address",
          "name": "newOwner",
          "type": "address"
        }
      ],
      "name": "transferOwnership",
      "outputs": [],
      "stateMutability": "nonpayable",
      "type": "function"
    },
    {
      "inputs": [],
      "name": "getdeployedDaos",
      "outputs": [
        {
          "components": [
            {
              "internalType": "address",
              "name": "owner",
              "type": "address"
            },
            {
              "internalType": "address",
              "name": "daoAddress",
              "type": "address"
            }
          ],
          "internalType": "struct DaosFactory.deployedDao[]",
          "name": "",
          "type": "tuple[]"
        }
      ],
      "stateMutability": "view",
      "type": "function",
      "constant": true
    },
    {
      "inputs": [
        {
          "internalType": "address",
          "name": "_addressMember",
          "type": "address"
        }
      ],
      "name": "getDaosAddressByMember",
      "outputs": [
        {
          "internalType": "address[]",
          "name": "",
          "type": "address[]"
        }
      ],
      "stateMutability": "view",
      "type": "function",
      "constant": true
    },
    {
      "inputs": [
        {
          "internalType": "string",
          "name": "_name",
          "type": "string"
        },
        {
          "internalType": "bool",
          "name": "_byInvitation",
          "type": "bool"
        }
      ],
      "name": "createDAO",
      "outputs": [],
      "stateMutability": "nonpayable",
      "type": "function"
    }
  ],
  "bytecode": "0x608060405234801561001057600080fd5b5061003f61002b610044640100000000026401000000009004565b61004c640100000000026401000000009004565b610110565b600033905090565b60008060009054906101000a900473ffffffffffffffffffffffffffffffffffffffff169050816000806101000a81548173ffffffffffffffffffffffffffffffffffffffff021916908373ffffffffffffffffffffffffffffffffffffffff1602179055508173ffffffffffffffffffffffffffffffffffffffff168173ffffffffffffffffffffffffffffffffffffffff167f8be0079c531659141344cd1fd0a4f28419497f9722a3daafe3b4186f6b6457e060405160405180910390a35050565b6130ba8061011f6000396000f3fe60806040523480156200001157600080fd5b5060043610620000b1576000357c0100000000000000000000000000000000000000000000000000000000900480638da5cb5b11620000805780638da5cb5b146200014e5780639e9926121462000170578063ccbbd2601462000192578063f2fde38b14620001c957620000b1565b80635dbe2f3f14620000b65780636442277c14620000ec578063715018a6146200010c5780637fda9d1e1462000118575b600080fd5b620000d46004803603810190620000ce919062000c16565b620001e9565b604051620000e3919062000c6e565b60405180910390f35b6200010a600480360381019062000104919062000d36565b62000238565b005b620001166200063e565b005b62000136600480360381019062000130919062000da0565b620006cf565b60405162000145919062000ea0565b60405180910390f35b620001586200079e565b60405162000167919062000c6e565b60405180910390f35b6200017a620007c7565b60405162000189919062000fb4565b60405180910390f35b620001b06004803603810190620001aa919062000fd8565b620008d4565b604051620001c09291906200100a565b60405180910390f35b620001e76004803603810190620001e1919062000da0565b62000949565b005b600260205281600052604060002081815481106200020657600080fd5b906000526020600020016000915091509054906101000a900473ffffffffffffffffffffffffffffffffffffffff1681565b60008383836040516200024b9062000b18565b6200025993929190620010ac565b604051809103906000f08015801562000276573d6000803e3d6000fd5b5090508073ffffffffffffffffffffffffffffffffffffffff166367561d93306040518263ffffffff167c0100000000000000000000000000000000000000000000000000000000028152600401620002d0919062000c6e565b600060405180830381600087803b158015620002eb57600080fd5b505af115801562000300573d6000803e3d6000fd5b505050508073ffffffffffffffffffffffffffffffffffffffff1663ca6d56dc336040518263ffffffff167c01000000000000000000000000000000000000000000000000000000000281526004016200035b919062000c6e565b600060405180830381600087803b1580156200037657600080fd5b505af11580156200038b573d6000803e3d6000fd5b505050506200039962000b26565b33816000019073ffffffffffffffffffffffffffffffffffffffff16908173ffffffffffffffffffffffffffffffffffffffff168152505081816020019073ffffffffffffffffffffffffffffffffffffffff16908173ffffffffffffffffffffffffffffffffffffffff1681525050600381908060018154018082558091505060019003906000526020600020906002020160009091909190915060008201518160000160006101000a81548173ffffffffffffffffffffffffffffffffffffffff021916908373ffffffffffffffffffffffffffffffffffffffff16021790555060208201518160010160006101000a81548173ffffffffffffffffffffffffffffffffffffffff021916908373ffffffffffffffffffffffffffffffffffffffff1602179055505050600260003373ffffffffffffffffffffffffffffffffffffffff1673ffffffffffffffffffffffffffffffffffffffff16815260200190815260200160002081602001519080600181540180825580915050600190039060005260206000200160009091909190916101000a81548173ffffffffffffffffffffffffffffffffffffffff021916908373ffffffffffffffffffffffffffffffffffffffff1602179055508173ffffffffffffffffffffffffffffffffffffffff1663f2fde38b336040518263ffffffff167c0100000000000000000000000000000000000000000000000000000000028152600401620005c0919062000c6e565b600060405180830381600087803b158015620005db57600080fd5b505af1158015620005f0573d6000803e3d6000fd5b505050507fb1eee3b28a9945db09f7a21d65593e3edb51ab7b10bb1f8e713a9a6afb7e347b33868684602001516040516200062f9493929190620010e2565b60405180910390a15050505050565b6200064862000a4c565b73ffffffffffffffffffffffffffffffffffffffff16620006686200079e565b73ffffffffffffffffffffffffffffffffffffffff1614620006c1576040517f08c379a0000000000000000000000000000000000000000000000000000000008152600401620006b89062001178565b60405180910390fd5b620006cd600062000a54565b565b6060600260008373ffffffffffffffffffffffffffffffffffffffff1673ffffffffffffffffffffffffffffffffffffffff1681526020019081526020016000208054806020026020016040519081016040528092919081815260200182805480156200079257602002820191906000526020600020905b8160009054906101000a900473ffffffffffffffffffffffffffffffffffffffff1673ffffffffffffffffffffffffffffffffffffffff168152602001906001019080831162000747575b50505050509050919050565b60008060009054906101000a900473ffffffffffffffffffffffffffffffffffffffff16905090565b60606003805480602002602001604051908101604052809291908181526020016000905b82821015620008cb57838290600052602060002090600202016040518060400160405290816000820160009054906101000a900473ffffffffffffffffffffffffffffffffffffffff1673ffffffffffffffffffffffffffffffffffffffff1673ffffffffffffffffffffffffffffffffffffffff1681526020016001820160009054906101000a900473ffffffffffffffffffffffffffffffffffffffff1673ffffffffffffffffffffffffffffffffffffffff1673ffffffffffffffffffffffffffffffffffffffff168152505081526020019060010190620007eb565b50505050905090565b60038181548110620008e557600080fd5b90600052602060002090600202016000915090508060000160009054906101000a900473ffffffffffffffffffffffffffffffffffffffff16908060010160009054906101000a900473ffffffffffffffffffffffffffffffffffffffff16905082565b6200095362000a4c565b73ffffffffffffffffffffffffffffffffffffffff16620009736200079e565b73ffffffffffffffffffffffffffffffffffffffff1614620009cc576040517f08c379a0000000000000000000000000000000000000000000000000000000008152600401620009c39062001178565b60405180910390fd5b600073ffffffffffffffffffffffffffffffffffffffff168173ffffffffffffffffffffffffffffffffffffffff160362000a3e576040517f08c379a000000000000000000000000000000000000000000000000000000000815260040162000a359062001210565b60405180910390fd5b62000a498162000a54565b50565b600033905090565b60008060009054906101000a900473ffffffffffffffffffffffffffffffffffffffff169050816000806101000a81548173ffffffffffffffffffffffffffffffffffffffff021916908373ffffffffffffffffffffffffffffffffffffffff1602179055508173ffffffffffffffffffffffffffffffffffffffff168173ffffffffffffffffffffffffffffffffffffffff167f8be0079c531659141344cd1fd0a4f28419497f9722a3daafe3b4186f6b6457e060405160405180910390a35050565b611e52806200123383390190565b6040518060400160405280600073ffffffffffffffffffffffffffffffffffffffff168152602001600073ffffffffffffffffffffffffffffffffffffffff1681525090565b600080fd5b600080fd5b600073ffffffffffffffffffffffffffffffffffffffff82169050919050565b600062000ba38262000b76565b9050919050565b62000bb58162000b96565b811462000bc157600080fd5b50565b60008135905062000bd58162000baa565b92915050565b6000819050919050565b62000bf08162000bdb565b811462000bfc57600080fd5b50565b60008135905062000c108162000be5565b92915050565b6000806040838503121562000c305762000c2f62000b6c565b5b600062000c408582860162000bc4565b925050602062000c538582860162000bff565b9150509250929050565b62000c688162000b96565b82525050565b600060208201905062000c85600083018462000c5d565b92915050565b600080fd5b600080fd5b600080fd5b60008083601f84011262000cb35762000cb262000c8b565b5b8235905067ffffffffffffffff81111562000cd35762000cd262000c90565b5b60208301915083600182028301111562000cf25762000cf162000c95565b5b9250929050565b60008115159050919050565b62000d108162000cf9565b811462000d1c57600080fd5b50565b60008135905062000d308162000d05565b92915050565b60008060006040848603121562000d525762000d5162000b6c565b5b600084013567ffffffffffffffff81111562000d735762000d7262000b71565b5b62000d818682870162000c9a565b9350935050602062000d968682870162000d1f565b9150509250925092565b60006020828403121562000db95762000db862000b6c565b5b600062000dc98482850162000bc4565b91505092915050565b600081519050919050565b600082825260208201905092915050565b6000819050602082019050919050565b62000e098162000b96565b82525050565b600062000e1d838362000dfe565b60208301905092915050565b6000602082019050919050565b600062000e438262000dd2565b62000e4f818562000ddd565b935062000e5c8362000dee565b8060005b8381101562000e9357815162000e77888262000e0f565b975062000e848362000e29565b92505060018101905062000e60565b5085935050505092915050565b6000602082019050818103600083015262000ebc818462000e36565b905092915050565b600081519050919050565b600082825260208201905092915050565b6000819050602082019050919050565b60408201600082015162000f08600085018262000dfe565b50602082015162000f1d602085018262000dfe565b50505050565b600062000f31838362000ef0565b60408301905092915050565b6000602082019050919050565b600062000f578262000ec4565b62000f63818562000ecf565b935062000f708362000ee0565b8060005b8381101562000fa757815162000f8b888262000f23565b975062000f988362000f3d565b92505060018101905062000f74565b5085935050505092915050565b6000602082019050818103600083015262000fd0818462000f4a565b905092915050565b60006020828403121562000ff15762000ff062000b6c565b5b6000620010018482850162000bff565b91505092915050565b600060408201905062001021600083018562000c5d565b62001030602083018462000c5d565b9392505050565b600082825260208201905092915050565b82818337600083830152505050565b6000601f19601f8301169050919050565b600062001076838562001037565b93506200108583858462001048565b620010908362001057565b840190509392505050565b620010a68162000cf9565b82525050565b60006040820190508181036000830152620010c981858762001068565b9050620010da60208301846200109b565b949350505050565b6000606082019050620010f9600083018762000c5d565b81810360208301526200110e81858762001068565b90506200111f604083018462000c5d565b95945050505050565b7f4f776e61626c653a2063616c6c6572206973206e6f7420746865206f776e6572600082015250565b60006200116060208362001037565b91506200116d8262001128565b602082019050919050565b60006020820190508181036000830152620011938162001151565b9050919050565b7f4f776e61626c653a206e6577206f776e657220697320746865207a65726f206160008201527f6464726573730000000000000000000000000000000000000000000000000000602082015250565b6000620011f860268362001037565b915062001205826200119a565b604082019050919050565b600060208201905081810360008301526200122b81620011e9565b905091905056fe60806040523480156200001157600080fd5b5060405162001e5238038062001e5283398181016040528101906200003791906200044a565b6200006962000054620000f4640100000000026401000000009004565b620000fc640100000000026401000000009004565b816002908051906020019062000081929190620001c0565b508015620000bd576000600560006101000a81548160ff02191690836002811115620000b257620000b1620004b0565b5b0217905550620000ec565b6002600560006101000a81548160ff02191690836002811115620000e657620000e5620004b0565b5b02179055505b505062000543565b600033905090565b60008060009054906101000a900473ffffffffffffffffffffffffffffffffffffffff169050816000806101000a81548173ffffffffffffffffffffffffffffffffffffffff021916908373ffffffffffffffffffffffffffffffffffffffff1602179055508173ffffffffffffffffffffffffffffffffffffffff168173ffffffffffffffffffffffffffffffffffffffff167f8be0079c531659141344cd1fd0a4f28419497f9722a3daafe3b4186f6b6457e060405160405180910390a35050565b828054620001ce906200050e565b90600052602060002090601f016020900481019282620001f257600085556200023e565b82601f106200020d57805160ff19168380011785556200023e565b828001600101855582156200023e579182015b828111156200023d57825182559160200191906001019062000220565b5b5090506200024d919062000251565b5090565b5b808211156200026c57600081600090555060010162000252565b5090565b6000604051905090565b600080fd5b600080fd5b600080fd5b600080fd5b6000601f19601f8301169050919050565b7f4e487b7100000000000000000000000000000000000000000000000000000000600052604160045260246000fd5b620002d9826200028e565b810181811067ffffffffffffffff82111715620002fb57620002fa6200029f565b5b80604052505050565b60006200031062000270565b90506200031e8282620002ce565b919050565b600067ffffffffffffffff8211156200034157620003406200029f565b5b6200034c826200028e565b9050602081019050919050565b60005b83811015620003795780820151818401526020810190506200035c565b8381111562000389576000848401525b50505050565b6000620003a6620003a08462000323565b62000304565b905082815260208101848484011115620003c557620003c462000289565b5b620003d284828562000359565b509392505050565b600082601f830112620003f257620003f162000284565b5b8151620004048482602086016200038f565b91505092915050565b60008115159050919050565b62000424816200040d565b81146200043057600080fd5b50565b600081519050620004448162000419565b92915050565b600080604083850312156200046457620004636200027a565b5b600083015167ffffffffffffffff8111156200048557620004846200027f565b5b6200049385828601620003da565b9250506020620004a68582860162000433565b9150509250929050565b7f4e487b7100000000000000000000000000000000000000000000000000000000600052602160045260246000fd5b7f4e487b7100000000000000000000000000000000000000000000000000000000600052602260045260246000fd5b600060028204905060018216806200052757607f821691505b6020821081036200053d576200053c620004df565b5b50919050565b6118ff80620005536000396000f3fe608060405234801561001057600080fd5b5060043610610128576000357c010000000000000000000000000000000000000000000000000000000090048063715018a6116100bf578063b688a3631161008e578063b688a363146102b1578063b7e2077e146102bb578063c47f0027146102d7578063ca6d56dc146102f3578063f2fde38b1461030f57610128565b8063715018a61461023b57806381b2248a146102455780638da5cb5b14610275578063af640d0f1461029357610128565b806329adec14116100fb57806329adec14146101b55780632f890b93146101d357806345ecd02f146101ef57806367561d931461021f57610128565b806306fdde031461012d57806308ae4b0c1461014b5780631f46cc621461017b57806321175b4a14610199575b600080fd5b61013561032b565b604051610142919061126a565b60405180910390f35b610165600480360381019061016091906112f4565b6103b9565b6040516101729190611398565b60405180910390f35b6101836103e4565b60405161019091906113fb565b60405180910390f35b6101b360048036038101906101ae919061143b565b6103f7565b005b6101bd6104a0565b6040516101ca91906114b0565b60405180910390f35b6101ed60048036038101906101e891906112f4565b6104b3565b005b610209600480360381019061020491906112f4565b61066a565b60405161021691906114e6565b60405180910390f35b610239600480360381019061023491906112f4565b6106e9565b005b610243610814565b005b61025f600480360381019061025a9190611537565b61089c565b60405161026c9190611573565b60405180910390f35b61027d6108c0565b60405161028a919061159d565b60405180910390f35b61029b6108e9565b6040516102a89190611573565b60405180910390f35b6102b96108ef565b005b6102d560048036038101906102d091906112f4565b610bf9565b005b6102f160048036038101906102ec919061161d565b610d24565b005b61030d600480360381019061030891906112f4565b610db6565b005b610329600480360381019061032491906112f4565b610f6b565b005b6002805461033890611699565b80601f016020809104026020016040519081016040528092919081815260200182805461036490611699565b80156103b15780601f10610386576101008083540402835291602001916103b1565b820191906000526020600020905b81548152906001019060200180831161039457829003601f168201915b505050505081565b60046020528060005260406000206000915090508060000160009054906101000a900460ff16905081565b600560009054906101000a900460ff1681565b6103ff611062565b73ffffffffffffffffffffffffffffffffffffffff1661041d6108c0565b73ffffffffffffffffffffffffffffffffffffffff1614610473576040517f08c379a000000000000000000000000000000000000000000000000000000000815260040161046a90611716565b60405180910390fd5b80600560006101000a81548160ff0219169083600281111561049857610497611321565b5b021790555050565b600560019054906101000a900460ff1681565b6003808111156104c6576104c5611321565b5b600460003373ffffffffffffffffffffffffffffffffffffffff1673ffffffffffffffffffffffffffffffffffffffff16815260200190815260200160002060000160009054906101000a900460ff16600381111561052857610527611321565b5b1480610584575060011515600660003373ffffffffffffffffffffffffffffffffffffffff1673ffffffffffffffffffffffffffffffffffffffff16815260200190815260200160002060009054906101000a900460ff161515145b6105c3576040517f08c379a00000000000000000000000000000000000000000000000000000000081526004016105ba90611782565b60405180910390fd5b6001600460008373ffffffffffffffffffffffffffffffffffffffff1673ffffffffffffffffffffffffffffffffffffffff16815260200190815260200160002060000160006101000a81548160ff0219169083600381111561062957610628611321565b5b02179055507f6c246c8894ac239253d22cd508dbe8eb7e027e0589cdd4ff16dbb4238ccd9834338260405161065f9291906117a2565b60405180910390a150565b600060038081111561067f5761067e611321565b5b600460008473ffffffffffffffffffffffffffffffffffffffff1673ffffffffffffffffffffffffffffffffffffffff16815260200190815260200160002060000160009054906101000a900460ff1660038111156106e1576106e0611321565b5b149050919050565b60011515600660003373ffffffffffffffffffffffffffffffffffffffff1673ffffffffffffffffffffffffffffffffffffffff16815260200190815260200160002060009054906101000a900460ff161515148061077a575061074b6108c0565b73ffffffffffffffffffffffffffffffffffffffff163373ffffffffffffffffffffffffffffffffffffffff16145b6107b9576040517f08c379a00000000000000000000000000000000000000000000000000000000081526004016107b090611782565b60405180910390fd5b6001600660008373ffffffffffffffffffffffffffffffffffffffff1673ffffffffffffffffffffffffffffffffffffffff16815260200190815260200160002060006101000a81548160ff02191690831515021790555050565b61081c611062565b73ffffffffffffffffffffffffffffffffffffffff1661083a6108c0565b73ffffffffffffffffffffffffffffffffffffffff1614610890576040517f08c379a000000000000000000000000000000000000000000000000000000000815260040161088790611716565b60405180910390fd5b61089a600061106a565b565b600181815481106108ac57600080fd5b906000526020600020016000915090505481565b60008060009054906101000a900473ffffffffffffffffffffffffffffffffffffffff16905090565b60035481565b60038081111561090257610901611321565b5b600460003373ffffffffffffffffffffffffffffffffffffffff1673ffffffffffffffffffffffffffffffffffffffff16815260200190815260200160002060000160009054906101000a900460ff16600381111561096457610963611321565b5b036109a4576040517f08c379a000000000000000000000000000000000000000000000000000000000815260040161099b90611782565b60405180910390fd5b600160038111156109b8576109b7611321565b5b600460003373ffffffffffffffffffffffffffffffffffffffff1673ffffffffffffffffffffffffffffffffffffffff16815260200190815260200160002060000160009054906101000a900460ff166003811115610a1a57610a19611321565b5b148015610a5a575060006002811115610a3657610a35611321565b5b600560009054906101000a900460ff166002811115610a5857610a57611321565b5b145b80610b16575060006003811115610a7457610a73611321565b5b600460003373ffffffffffffffffffffffffffffffffffffffff1673ffffffffffffffffffffffffffffffffffffffff16815260200190815260200160002060000160009054906101000a900460ff166003811115610ad657610ad5611321565b5b148015610b155750600280811115610af157610af0611321565b5b600560009054906101000a900460ff166002811115610b1357610b12611321565b5b145b5b610b55576040517f08c379a0000000000000000000000000000000000000000000000000000000008152600401610b4c90611817565b60405180910390fd5b6003600460003373ffffffffffffffffffffffffffffffffffffffff1673ffffffffffffffffffffffffffffffffffffffff16815260200190815260200160002060000160006101000a81548160ff02191690836003811115610bbb57610bba611321565b5b02179055507f0abf3b3f643594d958297062a019458e27d7766629590ac621aa1000fa1298ab33604051610bef919061159d565b60405180910390a1565b60011515600660003373ffffffffffffffffffffffffffffffffffffffff1673ffffffffffffffffffffffffffffffffffffffff16815260200190815260200160002060009054906101000a900460ff1615151480610c8a5750610c5b6108c0565b73ffffffffffffffffffffffffffffffffffffffff163373ffffffffffffffffffffffffffffffffffffffff16145b610cc9576040517f08c379a0000000000000000000000000000000000000000000000000000000008152600401610cc090611782565b60405180910390fd5b6000600660008373ffffffffffffffffffffffffffffffffffffffff1673ffffffffffffffffffffffffffffffffffffffff16815260200190815260200160002060006101000a81548160ff02191690831515021790555050565b610d2c611062565b73ffffffffffffffffffffffffffffffffffffffff16610d4a6108c0565b73ffffffffffffffffffffffffffffffffffffffff1614610da0576040517f08c379a0000000000000000000000000000000000000000000000000000000008152600401610d9790611716565b60405180910390fd5b818160029190610db192919061112e565b505050565b600380811115610dc957610dc8611321565b5b600460003373ffffffffffffffffffffffffffffffffffffffff1673ffffffffffffffffffffffffffffffffffffffff16815260200190815260200160002060000160009054906101000a900460ff166003811115610e2b57610e2a611321565b5b1480610e87575060011515600660003373ffffffffffffffffffffffffffffffffffffffff1673ffffffffffffffffffffffffffffffffffffffff16815260200190815260200160002060009054906101000a900460ff161515145b610ec6576040517f08c379a0000000000000000000000000000000000000000000000000000000008152600401610ebd90611782565b60405180910390fd5b6003600460008373ffffffffffffffffffffffffffffffffffffffff1673ffffffffffffffffffffffffffffffffffffffff16815260200190815260200160002060000160006101000a81548160ff02191690836003811115610f2c57610f2b611321565b5b02179055507fb251eb052afc73ffd02ffe85ad79990a8b3fed60d76dbc2fa2fdd7123dffd91481604051610f60919061159d565b60405180910390a150565b610f73611062565b73ffffffffffffffffffffffffffffffffffffffff16610f916108c0565b73ffffffffffffffffffffffffffffffffffffffff1614610fe7576040517f08c379a0000000000000000000000000000000000000000000000000000000008152600401610fde90611716565b60405180910390fd5b600073ffffffffffffffffffffffffffffffffffffffff168173ffffffffffffffffffffffffffffffffffffffff1603611056576040517f08c379a000000000000000000000000000000000000000000000000000000000815260040161104d906118a9565b60405180910390fd5b61105f8161106a565b50565b600033905090565b60008060009054906101000a900473ffffffffffffffffffffffffffffffffffffffff169050816000806101000a81548173ffffffffffffffffffffffffffffffffffffffff021916908373ffffffffffffffffffffffffffffffffffffffff1602179055508173ffffffffffffffffffffffffffffffffffffffff168173ffffffffffffffffffffffffffffffffffffffff167f8be0079c531659141344cd1fd0a4f28419497f9722a3daafe3b4186f6b6457e060405160405180910390a35050565b82805461113a90611699565b90600052602060002090601f01602090048101928261115c57600085556111a3565b82601f1061117557803560ff19168380011785556111a3565b828001600101855582156111a3579182015b828111156111a2578235825591602001919060010190611187565b5b5090506111b091906111b4565b5090565b5b808211156111cd5760008160009055506001016111b5565b5090565b600081519050919050565b600082825260208201905092915050565b60005b8381101561120b5780820151818401526020810190506111f0565b8381111561121a576000848401525b50505050565b6000601f19601f8301169050919050565b600061123c826111d1565b61124681856111dc565b93506112568185602086016111ed565b61125f81611220565b840191505092915050565b600060208201905081810360008301526112848184611231565b905092915050565b600080fd5b600080fd5b600073ffffffffffffffffffffffffffffffffffffffff82169050919050565b60006112c182611296565b9050919050565b6112d1816112b6565b81146112dc57600080fd5b50565b6000813590506112ee816112c8565b92915050565b60006020828403121561130a5761130961128c565b5b6000611318848285016112df565b91505092915050565b7f4e487b7100000000000000000000000000000000000000000000000000000000600052602160045260246000fd5b6004811061136157611360611321565b5b50565b600081905061137282611350565b919050565b600061138282611364565b9050919050565b61139281611377565b82525050565b60006020820190506113ad6000830184611389565b92915050565b600381106113c4576113c3611321565b5b50565b60008190506113d5826113b3565b919050565b60006113e5826113c7565b9050919050565b6113f5816113da565b82525050565b600060208201905061141060008301846113ec565b92915050565b6003811061142357600080fd5b50565b60008135905061143581611416565b92915050565b6000602082840312156114515761145061128c565b5b600061145f84828501611426565b91505092915050565b6002811061147957611478611321565b5b50565b600081905061148a82611468565b919050565b600061149a8261147c565b9050919050565b6114aa8161148f565b82525050565b60006020820190506114c560008301846114a1565b92915050565b60008115159050919050565b6114e0816114cb565b82525050565b60006020820190506114fb60008301846114d7565b92915050565b6000819050919050565b61151481611501565b811461151f57600080fd5b50565b6000813590506115318161150b565b92915050565b60006020828403121561154d5761154c61128c565b5b600061155b84828501611522565b91505092915050565b61156d81611501565b82525050565b60006020820190506115886000830184611564565b92915050565b611597816112b6565b82525050565b60006020820190506115b2600083018461158e565b92915050565b600080fd5b600080fd5b600080fd5b60008083601f8401126115dd576115dc6115b8565b5b8235905067ffffffffffffffff8111156115fa576115f96115bd565b5b602083019150836001820283011115611616576116156115c2565b5b9250929050565b600080602083850312156116345761163361128c565b5b600083013567ffffffffffffffff81111561165257611651611291565b5b61165e858286016115c7565b92509250509250929050565b7f4e487b7100000000000000000000000000000000000000000000000000000000600052602260045260246000fd5b600060028204905060018216806116b157607f821691505b6020821081036116c4576116c361166a565b5b50919050565b7f4f776e61626c653a2063616c6c6572206973206e6f7420746865206f776e6572600082015250565b60006117006020836111dc565b915061170b826116ca565b602082019050919050565b6000602082019050818103600083015261172f816116f3565b9050919050565b7f4e6f7420617574686f72697a6564000000000000000000000000000000000000600082015250565b600061176c600e836111dc565b915061177782611736565b602082019050919050565b6000602082019050818103600083015261179b8161175f565b9050919050565b60006040820190506117b7600083018561158e565b6117c4602083018461158e565b9392505050565b7f496d706f737369626c6520746f206a6f696e0000000000000000000000000000600082015250565b60006118016012836111dc565b915061180c826117cb565b602082019050919050565b60006020820190508181036000830152611830816117f4565b9050919050565b7f4f776e61626c653a206e6577206f776e657220697320746865207a65726f206160008201527f6464726573730000000000000000000000000000000000000000000000000000602082015250565b60006118936026836111dc565b915061189e82611837565b604082019050919050565b600060208201905081810360008301526118c281611886565b905091905056fea264697066735822122042a81acf722ed7cb14a04c4eae5f1391627fbf3f2a40b308cbb548add062d82b64736f6c634300080d0033a264697066735822122046adafd1151f3cc0be8a2739a2f0e3f32b04f014c642a88af0327e845769317964736f6c634300080d0033",
  "immutableReferences": {},
  "source": "// SPDX-License-Identifier: MIT\r\npragma solidity 0.8.13;\r\n\r\nimport \"../node_modules/@openzeppelin/contracts/utils/math/SafeMath.sol\";\r\nimport \"../node_modules/@openzeppelin/contracts/access/Ownable.sol\";\r\n\r\nimport './interfaces/IDaosFactory.sol';\r\nimport './Dao.sol';\r\n\r\n//is DaosFactory\r\ncontract DaosFactory is Ownable {\r\n  using SafeMath for uint256;\r\n  uint256 private daoId;\r\n\r\n  //user > daos\r\n  mapping(address => address[]) public membershipDaos;\r\n\r\n  deployedDao[] public daos;\r\n\r\n  struct deployedDao {\r\n    address owner;\r\n    address daoAddress;\r\n  }\r\n\r\n//   event DaoCreated(address user, string name, address daoAddr, uint256[] modules, uint256 id);\r\n  event DaoCreated(address user, string name, address daoAddress);\r\n\r\n  function getdeployedDaos() external view returns (deployedDao[] memory) {\r\n    return daos;\r\n  }\r\n\r\n   function getDaosAddressByMember(address _addressMember) external view returns (address[] memory) {\r\n    return (membershipDaos[_addressMember]);\r\n  }\r\n\r\n  // function getMyDaosIds() external view returns (uint256[] memory) {\r\n  //   return (myDaos[msg.sender]);\r\n  // }\r\n  // function getDaoInfoId(uint256 _id) external view returns (deployedDaos memory) {\r\n  //   return (daos[_id]);\r\n  // }\r\n  \r\n  // after create the DAO we need to change the owner because now this contract is the owner\r\n  //, uint256[] calldata _modules\r\n  function createDAO(string calldata _name, bool _byInvitation) public {\r\n    Dao dao = new Dao(_name, _byInvitation);\r\n    dao.authorizeContract(address(this));\r\n    dao.addMember(msg.sender);\r\n    deployedDao memory _dao;\r\n    _dao.owner = msg.sender;\r\n    _dao.daoAddress = address(dao);\r\n    daos.push(_dao);\r\n    membershipDaos[msg.sender].push(_dao.daoAddress);  \r\n    dao.transferOwnership(msg.sender);\r\n    // deployedDaos memory _dao;\r\n    // _dao.name = _name;\r\n    // _dao.owner = msg.sender;\r\n    // //Dao dao = new Dao();\r\n    // //address contractAddress = new Dao();\r\n    // _dao.daoAddr =  address(0); //dao.address;\r\n    // //_dao.modules = _modules;\r\n    // _dao.id = daoId;\r\n    // _dao.members.push(msg.sender);\r\n    // daos.push(_dao);\r\n    // daoId = daoId.add(1);\r\n    // // emit DaoCreated(msg.sender, _name, _dao.daoAddr, _modules, _dao.id);\r\n    emit DaoCreated(msg.sender, _name, _dao.daoAddress);\r\n  }\r\n}",
  "sourcePath": "C:\\Users\\mdmou\\source\\repos\\MY-DAO\\contracts\\DaosFactory.sol",
  "compiler": {
    "name": "solc",
    "version": "0.8.13+commit.abaa5c0e.Emscripten.clang"
  },
  "schemaVersion": "3.4.4",
  "updatedAt": "2022-05-01T07:21:48.955Z",
  "networkType": "ethereum",
  "devdoc": {
    "kind": "dev",
    "methods": {
      "owner()": {
        "details": "Returns the address of the current owner."
      },
      "renounceOwnership()": {
        "details": "Leaves the contract without owner. It will not be possible to call `onlyOwner` functions anymore. Can only be called by the current owner. NOTE: Renouncing ownership will leave the contract without an owner, thereby removing any functionality that is only available to the owner."
      },
      "transferOwnership(address)": {
        "details": "Transfers ownership of the contract to a new account (`newOwner`). Can only be called by the current owner."
      }
    },
    "version": 1
  },
  "userdoc": {
    "kind": "user",
    "methods": {},
    "version": 1
  }
}