{
  "contractName": "DaosFactory",
  "abi": [
    {
      "anonymous": false,
      "inputs": [
        {
          "indexed": false,
          "internalType": "address",
          "name": "user",
          "type": "address"
        },
        {
          "indexed": false,
          "internalType": "string",
          "name": "name",
          "type": "string"
        },
        {
          "indexed": false,
          "internalType": "address",
          "name": "daoAddr",
          "type": "address"
        },
        {
          "indexed": false,
          "internalType": "uint256[]",
          "name": "modules",
          "type": "uint256[]"
        }
      ],
      "name": "CreateDAO",
      "type": "event"
    },
    {
      "anonymous": false,
      "inputs": [
        {
          "indexed": true,
          "internalType": "address",
          "name": "previousOwner",
          "type": "address"
        },
        {
          "indexed": true,
          "internalType": "address",
          "name": "newOwner",
          "type": "address"
        }
      ],
      "name": "OwnershipTransferred",
      "type": "event"
    },
    {
      "inputs": [
        {
          "internalType": "uint256",
          "name": "",
          "type": "uint256"
        }
      ],
      "name": "daos",
      "outputs": [
        {
          "internalType": "string",
          "name": "name",
          "type": "string"
        },
        {
          "internalType": "address",
          "name": "owner",
          "type": "address"
        },
        {
          "internalType": "address",
          "name": "daoAddr",
          "type": "address"
        },
        {
          "internalType": "uint256",
          "name": "id",
          "type": "uint256"
        }
      ],
      "stateMutability": "view",
      "type": "function"
    },
    {
      "inputs": [],
      "name": "owner",
      "outputs": [
        {
          "internalType": "address",
          "name": "",
          "type": "address"
        }
      ],
      "stateMutability": "view",
      "type": "function"
    },
    {
      "inputs": [],
      "name": "renounceOwnership",
      "outputs": [],
      "stateMutability": "nonpayable",
      "type": "function"
    },
    {
      "inputs": [
        {
          "internalType": "address",
          "name": "newOwner",
          "type": "address"
        }
      ],
      "name": "transferOwnership",
      "outputs": [],
      "stateMutability": "nonpayable",
      "type": "function"
    },
    {
      "inputs": [],
      "name": "getMyDaosIds",
      "outputs": [
        {
          "internalType": "uint256[]",
          "name": "",
          "type": "uint256[]"
        }
      ],
      "stateMutability": "view",
      "type": "function"
    },
    {
      "inputs": [
        {
          "internalType": "uint256",
          "name": "_id",
          "type": "uint256"
        }
      ],
      "name": "getDaoInfoId",
      "outputs": [
        {
          "components": [
            {
              "internalType": "string",
              "name": "name",
              "type": "string"
            },
            {
              "internalType": "address",
              "name": "owner",
              "type": "address"
            },
            {
              "internalType": "address",
              "name": "daoAddr",
              "type": "address"
            },
            {
              "internalType": "uint256[]",
              "name": "modules",
              "type": "uint256[]"
            },
            {
              "internalType": "uint256",
              "name": "id",
              "type": "uint256"
            }
          ],
          "internalType": "struct DaosFactory.deployedDaos",
          "name": "",
          "type": "tuple"
        }
      ],
      "stateMutability": "view",
      "type": "function"
    },
    {
      "inputs": [
        {
          "internalType": "string",
          "name": "_name",
          "type": "string"
        },
        {
          "internalType": "uint256[]",
          "name": "_modules",
          "type": "uint256[]"
        }
      ],
      "name": "createDAO",
      "outputs": [],
      "stateMutability": "nonpayable",
      "type": "function"
    }
  ],
  "bytecode": "0x608060405234801561001057600080fd5b5061003f61002b610044640100000000026401000000009004565b61004c640100000000026401000000009004565b610110565b600033905090565b60008060009054906101000a900473ffffffffffffffffffffffffffffffffffffffff169050816000806101000a81548173ffffffffffffffffffffffffffffffffffffffff021916908373ffffffffffffffffffffffffffffffffffffffff1602179055508173ffffffffffffffffffffffffffffffffffffffff168173ffffffffffffffffffffffffffffffffffffffff167f8be0079c531659141344cd1fd0a4f28419497f9722a3daafe3b4186f6b6457e060405160405180910390a35050565b6114268061011f6000396000f3fe608060405234801561001057600080fd5b506004361061009a576000357c0100000000000000000000000000000000000000000000000000000000900480638da5cb5b116100785780638da5cb5b146100e3578063ccbbd26014610101578063d04d6db114610134578063f2fde38b146101645761009a565b8063533d57b51461009f57806354b80b4b146100bb578063715018a6146100d9575b600080fd5b6100b960048036038101906100b49190610c16565b610180565b005b6100c3610403565b6040516100d09190610d5f565b60405180910390f35b6100e1610498565b005b6100eb610520565b6040516100f89190610dc2565b60405180910390f35b61011b60048036038101906101169190610e09565b610549565b60405161012b9493929190610ede565b60405180910390f35b61014e60048036038101906101499190610e09565b610651565b60405161015b919061106f565b60405180910390f35b61017e600480360381019061017991906110bd565b61082d565b005b610188610a06565b84848080601f016020809104026020016040519081016040528093929190818152602001838380828437600081840152601f19601f82011690508083019250505050505050816000018190525033816020019073ffffffffffffffffffffffffffffffffffffffff16908173ffffffffffffffffffffffffffffffffffffffff16815250506000816040019073ffffffffffffffffffffffffffffffffffffffff16908173ffffffffffffffffffffffffffffffffffffffff1681525050828280806020026020016040519081016040528093929190818152602001838360200280828437600081840152601f19601f820116905080830192505050505050508160600181905250600154816080018181525050600381908060018154018082558091505060019003906000526020600020906005020160009091909190915060008201518160000190805190602001906102e4929190610a61565b5060208201518160010160006101000a81548173ffffffffffffffffffffffffffffffffffffffff021916908373ffffffffffffffffffffffffffffffffffffffff16021790555060408201518160020160006101000a81548173ffffffffffffffffffffffffffffffffffffffff021916908373ffffffffffffffffffffffffffffffffffffffff160217905550606082015181600301908051906020019061038f929190610ae7565b506080820151816004015550506103b16001805461092490919063ffffffff16565b6001819055507f9a07d40445f02381e4f40170bd3b505011d522a275b34f94341bcf75ce1fee3e338686846040015187876040516103f496959493929190611187565b60405180910390a15050505050565b6060600260003373ffffffffffffffffffffffffffffffffffffffff1673ffffffffffffffffffffffffffffffffffffffff16815260200190815260200160002080548060200260200160405190810160405280929190818152602001828054801561048e57602002820191906000526020600020905b81548152602001906001019080831161047a575b5050505050905090565b6104a061093a565b73ffffffffffffffffffffffffffffffffffffffff166104be610520565b73ffffffffffffffffffffffffffffffffffffffff1614610514576040517f08c379a000000000000000000000000000000000000000000000000000000000815260040161050b9061122a565b60405180910390fd5b61051e6000610942565b565b60008060009054906101000a900473ffffffffffffffffffffffffffffffffffffffff16905090565b6003818154811061055957600080fd5b906000526020600020906005020160009150905080600001805461057c90611279565b80601f01602080910402602001604051908101604052809291908181526020018280546105a890611279565b80156105f55780601f106105ca576101008083540402835291602001916105f5565b820191906000526020600020905b8154815290600101906020018083116105d857829003601f168201915b5050505050908060010160009054906101000a900473ffffffffffffffffffffffffffffffffffffffff16908060020160009054906101000a900473ffffffffffffffffffffffffffffffffffffffff16908060040154905084565b610659610a06565b6003828154811061066d5761066c6112aa565b5b90600052602060002090600502016040518060a001604052908160008201805461069690611279565b80601f01602080910402602001604051908101604052809291908181526020018280546106c290611279565b801561070f5780601f106106e45761010080835404028352916020019161070f565b820191906000526020600020905b8154815290600101906020018083116106f257829003601f168201915b505050505081526020016001820160009054906101000a900473ffffffffffffffffffffffffffffffffffffffff1673ffffffffffffffffffffffffffffffffffffffff1673ffffffffffffffffffffffffffffffffffffffff1681526020016002820160009054906101000a900473ffffffffffffffffffffffffffffffffffffffff1673ffffffffffffffffffffffffffffffffffffffff1673ffffffffffffffffffffffffffffffffffffffff1681526020016003820180548060200260200160405190810160405280929190818152602001828054801561081357602002820191906000526020600020905b8154815260200190600101908083116107ff575b505050505081526020016004820154815250509050919050565b61083561093a565b73ffffffffffffffffffffffffffffffffffffffff16610853610520565b73ffffffffffffffffffffffffffffffffffffffff16146108a9576040517f08c379a00000000000000000000000000000000000000000000000000000000081526004016108a09061122a565b60405180910390fd5b600073ffffffffffffffffffffffffffffffffffffffff168173ffffffffffffffffffffffffffffffffffffffff1603610918576040517f08c379a000000000000000000000000000000000000000000000000000000000815260040161090f9061134b565b60405180910390fd5b61092181610942565b50565b60008183610932919061139a565b905092915050565b600033905090565b60008060009054906101000a900473ffffffffffffffffffffffffffffffffffffffff169050816000806101000a81548173ffffffffffffffffffffffffffffffffffffffff021916908373ffffffffffffffffffffffffffffffffffffffff1602179055508173ffffffffffffffffffffffffffffffffffffffff168173ffffffffffffffffffffffffffffffffffffffff167f8be0079c531659141344cd1fd0a4f28419497f9722a3daafe3b4186f6b6457e060405160405180910390a35050565b6040518060a0016040528060608152602001600073ffffffffffffffffffffffffffffffffffffffff168152602001600073ffffffffffffffffffffffffffffffffffffffff16815260200160608152602001600081525090565b828054610a6d90611279565b90600052602060002090601f016020900481019282610a8f5760008555610ad6565b82601f10610aa857805160ff1916838001178555610ad6565b82800160010185558215610ad6579182015b82811115610ad5578251825591602001919060010190610aba565b5b509050610ae39190610b34565b5090565b828054828255906000526020600020908101928215610b23579160200282015b82811115610b22578251825591602001919060010190610b07565b5b509050610b309190610b34565b5090565b5b80821115610b4d576000816000905550600101610b35565b5090565b600080fd5b600080fd5b600080fd5b600080fd5b600080fd5b60008083601f840112610b8057610b7f610b5b565b5b8235905067ffffffffffffffff811115610b9d57610b9c610b60565b5b602083019150836001820283011115610bb957610bb8610b65565b5b9250929050565b60008083601f840112610bd657610bd5610b5b565b5b8235905067ffffffffffffffff811115610bf357610bf2610b60565b5b602083019150836020820283011115610c0f57610c0e610b65565b5b9250929050565b60008060008060408587031215610c3057610c2f610b51565b5b600085013567ffffffffffffffff811115610c4e57610c4d610b56565b5b610c5a87828801610b6a565b9450945050602085013567ffffffffffffffff811115610c7d57610c7c610b56565b5b610c8987828801610bc0565b925092505092959194509250565b600081519050919050565b600082825260208201905092915050565b6000819050602082019050919050565b6000819050919050565b610cd681610cc3565b82525050565b6000610ce88383610ccd565b60208301905092915050565b6000602082019050919050565b6000610d0c82610c97565b610d168185610ca2565b9350610d2183610cb3565b8060005b83811015610d52578151610d398882610cdc565b9750610d4483610cf4565b925050600181019050610d25565b5085935050505092915050565b60006020820190508181036000830152610d798184610d01565b905092915050565b600073ffffffffffffffffffffffffffffffffffffffff82169050919050565b6000610dac82610d81565b9050919050565b610dbc81610da1565b82525050565b6000602082019050610dd76000830184610db3565b92915050565b610de681610cc3565b8114610df157600080fd5b50565b600081359050610e0381610ddd565b92915050565b600060208284031215610e1f57610e1e610b51565b5b6000610e2d84828501610df4565b91505092915050565b600081519050919050565b600082825260208201905092915050565b60005b83811015610e70578082015181840152602081019050610e55565b83811115610e7f576000848401525b50505050565b6000601f19601f8301169050919050565b6000610ea182610e36565b610eab8185610e41565b9350610ebb818560208601610e52565b610ec481610e85565b840191505092915050565b610ed881610cc3565b82525050565b60006080820190508181036000830152610ef88187610e96565b9050610f076020830186610db3565b610f146040830185610db3565b610f216060830184610ecf565b95945050505050565b600082825260208201905092915050565b6000610f4682610e36565b610f508185610f2a565b9350610f60818560208601610e52565b610f6981610e85565b840191505092915050565b610f7d81610da1565b82525050565b600082825260208201905092915050565b6000610f9f82610c97565b610fa98185610f83565b9350610fb483610cb3565b8060005b83811015610fe5578151610fcc8882610cdc565b9750610fd783610cf4565b925050600181019050610fb8565b5085935050505092915050565b600060a083016000830151848203600086015261100f8282610f3b565b91505060208301516110246020860182610f74565b5060408301516110376040860182610f74565b506060830151848203606086015261104f8282610f94565b91505060808301516110646080860182610ccd565b508091505092915050565b600060208201905081810360008301526110898184610ff2565b905092915050565b61109a81610da1565b81146110a557600080fd5b50565b6000813590506110b781611091565b92915050565b6000602082840312156110d3576110d2610b51565b5b60006110e1848285016110a8565b91505092915050565b82818337600083830152505050565b60006111058385610e41565b93506111128385846110ea565b61111b83610e85565b840190509392505050565b600080fd5b60006111378385610ca2565b93507f07ffffffffffffffffffffffffffffffffffffffffffffffffffffffffffffff83111561116a57611169611126565b5b60208302925061117b8385846110ea565b82840190509392505050565b600060808201905061119c6000830189610db3565b81810360208301526111af8187896110f9565b90506111be6040830186610db3565b81810360608301526111d181848661112b565b9050979650505050505050565b7f4f776e61626c653a2063616c6c6572206973206e6f7420746865206f776e6572600082015250565b6000611214602083610e41565b915061121f826111de565b602082019050919050565b6000602082019050818103600083015261124381611207565b9050919050565b7f4e487b7100000000000000000000000000000000000000000000000000000000600052602260045260246000fd5b6000600282049050600182168061129157607f821691505b6020821081036112a4576112a361124a565b5b50919050565b7f4e487b7100000000000000000000000000000000000000000000000000000000600052603260045260246000fd5b7f4f776e61626c653a206e6577206f776e657220697320746865207a65726f206160008201527f6464726573730000000000000000000000000000000000000000000000000000602082015250565b6000611335602683610e41565b9150611340826112d9565b604082019050919050565b6000602082019050818103600083015261136481611328565b9050919050565b7f4e487b7100000000000000000000000000000000000000000000000000000000600052601160045260246000fd5b60006113a582610cc3565b91506113b083610cc3565b9250827fffffffffffffffffffffffffffffffffffffffffffffffffffffffffffffffff038211156113e5576113e461136b565b5b82820190509291505056fea2646970667358221220a4f6182677e185ab03122d81472a5ccaab14f655dad0ae5198695ccaee94ccfb64736f6c634300080d0033",
  "immutableReferences": {},
  "source": "// SPDX-License-Identifier: MIT\r\npragma solidity 0.8.13;\r\n\r\nimport \"../node_modules/@openzeppelin/contracts/utils/math/SafeMath.sol\";\r\nimport \"../node_modules/@openzeppelin/contracts/access/Ownable.sol\";\r\n\r\nimport './interfaces/IDaosFactory.sol';\r\n\r\n//is DaosFactory\r\ncontract DaosFactory is Ownable {\r\n  using SafeMath for uint256;\r\n  uint256 private daoId;\r\n\r\n  mapping(address => uint256[]) myDaos;\r\n\r\n  deployedDaos[] public daos;\r\n\r\n  struct deployedDaos {\r\n    string name;\r\n    address owner;\r\n    address daoAddr;\r\n    uint256[] modules;\r\n    uint256 id;\r\n  }\r\n\r\n  event CreateDAO(address user, string name, address daoAddr, uint256[] modules);\r\n\r\n  function getMyDaosIds() external view returns (uint256[] memory) {\r\n    return (myDaos[msg.sender]);\r\n  }\r\n  function getDaoInfoId(uint256 _id) external view returns (deployedDaos memory) {\r\n    return (daos[_id]);\r\n  }\r\n  // after create the DAO we need to change the owner because now this contract is the owner\r\n  function createDAO(string calldata _name, uint256[] calldata _modules) public {\r\n    deployedDaos memory _dao;\r\n    _dao.name = _name;\r\n    _dao.owner = msg.sender;\r\n    _dao.daoAddr = address(0); //new DAO();\r\n    _dao.modules = _modules;\r\n    _dao.id = daoId;\r\n    daos.push(_dao);\r\n    daoId = daoId.add(1);\r\n    emit CreateDAO(msg.sender, _name, _dao.daoAddr, _modules);\r\n  }\r\n}",
  "sourcePath": "C:\\Users\\mdmou\\source\\repos\\MY-DAO\\contracts\\DaosFactory.sol",
  "compiler": {
    "name": "solc",
    "version": "0.8.13+commit.abaa5c0e.Emscripten.clang"
  },
  "schemaVersion": "3.4.4",
  "updatedAt": "2022-04-27T16:46:31.724Z",
  "devdoc": {
    "kind": "dev",
    "methods": {
      "owner()": {
        "details": "Returns the address of the current owner."
      },
      "renounceOwnership()": {
        "details": "Leaves the contract without owner. It will not be possible to call `onlyOwner` functions anymore. Can only be called by the current owner. NOTE: Renouncing ownership will leave the contract without an owner, thereby removing any functionality that is only available to the owner."
      },
      "transferOwnership(address)": {
        "details": "Transfers ownership of the contract to a new account (`newOwner`). Can only be called by the current owner."
      }
    },
    "version": 1
  },
  "userdoc": {
    "kind": "user",
    "methods": {},
    "version": 1
  }
}