{
  "contractName": "DaosFactory",
  "abi": [
    {
      "anonymous": false,
      "inputs": [
        {
          "indexed": false,
          "internalType": "address",
          "name": "user",
          "type": "address"
        },
        {
          "indexed": false,
          "internalType": "string",
          "name": "name",
          "type": "string"
        },
        {
          "indexed": false,
          "internalType": "address",
          "name": "daoAddress",
          "type": "address"
        }
      ],
      "name": "DaoCreated",
      "type": "event"
    },
    {
      "anonymous": false,
      "inputs": [
        {
          "indexed": false,
          "internalType": "address",
          "name": "user",
          "type": "address"
        },
        {
          "indexed": false,
          "internalType": "string",
          "name": "name",
          "type": "string"
        },
        {
          "indexed": false,
          "internalType": "address",
          "name": "daoAddress",
          "type": "address"
        }
      ],
      "name": "ModuleActivated",
      "type": "event"
    },
    {
      "anonymous": false,
      "inputs": [
        {
          "indexed": true,
          "internalType": "address",
          "name": "previousOwner",
          "type": "address"
        },
        {
          "indexed": true,
          "internalType": "address",
          "name": "newOwner",
          "type": "address"
        }
      ],
      "name": "OwnershipTransferred",
      "type": "event"
    },
    {
      "inputs": [
        {
          "internalType": "address",
          "name": "",
          "type": "address"
        },
        {
          "internalType": "address",
          "name": "",
          "type": "address"
        }
      ],
      "name": "daoOwners",
      "outputs": [
        {
          "internalType": "bool",
          "name": "",
          "type": "bool"
        }
      ],
      "stateMutability": "view",
      "type": "function",
      "constant": true
    },
    {
      "inputs": [
        {
          "internalType": "uint256",
          "name": "",
          "type": "uint256"
        }
      ],
      "name": "daos",
      "outputs": [
        {
          "internalType": "address",
          "name": "owner",
          "type": "address"
        },
        {
          "internalType": "address",
          "name": "daoAddress",
          "type": "address"
        }
      ],
      "stateMutability": "view",
      "type": "function",
      "constant": true
    },
    {
      "inputs": [
        {
          "internalType": "bytes8",
          "name": "",
          "type": "bytes8"
        },
        {
          "internalType": "bytes8",
          "name": "",
          "type": "bytes8"
        }
      ],
      "name": "modulesDaos",
      "outputs": [
        {
          "internalType": "uint256",
          "name": "id",
          "type": "uint256"
        },
        {
          "internalType": "address",
          "name": "moduleAddress",
          "type": "address"
        },
        {
          "internalType": "bool",
          "name": "isActive",
          "type": "bool"
        },
        {
          "internalType": "bytes8",
          "name": "moduleType",
          "type": "bytes8"
        },
        {
          "internalType": "bytes8",
          "name": "moduleCode",
          "type": "bytes8"
        },
        {
          "internalType": "string",
          "name": "moduleInfo",
          "type": "string"
        }
      ],
      "stateMutability": "view",
      "type": "function",
      "constant": true
    },
    {
      "inputs": [],
      "name": "owner",
      "outputs": [
        {
          "internalType": "address",
          "name": "",
          "type": "address"
        }
      ],
      "stateMutability": "view",
      "type": "function",
      "constant": true
    },
    {
      "inputs": [],
      "name": "renounceOwnership",
      "outputs": [],
      "stateMutability": "nonpayable",
      "type": "function"
    },
    {
      "inputs": [
        {
          "internalType": "address",
          "name": "newOwner",
          "type": "address"
        }
      ],
      "name": "transferOwnership",
      "outputs": [],
      "stateMutability": "nonpayable",
      "type": "function"
    },
    {
      "inputs": [],
      "name": "getdeployedDaos",
      "outputs": [
        {
          "components": [
            {
              "internalType": "address",
              "name": "owner",
              "type": "address"
            },
            {
              "internalType": "address",
              "name": "daoAddress",
              "type": "address"
            }
          ],
          "internalType": "struct DaosFactory.deployedDao[]",
          "name": "",
          "type": "tuple[]"
        }
      ],
      "stateMutability": "view",
      "type": "function",
      "constant": true
    },
    {
      "inputs": [
        {
          "internalType": "address",
          "name": "_daoAddress",
          "type": "address"
        },
        {
          "internalType": "bytes8",
          "name": "_type",
          "type": "bytes8"
        },
        {
          "internalType": "bytes8",
          "name": "_code",
          "type": "bytes8"
        }
      ],
      "name": "activateModuleForDao",
      "outputs": [
        {
          "internalType": "address",
          "name": "",
          "type": "address"
        }
      ],
      "stateMutability": "nonpayable",
      "type": "function"
    },
    {
      "inputs": [
        {
          "internalType": "address",
          "name": "_moduleAddress",
          "type": "address"
        },
        {
          "internalType": "bytes8",
          "name": "_type",
          "type": "bytes8"
        },
        {
          "internalType": "bytes8",
          "name": "_code",
          "type": "bytes8"
        }
      ],
      "name": "addModule",
      "outputs": [],
      "stateMutability": "nonpayable",
      "type": "function"
    },
    {
      "inputs": [
        {
          "internalType": "string",
          "name": "_name",
          "type": "string"
        },
        {
          "internalType": "string",
          "name": "_description",
          "type": "string"
        },
        {
          "internalType": "enum Data.visibilityEnum",
          "name": "_visibility",
          "type": "uint8"
        },
        {
          "internalType": "string",
          "name": "_rules",
          "type": "string"
        },
        {
          "components": [
            {
              "internalType": "bytes8",
              "name": "moduleType",
              "type": "bytes8"
            },
            {
              "internalType": "bytes8",
              "name": "moduleCode",
              "type": "bytes8"
            }
          ],
          "internalType": "struct Data.ModuleToActivate[]",
          "name": "_modules",
          "type": "tuple[]"
        }
      ],
      "name": "createDAO",
      "outputs": [],
      "stateMutability": "nonpayable",
      "type": "function"
    },
    {
      "inputs": [
        {
          "internalType": "string",
          "name": "_name",
          "type": "string"
        }
      ],
      "name": "hash",
      "outputs": [
        {
          "internalType": "bytes8",
          "name": "",
          "type": "bytes8"
        }
      ],
      "stateMutability": "pure",
      "type": "function",
      "constant": true
    }
  ],
  "bytecode": "0x60806040523480156200001157600080fd5b50620000446200002f6200004a640100000000026401000000009004565b62000052640100000000026401000000009004565b62000116565b600033905090565b60008060009054906101000a900473ffffffffffffffffffffffffffffffffffffffff169050816000806101000a81548173ffffffffffffffffffffffffffffffffffffffff021916908373ffffffffffffffffffffffffffffffffffffffff1602179055508173ffffffffffffffffffffffffffffffffffffffff168173ffffffffffffffffffffffffffffffffffffffff167f8be0079c531659141344cd1fd0a4f28419497f9722a3daafe3b4186f6b6457e060405160405180910390a35050565b614e2b80620001266000396000f3fe60806040523480156200001157600080fd5b5060043610620000d5576000357c0100000000000000000000000000000000000000000000000000000000900480638f181a0b11620000985780638f181a0b14620001945780639e99261214620001cf5780639f4eb5f114620001f1578063b411ee941462000211578063ccbbd2601462000247578063f2fde38b146200027e57620000d5565b80631118b1b614620000da578063270119341462000110578063347791271462000130578063715018a614620001665780638da5cb5b1462000172575b600080fd5b620000f86004803603810190620000f2919062001b45565b6200029e565b60405162000107919062001ba9565b60405180910390f35b6200012e600480360381019062000128919062001f4a565b620002cd565b005b6200014e600480360381019062000148919062002057565b62000828565b6040516200015d9190620020c4565b60405180910390f35b6200017062000d21565b005b6200017c62000db2565b6040516200018b9190620020c4565b60405180910390f35b620001b26004803603810190620001ac9190620020e1565b62000ddb565b604051620001c696959493929190620021e7565b60405180910390f35b620001d962000f2b565b604051620001e891906200235c565b60405180910390f35b6200020f600480360381019062000209919062002057565b62001038565b005b6200022f600480360381019062000229919062002380565b620013d6565b6040516200023e9190620023d1565b60405180910390f35b6200026560048036038101906200025f91906200241f565b62001408565b6040516200027592919062002451565b60405180910390f35b6200029c60048036038101906200029691906200247e565b6200147d565b005b60036020528160005260406000206020528060005260406000206000915091509054906101000a900460ff1681565b600a81511062000314576040517f08c379a00000000000000000000000000000000000000000000000000000000081526004016200030b9062002500565b60405180910390fd5b60008787878787876040516200032a9062001a78565b6200033b96959493929190620025d5565b604051809103906000f08015801562000358573d6000803e3d6000fd5b5090506200036562001a86565b33816000019073ffffffffffffffffffffffffffffffffffffffff16908173ffffffffffffffffffffffffffffffffffffffff168152505081816020019073ffffffffffffffffffffffffffffffffffffffff16908173ffffffffffffffffffffffffffffffffffffffff1681525050600281908060018154018082558091505060019003906000526020600020906002020160009091909190915060008201518160000160006101000a81548173ffffffffffffffffffffffffffffffffffffffff021916908373ffffffffffffffffffffffffffffffffffffffff16021790555060208201518160010160006101000a81548173ffffffffffffffffffffffffffffffffffffffff021916908373ffffffffffffffffffffffffffffffffffffffff16021790555050508173ffffffffffffffffffffffffffffffffffffffff166367561d93306040518263ffffffff167c0100000000000000000000000000000000000000000000000000000000028152600401620004e89190620020c4565b600060405180830381600087803b1580156200050357600080fd5b505af115801562000518573d6000803e3d6000fd5b505050508173ffffffffffffffffffffffffffffffffffffffff1663f2fde38b336040518263ffffffff167c0100000000000000000000000000000000000000000000000000000000028152600401620005739190620020c4565b600060405180830381600087803b1580156200058e57600080fd5b505af1158015620005a3573d6000803e3d6000fd5b5050505060005b835181101562000744576001151560046000868481518110620005d257620005d16200263b565b5b60200260200101516000015177ffffffffffffffffffffffffffffffffffffffffffffffff191677ffffffffffffffffffffffffffffffffffffffffffffffff1916815260200190815260200160002060008684815181106200063a57620006396200263b565b5b60200260200101516020015177ffffffffffffffffffffffffffffffffffffffffffffffff191677ffffffffffffffffffffffffffffffffffffffffffffffff1916815260200190815260200160002060010160149054906101000a900460ff16151514620006e0576040517f08c379a0000000000000000000000000000000000000000000000000000000008152600401620006d790620026ba565b60405180910390fd5b6200072f83858381518110620006fb57620006fa6200263b565b5b6020026020010151600001518684815181106200071d576200071c6200263b565b5b60200260200101516020015162001581565b50806200073c906200270b565b9050620005aa565b506001600360008473ffffffffffffffffffffffffffffffffffffffff1673ffffffffffffffffffffffffffffffffffffffff16815260200190815260200160002060003373ffffffffffffffffffffffffffffffffffffffff1673ffffffffffffffffffffffffffffffffffffffff16815260200190815260200160002060006101000a81548160ff0219169083151502179055507fb1eee3b28a9945db09f7a21d65593e3edb51ab7b10bb1f8e713a9a6afb7e347b338a8a846020015160405162000815949392919062002759565b60405180910390a1505050505050505050565b600083600360008273ffffffffffffffffffffffffffffffffffffffff1673ffffffffffffffffffffffffffffffffffffffff16815260200190815260200160002060003373ffffffffffffffffffffffffffffffffffffffff1673ffffffffffffffffffffffffffffffffffffffff16815260200190815260200160002060009054906101000a900460ff16620008f7576040517f08c379a0000000000000000000000000000000000000000000000000000000008152600401620008ee90620027ef565b60405180910390fd5b60011515600460008677ffffffffffffffffffffffffffffffffffffffffffffffff191677ffffffffffffffffffffffffffffffffffffffffffffffff1916815260200190815260200160002060008577ffffffffffffffffffffffffffffffffffffffffffffffff191677ffffffffffffffffffffffffffffffffffffffffffffffff1916815260200190815260200160002060010160149054906101000a900460ff16151514620009e1576040517f08c379a0000000000000000000000000000000000000000000000000000000008152600401620009d890620026ba565b60405180910390fd5b600460008577ffffffffffffffffffffffffffffffffffffffffffffffff191677ffffffffffffffffffffffffffffffffffffffffffffffff1916815260200190815260200160002060008477ffffffffffffffffffffffffffffffffffffffffffffffff191677ffffffffffffffffffffffffffffffffffffffffffffffff1916815260200190815260200160002060010160009054906101000a900473ffffffffffffffffffffffffffffffffffffffff1673ffffffffffffffffffffffffffffffffffffffff166312ee7e4186336040518363ffffffff167c010000000000000000000000000000000000000000000000000000000002815260040162000aed92919062002451565b600060405180830381600087803b15801562000b0857600080fd5b505af115801562000b1d573d6000803e3d6000fd5b505050508473ffffffffffffffffffffffffffffffffffffffff166304a87c558585600460008977ffffffffffffffffffffffffffffffffffffffffffffffff191677ffffffffffffffffffffffffffffffffffffffffffffffff1916815260200190815260200160002060008877ffffffffffffffffffffffffffffffffffffffffffffffff191677ffffffffffffffffffffffffffffffffffffffffffffffff1916815260200190815260200160002060010160009054906101000a900473ffffffffffffffffffffffffffffffffffffffff166040518463ffffffff167c010000000000000000000000000000000000000000000000000000000002815260040162000c2f9392919062002811565b600060405180830381600087803b15801562000c4a57600080fd5b505af115801562000c5f573d6000803e3d6000fd5b50505050600460008577ffffffffffffffffffffffffffffffffffffffffffffffff191677ffffffffffffffffffffffffffffffffffffffffffffffff1916815260200190815260200160002060008477ffffffffffffffffffffffffffffffffffffffffffffffff191677ffffffffffffffffffffffffffffffffffffffffffffffff1916815260200190815260200160002060010160009054906101000a900473ffffffffffffffffffffffffffffffffffffffff169150509392505050565b62000d2b620019ac565b73ffffffffffffffffffffffffffffffffffffffff1662000d4b62000db2565b73ffffffffffffffffffffffffffffffffffffffff161462000da4576040517f08c379a000000000000000000000000000000000000000000000000000000000815260040162000d9b906200289e565b60405180910390fd5b62000db06000620019b4565b565b60008060009054906101000a900473ffffffffffffffffffffffffffffffffffffffff16905090565b6004602052816000526040600020602052806000526040600020600091509150508060000154908060010160009054906101000a900473ffffffffffffffffffffffffffffffffffffffff16908060010160149054906101000a900460ff16908060010160159054906101000a9004780100000000000000000000000000000000000000000000000002908060020160009054906101000a90047801000000000000000000000000000000000000000000000000029080600301805462000ea290620028ef565b80601f016020809104026020016040519081016040528092919081815260200182805462000ed090620028ef565b801562000f215780601f1062000ef55761010080835404028352916020019162000f21565b820191906000526020600020905b81548152906001019060200180831162000f0357829003601f168201915b5050505050905086565b60606002805480602002602001604051908101604052809291908181526020016000905b828210156200102f57838290600052602060002090600202016040518060400160405290816000820160009054906101000a900473ffffffffffffffffffffffffffffffffffffffff1673ffffffffffffffffffffffffffffffffffffffff1673ffffffffffffffffffffffffffffffffffffffff1681526020016001820160009054906101000a900473ffffffffffffffffffffffffffffffffffffffff1673ffffffffffffffffffffffffffffffffffffffff1673ffffffffffffffffffffffffffffffffffffffff16815250508152602001906001019062000f4f565b50505050905090565b62001042620019ac565b73ffffffffffffffffffffffffffffffffffffffff166200106262000db2565b73ffffffffffffffffffffffffffffffffffffffff1614620010bb576040517f08c379a0000000000000000000000000000000000000000000000000000000008152600401620010b2906200289e565b60405180910390fd5b6001600460008477ffffffffffffffffffffffffffffffffffffffffffffffff191677ffffffffffffffffffffffffffffffffffffffffffffffff1916815260200190815260200160002060008377ffffffffffffffffffffffffffffffffffffffffffffffff191677ffffffffffffffffffffffffffffffffffffffffffffffff1916815260200190815260200160002060010160146101000a81548160ff02191690831515021790555081600460008477ffffffffffffffffffffffffffffffffffffffffffffffff191677ffffffffffffffffffffffffffffffffffffffffffffffff1916815260200190815260200160002060008377ffffffffffffffffffffffffffffffffffffffffffffffff191677ffffffffffffffffffffffffffffffffffffffffffffffff1916815260200190815260200160002060010160156101000a81548167ffffffffffffffff021916908378010000000000000000000000000000000000000000000000009004021790555080600460008477ffffffffffffffffffffffffffffffffffffffffffffffff191677ffffffffffffffffffffffffffffffffffffffffffffffff1916815260200190815260200160002060008377ffffffffffffffffffffffffffffffffffffffffffffffff191677ffffffffffffffffffffffffffffffffffffffffffffffff1916815260200190815260200160002060020160006101000a81548167ffffffffffffffff021916908378010000000000000000000000000000000000000000000000009004021790555082600460008477ffffffffffffffffffffffffffffffffffffffffffffffff191677ffffffffffffffffffffffffffffffffffffffffffffffff1916815260200190815260200160002060008377ffffffffffffffffffffffffffffffffffffffffffffffff191677ffffffffffffffffffffffffffffffffffffffffffffffff1916815260200190815260200160002060010160006101000a81548173ffffffffffffffffffffffffffffffffffffffff021916908373ffffffffffffffffffffffffffffffffffffffff160217905550505050565b600081604051602001620013eb919062002925565b604051602081830303815290604052805190602001209050919050565b600281815481106200141957600080fd5b90600052602060002090600202016000915090508060000160009054906101000a900473ffffffffffffffffffffffffffffffffffffffff16908060010160009054906101000a900473ffffffffffffffffffffffffffffffffffffffff16905082565b62001487620019ac565b73ffffffffffffffffffffffffffffffffffffffff16620014a762000db2565b73ffffffffffffffffffffffffffffffffffffffff161462001500576040517f08c379a0000000000000000000000000000000000000000000000000000000008152600401620014f7906200289e565b60405180910390fd5b600073ffffffffffffffffffffffffffffffffffffffff168173ffffffffffffffffffffffffffffffffffffffff16141562001573576040517f08c379a00000000000000000000000000000000000000000000000000000000081526004016200156a90620029bf565b60405180910390fd5b6200157e81620019b4565b50565b600060011515600460008577ffffffffffffffffffffffffffffffffffffffffffffffff191677ffffffffffffffffffffffffffffffffffffffffffffffff1916815260200190815260200160002060008477ffffffffffffffffffffffffffffffffffffffffffffffff191677ffffffffffffffffffffffffffffffffffffffffffffffff1916815260200190815260200160002060010160149054906101000a900460ff161515146200166d576040517f08c379a00000000000000000000000000000000000000000000000000000000081526004016200166490620026ba565b60405180910390fd5b600460008477ffffffffffffffffffffffffffffffffffffffffffffffff191677ffffffffffffffffffffffffffffffffffffffffffffffff1916815260200190815260200160002060008377ffffffffffffffffffffffffffffffffffffffffffffffff191677ffffffffffffffffffffffffffffffffffffffffffffffff1916815260200190815260200160002060010160009054906101000a900473ffffffffffffffffffffffffffffffffffffffff1673ffffffffffffffffffffffffffffffffffffffff166312ee7e4185336040518363ffffffff167c01000000000000000000000000000000000000000000000000000000000281526004016200177992919062002451565b600060405180830381600087803b1580156200179457600080fd5b505af1158015620017a9573d6000803e3d6000fd5b505050508373ffffffffffffffffffffffffffffffffffffffff166304a87c558484600460008877ffffffffffffffffffffffffffffffffffffffffffffffff191677ffffffffffffffffffffffffffffffffffffffffffffffff1916815260200190815260200160002060008777ffffffffffffffffffffffffffffffffffffffffffffffff191677ffffffffffffffffffffffffffffffffffffffffffffffff1916815260200190815260200160002060010160009054906101000a900473ffffffffffffffffffffffffffffffffffffffff166040518463ffffffff167c0100000000000000000000000000000000000000000000000000000000028152600401620018bb9392919062002811565b600060405180830381600087803b158015620018d657600080fd5b505af1158015620018eb573d6000803e3d6000fd5b50505050600460008477ffffffffffffffffffffffffffffffffffffffffffffffff191677ffffffffffffffffffffffffffffffffffffffffffffffff1916815260200190815260200160002060008377ffffffffffffffffffffffffffffffffffffffffffffffff191677ffffffffffffffffffffffffffffffffffffffffffffffff1916815260200190815260200160002060010160009054906101000a900473ffffffffffffffffffffffffffffffffffffffff1690509392505050565b600033905090565b60008060009054906101000a900473ffffffffffffffffffffffffffffffffffffffff169050816000806101000a81548173ffffffffffffffffffffffffffffffffffffffff021916908373ffffffffffffffffffffffffffffffffffffffff1602179055508173ffffffffffffffffffffffffffffffffffffffff168173ffffffffffffffffffffffffffffffffffffffff167f8be0079c531659141344cd1fd0a4f28419497f9722a3daafe3b4186f6b6457e060405160405180910390a35050565b61241480620029e283390190565b6040518060400160405280600073ffffffffffffffffffffffffffffffffffffffff168152602001600073ffffffffffffffffffffffffffffffffffffffff1681525090565b6000604051905090565b600080fd5b600080fd5b600073ffffffffffffffffffffffffffffffffffffffff82169050919050565b600062001b0d8262001ae0565b9050919050565b62001b1f8162001b00565b811462001b2b57600080fd5b50565b60008135905062001b3f8162001b14565b92915050565b6000806040838503121562001b5f5762001b5e62001ad6565b5b600062001b6f8582860162001b2e565b925050602062001b828582860162001b2e565b9150509250929050565b60008115159050919050565b62001ba38162001b8c565b82525050565b600060208201905062001bc0600083018462001b98565b92915050565b600080fd5b600080fd5b600080fd5b60008083601f84011262001bee5762001bed62001bc6565b5b8235905067ffffffffffffffff81111562001c0e5762001c0d62001bcb565b5b60208301915083600182028301111562001c2d5762001c2c62001bd0565b5b9250929050565b6002811062001c4257600080fd5b50565b60008135905062001c568162001c34565b92915050565b600080fd5b6000601f19601f8301169050919050565b7f4e487b7100000000000000000000000000000000000000000000000000000000600052604160045260246000fd5b62001cac8262001c61565b810181811067ffffffffffffffff8211171562001cce5762001ccd62001c72565b5b80604052505050565b600062001ce362001acc565b905062001cf1828262001ca1565b919050565b600067ffffffffffffffff82111562001d145762001d1362001c72565b5b62001d1f8262001c61565b9050602081019050919050565b82818337600083830152505050565b600062001d5262001d4c8462001cf6565b62001cd7565b90508281526020810184848401111562001d715762001d7062001c5c565b5b62001d7e84828562001d2c565b509392505050565b600082601f83011262001d9e5762001d9d62001bc6565b5b813562001db084826020860162001d3b565b91505092915050565b600067ffffffffffffffff82111562001dd75762001dd662001c72565b5b602082029050602081019050919050565b600080fd5b60007fffffffffffffffff00000000000000000000000000000000000000000000000082169050919050565b62001e248162001ded565b811462001e3057600080fd5b50565b60008135905062001e448162001e19565b92915050565b60006040828403121562001e635762001e6262001de8565b5b62001e6f604062001cd7565b9050600062001e818482850162001e33565b600083015250602062001e978482850162001e33565b60208301525092915050565b600062001eba62001eb48462001db9565b62001cd7565b9050808382526020820190506040840283018581111562001ee05762001edf62001bd0565b5b835b8181101562001f0d578062001ef8888262001e4a565b84526020840193505060408101905062001ee2565b5050509392505050565b600082601f83011262001f2f5762001f2e62001bc6565b5b813562001f4184826020860162001ea3565b91505092915050565b600080600080600080600060a0888a03121562001f6c5762001f6b62001ad6565b5b600088013567ffffffffffffffff81111562001f8d5762001f8c62001adb565b5b62001f9b8a828b0162001bd5565b9750975050602088013567ffffffffffffffff81111562001fc15762001fc062001adb565b5b62001fcf8a828b0162001bd5565b9550955050604062001fe48a828b0162001c45565b935050606088013567ffffffffffffffff81111562002008576200200762001adb565b5b620020168a828b0162001d86565b925050608088013567ffffffffffffffff8111156200203a576200203962001adb565b5b620020488a828b0162001f17565b91505092959891949750929550565b60008060006060848603121562002073576200207262001ad6565b5b6000620020838682870162001b2e565b9350506020620020968682870162001e33565b9250506040620020a98682870162001e33565b9150509250925092565b620020be8162001b00565b82525050565b6000602082019050620020db6000830184620020b3565b92915050565b60008060408385031215620020fb57620020fa62001ad6565b5b60006200210b8582860162001e33565b92505060206200211e8582860162001e33565b9150509250929050565b6000819050919050565b6200213d8162002128565b82525050565b6200214e8162001ded565b82525050565b600081519050919050565b600082825260208201905092915050565b60005b838110156200219057808201518184015260208101905062002173565b83811115620021a0576000848401525b50505050565b6000620021b38262002154565b620021bf81856200215f565b9350620021d181856020860162002170565b620021dc8162001c61565b840191505092915050565b600060c082019050620021fe600083018962002132565b6200220d6020830188620020b3565b6200221c604083018762001b98565b6200222b606083018662002143565b6200223a608083018562002143565b81810360a08301526200224e8184620021a6565b9050979650505050505050565b600081519050919050565b600082825260208201905092915050565b6000819050602082019050919050565b620022928162001b00565b82525050565b604082016000820151620022b0600085018262002287565b506020820151620022c5602085018262002287565b50505050565b6000620022d9838362002298565b60408301905092915050565b6000602082019050919050565b6000620022ff826200225b565b6200230b818562002266565b9350620023188362002277565b8060005b838110156200234f578151620023338882620022cb565b97506200234083620022e5565b9250506001810190506200231c565b5085935050505092915050565b60006020820190508181036000830152620023788184620022f2565b905092915050565b60006020828403121562002399576200239862001ad6565b5b600082013567ffffffffffffffff811115620023ba57620023b962001adb565b5b620023c88482850162001d86565b91505092915050565b6000602082019050620023e8600083018462002143565b92915050565b620023f98162002128565b81146200240557600080fd5b50565b6000813590506200241981620023ee565b92915050565b60006020828403121562002438576200243762001ad6565b5b6000620024488482850162002408565b91505092915050565b6000604082019050620024686000830185620020b3565b620024776020830184620020b3565b9392505050565b60006020828403121562002497576200249662001ad6565b5b6000620024a78482850162001b2e565b91505092915050565b7f4d6f64756c6573206d757374206265206c657373207468616e2031302e000000600082015250565b6000620024e8601d836200215f565b9150620024f582620024b0565b602082019050919050565b600060208201905081810360008301526200251b81620024d9565b9050919050565b60006200253083856200215f565b93506200253f83858462001d2c565b6200254a8362001c61565b840190509392505050565b7f4e487b7100000000000000000000000000000000000000000000000000000000600052602160045260246000fd5b6002811062002598576200259762002555565b5b50565b6000819050620025ab8262002584565b919050565b6000620025bd826200259b565b9050919050565b620025cf81620025b0565b82525050565b60006080820190508181036000830152620025f281888a62002522565b905081810360208301526200260981868862002522565b90506200261a6040830185620025c4565b81810360608301526200262e8184620021a6565b9050979650505050505050565b7f4e487b7100000000000000000000000000000000000000000000000000000000600052603260045260246000fd5b7f4d6f64756c65206e6f7420666f756e6400000000000000000000000000000000600082015250565b6000620026a26010836200215f565b9150620026af826200266a565b602082019050919050565b60006020820190508181036000830152620026d58162002693565b9050919050565b7f4e487b7100000000000000000000000000000000000000000000000000000000600052601160045260246000fd5b6000620027188262002128565b91507fffffffffffffffffffffffffffffffffffffffffffffffffffffffffffffffff8214156200274e576200274d620026dc565b5b600182019050919050565b6000606082019050620027706000830187620020b3565b81810360208301526200278581858762002522565b9050620027966040830184620020b3565b95945050505050565b7f496e76616c696420557365720000000000000000000000000000000000000000600082015250565b6000620027d7600c836200215f565b9150620027e4826200279f565b602082019050919050565b600060208201905081810360008301526200280a81620027c8565b9050919050565b600060608201905062002828600083018662002143565b62002837602083018562002143565b620028466040830184620020b3565b949350505050565b7f4f776e61626c653a2063616c6c6572206973206e6f7420746865206f776e6572600082015250565b6000620028866020836200215f565b915062002893826200284e565b602082019050919050565b60006020820190508181036000830152620028b98162002877565b9050919050565b7f4e487b7100000000000000000000000000000000000000000000000000000000600052602260045260246000fd5b600060028204905060018216806200290857607f821691505b602082108114156200291f576200291e620028c0565b5b50919050565b60006020820190508181036000830152620029418184620021a6565b905092915050565b7f4f776e61626c653a206e6577206f776e657220697320746865207a65726f206160008201527f6464726573730000000000000000000000000000000000000000000000000000602082015250565b6000620029a76026836200215f565b9150620029b48262002949565b604082019050919050565b60006020820190508181036000830152620029da8162002998565b905091905056fe60806040523480156200001157600080fd5b506040516200241438038062002414833981810160405281019062000037919062000521565b620000696200005462000148640100000000026401000000009004565b62000150640100000000026401000000009004565b83600190805190602001906200008192919062000214565b5082600290805190602001906200009a92919062000214565b506003808054620000ab906200061f565b620000b8929190620002a5565b5081600460006101000a81548160ff02191690836001811115620000e157620000e062000655565b5b02179055506001600760003373ffffffffffffffffffffffffffffffffffffffff1673ffffffffffffffffffffffffffffffffffffffff16815260200190815260200160002060006101000a81548160ff0219169083151502179055505050505062000684565b600033905090565b60008060009054906101000a900473ffffffffffffffffffffffffffffffffffffffff169050816000806101000a81548173ffffffffffffffffffffffffffffffffffffffff021916908373ffffffffffffffffffffffffffffffffffffffff1602179055508173ffffffffffffffffffffffffffffffffffffffff168173ffffffffffffffffffffffffffffffffffffffff167f8be0079c531659141344cd1fd0a4f28419497f9722a3daafe3b4186f6b6457e060405160405180910390a35050565b82805462000222906200061f565b90600052602060002090601f01602090048101928262000246576000855562000292565b82601f106200026157805160ff191683800117855562000292565b8280016001018555821562000292579182015b828111156200029157825182559160200191906001019062000274565b5b509050620002a191906200033d565b5090565b828054620002b3906200061f565b90600052602060002090601f016020900481019282620002d757600085556200032a565b82601f10620002ea57805485556200032a565b828001600101855582156200032a57600052602060002091601f016020900482015b82811115620003295782548255916001019190600101906200030c565b5b5090506200033991906200033d565b5090565b5b80821115620003585760008160009055506001016200033e565b5090565b6000604051905090565b600080fd5b600080fd5b600080fd5b600080fd5b6000601f19601f8301169050919050565b7f4e487b7100000000000000000000000000000000000000000000000000000000600052604160045260246000fd5b620003c5826200037a565b810181811067ffffffffffffffff82111715620003e757620003e66200038b565b5b80604052505050565b6000620003fc6200035c565b90506200040a8282620003ba565b919050565b600067ffffffffffffffff8211156200042d576200042c6200038b565b5b62000438826200037a565b9050602081019050919050565b60005b838110156200046557808201518184015260208101905062000448565b8381111562000475576000848401525b50505050565b6000620004926200048c846200040f565b620003f0565b905082815260208101848484011115620004b157620004b062000375565b5b620004be84828562000445565b509392505050565b600082601f830112620004de57620004dd62000370565b5b8151620004f08482602086016200047b565b91505092915050565b600281106200050757600080fd5b50565b6000815190506200051b81620004f9565b92915050565b600080600080608085870312156200053e576200053d62000366565b5b600085015167ffffffffffffffff8111156200055f576200055e6200036b565b5b6200056d87828801620004c6565b945050602085015167ffffffffffffffff8111156200059157620005906200036b565b5b6200059f87828801620004c6565b9350506040620005b2878288016200050a565b925050606085015167ffffffffffffffff811115620005d657620005d56200036b565b5b620005e487828801620004c6565b91505092959194509250565b7f4e487b7100000000000000000000000000000000000000000000000000000000600052602260045260246000fd5b600060028204905060018216806200063857607f821691505b602082108114156200064f576200064e620005f0565b5b50919050565b7f4e487b7100000000000000000000000000000000000000000000000000000000600052602160045260246000fd5b611d8080620006946000396000f3fe608060405234801561001057600080fd5b506004361061011d576000357c0100000000000000000000000000000000000000000000000000000000900480637284e416116100b4578063d8d8e93c11610083578063d8d8e93c14610299578063ee760f38146102c9578063f2fde38b146102f9578063f315aafe146103155761011d565b80637284e416146102115780638da5cb5b1461022f578063b411ee941461024d578063b7e2077e1461027d5761011d565b806352450cf9116100f057806352450cf91461019857806352f6747a146101cd57806367561d93146101eb578063715018a6146102075761011d565b806304a87c551461012257806306fdde031461013e57806329adec141461015c57806336e70eaa1461017a575b600080fd5b61013c60048036038101906101379190611445565b610333565b005b6101466106b9565b6040516101539190611531565b60405180910390f35b610164610747565b60405161017191906115ca565b60405180910390f35b61018261075a565b60405161018f91906116d1565b60405180910390f35b6101b260048036038101906101ad91906116f3565b6108d6565b6040516101c496959493929190611772565b60405180910390f35b6101d5610a11565b6040516101e29190611531565b60405180910390f35b610205600480360381019061020091906117da565b610a9f565b005b61020f610bca565b005b610219610c52565b6040516102269190611531565b60405180910390f35b610237610ce0565b6040516102449190611807565b60405180910390f35b61026760048036038101906102629190611957565b610d09565b60405161027491906119a0565b60405180910390f35b610297600480360381019061029291906117da565b610d39565b005b6102b360048036038101906102ae91906116f3565b610e64565b6040516102c09190611a71565b60405180910390f35b6102e360048036038101906102de9190611abf565b61109e565b6040516102f091906119a0565b60405180910390f35b610313600480360381019061030e91906117da565b6110d6565b005b61031d6111ce565b60405161032a9190611aec565b60405180910390f35b60011515600660003373ffffffffffffffffffffffffffffffffffffffff1673ffffffffffffffffffffffffffffffffffffffff16815260200190815260200160002060009054906101000a900460ff16151514806103c45750610395610ce0565b73ffffffffffffffffffffffffffffffffffffffff163373ffffffffffffffffffffffffffffffffffffffff16145b610403576040517f08c379a00000000000000000000000000000000000000000000000000000000081526004016103fa90611b53565b60405180910390fd5b6001600960008577ffffffffffffffffffffffffffffffffffffffffffffffff191677ffffffffffffffffffffffffffffffffffffffffffffffff1916815260200190815260200160002060010160146101000a81548160ff021916908315150217905550600554600960008577ffffffffffffffffffffffffffffffffffffffffffffffff191677ffffffffffffffffffffffffffffffffffffffffffffffff191681526020019081526020016000206000018190555080600960008577ffffffffffffffffffffffffffffffffffffffffffffffff191677ffffffffffffffffffffffffffffffffffffffffffffffff1916815260200190815260200160002060010160006101000a81548173ffffffffffffffffffffffffffffffffffffffff021916908373ffffffffffffffffffffffffffffffffffffffff16021790555081600960008577ffffffffffffffffffffffffffffffffffffffffffffffff191677ffffffffffffffffffffffffffffffffffffffffffffffff1916815260200190815260200160002060020160006101000a81548167ffffffffffffffff021916908378010000000000000000000000000000000000000000000000009004021790555082600960008577ffffffffffffffffffffffffffffffffffffffffffffffff191677ffffffffffffffffffffffffffffffffffffffffffffffff1916815260200190815260200160002060010160156101000a81548167ffffffffffffffff02191690837801000000000000000000000000000000000000000000000000900402179055508260086000600554815260200190815260200160002060006101000a81548167ffffffffffffffff02191690837801000000000000000000000000000000000000000000000000900402179055506005600081546106ad90611ba2565b91905081905550505050565b600180546106c690611c1a565b80601f01602080910402602001604051908101604052809291908181526020018280546106f290611c1a565b801561073f5780601f106107145761010080835404028352916020019161073f565b820191906000526020600020905b81548152906001019060200180831161072257829003601f168201915b505050505081565b600460009054906101000a900460ff1681565b6107626112a0565b61076a6112a0565b6001805461077790611c1a565b80601f01602080910402602001604051908101604052809291908181526020018280546107a390611c1a565b80156107f05780601f106107c5576101008083540402835291602001916107f0565b820191906000526020600020905b8154815290600101906020018083116107d357829003601f168201915b505050505081604001819052506002805461080a90611c1a565b80601f016020809104026020016040519081016040528092919081815260200182805461083690611c1a565b80156108835780601f1061085857610100808354040283529160200191610883565b820191906000526020600020905b81548152906001019060200180831161086657829003601f168201915b50505050508160600181905250600460009054906101000a900460ff16816020019060018111156108b7576108b6611553565b5b908160018111156108cb576108ca611553565b5b815250508091505090565b60096020528060005260406000206000915090508060000154908060010160009054906101000a900473ffffffffffffffffffffffffffffffffffffffff16908060010160149054906101000a900460ff16908060010160159054906101000a9004780100000000000000000000000000000000000000000000000002908060020160009054906101000a90047801000000000000000000000000000000000000000000000000029080600301805461098e90611c1a565b80601f01602080910402602001604051908101604052809291908181526020018280546109ba90611c1a565b8015610a075780601f106109dc57610100808354040283529160200191610a07565b820191906000526020600020905b8154815290600101906020018083116109ea57829003601f168201915b5050505050905086565b60038054610a1e90611c1a565b80601f0160208091040260200160405190810160405280929190818152602001828054610a4a90611c1a565b8015610a975780601f10610a6c57610100808354040283529160200191610a97565b820191906000526020600020905b815481529060010190602001808311610a7a57829003601f168201915b505050505081565b60011515600660003373ffffffffffffffffffffffffffffffffffffffff1673ffffffffffffffffffffffffffffffffffffffff16815260200190815260200160002060009054906101000a900460ff1615151480610b305750610b01610ce0565b73ffffffffffffffffffffffffffffffffffffffff163373ffffffffffffffffffffffffffffffffffffffff16145b610b6f576040517f08c379a0000000000000000000000000000000000000000000000000000000008152600401610b6690611b53565b60405180910390fd5b6001600660008373ffffffffffffffffffffffffffffffffffffffff1673ffffffffffffffffffffffffffffffffffffffff16815260200190815260200160002060006101000a81548160ff02191690831515021790555050565b610bd26111d4565b73ffffffffffffffffffffffffffffffffffffffff16610bf0610ce0565b73ffffffffffffffffffffffffffffffffffffffff1614610c46576040517f08c379a0000000000000000000000000000000000000000000000000000000008152600401610c3d90611c98565b60405180910390fd5b610c5060006111dc565b565b60028054610c5f90611c1a565b80601f0160208091040260200160405190810160405280929190818152602001828054610c8b90611c1a565b8015610cd85780601f10610cad57610100808354040283529160200191610cd8565b820191906000526020600020905b815481529060010190602001808311610cbb57829003601f168201915b505050505081565b60008060009054906101000a900473ffffffffffffffffffffffffffffffffffffffff16905090565b600081604051602001610d1c9190611531565b604051602081830303815290604052805190602001209050919050565b60011515600660003373ffffffffffffffffffffffffffffffffffffffff1673ffffffffffffffffffffffffffffffffffffffff16815260200190815260200160002060009054906101000a900460ff1615151480610dca5750610d9b610ce0565b73ffffffffffffffffffffffffffffffffffffffff163373ffffffffffffffffffffffffffffffffffffffff16145b610e09576040517f08c379a0000000000000000000000000000000000000000000000000000000008152600401610e0090611b53565b60405180910390fd5b6000600660008373ffffffffffffffffffffffffffffffffffffffff1673ffffffffffffffffffffffffffffffffffffffff16815260200190815260200160002060006101000a81548160ff02191690831515021790555050565b610e6c6112f7565b600960008377ffffffffffffffffffffffffffffffffffffffffffffffff191677ffffffffffffffffffffffffffffffffffffffffffffffff191681526020019081526020016000206040518060c0016040529081600082015481526020016001820160009054906101000a900473ffffffffffffffffffffffffffffffffffffffff1673ffffffffffffffffffffffffffffffffffffffff1673ffffffffffffffffffffffffffffffffffffffff1681526020016001820160149054906101000a900460ff161515151581526020016001820160159054906101000a900478010000000000000000000000000000000000000000000000000277ffffffffffffffffffffffffffffffffffffffffffffffff191677ffffffffffffffffffffffffffffffffffffffffffffffff191681526020016002820160009054906101000a900478010000000000000000000000000000000000000000000000000277ffffffffffffffffffffffffffffffffffffffffffffffff191677ffffffffffffffffffffffffffffffffffffffffffffffff1916815260200160038201805461101590611c1a565b80601f016020809104026020016040519081016040528092919081815260200182805461104190611c1a565b801561108e5780601f106110635761010080835404028352916020019161108e565b820191906000526020600020905b81548152906001019060200180831161107157829003601f168201915b5050505050815250509050919050565b60086020528060005260406000206000915054906101000a900478010000000000000000000000000000000000000000000000000281565b6110de6111d4565b73ffffffffffffffffffffffffffffffffffffffff166110fc610ce0565b73ffffffffffffffffffffffffffffffffffffffff1614611152576040517f08c379a000000000000000000000000000000000000000000000000000000000815260040161114990611c98565b60405180910390fd5b600073ffffffffffffffffffffffffffffffffffffffff168173ffffffffffffffffffffffffffffffffffffffff1614156111c2576040517f08c379a00000000000000000000000000000000000000000000000000000000081526004016111b990611d2a565b60405180910390fd5b6111cb816111dc565b50565b60055481565b600033905090565b60008060009054906101000a900473ffffffffffffffffffffffffffffffffffffffff169050816000806101000a81548173ffffffffffffffffffffffffffffffffffffffff021916908373ffffffffffffffffffffffffffffffffffffffff1602179055508173ffffffffffffffffffffffffffffffffffffffff168173ffffffffffffffffffffffffffffffffffffffff167f8be0079c531659141344cd1fd0a4f28419497f9722a3daafe3b4186f6b6457e060405160405180910390a35050565b6040518060a00160405280600073ffffffffffffffffffffffffffffffffffffffff168152602001600060018111156112dc576112db611553565b5b81526020016060815260200160608152602001606081525090565b6040518060c0016040528060008152602001600073ffffffffffffffffffffffffffffffffffffffff168152602001600015158152602001600077ffffffffffffffffffffffffffffffffffffffffffffffff19168152602001600077ffffffffffffffffffffffffffffffffffffffffffffffff19168152602001606081525090565b6000604051905090565b600080fd5b600080fd5b60007fffffffffffffffff00000000000000000000000000000000000000000000000082169050919050565b6113c48161138f565b81146113cf57600080fd5b50565b6000813590506113e1816113bb565b92915050565b600073ffffffffffffffffffffffffffffffffffffffff82169050919050565b6000611412826113e7565b9050919050565b61142281611407565b811461142d57600080fd5b50565b60008135905061143f81611419565b92915050565b60008060006060848603121561145e5761145d611385565b5b600061146c868287016113d2565b935050602061147d868287016113d2565b925050604061148e86828701611430565b9150509250925092565b600081519050919050565b600082825260208201905092915050565b60005b838110156114d25780820151818401526020810190506114b7565b838111156114e1576000848401525b50505050565b6000601f19601f8301169050919050565b600061150382611498565b61150d81856114a3565b935061151d8185602086016114b4565b611526816114e7565b840191505092915050565b6000602082019050818103600083015261154b81846114f8565b905092915050565b7f4e487b7100000000000000000000000000000000000000000000000000000000600052602160045260246000fd5b6002811061159357611592611553565b5b50565b60008190506115a482611582565b919050565b60006115b482611596565b9050919050565b6115c4816115a9565b82525050565b60006020820190506115df60008301846115bb565b92915050565b6115ee81611407565b82525050565b6115fd816115a9565b82525050565b600082825260208201905092915050565b600061161f82611498565b6116298185611603565b93506116398185602086016114b4565b611642816114e7565b840191505092915050565b600060a08301600083015161166560008601826115e5565b50602083015161167860208601826115f4565b50604083015184820360408601526116908282611614565b915050606083015184820360608601526116aa8282611614565b915050608083015184820360808601526116c48282611614565b9150508091505092915050565b600060208201905081810360008301526116eb818461164d565b905092915050565b60006020828403121561170957611708611385565b5b6000611717848285016113d2565b91505092915050565b6000819050919050565b61173381611720565b82525050565b61174281611407565b82525050565b60008115159050919050565b61175d81611748565b82525050565b61176c8161138f565b82525050565b600060c082019050611787600083018961172a565b6117946020830188611739565b6117a16040830187611754565b6117ae6060830186611763565b6117bb6080830185611763565b81810360a08301526117cd81846114f8565b9050979650505050505050565b6000602082840312156117f0576117ef611385565b5b60006117fe84828501611430565b91505092915050565b600060208201905061181c6000830184611739565b92915050565b600080fd5b600080fd5b7f4e487b7100000000000000000000000000000000000000000000000000000000600052604160045260246000fd5b611864826114e7565b810181811067ffffffffffffffff821117156118835761188261182c565b5b80604052505050565b600061189661137b565b90506118a2828261185b565b919050565b600067ffffffffffffffff8211156118c2576118c161182c565b5b6118cb826114e7565b9050602081019050919050565b82818337600083830152505050565b60006118fa6118f5846118a7565b61188c565b90508281526020810184848401111561191657611915611827565b5b6119218482856118d8565b509392505050565b600082601f83011261193e5761193d611822565b5b813561194e8482602086016118e7565b91505092915050565b60006020828403121561196d5761196c611385565b5b600082013567ffffffffffffffff81111561198b5761198a61138a565b5b61199784828501611929565b91505092915050565b60006020820190506119b56000830184611763565b92915050565b6119c481611720565b82525050565b6119d381611748565b82525050565b6119e28161138f565b82525050565b600060c083016000830151611a0060008601826119bb565b506020830151611a1360208601826115e5565b506040830151611a2660408601826119ca565b506060830151611a3960608601826119d9565b506080830151611a4c60808601826119d9565b5060a083015184820360a0860152611a648282611614565b9150508091505092915050565b60006020820190508181036000830152611a8b81846119e8565b905092915050565b611a9c81611720565b8114611aa757600080fd5b50565b600081359050611ab981611a93565b92915050565b600060208284031215611ad557611ad4611385565b5b6000611ae384828501611aaa565b91505092915050565b6000602082019050611b01600083018461172a565b92915050565b7f4e6f7420617574686f72697a6564000000000000000000000000000000000000600082015250565b6000611b3d600e836114a3565b9150611b4882611b07565b602082019050919050565b60006020820190508181036000830152611b6c81611b30565b9050919050565b7f4e487b7100000000000000000000000000000000000000000000000000000000600052601160045260246000fd5b6000611bad82611720565b91507fffffffffffffffffffffffffffffffffffffffffffffffffffffffffffffffff821415611be057611bdf611b73565b5b600182019050919050565b7f4e487b7100000000000000000000000000000000000000000000000000000000600052602260045260246000fd5b60006002820490506001821680611c3257607f821691505b60208210811415611c4657611c45611beb565b5b50919050565b7f4f776e61626c653a2063616c6c6572206973206e6f7420746865206f776e6572600082015250565b6000611c826020836114a3565b9150611c8d82611c4c565b602082019050919050565b60006020820190508181036000830152611cb181611c75565b9050919050565b7f4f776e61626c653a206e6577206f776e657220697320746865207a65726f206160008201527f6464726573730000000000000000000000000000000000000000000000000000602082015250565b6000611d146026836114a3565b9150611d1f82611cb8565b604082019050919050565b60006020820190508181036000830152611d4381611d07565b905091905056fea2646970667358221220ba433dfe1231d9c84f46a4b14747955f0ca7a2bab9f6c9120881b448e878cd3464736f6c63430008090033a26469706673582212207652606940f459ba2dae5ea51f6a03f9d079e3416189dc2d98ca161c2e167cd564736f6c63430008090033",
  "immutableReferences": {},
  "source": "// SPDX-License-Identifier: MIT\r\npragma solidity ^0.8.9;\r\n\r\nimport \"@openzeppelin/contracts/utils/math/SafeMath.sol\";\r\nimport \"@openzeppelin/contracts/access/Ownable.sol\";\r\n\r\nimport './Modules/interfaces/IModule.sol';\r\nimport './DaoBase.sol';\r\nimport './Data.sol';\r\n\r\n//is DaosFactory\r\ncontract DaosFactory is Ownable {\r\n  using SafeMath for uint256;\r\n  uint256 private daoId;\r\n\r\n  // //user > daos\r\n  // mapping(address => address[]) public membershipDaos;\r\n  deployedDao[] public daos;\r\n  mapping(address => mapping(address => bool)) public daoOwners;\r\n  //MyModule[] public availableModules;\r\n  //mapping(string => MyModule) public availableModules;\r\n  // mapping(address => ModuleDao[]) public modulesDaos;\r\n  //dao address => moduleType => module\r\n  mapping(bytes8 => mapping(bytes8 => Data.Module)) public modulesDaos;\r\n\r\n  struct deployedDao {\r\n    address owner;\r\n    address daoAddress;\r\n  }\r\n\r\n  // struct MyModule {\r\n  //   string moduleType;\r\n  //   string smartContractName;\r\n  //   string code;\r\n  //   bool isActive;\r\n  // }\r\n\r\n  // struct ModuleDao {\r\n  //   uint256 id;\r\n  //   address moduleAddress;\r\n  //   // IModule module;\r\n  //   bool isActive;\r\n  //   string moduleType;\r\n  //   string code;\r\n  //   //string abiCode;\r\n  // }\r\n\r\n  event DaoCreated(address user, string name, address daoAddress);\r\n  event ModuleActivated(address user, string name, address daoAddress);\r\n\r\n  modifier onlyDaoOwners(address _daoAddress) {\r\n    require(daoOwners[_daoAddress][msg.sender], \"Invalid User\");\r\n    _;\r\n  }\r\n\r\n  function getdeployedDaos() external view returns (deployedDao[] memory) {\r\n    return daos;\r\n  }\r\n\r\n  function activateModuleForDao(address _daoAddress, bytes8 _type, bytes8 _code) public onlyDaoOwners(_daoAddress) returns(address) {\r\n    require(modulesDaos[_type][_code].isActive == true, \"Module not found\");\r\n    IModule(modulesDaos[_type][_code].moduleAddress).addDao(_daoAddress, msg.sender);\r\n    DaoBase(_daoAddress).addModule(_type, _code, modulesDaos[_type][_code].moduleAddress);\r\n    return modulesDaos[_type][_code].moduleAddress;  \r\n  }\r\n\r\n  function _activateModuleForDao(address _daoAddress, bytes8 _type, bytes8 _code) internal returns(address) {\r\n    require(modulesDaos[_type][_code].isActive == true, \"Module not found\");\r\n    IModule(modulesDaos[_type][_code].moduleAddress).addDao(_daoAddress, msg.sender);\r\n    DaoBase(_daoAddress).addModule(_type, _code, modulesDaos[_type][_code].moduleAddress);\r\n    return modulesDaos[_type][_code].moduleAddress;  \r\n  }\r\n\r\n  function addModule(address _moduleAddress, bytes8 _type, bytes8 _code) public onlyOwner {\r\n    modulesDaos[_type][_code].isActive = true;\r\n    modulesDaos[_type][_code].moduleType = _type;\r\n    modulesDaos[_type][_code].moduleCode = _code;\r\n    modulesDaos[_type][_code].moduleAddress = _moduleAddress;\r\n  }\r\n\r\n  //  function getDaosAddressByMember(address _addressMember) external view returns (address[] memory) {\r\n  //   return (membershipDaos[_addressMember]);\r\n  // }\r\n\r\n  function createDAO(string calldata _name, string calldata _description, Data.visibilityEnum _visibility\r\n                    , string memory _rules\r\n                    , Data.ModuleToActivate[] memory _modules) public {\r\n    require(_modules.length < 10, \"Modules must be less than 10.\");\r\n    DaoBase dao = new DaoBase(_name, _description, _visibility, _rules);\r\n    // MembershipDao memberModule = new MembershipDao(membershipMode);\r\n    // dao.addModule(dao.hash(\"MemberModule\"), address(memberModule));\r\n    deployedDao memory _dao;\r\n    _dao.owner = msg.sender;\r\n    _dao.daoAddress = address(dao);\r\n    daos.push(_dao); \r\n    dao.authorizeContract(address(this));\r\n    dao.transferOwnership(msg.sender);\r\n\r\n    for(uint i=0; i<_modules.length; ++i){\r\n      require(modulesDaos[_modules[i].moduleType][_modules[i].moduleCode].isActive == true, \"Module not found\");\r\n        _activateModuleForDao(address(dao)\r\n        , _modules[i].moduleType\r\n        , _modules[i].moduleCode);\r\n     }\r\n    daoOwners[address(dao)][msg.sender] = true;\r\n    emit DaoCreated(msg.sender, _name, _dao.daoAddress);\r\n  }\r\n\r\n  function hash(string memory _name) public pure returns(bytes8) {\r\n    return (bytes8(keccak256(abi.encode(_name))));\r\n  }\r\n}",
  "sourcePath": "C:\\Users\\mdmou\\source\\repos\\MY-DAO\\contracts\\DaosFactory.sol",
  "compiler": {
    "name": "solc",
    "version": "0.8.9+commit.e5eed63a.Emscripten.clang"
  },
  "schemaVersion": "3.4.4",
  "updatedAt": "2022-05-16T22:35:48.454Z",
  "networkType": "ethereum",
  "devdoc": {
    "kind": "dev",
    "methods": {
      "owner()": {
        "details": "Returns the address of the current owner."
      },
      "renounceOwnership()": {
        "details": "Leaves the contract without owner. It will not be possible to call `onlyOwner` functions anymore. Can only be called by the current owner. NOTE: Renouncing ownership will leave the contract without an owner, thereby removing any functionality that is only available to the owner."
      },
      "transferOwnership(address)": {
        "details": "Transfers ownership of the contract to a new account (`newOwner`). Can only be called by the current owner."
      }
    },
    "version": 1
  },
  "userdoc": {
    "kind": "user",
    "methods": {},
    "version": 1
  }
}