{
  "contractName": "DaosFactory",
  "abi": [
    {
      "anonymous": false,
      "inputs": [
        {
          "indexed": false,
          "internalType": "address",
          "name": "user",
          "type": "address"
        },
        {
          "indexed": false,
          "internalType": "string",
          "name": "name",
          "type": "string"
        },
        {
          "indexed": false,
          "internalType": "address",
          "name": "daoAddress",
          "type": "address"
        }
      ],
      "name": "DaoCreated",
      "type": "event"
    },
    {
      "anonymous": false,
      "inputs": [
        {
          "indexed": false,
          "internalType": "address",
          "name": "user",
          "type": "address"
        },
        {
          "indexed": false,
          "internalType": "string",
          "name": "name",
          "type": "string"
        },
        {
          "indexed": false,
          "internalType": "address",
          "name": "daoAddress",
          "type": "address"
        }
      ],
      "name": "ModuleActivated",
      "type": "event"
    },
    {
      "anonymous": false,
      "inputs": [
        {
          "indexed": true,
          "internalType": "address",
          "name": "previousOwner",
          "type": "address"
        },
        {
          "indexed": true,
          "internalType": "address",
          "name": "newOwner",
          "type": "address"
        }
      ],
      "name": "OwnershipTransferred",
      "type": "event"
    },
    {
      "inputs": [
        {
          "internalType": "address",
          "name": "",
          "type": "address"
        },
        {
          "internalType": "address",
          "name": "",
          "type": "address"
        }
      ],
      "name": "daoOwners",
      "outputs": [
        {
          "internalType": "bool",
          "name": "",
          "type": "bool"
        }
      ],
      "stateMutability": "view",
      "type": "function",
      "constant": true
    },
    {
      "inputs": [
        {
          "internalType": "uint256",
          "name": "",
          "type": "uint256"
        }
      ],
      "name": "daos",
      "outputs": [
        {
          "internalType": "address",
          "name": "owner",
          "type": "address"
        },
        {
          "internalType": "address",
          "name": "daoAddress",
          "type": "address"
        }
      ],
      "stateMutability": "view",
      "type": "function",
      "constant": true
    },
    {
      "inputs": [
        {
          "internalType": "bytes8",
          "name": "",
          "type": "bytes8"
        },
        {
          "internalType": "bytes8",
          "name": "",
          "type": "bytes8"
        }
      ],
      "name": "modulesDaos",
      "outputs": [
        {
          "internalType": "uint256",
          "name": "id",
          "type": "uint256"
        },
        {
          "internalType": "address",
          "name": "moduleAddress",
          "type": "address"
        },
        {
          "internalType": "bool",
          "name": "isActive",
          "type": "bool"
        },
        {
          "internalType": "bytes8",
          "name": "moduleType",
          "type": "bytes8"
        },
        {
          "internalType": "bytes8",
          "name": "moduleCode",
          "type": "bytes8"
        },
        {
          "internalType": "string",
          "name": "moduleInfo",
          "type": "string"
        }
      ],
      "stateMutability": "view",
      "type": "function",
      "constant": true
    },
    {
      "inputs": [],
      "name": "owner",
      "outputs": [
        {
          "internalType": "address",
          "name": "",
          "type": "address"
        }
      ],
      "stateMutability": "view",
      "type": "function",
      "constant": true
    },
    {
      "inputs": [],
      "name": "renounceOwnership",
      "outputs": [],
      "stateMutability": "nonpayable",
      "type": "function"
    },
    {
      "inputs": [
        {
          "internalType": "address",
          "name": "newOwner",
          "type": "address"
        }
      ],
      "name": "transferOwnership",
      "outputs": [],
      "stateMutability": "nonpayable",
      "type": "function"
    },
    {
      "inputs": [],
      "name": "getdeployedDaos",
      "outputs": [
        {
          "components": [
            {
              "internalType": "address",
              "name": "owner",
              "type": "address"
            },
            {
              "internalType": "address",
              "name": "daoAddress",
              "type": "address"
            }
          ],
          "internalType": "struct DaosFactory.deployedDao[]",
          "name": "",
          "type": "tuple[]"
        }
      ],
      "stateMutability": "view",
      "type": "function",
      "constant": true
    },
    {
      "inputs": [
        {
          "internalType": "address",
          "name": "_daoAddress",
          "type": "address"
        },
        {
          "internalType": "bytes8",
          "name": "_type",
          "type": "bytes8"
        },
        {
          "internalType": "bytes8",
          "name": "_code",
          "type": "bytes8"
        }
      ],
      "name": "activateModuleForDao",
      "outputs": [
        {
          "internalType": "address",
          "name": "",
          "type": "address"
        }
      ],
      "stateMutability": "nonpayable",
      "type": "function"
    },
    {
      "inputs": [
        {
          "internalType": "address",
          "name": "_moduleAddress",
          "type": "address"
        },
        {
          "internalType": "bytes8",
          "name": "_type",
          "type": "bytes8"
        },
        {
          "internalType": "bytes8",
          "name": "_code",
          "type": "bytes8"
        }
      ],
      "name": "addModule",
      "outputs": [],
      "stateMutability": "nonpayable",
      "type": "function"
    },
    {
      "inputs": [
        {
          "internalType": "string",
          "name": "_name",
          "type": "string"
        },
        {
          "internalType": "string",
          "name": "_description",
          "type": "string"
        },
        {
          "internalType": "enum Data.visibilityEnum",
          "name": "_visibility",
          "type": "uint8"
        },
        {
          "components": [
            {
              "internalType": "bytes8",
              "name": "moduleType",
              "type": "bytes8"
            },
            {
              "internalType": "bytes8",
              "name": "moduleCode",
              "type": "bytes8"
            }
          ],
          "internalType": "struct Data.ModuleToActivate[]",
          "name": "_modules",
          "type": "tuple[]"
        }
      ],
      "name": "createDAO",
      "outputs": [],
      "stateMutability": "nonpayable",
      "type": "function"
    },
    {
      "inputs": [
        {
          "internalType": "string",
          "name": "_name",
          "type": "string"
        }
      ],
      "name": "hash",
      "outputs": [
        {
          "internalType": "bytes8",
          "name": "",
          "type": "bytes8"
        }
      ],
      "stateMutability": "pure",
      "type": "function",
      "constant": true
    }
  ],
  "bytecode": "0x60806040523480156200001157600080fd5b50620000446200002f6200004a640100000000026401000000009004565b62000052640100000000026401000000009004565b62000116565b600033905090565b60008060009054906101000a900473ffffffffffffffffffffffffffffffffffffffff169050816000806101000a81548173ffffffffffffffffffffffffffffffffffffffff021916908373ffffffffffffffffffffffffffffffffffffffff1602179055508173ffffffffffffffffffffffffffffffffffffffff168173ffffffffffffffffffffffffffffffffffffffff167f8be0079c531659141344cd1fd0a4f28419497f9722a3daafe3b4186f6b6457e060405160405180910390a35050565b614a0380620001266000396000f3fe60806040523480156200001157600080fd5b5060043610620000d5576000357c0100000000000000000000000000000000000000000000000000000000900480639e99261211620000985780639e99261214620001af5780639f4eb5f114620001d1578063b411ee9414620001f1578063ccbbd2601462000227578063f2fde38b146200025e578063fa7eb635146200027e57620000d5565b80631118b1b614620000da578063347791271462000110578063715018a614620001465780638da5cb5b14620001525780638f181a0b1462000174575b600080fd5b620000f86004803603810190620000f2919062001ab1565b6200029e565b60405162000107919062001b15565b60405180910390f35b6200012e600480360381019062000128919062001b8f565b620002cd565b6040516200013d919062001bfc565b60405180910390f35b62000150620007c3565b005b6200015c62000854565b6040516200016b919062001bfc565b60405180910390f35b6200019260048036038101906200018c919062001c19565b6200087d565b604051620001a69695949392919062001d30565b60405180910390f35b620001b9620009cd565b604051620001c8919062001ea5565b60405180910390f35b620001ef6004803603810190620001e9919062001b8f565b62000ada565b005b6200020f60048036038101906200020991906200201a565b62000e78565b6040516200021e91906200206b565b60405180910390f35b6200024560048036038101906200023f9190620020b9565b62000eaa565b60405162000255929190620020eb565b60405180910390f35b6200027c600480360381019062000276919062002118565b62000f1f565b005b6200029c60048036038101906200029691906200230f565b62001023565b005b60036020528160005260406000206020528060005260406000206000915091509054906101000a900460ff1681565b600083600360008273ffffffffffffffffffffffffffffffffffffffff1673ffffffffffffffffffffffffffffffffffffffff16815260200190815260200160002060003373ffffffffffffffffffffffffffffffffffffffff1673ffffffffffffffffffffffffffffffffffffffff16815260200190815260200160002060009054906101000a900460ff166200039c576040517f08c379a0000000000000000000000000000000000000000000000000000000008152600401620003939062002436565b60405180910390fd5b60011515600460008677ffffffffffffffffffffffffffffffffffffffffffffffff191677ffffffffffffffffffffffffffffffffffffffffffffffff1916815260200190815260200160002060008577ffffffffffffffffffffffffffffffffffffffffffffffff191677ffffffffffffffffffffffffffffffffffffffffffffffff1916815260200190815260200160002060010160149054906101000a900460ff1615151462000486576040517f08c379a00000000000000000000000000000000000000000000000000000000081526004016200047d90620024a8565b60405180910390fd5b600460008577ffffffffffffffffffffffffffffffffffffffffffffffff191677ffffffffffffffffffffffffffffffffffffffffffffffff1916815260200190815260200160002060008477ffffffffffffffffffffffffffffffffffffffffffffffff191677ffffffffffffffffffffffffffffffffffffffffffffffff1916815260200190815260200160002060010160009054906101000a900473ffffffffffffffffffffffffffffffffffffffff1673ffffffffffffffffffffffffffffffffffffffff166312ee7e4186336040518363ffffffff167c010000000000000000000000000000000000000000000000000000000002815260040162000592929190620020eb565b600060405180830381600087803b158015620005ad57600080fd5b505af1158015620005c2573d6000803e3d6000fd5b505050508473ffffffffffffffffffffffffffffffffffffffff166286823985600460008877ffffffffffffffffffffffffffffffffffffffffffffffff191677ffffffffffffffffffffffffffffffffffffffffffffffff1916815260200190815260200160002060008777ffffffffffffffffffffffffffffffffffffffffffffffff191677ffffffffffffffffffffffffffffffffffffffffffffffff1916815260200190815260200160002060010160009054906101000a900473ffffffffffffffffffffffffffffffffffffffff166040518363ffffffff167c0100000000000000000000000000000000000000000000000000000000028152600401620006d1929190620024ca565b600060405180830381600087803b158015620006ec57600080fd5b505af115801562000701573d6000803e3d6000fd5b50505050600460008577ffffffffffffffffffffffffffffffffffffffffffffffff191677ffffffffffffffffffffffffffffffffffffffffffffffff1916815260200190815260200160002060008477ffffffffffffffffffffffffffffffffffffffffffffffff191677ffffffffffffffffffffffffffffffffffffffffffffffff1916815260200190815260200160002060010160009054906101000a900473ffffffffffffffffffffffffffffffffffffffff169150509392505050565b620007cd620014f0565b73ffffffffffffffffffffffffffffffffffffffff16620007ed62000854565b73ffffffffffffffffffffffffffffffffffffffff161462000846576040517f08c379a00000000000000000000000000000000000000000000000000000000081526004016200083d9062002547565b60405180910390fd5b620008526000620014f8565b565b60008060009054906101000a900473ffffffffffffffffffffffffffffffffffffffff16905090565b6004602052816000526040600020602052806000526040600020600091509150508060000154908060010160009054906101000a900473ffffffffffffffffffffffffffffffffffffffff16908060010160149054906101000a900460ff16908060010160159054906101000a9004780100000000000000000000000000000000000000000000000002908060020160009054906101000a900478010000000000000000000000000000000000000000000000000290806003018054620009449062002598565b80601f0160208091040260200160405190810160405280929190818152602001828054620009729062002598565b8015620009c35780601f106200099757610100808354040283529160200191620009c3565b820191906000526020600020905b815481529060010190602001808311620009a557829003601f168201915b5050505050905086565b60606002805480602002602001604051908101604052809291908181526020016000905b8282101562000ad157838290600052602060002090600202016040518060400160405290816000820160009054906101000a900473ffffffffffffffffffffffffffffffffffffffff1673ffffffffffffffffffffffffffffffffffffffff1673ffffffffffffffffffffffffffffffffffffffff1681526020016001820160009054906101000a900473ffffffffffffffffffffffffffffffffffffffff1673ffffffffffffffffffffffffffffffffffffffff1673ffffffffffffffffffffffffffffffffffffffff168152505081526020019060010190620009f1565b50505050905090565b62000ae4620014f0565b73ffffffffffffffffffffffffffffffffffffffff1662000b0462000854565b73ffffffffffffffffffffffffffffffffffffffff161462000b5d576040517f08c379a000000000000000000000000000000000000000000000000000000000815260040162000b549062002547565b60405180910390fd5b6001600460008477ffffffffffffffffffffffffffffffffffffffffffffffff191677ffffffffffffffffffffffffffffffffffffffffffffffff1916815260200190815260200160002060008377ffffffffffffffffffffffffffffffffffffffffffffffff191677ffffffffffffffffffffffffffffffffffffffffffffffff1916815260200190815260200160002060010160146101000a81548160ff02191690831515021790555081600460008477ffffffffffffffffffffffffffffffffffffffffffffffff191677ffffffffffffffffffffffffffffffffffffffffffffffff1916815260200190815260200160002060008377ffffffffffffffffffffffffffffffffffffffffffffffff191677ffffffffffffffffffffffffffffffffffffffffffffffff1916815260200190815260200160002060010160156101000a81548167ffffffffffffffff021916908378010000000000000000000000000000000000000000000000009004021790555080600460008477ffffffffffffffffffffffffffffffffffffffffffffffff191677ffffffffffffffffffffffffffffffffffffffffffffffff1916815260200190815260200160002060008377ffffffffffffffffffffffffffffffffffffffffffffffff191677ffffffffffffffffffffffffffffffffffffffffffffffff1916815260200190815260200160002060020160006101000a81548167ffffffffffffffff021916908378010000000000000000000000000000000000000000000000009004021790555082600460008477ffffffffffffffffffffffffffffffffffffffffffffffff191677ffffffffffffffffffffffffffffffffffffffffffffffff1916815260200190815260200160002060008377ffffffffffffffffffffffffffffffffffffffffffffffff191677ffffffffffffffffffffffffffffffffffffffffffffffff1916815260200190815260200160002060010160006101000a81548173ffffffffffffffffffffffffffffffffffffffff021916908373ffffffffffffffffffffffffffffffffffffffff160217905550505050565b60008160405160200162000e8d9190620025ce565b604051602081830303815290604052805190602001209050919050565b6002818154811062000ebb57600080fd5b90600052602060002090600202016000915090508060000160009054906101000a900473ffffffffffffffffffffffffffffffffffffffff16908060010160009054906101000a900473ffffffffffffffffffffffffffffffffffffffff16905082565b62000f29620014f0565b73ffffffffffffffffffffffffffffffffffffffff1662000f4962000854565b73ffffffffffffffffffffffffffffffffffffffff161462000fa2576040517f08c379a000000000000000000000000000000000000000000000000000000000815260040162000f999062002547565b60405180910390fd5b600073ffffffffffffffffffffffffffffffffffffffff168173ffffffffffffffffffffffffffffffffffffffff16141562001015576040517f08c379a00000000000000000000000000000000000000000000000000000000081526004016200100c9062002668565b60405180910390fd5b6200102081620014f8565b50565b600a8151106200106a576040517f08c379a00000000000000000000000000000000000000000000000000000000081526004016200106190620026da565b60405180910390fd5b600086868686866040516200107f90620019e4565b6200108f959493929190620027af565b604051809103906000f080158015620010ac573d6000803e3d6000fd5b5090508073ffffffffffffffffffffffffffffffffffffffff1663f2fde38b336040518263ffffffff167c010000000000000000000000000000000000000000000000000000000002815260040162001106919062001bfc565b600060405180830381600087803b1580156200112157600080fd5b505af115801562001136573d6000803e3d6000fd5b5050505062001144620019f2565b33816000019073ffffffffffffffffffffffffffffffffffffffff16908173ffffffffffffffffffffffffffffffffffffffff168152505081816020019073ffffffffffffffffffffffffffffffffffffffff16908173ffffffffffffffffffffffffffffffffffffffff168152505060005b835181101562001351576001151560046000868481518110620011df57620011de620027fe565b5b60200260200101516000015177ffffffffffffffffffffffffffffffffffffffffffffffff191677ffffffffffffffffffffffffffffffffffffffffffffffff191681526020019081526020016000206000868481518110620012475762001246620027fe565b5b60200260200101516020015177ffffffffffffffffffffffffffffffffffffffffffffffff191677ffffffffffffffffffffffffffffffffffffffffffffffff1916815260200190815260200160002060010160149054906101000a900460ff16151514620012ed576040517f08c379a0000000000000000000000000000000000000000000000000000000008152600401620012e490620024a8565b60405180910390fd5b6200133c83858381518110620013085762001307620027fe565b5b6020026020010151600001518684815181106200132a5762001329620027fe565b5b602002602001015160200151620015bc565b508062001349906200285c565b9050620011b7565b506001600360008473ffffffffffffffffffffffffffffffffffffffff1673ffffffffffffffffffffffffffffffffffffffff16815260200190815260200160002060003373ffffffffffffffffffffffffffffffffffffffff1673ffffffffffffffffffffffffffffffffffffffff16815260200190815260200160002060006101000a81548160ff021916908315150217905550600281908060018154018082558091505060019003906000526020600020906002020160009091909190915060008201518160000160006101000a81548173ffffffffffffffffffffffffffffffffffffffff021916908373ffffffffffffffffffffffffffffffffffffffff16021790555060208201518160010160006101000a81548173ffffffffffffffffffffffffffffffffffffffff021916908373ffffffffffffffffffffffffffffffffffffffff16021790555050507fb1eee3b28a9945db09f7a21d65593e3edb51ab7b10bb1f8e713a9a6afb7e347b3389898460200151604051620014de9493929190620028aa565b60405180910390a15050505050505050565b600033905090565b60008060009054906101000a900473ffffffffffffffffffffffffffffffffffffffff169050816000806101000a81548173ffffffffffffffffffffffffffffffffffffffff021916908373ffffffffffffffffffffffffffffffffffffffff1602179055508173ffffffffffffffffffffffffffffffffffffffff168173ffffffffffffffffffffffffffffffffffffffff167f8be0079c531659141344cd1fd0a4f28419497f9722a3daafe3b4186f6b6457e060405160405180910390a35050565b600060011515600460008577ffffffffffffffffffffffffffffffffffffffffffffffff191677ffffffffffffffffffffffffffffffffffffffffffffffff1916815260200190815260200160002060008477ffffffffffffffffffffffffffffffffffffffffffffffff191677ffffffffffffffffffffffffffffffffffffffffffffffff1916815260200190815260200160002060010160149054906101000a900460ff16151514620016a8576040517f08c379a00000000000000000000000000000000000000000000000000000000081526004016200169f90620024a8565b60405180910390fd5b600460008477ffffffffffffffffffffffffffffffffffffffffffffffff191677ffffffffffffffffffffffffffffffffffffffffffffffff1916815260200190815260200160002060008377ffffffffffffffffffffffffffffffffffffffffffffffff191677ffffffffffffffffffffffffffffffffffffffffffffffff1916815260200190815260200160002060010160009054906101000a900473ffffffffffffffffffffffffffffffffffffffff1673ffffffffffffffffffffffffffffffffffffffff166312ee7e4185336040518363ffffffff167c0100000000000000000000000000000000000000000000000000000000028152600401620017b4929190620020eb565b600060405180830381600087803b158015620017cf57600080fd5b505af1158015620017e4573d6000803e3d6000fd5b505050508373ffffffffffffffffffffffffffffffffffffffff166286823984600460008777ffffffffffffffffffffffffffffffffffffffffffffffff191677ffffffffffffffffffffffffffffffffffffffffffffffff1916815260200190815260200160002060008677ffffffffffffffffffffffffffffffffffffffffffffffff191677ffffffffffffffffffffffffffffffffffffffffffffffff1916815260200190815260200160002060010160009054906101000a900473ffffffffffffffffffffffffffffffffffffffff166040518363ffffffff167c0100000000000000000000000000000000000000000000000000000000028152600401620018f3929190620024ca565b600060405180830381600087803b1580156200190e57600080fd5b505af115801562001923573d6000803e3d6000fd5b50505050600460008477ffffffffffffffffffffffffffffffffffffffffffffffff191677ffffffffffffffffffffffffffffffffffffffffffffffff1916815260200190815260200160002060008377ffffffffffffffffffffffffffffffffffffffffffffffff191677ffffffffffffffffffffffffffffffffffffffffffffffff1916815260200190815260200160002060010160009054906101000a900473ffffffffffffffffffffffffffffffffffffffff1690509392505050565b6120dd80620028f183390190565b6040518060400160405280600073ffffffffffffffffffffffffffffffffffffffff168152602001600073ffffffffffffffffffffffffffffffffffffffff1681525090565b6000604051905090565b600080fd5b600080fd5b600073ffffffffffffffffffffffffffffffffffffffff82169050919050565b600062001a798262001a4c565b9050919050565b62001a8b8162001a6c565b811462001a9757600080fd5b50565b60008135905062001aab8162001a80565b92915050565b6000806040838503121562001acb5762001aca62001a42565b5b600062001adb8582860162001a9a565b925050602062001aee8582860162001a9a565b9150509250929050565b60008115159050919050565b62001b0f8162001af8565b82525050565b600060208201905062001b2c600083018462001b04565b92915050565b60007fffffffffffffffff00000000000000000000000000000000000000000000000082169050919050565b62001b698162001b32565b811462001b7557600080fd5b50565b60008135905062001b898162001b5e565b92915050565b60008060006060848603121562001bab5762001baa62001a42565b5b600062001bbb8682870162001a9a565b935050602062001bce8682870162001b78565b925050604062001be18682870162001b78565b9150509250925092565b62001bf68162001a6c565b82525050565b600060208201905062001c13600083018462001beb565b92915050565b6000806040838503121562001c335762001c3262001a42565b5b600062001c438582860162001b78565b925050602062001c568582860162001b78565b9150509250929050565b6000819050919050565b62001c758162001c60565b82525050565b62001c868162001b32565b82525050565b600081519050919050565b600082825260208201905092915050565b60005b8381101562001cc857808201518184015260208101905062001cab565b8381111562001cd8576000848401525b50505050565b6000601f19601f8301169050919050565b600062001cfc8262001c8c565b62001d08818562001c97565b935062001d1a81856020860162001ca8565b62001d258162001cde565b840191505092915050565b600060c08201905062001d47600083018962001c6a565b62001d56602083018862001beb565b62001d65604083018762001b04565b62001d74606083018662001c7b565b62001d83608083018562001c7b565b81810360a083015262001d97818462001cef565b9050979650505050505050565b600081519050919050565b600082825260208201905092915050565b6000819050602082019050919050565b62001ddb8162001a6c565b82525050565b60408201600082015162001df9600085018262001dd0565b50602082015162001e0e602085018262001dd0565b50505050565b600062001e22838362001de1565b60408301905092915050565b6000602082019050919050565b600062001e488262001da4565b62001e54818562001daf565b935062001e618362001dc0565b8060005b8381101562001e9857815162001e7c888262001e14565b975062001e898362001e2e565b92505060018101905062001e65565b5085935050505092915050565b6000602082019050818103600083015262001ec1818462001e3b565b905092915050565b600080fd5b600080fd5b7f4e487b7100000000000000000000000000000000000000000000000000000000600052604160045260246000fd5b62001f0d8262001cde565b810181811067ffffffffffffffff8211171562001f2f5762001f2e62001ed3565b5b80604052505050565b600062001f4462001a38565b905062001f52828262001f02565b919050565b600067ffffffffffffffff82111562001f755762001f7462001ed3565b5b62001f808262001cde565b9050602081019050919050565b82818337600083830152505050565b600062001fb362001fad8462001f57565b62001f38565b90508281526020810184848401111562001fd25762001fd162001ece565b5b62001fdf84828562001f8d565b509392505050565b600082601f83011262001fff5762001ffe62001ec9565b5b81356200201184826020860162001f9c565b91505092915050565b60006020828403121562002033576200203262001a42565b5b600082013567ffffffffffffffff81111562002054576200205362001a47565b5b620020628482850162001fe7565b91505092915050565b600060208201905062002082600083018462001c7b565b92915050565b620020938162001c60565b81146200209f57600080fd5b50565b600081359050620020b38162002088565b92915050565b600060208284031215620020d257620020d162001a42565b5b6000620020e284828501620020a2565b91505092915050565b600060408201905062002102600083018562001beb565b62002111602083018462001beb565b9392505050565b60006020828403121562002131576200213062001a42565b5b6000620021418482850162001a9a565b91505092915050565b600080fd5b600080fd5b60008083601f8401126200216d576200216c62001ec9565b5b8235905067ffffffffffffffff8111156200218d576200218c6200214a565b5b602083019150836001820283011115620021ac57620021ab6200214f565b5b9250929050565b60028110620021c157600080fd5b50565b600081359050620021d581620021b3565b92915050565b600067ffffffffffffffff821115620021f957620021f862001ed3565b5b602082029050602081019050919050565b600080fd5b6000604082840312156200222857620022276200220a565b5b62002234604062001f38565b90506000620022468482850162001b78565b60008301525060206200225c8482850162001b78565b60208301525092915050565b60006200227f6200227984620021db565b62001f38565b90508083825260208201905060408402830185811115620022a557620022a46200214f565b5b835b81811015620022d25780620022bd88826200220f565b845260208401935050604081019050620022a7565b5050509392505050565b600082601f830112620022f457620022f362001ec9565b5b81356200230684826020860162002268565b91505092915050565b600080600080600080608087890312156200232f576200232e62001a42565b5b600087013567ffffffffffffffff81111562002350576200234f62001a47565b5b6200235e89828a0162002154565b9650965050602087013567ffffffffffffffff81111562002384576200238362001a47565b5b6200239289828a0162002154565b94509450506040620023a789828a01620021c4565b925050606087013567ffffffffffffffff811115620023cb57620023ca62001a47565b5b620023d989828a01620022dc565b9150509295509295509295565b7f496e76616c696420557365720000000000000000000000000000000000000000600082015250565b60006200241e600c8362001c97565b91506200242b82620023e6565b602082019050919050565b6000602082019050818103600083015262002451816200240f565b9050919050565b7f4d6f64756c65206e6f7420666f756e6400000000000000000000000000000000600082015250565b60006200249060108362001c97565b91506200249d8262002458565b602082019050919050565b60006020820190508181036000830152620024c38162002481565b9050919050565b6000604082019050620024e1600083018562001c7b565b620024f0602083018462001beb565b9392505050565b7f4f776e61626c653a2063616c6c6572206973206e6f7420746865206f776e6572600082015250565b60006200252f60208362001c97565b91506200253c82620024f7565b602082019050919050565b60006020820190508181036000830152620025628162002520565b9050919050565b7f4e487b7100000000000000000000000000000000000000000000000000000000600052602260045260246000fd5b60006002820490506001821680620025b157607f821691505b60208210811415620025c857620025c762002569565b5b50919050565b60006020820190508181036000830152620025ea818462001cef565b905092915050565b7f4f776e61626c653a206e6577206f776e657220697320746865207a65726f206160008201527f6464726573730000000000000000000000000000000000000000000000000000602082015250565b60006200265060268362001c97565b91506200265d82620025f2565b604082019050919050565b60006020820190508181036000830152620026838162002641565b9050919050565b7f4d6f64756c6573206d757374206265206c657373207468616e2031302e000000600082015250565b6000620026c2601d8362001c97565b9150620026cf826200268a565b602082019050919050565b60006020820190508181036000830152620026f581620026b3565b9050919050565b60006200270a838562001c97565b93506200271983858462001f8d565b620027248362001cde565b840190509392505050565b7f4e487b7100000000000000000000000000000000000000000000000000000000600052602160045260246000fd5b600281106200277257620027716200272f565b5b50565b600081905062002785826200275e565b919050565b6000620027978262002775565b9050919050565b620027a9816200278a565b82525050565b60006060820190508181036000830152620027cc818789620026fc565b90508181036020830152620027e3818587620026fc565b9050620027f460408301846200279e565b9695505050505050565b7f4e487b7100000000000000000000000000000000000000000000000000000000600052603260045260246000fd5b7f4e487b7100000000000000000000000000000000000000000000000000000000600052601160045260246000fd5b6000620028698262001c60565b91507fffffffffffffffffffffffffffffffffffffffffffffffffffffffffffffffff8214156200289f576200289e6200282d565b5b600182019050919050565b6000606082019050620028c1600083018762001beb565b8181036020830152620028d6818587620026fc565b9050620028e7604083018462001beb565b9594505050505056fe60806040523480156200001157600080fd5b50604051620020dd380380620020dd83398181016040528101906200003791906200046a565b620000696200005462000129640100000000026401000000009004565b62000131640100000000026401000000009004565b826001908051906020019062000081929190620001f5565b5081600290805190602001906200009a929190620001f5565b5080600360006101000a81548160ff02191690836001811115620000c357620000c262000504565b5b02179055506001600660003373ffffffffffffffffffffffffffffffffffffffff1673ffffffffffffffffffffffffffffffffffffffff16815260200190815260200160002060006101000a81548160ff02191690831515021790555050505062000598565b600033905090565b60008060009054906101000a900473ffffffffffffffffffffffffffffffffffffffff169050816000806101000a81548173ffffffffffffffffffffffffffffffffffffffff021916908373ffffffffffffffffffffffffffffffffffffffff1602179055508173ffffffffffffffffffffffffffffffffffffffff168173ffffffffffffffffffffffffffffffffffffffff167f8be0079c531659141344cd1fd0a4f28419497f9722a3daafe3b4186f6b6457e060405160405180910390a35050565b828054620002039062000562565b90600052602060002090601f01602090048101928262000227576000855562000273565b82601f106200024257805160ff191683800117855562000273565b8280016001018555821562000273579182015b828111156200027257825182559160200191906001019062000255565b5b50905062000282919062000286565b5090565b5b80821115620002a157600081600090555060010162000287565b5090565b6000604051905090565b600080fd5b600080fd5b600080fd5b600080fd5b6000601f19601f8301169050919050565b7f4e487b7100000000000000000000000000000000000000000000000000000000600052604160045260246000fd5b6200030e82620002c3565b810181811067ffffffffffffffff8211171562000330576200032f620002d4565b5b80604052505050565b600062000345620002a5565b905062000353828262000303565b919050565b600067ffffffffffffffff821115620003765762000375620002d4565b5b6200038182620002c3565b9050602081019050919050565b60005b83811015620003ae57808201518184015260208101905062000391565b83811115620003be576000848401525b50505050565b6000620003db620003d58462000358565b62000339565b905082815260208101848484011115620003fa57620003f9620002be565b5b620004078482856200038e565b509392505050565b600082601f830112620004275762000426620002b9565b5b815162000439848260208601620003c4565b91505092915050565b600281106200045057600080fd5b50565b600081519050620004648162000442565b92915050565b600080600060608486031215620004865762000485620002af565b5b600084015167ffffffffffffffff811115620004a757620004a6620002b4565b5b620004b5868287016200040f565b935050602084015167ffffffffffffffff811115620004d957620004d8620002b4565b5b620004e7868287016200040f565b9250506040620004fa8682870162000453565b9150509250925092565b7f4e487b7100000000000000000000000000000000000000000000000000000000600052602160045260246000fd5b7f4e487b7100000000000000000000000000000000000000000000000000000000600052602260045260246000fd5b600060028204905060018216806200057b57607f821691505b6020821081141562000592576200059162000533565b5b50919050565b611b3580620005a86000396000f3fe608060405234801561001057600080fd5b5060043610610111576000357c0100000000000000000000000000000000000000000000000000000000900480637284e416116100b4578063d8d8e93c11610083578063d8d8e93c1461026f578063ee760f381461029f578063f2fde38b146102cf578063f315aafe146102eb57610111565b80637284e416146101e75780638da5cb5b14610205578063b411ee9414610223578063b7e2077e1461025357610111565b806336e70eaa116100f057806336e70eaa1461016e57806352450cf91461018c57806367561d93146101c1578063715018a6146101dd57610111565b80628682391461011657806306fdde031461013257806329adec1414610150575b600080fd5b610130600480360381019061012b9190611227565b610309565b005b61013a610530565b6040516101479190611300565b60405180910390f35b6101586105be565b6040516101659190611399565b60405180910390f35b6101766105d1565b6040516101839190611486565b60405180910390f35b6101a660048036038101906101a191906114a8565b61074d565b6040516101b896959493929190611527565b60405180910390f35b6101db60048036038101906101d6919061158f565b610888565b005b6101e56109b3565b005b6101ef610a3b565b6040516101fc9190611300565b60405180910390f35b61020d610ac9565b60405161021a91906115bc565b60405180910390f35b61023d6004803603810190610238919061170c565b610af2565b60405161024a9190611755565b60405180910390f35b61026d6004803603810190610268919061158f565b610b22565b005b610289600480360381019061028491906114a8565b610c4d565b6040516102969190611826565b60405180910390f35b6102b960048036038101906102b49190611874565b610e87565b6040516102c69190611755565b60405180910390f35b6102e960048036038101906102e4919061158f565b610ebf565b005b6102f3610fb7565b60405161030091906118a1565b60405180910390f35b610311610fbd565b73ffffffffffffffffffffffffffffffffffffffff1661032f610ac9565b73ffffffffffffffffffffffffffffffffffffffff1614610385576040517f08c379a000000000000000000000000000000000000000000000000000000000815260040161037c90611908565b60405180910390fd5b6001600860008477ffffffffffffffffffffffffffffffffffffffffffffffff191677ffffffffffffffffffffffffffffffffffffffffffffffff1916815260200190815260200160002060010160146101000a81548160ff021916908315150217905550600454600860008477ffffffffffffffffffffffffffffffffffffffffffffffff191677ffffffffffffffffffffffffffffffffffffffffffffffff191681526020019081526020016000206000018190555080600860008477ffffffffffffffffffffffffffffffffffffffffffffffff191677ffffffffffffffffffffffffffffffffffffffffffffffff1916815260200190815260200160002060010160006101000a81548173ffffffffffffffffffffffffffffffffffffffff021916908373ffffffffffffffffffffffffffffffffffffffff1602179055508160076000600454815260200190815260200160002060006101000a81548167ffffffffffffffff021916908378010000000000000000000000000000000000000000000000009004021790555060046000815461052590611957565b919050819055505050565b6001805461053d906119cf565b80601f0160208091040260200160405190810160405280929190818152602001828054610569906119cf565b80156105b65780601f1061058b576101008083540402835291602001916105b6565b820191906000526020600020905b81548152906001019060200180831161059957829003601f168201915b505050505081565b600360009054906101000a900460ff1681565b6105d9611089565b6105e1611089565b600180546105ee906119cf565b80601f016020809104026020016040519081016040528092919081815260200182805461061a906119cf565b80156106675780601f1061063c57610100808354040283529160200191610667565b820191906000526020600020905b81548152906001019060200180831161064a57829003601f168201915b5050505050816040018190525060028054610681906119cf565b80601f01602080910402602001604051908101604052809291908181526020018280546106ad906119cf565b80156106fa5780601f106106cf576101008083540402835291602001916106fa565b820191906000526020600020905b8154815290600101906020018083116106dd57829003601f168201915b50505050508160600181905250600360009054906101000a900460ff168160200190600181111561072e5761072d611322565b5b9081600181111561074257610741611322565b5b815250508091505090565b60086020528060005260406000206000915090508060000154908060010160009054906101000a900473ffffffffffffffffffffffffffffffffffffffff16908060010160149054906101000a900460ff16908060010160159054906101000a9004780100000000000000000000000000000000000000000000000002908060020160009054906101000a900478010000000000000000000000000000000000000000000000000290806003018054610805906119cf565b80601f0160208091040260200160405190810160405280929190818152602001828054610831906119cf565b801561087e5780601f106108535761010080835404028352916020019161087e565b820191906000526020600020905b81548152906001019060200180831161086157829003601f168201915b5050505050905086565b60011515600560003373ffffffffffffffffffffffffffffffffffffffff1673ffffffffffffffffffffffffffffffffffffffff16815260200190815260200160002060009054906101000a900460ff161515148061091957506108ea610ac9565b73ffffffffffffffffffffffffffffffffffffffff163373ffffffffffffffffffffffffffffffffffffffff16145b610958576040517f08c379a000000000000000000000000000000000000000000000000000000000815260040161094f90611a4d565b60405180910390fd5b6001600560008373ffffffffffffffffffffffffffffffffffffffff1673ffffffffffffffffffffffffffffffffffffffff16815260200190815260200160002060006101000a81548160ff02191690831515021790555050565b6109bb610fbd565b73ffffffffffffffffffffffffffffffffffffffff166109d9610ac9565b73ffffffffffffffffffffffffffffffffffffffff1614610a2f576040517f08c379a0000000000000000000000000000000000000000000000000000000008152600401610a2690611908565b60405180910390fd5b610a396000610fc5565b565b60028054610a48906119cf565b80601f0160208091040260200160405190810160405280929190818152602001828054610a74906119cf565b8015610ac15780601f10610a9657610100808354040283529160200191610ac1565b820191906000526020600020905b815481529060010190602001808311610aa457829003601f168201915b505050505081565b60008060009054906101000a900473ffffffffffffffffffffffffffffffffffffffff16905090565b600081604051602001610b059190611300565b604051602081830303815290604052805190602001209050919050565b60011515600560003373ffffffffffffffffffffffffffffffffffffffff1673ffffffffffffffffffffffffffffffffffffffff16815260200190815260200160002060009054906101000a900460ff1615151480610bb35750610b84610ac9565b73ffffffffffffffffffffffffffffffffffffffff163373ffffffffffffffffffffffffffffffffffffffff16145b610bf2576040517f08c379a0000000000000000000000000000000000000000000000000000000008152600401610be990611a4d565b60405180910390fd5b6000600560008373ffffffffffffffffffffffffffffffffffffffff1673ffffffffffffffffffffffffffffffffffffffff16815260200190815260200160002060006101000a81548160ff02191690831515021790555050565b610c556110d9565b600860008377ffffffffffffffffffffffffffffffffffffffffffffffff191677ffffffffffffffffffffffffffffffffffffffffffffffff191681526020019081526020016000206040518060c0016040529081600082015481526020016001820160009054906101000a900473ffffffffffffffffffffffffffffffffffffffff1673ffffffffffffffffffffffffffffffffffffffff1673ffffffffffffffffffffffffffffffffffffffff1681526020016001820160149054906101000a900460ff161515151581526020016001820160159054906101000a900478010000000000000000000000000000000000000000000000000277ffffffffffffffffffffffffffffffffffffffffffffffff191677ffffffffffffffffffffffffffffffffffffffffffffffff191681526020016002820160009054906101000a900478010000000000000000000000000000000000000000000000000277ffffffffffffffffffffffffffffffffffffffffffffffff191677ffffffffffffffffffffffffffffffffffffffffffffffff19168152602001600382018054610dfe906119cf565b80601f0160208091040260200160405190810160405280929190818152602001828054610e2a906119cf565b8015610e775780601f10610e4c57610100808354040283529160200191610e77565b820191906000526020600020905b815481529060010190602001808311610e5a57829003601f168201915b5050505050815250509050919050565b60076020528060005260406000206000915054906101000a900478010000000000000000000000000000000000000000000000000281565b610ec7610fbd565b73ffffffffffffffffffffffffffffffffffffffff16610ee5610ac9565b73ffffffffffffffffffffffffffffffffffffffff1614610f3b576040517f08c379a0000000000000000000000000000000000000000000000000000000008152600401610f3290611908565b60405180910390fd5b600073ffffffffffffffffffffffffffffffffffffffff168173ffffffffffffffffffffffffffffffffffffffff161415610fab576040517f08c379a0000000000000000000000000000000000000000000000000000000008152600401610fa290611adf565b60405180910390fd5b610fb481610fc5565b50565b60045481565b600033905090565b60008060009054906101000a900473ffffffffffffffffffffffffffffffffffffffff169050816000806101000a81548173ffffffffffffffffffffffffffffffffffffffff021916908373ffffffffffffffffffffffffffffffffffffffff1602179055508173ffffffffffffffffffffffffffffffffffffffff168173ffffffffffffffffffffffffffffffffffffffff167f8be0079c531659141344cd1fd0a4f28419497f9722a3daafe3b4186f6b6457e060405160405180910390a35050565b6040518060800160405280600073ffffffffffffffffffffffffffffffffffffffff168152602001600060018111156110c5576110c4611322565b5b815260200160608152602001606081525090565b6040518060c0016040528060008152602001600073ffffffffffffffffffffffffffffffffffffffff168152602001600015158152602001600077ffffffffffffffffffffffffffffffffffffffffffffffff19168152602001600077ffffffffffffffffffffffffffffffffffffffffffffffff19168152602001606081525090565b6000604051905090565b600080fd5b600080fd5b60007fffffffffffffffff00000000000000000000000000000000000000000000000082169050919050565b6111a681611171565b81146111b157600080fd5b50565b6000813590506111c38161119d565b92915050565b600073ffffffffffffffffffffffffffffffffffffffff82169050919050565b60006111f4826111c9565b9050919050565b611204816111e9565b811461120f57600080fd5b50565b600081359050611221816111fb565b92915050565b6000806040838503121561123e5761123d611167565b5b600061124c858286016111b4565b925050602061125d85828601611212565b9150509250929050565b600081519050919050565b600082825260208201905092915050565b60005b838110156112a1578082015181840152602081019050611286565b838111156112b0576000848401525b50505050565b6000601f19601f8301169050919050565b60006112d282611267565b6112dc8185611272565b93506112ec818560208601611283565b6112f5816112b6565b840191505092915050565b6000602082019050818103600083015261131a81846112c7565b905092915050565b7f4e487b7100000000000000000000000000000000000000000000000000000000600052602160045260246000fd5b6002811061136257611361611322565b5b50565b600081905061137382611351565b919050565b600061138382611365565b9050919050565b61139381611378565b82525050565b60006020820190506113ae600083018461138a565b92915050565b6113bd816111e9565b82525050565b6113cc81611378565b82525050565b600082825260208201905092915050565b60006113ee82611267565b6113f881856113d2565b9350611408818560208601611283565b611411816112b6565b840191505092915050565b600060808301600083015161143460008601826113b4565b50602083015161144760208601826113c3565b506040830151848203604086015261145f82826113e3565b9150506060830151848203606086015261147982826113e3565b9150508091505092915050565b600060208201905081810360008301526114a0818461141c565b905092915050565b6000602082840312156114be576114bd611167565b5b60006114cc848285016111b4565b91505092915050565b6000819050919050565b6114e8816114d5565b82525050565b6114f7816111e9565b82525050565b60008115159050919050565b611512816114fd565b82525050565b61152181611171565b82525050565b600060c08201905061153c60008301896114df565b61154960208301886114ee565b6115566040830187611509565b6115636060830186611518565b6115706080830185611518565b81810360a083015261158281846112c7565b9050979650505050505050565b6000602082840312156115a5576115a4611167565b5b60006115b384828501611212565b91505092915050565b60006020820190506115d160008301846114ee565b92915050565b600080fd5b600080fd5b7f4e487b7100000000000000000000000000000000000000000000000000000000600052604160045260246000fd5b611619826112b6565b810181811067ffffffffffffffff82111715611638576116376115e1565b5b80604052505050565b600061164b61115d565b90506116578282611610565b919050565b600067ffffffffffffffff821115611677576116766115e1565b5b611680826112b6565b9050602081019050919050565b82818337600083830152505050565b60006116af6116aa8461165c565b611641565b9050828152602081018484840111156116cb576116ca6115dc565b5b6116d684828561168d565b509392505050565b600082601f8301126116f3576116f26115d7565b5b813561170384826020860161169c565b91505092915050565b60006020828403121561172257611721611167565b5b600082013567ffffffffffffffff8111156117405761173f61116c565b5b61174c848285016116de565b91505092915050565b600060208201905061176a6000830184611518565b92915050565b611779816114d5565b82525050565b611788816114fd565b82525050565b61179781611171565b82525050565b600060c0830160008301516117b56000860182611770565b5060208301516117c860208601826113b4565b5060408301516117db604086018261177f565b5060608301516117ee606086018261178e565b506080830151611801608086018261178e565b5060a083015184820360a086015261181982826113e3565b9150508091505092915050565b60006020820190508181036000830152611840818461179d565b905092915050565b611851816114d5565b811461185c57600080fd5b50565b60008135905061186e81611848565b92915050565b60006020828403121561188a57611889611167565b5b60006118988482850161185f565b91505092915050565b60006020820190506118b660008301846114df565b92915050565b7f4f776e61626c653a2063616c6c6572206973206e6f7420746865206f776e6572600082015250565b60006118f2602083611272565b91506118fd826118bc565b602082019050919050565b60006020820190508181036000830152611921816118e5565b9050919050565b7f4e487b7100000000000000000000000000000000000000000000000000000000600052601160045260246000fd5b6000611962826114d5565b91507fffffffffffffffffffffffffffffffffffffffffffffffffffffffffffffffff82141561199557611994611928565b5b600182019050919050565b7f4e487b7100000000000000000000000000000000000000000000000000000000600052602260045260246000fd5b600060028204905060018216806119e757607f821691505b602082108114156119fb576119fa6119a0565b5b50919050565b7f4e6f7420617574686f72697a6564000000000000000000000000000000000000600082015250565b6000611a37600e83611272565b9150611a4282611a01565b602082019050919050565b60006020820190508181036000830152611a6681611a2a565b9050919050565b7f4f776e61626c653a206e6577206f776e657220697320746865207a65726f206160008201527f6464726573730000000000000000000000000000000000000000000000000000602082015250565b6000611ac9602683611272565b9150611ad482611a6d565b604082019050919050565b60006020820190508181036000830152611af881611abc565b905091905056fea2646970667358221220bc59996bd00cc3aeba3f4585d421edbeac5bc5bcea8cf019a23289bf79c3a31064736f6c63430008090033a26469706673582212208901a7687a3fae14bee6cde6d71ed26c060beadb03755b910cc8200d763489a064736f6c63430008090033",
  "immutableReferences": {},
  "source": "// SPDX-License-Identifier: MIT\npragma solidity ^0.8.9;\n\nimport \"@openzeppelin/contracts/utils/math/SafeMath.sol\";\nimport \"@openzeppelin/contracts/access/Ownable.sol\";\n\nimport './Modules/interfaces/IModule.sol';\nimport './DaoBase.sol';\nimport './Data.sol';\n\n//is DaosFactory\ncontract DaosFactory is Ownable {\n  using SafeMath for uint256;\n  uint256 private daoId;\n\n  // //user > daos\n  // mapping(address => address[]) public membershipDaos;\n  deployedDao[] public daos;\n  mapping(address => mapping(address => bool)) public daoOwners;\n  //MyModule[] public availableModules;\n  //mapping(string => MyModule) public availableModules;\n  // mapping(address => ModuleDao[]) public modulesDaos;\n  //dao address => moduleType => module\n  mapping(bytes8 => mapping(bytes8 => Data.Module)) public modulesDaos;\n\n  struct deployedDao {\n    address owner;\n    address daoAddress;\n  }\n\n  // struct MyModule {\n  //   string moduleType;\n  //   string smartContractName;\n  //   string code;\n  //   bool isActive;\n  // }\n\n  // struct ModuleDao {\n  //   uint256 id;\n  //   address moduleAddress;\n  //   // IModule module;\n  //   bool isActive;\n  //   string moduleType;\n  //   string code;\n  //   //string abiCode;\n  // }\n\n  event DaoCreated(address user, string name, address daoAddress);\n  event ModuleActivated(address user, string name, address daoAddress);\n\n  modifier onlyDaoOwners(address _daoAddress) {\n    require(daoOwners[_daoAddress][msg.sender], \"Invalid User\");\n    _;\n  }\n\n  function getdeployedDaos() external view returns (deployedDao[] memory) {\n    return daos;\n  }\n\n  function activateModuleForDao(address _daoAddress, bytes8 _type, bytes8 _code) public onlyDaoOwners(_daoAddress) returns(address) {\n    require(modulesDaos[_type][_code].isActive == true, \"Module not found\");\n    IModule(modulesDaos[_type][_code].moduleAddress).addDao(_daoAddress, msg.sender);\n    DaoBase(_daoAddress).addModule(_type, modulesDaos[_type][_code].moduleAddress);\n    return modulesDaos[_type][_code].moduleAddress;  \n  }\n  function _activateModuleForDao(address _daoAddress, bytes8 _type, bytes8 _code) internal returns(address) {\n    require(modulesDaos[_type][_code].isActive == true, \"Module not found\");\n    IModule(modulesDaos[_type][_code].moduleAddress).addDao(_daoAddress, msg.sender);\n    DaoBase(_daoAddress).addModule(_type, modulesDaos[_type][_code].moduleAddress);\n    return modulesDaos[_type][_code].moduleAddress;  \n  }\n\n  function addModule(address _moduleAddress, bytes8 _type, bytes8 _code) public onlyOwner {\n    modulesDaos[_type][_code].isActive = true;\n    modulesDaos[_type][_code].moduleType = _type;\n    modulesDaos[_type][_code].moduleCode = _code;\n    modulesDaos[_type][_code].moduleAddress = _moduleAddress;\n  }\n\n  //  function getDaosAddressByMember(address _addressMember) external view returns (address[] memory) {\n  //   return (membershipDaos[_addressMember]);\n  // }\n\n  function createDAO(string calldata _name, string calldata _description, Data.visibilityEnum _visibility\n                    , Data.ModuleToActivate[] memory _modules) public {\n    require(_modules.length < 10, \"Modules must be less than 10.\");\n    DaoBase dao = new DaoBase(_name, _description, _visibility);\n    dao.transferOwnership(msg.sender);\n    // dao.authorizeContract(address(this));\n    // MembershipDao memberModule = new MembershipDao(membershipMode);\n    // dao.addModule(dao.hash(\"MemberModule\"), address(memberModule));\n    deployedDao memory _dao;\n    _dao.owner = msg.sender;\n    _dao.daoAddress = address(dao);\n\n    for(uint i=0; i<_modules.length; ++i){\n      require(modulesDaos[_modules[i].moduleType][_modules[i].moduleCode].isActive == true, \"Module not found\");\n        _activateModuleForDao(address(dao)\n        , _modules[i].moduleType\n        , _modules[i].moduleCode);\n     }\n    daoOwners[address(dao)][msg.sender] = true;\n    daos.push(_dao); \n    emit DaoCreated(msg.sender, _name, _dao.daoAddress);\n  }\n\n  function hash(string memory _name) public pure returns(bytes8) {\n    return (bytes8(keccak256(abi.encode(_name))));\n  }\n}",
  "sourcePath": "/Users/chinoiserie/delivery/BLOCKCHAIN/Alyra/MY-DAO/contracts/DaosFactory.sol",
  "compiler": {
    "name": "solc",
    "version": "0.8.9+commit.e5eed63a.Emscripten.clang"
  },
  "schemaVersion": "3.2.0",
  "updatedAt": "2022-05-15T22:13:28.645Z",
  "networkType": "ethereum",
  "devdoc": {
    "kind": "dev",
    "methods": {
      "owner()": {
        "details": "Returns the address of the current owner."
      },
      "renounceOwnership()": {
        "details": "Leaves the contract without owner. It will not be possible to call `onlyOwner` functions anymore. Can only be called by the current owner. NOTE: Renouncing ownership will leave the contract without an owner, thereby removing any functionality that is only available to the owner."
      },
      "transferOwnership(address)": {
        "details": "Transfers ownership of the contract to a new account (`newOwner`). Can only be called by the current owner."
      }
    },
    "version": 1
  },
  "userdoc": {
    "kind": "user",
    "methods": {},
    "version": 1
  }
}