{
  "contractName": "DaosFactory",
  "abi": [
    {
      "anonymous": false,
      "inputs": [
        {
          "indexed": false,
          "internalType": "address",
          "name": "user",
          "type": "address"
        },
        {
          "indexed": false,
          "internalType": "string",
          "name": "name",
          "type": "string"
        },
        {
          "indexed": false,
          "internalType": "address",
          "name": "daoAddr",
          "type": "address"
        },
        {
          "indexed": false,
          "internalType": "uint256",
          "name": "id",
          "type": "uint256"
        }
      ],
      "name": "DaoCreated",
      "type": "event"
    },
    {
      "anonymous": false,
      "inputs": [
        {
          "indexed": true,
          "internalType": "address",
          "name": "previousOwner",
          "type": "address"
        },
        {
          "indexed": true,
          "internalType": "address",
          "name": "newOwner",
          "type": "address"
        }
      ],
      "name": "OwnershipTransferred",
      "type": "event"
    },
    {
      "inputs": [
        {
          "internalType": "uint256",
          "name": "",
          "type": "uint256"
        }
      ],
      "name": "daos",
      "outputs": [
        {
          "internalType": "string",
          "name": "name",
          "type": "string"
        },
        {
          "internalType": "address",
          "name": "owner",
          "type": "address"
        },
        {
          "internalType": "address",
          "name": "daoAddr",
          "type": "address"
        },
        {
          "internalType": "uint256",
          "name": "id",
          "type": "uint256"
        }
      ],
      "stateMutability": "view",
      "type": "function",
      "constant": true
    },
    {
      "inputs": [],
      "name": "owner",
      "outputs": [
        {
          "internalType": "address",
          "name": "",
          "type": "address"
        }
      ],
      "stateMutability": "view",
      "type": "function",
      "constant": true
    },
    {
      "inputs": [],
      "name": "renounceOwnership",
      "outputs": [],
      "stateMutability": "nonpayable",
      "type": "function"
    },
    {
      "inputs": [
        {
          "internalType": "address",
          "name": "newOwner",
          "type": "address"
        }
      ],
      "name": "transferOwnership",
      "outputs": [],
      "stateMutability": "nonpayable",
      "type": "function"
    },
    {
      "inputs": [],
      "name": "getdeployedDaos",
      "outputs": [
        {
          "components": [
            {
              "internalType": "string",
              "name": "name",
              "type": "string"
            },
            {
              "internalType": "address",
              "name": "owner",
              "type": "address"
            },
            {
              "internalType": "address",
              "name": "daoAddr",
              "type": "address"
            },
            {
              "internalType": "uint256[]",
              "name": "modules",
              "type": "uint256[]"
            },
            {
              "internalType": "uint256",
              "name": "id",
              "type": "uint256"
            }
          ],
          "internalType": "struct DaosFactory.deployedDaos[]",
          "name": "",
          "type": "tuple[]"
        }
      ],
      "stateMutability": "view",
      "type": "function",
      "constant": true
    },
    {
      "inputs": [
        {
          "internalType": "string",
          "name": "_name",
          "type": "string"
        }
      ],
      "name": "createDAO",
      "outputs": [],
      "stateMutability": "nonpayable",
      "type": "function"
    }
  ],
  "bytecode": "0x608060405234801561001057600080fd5b5061003f61002b610044640100000000026401000000009004565b61004c640100000000026401000000009004565b610110565b600033905090565b60008060009054906101000a900473ffffffffffffffffffffffffffffffffffffffff169050816000806101000a81548173ffffffffffffffffffffffffffffffffffffffff021916908373ffffffffffffffffffffffffffffffffffffffff1602179055508173ffffffffffffffffffffffffffffffffffffffff168173ffffffffffffffffffffffffffffffffffffffff167f8be0079c531659141344cd1fd0a4f28419497f9722a3daafe3b4186f6b6457e060405160405180910390a35050565b61122d8061011f6000396000f3fe608060405234801561001057600080fd5b506004361061007f576000357c0100000000000000000000000000000000000000000000000000000000900480634830ebcf14610084578063715018a6146100a05780638da5cb5b146100aa5780639e992612146100c8578063ccbbd260146100e6578063f2fde38b14610119575b600080fd5b61009e60048036038101906100999190610ab9565b610135565b005b6100a861036e565b005b6100b26103f6565b6040516100bf9190610b47565b60405180910390f35b6100d061041f565b6040516100dd9190610e11565b60405180910390f35b61010060048036038101906100fb9190610e5f565b61061e565b6040516101109493929190610ee5565b60405180910390f35b610133600480360381019061012e9190610f5d565b610726565b005b61013d6108ff565b82828080601f016020809104026020016040519081016040528093929190818152602001838380828437600081840152601f19601f82011690508083019250505050505050816000018190525033816020019073ffffffffffffffffffffffffffffffffffffffff16908173ffffffffffffffffffffffffffffffffffffffff16815250506000816040019073ffffffffffffffffffffffffffffffffffffffff16908173ffffffffffffffffffffffffffffffffffffffff16815250506001548160800181815250506003819080600181540180825580915050600190039060005260206000209060050201600090919091909150600082015181600001908051906020019061024f92919061095a565b5060208201518160010160006101000a81548173ffffffffffffffffffffffffffffffffffffffff021916908373ffffffffffffffffffffffffffffffffffffffff16021790555060408201518160020160006101000a81548173ffffffffffffffffffffffffffffffffffffffff021916908373ffffffffffffffffffffffffffffffffffffffff16021790555060608201518160030190805190602001906102fa9291906109e0565b5060808201518160040155505061031c6001805461081d90919063ffffffff16565b6001819055507f542dc3ec7b210eb7fcb27e7410932ebd1c7bc7a4d6764efcbdaed9ac615bae9233848484604001518560800151604051610361959493929190610fc6565b60405180910390a1505050565b610376610833565b73ffffffffffffffffffffffffffffffffffffffff166103946103f6565b73ffffffffffffffffffffffffffffffffffffffff16146103ea576040517f08c379a00000000000000000000000000000000000000000000000000000000081526004016103e190611060565b60405180910390fd5b6103f4600061083b565b565b60008060009054906101000a900473ffffffffffffffffffffffffffffffffffffffff16905090565b60606003805480602002602001604051908101604052809291908181526020016000905b8282101561061557838290600052602060002090600502016040518060a0016040529081600082018054610476906110af565b80601f01602080910402602001604051908101604052809291908181526020018280546104a2906110af565b80156104ef5780601f106104c4576101008083540402835291602001916104ef565b820191906000526020600020905b8154815290600101906020018083116104d257829003601f168201915b505050505081526020016001820160009054906101000a900473ffffffffffffffffffffffffffffffffffffffff1673ffffffffffffffffffffffffffffffffffffffff1673ffffffffffffffffffffffffffffffffffffffff1681526020016002820160009054906101000a900473ffffffffffffffffffffffffffffffffffffffff1673ffffffffffffffffffffffffffffffffffffffff1673ffffffffffffffffffffffffffffffffffffffff168152602001600382018054806020026020016040519081016040528092919081815260200182805480156105f357602002820191906000526020600020905b8154815260200190600101908083116105df575b5050505050815260200160048201548152505081526020019060010190610443565b50505050905090565b6003818154811061062e57600080fd5b9060005260206000209060050201600091509050806000018054610651906110af565b80601f016020809104026020016040519081016040528092919081815260200182805461067d906110af565b80156106ca5780601f1061069f576101008083540402835291602001916106ca565b820191906000526020600020905b8154815290600101906020018083116106ad57829003601f168201915b5050505050908060010160009054906101000a900473ffffffffffffffffffffffffffffffffffffffff16908060020160009054906101000a900473ffffffffffffffffffffffffffffffffffffffff16908060040154905084565b61072e610833565b73ffffffffffffffffffffffffffffffffffffffff1661074c6103f6565b73ffffffffffffffffffffffffffffffffffffffff16146107a2576040517f08c379a000000000000000000000000000000000000000000000000000000000815260040161079990611060565b60405180910390fd5b600073ffffffffffffffffffffffffffffffffffffffff168173ffffffffffffffffffffffffffffffffffffffff1603610811576040517f08c379a000000000000000000000000000000000000000000000000000000000815260040161080890611152565b60405180910390fd5b61081a8161083b565b50565b6000818361082b91906111a1565b905092915050565b600033905090565b60008060009054906101000a900473ffffffffffffffffffffffffffffffffffffffff169050816000806101000a81548173ffffffffffffffffffffffffffffffffffffffff021916908373ffffffffffffffffffffffffffffffffffffffff1602179055508173ffffffffffffffffffffffffffffffffffffffff168173ffffffffffffffffffffffffffffffffffffffff167f8be0079c531659141344cd1fd0a4f28419497f9722a3daafe3b4186f6b6457e060405160405180910390a35050565b6040518060a0016040528060608152602001600073ffffffffffffffffffffffffffffffffffffffff168152602001600073ffffffffffffffffffffffffffffffffffffffff16815260200160608152602001600081525090565b828054610966906110af565b90600052602060002090601f01602090048101928261098857600085556109cf565b82601f106109a157805160ff19168380011785556109cf565b828001600101855582156109cf579182015b828111156109ce5782518255916020019190600101906109b3565b5b5090506109dc9190610a2d565b5090565b828054828255906000526020600020908101928215610a1c579160200282015b82811115610a1b578251825591602001919060010190610a00565b5b509050610a299190610a2d565b5090565b5b80821115610a46576000816000905550600101610a2e565b5090565b600080fd5b600080fd5b600080fd5b600080fd5b600080fd5b60008083601f840112610a7957610a78610a54565b5b8235905067ffffffffffffffff811115610a9657610a95610a59565b5b602083019150836001820283011115610ab257610ab1610a5e565b5b9250929050565b60008060208385031215610ad057610acf610a4a565b5b600083013567ffffffffffffffff811115610aee57610aed610a4f565b5b610afa85828601610a63565b92509250509250929050565b600073ffffffffffffffffffffffffffffffffffffffff82169050919050565b6000610b3182610b06565b9050919050565b610b4181610b26565b82525050565b6000602082019050610b5c6000830184610b38565b92915050565b600081519050919050565b600082825260208201905092915050565b6000819050602082019050919050565b600081519050919050565b600082825260208201905092915050565b60005b83811015610bc8578082015181840152602081019050610bad565b83811115610bd7576000848401525b50505050565b6000601f19601f8301169050919050565b6000610bf982610b8e565b610c038185610b99565b9350610c13818560208601610baa565b610c1c81610bdd565b840191505092915050565b610c3081610b26565b82525050565b600081519050919050565b600082825260208201905092915050565b6000819050602082019050919050565b6000819050919050565b610c7581610c62565b82525050565b6000610c878383610c6c565b60208301905092915050565b6000602082019050919050565b6000610cab82610c36565b610cb58185610c41565b9350610cc083610c52565b8060005b83811015610cf1578151610cd88882610c7b565b9750610ce383610c93565b925050600181019050610cc4565b5085935050505092915050565b600060a0830160008301518482036000860152610d1b8282610bee565b9150506020830151610d306020860182610c27565b506040830151610d436040860182610c27565b5060608301518482036060860152610d5b8282610ca0565b9150506080830151610d706080860182610c6c565b508091505092915050565b6000610d878383610cfe565b905092915050565b6000602082019050919050565b6000610da782610b62565b610db18185610b6d565b935083602082028501610dc385610b7e565b8060005b85811015610dff5784840389528151610de08582610d7b565b9450610deb83610d8f565b925060208a01995050600181019050610dc7565b50829750879550505050505092915050565b60006020820190508181036000830152610e2b8184610d9c565b905092915050565b610e3c81610c62565b8114610e4757600080fd5b50565b600081359050610e5981610e33565b92915050565b600060208284031215610e7557610e74610a4a565b5b6000610e8384828501610e4a565b91505092915050565b600082825260208201905092915050565b6000610ea882610b8e565b610eb28185610e8c565b9350610ec2818560208601610baa565b610ecb81610bdd565b840191505092915050565b610edf81610c62565b82525050565b60006080820190508181036000830152610eff8187610e9d565b9050610f0e6020830186610b38565b610f1b6040830185610b38565b610f286060830184610ed6565b95945050505050565b610f3a81610b26565b8114610f4557600080fd5b50565b600081359050610f5781610f31565b92915050565b600060208284031215610f7357610f72610a4a565b5b6000610f8184828501610f48565b91505092915050565b82818337600083830152505050565b6000610fa58385610e8c565b9350610fb2838584610f8a565b610fbb83610bdd565b840190509392505050565b6000608082019050610fdb6000830188610b38565b8181036020830152610fee818688610f99565b9050610ffd6040830185610b38565b61100a6060830184610ed6565b9695505050505050565b7f4f776e61626c653a2063616c6c6572206973206e6f7420746865206f776e6572600082015250565b600061104a602083610e8c565b915061105582611014565b602082019050919050565b600060208201905081810360008301526110798161103d565b9050919050565b7f4e487b7100000000000000000000000000000000000000000000000000000000600052602260045260246000fd5b600060028204905060018216806110c757607f821691505b6020821081036110da576110d9611080565b5b50919050565b7f4f776e61626c653a206e6577206f776e657220697320746865207a65726f206160008201527f6464726573730000000000000000000000000000000000000000000000000000602082015250565b600061113c602683610e8c565b9150611147826110e0565b604082019050919050565b6000602082019050818103600083015261116b8161112f565b9050919050565b7f4e487b7100000000000000000000000000000000000000000000000000000000600052601160045260246000fd5b60006111ac82610c62565b91506111b783610c62565b9250827fffffffffffffffffffffffffffffffffffffffffffffffffffffffffffffffff038211156111ec576111eb611172565b5b82820190509291505056fea264697066735822122011c3935b5f4c080ab87e53ff3f3be0932742d4d36f0a6f880ffdd5617d5dfb3f64736f6c634300080d0033",
  "immutableReferences": {},
  "source": "// SPDX-License-Identifier: MIT\r\npragma solidity 0.8.13;\r\n\r\nimport \"../node_modules/@openzeppelin/contracts/utils/math/SafeMath.sol\";\r\nimport \"../node_modules/@openzeppelin/contracts/access/Ownable.sol\";\r\n\r\nimport './interfaces/IDaosFactory.sol';\r\nimport './Dao.sol';\r\n\r\n//is DaosFactory\r\ncontract DaosFactory is Ownable {\r\n  using SafeMath for uint256;\r\n  uint256 private daoId;\r\n\r\n  mapping(address => uint256[]) myDaos;\r\n\r\n  deployedDaos[] public daos;\r\n\r\n  // struct member {\r\n  //       memberStatus status;\r\n  //       address memberAddress;\r\n  //   }\r\n\r\n  // enum memberStatus {\r\n  //       notMember,\r\n  //       invited,\r\n  //       asking,\r\n  //       member\r\n  //   }\r\n\r\n  struct deployedDaos {\r\n    string name;\r\n    address owner;\r\n    address daoAddr;\r\n    uint256[] modules;\r\n    //member[] members;\r\n    uint256 id;\r\n  }\r\n\r\n//   event DaoCreated(address user, string name, address daoAddr, uint256[] modules, uint256 id);\r\n  event DaoCreated(address user, string name, address daoAddr, uint256 id);\r\n\r\n  function getdeployedDaos() external view returns (deployedDaos[] memory) {\r\n    return daos;\r\n  }\r\n\r\n  // function getMyDaosIds() external view returns (uint256[] memory) {\r\n  //   return (myDaos[msg.sender]);\r\n  // }\r\n  // function getDaoInfoId(uint256 _id) external view returns (deployedDaos memory) {\r\n  //   return (daos[_id]);\r\n  // }\r\n  \r\n  // after create the DAO we need to change the owner because now this contract is the owner\r\n  //, uint256[] calldata _modules\r\n  function createDAO(string calldata _name) public {\r\n    deployedDaos memory _dao;\r\n    _dao.name = _name;\r\n    _dao.owner = msg.sender;\r\n    //Dao dao = new Dao();\r\n    //address contractAddress = new Dao();\r\n    _dao.daoAddr =  address(0); //dao.address;\r\n    //_dao.modules = _modules;\r\n    _dao.id = daoId;\r\n    daos.push(_dao);\r\n    daoId = daoId.add(1);\r\n    // emit DaoCreated(msg.sender, _name, _dao.daoAddr, _modules, _dao.id);\r\n    emit DaoCreated(msg.sender, _name, _dao.daoAddr, _dao.id);\r\n  }\r\n}",
  "sourcePath": "C:\\Users\\mdmou\\source\\repos\\MY-DAO\\contracts\\DaosFactory.sol",
  "compiler": {
    "name": "solc",
    "version": "0.8.13+commit.abaa5c0e.Emscripten.clang"
  },
  "schemaVersion": "3.4.4",
  "updatedAt": "2022-04-30T12:06:38.143Z",
  "networkType": "ethereum",
  "devdoc": {
    "kind": "dev",
    "methods": {
      "owner()": {
        "details": "Returns the address of the current owner."
      },
      "renounceOwnership()": {
        "details": "Leaves the contract without owner. It will not be possible to call `onlyOwner` functions anymore. Can only be called by the current owner. NOTE: Renouncing ownership will leave the contract without an owner, thereby removing any functionality that is only available to the owner."
      },
      "transferOwnership(address)": {
        "details": "Transfers ownership of the contract to a new account (`newOwner`). Can only be called by the current owner."
      }
    },
    "version": 1
  },
  "userdoc": {
    "kind": "user",
    "methods": {},
    "version": 1
  }
}