{
  "contractName": "DaosFactory",
  "abi": [
    {
      "anonymous": false,
      "inputs": [
        {
          "indexed": false,
          "internalType": "address",
          "name": "user",
          "type": "address"
        },
        {
          "indexed": false,
          "internalType": "string",
          "name": "name",
          "type": "string"
        },
        {
          "indexed": false,
          "internalType": "address",
          "name": "daoAddress",
          "type": "address"
        }
      ],
      "name": "DaoCreated",
      "type": "event"
    },
    {
      "anonymous": false,
      "inputs": [
        {
          "indexed": true,
          "internalType": "address",
          "name": "previousOwner",
          "type": "address"
        },
        {
          "indexed": true,
          "internalType": "address",
          "name": "newOwner",
          "type": "address"
        }
      ],
      "name": "OwnershipTransferred",
      "type": "event"
    },
    {
      "inputs": [
        {
          "internalType": "uint256",
          "name": "",
          "type": "uint256"
        }
      ],
      "name": "daos",
      "outputs": [
        {
          "internalType": "address",
          "name": "owner",
          "type": "address"
        },
        {
          "internalType": "address",
          "name": "daoAddress",
          "type": "address"
        }
      ],
      "stateMutability": "view",
      "type": "function",
      "constant": true
    },
    {
      "inputs": [
        {
          "internalType": "address",
          "name": "",
          "type": "address"
        },
        {
          "internalType": "uint256",
          "name": "",
          "type": "uint256"
        }
      ],
      "name": "membershipDaos",
      "outputs": [
        {
          "internalType": "address",
          "name": "",
          "type": "address"
        }
      ],
      "stateMutability": "view",
      "type": "function",
      "constant": true
    },
    {
      "inputs": [],
      "name": "owner",
      "outputs": [
        {
          "internalType": "address",
          "name": "",
          "type": "address"
        }
      ],
      "stateMutability": "view",
      "type": "function",
      "constant": true
    },
    {
      "inputs": [],
      "name": "renounceOwnership",
      "outputs": [],
      "stateMutability": "nonpayable",
      "type": "function"
    },
    {
      "inputs": [
        {
          "internalType": "address",
          "name": "newOwner",
          "type": "address"
        }
      ],
      "name": "transferOwnership",
      "outputs": [],
      "stateMutability": "nonpayable",
      "type": "function"
    },
    {
      "inputs": [],
      "name": "getdeployedDaos",
      "outputs": [
        {
          "components": [
            {
              "internalType": "address",
              "name": "owner",
              "type": "address"
            },
            {
              "internalType": "address",
              "name": "daoAddress",
              "type": "address"
            }
          ],
          "internalType": "struct DaosFactory.deployedDao[]",
          "name": "",
          "type": "tuple[]"
        }
      ],
      "stateMutability": "view",
      "type": "function",
      "constant": true
    },
    {
      "inputs": [
        {
          "internalType": "address",
          "name": "_addressMember",
          "type": "address"
        }
      ],
      "name": "getDaosAddressByMember",
      "outputs": [
        {
          "internalType": "address[]",
          "name": "",
          "type": "address[]"
        }
      ],
      "stateMutability": "view",
      "type": "function",
      "constant": true
    },
    {
      "inputs": [
        {
          "internalType": "string",
          "name": "_name",
          "type": "string"
        },
        {
          "internalType": "bool",
          "name": "_byInvitation",
          "type": "bool"
        },
        {
          "internalType": "string",
          "name": "_description",
          "type": "string"
        },
        {
          "internalType": "bool",
          "name": "isPrivate",
          "type": "bool"
        }
      ],
      "name": "createDAO",
      "outputs": [],
      "stateMutability": "nonpayable",
      "type": "function"
    }
  ],
  "bytecode": "0x608060405234801561001057600080fd5b5061003f61002b610044640100000000026401000000009004565b61004c640100000000026401000000009004565b610110565b600033905090565b60008060009054906101000a900473ffffffffffffffffffffffffffffffffffffffff169050816000806101000a81548173ffffffffffffffffffffffffffffffffffffffff021916908373ffffffffffffffffffffffffffffffffffffffff1602179055508173ffffffffffffffffffffffffffffffffffffffff168173ffffffffffffffffffffffffffffffffffffffff167f8be0079c531659141344cd1fd0a4f28419497f9722a3daafe3b4186f6b6457e060405160405180910390a35050565b613afb8061011f6000396000f3fe60806040523480156200001157600080fd5b5060043610620000b1576000357c0100000000000000000000000000000000000000000000000000000000900480639e99261211620000805780639e9926121462000150578063ccbbd2601462000172578063cf0e4d1914620001a9578063f2fde38b14620001c957620000b1565b80635dbe2f3f14620000b6578063715018a614620000ec5780637fda9d1e14620000f85780638da5cb5b146200012e575b600080fd5b620000d46004803603810190620000ce919062000c20565b620001e9565b604051620000e3919062000c78565b60405180910390f35b620000f662000238565b005b62000116600480360381019062000110919062000c95565b620002c9565b60405162000125919062000d95565b60405180910390f35b6200013862000398565b60405162000147919062000c78565b60405180910390f35b6200015a620003c1565b60405162000169919062000ea9565b60405180910390f35b6200019060048036038101906200018a919062000ecd565b620004ce565b604051620001a092919062000eff565b60405180910390f35b620001c76004803603810190620001c1919062000fd7565b62000543565b005b620001e76004803603810190620001e1919062000c95565b62000952565b005b600260205281600052604060002081815481106200020657600080fd5b906000526020600020016000915091509054906101000a900473ffffffffffffffffffffffffffffffffffffffff1681565b6200024262000a56565b73ffffffffffffffffffffffffffffffffffffffff166200026262000398565b73ffffffffffffffffffffffffffffffffffffffff1614620002bb576040517f08c379a0000000000000000000000000000000000000000000000000000000008152600401620002b290620010f0565b60405180910390fd5b620002c7600062000a5e565b565b6060600260008373ffffffffffffffffffffffffffffffffffffffff1673ffffffffffffffffffffffffffffffffffffffff1681526020019081526020016000208054806020026020016040519081016040528092919081815260200182805480156200038c57602002820191906000526020600020905b8160009054906101000a900473ffffffffffffffffffffffffffffffffffffffff1673ffffffffffffffffffffffffffffffffffffffff168152602001906001019080831162000341575b50505050509050919050565b60008060009054906101000a900473ffffffffffffffffffffffffffffffffffffffff16905090565b60606003805480602002602001604051908101604052809291908181526020016000905b82821015620004c557838290600052602060002090600202016040518060400160405290816000820160009054906101000a900473ffffffffffffffffffffffffffffffffffffffff1673ffffffffffffffffffffffffffffffffffffffff1673ffffffffffffffffffffffffffffffffffffffff1681526020016001820160009054906101000a900473ffffffffffffffffffffffffffffffffffffffff1673ffffffffffffffffffffffffffffffffffffffff1673ffffffffffffffffffffffffffffffffffffffff168152505081526020019060010190620003e5565b50505050905090565b60038181548110620004df57600080fd5b90600052602060002090600202016000915090508060000160009054906101000a900473ffffffffffffffffffffffffffffffffffffffff16908060010160009054906101000a900473ffffffffffffffffffffffffffffffffffffffff16905082565b6000868686868686604051620005599062000b22565b6200056a9695949392919062001176565b604051809103906000f08015801562000587573d6000803e3d6000fd5b5090508073ffffffffffffffffffffffffffffffffffffffff166367561d93306040518263ffffffff167c0100000000000000000000000000000000000000000000000000000000028152600401620005e1919062000c78565b600060405180830381600087803b158015620005fc57600080fd5b505af115801562000611573d6000803e3d6000fd5b505050508073ffffffffffffffffffffffffffffffffffffffff1663ca6d56dc336040518263ffffffff167c01000000000000000000000000000000000000000000000000000000000281526004016200066c919062000c78565b600060405180830381600087803b1580156200068757600080fd5b505af11580156200069c573d6000803e3d6000fd5b50505050620006aa62000b30565b33816000019073ffffffffffffffffffffffffffffffffffffffff16908173ffffffffffffffffffffffffffffffffffffffff168152505081816020019073ffffffffffffffffffffffffffffffffffffffff16908173ffffffffffffffffffffffffffffffffffffffff1681525050600381908060018154018082558091505060019003906000526020600020906002020160009091909190915060008201518160000160006101000a81548173ffffffffffffffffffffffffffffffffffffffff021916908373ffffffffffffffffffffffffffffffffffffffff16021790555060208201518160010160006101000a81548173ffffffffffffffffffffffffffffffffffffffff021916908373ffffffffffffffffffffffffffffffffffffffff1602179055505050600260003373ffffffffffffffffffffffffffffffffffffffff1673ffffffffffffffffffffffffffffffffffffffff16815260200190815260200160002081602001519080600181540180825580915050600190039060005260206000200160009091909190916101000a81548173ffffffffffffffffffffffffffffffffffffffff021916908373ffffffffffffffffffffffffffffffffffffffff1602179055508173ffffffffffffffffffffffffffffffffffffffff1663f2fde38b336040518263ffffffff167c0100000000000000000000000000000000000000000000000000000000028152600401620008d1919062000c78565b600060405180830381600087803b158015620008ec57600080fd5b505af115801562000901573d6000803e3d6000fd5b505050507fb1eee3b28a9945db09f7a21d65593e3edb51ab7b10bb1f8e713a9a6afb7e347b3389898460200151604051620009409493929190620011d5565b60405180910390a15050505050505050565b6200095c62000a56565b73ffffffffffffffffffffffffffffffffffffffff166200097c62000398565b73ffffffffffffffffffffffffffffffffffffffff1614620009d5576040517f08c379a0000000000000000000000000000000000000000000000000000000008152600401620009cc90620010f0565b60405180910390fd5b600073ffffffffffffffffffffffffffffffffffffffff168173ffffffffffffffffffffffffffffffffffffffff16141562000a48576040517f08c379a000000000000000000000000000000000000000000000000000000000815260040162000a3f9062001291565b60405180910390fd5b62000a538162000a5e565b50565b600033905090565b60008060009054906101000a900473ffffffffffffffffffffffffffffffffffffffff169050816000806101000a81548173ffffffffffffffffffffffffffffffffffffffff021916908373ffffffffffffffffffffffffffffffffffffffff1602179055508173ffffffffffffffffffffffffffffffffffffffff168173ffffffffffffffffffffffffffffffffffffffff167f8be0079c531659141344cd1fd0a4f28419497f9722a3daafe3b4186f6b6457e060405160405180910390a35050565b61281280620012b483390190565b6040518060400160405280600073ffffffffffffffffffffffffffffffffffffffff168152602001600073ffffffffffffffffffffffffffffffffffffffff1681525090565b600080fd5b600080fd5b600073ffffffffffffffffffffffffffffffffffffffff82169050919050565b600062000bad8262000b80565b9050919050565b62000bbf8162000ba0565b811462000bcb57600080fd5b50565b60008135905062000bdf8162000bb4565b92915050565b6000819050919050565b62000bfa8162000be5565b811462000c0657600080fd5b50565b60008135905062000c1a8162000bef565b92915050565b6000806040838503121562000c3a5762000c3962000b76565b5b600062000c4a8582860162000bce565b925050602062000c5d8582860162000c09565b9150509250929050565b62000c728162000ba0565b82525050565b600060208201905062000c8f600083018462000c67565b92915050565b60006020828403121562000cae5762000cad62000b76565b5b600062000cbe8482850162000bce565b91505092915050565b600081519050919050565b600082825260208201905092915050565b6000819050602082019050919050565b62000cfe8162000ba0565b82525050565b600062000d12838362000cf3565b60208301905092915050565b6000602082019050919050565b600062000d388262000cc7565b62000d44818562000cd2565b935062000d518362000ce3565b8060005b8381101562000d8857815162000d6c888262000d04565b975062000d798362000d1e565b92505060018101905062000d55565b5085935050505092915050565b6000602082019050818103600083015262000db1818462000d2b565b905092915050565b600081519050919050565b600082825260208201905092915050565b6000819050602082019050919050565b60408201600082015162000dfd600085018262000cf3565b50602082015162000e12602085018262000cf3565b50505050565b600062000e26838362000de5565b60408301905092915050565b6000602082019050919050565b600062000e4c8262000db9565b62000e58818562000dc4565b935062000e658362000dd5565b8060005b8381101562000e9c57815162000e80888262000e18565b975062000e8d8362000e32565b92505060018101905062000e69565b5085935050505092915050565b6000602082019050818103600083015262000ec5818462000e3f565b905092915050565b60006020828403121562000ee65762000ee562000b76565b5b600062000ef68482850162000c09565b91505092915050565b600060408201905062000f16600083018562000c67565b62000f25602083018462000c67565b9392505050565b600080fd5b600080fd5b600080fd5b60008083601f84011262000f545762000f5362000f2c565b5b8235905067ffffffffffffffff81111562000f745762000f7362000f31565b5b60208301915083600182028301111562000f935762000f9262000f36565b5b9250929050565b60008115159050919050565b62000fb18162000f9a565b811462000fbd57600080fd5b50565b60008135905062000fd18162000fa6565b92915050565b6000806000806000806080878903121562000ff75762000ff662000b76565b5b600087013567ffffffffffffffff81111562001018576200101762000b7b565b5b6200102689828a0162000f3b565b965096505060206200103b89828a0162000fc0565b945050604087013567ffffffffffffffff8111156200105f576200105e62000b7b565b5b6200106d89828a0162000f3b565b935093505060606200108289828a0162000fc0565b9150509295509295509295565b600082825260208201905092915050565b7f4f776e61626c653a2063616c6c6572206973206e6f7420746865206f776e6572600082015250565b6000620010d86020836200108f565b9150620010e582620010a0565b602082019050919050565b600060208201905081810360008301526200110b81620010c9565b9050919050565b82818337600083830152505050565b6000601f19601f8301169050919050565b60006200114083856200108f565b93506200114f83858462001112565b6200115a8362001121565b840190509392505050565b620011708162000f9a565b82525050565b600060808201905081810360008301526200119381888a62001132565b9050620011a4602083018762001165565b8181036040830152620011b981858762001132565b9050620011ca606083018462001165565b979650505050505050565b6000606082019050620011ec600083018762000c67565b81810360208301526200120181858762001132565b905062001212604083018462000c67565b95945050505050565b7f4f776e61626c653a206e6577206f776e657220697320746865207a65726f206160008201527f6464726573730000000000000000000000000000000000000000000000000000602082015250565b6000620012796026836200108f565b915062001286826200121b565b604082019050919050565b60006020820190508181036000830152620012ac816200126a565b905091905056fe60806040523480156200001157600080fd5b5060405162002812380380620028128339818101604052810190620000379190620004cf565b620000696200005462000179640100000000026401000000009004565b62000181640100000000026401000000009004565b83600290805190602001906200008192919062000245565b5081600390805190602001906200009a92919062000245565b508215620000d6576000600760006101000a81548160ff02191690836002811115620000cb57620000ca6200057f565b5b021790555062000105565b6002600760006101000a81548160ff02191690836002811115620000ff57620000fe6200057f565b5b02179055505b801562000140576000600760016101000a81548160ff021916908360018111156200013557620001346200057f565b5b02179055506200016f565b6001600760016101000a81548160ff021916908360018111156200016957620001686200057f565b5b02179055505b5050505062000613565b600033905090565b60008060009054906101000a900473ffffffffffffffffffffffffffffffffffffffff169050816000806101000a81548173ffffffffffffffffffffffffffffffffffffffff021916908373ffffffffffffffffffffffffffffffffffffffff1602179055508173ffffffffffffffffffffffffffffffffffffffff168173ffffffffffffffffffffffffffffffffffffffff167f8be0079c531659141344cd1fd0a4f28419497f9722a3daafe3b4186f6b6457e060405160405180910390a35050565b8280546200025390620005dd565b90600052602060002090601f016020900481019282620002775760008555620002c3565b82601f106200029257805160ff1916838001178555620002c3565b82800160010185558215620002c3579182015b82811115620002c2578251825591602001919060010190620002a5565b5b509050620002d29190620002d6565b5090565b5b80821115620002f1576000816000905550600101620002d7565b5090565b6000604051905090565b600080fd5b600080fd5b600080fd5b600080fd5b6000601f19601f8301169050919050565b7f4e487b7100000000000000000000000000000000000000000000000000000000600052604160045260246000fd5b6200035e8262000313565b810181811067ffffffffffffffff8211171562000380576200037f62000324565b5b80604052505050565b600062000395620002f5565b9050620003a3828262000353565b919050565b600067ffffffffffffffff821115620003c657620003c562000324565b5b620003d18262000313565b9050602081019050919050565b60005b83811015620003fe578082015181840152602081019050620003e1565b838111156200040e576000848401525b50505050565b60006200042b6200042584620003a8565b62000389565b9050828152602081018484840111156200044a57620004496200030e565b5b62000457848285620003de565b509392505050565b600082601f83011262000477576200047662000309565b5b81516200048984826020860162000414565b91505092915050565b60008115159050919050565b620004a98162000492565b8114620004b557600080fd5b50565b600081519050620004c9816200049e565b92915050565b60008060008060808587031215620004ec57620004eb620002ff565b5b600085015167ffffffffffffffff8111156200050d576200050c62000304565b5b6200051b878288016200045f565b94505060206200052e87828801620004b8565b935050604085015167ffffffffffffffff81111562000552576200055162000304565b5b62000560878288016200045f565b92505060606200057387828801620004b8565b91505092959194509250565b7f4e487b7100000000000000000000000000000000000000000000000000000000600052602160045260246000fd5b7f4e487b7100000000000000000000000000000000000000000000000000000000600052602260045260246000fd5b60006002820490506001821680620005f657607f821691505b602082108114156200060d576200060c620005ae565b5b50919050565b6121ef80620006236000396000f3fe608060405234801561001057600080fd5b50600436106101ab576000357c01000000000000000000000000000000000000000000000000000000009004806367561d93116100fb578063b688a363116100b4578063c47f00271161008e578063c47f00271461045a578063ca6d56dc14610476578063cc4e629914610492578063f2fde38b146104c2576101ab565b8063b688a36314610416578063b7e2077e14610420578063c39194431461043c576101ab565b806367561d9314610368578063715018a6146103845780637284e4161461038e57806381b2248a146103ac5780638da5cb5b146103dc57806390c3f38f146103fa576101ab565b806321175b4a116101685780632f890b93116101425780632f890b93146102ce57806345ecd02f146102ea5780635f1231ea1461031a5780636075aac71461034a576101ab565b806321175b4a14610276578063297f9af01461029257806329adec14146102b0576101ab565b806306fdde03146101b057806308ae4b0c146101ce5780630a05fb09146101fe57806317d7de7c1461021c5780631a0925411461023a5780631f46cc6214610258575b600080fd5b6101b86104de565b6040516101c5919061190d565b60405180910390f35b6101e860048036038101906101e391906119a1565b61056c565b6040516101f59190611a45565b60405180910390f35b610206610597565b6040516102139190611aa8565b60405180910390f35b6102246105ae565b604051610231919061190d565b60405180910390f35b610242610640565b60405161024f919061190d565b60405180910390f35b6102606106d2565b60405161026d9190611b0b565b60405180910390f35b610290600480360381019061028b9190611b4b565b6106e5565b005b61029a61078e565b6040516102a79190611b91565b60405180910390f35b6102b8610794565b6040516102c59190611aa8565b60405180910390f35b6102e860048036038101906102e391906119a1565b6107a7565b005b61030460048036038101906102ff91906119a1565b6109c8565b6040516103119190611bc7565b60405180910390f35b610334600480360381019061032f91906119a1565b610a47565b6040516103419190611c0d565b60405180910390f35b610352610adb565b60405161035f9190611cbe565b60405180910390f35b610382600480360381019061037d91906119a1565b610b63565b005b61038c610c8e565b005b610396610d16565b6040516103a3919061190d565b60405180910390f35b6103c660048036038101906103c19190611d0c565b610da4565b6040516103d39190611b91565b60405180910390f35b6103e4610dc8565b6040516103f19190611d48565b60405180910390f35b610414600480360381019061040f9190611e98565b610df1565b005b61041e610e87565b005b61043a600480360381019061043591906119a1565b611192565b005b6104446112bd565b6040516104519190611b0b565b60405180910390f35b610474600480360381019061046f9190611e98565b6112d4565b005b610490600480360381019061048b91906119a1565b61136a565b005b6104ac60048036038101906104a79190611d0c565b611589565b6040516104b99190611d48565b60405180910390f35b6104dc60048036038101906104d791906119a1565b6115bc565b005b600280546104eb90611f10565b80601f016020809104026020016040519081016040528092919081815260200182805461051790611f10565b80156105645780601f1061053957610100808354040283529160200191610564565b820191906000526020600020905b81548152906001019060200180831161054757829003601f168201915b505050505081565b60066020528060005260406000206000915090508060000160009054906101000a900460ff16905081565b6000600760019054906101000a900460ff16905090565b6060600280546105bd90611f10565b80601f01602080910402602001604051908101604052809291908181526020018280546105e990611f10565b80156106365780601f1061060b57610100808354040283529160200191610636565b820191906000526020600020905b81548152906001019060200180831161061957829003601f168201915b5050505050905090565b60606003805461064f90611f10565b80601f016020809104026020016040519081016040528092919081815260200182805461067b90611f10565b80156106c85780601f1061069d576101008083540402835291602001916106c8565b820191906000526020600020905b8154815290600101906020018083116106ab57829003601f168201915b5050505050905090565b600760009054906101000a900460ff1681565b6106ed6116b4565b73ffffffffffffffffffffffffffffffffffffffff1661070b610dc8565b73ffffffffffffffffffffffffffffffffffffffff1614610761576040517f08c379a000000000000000000000000000000000000000000000000000000000815260040161075890611f8e565b60405180910390fd5b80600760006101000a81548160ff02191690836002811115610786576107856119ce565b5b021790555050565b60045481565b600760019054906101000a900460ff1681565b6003808111156107ba576107b96119ce565b5b600660003373ffffffffffffffffffffffffffffffffffffffff1673ffffffffffffffffffffffffffffffffffffffff16815260200190815260200160002060000160009054906101000a900460ff16600381111561081c5761081b6119ce565b5b1480610878575060011515600860003373ffffffffffffffffffffffffffffffffffffffff1673ffffffffffffffffffffffffffffffffffffffff16815260200190815260200160002060009054906101000a900460ff161515145b6108b7576040517f08c379a00000000000000000000000000000000000000000000000000000000081526004016108ae90611ffa565b60405180910390fd5b6001600660008373ffffffffffffffffffffffffffffffffffffffff1673ffffffffffffffffffffffffffffffffffffffff16815260200190815260200160002060000160006101000a81548160ff0219169083600381111561091d5761091c6119ce565b5b02179055508060056000600454815260200190815260200160002060006101000a81548173ffffffffffffffffffffffffffffffffffffffff021916908373ffffffffffffffffffffffffffffffffffffffff16021790555060046000815461098590612049565b919050819055507f6c246c8894ac239253d22cd508dbe8eb7e027e0589cdd4ff16dbb4238ccd983433826040516109bd929190612092565b60405180910390a150565b60006003808111156109dd576109dc6119ce565b5b600660008473ffffffffffffffffffffffffffffffffffffffff1673ffffffffffffffffffffffffffffffffffffffff16815260200190815260200160002060000160009054906101000a900460ff166003811115610a3f57610a3e6119ce565b5b149050919050565b610a4f611780565b600660008373ffffffffffffffffffffffffffffffffffffffff1673ffffffffffffffffffffffffffffffffffffffff1681526020019081526020016000206040518060200160405290816000820160009054906101000a900460ff166003811115610abe57610abd6119ce565b5b6003811115610ad057610acf6119ce565b5b815250509050919050565b610ae36117a5565b6040518060400160405280601681526020017f44414f2c20496e76697465206f722052657175657374000000000000000000008152508160000181905250600760019054906101000a900460ff1681602001906001811115610b4857610b476119ce565b5b90816001811115610b5c57610b5b6119ce565b5b8152505090565b60011515600860003373ffffffffffffffffffffffffffffffffffffffff1673ffffffffffffffffffffffffffffffffffffffff16815260200190815260200160002060009054906101000a900460ff1615151480610bf45750610bc5610dc8565b73ffffffffffffffffffffffffffffffffffffffff163373ffffffffffffffffffffffffffffffffffffffff16145b610c33576040517f08c379a0000000000000000000000000000000000000000000000000000000008152600401610c2a90611ffa565b60405180910390fd5b6001600860008373ffffffffffffffffffffffffffffffffffffffff1673ffffffffffffffffffffffffffffffffffffffff16815260200190815260200160002060006101000a81548160ff02191690831515021790555050565b610c966116b4565b73ffffffffffffffffffffffffffffffffffffffff16610cb4610dc8565b73ffffffffffffffffffffffffffffffffffffffff1614610d0a576040517f08c379a0000000000000000000000000000000000000000000000000000000008152600401610d0190611f8e565b60405180910390fd5b610d1460006116bc565b565b60038054610d2390611f10565b80601f0160208091040260200160405190810160405280929190818152602001828054610d4f90611f10565b8015610d9c5780601f10610d7157610100808354040283529160200191610d9c565b820191906000526020600020905b815481529060010190602001808311610d7f57829003601f168201915b505050505081565b60018181548110610db457600080fd5b906000526020600020016000915090505481565b60008060009054906101000a900473ffffffffffffffffffffffffffffffffffffffff16905090565b610df96116b4565b73ffffffffffffffffffffffffffffffffffffffff16610e17610dc8565b73ffffffffffffffffffffffffffffffffffffffff1614610e6d576040517f08c379a0000000000000000000000000000000000000000000000000000000008152600401610e6490611f8e565b60405180910390fd5b8060039080519060200190610e839291906117d1565b5050565b600380811115610e9a57610e996119ce565b5b600660003373ffffffffffffffffffffffffffffffffffffffff1673ffffffffffffffffffffffffffffffffffffffff16815260200190815260200160002060000160009054906101000a900460ff166003811115610efc57610efb6119ce565b5b1415610f3d576040517f08c379a0000000000000000000000000000000000000000000000000000000008152600401610f3490611ffa565b60405180910390fd5b60016003811115610f5157610f506119ce565b5b600660003373ffffffffffffffffffffffffffffffffffffffff1673ffffffffffffffffffffffffffffffffffffffff16815260200190815260200160002060000160009054906101000a900460ff166003811115610fb357610fb26119ce565b5b148015610ff3575060006002811115610fcf57610fce6119ce565b5b600760009054906101000a900460ff166002811115610ff157610ff06119ce565b5b145b806110af57506000600381111561100d5761100c6119ce565b5b600660003373ffffffffffffffffffffffffffffffffffffffff1673ffffffffffffffffffffffffffffffffffffffff16815260200190815260200160002060000160009054906101000a900460ff16600381111561106f5761106e6119ce565b5b1480156110ae575060028081111561108a576110896119ce565b5b600760009054906101000a900460ff1660028111156110ac576110ab6119ce565b5b145b5b6110ee576040517f08c379a00000000000000000000000000000000000000000000000000000000081526004016110e590612107565b60405180910390fd5b6003600660003373ffffffffffffffffffffffffffffffffffffffff1673ffffffffffffffffffffffffffffffffffffffff16815260200190815260200160002060000160006101000a81548160ff02191690836003811115611154576111536119ce565b5b02179055507f0abf3b3f643594d958297062a019458e27d7766629590ac621aa1000fa1298ab336040516111889190611d48565b60405180910390a1565b60011515600860003373ffffffffffffffffffffffffffffffffffffffff1673ffffffffffffffffffffffffffffffffffffffff16815260200190815260200160002060009054906101000a900460ff161515148061122357506111f4610dc8565b73ffffffffffffffffffffffffffffffffffffffff163373ffffffffffffffffffffffffffffffffffffffff16145b611262576040517f08c379a000000000000000000000000000000000000000000000000000000000815260040161125990611ffa565b60405180910390fd5b6000600860008373ffffffffffffffffffffffffffffffffffffffff1673ffffffffffffffffffffffffffffffffffffffff16815260200190815260200160002060006101000a81548160ff02191690831515021790555050565b6000600760009054906101000a900460ff16905090565b6112dc6116b4565b73ffffffffffffffffffffffffffffffffffffffff166112fa610dc8565b73ffffffffffffffffffffffffffffffffffffffff1614611350576040517f08c379a000000000000000000000000000000000000000000000000000000000815260040161134790611f8e565b60405180910390fd5b80600290805190602001906113669291906117d1565b5050565b60038081111561137d5761137c6119ce565b5b600660003373ffffffffffffffffffffffffffffffffffffffff1673ffffffffffffffffffffffffffffffffffffffff16815260200190815260200160002060000160009054906101000a900460ff1660038111156113df576113de6119ce565b5b148061143b575060011515600860003373ffffffffffffffffffffffffffffffffffffffff1673ffffffffffffffffffffffffffffffffffffffff16815260200190815260200160002060009054906101000a900460ff161515145b61147a576040517f08c379a000000000000000000000000000000000000000000000000000000000815260040161147190611ffa565b60405180910390fd5b6003600660008373ffffffffffffffffffffffffffffffffffffffff1673ffffffffffffffffffffffffffffffffffffffff16815260200190815260200160002060000160006101000a81548160ff021916908360038111156114e0576114df6119ce565b5b02179055508060056000600454815260200190815260200160002060006101000a81548173ffffffffffffffffffffffffffffffffffffffff021916908373ffffffffffffffffffffffffffffffffffffffff16021790555060046000815461154890612049565b919050819055507fb251eb052afc73ffd02ffe85ad79990a8b3fed60d76dbc2fa2fdd7123dffd9148160405161157e9190611d48565b60405180910390a150565b60056020528060005260406000206000915054906101000a900473ffffffffffffffffffffffffffffffffffffffff1681565b6115c46116b4565b73ffffffffffffffffffffffffffffffffffffffff166115e2610dc8565b73ffffffffffffffffffffffffffffffffffffffff1614611638576040517f08c379a000000000000000000000000000000000000000000000000000000000815260040161162f90611f8e565b60405180910390fd5b600073ffffffffffffffffffffffffffffffffffffffff168173ffffffffffffffffffffffffffffffffffffffff1614156116a8576040517f08c379a000000000000000000000000000000000000000000000000000000000815260040161169f90612199565b60405180910390fd5b6116b1816116bc565b50565b600033905090565b60008060009054906101000a900473ffffffffffffffffffffffffffffffffffffffff169050816000806101000a81548173ffffffffffffffffffffffffffffffffffffffff021916908373ffffffffffffffffffffffffffffffffffffffff1602179055508173ffffffffffffffffffffffffffffffffffffffff168173ffffffffffffffffffffffffffffffffffffffff167f8be0079c531659141344cd1fd0a4f28419497f9722a3daafe3b4186f6b6457e060405160405180910390a35050565b60405180602001604052806000600381111561179f5761179e6119ce565b5b81525090565b604051806040016040528060608152602001600060018111156117cb576117ca6119ce565b5b81525090565b8280546117dd90611f10565b90600052602060002090601f0160209004810192826117ff5760008555611846565b82601f1061181857805160ff1916838001178555611846565b82800160010185558215611846579182015b8281111561184557825182559160200191906001019061182a565b5b5090506118539190611857565b5090565b5b80821115611870576000816000905550600101611858565b5090565b600081519050919050565b600082825260208201905092915050565b60005b838110156118ae578082015181840152602081019050611893565b838111156118bd576000848401525b50505050565b6000601f19601f8301169050919050565b60006118df82611874565b6118e9818561187f565b93506118f9818560208601611890565b611902816118c3565b840191505092915050565b6000602082019050818103600083015261192781846118d4565b905092915050565b6000604051905090565b600080fd5b600080fd5b600073ffffffffffffffffffffffffffffffffffffffff82169050919050565b600061196e82611943565b9050919050565b61197e81611963565b811461198957600080fd5b50565b60008135905061199b81611975565b92915050565b6000602082840312156119b7576119b6611939565b5b60006119c58482850161198c565b91505092915050565b7f4e487b7100000000000000000000000000000000000000000000000000000000600052602160045260246000fd5b60048110611a0e57611a0d6119ce565b5b50565b6000819050611a1f826119fd565b919050565b6000611a2f82611a11565b9050919050565b611a3f81611a24565b82525050565b6000602082019050611a5a6000830184611a36565b92915050565b60028110611a7157611a706119ce565b5b50565b6000819050611a8282611a60565b919050565b6000611a9282611a74565b9050919050565b611aa281611a87565b82525050565b6000602082019050611abd6000830184611a99565b92915050565b60038110611ad457611ad36119ce565b5b50565b6000819050611ae582611ac3565b919050565b6000611af582611ad7565b9050919050565b611b0581611aea565b82525050565b6000602082019050611b206000830184611afc565b92915050565b60038110611b3357600080fd5b50565b600081359050611b4581611b26565b92915050565b600060208284031215611b6157611b60611939565b5b6000611b6f84828501611b36565b91505092915050565b6000819050919050565b611b8b81611b78565b82525050565b6000602082019050611ba66000830184611b82565b92915050565b60008115159050919050565b611bc181611bac565b82525050565b6000602082019050611bdc6000830184611bb8565b92915050565b611beb81611a24565b82525050565b602082016000820151611c076000850182611be2565b50505050565b6000602082019050611c226000830184611bf1565b92915050565b600082825260208201905092915050565b6000611c4482611874565b611c4e8185611c28565b9350611c5e818560208601611890565b611c67816118c3565b840191505092915050565b611c7b81611a87565b82525050565b60006040830160008301518482036000860152611c9e8282611c39565b9150506020830151611cb36020860182611c72565b508091505092915050565b60006020820190508181036000830152611cd88184611c81565b905092915050565b611ce981611b78565b8114611cf457600080fd5b50565b600081359050611d0681611ce0565b92915050565b600060208284031215611d2257611d21611939565b5b6000611d3084828501611cf7565b91505092915050565b611d4281611963565b82525050565b6000602082019050611d5d6000830184611d39565b92915050565b600080fd5b600080fd5b7f4e487b7100000000000000000000000000000000000000000000000000000000600052604160045260246000fd5b611da5826118c3565b810181811067ffffffffffffffff82111715611dc457611dc3611d6d565b5b80604052505050565b6000611dd761192f565b9050611de38282611d9c565b919050565b600067ffffffffffffffff821115611e0357611e02611d6d565b5b611e0c826118c3565b9050602081019050919050565b82818337600083830152505050565b6000611e3b611e3684611de8565b611dcd565b905082815260208101848484011115611e5757611e56611d68565b5b611e62848285611e19565b509392505050565b600082601f830112611e7f57611e7e611d63565b5b8135611e8f848260208601611e28565b91505092915050565b600060208284031215611eae57611ead611939565b5b600082013567ffffffffffffffff811115611ecc57611ecb61193e565b5b611ed884828501611e6a565b91505092915050565b7f4e487b7100000000000000000000000000000000000000000000000000000000600052602260045260246000fd5b60006002820490506001821680611f2857607f821691505b60208210811415611f3c57611f3b611ee1565b5b50919050565b7f4f776e61626c653a2063616c6c6572206973206e6f7420746865206f776e6572600082015250565b6000611f7860208361187f565b9150611f8382611f42565b602082019050919050565b60006020820190508181036000830152611fa781611f6b565b9050919050565b7f4e6f7420617574686f72697a6564000000000000000000000000000000000000600082015250565b6000611fe4600e8361187f565b9150611fef82611fae565b602082019050919050565b6000602082019050818103600083015261201381611fd7565b9050919050565b7f4e487b7100000000000000000000000000000000000000000000000000000000600052601160045260246000fd5b600061205482611b78565b91507fffffffffffffffffffffffffffffffffffffffffffffffffffffffffffffffff8214156120875761208661201a565b5b600182019050919050565b60006040820190506120a76000830185611d39565b6120b46020830184611d39565b9392505050565b7f496d706f737369626c6520746f206a6f696e0000000000000000000000000000600082015250565b60006120f160128361187f565b91506120fc826120bb565b602082019050919050565b60006020820190508181036000830152612120816120e4565b9050919050565b7f4f776e61626c653a206e6577206f776e657220697320746865207a65726f206160008201527f6464726573730000000000000000000000000000000000000000000000000000602082015250565b600061218360268361187f565b915061218e82612127565b604082019050919050565b600060208201905081810360008301526121b281612176565b905091905056fea26469706673582212202d643794793c72d977ab85a4a6c16d95bc22f1bdec6bc5b0acf044455aa3ccb864736f6c63430008090033a2646970667358221220f75a91701daea4bf63d840f3c0e9f09fae7ca5dd774764019deec7c86168a31f64736f6c63430008090033",
  "immutableReferences": {},
  "source": "// SPDX-License-Identifier: MIT\r\npragma solidity ^0.8.9;\r\n\r\nimport \"../node_modules/@openzeppelin/contracts/utils/math/SafeMath.sol\";\r\nimport \"../node_modules/@openzeppelin/contracts/access/Ownable.sol\";\r\n\r\nimport './interfaces/IDaosFactory.sol';\r\nimport './Daos/Dao.sol';\r\n\r\n//is DaosFactory\r\ncontract DaosFactory is Ownable {\r\n  using SafeMath for uint256;\r\n  uint256 private daoId;\r\n\r\n  //user > daos\r\n  mapping(address => address[]) public membershipDaos;\r\n\r\n  deployedDao[] public daos;\r\n\r\n  struct deployedDao {\r\n    address owner;\r\n    address daoAddress;\r\n  }\r\n\r\n  event DaoCreated(address user, string name, address daoAddress);\r\n\r\n  function getdeployedDaos() external view returns (deployedDao[] memory) {\r\n    return daos;\r\n  }\r\n\r\n   function getDaosAddressByMember(address _addressMember) external view returns (address[] memory) {\r\n    return (membershipDaos[_addressMember]);\r\n  }\r\n\r\n  function createDAO(string calldata _name, bool _byInvitation, string calldata _description, bool isPrivate) public {\r\n    Dao dao = new Dao(_name, _byInvitation, _description, isPrivate);\r\n    dao.authorizeContract(address(this));\r\n    dao.addMember(msg.sender);\r\n    deployedDao memory _dao;\r\n    _dao.owner = msg.sender;\r\n    _dao.daoAddress = address(dao);\r\n    daos.push(_dao);\r\n    membershipDaos[msg.sender].push(_dao.daoAddress);  \r\n    dao.transferOwnership(msg.sender);\r\n    emit DaoCreated(msg.sender, _name, _dao.daoAddress);\r\n  }\r\n}",
  "sourcePath": "C:\\Users\\mdmou\\source\\repos\\MY-DAO\\contracts\\DaosFactory.sol",
  "compiler": {
    "name": "solc",
    "version": "0.8.9+commit.e5eed63a.Emscripten.clang"
  },
  "schemaVersion": "3.4.4",
  "updatedAt": "2022-05-06T18:48:29.667Z",
  "networkType": "ethereum",
  "devdoc": {
    "kind": "dev",
    "methods": {
      "owner()": {
        "details": "Returns the address of the current owner."
      },
      "renounceOwnership()": {
        "details": "Leaves the contract without owner. It will not be possible to call `onlyOwner` functions anymore. Can only be called by the current owner. NOTE: Renouncing ownership will leave the contract without an owner, thereby removing any functionality that is only available to the owner."
      },
      "transferOwnership(address)": {
        "details": "Transfers ownership of the contract to a new account (`newOwner`). Can only be called by the current owner."
      }
    },
    "version": 1
  },
  "userdoc": {
    "kind": "user",
    "methods": {},
    "version": 1
  }
}