{
  "contractName": "DaosFactory",
  "abi": [
    {
      "anonymous": false,
      "inputs": [
        {
          "indexed": false,
          "internalType": "address",
          "name": "user",
          "type": "address"
        },
        {
          "indexed": false,
          "internalType": "string",
          "name": "name",
          "type": "string"
        },
        {
          "indexed": false,
          "internalType": "address",
          "name": "daoAddress",
          "type": "address"
        }
      ],
      "name": "DaoCreated",
      "type": "event"
    },
    {
      "anonymous": false,
      "inputs": [
        {
          "indexed": false,
          "internalType": "address",
          "name": "user",
          "type": "address"
        },
        {
          "indexed": false,
          "internalType": "string",
          "name": "name",
          "type": "string"
        },
        {
          "indexed": false,
          "internalType": "address",
          "name": "daoAddress",
          "type": "address"
        }
      ],
      "name": "ModuleActivated",
      "type": "event"
    },
    {
      "anonymous": false,
      "inputs": [
        {
          "indexed": true,
          "internalType": "address",
          "name": "previousOwner",
          "type": "address"
        },
        {
          "indexed": true,
          "internalType": "address",
          "name": "newOwner",
          "type": "address"
        }
      ],
      "name": "OwnershipTransferred",
      "type": "event"
    },
    {
      "inputs": [
        {
          "internalType": "uint256",
          "name": "",
          "type": "uint256"
        }
      ],
      "name": "daos",
      "outputs": [
        {
          "internalType": "address",
          "name": "owner",
          "type": "address"
        },
        {
          "internalType": "address",
          "name": "daoAddress",
          "type": "address"
        }
      ],
      "stateMutability": "view",
      "type": "function",
      "constant": true
    },
    {
      "inputs": [],
      "name": "owner",
      "outputs": [
        {
          "internalType": "address",
          "name": "",
          "type": "address"
        }
      ],
      "stateMutability": "view",
      "type": "function",
      "constant": true
    },
    {
      "inputs": [],
      "name": "renounceOwnership",
      "outputs": [],
      "stateMutability": "nonpayable",
      "type": "function"
    },
    {
      "inputs": [
        {
          "internalType": "address",
          "name": "newOwner",
          "type": "address"
        }
      ],
      "name": "transferOwnership",
      "outputs": [],
      "stateMutability": "nonpayable",
      "type": "function"
    },
    {
      "inputs": [],
      "name": "getdeployedDaos",
      "outputs": [
        {
          "components": [
            {
              "internalType": "address",
              "name": "owner",
              "type": "address"
            },
            {
              "internalType": "address",
              "name": "daoAddress",
              "type": "address"
            }
          ],
          "internalType": "struct DaosFactory.deployedDao[]",
          "name": "",
          "type": "tuple[]"
        }
      ],
      "stateMutability": "view",
      "type": "function",
      "constant": true
    },
    {
      "inputs": [
        {
          "internalType": "address",
          "name": "_daoAddress",
          "type": "address"
        },
        {
          "internalType": "bytes8",
          "name": "_type",
          "type": "bytes8"
        },
        {
          "internalType": "bytes8",
          "name": "_code",
          "type": "bytes8"
        }
      ],
      "name": "activateModuleForDao",
      "outputs": [
        {
          "internalType": "address",
          "name": "",
          "type": "address"
        }
      ],
      "stateMutability": "nonpayable",
      "type": "function"
    },
    {
      "inputs": [
        {
          "internalType": "address",
          "name": "_moduleAddress",
          "type": "address"
        },
        {
          "internalType": "bytes8",
          "name": "_type",
          "type": "bytes8"
        },
        {
          "internalType": "bytes8",
          "name": "_code",
          "type": "bytes8"
        }
      ],
      "name": "addModule",
      "outputs": [],
      "stateMutability": "nonpayable",
      "type": "function"
    },
    {
      "inputs": [
        {
          "internalType": "string",
          "name": "_name",
          "type": "string"
        },
        {
          "internalType": "string",
          "name": "_description",
          "type": "string"
        },
        {
          "internalType": "enum Data.visibilityEnum",
          "name": "_visibility",
          "type": "uint8"
        },
        {
          "components": [
            {
              "internalType": "bytes8",
              "name": "moduleType",
              "type": "bytes8"
            },
            {
              "internalType": "bytes8",
              "name": "moduleCode",
              "type": "bytes8"
            }
          ],
          "internalType": "struct Data.ModuleToActivate[]",
          "name": "_modules",
          "type": "tuple[]"
        }
      ],
      "name": "createDAO",
      "outputs": [],
      "stateMutability": "nonpayable",
      "type": "function"
    },
    {
      "inputs": [
        {
          "internalType": "string",
          "name": "_name",
          "type": "string"
        }
      ],
      "name": "hash",
      "outputs": [
        {
          "internalType": "bytes8",
          "name": "",
          "type": "bytes8"
        }
      ],
      "stateMutability": "pure",
      "type": "function",
      "constant": true
    }
  ],
  "bytecode": "0x608060405234801561001057600080fd5b5061003f61002b610044640100000000026401000000009004565b61004c640100000000026401000000009004565b610110565b600033905090565b60008060009054906101000a900473ffffffffffffffffffffffffffffffffffffffff169050816000806101000a81548173ffffffffffffffffffffffffffffffffffffffff021916908373ffffffffffffffffffffffffffffffffffffffff1602179055508173ffffffffffffffffffffffffffffffffffffffff168173ffffffffffffffffffffffffffffffffffffffff167f8be0079c531659141344cd1fd0a4f28419497f9722a3daafe3b4186f6b6457e060405160405180910390a35050565b61432880620001206000396000f3fe60806040523480156200001157600080fd5b5060043610620000bd576000357c0100000000000000000000000000000000000000000000000000000000900480639f4eb5f1116200008c5780639f4eb5f11462000148578063b411ee941462000168578063ccbbd260146200019e578063f2fde38b14620001d5578063fa7eb63514620001f557620000bd565b80633477912714620000c2578063715018a614620000f85780638da5cb5b14620001045780639e9926121462000126575b600080fd5b620000e06004803603810190620000da919062001569565b62000215565b604051620000ef9190620015d6565b60405180910390f35b620001026200070b565b005b6200010e6200079c565b6040516200011d9190620015d6565b60405180910390f35b62000130620007c5565b6040516200013f9190620016f4565b60405180910390f35b62000166600480360381019062000160919062001569565b620008d2565b005b6200018660048036038101906200018091906200187a565b62000c70565b604051620001959190620018dc565b60405180910390f35b620001bc6004803603810190620001b6919062001934565b62000ca2565b604051620001cc92919062001966565b60405180910390f35b620001f36004803603810190620001ed919062001993565b62000d17565b005b6200021360048036038101906200020d919062001b8a565b62000e1b565b005b600083600360008273ffffffffffffffffffffffffffffffffffffffff1673ffffffffffffffffffffffffffffffffffffffff16815260200190815260200160002060003373ffffffffffffffffffffffffffffffffffffffff1673ffffffffffffffffffffffffffffffffffffffff16815260200190815260200160002060009054906101000a900460ff16620002e4576040517f08c379a0000000000000000000000000000000000000000000000000000000008152600401620002db9062001cc2565b60405180910390fd5b60011515600460008677ffffffffffffffffffffffffffffffffffffffffffffffff191677ffffffffffffffffffffffffffffffffffffffffffffffff1916815260200190815260200160002060008577ffffffffffffffffffffffffffffffffffffffffffffffff191677ffffffffffffffffffffffffffffffffffffffffffffffff1916815260200190815260200160002060010160149054906101000a900460ff16151514620003ce576040517f08c379a0000000000000000000000000000000000000000000000000000000008152600401620003c59062001d34565b60405180910390fd5b600460008577ffffffffffffffffffffffffffffffffffffffffffffffff191677ffffffffffffffffffffffffffffffffffffffffffffffff1916815260200190815260200160002060008477ffffffffffffffffffffffffffffffffffffffffffffffff191677ffffffffffffffffffffffffffffffffffffffffffffffff1916815260200190815260200160002060010160009054906101000a900473ffffffffffffffffffffffffffffffffffffffff1673ffffffffffffffffffffffffffffffffffffffff166312ee7e4186336040518363ffffffff167c0100000000000000000000000000000000000000000000000000000000028152600401620004da92919062001966565b600060405180830381600087803b158015620004f557600080fd5b505af11580156200050a573d6000803e3d6000fd5b505050508473ffffffffffffffffffffffffffffffffffffffff166286823985600460008877ffffffffffffffffffffffffffffffffffffffffffffffff191677ffffffffffffffffffffffffffffffffffffffffffffffff1916815260200190815260200160002060008777ffffffffffffffffffffffffffffffffffffffffffffffff191677ffffffffffffffffffffffffffffffffffffffffffffffff1916815260200190815260200160002060010160009054906101000a900473ffffffffffffffffffffffffffffffffffffffff166040518363ffffffff167c01000000000000000000000000000000000000000000000000000000000281526004016200061992919062001d56565b600060405180830381600087803b1580156200063457600080fd5b505af115801562000649573d6000803e3d6000fd5b50505050600460008577ffffffffffffffffffffffffffffffffffffffffffffffff191677ffffffffffffffffffffffffffffffffffffffffffffffff1916815260200190815260200160002060008477ffffffffffffffffffffffffffffffffffffffffffffffff191677ffffffffffffffffffffffffffffffffffffffffffffffff1916815260200190815260200160002060010160009054906101000a900473ffffffffffffffffffffffffffffffffffffffff169150509392505050565b6200071562001373565b73ffffffffffffffffffffffffffffffffffffffff16620007356200079c565b73ffffffffffffffffffffffffffffffffffffffff16146200078e576040517f08c379a0000000000000000000000000000000000000000000000000000000008152600401620007859062001dd3565b60405180910390fd5b6200079a60006200137b565b565b60008060009054906101000a900473ffffffffffffffffffffffffffffffffffffffff16905090565b60606002805480602002602001604051908101604052809291908181526020016000905b82821015620008c957838290600052602060002090600202016040518060400160405290816000820160009054906101000a900473ffffffffffffffffffffffffffffffffffffffff1673ffffffffffffffffffffffffffffffffffffffff1673ffffffffffffffffffffffffffffffffffffffff1681526020016001820160009054906101000a900473ffffffffffffffffffffffffffffffffffffffff1673ffffffffffffffffffffffffffffffffffffffff1673ffffffffffffffffffffffffffffffffffffffff168152505081526020019060010190620007e9565b50505050905090565b620008dc62001373565b73ffffffffffffffffffffffffffffffffffffffff16620008fc6200079c565b73ffffffffffffffffffffffffffffffffffffffff161462000955576040517f08c379a00000000000000000000000000000000000000000000000000000000081526004016200094c9062001dd3565b60405180910390fd5b6001600460008477ffffffffffffffffffffffffffffffffffffffffffffffff191677ffffffffffffffffffffffffffffffffffffffffffffffff1916815260200190815260200160002060008377ffffffffffffffffffffffffffffffffffffffffffffffff191677ffffffffffffffffffffffffffffffffffffffffffffffff1916815260200190815260200160002060010160146101000a81548160ff02191690831515021790555081600460008477ffffffffffffffffffffffffffffffffffffffffffffffff191677ffffffffffffffffffffffffffffffffffffffffffffffff1916815260200190815260200160002060008377ffffffffffffffffffffffffffffffffffffffffffffffff191677ffffffffffffffffffffffffffffffffffffffffffffffff1916815260200190815260200160002060010160156101000a81548167ffffffffffffffff021916908378010000000000000000000000000000000000000000000000009004021790555080600460008477ffffffffffffffffffffffffffffffffffffffffffffffff191677ffffffffffffffffffffffffffffffffffffffffffffffff1916815260200190815260200160002060008377ffffffffffffffffffffffffffffffffffffffffffffffff191677ffffffffffffffffffffffffffffffffffffffffffffffff1916815260200190815260200160002060020160006101000a81548167ffffffffffffffff021916908378010000000000000000000000000000000000000000000000009004021790555082600460008477ffffffffffffffffffffffffffffffffffffffffffffffff191677ffffffffffffffffffffffffffffffffffffffffffffffff1916815260200190815260200160002060008377ffffffffffffffffffffffffffffffffffffffffffffffff191677ffffffffffffffffffffffffffffffffffffffffffffffff1916815260200190815260200160002060010160006101000a81548173ffffffffffffffffffffffffffffffffffffffff021916908373ffffffffffffffffffffffffffffffffffffffff160217905550505050565b60008160405160200162000c85919062001e77565b604051602081830303815290604052805190602001209050919050565b6002818154811062000cb357600080fd5b90600052602060002090600202016000915090508060000160009054906101000a900473ffffffffffffffffffffffffffffffffffffffff16908060010160009054906101000a900473ffffffffffffffffffffffffffffffffffffffff16905082565b62000d2162001373565b73ffffffffffffffffffffffffffffffffffffffff1662000d416200079c565b73ffffffffffffffffffffffffffffffffffffffff161462000d9a576040517f08c379a000000000000000000000000000000000000000000000000000000000815260040162000d919062001dd3565b60405180910390fd5b600073ffffffffffffffffffffffffffffffffffffffff168173ffffffffffffffffffffffffffffffffffffffff16141562000e0d576040517f08c379a000000000000000000000000000000000000000000000000000000000815260040162000e049062001f11565b60405180910390fd5b62000e18816200137b565b50565b600a81511062000e62576040517f08c379a000000000000000000000000000000000000000000000000000000000815260040162000e599062001f83565b60405180910390fd5b6000868686868660405162000e77906200143f565b62000e8795949392919062002058565b604051809103906000f08015801562000ea4573d6000803e3d6000fd5b5090508073ffffffffffffffffffffffffffffffffffffffff166367561d93306040518263ffffffff167c010000000000000000000000000000000000000000000000000000000002815260040162000efe9190620015d6565b600060405180830381600087803b15801562000f1957600080fd5b505af115801562000f2e573d6000803e3d6000fd5b5050505062000f3c6200144d565b33816000019073ffffffffffffffffffffffffffffffffffffffff16908173ffffffffffffffffffffffffffffffffffffffff168152505081816020019073ffffffffffffffffffffffffffffffffffffffff16908173ffffffffffffffffffffffffffffffffffffffff168152505060005b83518110156200114957600115156004600086848151811062000fd75762000fd6620020a7565b5b60200260200101516000015177ffffffffffffffffffffffffffffffffffffffffffffffff191677ffffffffffffffffffffffffffffffffffffffffffffffff1916815260200190815260200160002060008684815181106200103f576200103e620020a7565b5b60200260200101516020015177ffffffffffffffffffffffffffffffffffffffffffffffff191677ffffffffffffffffffffffffffffffffffffffffffffffff1916815260200190815260200160002060010160149054906101000a900460ff16151514620010e5576040517f08c379a0000000000000000000000000000000000000000000000000000000008152600401620010dc9062001d34565b60405180910390fd5b62001134838583815181106200110057620010ff620020a7565b5b602002602001015160000151868481518110620011225762001121620020a7565b5b60200260200101516020015162000215565b5080620011419062002105565b905062000faf565b506001600360008473ffffffffffffffffffffffffffffffffffffffff1673ffffffffffffffffffffffffffffffffffffffff16815260200190815260200160002060003373ffffffffffffffffffffffffffffffffffffffff1673ffffffffffffffffffffffffffffffffffffffff16815260200190815260200160002060006101000a81548160ff021916908315150217905550600281908060018154018082558091505060019003906000526020600020906002020160009091909190915060008201518160000160006101000a81548173ffffffffffffffffffffffffffffffffffffffff021916908373ffffffffffffffffffffffffffffffffffffffff16021790555060208201518160010160006101000a81548173ffffffffffffffffffffffffffffffffffffffff021916908373ffffffffffffffffffffffffffffffffffffffff16021790555050508173ffffffffffffffffffffffffffffffffffffffff1663f2fde38b336040518263ffffffff167c0100000000000000000000000000000000000000000000000000000000028152600401620012f29190620015d6565b600060405180830381600087803b1580156200130d57600080fd5b505af115801562001322573d6000803e3d6000fd5b505050507fb1eee3b28a9945db09f7a21d65593e3edb51ab7b10bb1f8e713a9a6afb7e347b338989846020015160405162001361949392919062002153565b60405180910390a15050505050505050565b600033905090565b60008060009054906101000a900473ffffffffffffffffffffffffffffffffffffffff169050816000806101000a81548173ffffffffffffffffffffffffffffffffffffffff021916908373ffffffffffffffffffffffffffffffffffffffff1602179055508173ffffffffffffffffffffffffffffffffffffffff168173ffffffffffffffffffffffffffffffffffffffff167f8be0079c531659141344cd1fd0a4f28419497f9722a3daafe3b4186f6b6457e060405160405180910390a35050565b612159806200219a83390190565b6040518060400160405280600073ffffffffffffffffffffffffffffffffffffffff168152602001600073ffffffffffffffffffffffffffffffffffffffff1681525090565b6000604051905090565b600080fd5b600080fd5b600073ffffffffffffffffffffffffffffffffffffffff82169050919050565b6000620014d482620014a7565b9050919050565b620014e681620014c7565b8114620014f257600080fd5b50565b6000813590506200150681620014db565b92915050565b60007fffffffffffffffff00000000000000000000000000000000000000000000000082169050919050565b62001543816200150c565b81146200154f57600080fd5b50565b600081359050620015638162001538565b92915050565b6000806000606084860312156200158557620015846200149d565b5b60006200159586828701620014f5565b9350506020620015a88682870162001552565b9250506040620015bb8682870162001552565b9150509250925092565b620015d081620014c7565b82525050565b6000602082019050620015ed6000830184620015c5565b92915050565b600081519050919050565b600082825260208201905092915050565b6000819050602082019050919050565b6200162a81620014c7565b82525050565b6040820160008201516200164860008501826200161f565b5060208201516200165d60208501826200161f565b50505050565b600062001671838362001630565b60408301905092915050565b6000602082019050919050565b60006200169782620015f3565b620016a38185620015fe565b9350620016b0836200160f565b8060005b83811015620016e7578151620016cb888262001663565b9750620016d8836200167d565b925050600181019050620016b4565b5085935050505092915050565b600060208201905081810360008301526200171081846200168a565b905092915050565b600080fd5b600080fd5b6000601f19601f8301169050919050565b7f4e487b7100000000000000000000000000000000000000000000000000000000600052604160045260246000fd5b6200176d8262001722565b810181811067ffffffffffffffff821117156200178f576200178e62001733565b5b80604052505050565b6000620017a462001493565b9050620017b2828262001762565b919050565b600067ffffffffffffffff821115620017d557620017d462001733565b5b620017e08262001722565b9050602081019050919050565b82818337600083830152505050565b6000620018136200180d84620017b7565b62001798565b9050828152602081018484840111156200183257620018316200171d565b5b6200183f848285620017ed565b509392505050565b600082601f8301126200185f576200185e62001718565b5b813562001871848260208601620017fc565b91505092915050565b6000602082840312156200189357620018926200149d565b5b600082013567ffffffffffffffff811115620018b457620018b3620014a2565b5b620018c28482850162001847565b91505092915050565b620018d6816200150c565b82525050565b6000602082019050620018f36000830184620018cb565b92915050565b6000819050919050565b6200190e81620018f9565b81146200191a57600080fd5b50565b6000813590506200192e8162001903565b92915050565b6000602082840312156200194d576200194c6200149d565b5b60006200195d848285016200191d565b91505092915050565b60006040820190506200197d6000830185620015c5565b6200198c6020830184620015c5565b9392505050565b600060208284031215620019ac57620019ab6200149d565b5b6000620019bc84828501620014f5565b91505092915050565b600080fd5b600080fd5b60008083601f840112620019e857620019e762001718565b5b8235905067ffffffffffffffff81111562001a085762001a07620019c5565b5b60208301915083600182028301111562001a275762001a26620019ca565b5b9250929050565b6002811062001a3c57600080fd5b50565b60008135905062001a508162001a2e565b92915050565b600067ffffffffffffffff82111562001a745762001a7362001733565b5b602082029050602081019050919050565b600080fd5b60006040828403121562001aa35762001aa262001a85565b5b62001aaf604062001798565b9050600062001ac18482850162001552565b600083015250602062001ad78482850162001552565b60208301525092915050565b600062001afa62001af48462001a56565b62001798565b9050808382526020820190506040840283018581111562001b205762001b1f620019ca565b5b835b8181101562001b4d578062001b38888262001a8a565b84526020840193505060408101905062001b22565b5050509392505050565b600082601f83011262001b6f5762001b6e62001718565b5b813562001b8184826020860162001ae3565b91505092915050565b6000806000806000806080878903121562001baa5762001ba96200149d565b5b600087013567ffffffffffffffff81111562001bcb5762001bca620014a2565b5b62001bd989828a01620019cf565b9650965050602087013567ffffffffffffffff81111562001bff5762001bfe620014a2565b5b62001c0d89828a01620019cf565b9450945050604062001c2289828a0162001a3f565b925050606087013567ffffffffffffffff81111562001c465762001c45620014a2565b5b62001c5489828a0162001b57565b9150509295509295509295565b600082825260208201905092915050565b7f496e76616c696420557365720000000000000000000000000000000000000000600082015250565b600062001caa600c8362001c61565b915062001cb78262001c72565b602082019050919050565b6000602082019050818103600083015262001cdd8162001c9b565b9050919050565b7f4d6f64756c65206e6f7420666f756e6400000000000000000000000000000000600082015250565b600062001d1c60108362001c61565b915062001d298262001ce4565b602082019050919050565b6000602082019050818103600083015262001d4f8162001d0d565b9050919050565b600060408201905062001d6d6000830185620018cb565b62001d7c6020830184620015c5565b9392505050565b7f4f776e61626c653a2063616c6c6572206973206e6f7420746865206f776e6572600082015250565b600062001dbb60208362001c61565b915062001dc88262001d83565b602082019050919050565b6000602082019050818103600083015262001dee8162001dac565b9050919050565b600081519050919050565b60005b8381101562001e2057808201518184015260208101905062001e03565b8381111562001e30576000848401525b50505050565b600062001e438262001df5565b62001e4f818562001c61565b935062001e6181856020860162001e00565b62001e6c8162001722565b840191505092915050565b6000602082019050818103600083015262001e93818462001e36565b905092915050565b7f4f776e61626c653a206e6577206f776e657220697320746865207a65726f206160008201527f6464726573730000000000000000000000000000000000000000000000000000602082015250565b600062001ef960268362001c61565b915062001f068262001e9b565b604082019050919050565b6000602082019050818103600083015262001f2c8162001eea565b9050919050565b7f4d6f64756c6573206d757374206265206c657373207468616e2031302e000000600082015250565b600062001f6b601d8362001c61565b915062001f788262001f33565b602082019050919050565b6000602082019050818103600083015262001f9e8162001f5c565b9050919050565b600062001fb3838562001c61565b935062001fc2838584620017ed565b62001fcd8362001722565b840190509392505050565b7f4e487b7100000000000000000000000000000000000000000000000000000000600052602160045260246000fd5b600281106200201b576200201a62001fd8565b5b50565b60008190506200202e8262002007565b919050565b600062002040826200201e565b9050919050565b620020528162002033565b82525050565b600060608201905081810360008301526200207581878962001fa5565b905081810360208301526200208c81858762001fa5565b90506200209d604083018462002047565b9695505050505050565b7f4e487b7100000000000000000000000000000000000000000000000000000000600052603260045260246000fd5b7f4e487b7100000000000000000000000000000000000000000000000000000000600052601160045260246000fd5b60006200211282620018f9565b91507fffffffffffffffffffffffffffffffffffffffffffffffffffffffffffffffff821415620021485762002147620020d6565b5b600182019050919050565b60006060820190506200216a6000830187620015c5565b81810360208301526200217f81858762001fa5565b9050620021906040830184620015c5565b9594505050505056fe60806040523480156200001157600080fd5b50604051620021593803806200215983398181016040528101906200003791906200046a565b620000696200005462000129640100000000026401000000009004565b62000131640100000000026401000000009004565b826001908051906020019062000081929190620001f5565b5081600290805190602001906200009a929190620001f5565b5080600360006101000a81548160ff02191690836001811115620000c357620000c262000504565b5b02179055506001600660003373ffffffffffffffffffffffffffffffffffffffff1673ffffffffffffffffffffffffffffffffffffffff16815260200190815260200160002060006101000a81548160ff02191690831515021790555050505062000598565b600033905090565b60008060009054906101000a900473ffffffffffffffffffffffffffffffffffffffff169050816000806101000a81548173ffffffffffffffffffffffffffffffffffffffff021916908373ffffffffffffffffffffffffffffffffffffffff1602179055508173ffffffffffffffffffffffffffffffffffffffff168173ffffffffffffffffffffffffffffffffffffffff167f8be0079c531659141344cd1fd0a4f28419497f9722a3daafe3b4186f6b6457e060405160405180910390a35050565b828054620002039062000562565b90600052602060002090601f01602090048101928262000227576000855562000273565b82601f106200024257805160ff191683800117855562000273565b8280016001018555821562000273579182015b828111156200027257825182559160200191906001019062000255565b5b50905062000282919062000286565b5090565b5b80821115620002a157600081600090555060010162000287565b5090565b6000604051905090565b600080fd5b600080fd5b600080fd5b600080fd5b6000601f19601f8301169050919050565b7f4e487b7100000000000000000000000000000000000000000000000000000000600052604160045260246000fd5b6200030e82620002c3565b810181811067ffffffffffffffff8211171562000330576200032f620002d4565b5b80604052505050565b600062000345620002a5565b905062000353828262000303565b919050565b600067ffffffffffffffff821115620003765762000375620002d4565b5b6200038182620002c3565b9050602081019050919050565b60005b83811015620003ae57808201518184015260208101905062000391565b83811115620003be576000848401525b50505050565b6000620003db620003d58462000358565b62000339565b905082815260208101848484011115620003fa57620003f9620002be565b5b620004078482856200038e565b509392505050565b600082601f830112620004275762000426620002b9565b5b815162000439848260208601620003c4565b91505092915050565b600281106200045057600080fd5b50565b600081519050620004648162000442565b92915050565b600080600060608486031215620004865762000485620002af565b5b600084015167ffffffffffffffff811115620004a757620004a6620002b4565b5b620004b5868287016200040f565b935050602084015167ffffffffffffffff811115620004d957620004d8620002b4565b5b620004e7868287016200040f565b9250506040620004fa8682870162000453565b9150509250925092565b7f4e487b7100000000000000000000000000000000000000000000000000000000600052602160045260246000fd5b7f4e487b7100000000000000000000000000000000000000000000000000000000600052602260045260246000fd5b600060028204905060018216806200057b57607f821691505b6020821081141562000592576200059162000533565b5b50919050565b611bb180620005a86000396000f3fe608060405234801561001057600080fd5b5060043610610111576000357c0100000000000000000000000000000000000000000000000000000000900480637284e416116100b4578063d8d8e93c11610083578063d8d8e93c1461026f578063ee760f381461029f578063f2fde38b146102cf578063f315aafe146102eb57610111565b80637284e416146101e75780638da5cb5b14610205578063b411ee9414610223578063b7e2077e1461025357610111565b806336e70eaa116100f057806336e70eaa1461016e57806352450cf91461018c57806367561d93146101c1578063715018a6146101dd57610111565b80628682391461011657806306fdde031461013257806329adec1414610150575b600080fd5b610130600480360381019061012b9190611237565b610309565b005b61013a610540565b6040516101479190611310565b60405180910390f35b6101586105ce565b60405161016591906113a9565b60405180910390f35b6101766105e1565b6040516101839190611496565b60405180910390f35b6101a660048036038101906101a191906114b8565b61075d565b6040516101b896959493929190611537565b60405180910390f35b6101db60048036038101906101d6919061159f565b610898565b005b6101e56109c3565b005b6101ef610a4b565b6040516101fc9190611310565b60405180910390f35b61020d610ad9565b60405161021a91906115cc565b60405180910390f35b61023d6004803603810190610238919061171c565b610b02565b60405161024a9190611765565b60405180910390f35b61026d6004803603810190610268919061159f565b610b32565b005b610289600480360381019061028491906114b8565b610c5d565b6040516102969190611836565b60405180910390f35b6102b960048036038101906102b49190611884565b610e97565b6040516102c69190611765565b60405180910390f35b6102e960048036038101906102e4919061159f565b610ecf565b005b6102f3610fc7565b60405161030091906118b1565b60405180910390f35b600660003373ffffffffffffffffffffffffffffffffffffffff1673ffffffffffffffffffffffffffffffffffffffff16815260200190815260200160002060009054906101000a900460ff16610395576040517f08c379a000000000000000000000000000000000000000000000000000000000815260040161038c90611918565b60405180910390fd5b6001600860008477ffffffffffffffffffffffffffffffffffffffffffffffff191677ffffffffffffffffffffffffffffffffffffffffffffffff1916815260200190815260200160002060010160146101000a81548160ff021916908315150217905550600454600860008477ffffffffffffffffffffffffffffffffffffffffffffffff191677ffffffffffffffffffffffffffffffffffffffffffffffff191681526020019081526020016000206000018190555080600860008477ffffffffffffffffffffffffffffffffffffffffffffffff191677ffffffffffffffffffffffffffffffffffffffffffffffff1916815260200190815260200160002060010160006101000a81548173ffffffffffffffffffffffffffffffffffffffff021916908373ffffffffffffffffffffffffffffffffffffffff1602179055508160076000600454815260200190815260200160002060006101000a81548167ffffffffffffffff021916908378010000000000000000000000000000000000000000000000009004021790555060046000815461053590611967565b919050819055505050565b6001805461054d906119df565b80601f0160208091040260200160405190810160405280929190818152602001828054610579906119df565b80156105c65780601f1061059b576101008083540402835291602001916105c6565b820191906000526020600020905b8154815290600101906020018083116105a957829003601f168201915b505050505081565b600360009054906101000a900460ff1681565b6105e9611099565b6105f1611099565b600180546105fe906119df565b80601f016020809104026020016040519081016040528092919081815260200182805461062a906119df565b80156106775780601f1061064c57610100808354040283529160200191610677565b820191906000526020600020905b81548152906001019060200180831161065a57829003601f168201915b5050505050816040018190525060028054610691906119df565b80601f01602080910402602001604051908101604052809291908181526020018280546106bd906119df565b801561070a5780601f106106df5761010080835404028352916020019161070a565b820191906000526020600020905b8154815290600101906020018083116106ed57829003601f168201915b50505050508160600181905250600360009054906101000a900460ff168160200190600181111561073e5761073d611332565b5b9081600181111561075257610751611332565b5b815250508091505090565b60086020528060005260406000206000915090508060000154908060010160009054906101000a900473ffffffffffffffffffffffffffffffffffffffff16908060010160149054906101000a900460ff16908060010160159054906101000a9004780100000000000000000000000000000000000000000000000002908060020160009054906101000a900478010000000000000000000000000000000000000000000000000290806003018054610815906119df565b80601f0160208091040260200160405190810160405280929190818152602001828054610841906119df565b801561088e5780601f106108635761010080835404028352916020019161088e565b820191906000526020600020905b81548152906001019060200180831161087157829003601f168201915b5050505050905086565b60011515600560003373ffffffffffffffffffffffffffffffffffffffff1673ffffffffffffffffffffffffffffffffffffffff16815260200190815260200160002060009054906101000a900460ff161515148061092957506108fa610ad9565b73ffffffffffffffffffffffffffffffffffffffff163373ffffffffffffffffffffffffffffffffffffffff16145b610968576040517f08c379a000000000000000000000000000000000000000000000000000000000815260040161095f90611a5d565b60405180910390fd5b6001600560008373ffffffffffffffffffffffffffffffffffffffff1673ffffffffffffffffffffffffffffffffffffffff16815260200190815260200160002060006101000a81548160ff02191690831515021790555050565b6109cb610fcd565b73ffffffffffffffffffffffffffffffffffffffff166109e9610ad9565b73ffffffffffffffffffffffffffffffffffffffff1614610a3f576040517f08c379a0000000000000000000000000000000000000000000000000000000008152600401610a3690611ac9565b60405180910390fd5b610a496000610fd5565b565b60028054610a58906119df565b80601f0160208091040260200160405190810160405280929190818152602001828054610a84906119df565b8015610ad15780601f10610aa657610100808354040283529160200191610ad1565b820191906000526020600020905b815481529060010190602001808311610ab457829003601f168201915b505050505081565b60008060009054906101000a900473ffffffffffffffffffffffffffffffffffffffff16905090565b600081604051602001610b159190611310565b604051602081830303815290604052805190602001209050919050565b60011515600560003373ffffffffffffffffffffffffffffffffffffffff1673ffffffffffffffffffffffffffffffffffffffff16815260200190815260200160002060009054906101000a900460ff1615151480610bc35750610b94610ad9565b73ffffffffffffffffffffffffffffffffffffffff163373ffffffffffffffffffffffffffffffffffffffff16145b610c02576040517f08c379a0000000000000000000000000000000000000000000000000000000008152600401610bf990611a5d565b60405180910390fd5b6000600560008373ffffffffffffffffffffffffffffffffffffffff1673ffffffffffffffffffffffffffffffffffffffff16815260200190815260200160002060006101000a81548160ff02191690831515021790555050565b610c656110e9565b600860008377ffffffffffffffffffffffffffffffffffffffffffffffff191677ffffffffffffffffffffffffffffffffffffffffffffffff191681526020019081526020016000206040518060c0016040529081600082015481526020016001820160009054906101000a900473ffffffffffffffffffffffffffffffffffffffff1673ffffffffffffffffffffffffffffffffffffffff1673ffffffffffffffffffffffffffffffffffffffff1681526020016001820160149054906101000a900460ff161515151581526020016001820160159054906101000a900478010000000000000000000000000000000000000000000000000277ffffffffffffffffffffffffffffffffffffffffffffffff191677ffffffffffffffffffffffffffffffffffffffffffffffff191681526020016002820160009054906101000a900478010000000000000000000000000000000000000000000000000277ffffffffffffffffffffffffffffffffffffffffffffffff191677ffffffffffffffffffffffffffffffffffffffffffffffff19168152602001600382018054610e0e906119df565b80601f0160208091040260200160405190810160405280929190818152602001828054610e3a906119df565b8015610e875780601f10610e5c57610100808354040283529160200191610e87565b820191906000526020600020905b815481529060010190602001808311610e6a57829003601f168201915b5050505050815250509050919050565b60076020528060005260406000206000915054906101000a900478010000000000000000000000000000000000000000000000000281565b610ed7610fcd565b73ffffffffffffffffffffffffffffffffffffffff16610ef5610ad9565b73ffffffffffffffffffffffffffffffffffffffff1614610f4b576040517f08c379a0000000000000000000000000000000000000000000000000000000008152600401610f4290611ac9565b60405180910390fd5b600073ffffffffffffffffffffffffffffffffffffffff168173ffffffffffffffffffffffffffffffffffffffff161415610fbb576040517f08c379a0000000000000000000000000000000000000000000000000000000008152600401610fb290611b5b565b60405180910390fd5b610fc481610fd5565b50565b60045481565b600033905090565b60008060009054906101000a900473ffffffffffffffffffffffffffffffffffffffff169050816000806101000a81548173ffffffffffffffffffffffffffffffffffffffff021916908373ffffffffffffffffffffffffffffffffffffffff1602179055508173ffffffffffffffffffffffffffffffffffffffff168173ffffffffffffffffffffffffffffffffffffffff167f8be0079c531659141344cd1fd0a4f28419497f9722a3daafe3b4186f6b6457e060405160405180910390a35050565b6040518060800160405280600073ffffffffffffffffffffffffffffffffffffffff168152602001600060018111156110d5576110d4611332565b5b815260200160608152602001606081525090565b6040518060c0016040528060008152602001600073ffffffffffffffffffffffffffffffffffffffff168152602001600015158152602001600077ffffffffffffffffffffffffffffffffffffffffffffffff19168152602001600077ffffffffffffffffffffffffffffffffffffffffffffffff19168152602001606081525090565b6000604051905090565b600080fd5b600080fd5b60007fffffffffffffffff00000000000000000000000000000000000000000000000082169050919050565b6111b681611181565b81146111c157600080fd5b50565b6000813590506111d3816111ad565b92915050565b600073ffffffffffffffffffffffffffffffffffffffff82169050919050565b6000611204826111d9565b9050919050565b611214816111f9565b811461121f57600080fd5b50565b6000813590506112318161120b565b92915050565b6000806040838503121561124e5761124d611177565b5b600061125c858286016111c4565b925050602061126d85828601611222565b9150509250929050565b600081519050919050565b600082825260208201905092915050565b60005b838110156112b1578082015181840152602081019050611296565b838111156112c0576000848401525b50505050565b6000601f19601f8301169050919050565b60006112e282611277565b6112ec8185611282565b93506112fc818560208601611293565b611305816112c6565b840191505092915050565b6000602082019050818103600083015261132a81846112d7565b905092915050565b7f4e487b7100000000000000000000000000000000000000000000000000000000600052602160045260246000fd5b6002811061137257611371611332565b5b50565b600081905061138382611361565b919050565b600061139382611375565b9050919050565b6113a381611388565b82525050565b60006020820190506113be600083018461139a565b92915050565b6113cd816111f9565b82525050565b6113dc81611388565b82525050565b600082825260208201905092915050565b60006113fe82611277565b61140881856113e2565b9350611418818560208601611293565b611421816112c6565b840191505092915050565b600060808301600083015161144460008601826113c4565b50602083015161145760208601826113d3565b506040830151848203604086015261146f82826113f3565b9150506060830151848203606086015261148982826113f3565b9150508091505092915050565b600060208201905081810360008301526114b0818461142c565b905092915050565b6000602082840312156114ce576114cd611177565b5b60006114dc848285016111c4565b91505092915050565b6000819050919050565b6114f8816114e5565b82525050565b611507816111f9565b82525050565b60008115159050919050565b6115228161150d565b82525050565b61153181611181565b82525050565b600060c08201905061154c60008301896114ef565b61155960208301886114fe565b6115666040830187611519565b6115736060830186611528565b6115806080830185611528565b81810360a083015261159281846112d7565b9050979650505050505050565b6000602082840312156115b5576115b4611177565b5b60006115c384828501611222565b91505092915050565b60006020820190506115e160008301846114fe565b92915050565b600080fd5b600080fd5b7f4e487b7100000000000000000000000000000000000000000000000000000000600052604160045260246000fd5b611629826112c6565b810181811067ffffffffffffffff82111715611648576116476115f1565b5b80604052505050565b600061165b61116d565b90506116678282611620565b919050565b600067ffffffffffffffff821115611687576116866115f1565b5b611690826112c6565b9050602081019050919050565b82818337600083830152505050565b60006116bf6116ba8461166c565b611651565b9050828152602081018484840111156116db576116da6115ec565b5b6116e684828561169d565b509392505050565b600082601f830112611703576117026115e7565b5b81356117138482602086016116ac565b91505092915050565b60006020828403121561173257611731611177565b5b600082013567ffffffffffffffff8111156117505761174f61117c565b5b61175c848285016116ee565b91505092915050565b600060208201905061177a6000830184611528565b92915050565b611789816114e5565b82525050565b6117988161150d565b82525050565b6117a781611181565b82525050565b600060c0830160008301516117c56000860182611780565b5060208301516117d860208601826113c4565b5060408301516117eb604086018261178f565b5060608301516117fe606086018261179e565b506080830151611811608086018261179e565b5060a083015184820360a086015261182982826113f3565b9150508091505092915050565b6000602082019050818103600083015261185081846117ad565b905092915050565b611861816114e5565b811461186c57600080fd5b50565b60008135905061187e81611858565b92915050565b60006020828403121561189a57611899611177565b5b60006118a88482850161186f565b91505092915050565b60006020820190506118c660008301846114ef565b92915050565b7f496e76616c696420557365720000000000000000000000000000000000000000600082015250565b6000611902600c83611282565b915061190d826118cc565b602082019050919050565b60006020820190508181036000830152611931816118f5565b9050919050565b7f4e487b7100000000000000000000000000000000000000000000000000000000600052601160045260246000fd5b6000611972826114e5565b91507fffffffffffffffffffffffffffffffffffffffffffffffffffffffffffffffff8214156119a5576119a4611938565b5b600182019050919050565b7f4e487b7100000000000000000000000000000000000000000000000000000000600052602260045260246000fd5b600060028204905060018216806119f757607f821691505b60208210811415611a0b57611a0a6119b0565b5b50919050565b7f4e6f7420617574686f72697a6564000000000000000000000000000000000000600082015250565b6000611a47600e83611282565b9150611a5282611a11565b602082019050919050565b60006020820190508181036000830152611a7681611a3a565b9050919050565b7f4f776e61626c653a2063616c6c6572206973206e6f7420746865206f776e6572600082015250565b6000611ab3602083611282565b9150611abe82611a7d565b602082019050919050565b60006020820190508181036000830152611ae281611aa6565b9050919050565b7f4f776e61626c653a206e6577206f776e657220697320746865207a65726f206160008201527f6464726573730000000000000000000000000000000000000000000000000000602082015250565b6000611b45602683611282565b9150611b5082611ae9565b604082019050919050565b60006020820190508181036000830152611b7481611b38565b905091905056fea26469706673582212204ecc5fa67fdfcf3355e656b3ad4c24cd3742852b10ab97716b4111cd761ff67c64736f6c63430008090033a2646970667358221220320556e7aace26f2727be87779342db8082eb99d8ded149c69f92aaff7b3614464736f6c63430008090033",
  "immutableReferences": {},
  "source": "// SPDX-License-Identifier: MIT\npragma solidity ^0.8.9;\n\nimport \"@openzeppelin/contracts/utils/math/SafeMath.sol\";\nimport \"@openzeppelin/contracts/access/Ownable.sol\";\n\nimport './Modules/interfaces/IModule.sol';\nimport './DaoBase.sol';\nimport './Data.sol';\n\n//is DaosFactory\ncontract DaosFactory is Ownable {\n  using SafeMath for uint256;\n  uint256 private daoId;\n\n  // //user > daos\n  // mapping(address => address[]) public membershipDaos;\n  deployedDao[] public daos;\n  mapping(address => mapping(address => bool)) daoOwners;\n  //MyModule[] public availableModules;\n  //mapping(string => MyModule) public availableModules;\n  // mapping(address => ModuleDao[]) public modulesDaos;\n  //dao address => moduleType => module\n  mapping(bytes8 => mapping(bytes8 => Data.Module)) modulesDaos;\n\n  struct deployedDao {\n    address owner;\n    address daoAddress;\n  }\n\n  // struct MyModule {\n  //   string moduleType;\n  //   string smartContractName;\n  //   string code;\n  //   bool isActive;\n  // }\n\n  // struct ModuleDao {\n  //   uint256 id;\n  //   address moduleAddress;\n  //   // IModule module;\n  //   bool isActive;\n  //   string moduleType;\n  //   string code;\n  //   //string abiCode;\n  // }\n\n  event DaoCreated(address user, string name, address daoAddress);\n  event ModuleActivated(address user, string name, address daoAddress);\n\n  modifier onlyDaoOwners(address _daoAddress) {\n    require(daoOwners[_daoAddress][msg.sender], \"Invalid User\");\n    _;\n  }\n\n  function getdeployedDaos() external view returns (deployedDao[] memory) {\n    return daos;\n  }\n\n  function activateModuleForDao(address _daoAddress, bytes8 _type, bytes8 _code) public onlyDaoOwners(_daoAddress) returns(address) {\n    require(modulesDaos[_type][_code].isActive == true, \"Module not found\");\n    IModule(modulesDaos[_type][_code].moduleAddress).addDao(_daoAddress, msg.sender);\n    DaoBase(_daoAddress).addModule(_type, modulesDaos[_type][_code].moduleAddress);\n    return modulesDaos[_type][_code].moduleAddress;  \n  }\n\n  function addModule(address _moduleAddress, bytes8 _type, bytes8 _code) public onlyOwner {\n    modulesDaos[_type][_code].isActive = true;\n    modulesDaos[_type][_code].moduleType = _type;\n    modulesDaos[_type][_code].moduleCode = _code;\n    modulesDaos[_type][_code].moduleAddress = _moduleAddress;\n  }\n\n  //  function getDaosAddressByMember(address _addressMember) external view returns (address[] memory) {\n  //   return (membershipDaos[_addressMember]);\n  // }\n\n  function createDAO(string calldata _name, string calldata _description, Data.visibilityEnum _visibility\n                    , Data.ModuleToActivate[] memory _modules) public {\n    require(_modules.length < 10, \"Modules must be less than 10.\");\n    DaoBase dao = new DaoBase(_name, _description, _visibility);\n    dao.authorizeContract(address(this));\n    // MembershipDao memberModule = new MembershipDao(membershipMode);\n    // dao.addModule(dao.hash(\"MemberModule\"), address(memberModule));\n    deployedDao memory _dao;\n    _dao.owner = msg.sender;\n    _dao.daoAddress = address(dao);\n\n    for(uint i=0; i<_modules.length; ++i){\n      require(modulesDaos[_modules[i].moduleType][_modules[i].moduleCode].isActive == true, \"Module not found\");\n        activateModuleForDao(address(dao)\n        , _modules[i].moduleType\n        , _modules[i].moduleCode);\n     }\n    daoOwners[address(dao)][msg.sender] = true;\n    daos.push(_dao); \n    dao.transferOwnership(msg.sender);\n    emit DaoCreated(msg.sender, _name, _dao.daoAddress);\n  }\n\n  function hash(string memory _name) public pure returns(bytes8) {\n    return (bytes8(keccak256(abi.encode(_name))));\n  }\n}",
  "sourcePath": "/Users/chinoiserie/delivery/BLOCKCHAIN/Alyra/MY-DAO/contracts/DaosFactory.sol",
  "compiler": {
    "name": "solc",
    "version": "0.8.9+commit.e5eed63a.Emscripten.clang"
  },
  "schemaVersion": "3.2.0",
  "updatedAt": "2022-05-15T18:53:49.733Z",
  "networkType": "ethereum",
  "devdoc": {
    "kind": "dev",
    "methods": {
      "owner()": {
        "details": "Returns the address of the current owner."
      },
      "renounceOwnership()": {
        "details": "Leaves the contract without owner. It will not be possible to call `onlyOwner` functions anymore. Can only be called by the current owner. NOTE: Renouncing ownership will leave the contract without an owner, thereby removing any functionality that is only available to the owner."
      },
      "transferOwnership(address)": {
        "details": "Transfers ownership of the contract to a new account (`newOwner`). Can only be called by the current owner."
      }
    },
    "version": 1
  },
  "userdoc": {
    "kind": "user",
    "methods": {},
    "version": 1
  }
}