{
  "contractName": "Data",
  "abi": [
    {
      "inputs": [
        {
          "internalType": "string",
          "name": "_messageToHash",
          "type": "string"
        }
      ],
      "name": "hash",
      "outputs": [
        {
          "internalType": "bytes8",
          "name": "",
          "type": "bytes8"
        }
      ],
      "stateMutability": "pure",
      "type": "function"
    }
  ],
  "bytecode": "0x610390610053600b82828239805160001a607314610046577f4e487b7100000000000000000000000000000000000000000000000000000000600052600060045260246000fd5b30600052607381538281f3fe7300000000000000000000000000000000000000003014608060405260043610610052576000357c010000000000000000000000000000000000000000000000000000000090048063b411ee9414610057575b600080fd5b610071600480360381019061006c9190610211565b610087565b60405161007e9190610295565b60405180910390f35b60008160405160200161009a9190610338565b604051602081830303815290604052805190602001209050919050565b6000604051905090565b600080fd5b600080fd5b600080fd5b600080fd5b6000601f19601f8301169050919050565b7f4e487b7100000000000000000000000000000000000000000000000000000000600052604160045260246000fd5b61011e826100d5565b810181811067ffffffffffffffff8211171561013d5761013c6100e6565b5b80604052505050565b60006101506100b7565b905061015c8282610115565b919050565b600067ffffffffffffffff82111561017c5761017b6100e6565b5b610185826100d5565b9050602081019050919050565b82818337600083830152505050565b60006101b46101af84610161565b610146565b9050828152602081018484840111156101d0576101cf6100d0565b5b6101db848285610192565b509392505050565b600082601f8301126101f8576101f76100cb565b5b81356102088482602086016101a1565b91505092915050565b600060208284031215610227576102266100c1565b5b600082013567ffffffffffffffff811115610245576102446100c6565b5b610251848285016101e3565b91505092915050565b60007fffffffffffffffff00000000000000000000000000000000000000000000000082169050919050565b61028f8161025a565b82525050565b60006020820190506102aa6000830184610286565b92915050565b600081519050919050565b600082825260208201905092915050565b60005b838110156102ea5780820151818401526020810190506102cf565b838111156102f9576000848401525b50505050565b600061030a826102b0565b61031481856102bb565b93506103248185602086016102cc565b61032d816100d5565b840191505092915050565b6000602082019050818103600083015261035281846102ff565b90509291505056fea26469706673582212206845481e971732b245139207f521531f7cbe9ec98349eb0b6aa25c8851dbd90b64736f6c63430008090033",
  "immutableReferences": {},
  "source": "// SPDX-License-Identifier: MIT\r\npragma solidity ^0.8.9;\r\n\r\nlibrary Data {\r\n  struct member {\r\n    memberStatus status;\r\n    uint256 joinTime;\r\n    //address memberAddress;\r\n  }\r\n\r\n  struct DaoMember {\r\n    address addressDao;\r\n    uint256 membersCount;\r\n    mapping(uint256 => address) memberAddresses;\r\n    mapping(address => Data.member) members;\r\n    bool isActive;\r\n  } \r\n\r\n  struct DaoSettings {\r\n    address addressDao;\r\n    visibilityEnum visibility;\r\n    string name;\r\n    string description;\r\n  } \r\n\r\n  struct daoData {\r\n    string daoType;\r\n    visibilityEnum visibility;\r\n  }\r\n\r\n  enum visibilityEnum {\r\n    privateDao,\r\n    publicDao\r\n  }\r\n\r\n  enum memberStatus {\r\n    notMember,\r\n    invited,\r\n    asking,\r\n    active\r\n  }\r\n\r\n  enum membershipModeEnum {\r\n    invite,\r\n    request,\r\n    open\r\n  }\r\n\r\n  enum ModuleType {\r\n    DaoMemberSystem,\r\n    DaoVotingSystem\r\n  }\r\n\r\n  struct Module {\r\n    uint256 id;\r\n    address moduleAddress;\r\n    // IModule module;\r\n    bool isActive;\r\n    bytes8 moduleType; \r\n    bytes8 moduleCode; \r\n    string moduleInfo;\r\n  }\r\n\r\n  struct ModuleToActivate {\r\n    bytes8 moduleType;\r\n    bytes8 moduleCode;\r\n  }\r\n\r\n  function hash(string memory _messageToHash) public pure returns (bytes8) {\r\n    return bytes8(keccak256(abi.encode(_messageToHash)));\r\n  }\r\n}",
  "sourcePath": "C:\\Users\\mdmou\\source\\repos\\MY-DAO\\contracts\\Data.sol",
  "compiler": {
    "name": "solc",
    "version": "0.8.9+commit.e5eed63a.Emscripten.clang"
  },
  "schemaVersion": "3.4.4",
  "updatedAt": "2022-05-16T19:58:15.180Z",
  "devdoc": {
    "kind": "dev",
    "methods": {},
    "version": 1
  },
  "userdoc": {
    "kind": "user",
    "methods": {},
    "version": 1
  }
}