{
  "contractName": "Data",
  "abi": [
    {
      "inputs": [
        {
          "internalType": "string",
          "name": "_messageToHash",
          "type": "string"
        }
      ],
      "name": "hash",
      "outputs": [
        {
          "internalType": "bytes8",
          "name": "",
          "type": "bytes8"
        }
      ],
      "stateMutability": "pure",
      "type": "function"
    }
  ],
  "bytecode": "0x610390610053600b82828239805160001a607314610046577f4e487b7100000000000000000000000000000000000000000000000000000000600052600060045260246000fd5b30600052607381538281f3fe7300000000000000000000000000000000000000003014608060405260043610610052576000357c010000000000000000000000000000000000000000000000000000000090048063b411ee9414610057575b600080fd5b610071600480360381019061006c9190610211565b610087565b60405161007e9190610295565b60405180910390f35b60008160405160200161009a9190610338565b604051602081830303815290604052805190602001209050919050565b6000604051905090565b600080fd5b600080fd5b600080fd5b600080fd5b6000601f19601f8301169050919050565b7f4e487b7100000000000000000000000000000000000000000000000000000000600052604160045260246000fd5b61011e826100d5565b810181811067ffffffffffffffff8211171561013d5761013c6100e6565b5b80604052505050565b60006101506100b7565b905061015c8282610115565b919050565b600067ffffffffffffffff82111561017c5761017b6100e6565b5b610185826100d5565b9050602081019050919050565b82818337600083830152505050565b60006101b46101af84610161565b610146565b9050828152602081018484840111156101d0576101cf6100d0565b5b6101db848285610192565b509392505050565b600082601f8301126101f8576101f76100cb565b5b81356102088482602086016101a1565b91505092915050565b600060208284031215610227576102266100c1565b5b600082013567ffffffffffffffff811115610245576102446100c6565b5b610251848285016101e3565b91505092915050565b60007fffffffffffffffff00000000000000000000000000000000000000000000000082169050919050565b61028f8161025a565b82525050565b60006020820190506102aa6000830184610286565b92915050565b600081519050919050565b600082825260208201905092915050565b60005b838110156102ea5780820151818401526020810190506102cf565b838111156102f9576000848401525b50505050565b600061030a826102b0565b61031481856102bb565b93506103248185602086016102cc565b61032d816100d5565b840191505092915050565b6000602082019050818103600083015261035281846102ff565b90509291505056fea2646970667358221220ad697c8da357fdf7a7a4e06593b5879de8886c48c9babdb3a73b07290916500b64736f6c63430008090033",
  "immutableReferences": {},
  "source": "// SPDX-License-Identifier: MIT\npragma solidity ^0.8.9;\n\nlibrary Data {\n  struct member {\n    memberStatus status;\n    uint256 joinTime;\n    //address memberAddress;\n  }\n\n  struct DaoMember {\n    address addressDao;\n    uint256 membersCount;\n    mapping(uint256 => address) memberAddresses;\n    mapping(address => Data.member) members;\n    bool isActive;\n  } \n\n  struct DaoSettings {\n    address addressDao;\n    visibilityEnum visibility;\n    string name;\n    string description;\n  } \n\n  struct daoData {\n    string daoType;\n    visibilityEnum visibility;\n  }\n\n  enum visibilityEnum {\n    privateDao,\n    publicDao\n  }\n\n  enum memberStatus {\n    notMember,\n    invited,\n    asking,\n    active\n  }\n\n  enum membershipModeEnum {\n    invite,\n    request,\n    open\n  }\n\n  enum ModuleType {\n    DaoMemberSystem,\n    DaoVotingSystem\n  }\n\n  struct Module {\n    uint256 id;\n    address moduleAddress;\n    // IModule module;\n    bool isActive;\n    bytes8 moduleType; //member\n    bytes8 moduleCode; //membership\n    string moduleInfo;\n  }\n\n  struct ModuleToActivate {\n    bytes8 moduleType;\n    bytes8 moduleCode;\n  }\n\n  function hash(string memory _messageToHash) public pure returns (bytes8) {\n    return bytes8(keccak256(abi.encode(_messageToHash)));\n  }\n}",
  "sourcePath": "/Users/chinoiserie/delivery/BLOCKCHAIN/Alyra/MY-DAO/contracts/Data.sol",
  "compiler": {
    "name": "solc",
    "version": "0.8.9+commit.e5eed63a.Emscripten.clang"
  },
  "schemaVersion": "3.2.0",
  "updatedAt": "2022-05-15T22:44:17.124Z",
  "devdoc": {
    "kind": "dev",
    "methods": {},
    "version": 1
  },
  "userdoc": {
    "kind": "user",
    "methods": {},
    "version": 1
  }
}