{
  "contractName": "InviteMembershipModule",
  "abi": [
    {
      "inputs": [
        {
          "internalType": "address",
          "name": "_contractFactory",
          "type": "address"
        }
      ],
      "stateMutability": "nonpayable",
      "type": "constructor"
    },
    {
      "anonymous": false,
      "inputs": [
        {
          "indexed": false,
          "internalType": "address",
          "name": "newMember",
          "type": "address"
        },
        {
          "indexed": false,
          "internalType": "address",
          "name": "acceptorAddress",
          "type": "address"
        }
      ],
      "name": "MemberAccepted",
      "type": "event"
    },
    {
      "anonymous": false,
      "inputs": [
        {
          "indexed": false,
          "internalType": "address",
          "name": "newMember",
          "type": "address"
        },
        {
          "indexed": false,
          "internalType": "address",
          "name": "adderAddress",
          "type": "address"
        }
      ],
      "name": "MemberAdded",
      "type": "event"
    },
    {
      "anonymous": false,
      "inputs": [
        {
          "indexed": false,
          "internalType": "address",
          "name": "memberRequestor",
          "type": "address"
        }
      ],
      "name": "MemberAskedJoin",
      "type": "event"
    },
    {
      "anonymous": false,
      "inputs": [
        {
          "indexed": false,
          "internalType": "address",
          "name": "memberInvited",
          "type": "address"
        },
        {
          "indexed": false,
          "internalType": "address",
          "name": "memberInvitor",
          "type": "address"
        }
      ],
      "name": "MemberInvited",
      "type": "event"
    },
    {
      "anonymous": false,
      "inputs": [
        {
          "indexed": false,
          "internalType": "address",
          "name": "memberJoined",
          "type": "address"
        }
      ],
      "name": "MemberJoined",
      "type": "event"
    },
    {
      "anonymous": false,
      "inputs": [
        {
          "indexed": true,
          "internalType": "address",
          "name": "previousOwner",
          "type": "address"
        },
        {
          "indexed": true,
          "internalType": "address",
          "name": "newOwner",
          "type": "address"
        }
      ],
      "name": "OwnershipTransferred",
      "type": "event"
    },
    {
      "inputs": [
        {
          "internalType": "address",
          "name": "",
          "type": "address"
        },
        {
          "internalType": "address",
          "name": "",
          "type": "address"
        }
      ],
      "name": "authorizedAddress",
      "outputs": [
        {
          "internalType": "bool",
          "name": "",
          "type": "bool"
        }
      ],
      "stateMutability": "view",
      "type": "function",
      "constant": true
    },
    {
      "inputs": [
        {
          "internalType": "address",
          "name": "",
          "type": "address"
        }
      ],
      "name": "daos",
      "outputs": [
        {
          "internalType": "address",
          "name": "addressDao",
          "type": "address"
        },
        {
          "internalType": "uint256",
          "name": "membersCount",
          "type": "uint256"
        },
        {
          "internalType": "bool",
          "name": "isActive",
          "type": "bool"
        }
      ],
      "stateMutability": "view",
      "type": "function",
      "constant": true
    },
    {
      "inputs": [],
      "name": "moduleCode",
      "outputs": [
        {
          "internalType": "bytes8",
          "name": "",
          "type": "bytes8"
        }
      ],
      "stateMutability": "view",
      "type": "function",
      "constant": true
    },
    {
      "inputs": [],
      "name": "moduleType",
      "outputs": [
        {
          "internalType": "bytes8",
          "name": "",
          "type": "bytes8"
        }
      ],
      "stateMutability": "view",
      "type": "function",
      "constant": true
    },
    {
      "inputs": [],
      "name": "owner",
      "outputs": [
        {
          "internalType": "address",
          "name": "",
          "type": "address"
        }
      ],
      "stateMutability": "view",
      "type": "function",
      "constant": true
    },
    {
      "inputs": [],
      "name": "renounceOwnership",
      "outputs": [],
      "stateMutability": "nonpayable",
      "type": "function"
    },
    {
      "inputs": [
        {
          "internalType": "address",
          "name": "newOwner",
          "type": "address"
        }
      ],
      "name": "transferOwnership",
      "outputs": [],
      "stateMutability": "nonpayable",
      "type": "function"
    },
    {
      "inputs": [],
      "name": "visibility",
      "outputs": [
        {
          "internalType": "enum Data.visibilityEnum",
          "name": "",
          "type": "uint8"
        }
      ],
      "stateMutability": "view",
      "type": "function",
      "constant": true
    },
    {
      "inputs": [
        {
          "internalType": "address",
          "name": "_contractDao",
          "type": "address"
        },
        {
          "internalType": "address",
          "name": "_member",
          "type": "address"
        }
      ],
      "name": "getMemberInfo",
      "outputs": [
        {
          "components": [
            {
              "internalType": "enum Data.memberStatus",
              "name": "status",
              "type": "uint8"
            },
            {
              "internalType": "uint256",
              "name": "joinTime",
              "type": "uint256"
            }
          ],
          "internalType": "struct Data.member",
          "name": "",
          "type": "tuple"
        }
      ],
      "stateMutability": "view",
      "type": "function",
      "constant": true
    },
    {
      "inputs": [
        {
          "internalType": "address",
          "name": "_contractDao",
          "type": "address"
        },
        {
          "internalType": "uint256",
          "name": "_id",
          "type": "uint256"
        }
      ],
      "name": "getAddrById",
      "outputs": [
        {
          "internalType": "address",
          "name": "",
          "type": "address"
        }
      ],
      "stateMutability": "view",
      "type": "function",
      "constant": true
    },
    {
      "inputs": [
        {
          "internalType": "address",
          "name": "_contractDao",
          "type": "address"
        }
      ],
      "name": "getMembersCount",
      "outputs": [
        {
          "internalType": "uint256",
          "name": "",
          "type": "uint256"
        }
      ],
      "stateMutability": "view",
      "type": "function",
      "constant": true
    },
    {
      "inputs": [
        {
          "internalType": "address",
          "name": "_contractDao",
          "type": "address"
        },
        {
          "internalType": "address",
          "name": "_addressMember",
          "type": "address"
        }
      ],
      "name": "addMember",
      "outputs": [],
      "stateMutability": "nonpayable",
      "type": "function"
    },
    {
      "inputs": [
        {
          "internalType": "address",
          "name": "_contractDao",
          "type": "address"
        },
        {
          "internalType": "address",
          "name": "_addressMember",
          "type": "address"
        }
      ],
      "name": "acceptMember",
      "outputs": [],
      "stateMutability": "nonpayable",
      "type": "function"
    },
    {
      "inputs": [
        {
          "internalType": "address",
          "name": "_contractDao",
          "type": "address"
        },
        {
          "internalType": "address",
          "name": "_addressMember",
          "type": "address"
        }
      ],
      "name": "inviteMember",
      "outputs": [],
      "stateMutability": "nonpayable",
      "type": "function"
    },
    {
      "inputs": [
        {
          "internalType": "address",
          "name": "_contractDao",
          "type": "address"
        }
      ],
      "name": "requestJoin",
      "outputs": [],
      "stateMutability": "nonpayable",
      "type": "function"
    },
    {
      "inputs": [
        {
          "internalType": "address",
          "name": "_contractDao",
          "type": "address"
        },
        {
          "internalType": "address",
          "name": "_addressMember",
          "type": "address"
        }
      ],
      "name": "isActiveMember",
      "outputs": [
        {
          "internalType": "bool",
          "name": "",
          "type": "bool"
        }
      ],
      "stateMutability": "view",
      "type": "function",
      "constant": true
    },
    {
      "inputs": [
        {
          "internalType": "address",
          "name": "_contractDao",
          "type": "address"
        }
      ],
      "name": "join",
      "outputs": [],
      "stateMutability": "nonpayable",
      "type": "function"
    },
    {
      "inputs": [
        {
          "internalType": "address",
          "name": "_contractDao",
          "type": "address"
        },
        {
          "internalType": "address",
          "name": "_memberDao",
          "type": "address"
        }
      ],
      "name": "addDao",
      "outputs": [],
      "stateMutability": "nonpayable",
      "type": "function"
    },
    {
      "inputs": [
        {
          "internalType": "address",
          "name": "_contractDao",
          "type": "address"
        },
        {
          "internalType": "address",
          "name": "_contractAddress",
          "type": "address"
        }
      ],
      "name": "authorizeAddress",
      "outputs": [],
      "stateMutability": "nonpayable",
      "type": "function"
    },
    {
      "inputs": [
        {
          "internalType": "address",
          "name": "_contractDao",
          "type": "address"
        },
        {
          "internalType": "address",
          "name": "_contractAddress",
          "type": "address"
        }
      ],
      "name": "denyAddress",
      "outputs": [],
      "stateMutability": "nonpayable",
      "type": "function"
    }
  ],
  "bytecode": "0x6080604052604051602001620000159062000279565b60405160208183030381529060405280519060200120600060146101000a81548167ffffffffffffffff02191690837801000000000000000000000000000000000000000000000000900402179055506040516020016200007690620002eb565b60405160208183030381529060405280519060200120600160006101000a81548167ffffffffffffffff0219169083780100000000000000000000000000000000000000000000000090040217905550348015620000d357600080fd5b5060405162002f2438038062002f248339818101604052810190620000f9919062000377565b6200012b620001166200014c640100000000026401000000009004565b62000154640100000000026401000000009004565b620001458162000154640100000000026401000000009004565b50620003a9565b600033905090565b60008060009054906101000a900473ffffffffffffffffffffffffffffffffffffffff169050816000806101000a81548173ffffffffffffffffffffffffffffffffffffffff021916908373ffffffffffffffffffffffffffffffffffffffff1602179055508173ffffffffffffffffffffffffffffffffffffffff168173ffffffffffffffffffffffffffffffffffffffff167f8be0079c531659141344cd1fd0a4f28419497f9722a3daafe3b4186f6b6457e060405160405180910390a35050565b600082825260208201905092915050565b7f496e766974654d656d626572736869704d6f64756c6500000000000000000000600082015250565b60006200026160168362000218565b91506200026e8262000229565b602082019050919050565b60006020820190508181036000830152620002948162000252565b9050919050565b7f4d656d6265724d6f64756c650000000000000000000000000000000000000000600082015250565b6000620002d3600c8362000218565b9150620002e0826200029b565b602082019050919050565b600060208201905081810360008301526200030681620002c4565b9050919050565b600080fd5b600073ffffffffffffffffffffffffffffffffffffffff82169050919050565b60006200033f8262000312565b9050919050565b620003518162000332565b81146200035d57600080fd5b50565b600081519050620003718162000346565b92915050565b60006020828403121562000390576200038f6200030d565b5b6000620003a08482850162000360565b91505092915050565b612b6b80620003b96000396000f3fe608060405234801561001057600080fd5b5060043610610149576000357c0100000000000000000000000000000000000000000000000000000000900480638da5cb5b116100ca578063d2bdea341161008e578063d2bdea3414610360578063db4d7dcd1461037c578063e498116f14610398578063f0744c16146103b4578063f2fde38b146103d257610149565b80638da5cb5b146102945780638ecf7720146102b2578063945da9a1146102e25780639d58b15d14610312578063c25f3cf61461032e57610149565b806358a2d1371161011157806358a2d137146101f05780636465e69f1461020c578063715018a61461022a578063760b9c3414610234578063890222b61461026457610149565b806312ee7e411461014e57806328ffe6c81461016a57806329adec14146101865780632b3e5ed9146101a457806336048d5f146101c0575b600080fd5b61016860048036038101906101639190612482565b6103ee565b005b610184600480360381019061017f91906124c2565b61070c565b005b61018e6109df565b60405161019b9190612566565b60405180910390f35b6101be60048036038101906101b99190612482565b6109f2565b005b6101da60048036038101906101d59190612482565b610ca6565b6040516101e79190612611565b60405180910390f35b61020a600480360381019061020591906124c2565b610d85565b005b610214611112565b6040516102219190612667565b60405180910390f35b61023261113d565b005b61024e600480360381019061024991906124c2565b6111c5565b60405161025b9190612691565b60405180910390f35b61027e60048036038101906102799190612482565b611211565b60405161028b91906126c7565b60405180910390f35b61029c611240565b6040516102a991906126f1565b60405180910390f35b6102cc60048036038101906102c79190612482565b611269565b6040516102d991906126c7565b60405180910390f35b6102fc60048036038101906102f79190612738565b611329565b60405161030991906126f1565b60405180910390f35b61032c60048036038101906103279190612482565b6113a7565b005b610348600480360381019061034391906124c2565b611902565b60405161035793929190612778565b60405180910390f35b61037a60048036038101906103759190612482565b611959565b005b61039660048036038101906103919190612482565b611eb4565b005b6103b260048036038101906103ad9190612482565b61205c565b005b6103bc612204565b6040516103c99190612667565b60405180910390f35b6103ec60048036038101906103e791906124c2565b61222f565b005b8160011515600360008373ffffffffffffffffffffffffffffffffffffffff1673ffffffffffffffffffffffffffffffffffffffff16815260200190815260200160002060003373ffffffffffffffffffffffffffffffffffffffff1673ffffffffffffffffffffffffffffffffffffffff16815260200190815260200160002060009054906101000a900460ff16151514806104bd575061048e611240565b73ffffffffffffffffffffffffffffffffffffffff163373ffffffffffffffffffffffffffffffffffffffff16145b6104fc576040517f08c379a00000000000000000000000000000000000000000000000000000000081526004016104f39061280c565b60405180910390fd5b600260008473ffffffffffffffffffffffffffffffffffffffff1673ffffffffffffffffffffffffffffffffffffffff16815260200190815260200160002060040160009054906101000a900460ff161561058c576040517f08c379a000000000000000000000000000000000000000000000000000000000815260040161058390612878565b60405180910390fd5b6001600260008573ffffffffffffffffffffffffffffffffffffffff1673ffffffffffffffffffffffffffffffffffffffff16815260200190815260200160002060040160006101000a81548160ff02191690831515021790555082600260008573ffffffffffffffffffffffffffffffffffffffff1673ffffffffffffffffffffffffffffffffffffffff16815260200190815260200160002060000160006101000a81548173ffffffffffffffffffffffffffffffffffffffff021916908373ffffffffffffffffffffffffffffffffffffffff16021790555061067283836113a7565b6001600360008573ffffffffffffffffffffffffffffffffffffffff1673ffffffffffffffffffffffffffffffffffffffff16815260200190815260200160002060008473ffffffffffffffffffffffffffffffffffffffff1673ffffffffffffffffffffffffffffffffffffffff16815260200190815260200160002060006101000a81548160ff021916908315150217905550505050565b806003808111156107205761071f6124ef565b5b600260008373ffffffffffffffffffffffffffffffffffffffff1673ffffffffffffffffffffffffffffffffffffffff16815260200190815260200160002060030160003373ffffffffffffffffffffffffffffffffffffffff1673ffffffffffffffffffffffffffffffffffffffff16815260200190815260200160002060000160009054906101000a900460ff1660038111156107c2576107c16124ef565b5b1415610803576040517f08c379a00000000000000000000000000000000000000000000000000000000081526004016107fa9061280c565b60405180910390fd5b60016003811115610817576108166124ef565b5b600260008473ffffffffffffffffffffffffffffffffffffffff1673ffffffffffffffffffffffffffffffffffffffff16815260200190815260200160002060030160003373ffffffffffffffffffffffffffffffffffffffff1673ffffffffffffffffffffffffffffffffffffffff16815260200190815260200160002060000160009054906101000a900460ff1660038111156108b9576108b86124ef565b5b146108f9576040517f08c379a00000000000000000000000000000000000000000000000000000000081526004016108f0906128e4565b60405180910390fd5b6003600260008473ffffffffffffffffffffffffffffffffffffffff1673ffffffffffffffffffffffffffffffffffffffff16815260200190815260200160002060030160003373ffffffffffffffffffffffffffffffffffffffff1673ffffffffffffffffffffffffffffffffffffffff16815260200190815260200160002060000160006101000a81548160ff0219169083600381111561099f5761099e6124ef565b5b02179055507f0abf3b3f643594d958297062a019458e27d7766629590ac621aa1000fa1298ab336040516109d391906126f1565b60405180910390a15050565b600160089054906101000a900460ff1681565b81600380811115610a0657610a056124ef565b5b600260008373ffffffffffffffffffffffffffffffffffffffff1673ffffffffffffffffffffffffffffffffffffffff16815260200190815260200160002060030160003373ffffffffffffffffffffffffffffffffffffffff1673ffffffffffffffffffffffffffffffffffffffff16815260200190815260200160002060000160009054906101000a900460ff166003811115610aa857610aa76124ef565b5b1480610b41575060011515600360008373ffffffffffffffffffffffffffffffffffffffff1673ffffffffffffffffffffffffffffffffffffffff16815260200190815260200160002060003373ffffffffffffffffffffffffffffffffffffffff1673ffffffffffffffffffffffffffffffffffffffff16815260200190815260200160002060009054906101000a900460ff161515145b80610b7e5750610b4f611240565b73ffffffffffffffffffffffffffffffffffffffff163373ffffffffffffffffffffffffffffffffffffffff16145b610bbd576040517f08c379a0000000000000000000000000000000000000000000000000000000008152600401610bb49061280c565b60405180910390fd5b6003600260008573ffffffffffffffffffffffffffffffffffffffff1673ffffffffffffffffffffffffffffffffffffffff16815260200190815260200160002060030160008473ffffffffffffffffffffffffffffffffffffffff1673ffffffffffffffffffffffffffffffffffffffff16815260200190815260200160002060000160006101000a81548160ff02191690836003811115610c6357610c626124ef565b5b02179055507f69d02d7fd90d09588f2ba0ea3c2ba06a591eda1b091ed67790e2b36fb339ac538233604051610c99929190612904565b60405180910390a1505050565b610cae6123f3565b600260008473ffffffffffffffffffffffffffffffffffffffff1673ffffffffffffffffffffffffffffffffffffffff16815260200190815260200160002060030160008373ffffffffffffffffffffffffffffffffffffffff1673ffffffffffffffffffffffffffffffffffffffff1681526020019081526020016000206040518060400160405290816000820160009054906101000a900460ff166003811115610d5d57610d5c6124ef565b5b6003811115610d6f57610d6e6124ef565b5b8152602001600182015481525050905092915050565b80600380811115610d9957610d986124ef565b5b600260008373ffffffffffffffffffffffffffffffffffffffff1673ffffffffffffffffffffffffffffffffffffffff16815260200190815260200160002060030160003373ffffffffffffffffffffffffffffffffffffffff1673ffffffffffffffffffffffffffffffffffffffff16815260200190815260200160002060000160009054906101000a900460ff166003811115610e3b57610e3a6124ef565b5b1415610e7c576040517f08c379a0000000000000000000000000000000000000000000000000000000008152600401610e739061280c565b60405180910390fd5b60028060008473ffffffffffffffffffffffffffffffffffffffff1673ffffffffffffffffffffffffffffffffffffffff16815260200190815260200160002060030160003373ffffffffffffffffffffffffffffffffffffffff1673ffffffffffffffffffffffffffffffffffffffff16815260200190815260200160002060000160006101000a81548160ff02191690836003811115610f2157610f206124ef565b5b021790555033600260008473ffffffffffffffffffffffffffffffffffffffff1673ffffffffffffffffffffffffffffffffffffffff1681526020019081526020016000206002016000600260008673ffffffffffffffffffffffffffffffffffffffff1673ffffffffffffffffffffffffffffffffffffffff16815260200190815260200160002060010154815260200190815260200160002060006101000a81548173ffffffffffffffffffffffffffffffffffffffff021916908373ffffffffffffffffffffffffffffffffffffffff16021790555042600260008473ffffffffffffffffffffffffffffffffffffffff1673ffffffffffffffffffffffffffffffffffffffff16815260200190815260200160002060030160003373ffffffffffffffffffffffffffffffffffffffff1673ffffffffffffffffffffffffffffffffffffffff16815260200190815260200160002060010181905550600260008373ffffffffffffffffffffffffffffffffffffffff1673ffffffffffffffffffffffffffffffffffffffff168152602001908152602001600020600101600081546110d09061295c565b919050819055507fbed19f5b65ad42d891f94ee997a95c1c635d47af67169b52c2b2f0f823b7cd713360405161110691906126f1565b60405180910390a15050565b600160009054906101000a900478010000000000000000000000000000000000000000000000000281565b611145612327565b73ffffffffffffffffffffffffffffffffffffffff16611163611240565b73ffffffffffffffffffffffffffffffffffffffff16146111b9576040517f08c379a00000000000000000000000000000000000000000000000000000000081526004016111b0906129f1565b60405180910390fd5b6111c3600061232f565b565b6000600260008373ffffffffffffffffffffffffffffffffffffffff1673ffffffffffffffffffffffffffffffffffffffff168152602001908152602001600020600101549050919050565b60036020528160005260406000206020528060005260406000206000915091509054906101000a900460ff1681565b60008060009054906101000a900473ffffffffffffffffffffffffffffffffffffffff16905090565b600060038081111561127e5761127d6124ef565b5b600260008573ffffffffffffffffffffffffffffffffffffffff1673ffffffffffffffffffffffffffffffffffffffff16815260200190815260200160002060030160008473ffffffffffffffffffffffffffffffffffffffff1673ffffffffffffffffffffffffffffffffffffffff16815260200190815260200160002060000160009054906101000a900460ff1660038111156113205761131f6124ef565b5b14905092915050565b6000600260008473ffffffffffffffffffffffffffffffffffffffff1673ffffffffffffffffffffffffffffffffffffffff168152602001908152602001600020600201600083815260200190815260200160002060009054906101000a900473ffffffffffffffffffffffffffffffffffffffff16905092915050565b816003808111156113bb576113ba6124ef565b5b600260008373ffffffffffffffffffffffffffffffffffffffff1673ffffffffffffffffffffffffffffffffffffffff16815260200190815260200160002060030160003373ffffffffffffffffffffffffffffffffffffffff1673ffffffffffffffffffffffffffffffffffffffff16815260200190815260200160002060000160009054906101000a900460ff16600381111561145d5761145c6124ef565b5b14806114f6575060011515600360008373ffffffffffffffffffffffffffffffffffffffff1673ffffffffffffffffffffffffffffffffffffffff16815260200190815260200160002060003373ffffffffffffffffffffffffffffffffffffffff1673ffffffffffffffffffffffffffffffffffffffff16815260200190815260200160002060009054906101000a900460ff161515145b806115335750611504611240565b73ffffffffffffffffffffffffffffffffffffffff163373ffffffffffffffffffffffffffffffffffffffff16145b611572576040517f08c379a00000000000000000000000000000000000000000000000000000000081526004016115699061280c565b60405180910390fd5b60006003811115611586576115856124ef565b5b600260008573ffffffffffffffffffffffffffffffffffffffff1673ffffffffffffffffffffffffffffffffffffffff16815260200190815260200160002060030160008473ffffffffffffffffffffffffffffffffffffffff1673ffffffffffffffffffffffffffffffffffffffff16815260200190815260200160002060000160009054906101000a900460ff166003811115611628576116276124ef565b5b14611668576040517f08c379a000000000000000000000000000000000000000000000000000000000815260040161165f90612a83565b60405180910390fd5b6003600260008573ffffffffffffffffffffffffffffffffffffffff1673ffffffffffffffffffffffffffffffffffffffff16815260200190815260200160002060030160008473ffffffffffffffffffffffffffffffffffffffff1673ffffffffffffffffffffffffffffffffffffffff16815260200190815260200160002060000160006101000a81548160ff0219169083600381111561170e5761170d6124ef565b5b021790555081600260008573ffffffffffffffffffffffffffffffffffffffff1673ffffffffffffffffffffffffffffffffffffffff1681526020019081526020016000206002016000600260008773ffffffffffffffffffffffffffffffffffffffff1673ffffffffffffffffffffffffffffffffffffffff16815260200190815260200160002060010154815260200190815260200160002060006101000a81548173ffffffffffffffffffffffffffffffffffffffff021916908373ffffffffffffffffffffffffffffffffffffffff16021790555042600260008573ffffffffffffffffffffffffffffffffffffffff1673ffffffffffffffffffffffffffffffffffffffff16815260200190815260200160002060030160008473ffffffffffffffffffffffffffffffffffffffff1673ffffffffffffffffffffffffffffffffffffffff16815260200190815260200160002060010181905550600260008473ffffffffffffffffffffffffffffffffffffffff1673ffffffffffffffffffffffffffffffffffffffff168152602001908152602001600020600101600081546118bd9061295c565b919050819055507f6a2af11b2d73f347f9d5840aea46899e17609730b5cd91bd9c312098038acba682336040516118f5929190612904565b60405180910390a1505050565b60026020528060005260406000206000915090508060000160009054906101000a900473ffffffffffffffffffffffffffffffffffffffff16908060010154908060040160009054906101000a900460ff16905083565b8160038081111561196d5761196c6124ef565b5b600260008373ffffffffffffffffffffffffffffffffffffffff1673ffffffffffffffffffffffffffffffffffffffff16815260200190815260200160002060030160003373ffffffffffffffffffffffffffffffffffffffff1673ffffffffffffffffffffffffffffffffffffffff16815260200190815260200160002060000160009054906101000a900460ff166003811115611a0f57611a0e6124ef565b5b1480611aa8575060011515600360008373ffffffffffffffffffffffffffffffffffffffff1673ffffffffffffffffffffffffffffffffffffffff16815260200190815260200160002060003373ffffffffffffffffffffffffffffffffffffffff1673ffffffffffffffffffffffffffffffffffffffff16815260200190815260200160002060009054906101000a900460ff161515145b80611ae55750611ab6611240565b73ffffffffffffffffffffffffffffffffffffffff163373ffffffffffffffffffffffffffffffffffffffff16145b611b24576040517f08c379a0000000000000000000000000000000000000000000000000000000008152600401611b1b9061280c565b60405180910390fd5b60006003811115611b3857611b376124ef565b5b600260008573ffffffffffffffffffffffffffffffffffffffff1673ffffffffffffffffffffffffffffffffffffffff16815260200190815260200160002060030160008473ffffffffffffffffffffffffffffffffffffffff1673ffffffffffffffffffffffffffffffffffffffff16815260200190815260200160002060000160009054906101000a900460ff166003811115611bda57611bd96124ef565b5b14611c1a576040517f08c379a0000000000000000000000000000000000000000000000000000000008152600401611c1190612a83565b60405180910390fd5b6001600260008573ffffffffffffffffffffffffffffffffffffffff1673ffffffffffffffffffffffffffffffffffffffff16815260200190815260200160002060030160008473ffffffffffffffffffffffffffffffffffffffff1673ffffffffffffffffffffffffffffffffffffffff16815260200190815260200160002060000160006101000a81548160ff02191690836003811115611cc057611cbf6124ef565b5b021790555081600260008573ffffffffffffffffffffffffffffffffffffffff1673ffffffffffffffffffffffffffffffffffffffff1681526020019081526020016000206002016000600260008773ffffffffffffffffffffffffffffffffffffffff1673ffffffffffffffffffffffffffffffffffffffff16815260200190815260200160002060010154815260200190815260200160002060006101000a81548173ffffffffffffffffffffffffffffffffffffffff021916908373ffffffffffffffffffffffffffffffffffffffff16021790555042600260008573ffffffffffffffffffffffffffffffffffffffff1673ffffffffffffffffffffffffffffffffffffffff16815260200190815260200160002060030160008473ffffffffffffffffffffffffffffffffffffffff1673ffffffffffffffffffffffffffffffffffffffff16815260200190815260200160002060010181905550600260008473ffffffffffffffffffffffffffffffffffffffff1673ffffffffffffffffffffffffffffffffffffffff16815260200190815260200160002060010160008154611e6f9061295c565b919050819055507f6c246c8894ac239253d22cd508dbe8eb7e027e0589cdd4ff16dbb4238ccd98348233604051611ea7929190612904565b60405180910390a1505050565b8160011515600360008373ffffffffffffffffffffffffffffffffffffffff1673ffffffffffffffffffffffffffffffffffffffff16815260200190815260200160002060003373ffffffffffffffffffffffffffffffffffffffff1673ffffffffffffffffffffffffffffffffffffffff16815260200190815260200160002060009054906101000a900460ff1615151480611f835750611f54611240565b73ffffffffffffffffffffffffffffffffffffffff163373ffffffffffffffffffffffffffffffffffffffff16145b611fc2576040517f08c379a0000000000000000000000000000000000000000000000000000000008152600401611fb99061280c565b60405180910390fd5b6001600360008573ffffffffffffffffffffffffffffffffffffffff1673ffffffffffffffffffffffffffffffffffffffff16815260200190815260200160002060008473ffffffffffffffffffffffffffffffffffffffff1673ffffffffffffffffffffffffffffffffffffffff16815260200190815260200160002060006101000a81548160ff021916908315150217905550505050565b8160011515600360008373ffffffffffffffffffffffffffffffffffffffff1673ffffffffffffffffffffffffffffffffffffffff16815260200190815260200160002060003373ffffffffffffffffffffffffffffffffffffffff1673ffffffffffffffffffffffffffffffffffffffff16815260200190815260200160002060009054906101000a900460ff161515148061212b57506120fc611240565b73ffffffffffffffffffffffffffffffffffffffff163373ffffffffffffffffffffffffffffffffffffffff16145b61216a576040517f08c379a00000000000000000000000000000000000000000000000000000000081526004016121619061280c565b60405180910390fd5b6000600360008573ffffffffffffffffffffffffffffffffffffffff1673ffffffffffffffffffffffffffffffffffffffff16815260200190815260200160002060008473ffffffffffffffffffffffffffffffffffffffff1673ffffffffffffffffffffffffffffffffffffffff16815260200190815260200160002060006101000a81548160ff021916908315150217905550505050565b600060149054906101000a900478010000000000000000000000000000000000000000000000000281565b612237612327565b73ffffffffffffffffffffffffffffffffffffffff16612255611240565b73ffffffffffffffffffffffffffffffffffffffff16146122ab576040517f08c379a00000000000000000000000000000000000000000000000000000000081526004016122a2906129f1565b60405180910390fd5b600073ffffffffffffffffffffffffffffffffffffffff168173ffffffffffffffffffffffffffffffffffffffff16141561231b576040517f08c379a000000000000000000000000000000000000000000000000000000000815260040161231290612b15565b60405180910390fd5b6123248161232f565b50565b600033905090565b60008060009054906101000a900473ffffffffffffffffffffffffffffffffffffffff169050816000806101000a81548173ffffffffffffffffffffffffffffffffffffffff021916908373ffffffffffffffffffffffffffffffffffffffff1602179055508173ffffffffffffffffffffffffffffffffffffffff168173ffffffffffffffffffffffffffffffffffffffff167f8be0079c531659141344cd1fd0a4f28419497f9722a3daafe3b4186f6b6457e060405160405180910390a35050565b604051806040016040528060006003811115612412576124116124ef565b5b8152602001600081525090565b600080fd5b600073ffffffffffffffffffffffffffffffffffffffff82169050919050565b600061244f82612424565b9050919050565b61245f81612444565b811461246a57600080fd5b50565b60008135905061247c81612456565b92915050565b600080604083850312156124995761249861241f565b5b60006124a78582860161246d565b92505060206124b88582860161246d565b9150509250929050565b6000602082840312156124d8576124d761241f565b5b60006124e68482850161246d565b91505092915050565b7f4e487b7100000000000000000000000000000000000000000000000000000000600052602160045260246000fd5b6002811061252f5761252e6124ef565b5b50565b60008190506125408261251e565b919050565b600061255082612532565b9050919050565b61256081612545565b82525050565b600060208201905061257b6000830184612557565b92915050565b60048110612592576125916124ef565b5b50565b60008190506125a382612581565b919050565b60006125b382612595565b9050919050565b6125c3816125a8565b82525050565b6000819050919050565b6125dc816125c9565b82525050565b6040820160008201516125f860008501826125ba565b50602082015161260b60208501826125d3565b50505050565b600060408201905061262660008301846125e2565b92915050565b60007fffffffffffffffff00000000000000000000000000000000000000000000000082169050919050565b6126618161262c565b82525050565b600060208201905061267c6000830184612658565b92915050565b61268b816125c9565b82525050565b60006020820190506126a66000830184612682565b92915050565b60008115159050919050565b6126c1816126ac565b82525050565b60006020820190506126dc60008301846126b8565b92915050565b6126eb81612444565b82525050565b600060208201905061270660008301846126e2565b92915050565b612715816125c9565b811461272057600080fd5b50565b6000813590506127328161270c565b92915050565b6000806040838503121561274f5761274e61241f565b5b600061275d8582860161246d565b925050602061276e85828601612723565b9150509250929050565b600060608201905061278d60008301866126e2565b61279a6020830185612682565b6127a760408301846126b8565b949350505050565b600082825260208201905092915050565b7f4e6f7420617574686f72697a6564000000000000000000000000000000000000600082015250565b60006127f6600e836127af565b9150612801826127c0565b602082019050919050565b60006020820190508181036000830152612825816127e9565b9050919050565b7f44616f20616c7265616479206164646564000000000000000000000000000000600082015250565b60006128626011836127af565b915061286d8261282c565b602082019050919050565b6000602082019050818103600083015261289181612855565b9050919050565b7f496d706f737369626c6520746f206a6f696e0000000000000000000000000000600082015250565b60006128ce6012836127af565b91506128d982612898565b602082019050919050565b600060208201905081810360008301526128fd816128c1565b9050919050565b600060408201905061291960008301856126e2565b61292660208301846126e2565b9392505050565b7f4e487b7100000000000000000000000000000000000000000000000000000000600052601160045260246000fd5b6000612967826125c9565b91507fffffffffffffffffffffffffffffffffffffffffffffffffffffffffffffffff82141561299a5761299961292d565b5b600182019050919050565b7f4f776e61626c653a2063616c6c6572206973206e6f7420746865206f776e6572600082015250565b60006129db6020836127af565b91506129e6826129a5565b602082019050919050565b60006020820190508181036000830152612a0a816129ce565b9050919050565b7f496e76616c6964204d656d6265723a206d757374206265206e6f742061206d6560008201527f6d62657200000000000000000000000000000000000000000000000000000000602082015250565b6000612a6d6024836127af565b9150612a7882612a11565b604082019050919050565b60006020820190508181036000830152612a9c81612a60565b9050919050565b7f4f776e61626c653a206e6577206f776e657220697320746865207a65726f206160008201527f6464726573730000000000000000000000000000000000000000000000000000602082015250565b6000612aff6026836127af565b9150612b0a82612aa3565b604082019050919050565b60006020820190508181036000830152612b2e81612af2565b905091905056fea2646970667358221220f6c6b4dd9d8a8fff7e72e43a4b33cf6c3bcb0eacaefa2ce93c7daae37116be8564736f6c63430008090033",
  "immutableReferences": {},
  "source": "// SPDX-License-Identifier: MIT\npragma solidity ^0.8.9;\n\nimport \"@openzeppelin/contracts/utils/math/SafeMath.sol\";\nimport \"@openzeppelin/contracts/access/Ownable.sol\";\nimport \"../../Data.sol\";\nimport \"../../DaoBase.sol\";\n\n\n/**\n* @title InviteMembershipModule\n* @author chixx.eth & mourad\n* @notice module membership \n*/\ncontract InviteMembershipModule is Ownable {\n    using SafeMath for uint256;\n\n    /// @notice store the module code hash\n    bytes8 public moduleCode = bytes8(keccak256(abi.encode(\"InviteMembershipModule\")));\n\n    /// @notice store the module type hash\n    bytes8 public moduleType = bytes8(keccak256(abi.encode(\"MemberModule\")));\n\n    /// @notice visibility of the members in MY-DAO\n    Data.visibilityEnum public visibility;\n\n    /**\n    * @notice store daos info\n    * @dev param address is address of the daoBase. return daoMember struct\n    */\n    mapping(address => Data.DaoMember) public daos;\n\n    /**\n    * @notice store daos info\n    * @dev param address is address of the daoBase. return daoMember struct\n    */\n    mapping(address => mapping(address => bool)) public authorizedAddress;\n    event MemberAdded(address newMember, address adderAddress);\n    event MemberAccepted(address newMember, address acceptorAddress);\n    event MemberInvited(address memberInvited, address memberInvitor);\n    event MemberJoined(address memberJoined);\n    event MemberAskedJoin(address memberRequestor);\n\n    /**\n    * @notice constructor change the owner to be the DaosFactory\n    * @dev param 0 address of the DaosFactory\n    */\n    constructor(address _contractFactory) {\n        _transferOwnership(_contractFactory);\n    }\n\n    /**\n    * @notice check msg.sender is member or authorized\n    * @dev param 0 address of the DaosFactory\n    */\n    modifier onlyActiveMembersOrAuthorizeAddress(address _contractDao) {\n        require(daos[_contractDao].members[msg.sender].status == Data.memberStatus.active\n        || authorizedAddress[_contractDao][msg.sender] == true\n        || msg.sender == owner(), \"Not authorized\");\n        _;\n    }\n\n    /**\n    * @notice check msg.sender is not a member\n    * @dev param 0 address of the DaosFactory\n    */\n    modifier onlyNotActiveMembers(address _contractDao) {\n        require(daos[_contractDao].members[msg.sender].status != Data.memberStatus.active, \"Not authorized\");\n        _;\n    }\n\n    /**\n    * @notice check msg.sender is authorized\n    * @dev param 0 address of the DaosFactory\n    */\n    modifier onlyAuthorizeAddress(address _contractDao) {\n        require(authorizedAddress[_contractDao][msg.sender] == true, \"Not authorized\");\n        _;\n    }\n\n    /**\n    * @notice check msg.sender is authorized or the owner\n    * @dev param 0 address of the DaosFactory\n    */\n    modifier onlyAuthorizeAddressOrOwner(address _contractDao) {\n        require(authorizedAddress[_contractDao][msg.sender] == true || msg.sender == owner(), \"Not authorized\");\n        _;\n    }\n\n    /**\n    * @notice get info of a member in a dao\n    * @param _contractDao address of the dao\n    * @param _member address of the member\n    * @return member struct taht store info of the member see ../../Data.sol\n    */\n    function getMemberInfo(address _contractDao, address _member) external view returns(Data.member memory) {\n        return(daos[_contractDao].members[_member]);\n    }\n\n    /**\n    * @notice get address of a member in a dao by his id\n    * @param _contractDao address of the dao\n    * @param _id id of the member\n    * @return member address of the member\n    */\n    function getAddrById(address _contractDao, uint256 _id) external view returns(address) {\n        return daos[_contractDao].memberAddresses[_id];\n    }\n\n    /**\n    * @notice get the total member of the dao\n    * @param _contractDao address of the dao\n    * @return count uint256 of the total member in the dao\n    */\n    function getMembersCount(address _contractDao) external view returns(uint256) {\n        return daos[_contractDao].membersCount;\n    }\n\n    /**\n    * @notice add member to the dao\n    * @dev only active member or authorized address can execute this function\n    * @param _contractDao address of the dao\n    * @param _addressMember address of the user that will be added\n    */\n    function addMember(address _contractDao, address _addressMember) public onlyActiveMembersOrAuthorizeAddress(_contractDao) {\n        require(daos[_contractDao].members[_addressMember].status == Data.memberStatus.notMember\n            , \"Invalid Member: must be not a member\");\n        daos[_contractDao].members[_addressMember].status = Data.memberStatus.active;\n        daos[_contractDao].memberAddresses[daos[_contractDao].membersCount] = _addressMember;\n        daos[_contractDao].members[_addressMember].joinTime = block.timestamp;\n        ++daos[_contractDao].membersCount;\n        emit MemberAdded(_addressMember, msg.sender);\n    }\n\n    /**\n    * @notice accept member to the dao\n    * @dev only active member or authorized address can execute this function\n    * @param _contractDao address of the dao\n    * @param _addressMember address of the user that will be accepted\n    */\n    function acceptMember(address _contractDao, address _addressMember) public onlyActiveMembersOrAuthorizeAddress(_contractDao) {\n        daos[_contractDao].members[_addressMember].status = Data.memberStatus.active;\n        emit MemberAccepted(_addressMember, msg.sender);\n    }\n\n    /**\n    * @notice invite member to the dao\n    * @dev only active member or authorized address can execute this function\n    * @param _contractDao address of the dao\n    * @param _addressMember address of the user that will be invited\n    */\n    function inviteMember(address _contractDao, address _addressMember) public onlyActiveMembersOrAuthorizeAddress(_contractDao) {\n        require(daos[_contractDao].members[_addressMember].status == Data.memberStatus.notMember\n            , \"Invalid Member: must be not a member\");\n        daos[_contractDao].members[_addressMember].status = Data.memberStatus.invited;\n        daos[_contractDao].memberAddresses[daos[_contractDao].membersCount] = _addressMember;\n        daos[_contractDao].members[_addressMember].joinTime = block.timestamp;\n        ++daos[_contractDao].membersCount;\n        emit MemberInvited(_addressMember, msg.sender);\n    }\n\n    /**\n    * @notice request to be a member of the dao\n    * @dev only not active member can execute this function\n    * @param _contractDao address of the dao\n    */\n    function requestJoin(address _contractDao) public onlyNotActiveMembers(_contractDao) {\n        daos[_contractDao].members[msg.sender].status = Data.memberStatus.asking;\n        daos[_contractDao].memberAddresses[daos[_contractDao].membersCount] = msg.sender;\n        daos[_contractDao].members[msg.sender].joinTime = block.timestamp;\n        ++daos[_contractDao].membersCount;\n        emit MemberAskedJoin(msg.sender);\n    }\n\n    /**\n    * @notice return if a address is member of a dao\n    * @param _contractDao address of the dao\n    * @param _addressMember address of the user to check\n    */\n    function isActiveMember(address _contractDao, address _addressMember) public view returns (bool){\n        return daos[_contractDao].members[_addressMember].status == Data.memberStatus.active;\n    }\n\n    /**\n    * @notice join a dao\n    * @dev only not active member can execute this function\n    * @param _contractDao address of the dao\n    */\n    function join(address _contractDao) public onlyNotActiveMembers(_contractDao) {\n        require((daos[_contractDao].members[msg.sender].status == Data.memberStatus.invited)\n                , \"Impossible to join\");\n        daos[_contractDao].members[msg.sender].status = Data.memberStatus.active;\n        emit MemberJoined(msg.sender);\n    }\n\n    /**\n    * @notice link a dao to SimpleDonationsModule\n    * @param _contractDao address of the dao\n    * @param _memberDao address of the user of the dao in this case the owner of the dao\n    */\n    function addDao(address _contractDao, address _memberDao) external onlyAuthorizeAddressOrOwner(_contractDao) {\n        require(!daos[_contractDao].isActive, \"Dao already added\");\n        daos[_contractDao].isActive = true;\n        daos[_contractDao].addressDao = _contractDao;\n        addMember(_contractDao, _memberDao);\n        authorizedAddress[_contractDao][_memberDao] = true;\n    }\n\n    /**\n    * @notice authorize a new address\n    * @param _contractDao address of the dao\n    * @param _contractAddress address that will be authorized\n    */\n    function authorizeAddress(address _contractDao, address _contractAddress) external onlyAuthorizeAddressOrOwner(_contractDao) {\n        authorizedAddress[_contractDao][_contractAddress] = true;\n    }\n\n    /**\n    * @notice deny a authorized address\n    * @param _contractDao address of the dao\n    * @param _contractAddress address that will be deny\n    */\n    function denyAddress(address _contractDao, address _contractAddress) external onlyAuthorizeAddressOrOwner(_contractDao) {\n        authorizedAddress[_contractDao][_contractAddress] = false;\n    }\n}",
  "sourcePath": "/Users/chinoiserie/delivery/BLOCKCHAIN/Alyra/MY-DAO/contracts/Modules/Implementations/InviteMembershipModule.sol",
  "compiler": {
    "name": "solc",
    "version": "0.8.9+commit.e5eed63a.Emscripten.clang"
  },
  "schemaVersion": "3.2.0",
  "updatedAt": "2022-05-22T18:00:22.307Z",
  "networkType": "ethereum",
  "devdoc": {
    "author": "chixx.eth & mourad",
    "kind": "dev",
    "methods": {
      "acceptMember(address,address)": {
        "details": "only active member or authorized address can execute this function",
        "params": {
          "_addressMember": "address of the user that will be accepted",
          "_contractDao": "address of the dao"
        }
      },
      "addDao(address,address)": {
        "params": {
          "_contractDao": "address of the dao",
          "_memberDao": "address of the user of the dao in this case the owner of the dao"
        }
      },
      "addMember(address,address)": {
        "details": "only active member or authorized address can execute this function",
        "params": {
          "_addressMember": "address of the user that will be added",
          "_contractDao": "address of the dao"
        }
      },
      "authorizeAddress(address,address)": {
        "params": {
          "_contractAddress": "address that will be authorized",
          "_contractDao": "address of the dao"
        }
      },
      "constructor": {
        "details": "param 0 address of the DaosFactory"
      },
      "denyAddress(address,address)": {
        "params": {
          "_contractAddress": "address that will be deny",
          "_contractDao": "address of the dao"
        }
      },
      "getAddrById(address,uint256)": {
        "params": {
          "_contractDao": "address of the dao",
          "_id": "id of the member"
        },
        "returns": {
          "_0": "member address of the member"
        }
      },
      "getMemberInfo(address,address)": {
        "params": {
          "_contractDao": "address of the dao",
          "_member": "address of the member"
        },
        "returns": {
          "_0": "member struct taht store info of the member see ../../Data.sol"
        }
      },
      "getMembersCount(address)": {
        "params": {
          "_contractDao": "address of the dao"
        },
        "returns": {
          "_0": "count uint256 of the total member in the dao"
        }
      },
      "inviteMember(address,address)": {
        "details": "only active member or authorized address can execute this function",
        "params": {
          "_addressMember": "address of the user that will be invited",
          "_contractDao": "address of the dao"
        }
      },
      "isActiveMember(address,address)": {
        "params": {
          "_addressMember": "address of the user to check",
          "_contractDao": "address of the dao"
        }
      },
      "join(address)": {
        "details": "only not active member can execute this function",
        "params": {
          "_contractDao": "address of the dao"
        }
      },
      "owner()": {
        "details": "Returns the address of the current owner."
      },
      "renounceOwnership()": {
        "details": "Leaves the contract without owner. It will not be possible to call `onlyOwner` functions anymore. Can only be called by the current owner. NOTE: Renouncing ownership will leave the contract without an owner, thereby removing any functionality that is only available to the owner."
      },
      "requestJoin(address)": {
        "details": "only not active member can execute this function",
        "params": {
          "_contractDao": "address of the dao"
        }
      },
      "transferOwnership(address)": {
        "details": "Transfers ownership of the contract to a new account (`newOwner`). Can only be called by the current owner."
      }
    },
    "stateVariables": {
      "authorizedAddress": {
        "details": "param address is address of the daoBase. return daoMember struct"
      },
      "daos": {
        "details": "param address is address of the daoBase. return daoMember struct"
      }
    },
    "title": "InviteMembershipModule",
    "version": 1
  },
  "userdoc": {
    "kind": "user",
    "methods": {
      "acceptMember(address,address)": {
        "notice": "accept member to the dao"
      },
      "addDao(address,address)": {
        "notice": "link a dao to SimpleDonationsModule"
      },
      "addMember(address,address)": {
        "notice": "add member to the dao"
      },
      "authorizeAddress(address,address)": {
        "notice": "authorize a new address"
      },
      "authorizedAddress(address,address)": {
        "notice": "store daos info"
      },
      "constructor": {
        "notice": "constructor change the owner to be the DaosFactory"
      },
      "daos(address)": {
        "notice": "store daos info"
      },
      "denyAddress(address,address)": {
        "notice": "deny a authorized address"
      },
      "getAddrById(address,uint256)": {
        "notice": "get address of a member in a dao by his id"
      },
      "getMemberInfo(address,address)": {
        "notice": "get info of a member in a dao"
      },
      "getMembersCount(address)": {
        "notice": "get the total member of the dao"
      },
      "inviteMember(address,address)": {
        "notice": "invite member to the dao"
      },
      "isActiveMember(address,address)": {
        "notice": "return if a address is member of a dao"
      },
      "join(address)": {
        "notice": "join a dao"
      },
      "moduleCode()": {
        "notice": "store the module code hash"
      },
      "moduleType()": {
        "notice": "store the module type hash"
      },
      "requestJoin(address)": {
        "notice": "request to be a member of the dao"
      },
      "visibility()": {
        "notice": "visibility of the members in MY-DAO"
      }
    },
    "notice": "module membership ",
    "version": 1
  }
}