{
  "contractName": "InviteDao",
  "abi": [
    {
      "inputs": [
        {
          "internalType": "address",
          "name": "_owner",
          "type": "address"
        },
        {
          "internalType": "bool",
          "name": "_visibility",
          "type": "bool"
        },
        {
          "internalType": "bool",
          "name": "_firedOption",
          "type": "bool"
        }
      ],
      "stateMutability": "nonpayable",
      "type": "constructor"
    },
    {
      "anonymous": false,
      "inputs": [
        {
          "indexed": false,
          "internalType": "address",
          "name": "memberAsked",
          "type": "address"
        }
      ],
      "name": "MemberAsked",
      "type": "event"
    },
    {
      "anonymous": false,
      "inputs": [
        {
          "indexed": false,
          "internalType": "address",
          "name": "memberFired",
          "type": "address"
        },
        {
          "indexed": false,
          "internalType": "address",
          "name": "firerer",
          "type": "address"
        }
      ],
      "name": "MemberFired",
      "type": "event"
    },
    {
      "anonymous": false,
      "inputs": [
        {
          "indexed": false,
          "internalType": "address",
          "name": "memberInvited",
          "type": "address"
        },
        {
          "indexed": false,
          "internalType": "address",
          "name": "inviter",
          "type": "address"
        }
      ],
      "name": "MemberInvites",
      "type": "event"
    },
    {
      "anonymous": false,
      "inputs": [
        {
          "indexed": false,
          "internalType": "address",
          "name": "memberJoined",
          "type": "address"
        },
        {
          "indexed": false,
          "internalType": "uint256",
          "name": "time",
          "type": "uint256"
        }
      ],
      "name": "MemberJoined",
      "type": "event"
    },
    {
      "anonymous": false,
      "inputs": [
        {
          "components": [
            {
              "internalType": "address",
              "name": "user",
              "type": "address"
            },
            {
              "internalType": "uint256",
              "name": "id",
              "type": "uint256"
            },
            {
              "internalType": "uint256",
              "name": "joinTime",
              "type": "uint256"
            },
            {
              "internalType": "enum InviteDao.memberStatus",
              "name": "status",
              "type": "uint8"
            }
          ],
          "indexed": false,
          "internalType": "struct InviteDao.member",
          "name": "user",
          "type": "tuple"
        }
      ],
      "name": "SetMember",
      "type": "event"
    },
    {
      "inputs": [],
      "name": "firedOption",
      "outputs": [
        {
          "internalType": "bool",
          "name": "",
          "type": "bool"
        }
      ],
      "stateMutability": "view",
      "type": "function"
    },
    {
      "inputs": [],
      "name": "visibility",
      "outputs": [
        {
          "internalType": "bool",
          "name": "",
          "type": "bool"
        }
      ],
      "stateMutability": "view",
      "type": "function"
    },
    {
      "inputs": [
        {
          "internalType": "bool",
          "name": "_newVisibility",
          "type": "bool"
        }
      ],
      "name": "setVisibility",
      "outputs": [],
      "stateMutability": "nonpayable",
      "type": "function"
    },
    {
      "inputs": [
        {
          "internalType": "uint256",
          "name": "_id",
          "type": "uint256"
        }
      ],
      "name": "getUserInfo",
      "outputs": [
        {
          "components": [
            {
              "internalType": "address",
              "name": "user",
              "type": "address"
            },
            {
              "internalType": "uint256",
              "name": "id",
              "type": "uint256"
            },
            {
              "internalType": "uint256",
              "name": "joinTime",
              "type": "uint256"
            },
            {
              "internalType": "enum InviteDao.memberStatus",
              "name": "status",
              "type": "uint8"
            }
          ],
          "internalType": "struct InviteDao.member",
          "name": "_member",
          "type": "tuple"
        }
      ],
      "stateMutability": "view",
      "type": "function"
    },
    {
      "inputs": [],
      "name": "joinDao",
      "outputs": [],
      "stateMutability": "nonpayable",
      "type": "function"
    },
    {
      "inputs": [],
      "name": "askToJoin",
      "outputs": [],
      "stateMutability": "nonpayable",
      "type": "function"
    },
    {
      "inputs": [
        {
          "internalType": "address",
          "name": "_user",
          "type": "address"
        }
      ],
      "name": "validAsk",
      "outputs": [],
      "stateMutability": "nonpayable",
      "type": "function"
    },
    {
      "inputs": [
        {
          "internalType": "address",
          "name": "_member",
          "type": "address"
        }
      ],
      "name": "inviteMember",
      "outputs": [],
      "stateMutability": "nonpayable",
      "type": "function"
    },
    {
      "inputs": [
        {
          "internalType": "address",
          "name": "_member",
          "type": "address"
        }
      ],
      "name": "fireMember",
      "outputs": [],
      "stateMutability": "nonpayable",
      "type": "function"
    }
  ],
  "bytecode": "0x608060405260006001553480156200001657600080fd5b50604051620015db380380620015db83398181016040528101906200003c919062000377565b620000466200027d565b826000806101000a81548160ff02191690831515021790555081600060016101000a81548160ff0219169083151502179055506001600260003373ffffffffffffffffffffffffffffffffffffffff1673ffffffffffffffffffffffffffffffffffffffff16815260200190815260200160002060006101000a81548160ff0219169083151502179055506001600260008673ffffffffffffffffffffffffffffffffffffffff1673ffffffffffffffffffffffffffffffffffffffff16815260200190815260200160002060006101000a81548160ff02191690831515021790555083816000019073ffffffffffffffffffffffffffffffffffffffff16908173ffffffffffffffffffffffffffffffffffffffff168152505042816040018181525050600381606001906003811115620001875762000186620003d3565b5b908160038111156200019e576200019d620003d3565b5b8152505080600460008673ffffffffffffffffffffffffffffffffffffffff1673ffffffffffffffffffffffffffffffffffffffff16815260200190815260200160002060008201518160000160006101000a81548173ffffffffffffffffffffffffffffffffffffffff021916908373ffffffffffffffffffffffffffffffffffffffff160217905550602082015181600101556040820151816002015560608201518160030160006101000a81548160ff021916908360038111156200026b576200026a620003d3565b5b02179055509050505050505062000402565b6040518060800160405280600073ffffffffffffffffffffffffffffffffffffffff168152602001600081526020016000815260200160006003811115620002ca57620002c9620003d3565b5b81525090565b600080fd5b600073ffffffffffffffffffffffffffffffffffffffff82169050919050565b60006200030282620002d5565b9050919050565b6200031481620002f5565b81146200032057600080fd5b50565b600081519050620003348162000309565b92915050565b60008115159050919050565b62000351816200033a565b81146200035d57600080fd5b50565b600081519050620003718162000346565b92915050565b600080600060608486031215620003935762000392620002d0565b5b6000620003a38682870162000323565b9350506020620003b68682870162000360565b9250506040620003c98682870162000360565b9150509250925092565b7f4e487b7100000000000000000000000000000000000000000000000000000000600052602160045260246000fd5b6111c980620004126000396000f3fe608060405234801561001057600080fd5b50600436106100b0576000357c010000000000000000000000000000000000000000000000000000000090048063b6ceb1a811610083578063b6ceb1a814610127578063d379dadf14610145578063dd24cb9414610175578063dd61fc8914610191578063e8a7d3551461019b576100b0565b806328c30c07146100b557806329adec14146100d15780632f890b93146100ef578063352803de1461010b575b600080fd5b6100cf60048036038101906100ca9190610d5d565b6101a5565b005b6100d9610254565b6040516100e69190610d99565b60405180910390f35b61010960048036038101906101049190610e12565b610265565b005b61012560048036038101906101209190610e12565b610474565b005b61012f610740565b60405161013c9190610d99565b60405180910390f35b61015f600480360381019061015a9190610e75565b610753565b60405161016c9190610f8c565b60405180910390f35b61018f600480360381019061018a9190610e12565b610884565b005b610199610a14565b005b6101a3610c03565b005b60011515600260003373ffffffffffffffffffffffffffffffffffffffff1673ffffffffffffffffffffffffffffffffffffffff16815260200190815260200160002060009054906101000a900460ff16151514610238576040517f08c379a000000000000000000000000000000000000000000000000000000000815260040161022f90611004565b60405180910390fd5b806000806101000a81548160ff02191690831515021790555050565b60008054906101000a900460ff1681565b60011515600260003373ffffffffffffffffffffffffffffffffffffffff1673ffffffffffffffffffffffffffffffffffffffff16815260200190815260200160002060009054906101000a900460ff161515146102f8576040517f08c379a00000000000000000000000000000000000000000000000000000000081526004016102ef90611004565b60405180910390fd5b610300610cd0565b81816000019073ffffffffffffffffffffffffffffffffffffffff16908173ffffffffffffffffffffffffffffffffffffffff168152505060018160600190600381111561035157610350610ec0565b5b9081600381111561036557610364610ec0565b5b8152505080600460008473ffffffffffffffffffffffffffffffffffffffff1673ffffffffffffffffffffffffffffffffffffffff16815260200190815260200160002060008201518160000160006101000a81548173ffffffffffffffffffffffffffffffffffffffff021916908373ffffffffffffffffffffffffffffffffffffffff160217905550602082015181600101556040820151816002015560608201518160030160006101000a81548160ff0219169083600381111561042f5761042e610ec0565b5b02179055509050507f612e7957b5e9d0b30e770e4ddb350e85f5a5353e1bfda2027871f90dd96518e58233604051610468929190611033565b60405180910390a15050565b60011515600260003373ffffffffffffffffffffffffffffffffffffffff1673ffffffffffffffffffffffffffffffffffffffff16815260200190815260200160002060009054906101000a900460ff16151514610507576040517f08c379a00000000000000000000000000000000000000000000000000000000081526004016104fe90611004565b60405180910390fd5b6000600460008373ffffffffffffffffffffffffffffffffffffffff1673ffffffffffffffffffffffffffffffffffffffff1681526020019081526020016000206040518060800160405290816000820160009054906101000a900473ffffffffffffffffffffffffffffffffffffffff1673ffffffffffffffffffffffffffffffffffffffff1673ffffffffffffffffffffffffffffffffffffffff16815260200160018201548152602001600282015481526020016003820160009054906101000a900460ff1660038111156105e2576105e1610ec0565b5b60038111156105f4576105f3610ec0565b5b8152505090504281604001818152505060038160600190600381111561061d5761061c610ec0565b5b9081600381111561063157610630610ec0565b5b8152505080600460008473ffffffffffffffffffffffffffffffffffffffff1673ffffffffffffffffffffffffffffffffffffffff16815260200190815260200160002060008201518160000160006101000a81548173ffffffffffffffffffffffffffffffffffffffff021916908373ffffffffffffffffffffffffffffffffffffffff160217905550602082015181600101556040820151816002015560608201518160030160006101000a81548160ff021916908360038111156106fb576106fa610ec0565b5b02179055509050507f7f3b9effe05cfb4f31f854004de03199fd03fe56bf38a48b2aa9a9f4402d6e23824260405161073492919061106b565b60405180910390a15050565b600060019054906101000a900460ff1681565b61075b610cd0565b600460006003600085815260200190815260200160002060009054906101000a900473ffffffffffffffffffffffffffffffffffffffff1673ffffffffffffffffffffffffffffffffffffffff1673ffffffffffffffffffffffffffffffffffffffff1681526020019081526020016000206040518060800160405290816000820160009054906101000a900473ffffffffffffffffffffffffffffffffffffffff1673ffffffffffffffffffffffffffffffffffffffff1673ffffffffffffffffffffffffffffffffffffffff16815260200160018201548152602001600282015481526020016003820160009054906101000a900460ff16600381111561086757610866610ec0565b5b600381111561087957610878610ec0565b5b815250509050919050565b60011515600260003373ffffffffffffffffffffffffffffffffffffffff1673ffffffffffffffffffffffffffffffffffffffff16815260200190815260200160002060009054906101000a900460ff16151514610917576040517f08c379a000000000000000000000000000000000000000000000000000000000815260040161090e90611004565b60405180910390fd5b60011515600060019054906101000a900460ff1615151461096d576040517f08c379a0000000000000000000000000000000000000000000000000000000008152600401610964906110e0565b60405180910390fd5b6000600460008373ffffffffffffffffffffffffffffffffffffffff1673ffffffffffffffffffffffffffffffffffffffff16815260200190815260200160002060030160006101000a81548160ff021916908360038111156109d3576109d2610ec0565b5b02179055507f9118cfc640df74db8b314e53278c5986c33d4740d72a82a80b9e5ed8223b069d8133604051610a09929190611033565b60405180910390a150565b610a1c610cd0565b60016003811115610a3057610a2f610ec0565b5b600460003373ffffffffffffffffffffffffffffffffffffffff1673ffffffffffffffffffffffffffffffffffffffff16815260200190815260200160002060030160009054906101000a900460ff166003811115610a9257610a91610ec0565b5b14610a9c57600080fd5b60015481602001818152505042816040018181525050600381606001906003811115610acb57610aca610ec0565b5b90816003811115610adf57610ade610ec0565b5b8152505080600460003373ffffffffffffffffffffffffffffffffffffffff1673ffffffffffffffffffffffffffffffffffffffff16815260200190815260200160002060008201518160000160006101000a81548173ffffffffffffffffffffffffffffffffffffffff021916908373ffffffffffffffffffffffffffffffffffffffff160217905550602082015181600101556040820151816002015560608201518160030160006101000a81548160ff02191690836003811115610ba957610ba8610ec0565b5b0217905550905050600160008154610bc09061112f565b919050819055507f7f3b9effe05cfb4f31f854004de03199fd03fe56bf38a48b2aa9a9f4402d6e233342604051610bf892919061106b565b60405180910390a150565b610c0b610cd0565b60015481602001818152505033816000019073ffffffffffffffffffffffffffffffffffffffff16908173ffffffffffffffffffffffffffffffffffffffff1681525050600281606001906003811115610c6857610c67610ec0565b5b90816003811115610c7c57610c7b610ec0565b5b81525050600160008154610c8f9061112f565b919050819055507f6b7d2f16d8b582e66ce10439b6facac9b26ce24c34f692e3bfa6d97fa2cc9c2733604051610cc59190611178565b60405180910390a150565b6040518060800160405280600073ffffffffffffffffffffffffffffffffffffffff168152602001600081526020016000815260200160006003811115610d1a57610d19610ec0565b5b81525090565b600080fd5b60008115159050919050565b610d3a81610d25565b8114610d4557600080fd5b50565b600081359050610d5781610d31565b92915050565b600060208284031215610d7357610d72610d20565b5b6000610d8184828501610d48565b91505092915050565b610d9381610d25565b82525050565b6000602082019050610dae6000830184610d8a565b92915050565b600073ffffffffffffffffffffffffffffffffffffffff82169050919050565b6000610ddf82610db4565b9050919050565b610def81610dd4565b8114610dfa57600080fd5b50565b600081359050610e0c81610de6565b92915050565b600060208284031215610e2857610e27610d20565b5b6000610e3684828501610dfd565b91505092915050565b6000819050919050565b610e5281610e3f565b8114610e5d57600080fd5b50565b600081359050610e6f81610e49565b92915050565b600060208284031215610e8b57610e8a610d20565b5b6000610e9984828501610e60565b91505092915050565b610eab81610dd4565b82525050565b610eba81610e3f565b82525050565b7f4e487b7100000000000000000000000000000000000000000000000000000000600052602160045260246000fd5b60048110610f0057610eff610ec0565b5b50565b6000819050610f1182610eef565b919050565b6000610f2182610f03565b9050919050565b610f3181610f16565b82525050565b608082016000820151610f4d6000850182610ea2565b506020820151610f606020850182610eb1565b506040820151610f736040850182610eb1565b506060820151610f866060850182610f28565b50505050565b6000608082019050610fa16000830184610f37565b92915050565b600082825260208201905092915050565b7f4661696c6564207520617265206e6f7420746865206f776e6572000000000000600082015250565b6000610fee601a83610fa7565b9150610ff982610fb8565b602082019050919050565b6000602082019050818103600083015261101d81610fe1565b9050919050565b61102d81610dd4565b82525050565b60006040820190506110486000830185611024565b6110556020830184611024565b9392505050565b61106581610e3f565b82525050565b60006040820190506110806000830185611024565b61108d602083018461105c565b9392505050565b7f4976616c6964204f7074696f6e00000000000000000000000000000000000000600082015250565b60006110ca600d83610fa7565b91506110d582611094565b602082019050919050565b600060208201905081810360008301526110f9816110bd565b9050919050565b7f4e487b7100000000000000000000000000000000000000000000000000000000600052601160045260246000fd5b600061113a82610e3f565b91507fffffffffffffffffffffffffffffffffffffffffffffffffffffffffffffffff82141561116d5761116c611100565b5b600182019050919050565b600060208201905061118d6000830184611024565b9291505056fea2646970667358221220f918e08078e24122c59494f9b25bb2a123c403316fb0984bd8f91c1a96c4c9db64736f6c63430008090033",
  "immutableReferences": {},
  "source": "// SPDX-License-Identifier: MIT\r\npragma solidity ^0.8.9;\r\n\r\n// invite DAO simple methods with mapping for identifier\r\n\r\ncontract InviteDao {\r\n  // address[] public owners;\r\n  bool public visibility;\r\n  bool public firedOption;\r\n  uint256 id = 0;\r\n\r\n  mapping(address => bool) owners;\r\n  mapping(uint256 => address) addrById;\r\n  mapping(address => member) users;\r\n\r\n  struct member {\r\n    address user;\r\n    uint256 id;\r\n    uint256 joinTime;\r\n    memberStatus status;\r\n  }\r\n  enum memberStatus {\r\n    notMember,\r\n    invited,\r\n    asking,\r\n    active\r\n  }\r\n\r\n  event SetMember(member user);\r\n  event MemberJoined(address memberJoined, uint256 time);\r\n  event MemberInvites(address memberInvited, address inviter);\r\n  event MemberFired(address memberFired, address firerer);\r\n  event MemberAsked(address memberAsked);\r\n\r\n  constructor(address _owner, bool _visibility, bool _firedOption) {\r\n    member memory _user;\r\n    visibility = _visibility;\r\n    firedOption = _firedOption;\r\n    owners[msg.sender] = true;\r\n    owners[_owner] = true;\r\n    _user.user = _owner;\r\n    _user.joinTime = block.timestamp;\r\n    _user.status = memberStatus.active;\r\n    users[_owner] = _user;\r\n  }\r\n\r\n  modifier onlyOwners() {\r\n    require(owners[msg.sender] == true, \"Failed u are not the owner\");\r\n    _;\r\n  }\r\n  //set functions\r\n  function setVisibility(bool _newVisibility) external onlyOwners() {\r\n    visibility = _newVisibility;\r\n  }\r\n  function getUserInfo(uint256 _id) external view returns (member memory _member){\r\n    return (users[addrById[_id]]);\r\n  }\r\n\r\n  function joinDao() public {\r\n    member memory user;\r\n    require(users[msg.sender].status == memberStatus.invited);\r\n    user.id = id;\r\n    user.joinTime = block.timestamp;\r\n    user.status = memberStatus.active;\r\n    users[msg.sender] = user;\r\n    ++id;\r\n    emit MemberJoined(msg.sender, block.timestamp);\r\n  }\r\n\r\n  function askToJoin() external {\r\n    member memory user;\r\n    user.id = id;\r\n    user.user = msg.sender;\r\n    user.status = memberStatus.asking;\r\n    ++id;\r\n    emit MemberAsked(msg.sender);\r\n  }\r\n  function validAsk(address _user) external onlyOwners() {\r\n    member memory user = users[_user];\r\n    user.joinTime = block.timestamp;\r\n    user.status = memberStatus.active;\r\n    users[_user] = user;\r\n    emit MemberJoined(_user, block.timestamp);\r\n  }\r\n\r\n  function inviteMember(address _member) public onlyOwners() {\r\n    member memory user;\r\n    user.user = _member;\r\n    user.status = memberStatus.invited;\r\n    users[_member] = user;\r\n    emit MemberInvites(_member, msg.sender);\r\n  }\r\n  function fireMember(address _member) public onlyOwners() {\r\n    require(firedOption == true, \"Ivalid Option\");\r\n    users[_member].status = memberStatus.notMember;\r\n    emit MemberFired(_member, msg.sender);\r\n  }\r\n}",
  "sourcePath": "C:\\Users\\mdmou\\source\\repos\\MY-DAO\\contracts\\Daos\\InviteDao.sol",
  "compiler": {
    "name": "solc",
    "version": "0.8.9+commit.e5eed63a.Emscripten.clang"
  },
  "schemaVersion": "3.4.4",
  "updatedAt": "2022-05-09T22:28:13.166Z",
  "devdoc": {
    "kind": "dev",
    "methods": {},
    "version": 1
  },
  "userdoc": {
    "kind": "user",
    "methods": {},
    "version": 1
  }
}