{
  "contractName": "InviteMembershipModule",
  "abi": [
    {
      "anonymous": false,
      "inputs": [
        {
          "indexed": false,
          "internalType": "address",
          "name": "newMember",
          "type": "address"
        },
        {
          "indexed": false,
          "internalType": "address",
          "name": "acceptorAddress",
          "type": "address"
        }
      ],
      "name": "MemberAccepted",
      "type": "event"
    },
    {
      "anonymous": false,
      "inputs": [
        {
          "indexed": false,
          "internalType": "address",
          "name": "newMember",
          "type": "address"
        },
        {
          "indexed": false,
          "internalType": "address",
          "name": "adderAddress",
          "type": "address"
        }
      ],
      "name": "MemberAdded",
      "type": "event"
    },
    {
      "anonymous": false,
      "inputs": [
        {
          "indexed": false,
          "internalType": "address",
          "name": "memberRequestor",
          "type": "address"
        }
      ],
      "name": "MemberAskedJoin",
      "type": "event"
    },
    {
      "anonymous": false,
      "inputs": [
        {
          "indexed": false,
          "internalType": "address",
          "name": "memberInvited",
          "type": "address"
        },
        {
          "indexed": false,
          "internalType": "address",
          "name": "memberInvitor",
          "type": "address"
        }
      ],
      "name": "MemberInvited",
      "type": "event"
    },
    {
      "anonymous": false,
      "inputs": [
        {
          "indexed": false,
          "internalType": "address",
          "name": "memberJoined",
          "type": "address"
        }
      ],
      "name": "MemberJoined",
      "type": "event"
    },
    {
      "anonymous": false,
      "inputs": [
        {
          "indexed": true,
          "internalType": "address",
          "name": "previousOwner",
          "type": "address"
        },
        {
          "indexed": true,
          "internalType": "address",
          "name": "newOwner",
          "type": "address"
        }
      ],
      "name": "OwnershipTransferred",
      "type": "event"
    },
    {
      "inputs": [
        {
          "internalType": "address",
          "name": "",
          "type": "address"
        }
      ],
      "name": "daos",
      "outputs": [
        {
          "internalType": "address",
          "name": "addressDao",
          "type": "address"
        },
        {
          "internalType": "uint256",
          "name": "membersCount",
          "type": "uint256"
        },
        {
          "internalType": "bool",
          "name": "isActive",
          "type": "bool"
        }
      ],
      "stateMutability": "view",
      "type": "function",
      "constant": true
    },
    {
      "inputs": [],
      "name": "moduleCode",
      "outputs": [
        {
          "internalType": "bytes8",
          "name": "",
          "type": "bytes8"
        }
      ],
      "stateMutability": "view",
      "type": "function",
      "constant": true
    },
    {
      "inputs": [],
      "name": "moduleType",
      "outputs": [
        {
          "internalType": "bytes8",
          "name": "",
          "type": "bytes8"
        }
      ],
      "stateMutability": "view",
      "type": "function",
      "constant": true
    },
    {
      "inputs": [],
      "name": "owner",
      "outputs": [
        {
          "internalType": "address",
          "name": "",
          "type": "address"
        }
      ],
      "stateMutability": "view",
      "type": "function",
      "constant": true
    },
    {
      "inputs": [],
      "name": "renounceOwnership",
      "outputs": [],
      "stateMutability": "nonpayable",
      "type": "function"
    },
    {
      "inputs": [
        {
          "internalType": "address",
          "name": "newOwner",
          "type": "address"
        }
      ],
      "name": "transferOwnership",
      "outputs": [],
      "stateMutability": "nonpayable",
      "type": "function"
    },
    {
      "inputs": [],
      "name": "visibility",
      "outputs": [
        {
          "internalType": "enum Data.visibilityEnum",
          "name": "",
          "type": "uint8"
        }
      ],
      "stateMutability": "view",
      "type": "function",
      "constant": true
    },
    {
      "inputs": [
        {
          "internalType": "address",
          "name": "_contractDao",
          "type": "address"
        },
        {
          "internalType": "address",
          "name": "_member",
          "type": "address"
        }
      ],
      "name": "getMemberInfo",
      "outputs": [
        {
          "components": [
            {
              "internalType": "enum Data.memberStatus",
              "name": "status",
              "type": "uint8"
            },
            {
              "internalType": "uint256",
              "name": "joinTime",
              "type": "uint256"
            }
          ],
          "internalType": "struct Data.member",
          "name": "",
          "type": "tuple"
        }
      ],
      "stateMutability": "view",
      "type": "function",
      "constant": true
    },
    {
      "inputs": [
        {
          "internalType": "address",
          "name": "_contractDao",
          "type": "address"
        },
        {
          "internalType": "uint256",
          "name": "id",
          "type": "uint256"
        }
      ],
      "name": "getAddrById",
      "outputs": [
        {
          "internalType": "address",
          "name": "",
          "type": "address"
        }
      ],
      "stateMutability": "view",
      "type": "function",
      "constant": true
    },
    {
      "inputs": [
        {
          "internalType": "address",
          "name": "_contractDao",
          "type": "address"
        }
      ],
      "name": "getMembersCount",
      "outputs": [
        {
          "internalType": "uint256",
          "name": "",
          "type": "uint256"
        }
      ],
      "stateMutability": "view",
      "type": "function",
      "constant": true
    },
    {
      "inputs": [
        {
          "internalType": "address",
          "name": "_contractDao",
          "type": "address"
        },
        {
          "internalType": "address",
          "name": "addressMember",
          "type": "address"
        }
      ],
      "name": "addMember",
      "outputs": [],
      "stateMutability": "nonpayable",
      "type": "function"
    },
    {
      "inputs": [
        {
          "internalType": "address",
          "name": "_contractDao",
          "type": "address"
        },
        {
          "internalType": "address",
          "name": "addressMember",
          "type": "address"
        }
      ],
      "name": "acceptMember",
      "outputs": [],
      "stateMutability": "nonpayable",
      "type": "function"
    },
    {
      "inputs": [
        {
          "internalType": "address",
          "name": "_contractDao",
          "type": "address"
        },
        {
          "internalType": "address",
          "name": "addressMember",
          "type": "address"
        }
      ],
      "name": "inviteMember",
      "outputs": [],
      "stateMutability": "nonpayable",
      "type": "function"
    },
    {
      "inputs": [
        {
          "internalType": "address",
          "name": "_contractDao",
          "type": "address"
        }
      ],
      "name": "requestJoin",
      "outputs": [],
      "stateMutability": "nonpayable",
      "type": "function"
    },
    {
      "inputs": [
        {
          "internalType": "address",
          "name": "_contractDao",
          "type": "address"
        },
        {
          "internalType": "address",
          "name": "addressMember",
          "type": "address"
        }
      ],
      "name": "isActiveMember",
      "outputs": [
        {
          "internalType": "bool",
          "name": "",
          "type": "bool"
        }
      ],
      "stateMutability": "view",
      "type": "function",
      "constant": true
    },
    {
      "inputs": [
        {
          "internalType": "address",
          "name": "_contractDao",
          "type": "address"
        }
      ],
      "name": "join",
      "outputs": [],
      "stateMutability": "nonpayable",
      "type": "function"
    },
    {
      "inputs": [
        {
          "internalType": "address",
          "name": "_contractDao",
          "type": "address"
        },
        {
          "internalType": "address",
          "name": "_memberDao",
          "type": "address"
        }
      ],
      "name": "addDao",
      "outputs": [],
      "stateMutability": "nonpayable",
      "type": "function"
    },
    {
      "inputs": [
        {
          "internalType": "address",
          "name": "_contractDao",
          "type": "address"
        },
        {
          "internalType": "address",
          "name": "_contractAddress",
          "type": "address"
        }
      ],
      "name": "authorizeContract",
      "outputs": [],
      "stateMutability": "nonpayable",
      "type": "function"
    },
    {
      "inputs": [
        {
          "internalType": "address",
          "name": "_contractDao",
          "type": "address"
        },
        {
          "internalType": "address",
          "name": "_contractAddress",
          "type": "address"
        }
      ],
      "name": "denyContract",
      "outputs": [],
      "stateMutability": "nonpayable",
      "type": "function"
    }
  ],
  "bytecode": "0x6080604052604051602001620000159062000239565b60405160208183030381529060405280519060200120600060146101000a81548167ffffffffffffffff02191690837801000000000000000000000000000000000000000000000000900402179055506040516020016200007690620002ab565b60405160208183030381529060405280519060200120600160006101000a81548167ffffffffffffffff0219169083780100000000000000000000000000000000000000000000000090040217905550348015620000d357600080fd5b5062000106620000f16200010c640100000000026401000000009004565b62000114640100000000026401000000009004565b620002cd565b600033905090565b60008060009054906101000a900473ffffffffffffffffffffffffffffffffffffffff169050816000806101000a81548173ffffffffffffffffffffffffffffffffffffffff021916908373ffffffffffffffffffffffffffffffffffffffff1602179055508173ffffffffffffffffffffffffffffffffffffffff168173ffffffffffffffffffffffffffffffffffffffff167f8be0079c531659141344cd1fd0a4f28419497f9722a3daafe3b4186f6b6457e060405160405180910390a35050565b600082825260208201905092915050565b7f496e766974654d656d626572736869704d6f64756c6500000000000000000000600082015250565b600062000221601683620001d8565b91506200022e82620001e9565b602082019050919050565b60006020820190508181036000830152620002548162000212565b9050919050565b7f4d656d6265724d6f64756c650000000000000000000000000000000000000000600082015250565b600062000293600c83620001d8565b9150620002a0826200025b565b602082019050919050565b60006020820190508181036000830152620002c68162000284565b9050919050565b61256580620002dd6000396000f3fe608060405234801561001057600080fd5b506004361061013e576000357c010000000000000000000000000000000000000000000000000000000090048063760b9c34116100ca578063c25f3cf61161008e578063c25f3cf61461030f578063d2bdea3414610341578063f0744c161461035d578063f2fde38b1461037b578063fe0ac3e7146103975761013e565b8063760b9c34146102455780638da5cb5b146102755780638ecf772014610293578063945da9a1146102c35780639d58b15d146102f35761013e565b806336048d5f1161011157806336048d5f146101b55780634568f199146101e557806358a2d137146102015780636465e69f1461021d578063715018a61461023b5761013e565b806312ee7e411461014357806328ffe6c81461015f57806329adec141461017b5780632b3e5ed914610199575b600080fd5b61015d60048036038101906101589190611f0e565b6103b3565b005b61017960048036038101906101749190611f4e565b6105ff565b005b6101836108d2565b6040516101909190611ff2565b60405180910390f35b6101b360048036038101906101ae9190611f0e565b6108e5565b005b6101cf60048036038101906101ca9190611f0e565b610b5c565b6040516101dc919061209d565b60405180910390f35b6101ff60048036038101906101fa9190611f0e565b610c3b565b005b61021b60048036038101906102169190611f4e565b610de3565b005b6102256110e9565b60405161023291906120f3565b60405180910390f35b610243611114565b005b61025f600480360381019061025a9190611f4e565b61119c565b60405161026c919061211d565b60405180910390f35b61027d6111e8565b60405161028a9190612147565b60405180910390f35b6102ad60048036038101906102a89190611f0e565b611211565b6040516102ba919061217d565b60405180910390f35b6102dd60048036038101906102d891906121c4565b6112d1565b6040516102ea9190612147565b60405180910390f35b61030d60048036038101906103089190611f0e565b61134f565b005b61032960048036038101906103249190611f4e565b6116f0565b60405161033893929190612204565b60405180910390f35b61035b60048036038101906103569190611f0e565b611747565b005b610365611ae8565b60405161037291906120f3565b60405180910390f35b61039560048036038101906103909190611f4e565b611b13565b005b6103b160048036038101906103ac9190611f0e565b611c0b565b005b8160011515600460008373ffffffffffffffffffffffffffffffffffffffff1673ffffffffffffffffffffffffffffffffffffffff16815260200190815260200160002060003373ffffffffffffffffffffffffffffffffffffffff1673ffffffffffffffffffffffffffffffffffffffff16815260200190815260200160002060009054906101000a900460ff16151514610484576040517f08c379a000000000000000000000000000000000000000000000000000000000815260040161047b90612298565b60405180910390fd5b600260008473ffffffffffffffffffffffffffffffffffffffff1673ffffffffffffffffffffffffffffffffffffffff16815260200190815260200160002060040160009054906101000a900460ff1615610514576040517f08c379a000000000000000000000000000000000000000000000000000000000815260040161050b90612304565b60405180910390fd5b6001600260008573ffffffffffffffffffffffffffffffffffffffff1673ffffffffffffffffffffffffffffffffffffffff16815260200190815260200160002060040160006101000a81548160ff02191690831515021790555082600260008573ffffffffffffffffffffffffffffffffffffffff1673ffffffffffffffffffffffffffffffffffffffff16815260200190815260200160002060000160006101000a81548173ffffffffffffffffffffffffffffffffffffffff021916908373ffffffffffffffffffffffffffffffffffffffff1602179055506105fa838361134f565b505050565b8060038081111561061357610612611f7b565b5b600260008373ffffffffffffffffffffffffffffffffffffffff1673ffffffffffffffffffffffffffffffffffffffff16815260200190815260200160002060030160003373ffffffffffffffffffffffffffffffffffffffff1673ffffffffffffffffffffffffffffffffffffffff16815260200190815260200160002060000160009054906101000a900460ff1660038111156106b5576106b4611f7b565b5b14156106f6576040517f08c379a00000000000000000000000000000000000000000000000000000000081526004016106ed90612298565b60405180910390fd5b6001600381111561070a57610709611f7b565b5b600260008473ffffffffffffffffffffffffffffffffffffffff1673ffffffffffffffffffffffffffffffffffffffff16815260200190815260200160002060030160003373ffffffffffffffffffffffffffffffffffffffff1673ffffffffffffffffffffffffffffffffffffffff16815260200190815260200160002060000160009054906101000a900460ff1660038111156107ac576107ab611f7b565b5b146107ec576040517f08c379a00000000000000000000000000000000000000000000000000000000081526004016107e390612370565b60405180910390fd5b6003600260008473ffffffffffffffffffffffffffffffffffffffff1673ffffffffffffffffffffffffffffffffffffffff16815260200190815260200160002060030160003373ffffffffffffffffffffffffffffffffffffffff1673ffffffffffffffffffffffffffffffffffffffff16815260200190815260200160002060000160006101000a81548160ff0219169083600381111561089257610891611f7b565b5b02179055507f0abf3b3f643594d958297062a019458e27d7766629590ac621aa1000fa1298ab336040516108c69190612147565b60405180910390a15050565b600360009054906101000a900460ff1681565b816003808111156108f9576108f8611f7b565b5b600260008373ffffffffffffffffffffffffffffffffffffffff1673ffffffffffffffffffffffffffffffffffffffff16815260200190815260200160002060030160003373ffffffffffffffffffffffffffffffffffffffff1673ffffffffffffffffffffffffffffffffffffffff16815260200190815260200160002060000160009054906101000a900460ff16600381111561099b5761099a611f7b565b5b1480610a34575060011515600460008373ffffffffffffffffffffffffffffffffffffffff1673ffffffffffffffffffffffffffffffffffffffff16815260200190815260200160002060003373ffffffffffffffffffffffffffffffffffffffff1673ffffffffffffffffffffffffffffffffffffffff16815260200190815260200160002060009054906101000a900460ff161515145b610a73576040517f08c379a0000000000000000000000000000000000000000000000000000000008152600401610a6a90612298565b60405180910390fd5b6003600260008573ffffffffffffffffffffffffffffffffffffffff1673ffffffffffffffffffffffffffffffffffffffff16815260200190815260200160002060030160008473ffffffffffffffffffffffffffffffffffffffff1673ffffffffffffffffffffffffffffffffffffffff16815260200190815260200160002060000160006101000a81548160ff02191690836003811115610b1957610b18611f7b565b5b02179055507f69d02d7fd90d09588f2ba0ea3c2ba06a591eda1b091ed67790e2b36fb339ac538233604051610b4f929190612390565b60405180910390a1505050565b610b64611e7f565b600260008473ffffffffffffffffffffffffffffffffffffffff1673ffffffffffffffffffffffffffffffffffffffff16815260200190815260200160002060030160008373ffffffffffffffffffffffffffffffffffffffff1673ffffffffffffffffffffffffffffffffffffffff1681526020019081526020016000206040518060400160405290816000820160009054906101000a900460ff166003811115610c1357610c12611f7b565b5b6003811115610c2557610c24611f7b565b5b8152602001600182015481525050905092915050565b8160011515600460008373ffffffffffffffffffffffffffffffffffffffff1673ffffffffffffffffffffffffffffffffffffffff16815260200190815260200160002060003373ffffffffffffffffffffffffffffffffffffffff1673ffffffffffffffffffffffffffffffffffffffff16815260200190815260200160002060009054906101000a900460ff1615151480610d0a5750610cdb6111e8565b73ffffffffffffffffffffffffffffffffffffffff163373ffffffffffffffffffffffffffffffffffffffff16145b610d49576040517f08c379a0000000000000000000000000000000000000000000000000000000008152600401610d4090612298565b60405180910390fd5b6001600460008573ffffffffffffffffffffffffffffffffffffffff1673ffffffffffffffffffffffffffffffffffffffff16815260200190815260200160002060008473ffffffffffffffffffffffffffffffffffffffff1673ffffffffffffffffffffffffffffffffffffffff16815260200190815260200160002060006101000a81548160ff021916908315150217905550505050565b80600380811115610df757610df6611f7b565b5b600260008373ffffffffffffffffffffffffffffffffffffffff1673ffffffffffffffffffffffffffffffffffffffff16815260200190815260200160002060030160003373ffffffffffffffffffffffffffffffffffffffff1673ffffffffffffffffffffffffffffffffffffffff16815260200190815260200160002060000160009054906101000a900460ff166003811115610e9957610e98611f7b565b5b1415610eda576040517f08c379a0000000000000000000000000000000000000000000000000000000008152600401610ed190612298565b60405180910390fd5b60028060008473ffffffffffffffffffffffffffffffffffffffff1673ffffffffffffffffffffffffffffffffffffffff16815260200190815260200160002060030160003373ffffffffffffffffffffffffffffffffffffffff1673ffffffffffffffffffffffffffffffffffffffff16815260200190815260200160002060000160006101000a81548160ff02191690836003811115610f7f57610f7e611f7b565b5b021790555033600260008473ffffffffffffffffffffffffffffffffffffffff1673ffffffffffffffffffffffffffffffffffffffff1681526020019081526020016000206002016000600260008673ffffffffffffffffffffffffffffffffffffffff1673ffffffffffffffffffffffffffffffffffffffff16815260200190815260200160002060010154815260200190815260200160002060006101000a81548173ffffffffffffffffffffffffffffffffffffffff021916908373ffffffffffffffffffffffffffffffffffffffff160217905550600260008373ffffffffffffffffffffffffffffffffffffffff1673ffffffffffffffffffffffffffffffffffffffff168152602001908152602001600020600101600081546110a7906123e8565b919050819055507fbed19f5b65ad42d891f94ee997a95c1c635d47af67169b52c2b2f0f823b7cd71336040516110dd9190612147565b60405180910390a15050565b600160009054906101000a900478010000000000000000000000000000000000000000000000000281565b61111c611db3565b73ffffffffffffffffffffffffffffffffffffffff1661113a6111e8565b73ffffffffffffffffffffffffffffffffffffffff1614611190576040517f08c379a00000000000000000000000000000000000000000000000000000000081526004016111879061247d565b60405180910390fd5b61119a6000611dbb565b565b6000600260008373ffffffffffffffffffffffffffffffffffffffff1673ffffffffffffffffffffffffffffffffffffffff168152602001908152602001600020600101549050919050565b60008060009054906101000a900473ffffffffffffffffffffffffffffffffffffffff16905090565b600060038081111561122657611225611f7b565b5b600260008573ffffffffffffffffffffffffffffffffffffffff1673ffffffffffffffffffffffffffffffffffffffff16815260200190815260200160002060030160008473ffffffffffffffffffffffffffffffffffffffff1673ffffffffffffffffffffffffffffffffffffffff16815260200190815260200160002060000160009054906101000a900460ff1660038111156112c8576112c7611f7b565b5b14905092915050565b6000600260008473ffffffffffffffffffffffffffffffffffffffff1673ffffffffffffffffffffffffffffffffffffffff168152602001908152602001600020600201600083815260200190815260200160002060009054906101000a900473ffffffffffffffffffffffffffffffffffffffff16905092915050565b8160038081111561136357611362611f7b565b5b600260008373ffffffffffffffffffffffffffffffffffffffff1673ffffffffffffffffffffffffffffffffffffffff16815260200190815260200160002060030160003373ffffffffffffffffffffffffffffffffffffffff1673ffffffffffffffffffffffffffffffffffffffff16815260200190815260200160002060000160009054906101000a900460ff16600381111561140557611404611f7b565b5b148061149e575060011515600460008373ffffffffffffffffffffffffffffffffffffffff1673ffffffffffffffffffffffffffffffffffffffff16815260200190815260200160002060003373ffffffffffffffffffffffffffffffffffffffff1673ffffffffffffffffffffffffffffffffffffffff16815260200190815260200160002060009054906101000a900460ff161515145b6114dd576040517f08c379a00000000000000000000000000000000000000000000000000000000081526004016114d490612298565b60405180910390fd5b6003600260008573ffffffffffffffffffffffffffffffffffffffff1673ffffffffffffffffffffffffffffffffffffffff16815260200190815260200160002060030160008473ffffffffffffffffffffffffffffffffffffffff1673ffffffffffffffffffffffffffffffffffffffff16815260200190815260200160002060000160006101000a81548160ff0219169083600381111561158357611582611f7b565b5b021790555081600260008573ffffffffffffffffffffffffffffffffffffffff1673ffffffffffffffffffffffffffffffffffffffff1681526020019081526020016000206002016000600260008773ffffffffffffffffffffffffffffffffffffffff1673ffffffffffffffffffffffffffffffffffffffff16815260200190815260200160002060010154815260200190815260200160002060006101000a81548173ffffffffffffffffffffffffffffffffffffffff021916908373ffffffffffffffffffffffffffffffffffffffff160217905550600260008473ffffffffffffffffffffffffffffffffffffffff1673ffffffffffffffffffffffffffffffffffffffff168152602001908152602001600020600101600081546116ab906123e8565b919050819055507f6a2af11b2d73f347f9d5840aea46899e17609730b5cd91bd9c312098038acba682336040516116e3929190612390565b60405180910390a1505050565b60026020528060005260406000206000915090508060000160009054906101000a900473ffffffffffffffffffffffffffffffffffffffff16908060010154908060040160009054906101000a900460ff16905083565b8160038081111561175b5761175a611f7b565b5b600260008373ffffffffffffffffffffffffffffffffffffffff1673ffffffffffffffffffffffffffffffffffffffff16815260200190815260200160002060030160003373ffffffffffffffffffffffffffffffffffffffff1673ffffffffffffffffffffffffffffffffffffffff16815260200190815260200160002060000160009054906101000a900460ff1660038111156117fd576117fc611f7b565b5b1480611896575060011515600460008373ffffffffffffffffffffffffffffffffffffffff1673ffffffffffffffffffffffffffffffffffffffff16815260200190815260200160002060003373ffffffffffffffffffffffffffffffffffffffff1673ffffffffffffffffffffffffffffffffffffffff16815260200190815260200160002060009054906101000a900460ff161515145b6118d5576040517f08c379a00000000000000000000000000000000000000000000000000000000081526004016118cc90612298565b60405180910390fd5b6001600260008573ffffffffffffffffffffffffffffffffffffffff1673ffffffffffffffffffffffffffffffffffffffff16815260200190815260200160002060030160008473ffffffffffffffffffffffffffffffffffffffff1673ffffffffffffffffffffffffffffffffffffffff16815260200190815260200160002060000160006101000a81548160ff0219169083600381111561197b5761197a611f7b565b5b021790555081600260008573ffffffffffffffffffffffffffffffffffffffff1673ffffffffffffffffffffffffffffffffffffffff1681526020019081526020016000206002016000600260008773ffffffffffffffffffffffffffffffffffffffff1673ffffffffffffffffffffffffffffffffffffffff16815260200190815260200160002060010154815260200190815260200160002060006101000a81548173ffffffffffffffffffffffffffffffffffffffff021916908373ffffffffffffffffffffffffffffffffffffffff160217905550600260008473ffffffffffffffffffffffffffffffffffffffff1673ffffffffffffffffffffffffffffffffffffffff16815260200190815260200160002060010160008154611aa3906123e8565b919050819055507f6c246c8894ac239253d22cd508dbe8eb7e027e0589cdd4ff16dbb4238ccd98343383604051611adb929190612390565b60405180910390a1505050565b600060149054906101000a900478010000000000000000000000000000000000000000000000000281565b611b1b611db3565b73ffffffffffffffffffffffffffffffffffffffff16611b396111e8565b73ffffffffffffffffffffffffffffffffffffffff1614611b8f576040517f08c379a0000000000000000000000000000000000000000000000000000000008152600401611b869061247d565b60405180910390fd5b600073ffffffffffffffffffffffffffffffffffffffff168173ffffffffffffffffffffffffffffffffffffffff161415611bff576040517f08c379a0000000000000000000000000000000000000000000000000000000008152600401611bf69061250f565b60405180910390fd5b611c0881611dbb565b50565b8160011515600460008373ffffffffffffffffffffffffffffffffffffffff1673ffffffffffffffffffffffffffffffffffffffff16815260200190815260200160002060003373ffffffffffffffffffffffffffffffffffffffff1673ffffffffffffffffffffffffffffffffffffffff16815260200190815260200160002060009054906101000a900460ff1615151480611cda5750611cab6111e8565b73ffffffffffffffffffffffffffffffffffffffff163373ffffffffffffffffffffffffffffffffffffffff16145b611d19576040517f08c379a0000000000000000000000000000000000000000000000000000000008152600401611d1090612298565b60405180910390fd5b6000600460008573ffffffffffffffffffffffffffffffffffffffff1673ffffffffffffffffffffffffffffffffffffffff16815260200190815260200160002060008473ffffffffffffffffffffffffffffffffffffffff1673ffffffffffffffffffffffffffffffffffffffff16815260200190815260200160002060006101000a81548160ff021916908315150217905550505050565b600033905090565b60008060009054906101000a900473ffffffffffffffffffffffffffffffffffffffff169050816000806101000a81548173ffffffffffffffffffffffffffffffffffffffff021916908373ffffffffffffffffffffffffffffffffffffffff1602179055508173ffffffffffffffffffffffffffffffffffffffff168173ffffffffffffffffffffffffffffffffffffffff167f8be0079c531659141344cd1fd0a4f28419497f9722a3daafe3b4186f6b6457e060405160405180910390a35050565b604051806040016040528060006003811115611e9e57611e9d611f7b565b5b8152602001600081525090565b600080fd5b600073ffffffffffffffffffffffffffffffffffffffff82169050919050565b6000611edb82611eb0565b9050919050565b611eeb81611ed0565b8114611ef657600080fd5b50565b600081359050611f0881611ee2565b92915050565b60008060408385031215611f2557611f24611eab565b5b6000611f3385828601611ef9565b9250506020611f4485828601611ef9565b9150509250929050565b600060208284031215611f6457611f63611eab565b5b6000611f7284828501611ef9565b91505092915050565b7f4e487b7100000000000000000000000000000000000000000000000000000000600052602160045260246000fd5b60028110611fbb57611fba611f7b565b5b50565b6000819050611fcc82611faa565b919050565b6000611fdc82611fbe565b9050919050565b611fec81611fd1565b82525050565b60006020820190506120076000830184611fe3565b92915050565b6004811061201e5761201d611f7b565b5b50565b600081905061202f8261200d565b919050565b600061203f82612021565b9050919050565b61204f81612034565b82525050565b6000819050919050565b61206881612055565b82525050565b6040820160008201516120846000850182612046565b506020820151612097602085018261205f565b50505050565b60006040820190506120b2600083018461206e565b92915050565b60007fffffffffffffffff00000000000000000000000000000000000000000000000082169050919050565b6120ed816120b8565b82525050565b600060208201905061210860008301846120e4565b92915050565b61211781612055565b82525050565b6000602082019050612132600083018461210e565b92915050565b61214181611ed0565b82525050565b600060208201905061215c6000830184612138565b92915050565b60008115159050919050565b61217781612162565b82525050565b6000602082019050612192600083018461216e565b92915050565b6121a181612055565b81146121ac57600080fd5b50565b6000813590506121be81612198565b92915050565b600080604083850312156121db576121da611eab565b5b60006121e985828601611ef9565b92505060206121fa858286016121af565b9150509250929050565b60006060820190506122196000830186612138565b612226602083018561210e565b612233604083018461216e565b949350505050565b600082825260208201905092915050565b7f4e6f7420617574686f72697a6564000000000000000000000000000000000000600082015250565b6000612282600e8361223b565b915061228d8261224c565b602082019050919050565b600060208201905081810360008301526122b181612275565b9050919050565b7f44616f20616c7265616479206164646564000000000000000000000000000000600082015250565b60006122ee60118361223b565b91506122f9826122b8565b602082019050919050565b6000602082019050818103600083015261231d816122e1565b9050919050565b7f496d706f737369626c6520746f206a6f696e0000000000000000000000000000600082015250565b600061235a60128361223b565b915061236582612324565b602082019050919050565b600060208201905081810360008301526123898161234d565b9050919050565b60006040820190506123a56000830185612138565b6123b26020830184612138565b9392505050565b7f4e487b7100000000000000000000000000000000000000000000000000000000600052601160045260246000fd5b60006123f382612055565b91507fffffffffffffffffffffffffffffffffffffffffffffffffffffffffffffffff821415612426576124256123b9565b5b600182019050919050565b7f4f776e61626c653a2063616c6c6572206973206e6f7420746865206f776e6572600082015250565b600061246760208361223b565b915061247282612431565b602082019050919050565b600060208201905081810360008301526124968161245a565b9050919050565b7f4f776e61626c653a206e6577206f776e657220697320746865207a65726f206160008201527f6464726573730000000000000000000000000000000000000000000000000000602082015250565b60006124f960268361223b565b91506125048261249d565b604082019050919050565b60006020820190508181036000830152612528816124ec565b905091905056fea264697066735822122035d3f8c2431b1a3177393be20eabaff986f9836da399ed632305a887959753ca64736f6c63430008090033",
  "immutableReferences": {},
  "source": "// SPDX-License-Identifier: MIT\npragma solidity ^0.8.9;\n\nimport \"@openzeppelin/contracts/utils/math/SafeMath.sol\";\nimport \"@openzeppelin/contracts/access/Ownable.sol\";\nimport \"../../Data.sol\";\nimport \"../../DaoBase.sol\";\n\n//is DaosFactory\ncontract InviteMembershipModule is Ownable {\n  using SafeMath for uint256;\n  bytes8 public moduleCode = bytes8(keccak256(abi.encode(\"InviteMembershipModule\")));\n  bytes8 public moduleType = bytes8(keccak256(abi.encode(\"MemberModule\")));\n  mapping(address => Data.DaoMember) public daos;\n  Data.visibilityEnum public visibility;\n  mapping(address => mapping(address => bool)) private authorizedContracts;\n  event MemberAdded(address newMember, address adderAddress);\n  event MemberAccepted(address newMember, address acceptorAddress);\n  event MemberInvited(address memberInvited, address memberInvitor);\n  event MemberJoined(address memberJoined);\n  event MemberAskedJoin(address memberRequestor);\n\n    modifier onlyActiveMembersOrAuthorizeContracts(address _contractDao) {\n        require(daos[_contractDao].members[msg.sender].status == Data.memberStatus.active \n        || authorizedContracts[_contractDao][msg.sender] == true, \"Not authorized\");\n        _;\n    }\n\n    modifier onlyNotActiveMembers(address _contractDao) {\n        require(daos[_contractDao].members[msg.sender].status != Data.memberStatus.active, \"Not authorized\");\n        _;\n    }\n\n    modifier onlyAuthorizeContracts(address _contractDao) {\n        require(authorizedContracts[_contractDao][msg.sender] == true, \"Not authorized\");\n        _;\n    }\n\n    modifier onlyAuthorizeContractsOrOwner(address _contractDao) {\n        require(((authorizedContracts[_contractDao][msg.sender] == true) || msg.sender == owner()), \"Not authorized\");\n        _;\n    }\n\n    function getMemberInfo(address _contractDao, address _member) external view returns(Data.member memory) {\n        return(daos[_contractDao].members[_member]);\n    }\n    function getAddrById(address _contractDao, uint256 id) external view returns(address) {\n        return daos[_contractDao].memberAddresses[id];\n    }\n    function getMembersCount(address _contractDao) external view returns(uint256) {\n        return daos[_contractDao].membersCount;\n    }\n\n    function addMember(address _contractDao, address addressMember) public onlyActiveMembersOrAuthorizeContracts(_contractDao) {\n        daos[_contractDao].members[addressMember].status = Data.memberStatus.active;\n        daos[_contractDao].memberAddresses[daos[_contractDao].membersCount] = addressMember;\n        ++daos[_contractDao].membersCount;\n        emit MemberAdded(addressMember, msg.sender);\n    }\n\n    function acceptMember(address _contractDao, address addressMember) public onlyActiveMembersOrAuthorizeContracts(_contractDao) {\n        daos[_contractDao].members[addressMember].status = Data.memberStatus.active;\n        emit MemberAccepted(addressMember, msg.sender);\n    }\n\n    function inviteMember(address _contractDao, address addressMember) public onlyActiveMembersOrAuthorizeContracts(_contractDao) {\n        daos[_contractDao].members[addressMember].status = Data.memberStatus.invited;\n        daos[_contractDao].memberAddresses[daos[_contractDao].membersCount] = addressMember;\n        ++daos[_contractDao].membersCount;\n        emit MemberInvited(msg.sender, addressMember);\n    }\n\n    function requestJoin(address _contractDao) public onlyNotActiveMembers(_contractDao) {\n        daos[_contractDao].members[msg.sender].status = Data.memberStatus.asking;\n        daos[_contractDao].memberAddresses[daos[_contractDao].membersCount] = msg.sender;\n        ++daos[_contractDao].membersCount;\n        emit MemberAskedJoin(msg.sender);\n    }\n\n    function isActiveMember(address _contractDao, address addressMember) public view returns (bool){\n        return daos[_contractDao].members[addressMember].status == Data.memberStatus.active;\n    }\n\n    function join(address _contractDao) public onlyNotActiveMembers(_contractDao) {\n        require((daos[_contractDao].members[msg.sender].status == Data.memberStatus.invited)\n                , \"Impossible to join\");\n        daos[_contractDao].members[msg.sender].status = Data.memberStatus.active;\n        emit MemberJoined(msg.sender);\n    }\n\n    function addDao(address _contractDao, address _memberDao) external onlyAuthorizeContracts(_contractDao) {\n        require(!daos[_contractDao].isActive, \"Dao already added\");\n        daos[_contractDao].isActive = true;\n        daos[_contractDao].addressDao = _contractDao;\n        addMember(_contractDao, _memberDao);\n    }\n\n    function authorizeContract(address _contractDao, address _contractAddress) external onlyAuthorizeContractsOrOwner(_contractDao) {\n        authorizedContracts[_contractDao][_contractAddress] = true;\n    }\n\n    function denyContract(address _contractDao, address _contractAddress) external onlyAuthorizeContractsOrOwner(_contractDao) {\n        authorizedContracts[_contractDao][_contractAddress] = false;\n    }\n}",
  "sourcePath": "/Users/chinoiserie/delivery/BLOCKCHAIN/Alyra/MY-DAO/contracts/Modules/Implementations/InviteMembershipModule.sol",
  "compiler": {
    "name": "solc",
    "version": "0.8.9+commit.e5eed63a.Emscripten.clang"
  },
  "schemaVersion": "3.2.0",
  "updatedAt": "2022-05-15T21:30:45.737Z",
  "networkType": "ethereum",
  "devdoc": {
    "kind": "dev",
    "methods": {
      "owner()": {
        "details": "Returns the address of the current owner."
      },
      "renounceOwnership()": {
        "details": "Leaves the contract without owner. It will not be possible to call `onlyOwner` functions anymore. Can only be called by the current owner. NOTE: Renouncing ownership will leave the contract without an owner, thereby removing any functionality that is only available to the owner."
      },
      "transferOwnership(address)": {
        "details": "Transfers ownership of the contract to a new account (`newOwner`). Can only be called by the current owner."
      }
    },
    "version": 1
  },
  "userdoc": {
    "kind": "user",
    "methods": {},
    "version": 1
  }
}