{
  "contractName": "InviteMembershipModule",
  "abi": [
    {
      "inputs": [
        {
          "internalType": "address",
          "name": "_contractFactory",
          "type": "address"
        }
      ],
      "stateMutability": "nonpayable",
      "type": "constructor"
    },
    {
      "anonymous": false,
      "inputs": [
        {
          "indexed": false,
          "internalType": "address",
          "name": "newMember",
          "type": "address"
        },
        {
          "indexed": false,
          "internalType": "address",
          "name": "acceptorAddress",
          "type": "address"
        }
      ],
      "name": "MemberAccepted",
      "type": "event"
    },
    {
      "anonymous": false,
      "inputs": [
        {
          "indexed": false,
          "internalType": "address",
          "name": "newMember",
          "type": "address"
        },
        {
          "indexed": false,
          "internalType": "address",
          "name": "adderAddress",
          "type": "address"
        }
      ],
      "name": "MemberAdded",
      "type": "event"
    },
    {
      "anonymous": false,
      "inputs": [
        {
          "indexed": false,
          "internalType": "address",
          "name": "memberRequestor",
          "type": "address"
        }
      ],
      "name": "MemberAskedJoin",
      "type": "event"
    },
    {
      "anonymous": false,
      "inputs": [
        {
          "indexed": false,
          "internalType": "address",
          "name": "memberInvited",
          "type": "address"
        },
        {
          "indexed": false,
          "internalType": "address",
          "name": "memberInvitor",
          "type": "address"
        }
      ],
      "name": "MemberInvited",
      "type": "event"
    },
    {
      "anonymous": false,
      "inputs": [
        {
          "indexed": false,
          "internalType": "address",
          "name": "memberJoined",
          "type": "address"
        }
      ],
      "name": "MemberJoined",
      "type": "event"
    },
    {
      "anonymous": false,
      "inputs": [
        {
          "indexed": true,
          "internalType": "address",
          "name": "previousOwner",
          "type": "address"
        },
        {
          "indexed": true,
          "internalType": "address",
          "name": "newOwner",
          "type": "address"
        }
      ],
      "name": "OwnershipTransferred",
      "type": "event"
    },
    {
      "inputs": [
        {
          "internalType": "address",
          "name": "",
          "type": "address"
        }
      ],
      "name": "daos",
      "outputs": [
        {
          "internalType": "address",
          "name": "addressDao",
          "type": "address"
        },
        {
          "internalType": "uint256",
          "name": "membersCount",
          "type": "uint256"
        },
        {
          "internalType": "bool",
          "name": "isActive",
          "type": "bool"
        }
      ],
      "stateMutability": "view",
      "type": "function",
      "constant": true
    },
    {
      "inputs": [],
      "name": "moduleCode",
      "outputs": [
        {
          "internalType": "bytes8",
          "name": "",
          "type": "bytes8"
        }
      ],
      "stateMutability": "view",
      "type": "function",
      "constant": true
    },
    {
      "inputs": [],
      "name": "moduleType",
      "outputs": [
        {
          "internalType": "bytes8",
          "name": "",
          "type": "bytes8"
        }
      ],
      "stateMutability": "view",
      "type": "function",
      "constant": true
    },
    {
      "inputs": [],
      "name": "owner",
      "outputs": [
        {
          "internalType": "address",
          "name": "",
          "type": "address"
        }
      ],
      "stateMutability": "view",
      "type": "function",
      "constant": true
    },
    {
      "inputs": [],
      "name": "renounceOwnership",
      "outputs": [],
      "stateMutability": "nonpayable",
      "type": "function"
    },
    {
      "inputs": [
        {
          "internalType": "address",
          "name": "newOwner",
          "type": "address"
        }
      ],
      "name": "transferOwnership",
      "outputs": [],
      "stateMutability": "nonpayable",
      "type": "function"
    },
    {
      "inputs": [],
      "name": "visibility",
      "outputs": [
        {
          "internalType": "enum Data.visibilityEnum",
          "name": "",
          "type": "uint8"
        }
      ],
      "stateMutability": "view",
      "type": "function",
      "constant": true
    },
    {
      "inputs": [
        {
          "internalType": "address",
          "name": "_contractDao",
          "type": "address"
        },
        {
          "internalType": "address",
          "name": "_member",
          "type": "address"
        }
      ],
      "name": "getMemberInfo",
      "outputs": [
        {
          "components": [
            {
              "internalType": "enum Data.memberStatus",
              "name": "status",
              "type": "uint8"
            },
            {
              "internalType": "uint256",
              "name": "joinTime",
              "type": "uint256"
            }
          ],
          "internalType": "struct Data.member",
          "name": "",
          "type": "tuple"
        }
      ],
      "stateMutability": "view",
      "type": "function",
      "constant": true
    },
    {
      "inputs": [
        {
          "internalType": "address",
          "name": "_contractDao",
          "type": "address"
        },
        {
          "internalType": "uint256",
          "name": "id",
          "type": "uint256"
        }
      ],
      "name": "getAddrById",
      "outputs": [
        {
          "internalType": "address",
          "name": "",
          "type": "address"
        }
      ],
      "stateMutability": "view",
      "type": "function",
      "constant": true
    },
    {
      "inputs": [
        {
          "internalType": "address",
          "name": "_contractDao",
          "type": "address"
        }
      ],
      "name": "getMembersCount",
      "outputs": [
        {
          "internalType": "uint256",
          "name": "",
          "type": "uint256"
        }
      ],
      "stateMutability": "view",
      "type": "function",
      "constant": true
    },
    {
      "inputs": [
        {
          "internalType": "address",
          "name": "_contractDao",
          "type": "address"
        },
        {
          "internalType": "address",
          "name": "addressMember",
          "type": "address"
        }
      ],
      "name": "addMember",
      "outputs": [],
      "stateMutability": "nonpayable",
      "type": "function"
    },
    {
      "inputs": [
        {
          "internalType": "address",
          "name": "_contractDao",
          "type": "address"
        },
        {
          "internalType": "address",
          "name": "addressMember",
          "type": "address"
        }
      ],
      "name": "acceptMember",
      "outputs": [],
      "stateMutability": "nonpayable",
      "type": "function"
    },
    {
      "inputs": [
        {
          "internalType": "address",
          "name": "_contractDao",
          "type": "address"
        },
        {
          "internalType": "address",
          "name": "addressMember",
          "type": "address"
        }
      ],
      "name": "inviteMember",
      "outputs": [],
      "stateMutability": "nonpayable",
      "type": "function"
    },
    {
      "inputs": [
        {
          "internalType": "address",
          "name": "_contractDao",
          "type": "address"
        }
      ],
      "name": "requestJoin",
      "outputs": [],
      "stateMutability": "nonpayable",
      "type": "function"
    },
    {
      "inputs": [
        {
          "internalType": "address",
          "name": "_contractDao",
          "type": "address"
        },
        {
          "internalType": "address",
          "name": "addressMember",
          "type": "address"
        }
      ],
      "name": "isActiveMember",
      "outputs": [
        {
          "internalType": "bool",
          "name": "",
          "type": "bool"
        }
      ],
      "stateMutability": "view",
      "type": "function",
      "constant": true
    },
    {
      "inputs": [
        {
          "internalType": "address",
          "name": "_contractDao",
          "type": "address"
        }
      ],
      "name": "join",
      "outputs": [],
      "stateMutability": "nonpayable",
      "type": "function"
    },
    {
      "inputs": [
        {
          "internalType": "address",
          "name": "_contractDao",
          "type": "address"
        },
        {
          "internalType": "address",
          "name": "_memberDao",
          "type": "address"
        }
      ],
      "name": "addDao",
      "outputs": [],
      "stateMutability": "nonpayable",
      "type": "function"
    },
    {
      "inputs": [
        {
          "internalType": "address",
          "name": "_contractDao",
          "type": "address"
        },
        {
          "internalType": "address",
          "name": "_contractAddress",
          "type": "address"
        }
      ],
      "name": "authorizeContract",
      "outputs": [],
      "stateMutability": "nonpayable",
      "type": "function"
    },
    {
      "inputs": [
        {
          "internalType": "address",
          "name": "_contractDao",
          "type": "address"
        },
        {
          "internalType": "address",
          "name": "_contractAddress",
          "type": "address"
        }
      ],
      "name": "denyContract",
      "outputs": [],
      "stateMutability": "nonpayable",
      "type": "function"
    }
  ],
  "bytecode": "0x6080604052604051602001620000159062000279565b60405160208183030381529060405280519060200120600060146101000a81548167ffffffffffffffff02191690837801000000000000000000000000000000000000000000000000900402179055506040516020016200007690620002eb565b60405160208183030381529060405280519060200120600160006101000a81548167ffffffffffffffff0219169083780100000000000000000000000000000000000000000000000090040217905550348015620000d357600080fd5b5060405162002aea38038062002aea8339818101604052810190620000f9919062000377565b6200012b620001166200014c640100000000026401000000009004565b62000154640100000000026401000000009004565b620001458162000154640100000000026401000000009004565b50620003a9565b600033905090565b60008060009054906101000a900473ffffffffffffffffffffffffffffffffffffffff169050816000806101000a81548173ffffffffffffffffffffffffffffffffffffffff021916908373ffffffffffffffffffffffffffffffffffffffff1602179055508173ffffffffffffffffffffffffffffffffffffffff168173ffffffffffffffffffffffffffffffffffffffff167f8be0079c531659141344cd1fd0a4f28419497f9722a3daafe3b4186f6b6457e060405160405180910390a35050565b600082825260208201905092915050565b7f496e766974654d656d626572736869704d6f64756c6500000000000000000000600082015250565b60006200026160168362000218565b91506200026e8262000229565b602082019050919050565b60006020820190508181036000830152620002948162000252565b9050919050565b7f4d656d6265724d6f64756c650000000000000000000000000000000000000000600082015250565b6000620002d3600c8362000218565b9150620002e0826200029b565b602082019050919050565b600060208201905081810360008301526200030681620002c4565b9050919050565b600080fd5b600073ffffffffffffffffffffffffffffffffffffffff82169050919050565b60006200033f8262000312565b9050919050565b620003518162000332565b81146200035d57600080fd5b50565b600081519050620003718162000346565b92915050565b60006020828403121562000390576200038f6200030d565b5b6000620003a08482850162000360565b91505092915050565b61273180620003b96000396000f3fe608060405234801561001057600080fd5b506004361061013e576000357c010000000000000000000000000000000000000000000000000000000090048063760b9c34116100ca578063c25f3cf61161008e578063c25f3cf61461030f578063d2bdea3414610341578063f0744c161461035d578063f2fde38b1461037b578063fe0ac3e7146103975761013e565b8063760b9c34146102455780638da5cb5b146102755780638ecf772014610293578063945da9a1146102c35780639d58b15d146102f35761013e565b806336048d5f1161011157806336048d5f146101b55780634568f199146101e557806358a2d137146102015780636465e69f1461021d578063715018a61461023b5761013e565b806312ee7e411461014357806328ffe6c81461015f57806329adec141461017b5780632b3e5ed914610199575b600080fd5b61015d60048036038101906101589190612002565b6103b3565b005b61017960048036038101906101749190612042565b61063c565b005b61018361090f565b60405161019091906120e6565b60405180910390f35b6101b360048036038101906101ae9190612002565b610922565b005b6101cf60048036038101906101ca9190612002565b610bd6565b6040516101dc9190612191565b60405180910390f35b6101ff60048036038101906101fa9190612002565b610cb5565b005b61021b60048036038101906102169190612042565b610e5d565b005b610225611163565b60405161023291906121e7565b60405180910390f35b61024361118e565b005b61025f600480360381019061025a9190612042565b611216565b60405161026c9190612211565b60405180910390f35b61027d611262565b60405161028a919061223b565b60405180910390f35b6102ad60048036038101906102a89190612002565b61128b565b6040516102ba9190612271565b60405180910390f35b6102dd60048036038101906102d891906122b8565b61134b565b6040516102ea919061223b565b60405180910390f35b61030d60048036038101906103089190612002565b6113c9565b005b61032960048036038101906103249190612042565b6117a7565b604051610338939291906122f8565b60405180910390f35b61035b60048036038101906103569190612002565b6117fe565b005b610365611bdc565b60405161037291906121e7565b60405180910390f35b61039560048036038101906103909190612042565b611c07565b005b6103b160048036038101906103ac9190612002565b611cff565b005b8160011515600460008373ffffffffffffffffffffffffffffffffffffffff1673ffffffffffffffffffffffffffffffffffffffff16815260200190815260200160002060003373ffffffffffffffffffffffffffffffffffffffff1673ffffffffffffffffffffffffffffffffffffffff16815260200190815260200160002060009054906101000a900460ff16151514806104825750610453611262565b73ffffffffffffffffffffffffffffffffffffffff163373ffffffffffffffffffffffffffffffffffffffff16145b6104c1576040517f08c379a00000000000000000000000000000000000000000000000000000000081526004016104b89061238c565b60405180910390fd5b600260008473ffffffffffffffffffffffffffffffffffffffff1673ffffffffffffffffffffffffffffffffffffffff16815260200190815260200160002060040160009054906101000a900460ff1615610551576040517f08c379a0000000000000000000000000000000000000000000000000000000008152600401610548906123f8565b60405180910390fd5b6001600260008573ffffffffffffffffffffffffffffffffffffffff1673ffffffffffffffffffffffffffffffffffffffff16815260200190815260200160002060040160006101000a81548160ff02191690831515021790555082600260008573ffffffffffffffffffffffffffffffffffffffff1673ffffffffffffffffffffffffffffffffffffffff16815260200190815260200160002060000160006101000a81548173ffffffffffffffffffffffffffffffffffffffff021916908373ffffffffffffffffffffffffffffffffffffffff16021790555061063783836113c9565b505050565b806003808111156106505761064f61206f565b5b600260008373ffffffffffffffffffffffffffffffffffffffff1673ffffffffffffffffffffffffffffffffffffffff16815260200190815260200160002060030160003373ffffffffffffffffffffffffffffffffffffffff1673ffffffffffffffffffffffffffffffffffffffff16815260200190815260200160002060000160009054906101000a900460ff1660038111156106f2576106f161206f565b5b1415610733576040517f08c379a000000000000000000000000000000000000000000000000000000000815260040161072a90612464565b60405180910390fd5b600160038111156107475761074661206f565b5b600260008473ffffffffffffffffffffffffffffffffffffffff1673ffffffffffffffffffffffffffffffffffffffff16815260200190815260200160002060030160003373ffffffffffffffffffffffffffffffffffffffff1673ffffffffffffffffffffffffffffffffffffffff16815260200190815260200160002060000160009054906101000a900460ff1660038111156107e9576107e861206f565b5b14610829576040517f08c379a0000000000000000000000000000000000000000000000000000000008152600401610820906124d0565b60405180910390fd5b6003600260008473ffffffffffffffffffffffffffffffffffffffff1673ffffffffffffffffffffffffffffffffffffffff16815260200190815260200160002060030160003373ffffffffffffffffffffffffffffffffffffffff1673ffffffffffffffffffffffffffffffffffffffff16815260200190815260200160002060000160006101000a81548160ff021916908360038111156108cf576108ce61206f565b5b02179055507f0abf3b3f643594d958297062a019458e27d7766629590ac621aa1000fa1298ab33604051610903919061223b565b60405180910390a15050565b600360009054906101000a900460ff1681565b816003808111156109365761093561206f565b5b600260008373ffffffffffffffffffffffffffffffffffffffff1673ffffffffffffffffffffffffffffffffffffffff16815260200190815260200160002060030160003373ffffffffffffffffffffffffffffffffffffffff1673ffffffffffffffffffffffffffffffffffffffff16815260200190815260200160002060000160009054906101000a900460ff1660038111156109d8576109d761206f565b5b1480610a71575060011515600460008373ffffffffffffffffffffffffffffffffffffffff1673ffffffffffffffffffffffffffffffffffffffff16815260200190815260200160002060003373ffffffffffffffffffffffffffffffffffffffff1673ffffffffffffffffffffffffffffffffffffffff16815260200190815260200160002060009054906101000a900460ff161515145b80610aae5750610a7f611262565b73ffffffffffffffffffffffffffffffffffffffff163373ffffffffffffffffffffffffffffffffffffffff16145b610aed576040517f08c379a0000000000000000000000000000000000000000000000000000000008152600401610ae49061253c565b60405180910390fd5b6003600260008573ffffffffffffffffffffffffffffffffffffffff1673ffffffffffffffffffffffffffffffffffffffff16815260200190815260200160002060030160008473ffffffffffffffffffffffffffffffffffffffff1673ffffffffffffffffffffffffffffffffffffffff16815260200190815260200160002060000160006101000a81548160ff02191690836003811115610b9357610b9261206f565b5b02179055507f69d02d7fd90d09588f2ba0ea3c2ba06a591eda1b091ed67790e2b36fb339ac538233604051610bc992919061255c565b60405180910390a1505050565b610bde611f73565b600260008473ffffffffffffffffffffffffffffffffffffffff1673ffffffffffffffffffffffffffffffffffffffff16815260200190815260200160002060030160008373ffffffffffffffffffffffffffffffffffffffff1673ffffffffffffffffffffffffffffffffffffffff1681526020019081526020016000206040518060400160405290816000820160009054906101000a900460ff166003811115610c8d57610c8c61206f565b5b6003811115610c9f57610c9e61206f565b5b8152602001600182015481525050905092915050565b8160011515600460008373ffffffffffffffffffffffffffffffffffffffff1673ffffffffffffffffffffffffffffffffffffffff16815260200190815260200160002060003373ffffffffffffffffffffffffffffffffffffffff1673ffffffffffffffffffffffffffffffffffffffff16815260200190815260200160002060009054906101000a900460ff1615151480610d845750610d55611262565b73ffffffffffffffffffffffffffffffffffffffff163373ffffffffffffffffffffffffffffffffffffffff16145b610dc3576040517f08c379a0000000000000000000000000000000000000000000000000000000008152600401610dba9061238c565b60405180910390fd5b6001600460008573ffffffffffffffffffffffffffffffffffffffff1673ffffffffffffffffffffffffffffffffffffffff16815260200190815260200160002060008473ffffffffffffffffffffffffffffffffffffffff1673ffffffffffffffffffffffffffffffffffffffff16815260200190815260200160002060006101000a81548160ff021916908315150217905550505050565b80600380811115610e7157610e7061206f565b5b600260008373ffffffffffffffffffffffffffffffffffffffff1673ffffffffffffffffffffffffffffffffffffffff16815260200190815260200160002060030160003373ffffffffffffffffffffffffffffffffffffffff1673ffffffffffffffffffffffffffffffffffffffff16815260200190815260200160002060000160009054906101000a900460ff166003811115610f1357610f1261206f565b5b1415610f54576040517f08c379a0000000000000000000000000000000000000000000000000000000008152600401610f4b90612464565b60405180910390fd5b60028060008473ffffffffffffffffffffffffffffffffffffffff1673ffffffffffffffffffffffffffffffffffffffff16815260200190815260200160002060030160003373ffffffffffffffffffffffffffffffffffffffff1673ffffffffffffffffffffffffffffffffffffffff16815260200190815260200160002060000160006101000a81548160ff02191690836003811115610ff957610ff861206f565b5b021790555033600260008473ffffffffffffffffffffffffffffffffffffffff1673ffffffffffffffffffffffffffffffffffffffff1681526020019081526020016000206002016000600260008673ffffffffffffffffffffffffffffffffffffffff1673ffffffffffffffffffffffffffffffffffffffff16815260200190815260200160002060010154815260200190815260200160002060006101000a81548173ffffffffffffffffffffffffffffffffffffffff021916908373ffffffffffffffffffffffffffffffffffffffff160217905550600260008373ffffffffffffffffffffffffffffffffffffffff1673ffffffffffffffffffffffffffffffffffffffff16815260200190815260200160002060010160008154611121906125b4565b919050819055507fbed19f5b65ad42d891f94ee997a95c1c635d47af67169b52c2b2f0f823b7cd7133604051611157919061223b565b60405180910390a15050565b600160009054906101000a900478010000000000000000000000000000000000000000000000000281565b611196611ea7565b73ffffffffffffffffffffffffffffffffffffffff166111b4611262565b73ffffffffffffffffffffffffffffffffffffffff161461120a576040517f08c379a000000000000000000000000000000000000000000000000000000000815260040161120190612649565b60405180910390fd5b6112146000611eaf565b565b6000600260008373ffffffffffffffffffffffffffffffffffffffff1673ffffffffffffffffffffffffffffffffffffffff168152602001908152602001600020600101549050919050565b60008060009054906101000a900473ffffffffffffffffffffffffffffffffffffffff16905090565b60006003808111156112a05761129f61206f565b5b600260008573ffffffffffffffffffffffffffffffffffffffff1673ffffffffffffffffffffffffffffffffffffffff16815260200190815260200160002060030160008473ffffffffffffffffffffffffffffffffffffffff1673ffffffffffffffffffffffffffffffffffffffff16815260200190815260200160002060000160009054906101000a900460ff1660038111156113425761134161206f565b5b14905092915050565b6000600260008473ffffffffffffffffffffffffffffffffffffffff1673ffffffffffffffffffffffffffffffffffffffff168152602001908152602001600020600201600083815260200190815260200160002060009054906101000a900473ffffffffffffffffffffffffffffffffffffffff16905092915050565b816003808111156113dd576113dc61206f565b5b600260008373ffffffffffffffffffffffffffffffffffffffff1673ffffffffffffffffffffffffffffffffffffffff16815260200190815260200160002060030160003373ffffffffffffffffffffffffffffffffffffffff1673ffffffffffffffffffffffffffffffffffffffff16815260200190815260200160002060000160009054906101000a900460ff16600381111561147f5761147e61206f565b5b1480611518575060011515600460008373ffffffffffffffffffffffffffffffffffffffff1673ffffffffffffffffffffffffffffffffffffffff16815260200190815260200160002060003373ffffffffffffffffffffffffffffffffffffffff1673ffffffffffffffffffffffffffffffffffffffff16815260200190815260200160002060009054906101000a900460ff161515145b806115555750611526611262565b73ffffffffffffffffffffffffffffffffffffffff163373ffffffffffffffffffffffffffffffffffffffff16145b611594576040517f08c379a000000000000000000000000000000000000000000000000000000000815260040161158b9061253c565b60405180910390fd5b6003600260008573ffffffffffffffffffffffffffffffffffffffff1673ffffffffffffffffffffffffffffffffffffffff16815260200190815260200160002060030160008473ffffffffffffffffffffffffffffffffffffffff1673ffffffffffffffffffffffffffffffffffffffff16815260200190815260200160002060000160006101000a81548160ff0219169083600381111561163a5761163961206f565b5b021790555081600260008573ffffffffffffffffffffffffffffffffffffffff1673ffffffffffffffffffffffffffffffffffffffff1681526020019081526020016000206002016000600260008773ffffffffffffffffffffffffffffffffffffffff1673ffffffffffffffffffffffffffffffffffffffff16815260200190815260200160002060010154815260200190815260200160002060006101000a81548173ffffffffffffffffffffffffffffffffffffffff021916908373ffffffffffffffffffffffffffffffffffffffff160217905550600260008473ffffffffffffffffffffffffffffffffffffffff1673ffffffffffffffffffffffffffffffffffffffff16815260200190815260200160002060010160008154611762906125b4565b919050819055507f6a2af11b2d73f347f9d5840aea46899e17609730b5cd91bd9c312098038acba6823360405161179a92919061255c565b60405180910390a1505050565b60026020528060005260406000206000915090508060000160009054906101000a900473ffffffffffffffffffffffffffffffffffffffff16908060010154908060040160009054906101000a900460ff16905083565b816003808111156118125761181161206f565b5b600260008373ffffffffffffffffffffffffffffffffffffffff1673ffffffffffffffffffffffffffffffffffffffff16815260200190815260200160002060030160003373ffffffffffffffffffffffffffffffffffffffff1673ffffffffffffffffffffffffffffffffffffffff16815260200190815260200160002060000160009054906101000a900460ff1660038111156118b4576118b361206f565b5b148061194d575060011515600460008373ffffffffffffffffffffffffffffffffffffffff1673ffffffffffffffffffffffffffffffffffffffff16815260200190815260200160002060003373ffffffffffffffffffffffffffffffffffffffff1673ffffffffffffffffffffffffffffffffffffffff16815260200190815260200160002060009054906101000a900460ff161515145b8061198a575061195b611262565b73ffffffffffffffffffffffffffffffffffffffff163373ffffffffffffffffffffffffffffffffffffffff16145b6119c9576040517f08c379a00000000000000000000000000000000000000000000000000000000081526004016119c09061253c565b60405180910390fd5b6001600260008573ffffffffffffffffffffffffffffffffffffffff1673ffffffffffffffffffffffffffffffffffffffff16815260200190815260200160002060030160008473ffffffffffffffffffffffffffffffffffffffff1673ffffffffffffffffffffffffffffffffffffffff16815260200190815260200160002060000160006101000a81548160ff02191690836003811115611a6f57611a6e61206f565b5b021790555081600260008573ffffffffffffffffffffffffffffffffffffffff1673ffffffffffffffffffffffffffffffffffffffff1681526020019081526020016000206002016000600260008773ffffffffffffffffffffffffffffffffffffffff1673ffffffffffffffffffffffffffffffffffffffff16815260200190815260200160002060010154815260200190815260200160002060006101000a81548173ffffffffffffffffffffffffffffffffffffffff021916908373ffffffffffffffffffffffffffffffffffffffff160217905550600260008473ffffffffffffffffffffffffffffffffffffffff1673ffffffffffffffffffffffffffffffffffffffff16815260200190815260200160002060010160008154611b97906125b4565b919050819055507f6c246c8894ac239253d22cd508dbe8eb7e027e0589cdd4ff16dbb4238ccd98343383604051611bcf92919061255c565b60405180910390a1505050565b600060149054906101000a900478010000000000000000000000000000000000000000000000000281565b611c0f611ea7565b73ffffffffffffffffffffffffffffffffffffffff16611c2d611262565b73ffffffffffffffffffffffffffffffffffffffff1614611c83576040517f08c379a0000000000000000000000000000000000000000000000000000000008152600401611c7a90612649565b60405180910390fd5b600073ffffffffffffffffffffffffffffffffffffffff168173ffffffffffffffffffffffffffffffffffffffff161415611cf3576040517f08c379a0000000000000000000000000000000000000000000000000000000008152600401611cea906126db565b60405180910390fd5b611cfc81611eaf565b50565b8160011515600460008373ffffffffffffffffffffffffffffffffffffffff1673ffffffffffffffffffffffffffffffffffffffff16815260200190815260200160002060003373ffffffffffffffffffffffffffffffffffffffff1673ffffffffffffffffffffffffffffffffffffffff16815260200190815260200160002060009054906101000a900460ff1615151480611dce5750611d9f611262565b73ffffffffffffffffffffffffffffffffffffffff163373ffffffffffffffffffffffffffffffffffffffff16145b611e0d576040517f08c379a0000000000000000000000000000000000000000000000000000000008152600401611e049061238c565b60405180910390fd5b6000600460008573ffffffffffffffffffffffffffffffffffffffff1673ffffffffffffffffffffffffffffffffffffffff16815260200190815260200160002060008473ffffffffffffffffffffffffffffffffffffffff1673ffffffffffffffffffffffffffffffffffffffff16815260200190815260200160002060006101000a81548160ff021916908315150217905550505050565b600033905090565b60008060009054906101000a900473ffffffffffffffffffffffffffffffffffffffff169050816000806101000a81548173ffffffffffffffffffffffffffffffffffffffff021916908373ffffffffffffffffffffffffffffffffffffffff1602179055508173ffffffffffffffffffffffffffffffffffffffff168173ffffffffffffffffffffffffffffffffffffffff167f8be0079c531659141344cd1fd0a4f28419497f9722a3daafe3b4186f6b6457e060405160405180910390a35050565b604051806040016040528060006003811115611f9257611f9161206f565b5b8152602001600081525090565b600080fd5b600073ffffffffffffffffffffffffffffffffffffffff82169050919050565b6000611fcf82611fa4565b9050919050565b611fdf81611fc4565b8114611fea57600080fd5b50565b600081359050611ffc81611fd6565b92915050565b6000806040838503121561201957612018611f9f565b5b600061202785828601611fed565b925050602061203885828601611fed565b9150509250929050565b60006020828403121561205857612057611f9f565b5b600061206684828501611fed565b91505092915050565b7f4e487b7100000000000000000000000000000000000000000000000000000000600052602160045260246000fd5b600281106120af576120ae61206f565b5b50565b60008190506120c08261209e565b919050565b60006120d0826120b2565b9050919050565b6120e0816120c5565b82525050565b60006020820190506120fb60008301846120d7565b92915050565b600481106121125761211161206f565b5b50565b600081905061212382612101565b919050565b600061213382612115565b9050919050565b61214381612128565b82525050565b6000819050919050565b61215c81612149565b82525050565b604082016000820151612178600085018261213a565b50602082015161218b6020850182612153565b50505050565b60006040820190506121a66000830184612162565b92915050565b60007fffffffffffffffff00000000000000000000000000000000000000000000000082169050919050565b6121e1816121ac565b82525050565b60006020820190506121fc60008301846121d8565b92915050565b61220b81612149565b82525050565b60006020820190506122266000830184612202565b92915050565b61223581611fc4565b82525050565b6000602082019050612250600083018461222c565b92915050565b60008115159050919050565b61226b81612256565b82525050565b60006020820190506122866000830184612262565b92915050565b61229581612149565b81146122a057600080fd5b50565b6000813590506122b28161228c565b92915050565b600080604083850312156122cf576122ce611f9f565b5b60006122dd85828601611fed565b92505060206122ee858286016122a3565b9150509250929050565b600060608201905061230d600083018661222c565b61231a6020830185612202565b6123276040830184612262565b949350505050565b600082825260208201905092915050565b7f4e6f7420617574686f72697a6564204141410000000000000000000000000000600082015250565b600061237660128361232f565b915061238182612340565b602082019050919050565b600060208201905081810360008301526123a581612369565b9050919050565b7f44616f20616c7265616479206164646564000000000000000000000000000000600082015250565b60006123e260118361232f565b91506123ed826123ac565b602082019050919050565b60006020820190508181036000830152612411816123d5565b9050919050565b7f4e6f7420617574686f72697a6564204141414141000000000000000000000000600082015250565b600061244e60148361232f565b915061245982612418565b602082019050919050565b6000602082019050818103600083015261247d81612441565b9050919050565b7f496d706f737369626c6520746f206a6f696e0000000000000000000000000000600082015250565b60006124ba60128361232f565b91506124c582612484565b602082019050919050565b600060208201905081810360008301526124e9816124ad565b9050919050565b7f4e6f7420617574686f72697a6564204141414100000000000000000000000000600082015250565b600061252660138361232f565b9150612531826124f0565b602082019050919050565b6000602082019050818103600083015261255581612519565b9050919050565b6000604082019050612571600083018561222c565b61257e602083018461222c565b9392505050565b7f4e487b7100000000000000000000000000000000000000000000000000000000600052601160045260246000fd5b60006125bf82612149565b91507fffffffffffffffffffffffffffffffffffffffffffffffffffffffffffffffff8214156125f2576125f1612585565b5b600182019050919050565b7f4f776e61626c653a2063616c6c6572206973206e6f7420746865206f776e6572600082015250565b600061263360208361232f565b915061263e826125fd565b602082019050919050565b6000602082019050818103600083015261266281612626565b9050919050565b7f4f776e61626c653a206e6577206f776e657220697320746865207a65726f206160008201527f6464726573730000000000000000000000000000000000000000000000000000602082015250565b60006126c560268361232f565b91506126d082612669565b604082019050919050565b600060208201905081810360008301526126f4816126b8565b905091905056fea2646970667358221220ccb712afe175c10d3d51802107edcebfa9d47bbeddd7b5675d034bbac57406dd64736f6c63430008090033",
  "immutableReferences": {},
  "source": "// SPDX-License-Identifier: MIT\r\npragma solidity ^0.8.9;\r\n\r\nimport \"@openzeppelin/contracts/utils/math/SafeMath.sol\";\r\nimport \"@openzeppelin/contracts/access/Ownable.sol\";\r\nimport \"../../Data.sol\";\r\nimport \"../../DaoBase.sol\";\r\n\r\n//is DaosFactory\r\ncontract InviteMembershipModule is Ownable {\r\n  using SafeMath for uint256;\r\n  bytes8 public moduleCode = bytes8(keccak256(abi.encode(\"InviteMembershipModule\")));\r\n  bytes8 public moduleType = bytes8(keccak256(abi.encode(\"MemberModule\")));\r\n  mapping(address => Data.DaoMember) public daos;\r\n  Data.visibilityEnum public visibility;\r\n  mapping(address => mapping(address => bool)) private authorizedContracts;\r\n  event MemberAdded(address newMember, address adderAddress);\r\n  event MemberAccepted(address newMember, address acceptorAddress);\r\n  event MemberInvited(address memberInvited, address memberInvitor);\r\n  event MemberJoined(address memberJoined);\r\n  event MemberAskedJoin(address memberRequestor);\r\n\r\n  constructor(address _contractFactory) {\r\n    _transferOwnership(_contractFactory);\r\n  }\r\n\r\n    modifier onlyActiveMembersOrAuthorizeContracts(address _contractDao) {\r\n        require(daos[_contractDao].members[msg.sender].status == Data.memberStatus.active\r\n        || authorizedContracts[_contractDao][msg.sender] == true\r\n        || msg.sender == owner(), \"Not authorized AAAA\");\r\n        _;\r\n    }\r\n\r\n    modifier onlyNotActiveMembers(address _contractDao) {\r\n        require(daos[_contractDao].members[msg.sender].status != Data.memberStatus.active, \"Not authorized AAAAA\");\r\n        _;\r\n    }\r\n\r\n    modifier onlyAuthorizeContracts(address _contractDao) {\r\n        require(authorizedContracts[_contractDao][msg.sender] == true, \"Not authorized A\");\r\n        _;\r\n    }\r\n\r\n    modifier onlyAuthorizeContractsOrOwner(address _contractDao) {\r\n        require(authorizedContracts[_contractDao][msg.sender] == true || msg.sender == owner(), \"Not authorized AAA\");\r\n        _;\r\n    }\r\n\r\n    function getMemberInfo(address _contractDao, address _member) external view returns(Data.member memory) {\r\n        return(daos[_contractDao].members[_member]);\r\n    }\r\n    function getAddrById(address _contractDao, uint256 id) external view returns(address) {\r\n        return daos[_contractDao].memberAddresses[id];\r\n    }\r\n    function getMembersCount(address _contractDao) external view returns(uint256) {\r\n        return daos[_contractDao].membersCount;\r\n    }\r\n\r\n    function addMember(address _contractDao, address addressMember) public onlyActiveMembersOrAuthorizeContracts(_contractDao) {\r\n        daos[_contractDao].members[addressMember].status = Data.memberStatus.active;\r\n        daos[_contractDao].memberAddresses[daos[_contractDao].membersCount] = addressMember;\r\n        ++daos[_contractDao].membersCount;\r\n        emit MemberAdded(addressMember, msg.sender);\r\n    }\r\n\r\n    function acceptMember(address _contractDao, address addressMember) public onlyActiveMembersOrAuthorizeContracts(_contractDao) {\r\n        daos[_contractDao].members[addressMember].status = Data.memberStatus.active;\r\n        emit MemberAccepted(addressMember, msg.sender);\r\n    }\r\n\r\n    function inviteMember(address _contractDao, address addressMember) public onlyActiveMembersOrAuthorizeContracts(_contractDao) {\r\n        daos[_contractDao].members[addressMember].status = Data.memberStatus.invited;\r\n        daos[_contractDao].memberAddresses[daos[_contractDao].membersCount] = addressMember;\r\n        ++daos[_contractDao].membersCount;\r\n        emit MemberInvited(msg.sender, addressMember);\r\n    }\r\n\r\n    function requestJoin(address _contractDao) public onlyNotActiveMembers(_contractDao) {\r\n        daos[_contractDao].members[msg.sender].status = Data.memberStatus.asking;\r\n        daos[_contractDao].memberAddresses[daos[_contractDao].membersCount] = msg.sender;\r\n        ++daos[_contractDao].membersCount;\r\n        emit MemberAskedJoin(msg.sender);\r\n    }\r\n\r\n    function isActiveMember(address _contractDao, address addressMember) public view returns (bool){\r\n        return daos[_contractDao].members[addressMember].status == Data.memberStatus.active;\r\n    }\r\n\r\n    function join(address _contractDao) public onlyNotActiveMembers(_contractDao) {\r\n        require((daos[_contractDao].members[msg.sender].status == Data.memberStatus.invited)\r\n                , \"Impossible to join\");\r\n        daos[_contractDao].members[msg.sender].status = Data.memberStatus.active;\r\n        emit MemberJoined(msg.sender);\r\n    }\r\n\r\n    function addDao(address _contractDao, address _memberDao) external onlyAuthorizeContractsOrOwner(_contractDao) {\r\n        require(!daos[_contractDao].isActive, \"Dao already added\");\r\n        daos[_contractDao].isActive = true;\r\n        daos[_contractDao].addressDao = _contractDao;\r\n        addMember(_contractDao, _memberDao);\r\n    }\r\n\r\n    function authorizeContract(address _contractDao, address _contractAddress) external onlyAuthorizeContractsOrOwner(_contractDao) {\r\n        authorizedContracts[_contractDao][_contractAddress] = true;\r\n    }\r\n\r\n    function denyContract(address _contractDao, address _contractAddress) external onlyAuthorizeContractsOrOwner(_contractDao) {\r\n        authorizedContracts[_contractDao][_contractAddress] = false;\r\n    }\r\n}",
  "sourcePath": "C:\\Users\\mdmou\\source\\repos\\MY-DAO\\contracts\\Modules\\Implementations\\InviteMembershipModule.sol",
  "compiler": {
    "name": "solc",
    "version": "0.8.9+commit.e5eed63a.Emscripten.clang"
  },
  "schemaVersion": "3.4.4",
  "updatedAt": "2022-05-17T15:55:10.631Z",
  "networkType": "ethereum",
  "devdoc": {
    "kind": "dev",
    "methods": {
      "owner()": {
        "details": "Returns the address of the current owner."
      },
      "renounceOwnership()": {
        "details": "Leaves the contract without owner. It will not be possible to call `onlyOwner` functions anymore. Can only be called by the current owner. NOTE: Renouncing ownership will leave the contract without an owner, thereby removing any functionality that is only available to the owner."
      },
      "transferOwnership(address)": {
        "details": "Transfers ownership of the contract to a new account (`newOwner`). Can only be called by the current owner."
      }
    },
    "version": 1
  },
  "userdoc": {
    "kind": "user",
    "methods": {},
    "version": 1
  }
}