{
  "contractName": "MembershipModule_Old",
  "abi": [
    {
      "inputs": [
        {
          "internalType": "uint8",
          "name": "membershipMode",
          "type": "uint8"
        }
      ],
      "stateMutability": "nonpayable",
      "type": "constructor"
    },
    {
      "anonymous": false,
      "inputs": [
        {
          "indexed": false,
          "internalType": "address",
          "name": "newMember",
          "type": "address"
        },
        {
          "indexed": false,
          "internalType": "address",
          "name": "acceptorAddress",
          "type": "address"
        }
      ],
      "name": "MemberAccepted",
      "type": "event"
    },
    {
      "anonymous": false,
      "inputs": [
        {
          "indexed": false,
          "internalType": "address",
          "name": "newMember",
          "type": "address"
        },
        {
          "indexed": false,
          "internalType": "address",
          "name": "adderAddress",
          "type": "address"
        }
      ],
      "name": "MemberAdded",
      "type": "event"
    },
    {
      "anonymous": false,
      "inputs": [
        {
          "indexed": false,
          "internalType": "address",
          "name": "memberRequestor",
          "type": "address"
        }
      ],
      "name": "MemberAskedJoin",
      "type": "event"
    },
    {
      "anonymous": false,
      "inputs": [
        {
          "indexed": false,
          "internalType": "address",
          "name": "memberInvited",
          "type": "address"
        },
        {
          "indexed": false,
          "internalType": "address",
          "name": "memberInvitor",
          "type": "address"
        }
      ],
      "name": "MemberInvited",
      "type": "event"
    },
    {
      "anonymous": false,
      "inputs": [
        {
          "indexed": false,
          "internalType": "address",
          "name": "memberJoined",
          "type": "address"
        }
      ],
      "name": "MemberJoined",
      "type": "event"
    },
    {
      "anonymous": false,
      "inputs": [
        {
          "indexed": true,
          "internalType": "address",
          "name": "previousOwner",
          "type": "address"
        },
        {
          "indexed": true,
          "internalType": "address",
          "name": "newOwner",
          "type": "address"
        }
      ],
      "name": "OwnershipTransferred",
      "type": "event"
    },
    {
      "inputs": [
        {
          "internalType": "uint256",
          "name": "",
          "type": "uint256"
        }
      ],
      "name": "memberAddresses",
      "outputs": [
        {
          "internalType": "address",
          "name": "",
          "type": "address"
        }
      ],
      "stateMutability": "view",
      "type": "function"
    },
    {
      "inputs": [
        {
          "internalType": "address",
          "name": "",
          "type": "address"
        }
      ],
      "name": "members",
      "outputs": [
        {
          "internalType": "enum Data.memberStatus",
          "name": "status",
          "type": "uint8"
        },
        {
          "internalType": "uint256",
          "name": "joinTime",
          "type": "uint256"
        }
      ],
      "stateMutability": "view",
      "type": "function"
    },
    {
      "inputs": [],
      "name": "membershipModeMode",
      "outputs": [
        {
          "internalType": "enum Data.membershipModeEnum",
          "name": "",
          "type": "uint8"
        }
      ],
      "stateMutability": "view",
      "type": "function"
    },
    {
      "inputs": [],
      "name": "moduleCode",
      "outputs": [
        {
          "internalType": "bytes8",
          "name": "",
          "type": "bytes8"
        }
      ],
      "stateMutability": "view",
      "type": "function"
    },
    {
      "inputs": [],
      "name": "moduleType",
      "outputs": [
        {
          "internalType": "bytes8",
          "name": "",
          "type": "bytes8"
        }
      ],
      "stateMutability": "view",
      "type": "function"
    },
    {
      "inputs": [],
      "name": "owner",
      "outputs": [
        {
          "internalType": "address",
          "name": "",
          "type": "address"
        }
      ],
      "stateMutability": "view",
      "type": "function"
    },
    {
      "inputs": [],
      "name": "renounceOwnership",
      "outputs": [],
      "stateMutability": "nonpayable",
      "type": "function"
    },
    {
      "inputs": [
        {
          "internalType": "address",
          "name": "newOwner",
          "type": "address"
        }
      ],
      "name": "transferOwnership",
      "outputs": [],
      "stateMutability": "nonpayable",
      "type": "function"
    },
    {
      "inputs": [],
      "name": "visibility",
      "outputs": [
        {
          "internalType": "enum Data.visibilityEnum",
          "name": "",
          "type": "uint8"
        }
      ],
      "stateMutability": "view",
      "type": "function"
    },
    {
      "inputs": [
        {
          "internalType": "address",
          "name": "_member",
          "type": "address"
        }
      ],
      "name": "getMemberInfo",
      "outputs": [
        {
          "components": [
            {
              "internalType": "enum Data.memberStatus",
              "name": "status",
              "type": "uint8"
            },
            {
              "internalType": "uint256",
              "name": "joinTime",
              "type": "uint256"
            }
          ],
          "internalType": "struct Data.member",
          "name": "",
          "type": "tuple"
        }
      ],
      "stateMutability": "view",
      "type": "function"
    },
    {
      "inputs": [
        {
          "internalType": "uint256",
          "name": "id",
          "type": "uint256"
        }
      ],
      "name": "getAddrById",
      "outputs": [
        {
          "internalType": "address",
          "name": "",
          "type": "address"
        }
      ],
      "stateMutability": "view",
      "type": "function"
    },
    {
      "inputs": [],
      "name": "getMembersCount",
      "outputs": [
        {
          "internalType": "uint256",
          "name": "",
          "type": "uint256"
        }
      ],
      "stateMutability": "view",
      "type": "function"
    },
    {
      "inputs": [
        {
          "internalType": "address",
          "name": "addressMember",
          "type": "address"
        }
      ],
      "name": "addMember",
      "outputs": [],
      "stateMutability": "nonpayable",
      "type": "function"
    },
    {
      "inputs": [
        {
          "internalType": "address",
          "name": "addressMember",
          "type": "address"
        }
      ],
      "name": "acceptMember",
      "outputs": [],
      "stateMutability": "nonpayable",
      "type": "function"
    },
    {
      "inputs": [
        {
          "internalType": "address",
          "name": "addressMember",
          "type": "address"
        }
      ],
      "name": "inviteMember",
      "outputs": [],
      "stateMutability": "nonpayable",
      "type": "function"
    },
    {
      "inputs": [],
      "name": "requestJoin",
      "outputs": [],
      "stateMutability": "nonpayable",
      "type": "function"
    },
    {
      "inputs": [
        {
          "internalType": "address",
          "name": "addressMember",
          "type": "address"
        }
      ],
      "name": "isActiveMember",
      "outputs": [
        {
          "internalType": "bool",
          "name": "",
          "type": "bool"
        }
      ],
      "stateMutability": "view",
      "type": "function"
    },
    {
      "inputs": [],
      "name": "join",
      "outputs": [],
      "stateMutability": "nonpayable",
      "type": "function"
    },
    {
      "inputs": [
        {
          "internalType": "address",
          "name": "_contractAddress",
          "type": "address"
        }
      ],
      "name": "authorizeContract",
      "outputs": [],
      "stateMutability": "nonpayable",
      "type": "function"
    },
    {
      "inputs": [
        {
          "internalType": "address",
          "name": "_contractAddress",
          "type": "address"
        }
      ],
      "name": "denyContract",
      "outputs": [],
      "stateMutability": "nonpayable",
      "type": "function"
    }
  ],
  "bytecode": "0x60806040526040516020016200001590620004f0565b60405160208183030381529060405280519060200120600060146101000a81548167ffffffffffffffff0219169083780100000000000000000000000000000000000000000000000090040217905550604051602001620000769062000562565b60405160208183030381529060405280519060200120600160006101000a81548167ffffffffffffffff0219169083780100000000000000000000000000000000000000000000000090040217905550348015620000d357600080fd5b50604051620023be380380620023be8339818101604052810190620000f99190620005c7565b6200012b6200011662000191640100000000026401000000009004565b62000199640100000000026401000000009004565b8060ff166002811115620001445762000143620005f9565b5b600560006101000a81548160ff021916908360028111156200016b576200016a620005f9565b5b02179055506200018a336200025d640100000000026401000000009004565b5062000793565b600033905090565b60008060009054906101000a900473ffffffffffffffffffffffffffffffffffffffff169050816000806101000a81548173ffffffffffffffffffffffffffffffffffffffff021916908373ffffffffffffffffffffffffffffffffffffffff1602179055508173ffffffffffffffffffffffffffffffffffffffff168173ffffffffffffffffffffffffffffffffffffffff167f8be0079c531659141344cd1fd0a4f28419497f9722a3daafe3b4186f6b6457e060405160405180910390a35050565b600380811115620002735762000272620005f9565b5b600460003373ffffffffffffffffffffffffffffffffffffffff1673ffffffffffffffffffffffffffffffffffffffff16815260200190815260200160002060000160009054906101000a900460ff166003811115620002d857620002d7620005f9565b5b148062000335575060011515600660003373ffffffffffffffffffffffffffffffffffffffff1673ffffffffffffffffffffffffffffffffffffffff16815260200190815260200160002060009054906101000a900460ff161515145b62000377576040517f08c379a00000000000000000000000000000000000000000000000000000000081526004016200036e9062000678565b60405180910390fd5b6003600460008373ffffffffffffffffffffffffffffffffffffffff1673ffffffffffffffffffffffffffffffffffffffff16815260200190815260200160002060000160006101000a81548160ff02191690836003811115620003e057620003df620005f9565b5b02179055508060036000600254815260200190815260200160002060006101000a81548173ffffffffffffffffffffffffffffffffffffffff021916908373ffffffffffffffffffffffffffffffffffffffff1602179055506002600081546200044a90620006d3565b919050819055507f6a2af11b2d73f347f9d5840aea46899e17609730b5cd91bd9c312098038acba681336040516200048492919062000766565b60405180910390a150565b600082825260208201905092915050565b7f4d656d6265727368697044616f00000000000000000000000000000000000000600082015250565b6000620004d8600d836200048f565b9150620004e582620004a0565b602082019050919050565b600060208201905081810360008301526200050b81620004c9565b9050919050565b7f4d656d6265724d6f64756c650000000000000000000000000000000000000000600082015250565b60006200054a600c836200048f565b9150620005578262000512565b602082019050919050565b600060208201905081810360008301526200057d816200053b565b9050919050565b600080fd5b600060ff82169050919050565b620005a18162000589565b8114620005ad57600080fd5b50565b600081519050620005c18162000596565b92915050565b600060208284031215620005e057620005df62000584565b5b6000620005f084828501620005b0565b91505092915050565b7f4e487b7100000000000000000000000000000000000000000000000000000000600052602160045260246000fd5b7f4e6f7420617574686f72697a6564000000000000000000000000000000000000600082015250565b600062000660600e836200048f565b91506200066d8262000628565b602082019050919050565b60006020820190508181036000830152620006938162000651565b9050919050565b7f4e487b7100000000000000000000000000000000000000000000000000000000600052601160045260246000fd5b6000819050919050565b6000620006e082620006c9565b91507fffffffffffffffffffffffffffffffffffffffffffffffffffffffffffffffff8214156200071657620007156200069a565b5b600182019050919050565b600073ffffffffffffffffffffffffffffffffffffffff82169050919050565b60006200074e8262000721565b9050919050565b620007608162000741565b82525050565b60006040820190506200077d600083018562000755565b6200078c602083018462000755565b9392505050565b611c1b80620007a36000396000f3fe608060405234801561001057600080fd5b5060043610610149576000357c0100000000000000000000000000000000000000000000000000000000900480636465e69f116100ca578063b7e2077e1161008e578063b7e2077e14610317578063ca6d56dc14610333578063cc4e62991461034f578063f0744c161461037f578063f2fde38b1461039d57610149565b80636465e69f146102ab57806367561d93146102c9578063715018a6146102e55780638da5cb5b146102ef578063b688a3631461030d57610149565b80632f890b93116101115780632f890b931461020957806341e4ba921461022557806345ecd02f1461022f57806358a003751461025f5780635f1231ea1461027b57610149565b806308ae4b0c1461014e57806309772f8f1461017f5780630d5f095a1461019d5780631f46cc62146101cd57806329adec14146101eb575b600080fd5b6101686004803603810190610163919061161f565b6103b9565b6040516101769291906116dc565b60405180910390f35b6101876103ea565b6040516101949190611705565b60405180910390f35b6101b760048036038101906101b2919061174c565b6103f4565b6040516101c49190611788565b60405180910390f35b6101d5610431565b6040516101e291906117eb565b60405180910390f35b6101f3610444565b604051610200919061184e565b60405180910390f35b610223600480360381019061021e919061161f565b610457565b005b61022d610678565b005b6102496004803603810190610244919061161f565b61083c565b6040516102569190611884565b60405180910390f35b6102796004803603810190610274919061161f565b6108bb565b005b6102956004803603810190610290919061161f565b610a72565b6040516102a291906118ec565b60405180910390f35b6102b3610b10565b6040516102c09190611942565b60405180910390f35b6102e360048036038101906102de919061161f565b610b3b565b005b6102ed610c66565b005b6102f7610cee565b6040516103049190611788565b60405180910390f35b610315610d17565b005b610331600480360381019061032c919061161f565b611022565b005b61034d6004803603810190610348919061161f565b61114d565b005b6103696004803603810190610364919061174c565b61136e565b6040516103769190611788565b60405180910390f35b6103876113a1565b6040516103949190611942565b60405180910390f35b6103b760048036038101906103b2919061161f565b6113cc565b005b60046020528060005260406000206000915090508060000160009054906101000a900460ff16908060010154905082565b6000600254905090565b60006003600083815260200190815260200160002060009054906101000a900473ffffffffffffffffffffffffffffffffffffffff169050919050565b600560009054906101000a900460ff1681565b600560019054906101000a900460ff1681565b60038081111561046a5761046961164c565b5b600460003373ffffffffffffffffffffffffffffffffffffffff1673ffffffffffffffffffffffffffffffffffffffff16815260200190815260200160002060000160009054906101000a900460ff1660038111156104cc576104cb61164c565b5b1480610528575060011515600660003373ffffffffffffffffffffffffffffffffffffffff1673ffffffffffffffffffffffffffffffffffffffff16815260200190815260200160002060009054906101000a900460ff161515145b610567576040517f08c379a000000000000000000000000000000000000000000000000000000000815260040161055e906119ba565b60405180910390fd5b6001600460008373ffffffffffffffffffffffffffffffffffffffff1673ffffffffffffffffffffffffffffffffffffffff16815260200190815260200160002060000160006101000a81548160ff021916908360038111156105cd576105cc61164c565b5b02179055508060036000600254815260200190815260200160002060006101000a81548173ffffffffffffffffffffffffffffffffffffffff021916908373ffffffffffffffffffffffffffffffffffffffff16021790555060026000815461063590611a09565b919050819055507f6c246c8894ac239253d22cd508dbe8eb7e027e0589cdd4ff16dbb4238ccd9834338260405161066d929190611a52565b60405180910390a150565b60038081111561068b5761068a61164c565b5b600460003373ffffffffffffffffffffffffffffffffffffffff1673ffffffffffffffffffffffffffffffffffffffff16815260200190815260200160002060000160009054906101000a900460ff1660038111156106ed576106ec61164c565b5b141561072e576040517f08c379a0000000000000000000000000000000000000000000000000000000008152600401610725906119ba565b60405180910390fd5b6002600460003373ffffffffffffffffffffffffffffffffffffffff1673ffffffffffffffffffffffffffffffffffffffff16815260200190815260200160002060000160006101000a81548160ff021916908360038111156107945761079361164c565b5b02179055503360036000600254815260200190815260200160002060006101000a81548173ffffffffffffffffffffffffffffffffffffffff021916908373ffffffffffffffffffffffffffffffffffffffff1602179055506002600081546107fc90611a09565b919050819055507fbed19f5b65ad42d891f94ee997a95c1c635d47af67169b52c2b2f0f823b7cd71336040516108329190611788565b60405180910390a1565b60006003808111156108515761085061164c565b5b600460008473ffffffffffffffffffffffffffffffffffffffff1673ffffffffffffffffffffffffffffffffffffffff16815260200190815260200160002060000160009054906101000a900460ff1660038111156108b3576108b261164c565b5b149050919050565b6003808111156108ce576108cd61164c565b5b600460003373ffffffffffffffffffffffffffffffffffffffff1673ffffffffffffffffffffffffffffffffffffffff16815260200190815260200160002060000160009054906101000a900460ff1660038111156109305761092f61164c565b5b148061098c575060011515600660003373ffffffffffffffffffffffffffffffffffffffff1673ffffffffffffffffffffffffffffffffffffffff16815260200190815260200160002060009054906101000a900460ff161515145b6109cb576040517f08c379a00000000000000000000000000000000000000000000000000000000081526004016109c2906119ba565b60405180910390fd5b6003600460008373ffffffffffffffffffffffffffffffffffffffff1673ffffffffffffffffffffffffffffffffffffffff16815260200190815260200160002060000160006101000a81548160ff02191690836003811115610a3157610a3061164c565b5b02179055507f69d02d7fd90d09588f2ba0ea3c2ba06a591eda1b091ed67790e2b36fb339ac538133604051610a67929190611a52565b60405180910390a150565b610a7a611590565b600460008373ffffffffffffffffffffffffffffffffffffffff1673ffffffffffffffffffffffffffffffffffffffff1681526020019081526020016000206040518060400160405290816000820160009054906101000a900460ff166003811115610ae957610ae861164c565b5b6003811115610afb57610afa61164c565b5b81526020016001820154815250509050919050565b600160009054906101000a900478010000000000000000000000000000000000000000000000000281565b60011515600660003373ffffffffffffffffffffffffffffffffffffffff1673ffffffffffffffffffffffffffffffffffffffff16815260200190815260200160002060009054906101000a900460ff1615151480610bcc5750610b9d610cee565b73ffffffffffffffffffffffffffffffffffffffff163373ffffffffffffffffffffffffffffffffffffffff16145b610c0b576040517f08c379a0000000000000000000000000000000000000000000000000000000008152600401610c02906119ba565b60405180910390fd5b6001600660008373ffffffffffffffffffffffffffffffffffffffff1673ffffffffffffffffffffffffffffffffffffffff16815260200190815260200160002060006101000a81548160ff02191690831515021790555050565b610c6e6114c4565b73ffffffffffffffffffffffffffffffffffffffff16610c8c610cee565b73ffffffffffffffffffffffffffffffffffffffff1614610ce2576040517f08c379a0000000000000000000000000000000000000000000000000000000008152600401610cd990611ac7565b60405180910390fd5b610cec60006114cc565b565b60008060009054906101000a900473ffffffffffffffffffffffffffffffffffffffff16905090565b600380811115610d2a57610d2961164c565b5b600460003373ffffffffffffffffffffffffffffffffffffffff1673ffffffffffffffffffffffffffffffffffffffff16815260200190815260200160002060000160009054906101000a900460ff166003811115610d8c57610d8b61164c565b5b1415610dcd576040517f08c379a0000000000000000000000000000000000000000000000000000000008152600401610dc4906119ba565b60405180910390fd5b60016003811115610de157610de061164c565b5b600460003373ffffffffffffffffffffffffffffffffffffffff1673ffffffffffffffffffffffffffffffffffffffff16815260200190815260200160002060000160009054906101000a900460ff166003811115610e4357610e4261164c565b5b148015610e83575060006002811115610e5f57610e5e61164c565b5b600560009054906101000a900460ff166002811115610e8157610e8061164c565b5b145b80610f3f575060006003811115610e9d57610e9c61164c565b5b600460003373ffffffffffffffffffffffffffffffffffffffff1673ffffffffffffffffffffffffffffffffffffffff16815260200190815260200160002060000160009054906101000a900460ff166003811115610eff57610efe61164c565b5b148015610f3e5750600280811115610f1a57610f1961164c565b5b600560009054906101000a900460ff166002811115610f3c57610f3b61164c565b5b145b5b610f7e576040517f08c379a0000000000000000000000000000000000000000000000000000000008152600401610f7590611b33565b60405180910390fd5b6003600460003373ffffffffffffffffffffffffffffffffffffffff1673ffffffffffffffffffffffffffffffffffffffff16815260200190815260200160002060000160006101000a81548160ff02191690836003811115610fe457610fe361164c565b5b02179055507f0abf3b3f643594d958297062a019458e27d7766629590ac621aa1000fa1298ab336040516110189190611788565b60405180910390a1565b60011515600660003373ffffffffffffffffffffffffffffffffffffffff1673ffffffffffffffffffffffffffffffffffffffff16815260200190815260200160002060009054906101000a900460ff16151514806110b35750611084610cee565b73ffffffffffffffffffffffffffffffffffffffff163373ffffffffffffffffffffffffffffffffffffffff16145b6110f2576040517f08c379a00000000000000000000000000000000000000000000000000000000081526004016110e9906119ba565b60405180910390fd5b6000600660008373ffffffffffffffffffffffffffffffffffffffff1673ffffffffffffffffffffffffffffffffffffffff16815260200190815260200160002060006101000a81548160ff02191690831515021790555050565b6003808111156111605761115f61164c565b5b600460003373ffffffffffffffffffffffffffffffffffffffff1673ffffffffffffffffffffffffffffffffffffffff16815260200190815260200160002060000160009054906101000a900460ff1660038111156111c2576111c161164c565b5b148061121e575060011515600660003373ffffffffffffffffffffffffffffffffffffffff1673ffffffffffffffffffffffffffffffffffffffff16815260200190815260200160002060009054906101000a900460ff161515145b61125d576040517f08c379a0000000000000000000000000000000000000000000000000000000008152600401611254906119ba565b60405180910390fd5b6003600460008373ffffffffffffffffffffffffffffffffffffffff1673ffffffffffffffffffffffffffffffffffffffff16815260200190815260200160002060000160006101000a81548160ff021916908360038111156112c3576112c261164c565b5b02179055508060036000600254815260200190815260200160002060006101000a81548173ffffffffffffffffffffffffffffffffffffffff021916908373ffffffffffffffffffffffffffffffffffffffff16021790555060026000815461132b90611a09565b919050819055507f6a2af11b2d73f347f9d5840aea46899e17609730b5cd91bd9c312098038acba68133604051611363929190611a52565b60405180910390a150565b60036020528060005260406000206000915054906101000a900473ffffffffffffffffffffffffffffffffffffffff1681565b600060149054906101000a900478010000000000000000000000000000000000000000000000000281565b6113d46114c4565b73ffffffffffffffffffffffffffffffffffffffff166113f2610cee565b73ffffffffffffffffffffffffffffffffffffffff1614611448576040517f08c379a000000000000000000000000000000000000000000000000000000000815260040161143f90611ac7565b60405180910390fd5b600073ffffffffffffffffffffffffffffffffffffffff168173ffffffffffffffffffffffffffffffffffffffff1614156114b8576040517f08c379a00000000000000000000000000000000000000000000000000000000081526004016114af90611bc5565b60405180910390fd5b6114c1816114cc565b50565b600033905090565b60008060009054906101000a900473ffffffffffffffffffffffffffffffffffffffff169050816000806101000a81548173ffffffffffffffffffffffffffffffffffffffff021916908373ffffffffffffffffffffffffffffffffffffffff1602179055508173ffffffffffffffffffffffffffffffffffffffff168173ffffffffffffffffffffffffffffffffffffffff167f8be0079c531659141344cd1fd0a4f28419497f9722a3daafe3b4186f6b6457e060405160405180910390a35050565b6040518060400160405280600060038111156115af576115ae61164c565b5b8152602001600081525090565b600080fd5b600073ffffffffffffffffffffffffffffffffffffffff82169050919050565b60006115ec826115c1565b9050919050565b6115fc816115e1565b811461160757600080fd5b50565b600081359050611619816115f3565b92915050565b600060208284031215611635576116346115bc565b5b60006116438482850161160a565b91505092915050565b7f4e487b7100000000000000000000000000000000000000000000000000000000600052602160045260246000fd5b6004811061168c5761168b61164c565b5b50565b600081905061169d8261167b565b919050565b60006116ad8261168f565b9050919050565b6116bd816116a2565b82525050565b6000819050919050565b6116d6816116c3565b82525050565b60006040820190506116f160008301856116b4565b6116fe60208301846116cd565b9392505050565b600060208201905061171a60008301846116cd565b92915050565b611729816116c3565b811461173457600080fd5b50565b60008135905061174681611720565b92915050565b600060208284031215611762576117616115bc565b5b600061177084828501611737565b91505092915050565b611782816115e1565b82525050565b600060208201905061179d6000830184611779565b92915050565b600381106117b4576117b361164c565b5b50565b60008190506117c5826117a3565b919050565b60006117d5826117b7565b9050919050565b6117e5816117ca565b82525050565b600060208201905061180060008301846117dc565b92915050565b600281106118175761181661164c565b5b50565b600081905061182882611806565b919050565b60006118388261181a565b9050919050565b6118488161182d565b82525050565b6000602082019050611863600083018461183f565b92915050565b60008115159050919050565b61187e81611869565b82525050565b60006020820190506118996000830184611875565b92915050565b6118a8816116a2565b82525050565b6118b7816116c3565b82525050565b6040820160008201516118d3600085018261189f565b5060208201516118e660208501826118ae565b50505050565b600060408201905061190160008301846118bd565b92915050565b60007fffffffffffffffff00000000000000000000000000000000000000000000000082169050919050565b61193c81611907565b82525050565b60006020820190506119576000830184611933565b92915050565b600082825260208201905092915050565b7f4e6f7420617574686f72697a6564000000000000000000000000000000000000600082015250565b60006119a4600e8361195d565b91506119af8261196e565b602082019050919050565b600060208201905081810360008301526119d381611997565b9050919050565b7f4e487b7100000000000000000000000000000000000000000000000000000000600052601160045260246000fd5b6000611a14826116c3565b91507fffffffffffffffffffffffffffffffffffffffffffffffffffffffffffffffff821415611a4757611a466119da565b5b600182019050919050565b6000604082019050611a676000830185611779565b611a746020830184611779565b9392505050565b7f4f776e61626c653a2063616c6c6572206973206e6f7420746865206f776e6572600082015250565b6000611ab160208361195d565b9150611abc82611a7b565b602082019050919050565b60006020820190508181036000830152611ae081611aa4565b9050919050565b7f496d706f737369626c6520746f206a6f696e0000000000000000000000000000600082015250565b6000611b1d60128361195d565b9150611b2882611ae7565b602082019050919050565b60006020820190508181036000830152611b4c81611b10565b9050919050565b7f4f776e61626c653a206e6577206f776e657220697320746865207a65726f206160008201527f6464726573730000000000000000000000000000000000000000000000000000602082015250565b6000611baf60268361195d565b9150611bba82611b53565b604082019050919050565b60006020820190508181036000830152611bde81611ba2565b905091905056fea2646970667358221220acc67e0a4f50cc1cd3e54da7c665ebe21485793be7230d230e67f3554636d24364736f6c63430008090033",
  "immutableReferences": {},
  "source": "// SPDX-License-Identifier: MIT\r\npragma solidity ^0.8.9;\r\n\r\nimport \"@openzeppelin/contracts/utils/math/SafeMath.sol\";\r\nimport \"@openzeppelin/contracts/access/Ownable.sol\";\r\nimport \"../../Data.sol\";\r\n\r\n//is DaosFactory\r\ncontract MembershipModule_Old is Ownable {\r\n  using SafeMath for uint256;\r\n  bytes8 public moduleCode = bytes8(keccak256(abi.encode(\"MembershipDao\")));\r\n  bytes8 public moduleType = bytes8(keccak256(abi.encode(\"MemberModule\")));\r\n  uint256 private membersCount;\r\n  mapping(uint256 => address) public memberAddresses;\r\n  mapping(address => Data.member) public members;\r\n  Data.membershipModeEnum public membershipModeMode;\r\n  Data.visibilityEnum public visibility;\r\n  mapping(address => bool) private authorizedContracts;\r\n  //member[] public members;\r\n\r\n  constructor (uint8 membershipMode)\r\n  {\r\n    membershipModeMode = Data.membershipModeEnum(membershipMode);\r\n    addMember(msg.sender);\r\n  }\r\n\r\n  event MemberAdded(address newMember, address adderAddress);\r\n  event MemberAccepted(address newMember, address acceptorAddress);\r\n  event MemberInvited(address memberInvited, address memberInvitor);\r\n  event MemberJoined(address memberJoined);\r\n  event MemberAskedJoin(address memberRequestor);\r\n\r\n    modifier onlyActiveMembersOrAuthorizeContracts() {\r\n        require(members[msg.sender].status == Data.memberStatus.active || authorizedContracts[msg.sender] == true, \"Not authorized\");\r\n        _;\r\n    }\r\n\r\n    modifier onlyNotActiveMembers() {\r\n        require(members[msg.sender].status != Data.memberStatus.active, \"Not authorized\");\r\n        _;\r\n    }\r\n\r\n    modifier onlyAuthorizeContracts() {\r\n        require(authorizedContracts[msg.sender] == true, \"Not authorized\");\r\n        _;\r\n    }\r\n\r\n    modifier onlyAuthorizeContractsOrOwner() {\r\n        require(((authorizedContracts[msg.sender] == true) || msg.sender == owner()), \"Not authorized\");\r\n        _;\r\n    }\r\n\r\n    function getMemberInfo(address _member) external view returns(Data.member memory) {\r\n        return(members[_member]);\r\n    }\r\n    function getAddrById(uint256 id) external view returns(address) {\r\n        return memberAddresses[id];\r\n    }\r\n    function getMembersCount() external view returns(uint256) {\r\n        return membersCount;\r\n    }\r\n\r\n    // function getInfoDao() external view returns(Data.daoData memory info) {\r\n    //     info.daoType = \"DAO, Invite or Request\";\r\n    //     info.visibility = visibility;\r\n    // }\r\n\r\n    function addMember(address addressMember) public onlyActiveMembersOrAuthorizeContracts() {\r\n        members[addressMember].status = Data.memberStatus.active;\r\n        memberAddresses[membersCount] = addressMember;\r\n        ++membersCount;\r\n        emit MemberAdded(addressMember, msg.sender);\r\n    }\r\n\r\n    function acceptMember(address addressMember) public onlyActiveMembersOrAuthorizeContracts() {\r\n        members[addressMember].status = Data.memberStatus.active;\r\n        emit MemberAccepted(addressMember, msg.sender);\r\n    }\r\n\r\n    function inviteMember(address addressMember) public onlyActiveMembersOrAuthorizeContracts() {\r\n        members[addressMember].status = Data.memberStatus.invited;\r\n        memberAddresses[membersCount] = addressMember;\r\n        ++membersCount;\r\n        emit MemberInvited(msg.sender, addressMember);\r\n    }\r\n\r\n    function requestJoin() public onlyNotActiveMembers() {\r\n        members[msg.sender].status = Data.memberStatus.asking;\r\n        memberAddresses[membersCount] = msg.sender;\r\n        ++membersCount;\r\n        emit MemberAskedJoin(msg.sender);\r\n    }\r\n\r\n    function isActiveMember(address addressMember) public view returns (bool){\r\n        return members[addressMember].status == Data.memberStatus.active;\r\n    }\r\n\r\n    function join() public onlyNotActiveMembers() {\r\n        require((members[msg.sender].status == Data.memberStatus.invited && membershipModeMode == Data.membershipModeEnum.invite)\r\n         || (members[msg.sender].status == Data.memberStatus.notMember && membershipModeMode == Data.membershipModeEnum.open)\r\n                , \"Impossible to join\");\r\n        members[msg.sender].status = Data.memberStatus.active;\r\n        emit MemberJoined(msg.sender);\r\n    }\r\n\r\n    function authorizeContract(address _contractAddress) external onlyAuthorizeContractsOrOwner() {\r\n        authorizedContracts[_contractAddress] = true;\r\n    }\r\n\r\n    function denyContract(address _contractAddress) external onlyAuthorizeContractsOrOwner() {\r\n        authorizedContracts[_contractAddress] = false;\r\n    }\r\n}",
  "sourcePath": "C:\\Users\\mdmou\\source\\repos\\MY-DAO\\contracts\\Modules\\Implementations\\MembershipModule_Old.sol",
  "compiler": {
    "name": "solc",
    "version": "0.8.9+commit.e5eed63a.Emscripten.clang"
  },
  "schemaVersion": "3.4.4",
  "updatedAt": "2022-05-15T14:44:37.455Z",
  "devdoc": {
    "kind": "dev",
    "methods": {
      "owner()": {
        "details": "Returns the address of the current owner."
      },
      "renounceOwnership()": {
        "details": "Leaves the contract without owner. It will not be possible to call `onlyOwner` functions anymore. Can only be called by the current owner. NOTE: Renouncing ownership will leave the contract without an owner, thereby removing any functionality that is only available to the owner."
      },
      "transferOwnership(address)": {
        "details": "Transfers ownership of the contract to a new account (`newOwner`). Can only be called by the current owner."
      }
    },
    "version": 1
  },
  "userdoc": {
    "kind": "user",
    "methods": {},
    "version": 1
  }
}