{
  "contractName": "MyDao",
  "abi": [
    {
      "inputs": [
        {
          "internalType": "string",
          "name": "_name",
          "type": "string"
        },
        {
          "internalType": "bool",
          "name": "byInvitation",
          "type": "bool"
        },
        {
          "internalType": "string",
          "name": "_description",
          "type": "string"
        },
        {
          "internalType": "bool",
          "name": "isPrivate",
          "type": "bool"
        },
        {
          "internalType": "address[]",
          "name": "_modules",
          "type": "address[]"
        }
      ],
      "stateMutability": "nonpayable",
      "type": "constructor"
    },
    {
      "inputs": [],
      "name": "description",
      "outputs": [
        {
          "internalType": "string",
          "name": "",
          "type": "string"
        }
      ],
      "stateMutability": "view",
      "type": "function"
    },
    {
      "inputs": [
        {
          "internalType": "uint256",
          "name": "",
          "type": "uint256"
        }
      ],
      "name": "modules",
      "outputs": [
        {
          "internalType": "address",
          "name": "",
          "type": "address"
        }
      ],
      "stateMutability": "view",
      "type": "function"
    },
    {
      "inputs": [],
      "name": "name",
      "outputs": [
        {
          "internalType": "string",
          "name": "",
          "type": "string"
        }
      ],
      "stateMutability": "view",
      "type": "function"
    },
    {
      "inputs": [
        {
          "internalType": "address",
          "name": "_member",
          "type": "address"
        }
      ],
      "name": "memberInfo",
      "outputs": [
        {
          "components": [
            {
              "internalType": "enum Data.memberStatus",
              "name": "status",
              "type": "uint8"
            }
          ],
          "internalType": "struct Data.member",
          "name": "",
          "type": "tuple"
        }
      ],
      "stateMutability": "view",
      "type": "function"
    },
    {
      "inputs": [
        {
          "internalType": "uint256",
          "name": "_id",
          "type": "uint256"
        }
      ],
      "name": "addrId",
      "outputs": [
        {
          "internalType": "address",
          "name": "",
          "type": "address"
        }
      ],
      "stateMutability": "view",
      "type": "function"
    },
    {
      "inputs": [],
      "name": "totalId",
      "outputs": [
        {
          "internalType": "uint256",
          "name": "",
          "type": "uint256"
        }
      ],
      "stateMutability": "view",
      "type": "function"
    },
    {
      "inputs": [],
      "name": "daoInfo",
      "outputs": [
        {
          "components": [
            {
              "internalType": "string",
              "name": "daoType",
              "type": "string"
            },
            {
              "internalType": "enum Data.visibilityEnum",
              "name": "visibility",
              "type": "uint8"
            }
          ],
          "internalType": "struct Data.daoData",
          "name": "",
          "type": "tuple"
        }
      ],
      "stateMutability": "view",
      "type": "function"
    },
    {
      "inputs": [
        {
          "internalType": "address",
          "name": "_newModule",
          "type": "address"
        }
      ],
      "name": "addModule",
      "outputs": [],
      "stateMutability": "nonpayable",
      "type": "function"
    }
  ],
  "bytecode": "0x60806040523480156200001157600080fd5b506040516200155d3803806200155d8339818101604052810190620000379190620004e6565b84600090805190602001906200004f9291906200008d565b508260019080519060200190620000689291906200008d565b508060029080519060200190620000819291906200011e565b50505050505062000630565b8280546200009b90620005fa565b90600052602060002090601f016020900481019282620000bf57600085556200010b565b82601f10620000da57805160ff19168380011785556200010b565b828001600101855582156200010b579182015b828111156200010a578251825591602001919060010190620000ed565b5b5090506200011a9190620001ad565b5090565b8280548282559060005260206000209081019282156200019a579160200282015b82811115620001995782518260006101000a81548173ffffffffffffffffffffffffffffffffffffffff021916908373ffffffffffffffffffffffffffffffffffffffff160217905550916020019190600101906200013f565b5b509050620001a99190620001ad565b5090565b5b80821115620001c8576000816000905550600101620001ae565b5090565b6000604051905090565b600080fd5b600080fd5b600080fd5b600080fd5b6000601f19601f8301169050919050565b7f4e487b7100000000000000000000000000000000000000000000000000000000600052604160045260246000fd5b6200023582620001ea565b810181811067ffffffffffffffff82111715620002575762000256620001fb565b5b80604052505050565b60006200026c620001cc565b90506200027a82826200022a565b919050565b600067ffffffffffffffff8211156200029d576200029c620001fb565b5b620002a882620001ea565b9050602081019050919050565b60005b83811015620002d5578082015181840152602081019050620002b8565b83811115620002e5576000848401525b50505050565b600062000302620002fc846200027f565b62000260565b905082815260208101848484011115620003215762000320620001e5565b5b6200032e848285620002b5565b509392505050565b600082601f8301126200034e576200034d620001e0565b5b815162000360848260208601620002eb565b91505092915050565b60008115159050919050565b620003808162000369565b81146200038c57600080fd5b50565b600081519050620003a08162000375565b92915050565b600067ffffffffffffffff821115620003c457620003c3620001fb565b5b602082029050602081019050919050565b600080fd5b600073ffffffffffffffffffffffffffffffffffffffff82169050919050565b60006200040782620003da565b9050919050565b6200041981620003fa565b81146200042557600080fd5b50565b60008151905062000439816200040e565b92915050565b6000620004566200045084620003a6565b62000260565b905080838252602082019050602084028301858111156200047c576200047b620003d5565b5b835b81811015620004a9578062000494888262000428565b8452602084019350506020810190506200047e565b5050509392505050565b600082601f830112620004cb57620004ca620001e0565b5b8151620004dd8482602086016200043f565b91505092915050565b600080600080600060a08688031215620005055762000504620001d6565b5b600086015167ffffffffffffffff811115620005265762000525620001db565b5b620005348882890162000336565b955050602062000547888289016200038f565b945050604086015167ffffffffffffffff8111156200056b576200056a620001db565b5b620005798882890162000336565b93505060606200058c888289016200038f565b925050608086015167ffffffffffffffff811115620005b057620005af620001db565b5b620005be88828901620004b3565b9150509295509295909350565b7f4e487b7100000000000000000000000000000000000000000000000000000000600052602260045260246000fd5b600060028204905060018216806200061357607f821691505b602082108114156200062a5762000629620005cb565b5b50919050565b610f1d80620006406000396000f3fe608060405234801561001057600080fd5b50600436106100a5576000357c01000000000000000000000000000000000000000000000000000000009004806381b2248a1161007857806381b2248a14610132578063a313c37114610162578063afe926e814610192578063e8826565146101b0576100a5565b806306fdde03146100aa5780631d2176c1146100c85780631ed86f19146100f85780637284e41614610114575b600080fd5b6100b26101ce565b6040516100bf9190610824565b60405180910390f35b6100e260048036038101906100dd9190610890565b61025c565b6040516100ef91906108fe565b60405180910390f35b610112600480360381019061010d9190610945565b610349565b005b61011c6103af565b6040516101299190610824565b60405180910390f35b61014c60048036038101906101479190610890565b61043d565b60405161015991906108fe565b60405180910390f35b61017c60048036038101906101779190610945565b61047c565b6040516101899190610a05565b60405180910390f35b61019a61056f565b6040516101a79190610aef565b60405180910390f35b6101b861065a565b6040516101c59190610b20565b60405180910390f35b600080546101db90610b6a565b80601f016020809104026020016040519081016040528092919081815260200182805461020790610b6a565b80156102545780601f1061022957610100808354040283529160200191610254565b820191906000526020600020905b81548152906001019060200180831161023757829003601f168201915b505050505081565b6000600260008154811061027357610272610b9c565b5b9060005260206000200160009054906101000a900473ffffffffffffffffffffffffffffffffffffffff1673ffffffffffffffffffffffffffffffffffffffff16630d5f095a836040518263ffffffff167c01000000000000000000000000000000000000000000000000000000000281526004016102f29190610b20565b60206040518083038186803b15801561030a57600080fd5b505afa15801561031e573d6000803e3d6000fd5b505050506040513d601f19601f820116820180604052508101906103429190610be0565b9050919050565b6002819080600181540180825580915050600190039060005260206000200160009091909190916101000a81548173ffffffffffffffffffffffffffffffffffffffff021916908373ffffffffffffffffffffffffffffffffffffffff16021790555050565b600180546103bc90610b6a565b80601f01602080910402602001604051908101604052809291908181526020018280546103e890610b6a565b80156104355780601f1061040a57610100808354040283529160200191610435565b820191906000526020600020905b81548152906001019060200180831161041857829003601f168201915b505050505081565b6002818154811061044d57600080fd5b906000526020600020016000915054906101000a900473ffffffffffffffffffffffffffffffffffffffff1681565b61048461073a565b600260008154811061049957610498610b9c565b5b9060005260206000200160009054906101000a900473ffffffffffffffffffffffffffffffffffffffff1673ffffffffffffffffffffffffffffffffffffffff16635f1231ea836040518263ffffffff167c010000000000000000000000000000000000000000000000000000000002815260040161051891906108fe565b60206040518083038186803b15801561053057600080fd5b505afa158015610544573d6000803e3d6000fd5b505050506040513d601f19601f820116820180604052508101906105689190610cf3565b9050919050565b61057761075f565b600260008154811061058c5761058b610b9c565b5b9060005260206000200160009054906101000a900473ffffffffffffffffffffffffffffffffffffffff1673ffffffffffffffffffffffffffffffffffffffff16636075aac76040518163ffffffff167c010000000000000000000000000000000000000000000000000000000002815260040160006040518083038186803b15801561061857600080fd5b505afa15801561062c573d6000803e3d6000fd5b505050506040513d6000823e3d601f19601f820116820180604052508101906106559190610e5c565b905090565b6000600260008154811061067157610670610b9c565b5b9060005260206000200160009054906101000a900473ffffffffffffffffffffffffffffffffffffffff1673ffffffffffffffffffffffffffffffffffffffff166309393b1b6040518163ffffffff167c010000000000000000000000000000000000000000000000000000000002815260040160206040518083038186803b1580156106fd57600080fd5b505afa158015610711573d6000803e3d6000fd5b505050506040513d601f19601f820116820180604052508101906107359190610eba565b905090565b60405180602001604052806000600381111561075957610758610972565b5b81525090565b6040518060400160405280606081526020016000600181111561078557610784610972565b5b81525090565b600081519050919050565b600082825260208201905092915050565b60005b838110156107c55780820151818401526020810190506107aa565b838111156107d4576000848401525b50505050565b6000601f19601f8301169050919050565b60006107f68261078b565b6108008185610796565b93506108108185602086016107a7565b610819816107da565b840191505092915050565b6000602082019050818103600083015261083e81846107eb565b905092915050565b6000604051905090565b600080fd5b600080fd5b6000819050919050565b61086d8161085a565b811461087857600080fd5b50565b60008135905061088a81610864565b92915050565b6000602082840312156108a6576108a5610850565b5b60006108b48482850161087b565b91505092915050565b600073ffffffffffffffffffffffffffffffffffffffff82169050919050565b60006108e8826108bd565b9050919050565b6108f8816108dd565b82525050565b600060208201905061091360008301846108ef565b92915050565b610922816108dd565b811461092d57600080fd5b50565b60008135905061093f81610919565b92915050565b60006020828403121561095b5761095a610850565b5b600061096984828501610930565b91505092915050565b7f4e487b7100000000000000000000000000000000000000000000000000000000600052602160045260246000fd5b600481106109b2576109b1610972565b5b50565b60008190506109c3826109a1565b919050565b60006109d3826109b5565b9050919050565b6109e3816109c8565b82525050565b6020820160008201516109ff60008501826109da565b50505050565b6000602082019050610a1a60008301846109e9565b92915050565b600082825260208201905092915050565b6000610a3c8261078b565b610a468185610a20565b9350610a568185602086016107a7565b610a5f816107da565b840191505092915050565b60028110610a7b57610a7a610972565b5b50565b6000819050610a8c82610a6a565b919050565b6000610a9c82610a7e565b9050919050565b610aac81610a91565b82525050565b60006040830160008301518482036000860152610acf8282610a31565b9150506020830151610ae46020860182610aa3565b508091505092915050565b60006020820190508181036000830152610b098184610ab2565b905092915050565b610b1a8161085a565b82525050565b6000602082019050610b356000830184610b11565b92915050565b7f4e487b7100000000000000000000000000000000000000000000000000000000600052602260045260246000fd5b60006002820490506001821680610b8257607f821691505b60208210811415610b9657610b95610b3b565b5b50919050565b7f4e487b7100000000000000000000000000000000000000000000000000000000600052603260045260246000fd5b600081519050610bda81610919565b92915050565b600060208284031215610bf657610bf5610850565b5b6000610c0484828501610bcb565b91505092915050565b600080fd5b7f4e487b7100000000000000000000000000000000000000000000000000000000600052604160045260246000fd5b610c4a826107da565b810181811067ffffffffffffffff82111715610c6957610c68610c12565b5b80604052505050565b6000610c7c610846565b9050610c888282610c41565b919050565b600080fd5b60048110610c9f57600080fd5b50565b600081519050610cb181610c92565b92915050565b600060208284031215610ccd57610ccc610c0d565b5b610cd76020610c72565b90506000610ce784828501610ca2565b60008301525092915050565b600060208284031215610d0957610d08610850565b5b6000610d1784828501610cb7565b91505092915050565b600080fd5b600080fd5b600067ffffffffffffffff821115610d4557610d44610c12565b5b610d4e826107da565b9050602081019050919050565b6000610d6e610d6984610d2a565b610c72565b905082815260208101848484011115610d8a57610d89610d25565b5b610d958482856107a7565b509392505050565b600082601f830112610db257610db1610d20565b5b8151610dc2848260208601610d5b565b91505092915050565b60028110610dd857600080fd5b50565b600081519050610dea81610dcb565b92915050565b600060408284031215610e0657610e05610c0d565b5b610e106040610c72565b9050600082015167ffffffffffffffff811115610e3057610e2f610c8d565b5b610e3c84828501610d9d565b6000830152506020610e5084828501610ddb565b60208301525092915050565b600060208284031215610e7257610e71610850565b5b600082015167ffffffffffffffff811115610e9057610e8f610855565b5b610e9c84828501610df0565b91505092915050565b600081519050610eb481610864565b92915050565b600060208284031215610ed057610ecf610850565b5b6000610ede84828501610ea5565b9150509291505056fea26469706673582212205b31f9ff045677f973fc475a2bfa106a3a3ef9c3f0ae1b0bae23a57721d22d1c64736f6c63430008090033",
  "immutableReferences": {},
  "source": "// SPDX-License-Identifier: MIT\r\npragma solidity ^0.8.9;\r\n\r\nimport \"./Dao.sol\";\r\nimport \"../Data.sol\";\r\nimport \"./Interfaces/IDao.sol\";\r\n\r\ncontract MyDao {\r\n  string public name;\r\n  string public description;\r\n  \r\n  // mapping(uint256 => address) modules;\r\n  address[] public modules;\r\n\r\n  // enum MyModules {\r\n  //   DaoMemberSystem,\r\n  //   DaoVotingSystem\r\n  // }\r\n\r\n  constructor(string memory _name, bool byInvitation, string memory _description, bool isPrivate, address[] memory _modules) {\r\n    name = _name;\r\n    description = _description;\r\n    // Dao dao = new Dao(_name, byInvitation, _description, isPrivate);\r\n    modules = _modules;\r\n  }\r\n  // get info\r\n  function memberInfo(address _member) external view returns(Data.member memory) {\r\n    return(IDao(modules[0]).getMemberInfo(_member));\r\n  }\r\n  function addrId(uint256 _id) external view returns(address) {\r\n    return(IDao(modules[0]).getAddrById(_id));\r\n  }\r\n  function totalId() external view returns(uint256) {\r\n    return(IDao(modules[0]).getTotalId());\r\n  }\r\n  function daoInfo() external view returns(Data.daoData memory) {\r\n    return(IDao(modules[0]).getInfoDao());\r\n  }\r\n  // add new modules\r\n  function addModule(address _newModule) external {\r\n    modules.push(_newModule);\r\n  }\r\n}",
  "sourcePath": "C:\\Users\\mdmou\\source\\repos\\MY-DAO\\contracts\\Daos\\MyDao.sol",
  "compiler": {
    "name": "solc",
    "version": "0.8.9+commit.e5eed63a.Emscripten.clang"
  },
  "schemaVersion": "3.4.4",
  "updatedAt": "2022-05-09T05:39:05.484Z",
  "devdoc": {
    "kind": "dev",
    "methods": {},
    "version": 1
  },
  "userdoc": {
    "kind": "user",
    "methods": {},
    "version": 1
  }
}