{
  "contractName": "OpenMembershipModule",
  "abi": [
    {
      "anonymous": false,
      "inputs": [
        {
          "indexed": false,
          "internalType": "address",
          "name": "newMember",
          "type": "address"
        },
        {
          "indexed": false,
          "internalType": "address",
          "name": "acceptorAddress",
          "type": "address"
        }
      ],
      "name": "MemberAccepted",
      "type": "event"
    },
    {
      "anonymous": false,
      "inputs": [
        {
          "indexed": false,
          "internalType": "address",
          "name": "newMember",
          "type": "address"
        },
        {
          "indexed": false,
          "internalType": "address",
          "name": "adderAddress",
          "type": "address"
        }
      ],
      "name": "MemberAdded",
      "type": "event"
    },
    {
      "anonymous": false,
      "inputs": [
        {
          "indexed": false,
          "internalType": "address",
          "name": "memberRequestor",
          "type": "address"
        }
      ],
      "name": "MemberAskedJoin",
      "type": "event"
    },
    {
      "anonymous": false,
      "inputs": [
        {
          "indexed": false,
          "internalType": "address",
          "name": "memberInvited",
          "type": "address"
        },
        {
          "indexed": false,
          "internalType": "address",
          "name": "memberInvitor",
          "type": "address"
        }
      ],
      "name": "MemberInvited",
      "type": "event"
    },
    {
      "anonymous": false,
      "inputs": [
        {
          "indexed": false,
          "internalType": "address",
          "name": "memberJoined",
          "type": "address"
        }
      ],
      "name": "MemberJoined",
      "type": "event"
    },
    {
      "anonymous": false,
      "inputs": [
        {
          "indexed": true,
          "internalType": "address",
          "name": "previousOwner",
          "type": "address"
        },
        {
          "indexed": true,
          "internalType": "address",
          "name": "newOwner",
          "type": "address"
        }
      ],
      "name": "OwnershipTransferred",
      "type": "event"
    },
    {
      "inputs": [
        {
          "internalType": "address",
          "name": "",
          "type": "address"
        }
      ],
      "name": "daos",
      "outputs": [
        {
          "internalType": "address",
          "name": "addressDao",
          "type": "address"
        },
        {
          "internalType": "uint256",
          "name": "membersCount",
          "type": "uint256"
        },
        {
          "internalType": "bool",
          "name": "isActive",
          "type": "bool"
        }
      ],
      "stateMutability": "view",
      "type": "function",
      "constant": true
    },
    {
      "inputs": [],
      "name": "moduleCode",
      "outputs": [
        {
          "internalType": "bytes8",
          "name": "",
          "type": "bytes8"
        }
      ],
      "stateMutability": "view",
      "type": "function",
      "constant": true
    },
    {
      "inputs": [],
      "name": "moduleType",
      "outputs": [
        {
          "internalType": "bytes8",
          "name": "",
          "type": "bytes8"
        }
      ],
      "stateMutability": "view",
      "type": "function",
      "constant": true
    },
    {
      "inputs": [],
      "name": "owner",
      "outputs": [
        {
          "internalType": "address",
          "name": "",
          "type": "address"
        }
      ],
      "stateMutability": "view",
      "type": "function",
      "constant": true
    },
    {
      "inputs": [],
      "name": "renounceOwnership",
      "outputs": [],
      "stateMutability": "nonpayable",
      "type": "function"
    },
    {
      "inputs": [
        {
          "internalType": "address",
          "name": "newOwner",
          "type": "address"
        }
      ],
      "name": "transferOwnership",
      "outputs": [],
      "stateMutability": "nonpayable",
      "type": "function"
    },
    {
      "inputs": [],
      "name": "visibility",
      "outputs": [
        {
          "internalType": "enum Data.visibilityEnum",
          "name": "",
          "type": "uint8"
        }
      ],
      "stateMutability": "view",
      "type": "function",
      "constant": true
    },
    {
      "inputs": [
        {
          "internalType": "address",
          "name": "_contractDao",
          "type": "address"
        },
        {
          "internalType": "address",
          "name": "_member",
          "type": "address"
        }
      ],
      "name": "getMemberInfo",
      "outputs": [
        {
          "components": [
            {
              "internalType": "enum Data.memberStatus",
              "name": "status",
              "type": "uint8"
            },
            {
              "internalType": "uint256",
              "name": "joinTime",
              "type": "uint256"
            }
          ],
          "internalType": "struct Data.member",
          "name": "",
          "type": "tuple"
        }
      ],
      "stateMutability": "view",
      "type": "function",
      "constant": true
    },
    {
      "inputs": [
        {
          "internalType": "address",
          "name": "_contractDao",
          "type": "address"
        },
        {
          "internalType": "uint256",
          "name": "id",
          "type": "uint256"
        }
      ],
      "name": "getAddrById",
      "outputs": [
        {
          "internalType": "address",
          "name": "",
          "type": "address"
        }
      ],
      "stateMutability": "view",
      "type": "function",
      "constant": true
    },
    {
      "inputs": [
        {
          "internalType": "address",
          "name": "_contractDao",
          "type": "address"
        }
      ],
      "name": "getMembersCount",
      "outputs": [
        {
          "internalType": "uint256",
          "name": "",
          "type": "uint256"
        }
      ],
      "stateMutability": "view",
      "type": "function",
      "constant": true
    },
    {
      "inputs": [
        {
          "internalType": "address",
          "name": "_contractDao",
          "type": "address"
        },
        {
          "internalType": "address",
          "name": "addressMember",
          "type": "address"
        }
      ],
      "name": "addMember",
      "outputs": [],
      "stateMutability": "nonpayable",
      "type": "function"
    },
    {
      "inputs": [
        {
          "internalType": "address",
          "name": "_contractDao",
          "type": "address"
        },
        {
          "internalType": "address",
          "name": "addressMember",
          "type": "address"
        }
      ],
      "name": "isActiveMember",
      "outputs": [
        {
          "internalType": "bool",
          "name": "",
          "type": "bool"
        }
      ],
      "stateMutability": "view",
      "type": "function",
      "constant": true
    },
    {
      "inputs": [
        {
          "internalType": "address",
          "name": "_contractDao",
          "type": "address"
        }
      ],
      "name": "join",
      "outputs": [],
      "stateMutability": "nonpayable",
      "type": "function"
    },
    {
      "inputs": [
        {
          "internalType": "address",
          "name": "_contractDao",
          "type": "address"
        },
        {
          "internalType": "address",
          "name": "_memberDao",
          "type": "address"
        }
      ],
      "name": "addDao",
      "outputs": [],
      "stateMutability": "nonpayable",
      "type": "function"
    },
    {
      "inputs": [
        {
          "internalType": "address",
          "name": "_contractDao",
          "type": "address"
        },
        {
          "internalType": "address",
          "name": "_contractAddress",
          "type": "address"
        }
      ],
      "name": "authorizeContract",
      "outputs": [],
      "stateMutability": "nonpayable",
      "type": "function"
    },
    {
      "inputs": [
        {
          "internalType": "address",
          "name": "_contractDao",
          "type": "address"
        },
        {
          "internalType": "address",
          "name": "_contractAddress",
          "type": "address"
        }
      ],
      "name": "denyContract",
      "outputs": [],
      "stateMutability": "nonpayable",
      "type": "function"
    }
  ],
  "bytecode": "0x6080604052604051602001620000159062000239565b60405160208183030381529060405280519060200120600060146101000a81548167ffffffffffffffff02191690837801000000000000000000000000000000000000000000000000900402179055506040516020016200007690620002ab565b60405160208183030381529060405280519060200120600160006101000a81548167ffffffffffffffff0219169083780100000000000000000000000000000000000000000000000090040217905550348015620000d357600080fd5b5062000106620000f16200010c640100000000026401000000009004565b62000114640100000000026401000000009004565b620002cd565b600033905090565b60008060009054906101000a900473ffffffffffffffffffffffffffffffffffffffff169050816000806101000a81548173ffffffffffffffffffffffffffffffffffffffff021916908373ffffffffffffffffffffffffffffffffffffffff1602179055508173ffffffffffffffffffffffffffffffffffffffff168173ffffffffffffffffffffffffffffffffffffffff167f8be0079c531659141344cd1fd0a4f28419497f9722a3daafe3b4186f6b6457e060405160405180910390a35050565b600082825260208201905092915050565b7f4f70656e4d656d626572736869704d6f64756c65000000000000000000000000600082015250565b600062000221601483620001d8565b91506200022e82620001e9565b602082019050919050565b60006020820190508181036000830152620002548162000212565b9050919050565b7f4d656d6265724d6f64756c650000000000000000000000000000000000000000600082015250565b600062000293600c83620001d8565b9150620002a0826200025b565b602082019050919050565b60006020820190508181036000830152620002c68162000284565b9050919050565b611bd280620002dd6000396000f3fe608060405234801561001057600080fd5b506004361061011d576000357c0100000000000000000000000000000000000000000000000000000000900480638da5cb5b116100b4578063c25f3cf611610083578063c25f3cf6146102b6578063f0744c16146102e8578063f2fde38b14610306578063fe0ac3e7146103225761011d565b80638da5cb5b1461021c5780638ecf77201461023a578063945da9a11461026a5780639d58b15d1461029a5761011d565b80634568f199116100f05780634568f199146101a85780636465e69f146101c4578063715018a6146101e2578063760b9c34146101ec5761011d565b806312ee7e411461012257806328ffe6c81461013e57806329adec141461015a57806336048d5f14610178575b600080fd5b61013c6004803603810190610137919061157b565b61033e565b005b610158600480360381019061015391906115bb565b61058a565b005b61016261085d565b60405161016f919061165f565b60405180910390f35b610192600480360381019061018d919061157b565b610870565b60405161019f919061170a565b60405180910390f35b6101c260048036038101906101bd919061157b565b61094f565b005b6101cc610af7565b6040516101d99190611760565b60405180910390f35b6101ea610b22565b005b610206600480360381019061020191906115bb565b610baa565b604051610213919061178a565b60405180910390f35b610224610bf6565b60405161023191906117b4565b60405180910390f35b610254600480360381019061024f919061157b565b610c1f565b60405161026191906117ea565b60405180910390f35b610284600480360381019061027f9190611831565b610cdf565b60405161029191906117b4565b60405180910390f35b6102b460048036038101906102af919061157b565b610d5d565b005b6102d060048036038101906102cb91906115bb565b6110fe565b6040516102df93929190611871565b60405180910390f35b6102f0611155565b6040516102fd9190611760565b60405180910390f35b610320600480360381019061031b91906115bb565b611180565b005b61033c6004803603810190610337919061157b565b611278565b005b8160011515600460008373ffffffffffffffffffffffffffffffffffffffff1673ffffffffffffffffffffffffffffffffffffffff16815260200190815260200160002060003373ffffffffffffffffffffffffffffffffffffffff1673ffffffffffffffffffffffffffffffffffffffff16815260200190815260200160002060009054906101000a900460ff1615151461040f576040517f08c379a000000000000000000000000000000000000000000000000000000000815260040161040690611905565b60405180910390fd5b600260008473ffffffffffffffffffffffffffffffffffffffff1673ffffffffffffffffffffffffffffffffffffffff16815260200190815260200160002060040160009054906101000a900460ff161561049f576040517f08c379a000000000000000000000000000000000000000000000000000000000815260040161049690611971565b60405180910390fd5b6001600260008573ffffffffffffffffffffffffffffffffffffffff1673ffffffffffffffffffffffffffffffffffffffff16815260200190815260200160002060040160006101000a81548160ff02191690831515021790555082600260008573ffffffffffffffffffffffffffffffffffffffff1673ffffffffffffffffffffffffffffffffffffffff16815260200190815260200160002060000160006101000a81548173ffffffffffffffffffffffffffffffffffffffff021916908373ffffffffffffffffffffffffffffffffffffffff1602179055506105858383610d5d565b505050565b8060038081111561059e5761059d6115e8565b5b600260008373ffffffffffffffffffffffffffffffffffffffff1673ffffffffffffffffffffffffffffffffffffffff16815260200190815260200160002060030160003373ffffffffffffffffffffffffffffffffffffffff1673ffffffffffffffffffffffffffffffffffffffff16815260200190815260200160002060000160009054906101000a900460ff1660038111156106405761063f6115e8565b5b1415610681576040517f08c379a000000000000000000000000000000000000000000000000000000000815260040161067890611905565b60405180910390fd5b60006003811115610695576106946115e8565b5b600260008473ffffffffffffffffffffffffffffffffffffffff1673ffffffffffffffffffffffffffffffffffffffff16815260200190815260200160002060030160003373ffffffffffffffffffffffffffffffffffffffff1673ffffffffffffffffffffffffffffffffffffffff16815260200190815260200160002060000160009054906101000a900460ff166003811115610737576107366115e8565b5b14610777576040517f08c379a000000000000000000000000000000000000000000000000000000000815260040161076e906119dd565b60405180910390fd5b6003600260008473ffffffffffffffffffffffffffffffffffffffff1673ffffffffffffffffffffffffffffffffffffffff16815260200190815260200160002060030160003373ffffffffffffffffffffffffffffffffffffffff1673ffffffffffffffffffffffffffffffffffffffff16815260200190815260200160002060000160006101000a81548160ff0219169083600381111561081d5761081c6115e8565b5b02179055507f0abf3b3f643594d958297062a019458e27d7766629590ac621aa1000fa1298ab3360405161085191906117b4565b60405180910390a15050565b600360009054906101000a900460ff1681565b6108786114ec565b600260008473ffffffffffffffffffffffffffffffffffffffff1673ffffffffffffffffffffffffffffffffffffffff16815260200190815260200160002060030160008373ffffffffffffffffffffffffffffffffffffffff1673ffffffffffffffffffffffffffffffffffffffff1681526020019081526020016000206040518060400160405290816000820160009054906101000a900460ff166003811115610927576109266115e8565b5b6003811115610939576109386115e8565b5b8152602001600182015481525050905092915050565b8160011515600460008373ffffffffffffffffffffffffffffffffffffffff1673ffffffffffffffffffffffffffffffffffffffff16815260200190815260200160002060003373ffffffffffffffffffffffffffffffffffffffff1673ffffffffffffffffffffffffffffffffffffffff16815260200190815260200160002060009054906101000a900460ff1615151480610a1e57506109ef610bf6565b73ffffffffffffffffffffffffffffffffffffffff163373ffffffffffffffffffffffffffffffffffffffff16145b610a5d576040517f08c379a0000000000000000000000000000000000000000000000000000000008152600401610a5490611905565b60405180910390fd5b6001600460008573ffffffffffffffffffffffffffffffffffffffff1673ffffffffffffffffffffffffffffffffffffffff16815260200190815260200160002060008473ffffffffffffffffffffffffffffffffffffffff1673ffffffffffffffffffffffffffffffffffffffff16815260200190815260200160002060006101000a81548160ff021916908315150217905550505050565b600160009054906101000a900478010000000000000000000000000000000000000000000000000281565b610b2a611420565b73ffffffffffffffffffffffffffffffffffffffff16610b48610bf6565b73ffffffffffffffffffffffffffffffffffffffff1614610b9e576040517f08c379a0000000000000000000000000000000000000000000000000000000008152600401610b9590611a49565b60405180910390fd5b610ba86000611428565b565b6000600260008373ffffffffffffffffffffffffffffffffffffffff1673ffffffffffffffffffffffffffffffffffffffff168152602001908152602001600020600101549050919050565b60008060009054906101000a900473ffffffffffffffffffffffffffffffffffffffff16905090565b6000600380811115610c3457610c336115e8565b5b600260008573ffffffffffffffffffffffffffffffffffffffff1673ffffffffffffffffffffffffffffffffffffffff16815260200190815260200160002060030160008473ffffffffffffffffffffffffffffffffffffffff1673ffffffffffffffffffffffffffffffffffffffff16815260200190815260200160002060000160009054906101000a900460ff166003811115610cd657610cd56115e8565b5b14905092915050565b6000600260008473ffffffffffffffffffffffffffffffffffffffff1673ffffffffffffffffffffffffffffffffffffffff168152602001908152602001600020600201600083815260200190815260200160002060009054906101000a900473ffffffffffffffffffffffffffffffffffffffff16905092915050565b81600380811115610d7157610d706115e8565b5b600260008373ffffffffffffffffffffffffffffffffffffffff1673ffffffffffffffffffffffffffffffffffffffff16815260200190815260200160002060030160003373ffffffffffffffffffffffffffffffffffffffff1673ffffffffffffffffffffffffffffffffffffffff16815260200190815260200160002060000160009054906101000a900460ff166003811115610e1357610e126115e8565b5b1480610eac575060011515600460008373ffffffffffffffffffffffffffffffffffffffff1673ffffffffffffffffffffffffffffffffffffffff16815260200190815260200160002060003373ffffffffffffffffffffffffffffffffffffffff1673ffffffffffffffffffffffffffffffffffffffff16815260200190815260200160002060009054906101000a900460ff161515145b610eeb576040517f08c379a0000000000000000000000000000000000000000000000000000000008152600401610ee290611905565b60405180910390fd5b6003600260008573ffffffffffffffffffffffffffffffffffffffff1673ffffffffffffffffffffffffffffffffffffffff16815260200190815260200160002060030160008473ffffffffffffffffffffffffffffffffffffffff1673ffffffffffffffffffffffffffffffffffffffff16815260200190815260200160002060000160006101000a81548160ff02191690836003811115610f9157610f906115e8565b5b021790555081600260008573ffffffffffffffffffffffffffffffffffffffff1673ffffffffffffffffffffffffffffffffffffffff1681526020019081526020016000206002016000600260008773ffffffffffffffffffffffffffffffffffffffff1673ffffffffffffffffffffffffffffffffffffffff16815260200190815260200160002060010154815260200190815260200160002060006101000a81548173ffffffffffffffffffffffffffffffffffffffff021916908373ffffffffffffffffffffffffffffffffffffffff160217905550600260008473ffffffffffffffffffffffffffffffffffffffff1673ffffffffffffffffffffffffffffffffffffffff168152602001908152602001600020600101600081546110b990611a98565b919050819055507f6a2af11b2d73f347f9d5840aea46899e17609730b5cd91bd9c312098038acba682336040516110f1929190611ae1565b60405180910390a1505050565b60026020528060005260406000206000915090508060000160009054906101000a900473ffffffffffffffffffffffffffffffffffffffff16908060010154908060040160009054906101000a900460ff16905083565b600060149054906101000a900478010000000000000000000000000000000000000000000000000281565b611188611420565b73ffffffffffffffffffffffffffffffffffffffff166111a6610bf6565b73ffffffffffffffffffffffffffffffffffffffff16146111fc576040517f08c379a00000000000000000000000000000000000000000000000000000000081526004016111f390611a49565b60405180910390fd5b600073ffffffffffffffffffffffffffffffffffffffff168173ffffffffffffffffffffffffffffffffffffffff16141561126c576040517f08c379a000000000000000000000000000000000000000000000000000000000815260040161126390611b7c565b60405180910390fd5b61127581611428565b50565b8160011515600460008373ffffffffffffffffffffffffffffffffffffffff1673ffffffffffffffffffffffffffffffffffffffff16815260200190815260200160002060003373ffffffffffffffffffffffffffffffffffffffff1673ffffffffffffffffffffffffffffffffffffffff16815260200190815260200160002060009054906101000a900460ff16151514806113475750611318610bf6565b73ffffffffffffffffffffffffffffffffffffffff163373ffffffffffffffffffffffffffffffffffffffff16145b611386576040517f08c379a000000000000000000000000000000000000000000000000000000000815260040161137d90611905565b60405180910390fd5b6000600460008573ffffffffffffffffffffffffffffffffffffffff1673ffffffffffffffffffffffffffffffffffffffff16815260200190815260200160002060008473ffffffffffffffffffffffffffffffffffffffff1673ffffffffffffffffffffffffffffffffffffffff16815260200190815260200160002060006101000a81548160ff021916908315150217905550505050565b600033905090565b60008060009054906101000a900473ffffffffffffffffffffffffffffffffffffffff169050816000806101000a81548173ffffffffffffffffffffffffffffffffffffffff021916908373ffffffffffffffffffffffffffffffffffffffff1602179055508173ffffffffffffffffffffffffffffffffffffffff168173ffffffffffffffffffffffffffffffffffffffff167f8be0079c531659141344cd1fd0a4f28419497f9722a3daafe3b4186f6b6457e060405160405180910390a35050565b60405180604001604052806000600381111561150b5761150a6115e8565b5b8152602001600081525090565b600080fd5b600073ffffffffffffffffffffffffffffffffffffffff82169050919050565b60006115488261151d565b9050919050565b6115588161153d565b811461156357600080fd5b50565b6000813590506115758161154f565b92915050565b6000806040838503121561159257611591611518565b5b60006115a085828601611566565b92505060206115b185828601611566565b9150509250929050565b6000602082840312156115d1576115d0611518565b5b60006115df84828501611566565b91505092915050565b7f4e487b7100000000000000000000000000000000000000000000000000000000600052602160045260246000fd5b60028110611628576116276115e8565b5b50565b600081905061163982611617565b919050565b60006116498261162b565b9050919050565b6116598161163e565b82525050565b60006020820190506116746000830184611650565b92915050565b6004811061168b5761168a6115e8565b5b50565b600081905061169c8261167a565b919050565b60006116ac8261168e565b9050919050565b6116bc816116a1565b82525050565b6000819050919050565b6116d5816116c2565b82525050565b6040820160008201516116f160008501826116b3565b50602082015161170460208501826116cc565b50505050565b600060408201905061171f60008301846116db565b92915050565b60007fffffffffffffffff00000000000000000000000000000000000000000000000082169050919050565b61175a81611725565b82525050565b60006020820190506117756000830184611751565b92915050565b611784816116c2565b82525050565b600060208201905061179f600083018461177b565b92915050565b6117ae8161153d565b82525050565b60006020820190506117c960008301846117a5565b92915050565b60008115159050919050565b6117e4816117cf565b82525050565b60006020820190506117ff60008301846117db565b92915050565b61180e816116c2565b811461181957600080fd5b50565b60008135905061182b81611805565b92915050565b6000806040838503121561184857611847611518565b5b600061185685828601611566565b92505060206118678582860161181c565b9150509250929050565b600060608201905061188660008301866117a5565b611893602083018561177b565b6118a060408301846117db565b949350505050565b600082825260208201905092915050565b7f4e6f7420617574686f72697a6564000000000000000000000000000000000000600082015250565b60006118ef600e836118a8565b91506118fa826118b9565b602082019050919050565b6000602082019050818103600083015261191e816118e2565b9050919050565b7f44616f20616c7265616479206164646564000000000000000000000000000000600082015250565b600061195b6011836118a8565b915061196682611925565b602082019050919050565b6000602082019050818103600083015261198a8161194e565b9050919050565b7f496d706f737369626c6520746f206a6f696e0000000000000000000000000000600082015250565b60006119c76012836118a8565b91506119d282611991565b602082019050919050565b600060208201905081810360008301526119f6816119ba565b9050919050565b7f4f776e61626c653a2063616c6c6572206973206e6f7420746865206f776e6572600082015250565b6000611a336020836118a8565b9150611a3e826119fd565b602082019050919050565b60006020820190508181036000830152611a6281611a26565b9050919050565b7f4e487b7100000000000000000000000000000000000000000000000000000000600052601160045260246000fd5b6000611aa3826116c2565b91507fffffffffffffffffffffffffffffffffffffffffffffffffffffffffffffffff821415611ad657611ad5611a69565b5b600182019050919050565b6000604082019050611af660008301856117a5565b611b0360208301846117a5565b9392505050565b7f4f776e61626c653a206e6577206f776e657220697320746865207a65726f206160008201527f6464726573730000000000000000000000000000000000000000000000000000602082015250565b6000611b666026836118a8565b9150611b7182611b0a565b604082019050919050565b60006020820190508181036000830152611b9581611b59565b905091905056fea26469706673582212206f1c2f654c92ad70284e09bbed4cd39d3d80856949ac15cfb0081d7d8fbc622d64736f6c63430008090033",
  "immutableReferences": {},
  "source": "// SPDX-License-Identifier: MIT\npragma solidity ^0.8.9;\n\nimport \"@openzeppelin/contracts/utils/math/SafeMath.sol\";\nimport \"@openzeppelin/contracts/access/Ownable.sol\";\nimport \"../../Data.sol\";\nimport \"../../DaoBase.sol\";\n\n//is DaosFactory\ncontract OpenMembershipModule is Ownable {\n  using SafeMath for uint256;\n  bytes8 public moduleCode = bytes8(keccak256(abi.encode(\"OpenMembershipModule\")));\n  bytes8 public moduleType = bytes8(keccak256(abi.encode(\"MemberModule\")));\n  mapping(address => Data.DaoMember) public daos;\n  Data.visibilityEnum public visibility;\n  mapping(address => mapping(address => bool)) private authorizedContracts;\n\n  event MemberAdded(address newMember, address adderAddress);\n  event MemberAccepted(address newMember, address acceptorAddress);\n  event MemberInvited(address memberInvited, address memberInvitor);\n  event MemberJoined(address memberJoined);\n  event MemberAskedJoin(address memberRequestor);\n\n    modifier onlyActiveMembersOrAuthorizeContracts(address _contractDao) {\n        require(daos[_contractDao].members[msg.sender].status == Data.memberStatus.active \n        || authorizedContracts[_contractDao][msg.sender] == true, \"Not authorized\");\n        _;\n    }\n\n    modifier onlyNotActiveMembers(address _contractDao) {\n        require(daos[_contractDao].members[msg.sender].status != Data.memberStatus.active, \"Not authorized\");\n        _;\n    }\n\n    modifier onlyAuthorizeContracts(address _contractDao) {\n        require(authorizedContracts[_contractDao][msg.sender] == true, \"Not authorized\");\n        _;\n    }\n\n    modifier onlyAuthorizeContractsOrOwner(address _contractDao) {\n        require(((authorizedContracts[_contractDao][msg.sender] == true) || msg.sender == owner()), \"Not authorized\");\n        _;\n    }\n\n    function getMemberInfo(address _contractDao, address _member) external view returns(Data.member memory) {\n        return(daos[_contractDao].members[_member]);\n    }\n    function getAddrById(address _contractDao, uint256 id) external view returns(address) {\n        return daos[_contractDao].memberAddresses[id];\n    }\n    function getMembersCount(address _contractDao) external view returns(uint256) {\n        return daos[_contractDao].membersCount;\n    }\n\n    function addMember(address _contractDao, address addressMember) public onlyActiveMembersOrAuthorizeContracts(_contractDao) {\n        daos[_contractDao].members[addressMember].status = Data.memberStatus.active;\n        daos[_contractDao].memberAddresses[daos[_contractDao].membersCount] = addressMember;\n        ++daos[_contractDao].membersCount;\n        emit MemberAdded(addressMember, msg.sender);\n    }\n\n    function isActiveMember(address _contractDao, address addressMember) public view returns (bool){\n        return daos[_contractDao].members[addressMember].status == Data.memberStatus.active;\n    }\n\n    function join(address _contractDao) public onlyNotActiveMembers(_contractDao) {\n        require(daos[_contractDao].members[msg.sender].status == Data.memberStatus.notMember\n                , \"Impossible to join\");\n        daos[_contractDao].members[msg.sender].status = Data.memberStatus.active;\n        emit MemberJoined(msg.sender);\n    }\n\n    function addDao(address _contractDao, address _memberDao) external onlyAuthorizeContracts(_contractDao) {\n        require(!daos[_contractDao].isActive, \"Dao already added\");\n        daos[_contractDao].isActive = true;\n        daos[_contractDao].addressDao = _contractDao;\n        addMember(_contractDao, _memberDao);\n    }\n\n    function authorizeContract(address _contractDao, address _contractAddress) external onlyAuthorizeContractsOrOwner(_contractDao) {\n        authorizedContracts[_contractDao][_contractAddress] = true;\n    }\n\n    function denyContract(address _contractDao, address _contractAddress) external onlyAuthorizeContractsOrOwner(_contractDao) {\n        authorizedContracts[_contractDao][_contractAddress] = false;\n    }\n}",
  "sourcePath": "/Users/chinoiserie/delivery/BLOCKCHAIN/Alyra/MY-DAO/contracts/Modules/Implementations/OpenMembershipModule.sol",
  "compiler": {
    "name": "solc",
    "version": "0.8.9+commit.e5eed63a.Emscripten.clang"
  },
  "schemaVersion": "3.2.0",
  "updatedAt": "2022-05-15T18:53:46.133Z",
  "networkType": "ethereum",
  "devdoc": {
    "kind": "dev",
    "methods": {
      "owner()": {
        "details": "Returns the address of the current owner."
      },
      "renounceOwnership()": {
        "details": "Leaves the contract without owner. It will not be possible to call `onlyOwner` functions anymore. Can only be called by the current owner. NOTE: Renouncing ownership will leave the contract without an owner, thereby removing any functionality that is only available to the owner."
      },
      "transferOwnership(address)": {
        "details": "Transfers ownership of the contract to a new account (`newOwner`). Can only be called by the current owner."
      }
    },
    "version": 1
  },
  "userdoc": {
    "kind": "user",
    "methods": {},
    "version": 1
  }
}