{
  "contractName": "OpenMembershipModule",
  "abi": [
    {
      "inputs": [
        {
          "internalType": "address",
          "name": "_contractFactory",
          "type": "address"
        }
      ],
      "stateMutability": "nonpayable",
      "type": "constructor"
    },
    {
      "anonymous": false,
      "inputs": [
        {
          "indexed": false,
          "internalType": "address",
          "name": "newMember",
          "type": "address"
        },
        {
          "indexed": false,
          "internalType": "address",
          "name": "acceptorAddress",
          "type": "address"
        }
      ],
      "name": "MemberAccepted",
      "type": "event"
    },
    {
      "anonymous": false,
      "inputs": [
        {
          "indexed": false,
          "internalType": "address",
          "name": "newMember",
          "type": "address"
        },
        {
          "indexed": false,
          "internalType": "address",
          "name": "adderAddress",
          "type": "address"
        }
      ],
      "name": "MemberAdded",
      "type": "event"
    },
    {
      "anonymous": false,
      "inputs": [
        {
          "indexed": false,
          "internalType": "address",
          "name": "memberRequestor",
          "type": "address"
        }
      ],
      "name": "MemberAskedJoin",
      "type": "event"
    },
    {
      "anonymous": false,
      "inputs": [
        {
          "indexed": false,
          "internalType": "address",
          "name": "memberInvited",
          "type": "address"
        },
        {
          "indexed": false,
          "internalType": "address",
          "name": "memberInvitor",
          "type": "address"
        }
      ],
      "name": "MemberInvited",
      "type": "event"
    },
    {
      "anonymous": false,
      "inputs": [
        {
          "indexed": false,
          "internalType": "address",
          "name": "memberJoined",
          "type": "address"
        }
      ],
      "name": "MemberJoined",
      "type": "event"
    },
    {
      "anonymous": false,
      "inputs": [
        {
          "indexed": true,
          "internalType": "address",
          "name": "previousOwner",
          "type": "address"
        },
        {
          "indexed": true,
          "internalType": "address",
          "name": "newOwner",
          "type": "address"
        }
      ],
      "name": "OwnershipTransferred",
      "type": "event"
    },
    {
      "inputs": [
        {
          "internalType": "address",
          "name": "",
          "type": "address"
        },
        {
          "internalType": "address",
          "name": "",
          "type": "address"
        }
      ],
      "name": "authorizedAddress",
      "outputs": [
        {
          "internalType": "bool",
          "name": "",
          "type": "bool"
        }
      ],
      "stateMutability": "view",
      "type": "function",
      "constant": true
    },
    {
      "inputs": [
        {
          "internalType": "address",
          "name": "",
          "type": "address"
        }
      ],
      "name": "daos",
      "outputs": [
        {
          "internalType": "address",
          "name": "addressDao",
          "type": "address"
        },
        {
          "internalType": "uint256",
          "name": "membersCount",
          "type": "uint256"
        },
        {
          "internalType": "bool",
          "name": "isActive",
          "type": "bool"
        }
      ],
      "stateMutability": "view",
      "type": "function",
      "constant": true
    },
    {
      "inputs": [],
      "name": "moduleCode",
      "outputs": [
        {
          "internalType": "bytes8",
          "name": "",
          "type": "bytes8"
        }
      ],
      "stateMutability": "view",
      "type": "function",
      "constant": true
    },
    {
      "inputs": [],
      "name": "moduleType",
      "outputs": [
        {
          "internalType": "bytes8",
          "name": "",
          "type": "bytes8"
        }
      ],
      "stateMutability": "view",
      "type": "function",
      "constant": true
    },
    {
      "inputs": [],
      "name": "owner",
      "outputs": [
        {
          "internalType": "address",
          "name": "",
          "type": "address"
        }
      ],
      "stateMutability": "view",
      "type": "function",
      "constant": true
    },
    {
      "inputs": [],
      "name": "renounceOwnership",
      "outputs": [],
      "stateMutability": "nonpayable",
      "type": "function"
    },
    {
      "inputs": [
        {
          "internalType": "address",
          "name": "newOwner",
          "type": "address"
        }
      ],
      "name": "transferOwnership",
      "outputs": [],
      "stateMutability": "nonpayable",
      "type": "function"
    },
    {
      "inputs": [],
      "name": "visibility",
      "outputs": [
        {
          "internalType": "enum Data.visibilityEnum",
          "name": "",
          "type": "uint8"
        }
      ],
      "stateMutability": "view",
      "type": "function",
      "constant": true
    },
    {
      "inputs": [
        {
          "internalType": "address",
          "name": "_contractDao",
          "type": "address"
        },
        {
          "internalType": "address",
          "name": "_member",
          "type": "address"
        }
      ],
      "name": "getMemberInfo",
      "outputs": [
        {
          "components": [
            {
              "internalType": "enum Data.memberStatus",
              "name": "status",
              "type": "uint8"
            },
            {
              "internalType": "uint256",
              "name": "joinTime",
              "type": "uint256"
            }
          ],
          "internalType": "struct Data.member",
          "name": "",
          "type": "tuple"
        }
      ],
      "stateMutability": "view",
      "type": "function",
      "constant": true
    },
    {
      "inputs": [
        {
          "internalType": "address",
          "name": "_contractDao",
          "type": "address"
        },
        {
          "internalType": "uint256",
          "name": "id",
          "type": "uint256"
        }
      ],
      "name": "getAddrById",
      "outputs": [
        {
          "internalType": "address",
          "name": "",
          "type": "address"
        }
      ],
      "stateMutability": "view",
      "type": "function",
      "constant": true
    },
    {
      "inputs": [
        {
          "internalType": "address",
          "name": "_contractDao",
          "type": "address"
        }
      ],
      "name": "getMembersCount",
      "outputs": [
        {
          "internalType": "uint256",
          "name": "",
          "type": "uint256"
        }
      ],
      "stateMutability": "view",
      "type": "function",
      "constant": true
    },
    {
      "inputs": [
        {
          "internalType": "address",
          "name": "_contractDao",
          "type": "address"
        },
        {
          "internalType": "address",
          "name": "addressMember",
          "type": "address"
        }
      ],
      "name": "addMember",
      "outputs": [],
      "stateMutability": "nonpayable",
      "type": "function"
    },
    {
      "inputs": [
        {
          "internalType": "address",
          "name": "_contractDao",
          "type": "address"
        },
        {
          "internalType": "address",
          "name": "addressMember",
          "type": "address"
        }
      ],
      "name": "isActiveMember",
      "outputs": [
        {
          "internalType": "bool",
          "name": "",
          "type": "bool"
        }
      ],
      "stateMutability": "view",
      "type": "function",
      "constant": true
    },
    {
      "inputs": [
        {
          "internalType": "address",
          "name": "_contractDao",
          "type": "address"
        }
      ],
      "name": "join",
      "outputs": [],
      "stateMutability": "nonpayable",
      "type": "function"
    },
    {
      "inputs": [
        {
          "internalType": "address",
          "name": "_contractDao",
          "type": "address"
        },
        {
          "internalType": "address",
          "name": "_memberDao",
          "type": "address"
        }
      ],
      "name": "addDao",
      "outputs": [],
      "stateMutability": "nonpayable",
      "type": "function"
    },
    {
      "inputs": [
        {
          "internalType": "address",
          "name": "_contractDao",
          "type": "address"
        },
        {
          "internalType": "address",
          "name": "_contractAddress",
          "type": "address"
        }
      ],
      "name": "authorizeAddress",
      "outputs": [],
      "stateMutability": "nonpayable",
      "type": "function"
    },
    {
      "inputs": [
        {
          "internalType": "address",
          "name": "_contractDao",
          "type": "address"
        },
        {
          "internalType": "address",
          "name": "_contractAddress",
          "type": "address"
        }
      ],
      "name": "denyAddress",
      "outputs": [],
      "stateMutability": "nonpayable",
      "type": "function"
    }
  ],
  "bytecode": "0x6080604052604051602001620000159062000279565b60405160208183030381529060405280519060200120600060146101000a81548167ffffffffffffffff02191690837801000000000000000000000000000000000000000000000000900402179055506040516020016200007690620002eb565b60405160208183030381529060405280519060200120600160006101000a81548167ffffffffffffffff0219169083780100000000000000000000000000000000000000000000000090040217905550348015620000d357600080fd5b506040516200233c3803806200233c8339818101604052810190620000f9919062000377565b6200012b620001166200014c640100000000026401000000009004565b62000154640100000000026401000000009004565b620001458162000154640100000000026401000000009004565b50620003a9565b600033905090565b60008060009054906101000a900473ffffffffffffffffffffffffffffffffffffffff169050816000806101000a81548173ffffffffffffffffffffffffffffffffffffffff021916908373ffffffffffffffffffffffffffffffffffffffff1602179055508173ffffffffffffffffffffffffffffffffffffffff168173ffffffffffffffffffffffffffffffffffffffff167f8be0079c531659141344cd1fd0a4f28419497f9722a3daafe3b4186f6b6457e060405160405180910390a35050565b600082825260208201905092915050565b7f4f70656e4d656d626572736869704d6f64756c65000000000000000000000000600082015250565b60006200026160148362000218565b91506200026e8262000229565b602082019050919050565b60006020820190508181036000830152620002948162000252565b9050919050565b7f4d656d6265724d6f64756c650000000000000000000000000000000000000000600082015250565b6000620002d3600c8362000218565b9150620002e0826200029b565b602082019050919050565b600060208201905081810360008301526200030681620002c4565b9050919050565b600080fd5b600073ffffffffffffffffffffffffffffffffffffffff82169050919050565b60006200033f8262000312565b9050919050565b620003518162000332565b81146200035d57600080fd5b50565b600081519050620003718162000346565b92915050565b60006020828403121562000390576200038f6200030d565b5b6000620003a08482850162000360565b91505092915050565b611f8380620003b96000396000f3fe608060405234801561001057600080fd5b5060043610610128576000357c0100000000000000000000000000000000000000000000000000000000900480638da5cb5b116100bf578063c25f3cf61161008e578063c25f3cf6146102d5578063db4d7dcd14610307578063e498116f14610323578063f0744c161461033f578063f2fde38b1461035d57610128565b80638da5cb5b1461023b5780638ecf772014610259578063945da9a1146102895780639d58b15d146102b957610128565b80636465e69f116100fb5780636465e69f146101b3578063715018a6146101d1578063760b9c34146101db578063890222b61461020b57610128565b806312ee7e411461012d57806328ffe6c81461014957806329adec141461016557806336048d5f14610183575b600080fd5b6101476004803603810190610142919061192c565b610379565b005b610163600480360381019061015e919061196c565b610697565b005b61016d610b1b565b60405161017a9190611a10565b60405180910390f35b61019d6004803603810190610198919061192c565b610b2e565b6040516101aa9190611abb565b60405180910390f35b6101bb610c0d565b6040516101c89190611b11565b60405180910390f35b6101d9610c38565b005b6101f560048036038101906101f0919061196c565b610cc0565b6040516102029190611b3b565b60405180910390f35b6102256004803603810190610220919061192c565b610d0c565b6040516102329190611b71565b60405180910390f35b610243610d3b565b6040516102509190611b9b565b60405180910390f35b610273600480360381019061026e919061192c565b610d64565b6040516102809190611b71565b60405180910390f35b6102a3600480360381019061029e9190611be2565b610e24565b6040516102b09190611b9b565b60405180910390f35b6102d360048036038101906102ce919061192c565b610ea2565b005b6102ef60048036038101906102ea919061196c565b611307565b6040516102fe93929190611c22565b60405180910390f35b610321600480360381019061031c919061192c565b61135e565b005b61033d6004803603810190610338919061192c565b611506565b005b6103476116ae565b6040516103549190611b11565b60405180910390f35b6103776004803603810190610372919061196c565b6116d9565b005b8160011515600460008373ffffffffffffffffffffffffffffffffffffffff1673ffffffffffffffffffffffffffffffffffffffff16815260200190815260200160002060003373ffffffffffffffffffffffffffffffffffffffff1673ffffffffffffffffffffffffffffffffffffffff16815260200190815260200160002060009054906101000a900460ff16151514806104485750610419610d3b565b73ffffffffffffffffffffffffffffffffffffffff163373ffffffffffffffffffffffffffffffffffffffff16145b610487576040517f08c379a000000000000000000000000000000000000000000000000000000000815260040161047e90611cb6565b60405180910390fd5b600260008473ffffffffffffffffffffffffffffffffffffffff1673ffffffffffffffffffffffffffffffffffffffff16815260200190815260200160002060040160009054906101000a900460ff1615610517576040517f08c379a000000000000000000000000000000000000000000000000000000000815260040161050e90611d22565b60405180910390fd5b6001600260008573ffffffffffffffffffffffffffffffffffffffff1673ffffffffffffffffffffffffffffffffffffffff16815260200190815260200160002060040160006101000a81548160ff02191690831515021790555082600260008573ffffffffffffffffffffffffffffffffffffffff1673ffffffffffffffffffffffffffffffffffffffff16815260200190815260200160002060000160006101000a81548173ffffffffffffffffffffffffffffffffffffffff021916908373ffffffffffffffffffffffffffffffffffffffff1602179055506105fd8383610ea2565b6001600460008573ffffffffffffffffffffffffffffffffffffffff1673ffffffffffffffffffffffffffffffffffffffff16815260200190815260200160002060008473ffffffffffffffffffffffffffffffffffffffff1673ffffffffffffffffffffffffffffffffffffffff16815260200190815260200160002060006101000a81548160ff021916908315150217905550505050565b806003808111156106ab576106aa611999565b5b600260008373ffffffffffffffffffffffffffffffffffffffff1673ffffffffffffffffffffffffffffffffffffffff16815260200190815260200160002060030160003373ffffffffffffffffffffffffffffffffffffffff1673ffffffffffffffffffffffffffffffffffffffff16815260200190815260200160002060000160009054906101000a900460ff16600381111561074d5761074c611999565b5b141561078e576040517f08c379a000000000000000000000000000000000000000000000000000000000815260040161078590611cb6565b60405180910390fd5b600060038111156107a2576107a1611999565b5b600260008473ffffffffffffffffffffffffffffffffffffffff1673ffffffffffffffffffffffffffffffffffffffff16815260200190815260200160002060030160003373ffffffffffffffffffffffffffffffffffffffff1673ffffffffffffffffffffffffffffffffffffffff16815260200190815260200160002060000160009054906101000a900460ff16600381111561084457610843611999565b5b14610884576040517f08c379a000000000000000000000000000000000000000000000000000000000815260040161087b90611d8e565b60405180910390fd5b6003600260008473ffffffffffffffffffffffffffffffffffffffff1673ffffffffffffffffffffffffffffffffffffffff16815260200190815260200160002060030160003373ffffffffffffffffffffffffffffffffffffffff1673ffffffffffffffffffffffffffffffffffffffff16815260200190815260200160002060000160006101000a81548160ff0219169083600381111561092a57610929611999565b5b021790555033600260008473ffffffffffffffffffffffffffffffffffffffff1673ffffffffffffffffffffffffffffffffffffffff1681526020019081526020016000206002016000600260008673ffffffffffffffffffffffffffffffffffffffff1673ffffffffffffffffffffffffffffffffffffffff16815260200190815260200160002060010154815260200190815260200160002060006101000a81548173ffffffffffffffffffffffffffffffffffffffff021916908373ffffffffffffffffffffffffffffffffffffffff16021790555042600260008473ffffffffffffffffffffffffffffffffffffffff1673ffffffffffffffffffffffffffffffffffffffff16815260200190815260200160002060030160003373ffffffffffffffffffffffffffffffffffffffff1673ffffffffffffffffffffffffffffffffffffffff16815260200190815260200160002060010181905550600260008373ffffffffffffffffffffffffffffffffffffffff1673ffffffffffffffffffffffffffffffffffffffff16815260200190815260200160002060010160008154610ad990611ddd565b919050819055507f0abf3b3f643594d958297062a019458e27d7766629590ac621aa1000fa1298ab33604051610b0f9190611b9b565b60405180910390a15050565b600360009054906101000a900460ff1681565b610b3661189d565b600260008473ffffffffffffffffffffffffffffffffffffffff1673ffffffffffffffffffffffffffffffffffffffff16815260200190815260200160002060030160008373ffffffffffffffffffffffffffffffffffffffff1673ffffffffffffffffffffffffffffffffffffffff1681526020019081526020016000206040518060400160405290816000820160009054906101000a900460ff166003811115610be557610be4611999565b5b6003811115610bf757610bf6611999565b5b8152602001600182015481525050905092915050565b600160009054906101000a900478010000000000000000000000000000000000000000000000000281565b610c406117d1565b73ffffffffffffffffffffffffffffffffffffffff16610c5e610d3b565b73ffffffffffffffffffffffffffffffffffffffff1614610cb4576040517f08c379a0000000000000000000000000000000000000000000000000000000008152600401610cab90611e72565b60405180910390fd5b610cbe60006117d9565b565b6000600260008373ffffffffffffffffffffffffffffffffffffffff1673ffffffffffffffffffffffffffffffffffffffff168152602001908152602001600020600101549050919050565b60046020528160005260406000206020528060005260406000206000915091509054906101000a900460ff1681565b60008060009054906101000a900473ffffffffffffffffffffffffffffffffffffffff16905090565b6000600380811115610d7957610d78611999565b5b600260008573ffffffffffffffffffffffffffffffffffffffff1673ffffffffffffffffffffffffffffffffffffffff16815260200190815260200160002060030160008473ffffffffffffffffffffffffffffffffffffffff1673ffffffffffffffffffffffffffffffffffffffff16815260200190815260200160002060000160009054906101000a900460ff166003811115610e1b57610e1a611999565b5b14905092915050565b6000600260008473ffffffffffffffffffffffffffffffffffffffff1673ffffffffffffffffffffffffffffffffffffffff168152602001908152602001600020600201600083815260200190815260200160002060009054906101000a900473ffffffffffffffffffffffffffffffffffffffff16905092915050565b81600380811115610eb657610eb5611999565b5b600260008373ffffffffffffffffffffffffffffffffffffffff1673ffffffffffffffffffffffffffffffffffffffff16815260200190815260200160002060030160003373ffffffffffffffffffffffffffffffffffffffff1673ffffffffffffffffffffffffffffffffffffffff16815260200190815260200160002060000160009054906101000a900460ff166003811115610f5857610f57611999565b5b1480610ff1575060011515600460008373ffffffffffffffffffffffffffffffffffffffff1673ffffffffffffffffffffffffffffffffffffffff16815260200190815260200160002060003373ffffffffffffffffffffffffffffffffffffffff1673ffffffffffffffffffffffffffffffffffffffff16815260200190815260200160002060009054906101000a900460ff161515145b8061102e5750610fff610d3b565b73ffffffffffffffffffffffffffffffffffffffff163373ffffffffffffffffffffffffffffffffffffffff16145b61106d576040517f08c379a000000000000000000000000000000000000000000000000000000000815260040161106490611cb6565b60405180910390fd5b6003600260008573ffffffffffffffffffffffffffffffffffffffff1673ffffffffffffffffffffffffffffffffffffffff16815260200190815260200160002060030160008473ffffffffffffffffffffffffffffffffffffffff1673ffffffffffffffffffffffffffffffffffffffff16815260200190815260200160002060000160006101000a81548160ff0219169083600381111561111357611112611999565b5b021790555081600260008573ffffffffffffffffffffffffffffffffffffffff1673ffffffffffffffffffffffffffffffffffffffff1681526020019081526020016000206002016000600260008773ffffffffffffffffffffffffffffffffffffffff1673ffffffffffffffffffffffffffffffffffffffff16815260200190815260200160002060010154815260200190815260200160002060006101000a81548173ffffffffffffffffffffffffffffffffffffffff021916908373ffffffffffffffffffffffffffffffffffffffff16021790555042600260008573ffffffffffffffffffffffffffffffffffffffff1673ffffffffffffffffffffffffffffffffffffffff16815260200190815260200160002060030160008473ffffffffffffffffffffffffffffffffffffffff1673ffffffffffffffffffffffffffffffffffffffff16815260200190815260200160002060010181905550600260008473ffffffffffffffffffffffffffffffffffffffff1673ffffffffffffffffffffffffffffffffffffffff168152602001908152602001600020600101600081546112c290611ddd565b919050819055507f6a2af11b2d73f347f9d5840aea46899e17609730b5cd91bd9c312098038acba682336040516112fa929190611e92565b60405180910390a1505050565b60026020528060005260406000206000915090508060000160009054906101000a900473ffffffffffffffffffffffffffffffffffffffff16908060010154908060040160009054906101000a900460ff16905083565b8160011515600460008373ffffffffffffffffffffffffffffffffffffffff1673ffffffffffffffffffffffffffffffffffffffff16815260200190815260200160002060003373ffffffffffffffffffffffffffffffffffffffff1673ffffffffffffffffffffffffffffffffffffffff16815260200190815260200160002060009054906101000a900460ff161515148061142d57506113fe610d3b565b73ffffffffffffffffffffffffffffffffffffffff163373ffffffffffffffffffffffffffffffffffffffff16145b61146c576040517f08c379a000000000000000000000000000000000000000000000000000000000815260040161146390611cb6565b60405180910390fd5b6001600460008573ffffffffffffffffffffffffffffffffffffffff1673ffffffffffffffffffffffffffffffffffffffff16815260200190815260200160002060008473ffffffffffffffffffffffffffffffffffffffff1673ffffffffffffffffffffffffffffffffffffffff16815260200190815260200160002060006101000a81548160ff021916908315150217905550505050565b8160011515600460008373ffffffffffffffffffffffffffffffffffffffff1673ffffffffffffffffffffffffffffffffffffffff16815260200190815260200160002060003373ffffffffffffffffffffffffffffffffffffffff1673ffffffffffffffffffffffffffffffffffffffff16815260200190815260200160002060009054906101000a900460ff16151514806115d557506115a6610d3b565b73ffffffffffffffffffffffffffffffffffffffff163373ffffffffffffffffffffffffffffffffffffffff16145b611614576040517f08c379a000000000000000000000000000000000000000000000000000000000815260040161160b90611cb6565b60405180910390fd5b6000600460008573ffffffffffffffffffffffffffffffffffffffff1673ffffffffffffffffffffffffffffffffffffffff16815260200190815260200160002060008473ffffffffffffffffffffffffffffffffffffffff1673ffffffffffffffffffffffffffffffffffffffff16815260200190815260200160002060006101000a81548160ff021916908315150217905550505050565b600060149054906101000a900478010000000000000000000000000000000000000000000000000281565b6116e16117d1565b73ffffffffffffffffffffffffffffffffffffffff166116ff610d3b565b73ffffffffffffffffffffffffffffffffffffffff1614611755576040517f08c379a000000000000000000000000000000000000000000000000000000000815260040161174c90611e72565b60405180910390fd5b600073ffffffffffffffffffffffffffffffffffffffff168173ffffffffffffffffffffffffffffffffffffffff1614156117c5576040517f08c379a00000000000000000000000000000000000000000000000000000000081526004016117bc90611f2d565b60405180910390fd5b6117ce816117d9565b50565b600033905090565b60008060009054906101000a900473ffffffffffffffffffffffffffffffffffffffff169050816000806101000a81548173ffffffffffffffffffffffffffffffffffffffff021916908373ffffffffffffffffffffffffffffffffffffffff1602179055508173ffffffffffffffffffffffffffffffffffffffff168173ffffffffffffffffffffffffffffffffffffffff167f8be0079c531659141344cd1fd0a4f28419497f9722a3daafe3b4186f6b6457e060405160405180910390a35050565b6040518060400160405280600060038111156118bc576118bb611999565b5b8152602001600081525090565b600080fd5b600073ffffffffffffffffffffffffffffffffffffffff82169050919050565b60006118f9826118ce565b9050919050565b611909816118ee565b811461191457600080fd5b50565b60008135905061192681611900565b92915050565b60008060408385031215611943576119426118c9565b5b600061195185828601611917565b925050602061196285828601611917565b9150509250929050565b600060208284031215611982576119816118c9565b5b600061199084828501611917565b91505092915050565b7f4e487b7100000000000000000000000000000000000000000000000000000000600052602160045260246000fd5b600281106119d9576119d8611999565b5b50565b60008190506119ea826119c8565b919050565b60006119fa826119dc565b9050919050565b611a0a816119ef565b82525050565b6000602082019050611a256000830184611a01565b92915050565b60048110611a3c57611a3b611999565b5b50565b6000819050611a4d82611a2b565b919050565b6000611a5d82611a3f565b9050919050565b611a6d81611a52565b82525050565b6000819050919050565b611a8681611a73565b82525050565b604082016000820151611aa26000850182611a64565b506020820151611ab56020850182611a7d565b50505050565b6000604082019050611ad06000830184611a8c565b92915050565b60007fffffffffffffffff00000000000000000000000000000000000000000000000082169050919050565b611b0b81611ad6565b82525050565b6000602082019050611b266000830184611b02565b92915050565b611b3581611a73565b82525050565b6000602082019050611b506000830184611b2c565b92915050565b60008115159050919050565b611b6b81611b56565b82525050565b6000602082019050611b866000830184611b62565b92915050565b611b95816118ee565b82525050565b6000602082019050611bb06000830184611b8c565b92915050565b611bbf81611a73565b8114611bca57600080fd5b50565b600081359050611bdc81611bb6565b92915050565b60008060408385031215611bf957611bf86118c9565b5b6000611c0785828601611917565b9250506020611c1885828601611bcd565b9150509250929050565b6000606082019050611c376000830186611b8c565b611c446020830185611b2c565b611c516040830184611b62565b949350505050565b600082825260208201905092915050565b7f4e6f7420617574686f72697a6564000000000000000000000000000000000000600082015250565b6000611ca0600e83611c59565b9150611cab82611c6a565b602082019050919050565b60006020820190508181036000830152611ccf81611c93565b9050919050565b7f44616f20616c7265616479206164646564000000000000000000000000000000600082015250565b6000611d0c601183611c59565b9150611d1782611cd6565b602082019050919050565b60006020820190508181036000830152611d3b81611cff565b9050919050565b7f496d706f737369626c6520746f206a6f696e0000000000000000000000000000600082015250565b6000611d78601283611c59565b9150611d8382611d42565b602082019050919050565b60006020820190508181036000830152611da781611d6b565b9050919050565b7f4e487b7100000000000000000000000000000000000000000000000000000000600052601160045260246000fd5b6000611de882611a73565b91507fffffffffffffffffffffffffffffffffffffffffffffffffffffffffffffffff821415611e1b57611e1a611dae565b5b600182019050919050565b7f4f776e61626c653a2063616c6c6572206973206e6f7420746865206f776e6572600082015250565b6000611e5c602083611c59565b9150611e6782611e26565b602082019050919050565b60006020820190508181036000830152611e8b81611e4f565b9050919050565b6000604082019050611ea76000830185611b8c565b611eb46020830184611b8c565b9392505050565b7f4f776e61626c653a206e6577206f776e657220697320746865207a65726f206160008201527f6464726573730000000000000000000000000000000000000000000000000000602082015250565b6000611f17602683611c59565b9150611f2282611ebb565b604082019050919050565b60006020820190508181036000830152611f4681611f0a565b905091905056fea2646970667358221220a5abf87f942fc1e05807c693cb564c9455b80d3720f006e29c45f200d7fd700f64736f6c63430008090033",
  "immutableReferences": {},
  "source": "// SPDX-License-Identifier: MIT\r\npragma solidity ^0.8.9;\r\n\r\nimport \"@openzeppelin/contracts/utils/math/SafeMath.sol\";\r\nimport \"@openzeppelin/contracts/access/Ownable.sol\";\r\nimport \"../../Data.sol\";\r\nimport \"../../DaoBase.sol\";\r\n\r\n//is DaosFactory\r\ncontract OpenMembershipModule is Ownable {\r\n    using SafeMath for uint256;\r\n    bytes8 public moduleCode = bytes8(keccak256(abi.encode(\"OpenMembershipModule\")));\r\n    bytes8 public moduleType = bytes8(keccak256(abi.encode(\"MemberModule\")));\r\n    mapping(address => Data.DaoMember) public daos;\r\n    Data.visibilityEnum public visibility;\r\n    mapping(address => mapping(address => bool)) public authorizedAddress;\r\n\r\n    event MemberAdded(address newMember, address adderAddress);\r\n    event MemberAccepted(address newMember, address acceptorAddress);\r\n    event MemberInvited(address memberInvited, address memberInvitor);\r\n    event MemberJoined(address memberJoined);\r\n    event MemberAskedJoin(address memberRequestor);\r\n\r\n    constructor(address _contractFactory) {\r\n        _transferOwnership(_contractFactory);\r\n    }\r\n\r\n    modifier onlyActiveMembersOrAuthorizeAddress(address _contractDao) {\r\n        require(daos[_contractDao].members[msg.sender].status == Data.memberStatus.active \r\n        || authorizedAddress[_contractDao][msg.sender] == true\r\n        || msg.sender == owner(), \"Not authorized\");\r\n        _;\r\n    }\r\n    \r\n    modifier onlyNotActiveMembers(address _contractDao) {\r\n        require(daos[_contractDao].members[msg.sender].status != Data.memberStatus.active, \"Not authorized\");\r\n        _;\r\n    }\r\n\r\n    modifier onlyAuthorizeAddress(address _contractDao) {\r\n        require(authorizedAddress[_contractDao][msg.sender] == true, \"Not authorized\");\r\n        _;\r\n    }\r\n\r\n    modifier onlyAuthorizeAddressOrOwner(address _contractDao) {\r\n        require(authorizedAddress[_contractDao][msg.sender] == true || msg.sender == owner(), \"Not authorized\");\r\n        _;\r\n    }\r\n\r\n    function getMemberInfo(address _contractDao, address _member) external view returns(Data.member memory) {\r\n        return(daos[_contractDao].members[_member]);\r\n    }\r\n\r\n    function getAddrById(address _contractDao, uint256 id) external view returns(address) {\r\n        return daos[_contractDao].memberAddresses[id];\r\n    }\r\n\r\n    function getMembersCount(address _contractDao) external view returns(uint256) {\r\n        return daos[_contractDao].membersCount;\r\n    }\r\n\r\n    // NOTE maybe add more Member Info\r\n    function addMember(address _contractDao, address addressMember) public onlyActiveMembersOrAuthorizeAddress(_contractDao) {\r\n        daos[_contractDao].members[addressMember].status = Data.memberStatus.active;\r\n        daos[_contractDao].memberAddresses[daos[_contractDao].membersCount] = addressMember;\r\n        daos[_contractDao].members[addressMember].joinTime = block.timestamp;\r\n        ++daos[_contractDao].membersCount;\r\n        emit MemberAdded(addressMember, msg.sender);\r\n    }\r\n\r\n    function isActiveMember(address _contractDao, address addressMember) public view returns (bool){\r\n        return daos[_contractDao].members[addressMember].status == Data.memberStatus.active;\r\n    }\r\n\r\n    function join(address _contractDao) public onlyNotActiveMembers(_contractDao) {\r\n        require(daos[_contractDao].members[msg.sender].status == Data.memberStatus.notMember\r\n            , \"Impossible to join\");\r\n        daos[_contractDao].members[msg.sender].status = Data.memberStatus.active;\r\n        daos[_contractDao].memberAddresses[daos[_contractDao].membersCount] = msg.sender;\r\n        daos[_contractDao].members[msg.sender].joinTime = block.timestamp;\r\n        ++daos[_contractDao].membersCount;\r\n        emit MemberJoined(msg.sender);\r\n    }\r\n\r\n    function addDao(address _contractDao, address _memberDao) external onlyAuthorizeAddressOrOwner(_contractDao) {\r\n        require(!daos[_contractDao].isActive, \"Dao already added\");\r\n        daos[_contractDao].isActive = true;\r\n        daos[_contractDao].addressDao = _contractDao;\r\n        addMember(_contractDao, _memberDao);\r\n        authorizedAddress[_contractDao][_memberDao] = true;\r\n    }\r\n\r\n    function authorizeAddress(address _contractDao, address _contractAddress) external onlyAuthorizeAddressOrOwner(_contractDao) {\r\n        authorizedAddress[_contractDao][_contractAddress] = true;\r\n    }\r\n\r\n    function denyAddress(address _contractDao, address _contractAddress) external onlyAuthorizeAddressOrOwner(_contractDao) {\r\n        authorizedAddress[_contractDao][_contractAddress] = false;\r\n    }\r\n}",
  "sourcePath": "C:\\Users\\mdmou\\source\\repos\\MY-DAO\\contracts\\Modules\\Implementations\\OpenMembershipModule.sol",
  "compiler": {
    "name": "solc",
    "version": "0.8.9+commit.e5eed63a.Emscripten.clang"
  },
  "schemaVersion": "3.4.4",
  "updatedAt": "2022-05-21T16:55:11.672Z",
  "networkType": "ethereum",
  "devdoc": {
    "kind": "dev",
    "methods": {
      "owner()": {
        "details": "Returns the address of the current owner."
      },
      "renounceOwnership()": {
        "details": "Leaves the contract without owner. It will not be possible to call `onlyOwner` functions anymore. Can only be called by the current owner. NOTE: Renouncing ownership will leave the contract without an owner, thereby removing any functionality that is only available to the owner."
      },
      "transferOwnership(address)": {
        "details": "Transfers ownership of the contract to a new account (`newOwner`). Can only be called by the current owner."
      }
    },
    "version": 1
  },
  "userdoc": {
    "kind": "user",
    "methods": {},
    "version": 1
  }
}