{
  "contractName": "OpenMembershipModule",
  "abi": [
    {
      "inputs": [
        {
          "internalType": "address",
          "name": "_contractFactory",
          "type": "address"
        }
      ],
      "stateMutability": "nonpayable",
      "type": "constructor"
    },
    {
      "anonymous": false,
      "inputs": [
        {
          "indexed": false,
          "internalType": "address",
          "name": "newMember",
          "type": "address"
        },
        {
          "indexed": false,
          "internalType": "address",
          "name": "acceptorAddress",
          "type": "address"
        }
      ],
      "name": "MemberAccepted",
      "type": "event"
    },
    {
      "anonymous": false,
      "inputs": [
        {
          "indexed": false,
          "internalType": "address",
          "name": "newMember",
          "type": "address"
        },
        {
          "indexed": false,
          "internalType": "address",
          "name": "adderAddress",
          "type": "address"
        }
      ],
      "name": "MemberAdded",
      "type": "event"
    },
    {
      "anonymous": false,
      "inputs": [
        {
          "indexed": false,
          "internalType": "address",
          "name": "memberRequestor",
          "type": "address"
        }
      ],
      "name": "MemberAskedJoin",
      "type": "event"
    },
    {
      "anonymous": false,
      "inputs": [
        {
          "indexed": false,
          "internalType": "address",
          "name": "memberInvited",
          "type": "address"
        },
        {
          "indexed": false,
          "internalType": "address",
          "name": "memberInvitor",
          "type": "address"
        }
      ],
      "name": "MemberInvited",
      "type": "event"
    },
    {
      "anonymous": false,
      "inputs": [
        {
          "indexed": false,
          "internalType": "address",
          "name": "memberJoined",
          "type": "address"
        }
      ],
      "name": "MemberJoined",
      "type": "event"
    },
    {
      "anonymous": false,
      "inputs": [
        {
          "indexed": true,
          "internalType": "address",
          "name": "previousOwner",
          "type": "address"
        },
        {
          "indexed": true,
          "internalType": "address",
          "name": "newOwner",
          "type": "address"
        }
      ],
      "name": "OwnershipTransferred",
      "type": "event"
    },
    {
      "inputs": [
        {
          "internalType": "address",
          "name": "",
          "type": "address"
        }
      ],
      "name": "daos",
      "outputs": [
        {
          "internalType": "address",
          "name": "addressDao",
          "type": "address"
        },
        {
          "internalType": "uint256",
          "name": "membersCount",
          "type": "uint256"
        },
        {
          "internalType": "bool",
          "name": "isActive",
          "type": "bool"
        }
      ],
      "stateMutability": "view",
      "type": "function",
      "constant": true
    },
    {
      "inputs": [],
      "name": "moduleCode",
      "outputs": [
        {
          "internalType": "bytes8",
          "name": "",
          "type": "bytes8"
        }
      ],
      "stateMutability": "view",
      "type": "function",
      "constant": true
    },
    {
      "inputs": [],
      "name": "moduleType",
      "outputs": [
        {
          "internalType": "bytes8",
          "name": "",
          "type": "bytes8"
        }
      ],
      "stateMutability": "view",
      "type": "function",
      "constant": true
    },
    {
      "inputs": [],
      "name": "owner",
      "outputs": [
        {
          "internalType": "address",
          "name": "",
          "type": "address"
        }
      ],
      "stateMutability": "view",
      "type": "function",
      "constant": true
    },
    {
      "inputs": [],
      "name": "renounceOwnership",
      "outputs": [],
      "stateMutability": "nonpayable",
      "type": "function"
    },
    {
      "inputs": [
        {
          "internalType": "address",
          "name": "newOwner",
          "type": "address"
        }
      ],
      "name": "transferOwnership",
      "outputs": [],
      "stateMutability": "nonpayable",
      "type": "function"
    },
    {
      "inputs": [],
      "name": "visibility",
      "outputs": [
        {
          "internalType": "enum Data.visibilityEnum",
          "name": "",
          "type": "uint8"
        }
      ],
      "stateMutability": "view",
      "type": "function",
      "constant": true
    },
    {
      "inputs": [
        {
          "internalType": "address",
          "name": "_contractDao",
          "type": "address"
        },
        {
          "internalType": "address",
          "name": "_member",
          "type": "address"
        }
      ],
      "name": "getMemberInfo",
      "outputs": [
        {
          "components": [
            {
              "internalType": "enum Data.memberStatus",
              "name": "status",
              "type": "uint8"
            },
            {
              "internalType": "uint256",
              "name": "joinTime",
              "type": "uint256"
            }
          ],
          "internalType": "struct Data.member",
          "name": "",
          "type": "tuple"
        }
      ],
      "stateMutability": "view",
      "type": "function",
      "constant": true
    },
    {
      "inputs": [
        {
          "internalType": "address",
          "name": "_contractDao",
          "type": "address"
        },
        {
          "internalType": "uint256",
          "name": "id",
          "type": "uint256"
        }
      ],
      "name": "getAddrById",
      "outputs": [
        {
          "internalType": "address",
          "name": "",
          "type": "address"
        }
      ],
      "stateMutability": "view",
      "type": "function",
      "constant": true
    },
    {
      "inputs": [
        {
          "internalType": "address",
          "name": "_contractDao",
          "type": "address"
        }
      ],
      "name": "getMembersCount",
      "outputs": [
        {
          "internalType": "uint256",
          "name": "",
          "type": "uint256"
        }
      ],
      "stateMutability": "view",
      "type": "function",
      "constant": true
    },
    {
      "inputs": [
        {
          "internalType": "address",
          "name": "_contractDao",
          "type": "address"
        },
        {
          "internalType": "address",
          "name": "addressMember",
          "type": "address"
        }
      ],
      "name": "addMember",
      "outputs": [],
      "stateMutability": "nonpayable",
      "type": "function"
    },
    {
      "inputs": [
        {
          "internalType": "address",
          "name": "_contractDao",
          "type": "address"
        },
        {
          "internalType": "address",
          "name": "addressMember",
          "type": "address"
        }
      ],
      "name": "isActiveMember",
      "outputs": [
        {
          "internalType": "bool",
          "name": "",
          "type": "bool"
        }
      ],
      "stateMutability": "view",
      "type": "function",
      "constant": true
    },
    {
      "inputs": [
        {
          "internalType": "address",
          "name": "_contractDao",
          "type": "address"
        }
      ],
      "name": "join",
      "outputs": [],
      "stateMutability": "nonpayable",
      "type": "function"
    },
    {
      "inputs": [
        {
          "internalType": "address",
          "name": "_contractDao",
          "type": "address"
        },
        {
          "internalType": "address",
          "name": "_memberDao",
          "type": "address"
        }
      ],
      "name": "addDao",
      "outputs": [],
      "stateMutability": "nonpayable",
      "type": "function"
    },
    {
      "inputs": [
        {
          "internalType": "address",
          "name": "_contractDao",
          "type": "address"
        },
        {
          "internalType": "address",
          "name": "_contractAddress",
          "type": "address"
        }
      ],
      "name": "authorizeContract",
      "outputs": [],
      "stateMutability": "nonpayable",
      "type": "function"
    },
    {
      "inputs": [
        {
          "internalType": "address",
          "name": "_contractDao",
          "type": "address"
        },
        {
          "internalType": "address",
          "name": "_contractAddress",
          "type": "address"
        }
      ],
      "name": "denyContract",
      "outputs": [],
      "stateMutability": "nonpayable",
      "type": "function"
    }
  ],
  "bytecode": "0x6080604052604051602001620000159062000279565b60405160208183030381529060405280519060200120600060146101000a81548167ffffffffffffffff02191690837801000000000000000000000000000000000000000000000000900402179055506040516020016200007690620002eb565b60405160208183030381529060405280519060200120600160006101000a81548167ffffffffffffffff0219169083780100000000000000000000000000000000000000000000000090040217905550348015620000d357600080fd5b5060405162002005380380620020058339818101604052810190620000f9919062000377565b6200012b620001166200014c640100000000026401000000009004565b62000154640100000000026401000000009004565b620001458162000154640100000000026401000000009004565b50620003a9565b600033905090565b60008060009054906101000a900473ffffffffffffffffffffffffffffffffffffffff169050816000806101000a81548173ffffffffffffffffffffffffffffffffffffffff021916908373ffffffffffffffffffffffffffffffffffffffff1602179055508173ffffffffffffffffffffffffffffffffffffffff168173ffffffffffffffffffffffffffffffffffffffff167f8be0079c531659141344cd1fd0a4f28419497f9722a3daafe3b4186f6b6457e060405160405180910390a35050565b600082825260208201905092915050565b7f4f70656e4d656d626572736869704d6f64756c65000000000000000000000000600082015250565b60006200026160148362000218565b91506200026e8262000229565b602082019050919050565b60006020820190508181036000830152620002948162000252565b9050919050565b7f4d656d6265724d6f64756c650000000000000000000000000000000000000000600082015250565b6000620002d3600c8362000218565b9150620002e0826200029b565b602082019050919050565b600060208201905081810360008301526200030681620002c4565b9050919050565b600080fd5b600073ffffffffffffffffffffffffffffffffffffffff82169050919050565b60006200033f8262000312565b9050919050565b620003518162000332565b81146200035d57600080fd5b50565b600081519050620003718162000346565b92915050565b60006020828403121562000390576200038f6200030d565b5b6000620003a08482850162000360565b91505092915050565b611c4c80620003b96000396000f3fe608060405234801561001057600080fd5b506004361061011d576000357c0100000000000000000000000000000000000000000000000000000000900480638da5cb5b116100b4578063c25f3cf611610083578063c25f3cf6146102b6578063f0744c16146102e8578063f2fde38b14610306578063fe0ac3e7146103225761011d565b80638da5cb5b1461021c5780638ecf77201461023a578063945da9a11461026a5780639d58b15d1461029a5761011d565b80634568f199116100f05780634568f199146101a85780636465e69f146101c4578063715018a6146101e2578063760b9c34146101ec5761011d565b806312ee7e411461012257806328ffe6c81461013e57806329adec141461015a57806336048d5f14610178575b600080fd5b61013c600480360381019061013791906115f5565b61033e565b005b61015860048036038101906101539190611635565b6105c7565b005b61016261089a565b60405161016f91906116d9565b60405180910390f35b610192600480360381019061018d91906115f5565b6108ad565b60405161019f9190611784565b60405180910390f35b6101c260048036038101906101bd91906115f5565b61098c565b005b6101cc610b34565b6040516101d991906117da565b60405180910390f35b6101ea610b5f565b005b61020660048036038101906102019190611635565b610be7565b6040516102139190611804565b60405180910390f35b610224610c33565b604051610231919061182e565b60405180910390f35b610254600480360381019061024f91906115f5565b610c5c565b6040516102619190611864565b60405180910390f35b610284600480360381019061027f91906118ab565b610d1c565b604051610291919061182e565b60405180910390f35b6102b460048036038101906102af91906115f5565b610d9a565b005b6102d060048036038101906102cb9190611635565b611178565b6040516102df939291906118eb565b60405180910390f35b6102f06111cf565b6040516102fd91906117da565b60405180910390f35b610320600480360381019061031b9190611635565b6111fa565b005b61033c600480360381019061033791906115f5565b6112f2565b005b8160011515600460008373ffffffffffffffffffffffffffffffffffffffff1673ffffffffffffffffffffffffffffffffffffffff16815260200190815260200160002060003373ffffffffffffffffffffffffffffffffffffffff1673ffffffffffffffffffffffffffffffffffffffff16815260200190815260200160002060009054906101000a900460ff161515148061040d57506103de610c33565b73ffffffffffffffffffffffffffffffffffffffff163373ffffffffffffffffffffffffffffffffffffffff16145b61044c576040517f08c379a00000000000000000000000000000000000000000000000000000000081526004016104439061197f565b60405180910390fd5b600260008473ffffffffffffffffffffffffffffffffffffffff1673ffffffffffffffffffffffffffffffffffffffff16815260200190815260200160002060040160009054906101000a900460ff16156104dc576040517f08c379a00000000000000000000000000000000000000000000000000000000081526004016104d3906119eb565b60405180910390fd5b6001600260008573ffffffffffffffffffffffffffffffffffffffff1673ffffffffffffffffffffffffffffffffffffffff16815260200190815260200160002060040160006101000a81548160ff02191690831515021790555082600260008573ffffffffffffffffffffffffffffffffffffffff1673ffffffffffffffffffffffffffffffffffffffff16815260200190815260200160002060000160006101000a81548173ffffffffffffffffffffffffffffffffffffffff021916908373ffffffffffffffffffffffffffffffffffffffff1602179055506105c28383610d9a565b505050565b806003808111156105db576105da611662565b5b600260008373ffffffffffffffffffffffffffffffffffffffff1673ffffffffffffffffffffffffffffffffffffffff16815260200190815260200160002060030160003373ffffffffffffffffffffffffffffffffffffffff1673ffffffffffffffffffffffffffffffffffffffff16815260200190815260200160002060000160009054906101000a900460ff16600381111561067d5761067c611662565b5b14156106be576040517f08c379a00000000000000000000000000000000000000000000000000000000081526004016106b59061197f565b60405180910390fd5b600060038111156106d2576106d1611662565b5b600260008473ffffffffffffffffffffffffffffffffffffffff1673ffffffffffffffffffffffffffffffffffffffff16815260200190815260200160002060030160003373ffffffffffffffffffffffffffffffffffffffff1673ffffffffffffffffffffffffffffffffffffffff16815260200190815260200160002060000160009054906101000a900460ff16600381111561077457610773611662565b5b146107b4576040517f08c379a00000000000000000000000000000000000000000000000000000000081526004016107ab90611a57565b60405180910390fd5b6003600260008473ffffffffffffffffffffffffffffffffffffffff1673ffffffffffffffffffffffffffffffffffffffff16815260200190815260200160002060030160003373ffffffffffffffffffffffffffffffffffffffff1673ffffffffffffffffffffffffffffffffffffffff16815260200190815260200160002060000160006101000a81548160ff0219169083600381111561085a57610859611662565b5b02179055507f0abf3b3f643594d958297062a019458e27d7766629590ac621aa1000fa1298ab3360405161088e919061182e565b60405180910390a15050565b600360009054906101000a900460ff1681565b6108b5611566565b600260008473ffffffffffffffffffffffffffffffffffffffff1673ffffffffffffffffffffffffffffffffffffffff16815260200190815260200160002060030160008373ffffffffffffffffffffffffffffffffffffffff1673ffffffffffffffffffffffffffffffffffffffff1681526020019081526020016000206040518060400160405290816000820160009054906101000a900460ff16600381111561096457610963611662565b5b600381111561097657610975611662565b5b8152602001600182015481525050905092915050565b8160011515600460008373ffffffffffffffffffffffffffffffffffffffff1673ffffffffffffffffffffffffffffffffffffffff16815260200190815260200160002060003373ffffffffffffffffffffffffffffffffffffffff1673ffffffffffffffffffffffffffffffffffffffff16815260200190815260200160002060009054906101000a900460ff1615151480610a5b5750610a2c610c33565b73ffffffffffffffffffffffffffffffffffffffff163373ffffffffffffffffffffffffffffffffffffffff16145b610a9a576040517f08c379a0000000000000000000000000000000000000000000000000000000008152600401610a919061197f565b60405180910390fd5b6001600460008573ffffffffffffffffffffffffffffffffffffffff1673ffffffffffffffffffffffffffffffffffffffff16815260200190815260200160002060008473ffffffffffffffffffffffffffffffffffffffff1673ffffffffffffffffffffffffffffffffffffffff16815260200190815260200160002060006101000a81548160ff021916908315150217905550505050565b600160009054906101000a900478010000000000000000000000000000000000000000000000000281565b610b6761149a565b73ffffffffffffffffffffffffffffffffffffffff16610b85610c33565b73ffffffffffffffffffffffffffffffffffffffff1614610bdb576040517f08c379a0000000000000000000000000000000000000000000000000000000008152600401610bd290611ac3565b60405180910390fd5b610be560006114a2565b565b6000600260008373ffffffffffffffffffffffffffffffffffffffff1673ffffffffffffffffffffffffffffffffffffffff168152602001908152602001600020600101549050919050565b60008060009054906101000a900473ffffffffffffffffffffffffffffffffffffffff16905090565b6000600380811115610c7157610c70611662565b5b600260008573ffffffffffffffffffffffffffffffffffffffff1673ffffffffffffffffffffffffffffffffffffffff16815260200190815260200160002060030160008473ffffffffffffffffffffffffffffffffffffffff1673ffffffffffffffffffffffffffffffffffffffff16815260200190815260200160002060000160009054906101000a900460ff166003811115610d1357610d12611662565b5b14905092915050565b6000600260008473ffffffffffffffffffffffffffffffffffffffff1673ffffffffffffffffffffffffffffffffffffffff168152602001908152602001600020600201600083815260200190815260200160002060009054906101000a900473ffffffffffffffffffffffffffffffffffffffff16905092915050565b81600380811115610dae57610dad611662565b5b600260008373ffffffffffffffffffffffffffffffffffffffff1673ffffffffffffffffffffffffffffffffffffffff16815260200190815260200160002060030160003373ffffffffffffffffffffffffffffffffffffffff1673ffffffffffffffffffffffffffffffffffffffff16815260200190815260200160002060000160009054906101000a900460ff166003811115610e5057610e4f611662565b5b1480610ee9575060011515600460008373ffffffffffffffffffffffffffffffffffffffff1673ffffffffffffffffffffffffffffffffffffffff16815260200190815260200160002060003373ffffffffffffffffffffffffffffffffffffffff1673ffffffffffffffffffffffffffffffffffffffff16815260200190815260200160002060009054906101000a900460ff161515145b80610f265750610ef7610c33565b73ffffffffffffffffffffffffffffffffffffffff163373ffffffffffffffffffffffffffffffffffffffff16145b610f65576040517f08c379a0000000000000000000000000000000000000000000000000000000008152600401610f5c9061197f565b60405180910390fd5b6003600260008573ffffffffffffffffffffffffffffffffffffffff1673ffffffffffffffffffffffffffffffffffffffff16815260200190815260200160002060030160008473ffffffffffffffffffffffffffffffffffffffff1673ffffffffffffffffffffffffffffffffffffffff16815260200190815260200160002060000160006101000a81548160ff0219169083600381111561100b5761100a611662565b5b021790555081600260008573ffffffffffffffffffffffffffffffffffffffff1673ffffffffffffffffffffffffffffffffffffffff1681526020019081526020016000206002016000600260008773ffffffffffffffffffffffffffffffffffffffff1673ffffffffffffffffffffffffffffffffffffffff16815260200190815260200160002060010154815260200190815260200160002060006101000a81548173ffffffffffffffffffffffffffffffffffffffff021916908373ffffffffffffffffffffffffffffffffffffffff160217905550600260008473ffffffffffffffffffffffffffffffffffffffff1673ffffffffffffffffffffffffffffffffffffffff1681526020019081526020016000206001016000815461113390611b12565b919050819055507f6a2af11b2d73f347f9d5840aea46899e17609730b5cd91bd9c312098038acba6823360405161116b929190611b5b565b60405180910390a1505050565b60026020528060005260406000206000915090508060000160009054906101000a900473ffffffffffffffffffffffffffffffffffffffff16908060010154908060040160009054906101000a900460ff16905083565b600060149054906101000a900478010000000000000000000000000000000000000000000000000281565b61120261149a565b73ffffffffffffffffffffffffffffffffffffffff16611220610c33565b73ffffffffffffffffffffffffffffffffffffffff1614611276576040517f08c379a000000000000000000000000000000000000000000000000000000000815260040161126d90611ac3565b60405180910390fd5b600073ffffffffffffffffffffffffffffffffffffffff168173ffffffffffffffffffffffffffffffffffffffff1614156112e6576040517f08c379a00000000000000000000000000000000000000000000000000000000081526004016112dd90611bf6565b60405180910390fd5b6112ef816114a2565b50565b8160011515600460008373ffffffffffffffffffffffffffffffffffffffff1673ffffffffffffffffffffffffffffffffffffffff16815260200190815260200160002060003373ffffffffffffffffffffffffffffffffffffffff1673ffffffffffffffffffffffffffffffffffffffff16815260200190815260200160002060009054906101000a900460ff16151514806113c15750611392610c33565b73ffffffffffffffffffffffffffffffffffffffff163373ffffffffffffffffffffffffffffffffffffffff16145b611400576040517f08c379a00000000000000000000000000000000000000000000000000000000081526004016113f79061197f565b60405180910390fd5b6000600460008573ffffffffffffffffffffffffffffffffffffffff1673ffffffffffffffffffffffffffffffffffffffff16815260200190815260200160002060008473ffffffffffffffffffffffffffffffffffffffff1673ffffffffffffffffffffffffffffffffffffffff16815260200190815260200160002060006101000a81548160ff021916908315150217905550505050565b600033905090565b60008060009054906101000a900473ffffffffffffffffffffffffffffffffffffffff169050816000806101000a81548173ffffffffffffffffffffffffffffffffffffffff021916908373ffffffffffffffffffffffffffffffffffffffff1602179055508173ffffffffffffffffffffffffffffffffffffffff168173ffffffffffffffffffffffffffffffffffffffff167f8be0079c531659141344cd1fd0a4f28419497f9722a3daafe3b4186f6b6457e060405160405180910390a35050565b60405180604001604052806000600381111561158557611584611662565b5b8152602001600081525090565b600080fd5b600073ffffffffffffffffffffffffffffffffffffffff82169050919050565b60006115c282611597565b9050919050565b6115d2816115b7565b81146115dd57600080fd5b50565b6000813590506115ef816115c9565b92915050565b6000806040838503121561160c5761160b611592565b5b600061161a858286016115e0565b925050602061162b858286016115e0565b9150509250929050565b60006020828403121561164b5761164a611592565b5b6000611659848285016115e0565b91505092915050565b7f4e487b7100000000000000000000000000000000000000000000000000000000600052602160045260246000fd5b600281106116a2576116a1611662565b5b50565b60008190506116b382611691565b919050565b60006116c3826116a5565b9050919050565b6116d3816116b8565b82525050565b60006020820190506116ee60008301846116ca565b92915050565b6004811061170557611704611662565b5b50565b6000819050611716826116f4565b919050565b600061172682611708565b9050919050565b6117368161171b565b82525050565b6000819050919050565b61174f8161173c565b82525050565b60408201600082015161176b600085018261172d565b50602082015161177e6020850182611746565b50505050565b60006040820190506117996000830184611755565b92915050565b60007fffffffffffffffff00000000000000000000000000000000000000000000000082169050919050565b6117d48161179f565b82525050565b60006020820190506117ef60008301846117cb565b92915050565b6117fe8161173c565b82525050565b600060208201905061181960008301846117f5565b92915050565b611828816115b7565b82525050565b6000602082019050611843600083018461181f565b92915050565b60008115159050919050565b61185e81611849565b82525050565b60006020820190506118796000830184611855565b92915050565b6118888161173c565b811461189357600080fd5b50565b6000813590506118a58161187f565b92915050565b600080604083850312156118c2576118c1611592565b5b60006118d0858286016115e0565b92505060206118e185828601611896565b9150509250929050565b6000606082019050611900600083018661181f565b61190d60208301856117f5565b61191a6040830184611855565b949350505050565b600082825260208201905092915050565b7f4e6f7420617574686f72697a6564000000000000000000000000000000000000600082015250565b6000611969600e83611922565b915061197482611933565b602082019050919050565b600060208201905081810360008301526119988161195c565b9050919050565b7f44616f20616c7265616479206164646564000000000000000000000000000000600082015250565b60006119d5601183611922565b91506119e08261199f565b602082019050919050565b60006020820190508181036000830152611a04816119c8565b9050919050565b7f496d706f737369626c6520746f206a6f696e0000000000000000000000000000600082015250565b6000611a41601283611922565b9150611a4c82611a0b565b602082019050919050565b60006020820190508181036000830152611a7081611a34565b9050919050565b7f4f776e61626c653a2063616c6c6572206973206e6f7420746865206f776e6572600082015250565b6000611aad602083611922565b9150611ab882611a77565b602082019050919050565b60006020820190508181036000830152611adc81611aa0565b9050919050565b7f4e487b7100000000000000000000000000000000000000000000000000000000600052601160045260246000fd5b6000611b1d8261173c565b91507fffffffffffffffffffffffffffffffffffffffffffffffffffffffffffffffff821415611b5057611b4f611ae3565b5b600182019050919050565b6000604082019050611b70600083018561181f565b611b7d602083018461181f565b9392505050565b7f4f776e61626c653a206e6577206f776e657220697320746865207a65726f206160008201527f6464726573730000000000000000000000000000000000000000000000000000602082015250565b6000611be0602683611922565b9150611beb82611b84565b604082019050919050565b60006020820190508181036000830152611c0f81611bd3565b905091905056fea2646970667358221220edb6cc95131e247609f32908739801782b18837c29e462d50a1b3f7ec49d957264736f6c63430008090033",
  "immutableReferences": {},
  "source": "// SPDX-License-Identifier: MIT\r\npragma solidity ^0.8.9;\r\n\r\nimport \"@openzeppelin/contracts/utils/math/SafeMath.sol\";\r\nimport \"@openzeppelin/contracts/access/Ownable.sol\";\r\nimport \"../../Data.sol\";\r\nimport \"../../DaoBase.sol\";\r\n\r\n//is DaosFactory\r\ncontract OpenMembershipModule is Ownable {\r\n  using SafeMath for uint256;\r\n  bytes8 public moduleCode = bytes8(keccak256(abi.encode(\"OpenMembershipModule\")));\r\n  bytes8 public moduleType = bytes8(keccak256(abi.encode(\"MemberModule\")));\r\n  mapping(address => Data.DaoMember) public daos;\r\n  Data.visibilityEnum public visibility;\r\n  mapping(address => mapping(address => bool)) private authorizedContracts;\r\n\r\n  event MemberAdded(address newMember, address adderAddress);\r\n  event MemberAccepted(address newMember, address acceptorAddress);\r\n  event MemberInvited(address memberInvited, address memberInvitor);\r\n  event MemberJoined(address memberJoined);\r\n  event MemberAskedJoin(address memberRequestor);\r\n\r\n  constructor(address _contractFactory) {\r\n    _transferOwnership(_contractFactory);\r\n  }\r\n\r\n    modifier onlyActiveMembersOrAuthorizeContracts(address _contractDao) {\r\n        require(daos[_contractDao].members[msg.sender].status == Data.memberStatus.active \r\n        || authorizedContracts[_contractDao][msg.sender] == true\r\n        || msg.sender == owner(), \"Not authorized\");\r\n        _;\r\n    }\r\n    \r\n    modifier onlyNotActiveMembers(address _contractDao) {\r\n        require(daos[_contractDao].members[msg.sender].status != Data.memberStatus.active, \"Not authorized\");\r\n        _;\r\n    }\r\n\r\n    modifier onlyAuthorizeContracts(address _contractDao) {\r\n        require(authorizedContracts[_contractDao][msg.sender] == true, \"Not authorized\");\r\n        _;\r\n    }\r\n\r\n    modifier onlyAuthorizeContractsOrOwner(address _contractDao) {\r\n        require(authorizedContracts[_contractDao][msg.sender] == true || msg.sender == owner(), \"Not authorized\");\r\n        _;\r\n    }\r\n\r\n    function getMemberInfo(address _contractDao, address _member) external view returns(Data.member memory) {\r\n        return(daos[_contractDao].members[_member]);\r\n    }\r\n\r\n    function getAddrById(address _contractDao, uint256 id) external view returns(address) {\r\n        return daos[_contractDao].memberAddresses[id];\r\n    }\r\n\r\n    function getMembersCount(address _contractDao) external view returns(uint256) {\r\n        return daos[_contractDao].membersCount;\r\n    }\r\n\r\n    function addMember(address _contractDao, address addressMember) public onlyActiveMembersOrAuthorizeContracts(_contractDao) {\r\n        daos[_contractDao].members[addressMember].status = Data.memberStatus.active;\r\n        daos[_contractDao].memberAddresses[daos[_contractDao].membersCount] = addressMember;\r\n        ++daos[_contractDao].membersCount;\r\n        emit MemberAdded(addressMember, msg.sender);\r\n    }\r\n\r\n    function isActiveMember(address _contractDao, address addressMember) public view returns (bool){\r\n        return daos[_contractDao].members[addressMember].status == Data.memberStatus.active;\r\n    }\r\n\r\n    function join(address _contractDao) public onlyNotActiveMembers(_contractDao) {\r\n        require(daos[_contractDao].members[msg.sender].status == Data.memberStatus.notMember\r\n                , \"Impossible to join\");\r\n        daos[_contractDao].members[msg.sender].status = Data.memberStatus.active;\r\n        emit MemberJoined(msg.sender);\r\n    }\r\n\r\n    function addDao(address _contractDao, address _memberDao) external onlyAuthorizeContractsOrOwner(_contractDao) {\r\n        require(!daos[_contractDao].isActive, \"Dao already added\");\r\n        daos[_contractDao].isActive = true;\r\n        daos[_contractDao].addressDao = _contractDao;\r\n        addMember(_contractDao, _memberDao);\r\n    }\r\n\r\n    function authorizeContract(address _contractDao, address _contractAddress) external onlyAuthorizeContractsOrOwner(_contractDao) {\r\n        authorizedContracts[_contractDao][_contractAddress] = true;\r\n    }\r\n\r\n    function denyContract(address _contractDao, address _contractAddress) external onlyAuthorizeContractsOrOwner(_contractDao) {\r\n        authorizedContracts[_contractDao][_contractAddress] = false;\r\n    }\r\n}",
  "sourcePath": "C:\\Users\\mdmou\\source\\repos\\MY-DAO\\contracts\\Modules\\Implementations\\OpenMembershipModule.sol",
  "compiler": {
    "name": "solc",
    "version": "0.8.9+commit.e5eed63a.Emscripten.clang"
  },
  "schemaVersion": "3.4.4",
  "updatedAt": "2022-05-17T15:55:15.894Z",
  "networkType": "ethereum",
  "devdoc": {
    "kind": "dev",
    "methods": {
      "owner()": {
        "details": "Returns the address of the current owner."
      },
      "renounceOwnership()": {
        "details": "Leaves the contract without owner. It will not be possible to call `onlyOwner` functions anymore. Can only be called by the current owner. NOTE: Renouncing ownership will leave the contract without an owner, thereby removing any functionality that is only available to the owner."
      },
      "transferOwnership(address)": {
        "details": "Transfers ownership of the contract to a new account (`newOwner`). Can only be called by the current owner."
      }
    },
    "version": 1
  },
  "userdoc": {
    "kind": "user",
    "methods": {},
    "version": 1
  }
}