{
  "contractName": "OpenMembershipModule",
  "abi": [
    {
      "inputs": [
        {
          "internalType": "address",
          "name": "_contractFactory",
          "type": "address"
        }
      ],
      "stateMutability": "nonpayable",
      "type": "constructor"
    },
    {
      "anonymous": false,
      "inputs": [
        {
          "indexed": false,
          "internalType": "address",
          "name": "newMember",
          "type": "address"
        },
        {
          "indexed": false,
          "internalType": "address",
          "name": "acceptorAddress",
          "type": "address"
        }
      ],
      "name": "MemberAccepted",
      "type": "event"
    },
    {
      "anonymous": false,
      "inputs": [
        {
          "indexed": false,
          "internalType": "address",
          "name": "newMember",
          "type": "address"
        },
        {
          "indexed": false,
          "internalType": "address",
          "name": "adderAddress",
          "type": "address"
        }
      ],
      "name": "MemberAdded",
      "type": "event"
    },
    {
      "anonymous": false,
      "inputs": [
        {
          "indexed": false,
          "internalType": "address",
          "name": "memberRequestor",
          "type": "address"
        }
      ],
      "name": "MemberAskedJoin",
      "type": "event"
    },
    {
      "anonymous": false,
      "inputs": [
        {
          "indexed": false,
          "internalType": "address",
          "name": "memberInvited",
          "type": "address"
        },
        {
          "indexed": false,
          "internalType": "address",
          "name": "memberInvitor",
          "type": "address"
        }
      ],
      "name": "MemberInvited",
      "type": "event"
    },
    {
      "anonymous": false,
      "inputs": [
        {
          "indexed": false,
          "internalType": "address",
          "name": "memberJoined",
          "type": "address"
        }
      ],
      "name": "MemberJoined",
      "type": "event"
    },
    {
      "anonymous": false,
      "inputs": [
        {
          "indexed": true,
          "internalType": "address",
          "name": "previousOwner",
          "type": "address"
        },
        {
          "indexed": true,
          "internalType": "address",
          "name": "newOwner",
          "type": "address"
        }
      ],
      "name": "OwnershipTransferred",
      "type": "event"
    },
    {
      "inputs": [
        {
          "internalType": "address",
          "name": "",
          "type": "address"
        },
        {
          "internalType": "address",
          "name": "",
          "type": "address"
        }
      ],
      "name": "authorizedContracts",
      "outputs": [
        {
          "internalType": "bool",
          "name": "",
          "type": "bool"
        }
      ],
      "stateMutability": "view",
      "type": "function",
      "constant": true
    },
    {
      "inputs": [
        {
          "internalType": "address",
          "name": "",
          "type": "address"
        }
      ],
      "name": "daos",
      "outputs": [
        {
          "internalType": "address",
          "name": "addressDao",
          "type": "address"
        },
        {
          "internalType": "uint256",
          "name": "membersCount",
          "type": "uint256"
        },
        {
          "internalType": "bool",
          "name": "isActive",
          "type": "bool"
        }
      ],
      "stateMutability": "view",
      "type": "function",
      "constant": true
    },
    {
      "inputs": [],
      "name": "moduleCode",
      "outputs": [
        {
          "internalType": "bytes8",
          "name": "",
          "type": "bytes8"
        }
      ],
      "stateMutability": "view",
      "type": "function",
      "constant": true
    },
    {
      "inputs": [],
      "name": "moduleType",
      "outputs": [
        {
          "internalType": "bytes8",
          "name": "",
          "type": "bytes8"
        }
      ],
      "stateMutability": "view",
      "type": "function",
      "constant": true
    },
    {
      "inputs": [],
      "name": "owner",
      "outputs": [
        {
          "internalType": "address",
          "name": "",
          "type": "address"
        }
      ],
      "stateMutability": "view",
      "type": "function",
      "constant": true
    },
    {
      "inputs": [],
      "name": "renounceOwnership",
      "outputs": [],
      "stateMutability": "nonpayable",
      "type": "function"
    },
    {
      "inputs": [
        {
          "internalType": "address",
          "name": "newOwner",
          "type": "address"
        }
      ],
      "name": "transferOwnership",
      "outputs": [],
      "stateMutability": "nonpayable",
      "type": "function"
    },
    {
      "inputs": [],
      "name": "visibility",
      "outputs": [
        {
          "internalType": "enum Data.visibilityEnum",
          "name": "",
          "type": "uint8"
        }
      ],
      "stateMutability": "view",
      "type": "function",
      "constant": true
    },
    {
      "inputs": [
        {
          "internalType": "address",
          "name": "_contractDao",
          "type": "address"
        },
        {
          "internalType": "address",
          "name": "_member",
          "type": "address"
        }
      ],
      "name": "getMemberInfo",
      "outputs": [
        {
          "components": [
            {
              "internalType": "enum Data.memberStatus",
              "name": "status",
              "type": "uint8"
            },
            {
              "internalType": "uint256",
              "name": "joinTime",
              "type": "uint256"
            }
          ],
          "internalType": "struct Data.member",
          "name": "",
          "type": "tuple"
        }
      ],
      "stateMutability": "view",
      "type": "function",
      "constant": true
    },
    {
      "inputs": [
        {
          "internalType": "address",
          "name": "_contractDao",
          "type": "address"
        },
        {
          "internalType": "uint256",
          "name": "id",
          "type": "uint256"
        }
      ],
      "name": "getAddrById",
      "outputs": [
        {
          "internalType": "address",
          "name": "",
          "type": "address"
        }
      ],
      "stateMutability": "view",
      "type": "function",
      "constant": true
    },
    {
      "inputs": [
        {
          "internalType": "address",
          "name": "_contractDao",
          "type": "address"
        }
      ],
      "name": "getMembersCount",
      "outputs": [
        {
          "internalType": "uint256",
          "name": "",
          "type": "uint256"
        }
      ],
      "stateMutability": "view",
      "type": "function",
      "constant": true
    },
    {
      "inputs": [
        {
          "internalType": "address",
          "name": "_contractDao",
          "type": "address"
        },
        {
          "internalType": "address",
          "name": "addressMember",
          "type": "address"
        }
      ],
      "name": "addMember",
      "outputs": [],
      "stateMutability": "nonpayable",
      "type": "function"
    },
    {
      "inputs": [
        {
          "internalType": "address",
          "name": "_contractDao",
          "type": "address"
        },
        {
          "internalType": "address",
          "name": "addressMember",
          "type": "address"
        }
      ],
      "name": "isActiveMember",
      "outputs": [
        {
          "internalType": "bool",
          "name": "",
          "type": "bool"
        }
      ],
      "stateMutability": "view",
      "type": "function",
      "constant": true
    },
    {
      "inputs": [
        {
          "internalType": "address",
          "name": "_contractDao",
          "type": "address"
        }
      ],
      "name": "join",
      "outputs": [],
      "stateMutability": "nonpayable",
      "type": "function"
    },
    {
      "inputs": [
        {
          "internalType": "address",
          "name": "_contractDao",
          "type": "address"
        },
        {
          "internalType": "address",
          "name": "_memberDao",
          "type": "address"
        }
      ],
      "name": "addDao",
      "outputs": [],
      "stateMutability": "nonpayable",
      "type": "function"
    },
    {
      "inputs": [
        {
          "internalType": "address",
          "name": "_contractDao",
          "type": "address"
        },
        {
          "internalType": "address",
          "name": "_contractAddress",
          "type": "address"
        }
      ],
      "name": "authorizeContract",
      "outputs": [],
      "stateMutability": "nonpayable",
      "type": "function"
    },
    {
      "inputs": [
        {
          "internalType": "address",
          "name": "_contractDao",
          "type": "address"
        },
        {
          "internalType": "address",
          "name": "_contractAddress",
          "type": "address"
        }
      ],
      "name": "denyContract",
      "outputs": [],
      "stateMutability": "nonpayable",
      "type": "function"
    }
  ],
  "bytecode": "0x6080604052604051602001620000159062000279565b60405160208183030381529060405280519060200120600060146101000a81548167ffffffffffffffff02191690837801000000000000000000000000000000000000000000000000900402179055506040516020016200007690620002eb565b60405160208183030381529060405280519060200120600160006101000a81548167ffffffffffffffff0219169083780100000000000000000000000000000000000000000000000090040217905550348015620000d357600080fd5b50604051620022a7380380620022a78339818101604052810190620000f9919062000377565b6200012b620001166200014c640100000000026401000000009004565b62000154640100000000026401000000009004565b620001458162000154640100000000026401000000009004565b50620003a9565b600033905090565b60008060009054906101000a900473ffffffffffffffffffffffffffffffffffffffff169050816000806101000a81548173ffffffffffffffffffffffffffffffffffffffff021916908373ffffffffffffffffffffffffffffffffffffffff1602179055508173ffffffffffffffffffffffffffffffffffffffff168173ffffffffffffffffffffffffffffffffffffffff167f8be0079c531659141344cd1fd0a4f28419497f9722a3daafe3b4186f6b6457e060405160405180910390a35050565b600082825260208201905092915050565b7f4f70656e4d656d626572736869704d6f64756c65000000000000000000000000600082015250565b60006200026160148362000218565b91506200026e8262000229565b602082019050919050565b60006020820190508181036000830152620002948162000252565b9050919050565b7f4d656d6265724d6f64756c650000000000000000000000000000000000000000600082015250565b6000620002d3600c8362000218565b9150620002e0826200029b565b602082019050919050565b600060208201905081810360008301526200030681620002c4565b9050919050565b600080fd5b600073ffffffffffffffffffffffffffffffffffffffff82169050919050565b60006200033f8262000312565b9050919050565b620003518162000332565b81146200035d57600080fd5b50565b600081519050620003718162000346565b92915050565b60006020828403121562000390576200038f6200030d565b5b6000620003a08482850162000360565b91505092915050565b611eee80620003b96000396000f3fe608060405234801561001057600080fd5b5060043610610128576000357c0100000000000000000000000000000000000000000000000000000000900480637bf5351c116100bf5780639d58b15d1161008e5780639d58b15d146102d5578063c25f3cf6146102f1578063f0744c1614610323578063f2fde38b14610341578063fe0ac3e71461035d57610128565b80637bf5351c146102275780638da5cb5b146102575780638ecf772014610275578063945da9a1146102a557610128565b80634568f199116100fb5780634568f199146101b35780636465e69f146101cf578063715018a6146101ed578063760b9c34146101f757610128565b806312ee7e411461012d57806328ffe6c81461014957806329adec141461016557806336048d5f14610183575b600080fd5b61014760048036038101906101429190611897565b610379565b005b610163600480360381019061015e91906118d7565b610602565b005b61016d610a86565b60405161017a919061197b565b60405180910390f35b61019d60048036038101906101989190611897565b610a99565b6040516101aa9190611a26565b60405180910390f35b6101cd60048036038101906101c89190611897565b610b78565b005b6101d7610d20565b6040516101e49190611a7c565b60405180910390f35b6101f5610d4b565b005b610211600480360381019061020c91906118d7565b610dd3565b60405161021e9190611aa6565b60405180910390f35b610241600480360381019061023c9190611897565b610e1f565b60405161024e9190611adc565b60405180910390f35b61025f610e4e565b60405161026c9190611b06565b60405180910390f35b61028f600480360381019061028a9190611897565b610e77565b60405161029c9190611adc565b60405180910390f35b6102bf60048036038101906102ba9190611b4d565b610f37565b6040516102cc9190611b06565b60405180910390f35b6102ef60048036038101906102ea9190611897565b610fb5565b005b61030b600480360381019061030691906118d7565b61141a565b60405161031a93929190611b8d565b60405180910390f35b61032b611471565b6040516103389190611a7c565b60405180910390f35b61035b600480360381019061035691906118d7565b61149c565b005b61037760048036038101906103729190611897565b611594565b005b8160011515600460008373ffffffffffffffffffffffffffffffffffffffff1673ffffffffffffffffffffffffffffffffffffffff16815260200190815260200160002060003373ffffffffffffffffffffffffffffffffffffffff1673ffffffffffffffffffffffffffffffffffffffff16815260200190815260200160002060009054906101000a900460ff16151514806104485750610419610e4e565b73ffffffffffffffffffffffffffffffffffffffff163373ffffffffffffffffffffffffffffffffffffffff16145b610487576040517f08c379a000000000000000000000000000000000000000000000000000000000815260040161047e90611c21565b60405180910390fd5b600260008473ffffffffffffffffffffffffffffffffffffffff1673ffffffffffffffffffffffffffffffffffffffff16815260200190815260200160002060040160009054906101000a900460ff1615610517576040517f08c379a000000000000000000000000000000000000000000000000000000000815260040161050e90611c8d565b60405180910390fd5b6001600260008573ffffffffffffffffffffffffffffffffffffffff1673ffffffffffffffffffffffffffffffffffffffff16815260200190815260200160002060040160006101000a81548160ff02191690831515021790555082600260008573ffffffffffffffffffffffffffffffffffffffff1673ffffffffffffffffffffffffffffffffffffffff16815260200190815260200160002060000160006101000a81548173ffffffffffffffffffffffffffffffffffffffff021916908373ffffffffffffffffffffffffffffffffffffffff1602179055506105fd8383610fb5565b505050565b8060038081111561061657610615611904565b5b600260008373ffffffffffffffffffffffffffffffffffffffff1673ffffffffffffffffffffffffffffffffffffffff16815260200190815260200160002060030160003373ffffffffffffffffffffffffffffffffffffffff1673ffffffffffffffffffffffffffffffffffffffff16815260200190815260200160002060000160009054906101000a900460ff1660038111156106b8576106b7611904565b5b14156106f9576040517f08c379a00000000000000000000000000000000000000000000000000000000081526004016106f090611c21565b60405180910390fd5b6000600381111561070d5761070c611904565b5b600260008473ffffffffffffffffffffffffffffffffffffffff1673ffffffffffffffffffffffffffffffffffffffff16815260200190815260200160002060030160003373ffffffffffffffffffffffffffffffffffffffff1673ffffffffffffffffffffffffffffffffffffffff16815260200190815260200160002060000160009054906101000a900460ff1660038111156107af576107ae611904565b5b146107ef576040517f08c379a00000000000000000000000000000000000000000000000000000000081526004016107e690611cf9565b60405180910390fd5b6003600260008473ffffffffffffffffffffffffffffffffffffffff1673ffffffffffffffffffffffffffffffffffffffff16815260200190815260200160002060030160003373ffffffffffffffffffffffffffffffffffffffff1673ffffffffffffffffffffffffffffffffffffffff16815260200190815260200160002060000160006101000a81548160ff0219169083600381111561089557610894611904565b5b021790555033600260008473ffffffffffffffffffffffffffffffffffffffff1673ffffffffffffffffffffffffffffffffffffffff1681526020019081526020016000206002016000600260008673ffffffffffffffffffffffffffffffffffffffff1673ffffffffffffffffffffffffffffffffffffffff16815260200190815260200160002060010154815260200190815260200160002060006101000a81548173ffffffffffffffffffffffffffffffffffffffff021916908373ffffffffffffffffffffffffffffffffffffffff16021790555042600260008473ffffffffffffffffffffffffffffffffffffffff1673ffffffffffffffffffffffffffffffffffffffff16815260200190815260200160002060030160003373ffffffffffffffffffffffffffffffffffffffff1673ffffffffffffffffffffffffffffffffffffffff16815260200190815260200160002060010181905550600260008373ffffffffffffffffffffffffffffffffffffffff1673ffffffffffffffffffffffffffffffffffffffff16815260200190815260200160002060010160008154610a4490611d48565b919050819055507f0abf3b3f643594d958297062a019458e27d7766629590ac621aa1000fa1298ab33604051610a7a9190611b06565b60405180910390a15050565b600360009054906101000a900460ff1681565b610aa1611808565b600260008473ffffffffffffffffffffffffffffffffffffffff1673ffffffffffffffffffffffffffffffffffffffff16815260200190815260200160002060030160008373ffffffffffffffffffffffffffffffffffffffff1673ffffffffffffffffffffffffffffffffffffffff1681526020019081526020016000206040518060400160405290816000820160009054906101000a900460ff166003811115610b5057610b4f611904565b5b6003811115610b6257610b61611904565b5b8152602001600182015481525050905092915050565b8160011515600460008373ffffffffffffffffffffffffffffffffffffffff1673ffffffffffffffffffffffffffffffffffffffff16815260200190815260200160002060003373ffffffffffffffffffffffffffffffffffffffff1673ffffffffffffffffffffffffffffffffffffffff16815260200190815260200160002060009054906101000a900460ff1615151480610c475750610c18610e4e565b73ffffffffffffffffffffffffffffffffffffffff163373ffffffffffffffffffffffffffffffffffffffff16145b610c86576040517f08c379a0000000000000000000000000000000000000000000000000000000008152600401610c7d90611c21565b60405180910390fd5b6001600460008573ffffffffffffffffffffffffffffffffffffffff1673ffffffffffffffffffffffffffffffffffffffff16815260200190815260200160002060008473ffffffffffffffffffffffffffffffffffffffff1673ffffffffffffffffffffffffffffffffffffffff16815260200190815260200160002060006101000a81548160ff021916908315150217905550505050565b600160009054906101000a900478010000000000000000000000000000000000000000000000000281565b610d5361173c565b73ffffffffffffffffffffffffffffffffffffffff16610d71610e4e565b73ffffffffffffffffffffffffffffffffffffffff1614610dc7576040517f08c379a0000000000000000000000000000000000000000000000000000000008152600401610dbe90611ddd565b60405180910390fd5b610dd16000611744565b565b6000600260008373ffffffffffffffffffffffffffffffffffffffff1673ffffffffffffffffffffffffffffffffffffffff168152602001908152602001600020600101549050919050565b60046020528160005260406000206020528060005260406000206000915091509054906101000a900460ff1681565b60008060009054906101000a900473ffffffffffffffffffffffffffffffffffffffff16905090565b6000600380811115610e8c57610e8b611904565b5b600260008573ffffffffffffffffffffffffffffffffffffffff1673ffffffffffffffffffffffffffffffffffffffff16815260200190815260200160002060030160008473ffffffffffffffffffffffffffffffffffffffff1673ffffffffffffffffffffffffffffffffffffffff16815260200190815260200160002060000160009054906101000a900460ff166003811115610f2e57610f2d611904565b5b14905092915050565b6000600260008473ffffffffffffffffffffffffffffffffffffffff1673ffffffffffffffffffffffffffffffffffffffff168152602001908152602001600020600201600083815260200190815260200160002060009054906101000a900473ffffffffffffffffffffffffffffffffffffffff16905092915050565b81600380811115610fc957610fc8611904565b5b600260008373ffffffffffffffffffffffffffffffffffffffff1673ffffffffffffffffffffffffffffffffffffffff16815260200190815260200160002060030160003373ffffffffffffffffffffffffffffffffffffffff1673ffffffffffffffffffffffffffffffffffffffff16815260200190815260200160002060000160009054906101000a900460ff16600381111561106b5761106a611904565b5b1480611104575060011515600460008373ffffffffffffffffffffffffffffffffffffffff1673ffffffffffffffffffffffffffffffffffffffff16815260200190815260200160002060003373ffffffffffffffffffffffffffffffffffffffff1673ffffffffffffffffffffffffffffffffffffffff16815260200190815260200160002060009054906101000a900460ff161515145b806111415750611112610e4e565b73ffffffffffffffffffffffffffffffffffffffff163373ffffffffffffffffffffffffffffffffffffffff16145b611180576040517f08c379a000000000000000000000000000000000000000000000000000000000815260040161117790611c21565b60405180910390fd5b6003600260008573ffffffffffffffffffffffffffffffffffffffff1673ffffffffffffffffffffffffffffffffffffffff16815260200190815260200160002060030160008473ffffffffffffffffffffffffffffffffffffffff1673ffffffffffffffffffffffffffffffffffffffff16815260200190815260200160002060000160006101000a81548160ff0219169083600381111561122657611225611904565b5b021790555081600260008573ffffffffffffffffffffffffffffffffffffffff1673ffffffffffffffffffffffffffffffffffffffff1681526020019081526020016000206002016000600260008773ffffffffffffffffffffffffffffffffffffffff1673ffffffffffffffffffffffffffffffffffffffff16815260200190815260200160002060010154815260200190815260200160002060006101000a81548173ffffffffffffffffffffffffffffffffffffffff021916908373ffffffffffffffffffffffffffffffffffffffff16021790555042600260008573ffffffffffffffffffffffffffffffffffffffff1673ffffffffffffffffffffffffffffffffffffffff16815260200190815260200160002060030160008473ffffffffffffffffffffffffffffffffffffffff1673ffffffffffffffffffffffffffffffffffffffff16815260200190815260200160002060010181905550600260008473ffffffffffffffffffffffffffffffffffffffff1673ffffffffffffffffffffffffffffffffffffffff168152602001908152602001600020600101600081546113d590611d48565b919050819055507f6a2af11b2d73f347f9d5840aea46899e17609730b5cd91bd9c312098038acba6823360405161140d929190611dfd565b60405180910390a1505050565b60026020528060005260406000206000915090508060000160009054906101000a900473ffffffffffffffffffffffffffffffffffffffff16908060010154908060040160009054906101000a900460ff16905083565b600060149054906101000a900478010000000000000000000000000000000000000000000000000281565b6114a461173c565b73ffffffffffffffffffffffffffffffffffffffff166114c2610e4e565b73ffffffffffffffffffffffffffffffffffffffff1614611518576040517f08c379a000000000000000000000000000000000000000000000000000000000815260040161150f90611ddd565b60405180910390fd5b600073ffffffffffffffffffffffffffffffffffffffff168173ffffffffffffffffffffffffffffffffffffffff161415611588576040517f08c379a000000000000000000000000000000000000000000000000000000000815260040161157f90611e98565b60405180910390fd5b61159181611744565b50565b8160011515600460008373ffffffffffffffffffffffffffffffffffffffff1673ffffffffffffffffffffffffffffffffffffffff16815260200190815260200160002060003373ffffffffffffffffffffffffffffffffffffffff1673ffffffffffffffffffffffffffffffffffffffff16815260200190815260200160002060009054906101000a900460ff16151514806116635750611634610e4e565b73ffffffffffffffffffffffffffffffffffffffff163373ffffffffffffffffffffffffffffffffffffffff16145b6116a2576040517f08c379a000000000000000000000000000000000000000000000000000000000815260040161169990611c21565b60405180910390fd5b6000600460008573ffffffffffffffffffffffffffffffffffffffff1673ffffffffffffffffffffffffffffffffffffffff16815260200190815260200160002060008473ffffffffffffffffffffffffffffffffffffffff1673ffffffffffffffffffffffffffffffffffffffff16815260200190815260200160002060006101000a81548160ff021916908315150217905550505050565b600033905090565b60008060009054906101000a900473ffffffffffffffffffffffffffffffffffffffff169050816000806101000a81548173ffffffffffffffffffffffffffffffffffffffff021916908373ffffffffffffffffffffffffffffffffffffffff1602179055508173ffffffffffffffffffffffffffffffffffffffff168173ffffffffffffffffffffffffffffffffffffffff167f8be0079c531659141344cd1fd0a4f28419497f9722a3daafe3b4186f6b6457e060405160405180910390a35050565b60405180604001604052806000600381111561182757611826611904565b5b8152602001600081525090565b600080fd5b600073ffffffffffffffffffffffffffffffffffffffff82169050919050565b600061186482611839565b9050919050565b61187481611859565b811461187f57600080fd5b50565b6000813590506118918161186b565b92915050565b600080604083850312156118ae576118ad611834565b5b60006118bc85828601611882565b92505060206118cd85828601611882565b9150509250929050565b6000602082840312156118ed576118ec611834565b5b60006118fb84828501611882565b91505092915050565b7f4e487b7100000000000000000000000000000000000000000000000000000000600052602160045260246000fd5b6002811061194457611943611904565b5b50565b600081905061195582611933565b919050565b600061196582611947565b9050919050565b6119758161195a565b82525050565b6000602082019050611990600083018461196c565b92915050565b600481106119a7576119a6611904565b5b50565b60008190506119b882611996565b919050565b60006119c8826119aa565b9050919050565b6119d8816119bd565b82525050565b6000819050919050565b6119f1816119de565b82525050565b604082016000820151611a0d60008501826119cf565b506020820151611a2060208501826119e8565b50505050565b6000604082019050611a3b60008301846119f7565b92915050565b60007fffffffffffffffff00000000000000000000000000000000000000000000000082169050919050565b611a7681611a41565b82525050565b6000602082019050611a916000830184611a6d565b92915050565b611aa0816119de565b82525050565b6000602082019050611abb6000830184611a97565b92915050565b60008115159050919050565b611ad681611ac1565b82525050565b6000602082019050611af16000830184611acd565b92915050565b611b0081611859565b82525050565b6000602082019050611b1b6000830184611af7565b92915050565b611b2a816119de565b8114611b3557600080fd5b50565b600081359050611b4781611b21565b92915050565b60008060408385031215611b6457611b63611834565b5b6000611b7285828601611882565b9250506020611b8385828601611b38565b9150509250929050565b6000606082019050611ba26000830186611af7565b611baf6020830185611a97565b611bbc6040830184611acd565b949350505050565b600082825260208201905092915050565b7f4e6f7420617574686f72697a6564000000000000000000000000000000000000600082015250565b6000611c0b600e83611bc4565b9150611c1682611bd5565b602082019050919050565b60006020820190508181036000830152611c3a81611bfe565b9050919050565b7f44616f20616c7265616479206164646564000000000000000000000000000000600082015250565b6000611c77601183611bc4565b9150611c8282611c41565b602082019050919050565b60006020820190508181036000830152611ca681611c6a565b9050919050565b7f496d706f737369626c6520746f206a6f696e0000000000000000000000000000600082015250565b6000611ce3601283611bc4565b9150611cee82611cad565b602082019050919050565b60006020820190508181036000830152611d1281611cd6565b9050919050565b7f4e487b7100000000000000000000000000000000000000000000000000000000600052601160045260246000fd5b6000611d53826119de565b91507fffffffffffffffffffffffffffffffffffffffffffffffffffffffffffffffff821415611d8657611d85611d19565b5b600182019050919050565b7f4f776e61626c653a2063616c6c6572206973206e6f7420746865206f776e6572600082015250565b6000611dc7602083611bc4565b9150611dd282611d91565b602082019050919050565b60006020820190508181036000830152611df681611dba565b9050919050565b6000604082019050611e126000830185611af7565b611e1f6020830184611af7565b9392505050565b7f4f776e61626c653a206e6577206f776e657220697320746865207a65726f206160008201527f6464726573730000000000000000000000000000000000000000000000000000602082015250565b6000611e82602683611bc4565b9150611e8d82611e26565b604082019050919050565b60006020820190508181036000830152611eb181611e75565b905091905056fea264697066735822122097a399e369dd17cfe313f19e49dcac57829bb8a4adaeacd3fdcab27c92a9c7ac64736f6c63430008090033",
  "immutableReferences": {},
  "source": "// SPDX-License-Identifier: MIT\r\npragma solidity ^0.8.9;\r\n\r\nimport \"@openzeppelin/contracts/utils/math/SafeMath.sol\";\r\nimport \"@openzeppelin/contracts/access/Ownable.sol\";\r\nimport \"../../Data.sol\";\r\nimport \"../../DaoBase.sol\";\r\n\r\n//is DaosFactory\r\ncontract OpenMembershipModule is Ownable {\r\n    using SafeMath for uint256;\r\n    bytes8 public moduleCode = bytes8(keccak256(abi.encode(\"OpenMembershipModule\")));\r\n    bytes8 public moduleType = bytes8(keccak256(abi.encode(\"MemberModule\")));\r\n    mapping(address => Data.DaoMember) public daos;\r\n    Data.visibilityEnum public visibility;\r\n    mapping(address => mapping(address => bool)) public authorizedContracts;\r\n\r\n    event MemberAdded(address newMember, address adderAddress);\r\n    event MemberAccepted(address newMember, address acceptorAddress);\r\n    event MemberInvited(address memberInvited, address memberInvitor);\r\n    event MemberJoined(address memberJoined);\r\n    event MemberAskedJoin(address memberRequestor);\r\n\r\n    constructor(address _contractFactory) {\r\n        _transferOwnership(_contractFactory);\r\n    }\r\n\r\n    modifier onlyActiveMembersOrAuthorizeContracts(address _contractDao) {\r\n        require(daos[_contractDao].members[msg.sender].status == Data.memberStatus.active \r\n        || authorizedContracts[_contractDao][msg.sender] == true\r\n        || msg.sender == owner(), \"Not authorized\");\r\n        _;\r\n    }\r\n    \r\n    modifier onlyNotActiveMembers(address _contractDao) {\r\n        require(daos[_contractDao].members[msg.sender].status != Data.memberStatus.active, \"Not authorized\");\r\n        _;\r\n    }\r\n\r\n    modifier onlyAuthorizeContracts(address _contractDao) {\r\n        require(authorizedContracts[_contractDao][msg.sender] == true, \"Not authorized\");\r\n        _;\r\n    }\r\n\r\n    modifier onlyAuthorizeContractsOrOwner(address _contractDao) {\r\n        require(authorizedContracts[_contractDao][msg.sender] == true || msg.sender == owner(), \"Not authorized\");\r\n        _;\r\n    }\r\n\r\n    function getMemberInfo(address _contractDao, address _member) external view returns(Data.member memory) {\r\n        return(daos[_contractDao].members[_member]);\r\n    }\r\n\r\n    function getAddrById(address _contractDao, uint256 id) external view returns(address) {\r\n        return daos[_contractDao].memberAddresses[id];\r\n    }\r\n\r\n    function getMembersCount(address _contractDao) external view returns(uint256) {\r\n        return daos[_contractDao].membersCount;\r\n    }\r\n\r\n    // NOTE maybe add more Member Info\r\n    function addMember(address _contractDao, address addressMember) public onlyActiveMembersOrAuthorizeContracts(_contractDao) {\r\n        daos[_contractDao].members[addressMember].status = Data.memberStatus.active;\r\n        daos[_contractDao].memberAddresses[daos[_contractDao].membersCount] = addressMember;\r\n        daos[_contractDao].members[addressMember].joinTime = block.timestamp;\r\n        ++daos[_contractDao].membersCount;\r\n        emit MemberAdded(addressMember, msg.sender);\r\n    }\r\n\r\n    function isActiveMember(address _contractDao, address addressMember) public view returns (bool){\r\n        return daos[_contractDao].members[addressMember].status == Data.memberStatus.active;\r\n    }\r\n\r\n    function join(address _contractDao) public onlyNotActiveMembers(_contractDao) {\r\n        require(daos[_contractDao].members[msg.sender].status == Data.memberStatus.notMember\r\n                , \"Impossible to join\");\r\n        daos[_contractDao].members[msg.sender].status = Data.memberStatus.active;\r\n        daos[_contractDao].memberAddresses[daos[_contractDao].membersCount] = msg.sender;\r\n        daos[_contractDao].members[msg.sender].joinTime = block.timestamp;\r\n        ++daos[_contractDao].membersCount;\r\n        emit MemberJoined(msg.sender);\r\n    }\r\n\r\n    function addDao(address _contractDao, address _memberDao) external onlyAuthorizeContractsOrOwner(_contractDao) {\r\n        require(!daos[_contractDao].isActive, \"Dao already added\");\r\n        daos[_contractDao].isActive = true;\r\n        daos[_contractDao].addressDao = _contractDao;\r\n        addMember(_contractDao, _memberDao);\r\n    }\r\n\r\n    function authorizeContract(address _contractDao, address _contractAddress) external onlyAuthorizeContractsOrOwner(_contractDao) {\r\n        authorizedContracts[_contractDao][_contractAddress] = true;\r\n    }\r\n\r\n    function denyContract(address _contractDao, address _contractAddress) external onlyAuthorizeContractsOrOwner(_contractDao) {\r\n        authorizedContracts[_contractDao][_contractAddress] = false;\r\n    }\r\n}",
  "sourcePath": "C:\\Users\\mdmou\\source\\repos\\MY-DAO\\contracts\\Modules\\Implementations\\OpenMembershipModule.sol",
  "compiler": {
    "name": "solc",
    "version": "0.8.9+commit.e5eed63a.Emscripten.clang"
  },
  "schemaVersion": "3.4.4",
  "updatedAt": "2022-05-18T22:25:27.135Z",
  "networkType": "ethereum",
  "devdoc": {
    "kind": "dev",
    "methods": {
      "owner()": {
        "details": "Returns the address of the current owner."
      },
      "renounceOwnership()": {
        "details": "Leaves the contract without owner. It will not be possible to call `onlyOwner` functions anymore. Can only be called by the current owner. NOTE: Renouncing ownership will leave the contract without an owner, thereby removing any functionality that is only available to the owner."
      },
      "transferOwnership(address)": {
        "details": "Transfers ownership of the contract to a new account (`newOwner`). Can only be called by the current owner."
      }
    },
    "version": 1
  },
  "userdoc": {
    "kind": "user",
    "methods": {},
    "version": 1
  }
}