{
  "contractName": "RequestMembershipModule",
  "abi": [
    {
      "inputs": [
        {
          "internalType": "address",
          "name": "_contractFactory",
          "type": "address"
        }
      ],
      "stateMutability": "nonpayable",
      "type": "constructor"
    },
    {
      "anonymous": false,
      "inputs": [
        {
          "indexed": false,
          "internalType": "address",
          "name": "newMember",
          "type": "address"
        },
        {
          "indexed": false,
          "internalType": "address",
          "name": "acceptorAddress",
          "type": "address"
        }
      ],
      "name": "MemberAccepted",
      "type": "event"
    },
    {
      "anonymous": false,
      "inputs": [
        {
          "indexed": false,
          "internalType": "address",
          "name": "newMember",
          "type": "address"
        },
        {
          "indexed": false,
          "internalType": "address",
          "name": "adderAddress",
          "type": "address"
        }
      ],
      "name": "MemberAdded",
      "type": "event"
    },
    {
      "anonymous": false,
      "inputs": [
        {
          "indexed": false,
          "internalType": "address",
          "name": "memberRequestor",
          "type": "address"
        }
      ],
      "name": "MemberAskedJoin",
      "type": "event"
    },
    {
      "anonymous": false,
      "inputs": [
        {
          "indexed": false,
          "internalType": "address",
          "name": "memberInvited",
          "type": "address"
        },
        {
          "indexed": false,
          "internalType": "address",
          "name": "memberInvitor",
          "type": "address"
        }
      ],
      "name": "MemberInvited",
      "type": "event"
    },
    {
      "anonymous": false,
      "inputs": [
        {
          "indexed": false,
          "internalType": "address",
          "name": "memberJoined",
          "type": "address"
        }
      ],
      "name": "MemberJoined",
      "type": "event"
    },
    {
      "anonymous": false,
      "inputs": [
        {
          "indexed": true,
          "internalType": "address",
          "name": "previousOwner",
          "type": "address"
        },
        {
          "indexed": true,
          "internalType": "address",
          "name": "newOwner",
          "type": "address"
        }
      ],
      "name": "OwnershipTransferred",
      "type": "event"
    },
    {
      "inputs": [
        {
          "internalType": "address",
          "name": "",
          "type": "address"
        },
        {
          "internalType": "address",
          "name": "",
          "type": "address"
        }
      ],
      "name": "authorizedAddress",
      "outputs": [
        {
          "internalType": "bool",
          "name": "",
          "type": "bool"
        }
      ],
      "stateMutability": "view",
      "type": "function",
      "constant": true
    },
    {
      "inputs": [
        {
          "internalType": "address",
          "name": "",
          "type": "address"
        }
      ],
      "name": "daos",
      "outputs": [
        {
          "internalType": "address",
          "name": "addressDao",
          "type": "address"
        },
        {
          "internalType": "uint256",
          "name": "membersCount",
          "type": "uint256"
        },
        {
          "internalType": "bool",
          "name": "isActive",
          "type": "bool"
        }
      ],
      "stateMutability": "view",
      "type": "function",
      "constant": true
    },
    {
      "inputs": [],
      "name": "moduleCode",
      "outputs": [
        {
          "internalType": "bytes8",
          "name": "",
          "type": "bytes8"
        }
      ],
      "stateMutability": "view",
      "type": "function",
      "constant": true
    },
    {
      "inputs": [],
      "name": "moduleType",
      "outputs": [
        {
          "internalType": "bytes8",
          "name": "",
          "type": "bytes8"
        }
      ],
      "stateMutability": "view",
      "type": "function",
      "constant": true
    },
    {
      "inputs": [],
      "name": "owner",
      "outputs": [
        {
          "internalType": "address",
          "name": "",
          "type": "address"
        }
      ],
      "stateMutability": "view",
      "type": "function",
      "constant": true
    },
    {
      "inputs": [],
      "name": "renounceOwnership",
      "outputs": [],
      "stateMutability": "nonpayable",
      "type": "function"
    },
    {
      "inputs": [
        {
          "internalType": "address",
          "name": "newOwner",
          "type": "address"
        }
      ],
      "name": "transferOwnership",
      "outputs": [],
      "stateMutability": "nonpayable",
      "type": "function"
    },
    {
      "inputs": [],
      "name": "visibility",
      "outputs": [
        {
          "internalType": "enum Data.visibilityEnum",
          "name": "",
          "type": "uint8"
        }
      ],
      "stateMutability": "view",
      "type": "function",
      "constant": true
    },
    {
      "inputs": [
        {
          "internalType": "address",
          "name": "_contractDao",
          "type": "address"
        },
        {
          "internalType": "address",
          "name": "_member",
          "type": "address"
        }
      ],
      "name": "getMemberInfo",
      "outputs": [
        {
          "components": [
            {
              "internalType": "enum Data.memberStatus",
              "name": "status",
              "type": "uint8"
            },
            {
              "internalType": "uint256",
              "name": "joinTime",
              "type": "uint256"
            }
          ],
          "internalType": "struct Data.member",
          "name": "",
          "type": "tuple"
        }
      ],
      "stateMutability": "view",
      "type": "function",
      "constant": true
    },
    {
      "inputs": [
        {
          "internalType": "address",
          "name": "_contractDao",
          "type": "address"
        },
        {
          "internalType": "uint256",
          "name": "_id",
          "type": "uint256"
        }
      ],
      "name": "getAddrById",
      "outputs": [
        {
          "internalType": "address",
          "name": "",
          "type": "address"
        }
      ],
      "stateMutability": "view",
      "type": "function",
      "constant": true
    },
    {
      "inputs": [
        {
          "internalType": "address",
          "name": "_contractDao",
          "type": "address"
        }
      ],
      "name": "getMembersCount",
      "outputs": [
        {
          "internalType": "uint256",
          "name": "",
          "type": "uint256"
        }
      ],
      "stateMutability": "view",
      "type": "function",
      "constant": true
    },
    {
      "inputs": [
        {
          "internalType": "address",
          "name": "_contractDao",
          "type": "address"
        },
        {
          "internalType": "address",
          "name": "_addressMember",
          "type": "address"
        }
      ],
      "name": "addMember",
      "outputs": [],
      "stateMutability": "nonpayable",
      "type": "function"
    },
    {
      "inputs": [
        {
          "internalType": "address",
          "name": "_contractDao",
          "type": "address"
        },
        {
          "internalType": "address",
          "name": "_addressMember",
          "type": "address"
        }
      ],
      "name": "acceptMember",
      "outputs": [],
      "stateMutability": "nonpayable",
      "type": "function"
    },
    {
      "inputs": [
        {
          "internalType": "address",
          "name": "_contractDao",
          "type": "address"
        }
      ],
      "name": "requestJoin",
      "outputs": [],
      "stateMutability": "nonpayable",
      "type": "function"
    },
    {
      "inputs": [
        {
          "internalType": "address",
          "name": "_contractDao",
          "type": "address"
        },
        {
          "internalType": "address",
          "name": "_addressMember",
          "type": "address"
        }
      ],
      "name": "isActiveMember",
      "outputs": [
        {
          "internalType": "bool",
          "name": "",
          "type": "bool"
        }
      ],
      "stateMutability": "view",
      "type": "function",
      "constant": true
    },
    {
      "inputs": [
        {
          "internalType": "address",
          "name": "_contractDao",
          "type": "address"
        },
        {
          "internalType": "address",
          "name": "_memberDao",
          "type": "address"
        }
      ],
      "name": "addDao",
      "outputs": [],
      "stateMutability": "nonpayable",
      "type": "function"
    },
    {
      "inputs": [
        {
          "internalType": "address",
          "name": "_contractDao",
          "type": "address"
        },
        {
          "internalType": "address",
          "name": "_contractAddress",
          "type": "address"
        }
      ],
      "name": "authorizeAddress",
      "outputs": [],
      "stateMutability": "nonpayable",
      "type": "function"
    },
    {
      "inputs": [
        {
          "internalType": "address",
          "name": "_contractDao",
          "type": "address"
        },
        {
          "internalType": "address",
          "name": "_contractAddress",
          "type": "address"
        }
      ],
      "name": "denyAddress",
      "outputs": [],
      "stateMutability": "nonpayable",
      "type": "function"
    }
  ],
  "bytecode": "0x6080604052604051602001620000159062000279565b60405160208183030381529060405280519060200120600060146101000a81548167ffffffffffffffff02191690837801000000000000000000000000000000000000000000000000900402179055506040516020016200007690620002eb565b60405160208183030381529060405280519060200120600160006101000a81548167ffffffffffffffff0219169083780100000000000000000000000000000000000000000000000090040217905550348015620000d357600080fd5b5060405162002894380380620028948339818101604052810190620000f9919062000377565b6200012b620001166200014c640100000000026401000000009004565b62000154640100000000026401000000009004565b620001458162000154640100000000026401000000009004565b50620003a9565b600033905090565b60008060009054906101000a900473ffffffffffffffffffffffffffffffffffffffff169050816000806101000a81548173ffffffffffffffffffffffffffffffffffffffff021916908373ffffffffffffffffffffffffffffffffffffffff1602179055508173ffffffffffffffffffffffffffffffffffffffff168173ffffffffffffffffffffffffffffffffffffffff167f8be0079c531659141344cd1fd0a4f28419497f9722a3daafe3b4186f6b6457e060405160405180910390a35050565b600082825260208201905092915050565b7f526571756573744d656d626572736869704d6f64756c65000000000000000000600082015250565b60006200026160178362000218565b91506200026e8262000229565b602082019050919050565b60006020820190508181036000830152620002948162000252565b9050919050565b7f4d656d6265724d6f64756c650000000000000000000000000000000000000000600082015250565b6000620002d3600c8362000218565b9150620002e0826200029b565b602082019050919050565b600060208201905081810360008301526200030681620002c4565b9050919050565b600080fd5b600073ffffffffffffffffffffffffffffffffffffffff82169050919050565b60006200033f8262000312565b9050919050565b620003518162000332565b81146200035d57600080fd5b50565b600081519050620003718162000346565b92915050565b60006020828403121562000390576200038f6200030d565b5b6000620003a08482850162000360565b91505092915050565b6124db80620003b96000396000f3fe608060405234801561001057600080fd5b5060043610610133576000357c0100000000000000000000000000000000000000000000000000000000900480638da5cb5b116100bf578063c25f3cf61161008e578063c25f3cf6146102fc578063db4d7dcd1461032e578063e498116f1461034a578063f0744c1614610366578063f2fde38b1461038457610133565b80638da5cb5b146102625780638ecf772014610280578063945da9a1146102b05780639d58b15d146102e057610133565b806358a2d1371161010657806358a2d137146101be5780636465e69f146101da578063715018a6146101f8578063760b9c3414610202578063890222b61461023257610133565b806312ee7e411461013857806329adec14146101545780632b3e5ed91461017257806336048d5f1461018e575b600080fd5b610152600480360381019061014d9190611df2565b6103a0565b005b61015c6106be565b6040516101699190611ea9565b60405180910390f35b61018c60048036038101906101879190611df2565b6106d1565b005b6101a860048036038101906101a39190611df2565b610a7b565b6040516101b59190611f54565b60405180910390f35b6101d860048036038101906101d39190611f6f565b610b5a565b005b6101e2610fdd565b6040516101ef9190611fd7565b60405180910390f35b610200611008565b005b61021c60048036038101906102179190611f6f565b611090565b6040516102299190612001565b60405180910390f35b61024c60048036038101906102479190611df2565b6110dc565b6040516102599190612037565b60405180910390f35b61026a61110b565b6040516102779190612061565b60405180910390f35b61029a60048036038101906102959190611df2565b611134565b6040516102a79190612037565b60405180910390f35b6102ca60048036038101906102c591906120a8565b6111f4565b6040516102d79190612061565b60405180910390f35b6102fa60048036038101906102f59190611df2565b611272565b005b61031660048036038101906103119190611f6f565b6117cd565b604051610325939291906120e8565b60405180910390f35b61034860048036038101906103439190611df2565b611824565b005b610364600480360381019061035f9190611df2565b6119cc565b005b61036e611b74565b60405161037b9190611fd7565b60405180910390f35b61039e60048036038101906103999190611f6f565b611b9f565b005b8160011515600360008373ffffffffffffffffffffffffffffffffffffffff1673ffffffffffffffffffffffffffffffffffffffff16815260200190815260200160002060003373ffffffffffffffffffffffffffffffffffffffff1673ffffffffffffffffffffffffffffffffffffffff16815260200190815260200160002060009054906101000a900460ff161515148061046f575061044061110b565b73ffffffffffffffffffffffffffffffffffffffff163373ffffffffffffffffffffffffffffffffffffffff16145b6104ae576040517f08c379a00000000000000000000000000000000000000000000000000000000081526004016104a59061217c565b60405180910390fd5b600260008473ffffffffffffffffffffffffffffffffffffffff1673ffffffffffffffffffffffffffffffffffffffff16815260200190815260200160002060040160009054906101000a900460ff161561053e576040517f08c379a0000000000000000000000000000000000000000000000000000000008152600401610535906121e8565b60405180910390fd5b6001600260008573ffffffffffffffffffffffffffffffffffffffff1673ffffffffffffffffffffffffffffffffffffffff16815260200190815260200160002060040160006101000a81548160ff02191690831515021790555082600260008573ffffffffffffffffffffffffffffffffffffffff1673ffffffffffffffffffffffffffffffffffffffff16815260200190815260200160002060000160006101000a81548173ffffffffffffffffffffffffffffffffffffffff021916908373ffffffffffffffffffffffffffffffffffffffff1602179055506106248383611272565b6001600360008573ffffffffffffffffffffffffffffffffffffffff1673ffffffffffffffffffffffffffffffffffffffff16815260200190815260200160002060008473ffffffffffffffffffffffffffffffffffffffff1673ffffffffffffffffffffffffffffffffffffffff16815260200190815260200160002060006101000a81548160ff021916908315150217905550505050565b600160089054906101000a900460ff1681565b816003808111156106e5576106e4611e32565b5b600260008373ffffffffffffffffffffffffffffffffffffffff1673ffffffffffffffffffffffffffffffffffffffff16815260200190815260200160002060030160003373ffffffffffffffffffffffffffffffffffffffff1673ffffffffffffffffffffffffffffffffffffffff16815260200190815260200160002060000160009054906101000a900460ff16600381111561078757610786611e32565b5b1480610820575060011515600360008373ffffffffffffffffffffffffffffffffffffffff1673ffffffffffffffffffffffffffffffffffffffff16815260200190815260200160002060003373ffffffffffffffffffffffffffffffffffffffff1673ffffffffffffffffffffffffffffffffffffffff16815260200190815260200160002060009054906101000a900460ff161515145b8061085d575061082e61110b565b73ffffffffffffffffffffffffffffffffffffffff163373ffffffffffffffffffffffffffffffffffffffff16145b61089c576040517f08c379a00000000000000000000000000000000000000000000000000000000081526004016108939061217c565b60405180910390fd5b600260038111156108b0576108af611e32565b5b600260008573ffffffffffffffffffffffffffffffffffffffff1673ffffffffffffffffffffffffffffffffffffffff16815260200190815260200160002060030160008473ffffffffffffffffffffffffffffffffffffffff1673ffffffffffffffffffffffffffffffffffffffff16815260200190815260200160002060000160009054906101000a900460ff16600381111561095257610951611e32565b5b14610992576040517f08c379a000000000000000000000000000000000000000000000000000000000815260040161098990612254565b60405180910390fd5b6003600260008573ffffffffffffffffffffffffffffffffffffffff1673ffffffffffffffffffffffffffffffffffffffff16815260200190815260200160002060030160008473ffffffffffffffffffffffffffffffffffffffff1673ffffffffffffffffffffffffffffffffffffffff16815260200190815260200160002060000160006101000a81548160ff02191690836003811115610a3857610a37611e32565b5b02179055507f69d02d7fd90d09588f2ba0ea3c2ba06a591eda1b091ed67790e2b36fb339ac538233604051610a6e929190612274565b60405180910390a1505050565b610a83611d63565b600260008473ffffffffffffffffffffffffffffffffffffffff1673ffffffffffffffffffffffffffffffffffffffff16815260200190815260200160002060030160008373ffffffffffffffffffffffffffffffffffffffff1673ffffffffffffffffffffffffffffffffffffffff1681526020019081526020016000206040518060400160405290816000820160009054906101000a900460ff166003811115610b3257610b31611e32565b5b6003811115610b4457610b43611e32565b5b8152602001600182015481525050905092915050565b80600380811115610b6e57610b6d611e32565b5b600260008373ffffffffffffffffffffffffffffffffffffffff1673ffffffffffffffffffffffffffffffffffffffff16815260200190815260200160002060030160003373ffffffffffffffffffffffffffffffffffffffff1673ffffffffffffffffffffffffffffffffffffffff16815260200190815260200160002060000160009054906101000a900460ff166003811115610c1057610c0f611e32565b5b1415610c51576040517f08c379a0000000000000000000000000000000000000000000000000000000008152600401610c489061217c565b60405180910390fd5b60006003811115610c6557610c64611e32565b5b600260008473ffffffffffffffffffffffffffffffffffffffff1673ffffffffffffffffffffffffffffffffffffffff16815260200190815260200160002060030160003373ffffffffffffffffffffffffffffffffffffffff1673ffffffffffffffffffffffffffffffffffffffff16815260200190815260200160002060000160009054906101000a900460ff166003811115610d0757610d06611e32565b5b14610d47576040517f08c379a0000000000000000000000000000000000000000000000000000000008152600401610d3e9061230f565b60405180910390fd5b60028060008473ffffffffffffffffffffffffffffffffffffffff1673ffffffffffffffffffffffffffffffffffffffff16815260200190815260200160002060030160003373ffffffffffffffffffffffffffffffffffffffff1673ffffffffffffffffffffffffffffffffffffffff16815260200190815260200160002060000160006101000a81548160ff02191690836003811115610dec57610deb611e32565b5b021790555033600260008473ffffffffffffffffffffffffffffffffffffffff1673ffffffffffffffffffffffffffffffffffffffff1681526020019081526020016000206002016000600260008673ffffffffffffffffffffffffffffffffffffffff1673ffffffffffffffffffffffffffffffffffffffff16815260200190815260200160002060010154815260200190815260200160002060006101000a81548173ffffffffffffffffffffffffffffffffffffffff021916908373ffffffffffffffffffffffffffffffffffffffff16021790555042600260008473ffffffffffffffffffffffffffffffffffffffff1673ffffffffffffffffffffffffffffffffffffffff16815260200190815260200160002060030160003373ffffffffffffffffffffffffffffffffffffffff1673ffffffffffffffffffffffffffffffffffffffff16815260200190815260200160002060010181905550600260008373ffffffffffffffffffffffffffffffffffffffff1673ffffffffffffffffffffffffffffffffffffffff16815260200190815260200160002060010160008154610f9b9061235e565b919050819055507fbed19f5b65ad42d891f94ee997a95c1c635d47af67169b52c2b2f0f823b7cd7133604051610fd19190612061565b60405180910390a15050565b600160009054906101000a900478010000000000000000000000000000000000000000000000000281565b611010611c97565b73ffffffffffffffffffffffffffffffffffffffff1661102e61110b565b73ffffffffffffffffffffffffffffffffffffffff1614611084576040517f08c379a000000000000000000000000000000000000000000000000000000000815260040161107b906123f3565b60405180910390fd5b61108e6000611c9f565b565b6000600260008373ffffffffffffffffffffffffffffffffffffffff1673ffffffffffffffffffffffffffffffffffffffff168152602001908152602001600020600101549050919050565b60036020528160005260406000206020528060005260406000206000915091509054906101000a900460ff1681565b60008060009054906101000a900473ffffffffffffffffffffffffffffffffffffffff16905090565b600060038081111561114957611148611e32565b5b600260008573ffffffffffffffffffffffffffffffffffffffff1673ffffffffffffffffffffffffffffffffffffffff16815260200190815260200160002060030160008473ffffffffffffffffffffffffffffffffffffffff1673ffffffffffffffffffffffffffffffffffffffff16815260200190815260200160002060000160009054906101000a900460ff1660038111156111eb576111ea611e32565b5b14905092915050565b6000600260008473ffffffffffffffffffffffffffffffffffffffff1673ffffffffffffffffffffffffffffffffffffffff168152602001908152602001600020600201600083815260200190815260200160002060009054906101000a900473ffffffffffffffffffffffffffffffffffffffff16905092915050565b8160038081111561128657611285611e32565b5b600260008373ffffffffffffffffffffffffffffffffffffffff1673ffffffffffffffffffffffffffffffffffffffff16815260200190815260200160002060030160003373ffffffffffffffffffffffffffffffffffffffff1673ffffffffffffffffffffffffffffffffffffffff16815260200190815260200160002060000160009054906101000a900460ff16600381111561132857611327611e32565b5b14806113c1575060011515600360008373ffffffffffffffffffffffffffffffffffffffff1673ffffffffffffffffffffffffffffffffffffffff16815260200190815260200160002060003373ffffffffffffffffffffffffffffffffffffffff1673ffffffffffffffffffffffffffffffffffffffff16815260200190815260200160002060009054906101000a900460ff161515145b806113fe57506113cf61110b565b73ffffffffffffffffffffffffffffffffffffffff163373ffffffffffffffffffffffffffffffffffffffff16145b61143d576040517f08c379a00000000000000000000000000000000000000000000000000000000081526004016114349061217c565b60405180910390fd5b6000600381111561145157611450611e32565b5b600260008573ffffffffffffffffffffffffffffffffffffffff1673ffffffffffffffffffffffffffffffffffffffff16815260200190815260200160002060030160008473ffffffffffffffffffffffffffffffffffffffff1673ffffffffffffffffffffffffffffffffffffffff16815260200190815260200160002060000160009054906101000a900460ff1660038111156114f3576114f2611e32565b5b14611533576040517f08c379a000000000000000000000000000000000000000000000000000000000815260040161152a9061230f565b60405180910390fd5b6003600260008573ffffffffffffffffffffffffffffffffffffffff1673ffffffffffffffffffffffffffffffffffffffff16815260200190815260200160002060030160008473ffffffffffffffffffffffffffffffffffffffff1673ffffffffffffffffffffffffffffffffffffffff16815260200190815260200160002060000160006101000a81548160ff021916908360038111156115d9576115d8611e32565b5b021790555081600260008573ffffffffffffffffffffffffffffffffffffffff1673ffffffffffffffffffffffffffffffffffffffff1681526020019081526020016000206002016000600260008773ffffffffffffffffffffffffffffffffffffffff1673ffffffffffffffffffffffffffffffffffffffff16815260200190815260200160002060010154815260200190815260200160002060006101000a81548173ffffffffffffffffffffffffffffffffffffffff021916908373ffffffffffffffffffffffffffffffffffffffff16021790555042600260008573ffffffffffffffffffffffffffffffffffffffff1673ffffffffffffffffffffffffffffffffffffffff16815260200190815260200160002060030160008473ffffffffffffffffffffffffffffffffffffffff1673ffffffffffffffffffffffffffffffffffffffff16815260200190815260200160002060010181905550600260008473ffffffffffffffffffffffffffffffffffffffff1673ffffffffffffffffffffffffffffffffffffffff168152602001908152602001600020600101600081546117889061235e565b919050819055507f6a2af11b2d73f347f9d5840aea46899e17609730b5cd91bd9c312098038acba682336040516117c0929190612274565b60405180910390a1505050565b60026020528060005260406000206000915090508060000160009054906101000a900473ffffffffffffffffffffffffffffffffffffffff16908060010154908060040160009054906101000a900460ff16905083565b8160011515600360008373ffffffffffffffffffffffffffffffffffffffff1673ffffffffffffffffffffffffffffffffffffffff16815260200190815260200160002060003373ffffffffffffffffffffffffffffffffffffffff1673ffffffffffffffffffffffffffffffffffffffff16815260200190815260200160002060009054906101000a900460ff16151514806118f357506118c461110b565b73ffffffffffffffffffffffffffffffffffffffff163373ffffffffffffffffffffffffffffffffffffffff16145b611932576040517f08c379a00000000000000000000000000000000000000000000000000000000081526004016119299061217c565b60405180910390fd5b6001600360008573ffffffffffffffffffffffffffffffffffffffff1673ffffffffffffffffffffffffffffffffffffffff16815260200190815260200160002060008473ffffffffffffffffffffffffffffffffffffffff1673ffffffffffffffffffffffffffffffffffffffff16815260200190815260200160002060006101000a81548160ff021916908315150217905550505050565b8160011515600360008373ffffffffffffffffffffffffffffffffffffffff1673ffffffffffffffffffffffffffffffffffffffff16815260200190815260200160002060003373ffffffffffffffffffffffffffffffffffffffff1673ffffffffffffffffffffffffffffffffffffffff16815260200190815260200160002060009054906101000a900460ff1615151480611a9b5750611a6c61110b565b73ffffffffffffffffffffffffffffffffffffffff163373ffffffffffffffffffffffffffffffffffffffff16145b611ada576040517f08c379a0000000000000000000000000000000000000000000000000000000008152600401611ad19061217c565b60405180910390fd5b6000600360008573ffffffffffffffffffffffffffffffffffffffff1673ffffffffffffffffffffffffffffffffffffffff16815260200190815260200160002060008473ffffffffffffffffffffffffffffffffffffffff1673ffffffffffffffffffffffffffffffffffffffff16815260200190815260200160002060006101000a81548160ff021916908315150217905550505050565b600060149054906101000a900478010000000000000000000000000000000000000000000000000281565b611ba7611c97565b73ffffffffffffffffffffffffffffffffffffffff16611bc561110b565b73ffffffffffffffffffffffffffffffffffffffff1614611c1b576040517f08c379a0000000000000000000000000000000000000000000000000000000008152600401611c12906123f3565b60405180910390fd5b600073ffffffffffffffffffffffffffffffffffffffff168173ffffffffffffffffffffffffffffffffffffffff161415611c8b576040517f08c379a0000000000000000000000000000000000000000000000000000000008152600401611c8290612485565b60405180910390fd5b611c9481611c9f565b50565b600033905090565b60008060009054906101000a900473ffffffffffffffffffffffffffffffffffffffff169050816000806101000a81548173ffffffffffffffffffffffffffffffffffffffff021916908373ffffffffffffffffffffffffffffffffffffffff1602179055508173ffffffffffffffffffffffffffffffffffffffff168173ffffffffffffffffffffffffffffffffffffffff167f8be0079c531659141344cd1fd0a4f28419497f9722a3daafe3b4186f6b6457e060405160405180910390a35050565b604051806040016040528060006003811115611d8257611d81611e32565b5b8152602001600081525090565b600080fd5b600073ffffffffffffffffffffffffffffffffffffffff82169050919050565b6000611dbf82611d94565b9050919050565b611dcf81611db4565b8114611dda57600080fd5b50565b600081359050611dec81611dc6565b92915050565b60008060408385031215611e0957611e08611d8f565b5b6000611e1785828601611ddd565b9250506020611e2885828601611ddd565b9150509250929050565b7f4e487b7100000000000000000000000000000000000000000000000000000000600052602160045260246000fd5b60028110611e7257611e71611e32565b5b50565b6000819050611e8382611e61565b919050565b6000611e9382611e75565b9050919050565b611ea381611e88565b82525050565b6000602082019050611ebe6000830184611e9a565b92915050565b60048110611ed557611ed4611e32565b5b50565b6000819050611ee682611ec4565b919050565b6000611ef682611ed8565b9050919050565b611f0681611eeb565b82525050565b6000819050919050565b611f1f81611f0c565b82525050565b604082016000820151611f3b6000850182611efd565b506020820151611f4e6020850182611f16565b50505050565b6000604082019050611f696000830184611f25565b92915050565b600060208284031215611f8557611f84611d8f565b5b6000611f9384828501611ddd565b91505092915050565b60007fffffffffffffffff00000000000000000000000000000000000000000000000082169050919050565b611fd181611f9c565b82525050565b6000602082019050611fec6000830184611fc8565b92915050565b611ffb81611f0c565b82525050565b60006020820190506120166000830184611ff2565b92915050565b60008115159050919050565b6120318161201c565b82525050565b600060208201905061204c6000830184612028565b92915050565b61205b81611db4565b82525050565b60006020820190506120766000830184612052565b92915050565b61208581611f0c565b811461209057600080fd5b50565b6000813590506120a28161207c565b92915050565b600080604083850312156120bf576120be611d8f565b5b60006120cd85828601611ddd565b92505060206120de85828601612093565b9150509250929050565b60006060820190506120fd6000830186612052565b61210a6020830185611ff2565b6121176040830184612028565b949350505050565b600082825260208201905092915050565b7f4e6f7420617574686f72697a6564000000000000000000000000000000000000600082015250565b6000612166600e8361211f565b915061217182612130565b602082019050919050565b6000602082019050818103600083015261219581612159565b9050919050565b7f44616f20616c7265616479206164646564000000000000000000000000000000600082015250565b60006121d260118361211f565b91506121dd8261219c565b602082019050919050565b60006020820190508181036000830152612201816121c5565b9050919050565b7f496e76616c6964204d656d6265723a206d7573742062652061736b696e670000600082015250565b600061223e601e8361211f565b915061224982612208565b602082019050919050565b6000602082019050818103600083015261226d81612231565b9050919050565b60006040820190506122896000830185612052565b6122966020830184612052565b9392505050565b7f496e76616c6964204d656d6265723a206d757374206265206e6f742061206d6560008201527f6d62657200000000000000000000000000000000000000000000000000000000602082015250565b60006122f960248361211f565b91506123048261229d565b604082019050919050565b60006020820190508181036000830152612328816122ec565b9050919050565b7f4e487b7100000000000000000000000000000000000000000000000000000000600052601160045260246000fd5b600061236982611f0c565b91507fffffffffffffffffffffffffffffffffffffffffffffffffffffffffffffffff82141561239c5761239b61232f565b5b600182019050919050565b7f4f776e61626c653a2063616c6c6572206973206e6f7420746865206f776e6572600082015250565b60006123dd60208361211f565b91506123e8826123a7565b602082019050919050565b6000602082019050818103600083015261240c816123d0565b9050919050565b7f4f776e61626c653a206e6577206f776e657220697320746865207a65726f206160008201527f6464726573730000000000000000000000000000000000000000000000000000602082015250565b600061246f60268361211f565b915061247a82612413565b604082019050919050565b6000602082019050818103600083015261249e81612462565b905091905056fea26469706673582212209d7014a5ba90b8c9723051e58c924197e646807ed6b817f17e9476389184cf0a64736f6c63430008090033",
  "immutableReferences": {},
  "source": "// SPDX-License-Identifier: MIT\npragma solidity ^0.8.9;\n\nimport \"@openzeppelin/contracts/utils/math/SafeMath.sol\";\nimport \"@openzeppelin/contracts/access/Ownable.sol\";\nimport \"../../Data.sol\";\nimport \"../../DaoBase.sol\";\n\ncontract RequestMembershipModule is Ownable {\n    using SafeMath for uint256;\n\n    /// @notice store the module code hash\n    bytes8 public moduleCode = bytes8(keccak256(abi.encode(\"RequestMembershipModule\")));\n\n    /// @notice store the module type hash\n    bytes8 public moduleType = bytes8(keccak256(abi.encode(\"MemberModule\")));\n\n    /// @notice visibility of the members in MY-DAO\n    Data.visibilityEnum public visibility;\n\n    /**\n    * @notice store daos info\n    * @dev param address is address of the daoBase. return daoMember struct\n    */\n    mapping(address => Data.DaoMember) public daos;\n\n    /**\n    * @notice store daos info\n    * @dev param address is address of the daoBase. return daoMember struct\n    */\n    mapping(address => mapping(address => bool)) public authorizedAddress;\n\n    event MemberAdded(address newMember, address adderAddress);\n    event MemberAccepted(address newMember, address acceptorAddress);\n    event MemberInvited(address memberInvited, address memberInvitor);\n    event MemberJoined(address memberJoined);\n    event MemberAskedJoin(address memberRequestor);\n\n    /**\n    * @notice constructor change the owner to be the DaosFactory\n    * @dev param 0 address of the DaosFactory\n    */\n    constructor(address _contractFactory) {\n        _transferOwnership(_contractFactory);\n    }\n\n    /**\n    * @notice check msg.sender is member or authorized\n    * @dev param 0 address of the DaosFactory\n    */\n    modifier onlyActiveMembersOrAuthorizeAddress(address _contractDao) {\n        require(daos[_contractDao].members[msg.sender].status == Data.memberStatus.active \n        || authorizedAddress[_contractDao][msg.sender] == true\n        || msg.sender == owner(), \"Not authorized\");\n        _;\n    }\n\n\n    /**\n    * @notice check msg.sender is not a member\n    * @dev param 0 address of the DaosFactory\n    */\n    modifier onlyNotActiveMembers(address _contractDao) {\n        require(daos[_contractDao].members[msg.sender].status != Data.memberStatus.active, \"Not authorized\");\n        _;\n    }\n\n\n    /**\n    * @notice check msg.sender is authorized\n    * @dev param 0 address of the DaosFactory\n    */\n    modifier onlyAuthorizeAddress(address _contractDao) {\n        require(authorizedAddress[_contractDao][msg.sender] == true, \"Not authorized\");\n        _;\n    }\n\n    /**\n    * @notice check msg.sender is authorized or the owner\n    * @dev param 0 address of the DaosFactory\n    */\n    modifier onlyAuthorizeAddressOrOwner(address _contractDao) {\n        require(authorizedAddress[_contractDao][msg.sender] == true || msg.sender == owner(), \"Not authorized\");\n        _;\n    }\n\n    /**\n    * @notice get info of a member in a dao\n    * @param _contractDao address of the dao\n    * @param _member address of the member\n    * @return member struct taht store info of the member see ../../Data.sol\n    */\n    function getMemberInfo(address _contractDao, address _member) external view returns(Data.member memory) {\n        return(daos[_contractDao].members[_member]);\n    }\n\n    /**\n    * @notice get address of a member in a dao by his id\n    * @param _contractDao address of the dao\n    * @param _id id of the member\n    * @return member address of the member\n    */\n    function getAddrById(address _contractDao, uint256 _id) external view returns(address) {\n        return daos[_contractDao].memberAddresses[_id];\n    }\n\n    /**\n    * @notice get the total member of the dao\n    * @param _contractDao address of the dao\n    * @return count uint256 of the total member in the dao\n    */\n    function getMembersCount(address _contractDao) external view returns(uint256) {\n        return daos[_contractDao].membersCount;\n    }\n\n    /**\n    * @notice add member to the dao\n    * @dev only active member or authorized address can execute this function\n    * @param _contractDao address of the dao\n    * @param _addressMember address of the user that will be added\n    */\n    function addMember(address _contractDao, address _addressMember) public onlyActiveMembersOrAuthorizeAddress(_contractDao) {\n        require(daos[_contractDao].members[_addressMember].status == Data.memberStatus.notMember\n            , \"Invalid Member: must be not a member\");\n        daos[_contractDao].members[_addressMember].status = Data.memberStatus.active;\n        daos[_contractDao].memberAddresses[daos[_contractDao].membersCount] = _addressMember;\n        daos[_contractDao].members[_addressMember].joinTime = block.timestamp;\n        ++daos[_contractDao].membersCount;\n        emit MemberAdded(_addressMember, msg.sender);\n    }\n\n    /**\n    * @notice accept member to the dao\n    * @dev only active member or authorized address can execute this function\n    * @param _contractDao address of the dao\n    * @param _addressMember address of the user that will be accepted\n    */\n    function acceptMember(address _contractDao, address _addressMember) public onlyActiveMembersOrAuthorizeAddress(_contractDao) {\n        require(daos[_contractDao].members[_addressMember].status == Data.memberStatus.asking\n            , \"Invalid Member: must be asking\");\n        daos[_contractDao].members[_addressMember].status = Data.memberStatus.active;\n        emit MemberAccepted(_addressMember, msg.sender);\n    }\n\n    /**\n    * @notice request to be a member of the dao\n    * @dev only not active member can execute this function\n    * @param _contractDao address of the dao\n    */\n    function requestJoin(address _contractDao) public onlyNotActiveMembers(_contractDao) {\n        require(daos[_contractDao].members[msg.sender].status == Data.memberStatus.notMember\n            , \"Invalid Member: must be not a member\");\n        daos[_contractDao].members[msg.sender].status = Data.memberStatus.asking;\n        daos[_contractDao].memberAddresses[daos[_contractDao].membersCount] = msg.sender;\n        daos[_contractDao].members[msg.sender].joinTime = block.timestamp;\n        ++daos[_contractDao].membersCount;\n        emit MemberAskedJoin(msg.sender);\n    }\n\n    /**\n    * @notice return if a address is member of a dao\n    * @param _contractDao address of the dao\n    * @param _addressMember address of the user to check\n    */\n    function isActiveMember(address _contractDao, address _addressMember) public view returns (bool){\n        return daos[_contractDao].members[_addressMember].status == Data.memberStatus.active;\n    }\n\n    /**\n    * @notice link a dao to SimpleDonationsModule\n    * @param _contractDao address of the dao\n    * @param _memberDao address of the user of the dao in this case the owner of the dao\n    */\n    function addDao(address _contractDao, address _memberDao) external onlyAuthorizeAddressOrOwner(_contractDao) {\n        require(!daos[_contractDao].isActive, \"Dao already added\");\n        daos[_contractDao].isActive = true;\n        daos[_contractDao].addressDao = _contractDao;\n        addMember(_contractDao, _memberDao);\n         authorizedAddress[_contractDao][_memberDao] = true;\n    }\n\n    /**\n    * @notice authorize a new address\n    * @param _contractDao address of the dao\n    * @param _contractAddress address that will be authorized\n    */\n    function authorizeAddress(address _contractDao, address _contractAddress) external onlyAuthorizeAddressOrOwner(_contractDao) {\n        authorizedAddress[_contractDao][_contractAddress] = true;\n    }\n\n    /**\n    * @notice deny a authorized address\n    * @param _contractDao address of the dao\n    * @param _contractAddress address that will be deny\n    */\n    function denyAddress(address _contractDao, address _contractAddress) external onlyAuthorizeAddressOrOwner(_contractDao) {\n        authorizedAddress[_contractDao][_contractAddress] = false;\n    }\n}",
  "sourcePath": "/Users/chinoiserie/delivery/BLOCKCHAIN/Alyra/MY-DAO/contracts/Modules/Implementations/RequestMembershipModule.sol",
  "compiler": {
    "name": "solc",
    "version": "0.8.9+commit.e5eed63a.Emscripten.clang"
  },
  "schemaVersion": "3.2.0",
  "updatedAt": "2022-05-22T18:00:24.160Z",
  "networkType": "ethereum",
  "devdoc": {
    "kind": "dev",
    "methods": {
      "acceptMember(address,address)": {
        "details": "only active member or authorized address can execute this function",
        "params": {
          "_addressMember": "address of the user that will be accepted",
          "_contractDao": "address of the dao"
        }
      },
      "addDao(address,address)": {
        "params": {
          "_contractDao": "address of the dao",
          "_memberDao": "address of the user of the dao in this case the owner of the dao"
        }
      },
      "addMember(address,address)": {
        "details": "only active member or authorized address can execute this function",
        "params": {
          "_addressMember": "address of the user that will be added",
          "_contractDao": "address of the dao"
        }
      },
      "authorizeAddress(address,address)": {
        "params": {
          "_contractAddress": "address that will be authorized",
          "_contractDao": "address of the dao"
        }
      },
      "constructor": {
        "details": "param 0 address of the DaosFactory"
      },
      "denyAddress(address,address)": {
        "params": {
          "_contractAddress": "address that will be deny",
          "_contractDao": "address of the dao"
        }
      },
      "getAddrById(address,uint256)": {
        "params": {
          "_contractDao": "address of the dao",
          "_id": "id of the member"
        },
        "returns": {
          "_0": "member address of the member"
        }
      },
      "getMemberInfo(address,address)": {
        "params": {
          "_contractDao": "address of the dao",
          "_member": "address of the member"
        },
        "returns": {
          "_0": "member struct taht store info of the member see ../../Data.sol"
        }
      },
      "getMembersCount(address)": {
        "params": {
          "_contractDao": "address of the dao"
        },
        "returns": {
          "_0": "count uint256 of the total member in the dao"
        }
      },
      "isActiveMember(address,address)": {
        "params": {
          "_addressMember": "address of the user to check",
          "_contractDao": "address of the dao"
        }
      },
      "owner()": {
        "details": "Returns the address of the current owner."
      },
      "renounceOwnership()": {
        "details": "Leaves the contract without owner. It will not be possible to call `onlyOwner` functions anymore. Can only be called by the current owner. NOTE: Renouncing ownership will leave the contract without an owner, thereby removing any functionality that is only available to the owner."
      },
      "requestJoin(address)": {
        "details": "only not active member can execute this function",
        "params": {
          "_contractDao": "address of the dao"
        }
      },
      "transferOwnership(address)": {
        "details": "Transfers ownership of the contract to a new account (`newOwner`). Can only be called by the current owner."
      }
    },
    "stateVariables": {
      "authorizedAddress": {
        "details": "param address is address of the daoBase. return daoMember struct"
      },
      "daos": {
        "details": "param address is address of the daoBase. return daoMember struct"
      }
    },
    "version": 1
  },
  "userdoc": {
    "kind": "user",
    "methods": {
      "acceptMember(address,address)": {
        "notice": "accept member to the dao"
      },
      "addDao(address,address)": {
        "notice": "link a dao to SimpleDonationsModule"
      },
      "addMember(address,address)": {
        "notice": "add member to the dao"
      },
      "authorizeAddress(address,address)": {
        "notice": "authorize a new address"
      },
      "authorizedAddress(address,address)": {
        "notice": "store daos info"
      },
      "constructor": {
        "notice": "constructor change the owner to be the DaosFactory"
      },
      "daos(address)": {
        "notice": "store daos info"
      },
      "denyAddress(address,address)": {
        "notice": "deny a authorized address"
      },
      "getAddrById(address,uint256)": {
        "notice": "get address of a member in a dao by his id"
      },
      "getMemberInfo(address,address)": {
        "notice": "get info of a member in a dao"
      },
      "getMembersCount(address)": {
        "notice": "get the total member of the dao"
      },
      "isActiveMember(address,address)": {
        "notice": "return if a address is member of a dao"
      },
      "moduleCode()": {
        "notice": "store the module code hash"
      },
      "moduleType()": {
        "notice": "store the module type hash"
      },
      "requestJoin(address)": {
        "notice": "request to be a member of the dao"
      },
      "visibility()": {
        "notice": "visibility of the members in MY-DAO"
      }
    },
    "version": 1
  }
}