{
  "contractName": "RequestMembershipModule",
  "abi": [
    {
      "inputs": [
        {
          "internalType": "address",
          "name": "_contractFactory",
          "type": "address"
        }
      ],
      "stateMutability": "nonpayable",
      "type": "constructor"
    },
    {
      "anonymous": false,
      "inputs": [
        {
          "indexed": false,
          "internalType": "address",
          "name": "newMember",
          "type": "address"
        },
        {
          "indexed": false,
          "internalType": "address",
          "name": "acceptorAddress",
          "type": "address"
        }
      ],
      "name": "MemberAccepted",
      "type": "event"
    },
    {
      "anonymous": false,
      "inputs": [
        {
          "indexed": false,
          "internalType": "address",
          "name": "newMember",
          "type": "address"
        },
        {
          "indexed": false,
          "internalType": "address",
          "name": "adderAddress",
          "type": "address"
        }
      ],
      "name": "MemberAdded",
      "type": "event"
    },
    {
      "anonymous": false,
      "inputs": [
        {
          "indexed": false,
          "internalType": "address",
          "name": "memberRequestor",
          "type": "address"
        }
      ],
      "name": "MemberAskedJoin",
      "type": "event"
    },
    {
      "anonymous": false,
      "inputs": [
        {
          "indexed": false,
          "internalType": "address",
          "name": "memberInvited",
          "type": "address"
        },
        {
          "indexed": false,
          "internalType": "address",
          "name": "memberInvitor",
          "type": "address"
        }
      ],
      "name": "MemberInvited",
      "type": "event"
    },
    {
      "anonymous": false,
      "inputs": [
        {
          "indexed": false,
          "internalType": "address",
          "name": "memberJoined",
          "type": "address"
        }
      ],
      "name": "MemberJoined",
      "type": "event"
    },
    {
      "anonymous": false,
      "inputs": [
        {
          "indexed": true,
          "internalType": "address",
          "name": "previousOwner",
          "type": "address"
        },
        {
          "indexed": true,
          "internalType": "address",
          "name": "newOwner",
          "type": "address"
        }
      ],
      "name": "OwnershipTransferred",
      "type": "event"
    },
    {
      "inputs": [
        {
          "internalType": "address",
          "name": "",
          "type": "address"
        },
        {
          "internalType": "address",
          "name": "",
          "type": "address"
        }
      ],
      "name": "authorizedAddress",
      "outputs": [
        {
          "internalType": "bool",
          "name": "",
          "type": "bool"
        }
      ],
      "stateMutability": "view",
      "type": "function",
      "constant": true
    },
    {
      "inputs": [
        {
          "internalType": "address",
          "name": "",
          "type": "address"
        }
      ],
      "name": "daos",
      "outputs": [
        {
          "internalType": "address",
          "name": "addressDao",
          "type": "address"
        },
        {
          "internalType": "uint256",
          "name": "membersCount",
          "type": "uint256"
        },
        {
          "internalType": "bool",
          "name": "isActive",
          "type": "bool"
        }
      ],
      "stateMutability": "view",
      "type": "function",
      "constant": true
    },
    {
      "inputs": [],
      "name": "moduleCode",
      "outputs": [
        {
          "internalType": "bytes8",
          "name": "",
          "type": "bytes8"
        }
      ],
      "stateMutability": "view",
      "type": "function",
      "constant": true
    },
    {
      "inputs": [],
      "name": "moduleType",
      "outputs": [
        {
          "internalType": "bytes8",
          "name": "",
          "type": "bytes8"
        }
      ],
      "stateMutability": "view",
      "type": "function",
      "constant": true
    },
    {
      "inputs": [],
      "name": "owner",
      "outputs": [
        {
          "internalType": "address",
          "name": "",
          "type": "address"
        }
      ],
      "stateMutability": "view",
      "type": "function",
      "constant": true
    },
    {
      "inputs": [],
      "name": "renounceOwnership",
      "outputs": [],
      "stateMutability": "nonpayable",
      "type": "function"
    },
    {
      "inputs": [
        {
          "internalType": "address",
          "name": "newOwner",
          "type": "address"
        }
      ],
      "name": "transferOwnership",
      "outputs": [],
      "stateMutability": "nonpayable",
      "type": "function"
    },
    {
      "inputs": [],
      "name": "visibility",
      "outputs": [
        {
          "internalType": "enum Data.visibilityEnum",
          "name": "",
          "type": "uint8"
        }
      ],
      "stateMutability": "view",
      "type": "function",
      "constant": true
    },
    {
      "inputs": [
        {
          "internalType": "address",
          "name": "_contractDao",
          "type": "address"
        },
        {
          "internalType": "address",
          "name": "_member",
          "type": "address"
        }
      ],
      "name": "getMemberInfo",
      "outputs": [
        {
          "components": [
            {
              "internalType": "enum Data.memberStatus",
              "name": "status",
              "type": "uint8"
            },
            {
              "internalType": "uint256",
              "name": "joinTime",
              "type": "uint256"
            }
          ],
          "internalType": "struct Data.member",
          "name": "",
          "type": "tuple"
        }
      ],
      "stateMutability": "view",
      "type": "function",
      "constant": true
    },
    {
      "inputs": [
        {
          "internalType": "address",
          "name": "_contractDao",
          "type": "address"
        },
        {
          "internalType": "uint256",
          "name": "_id",
          "type": "uint256"
        }
      ],
      "name": "getAddrById",
      "outputs": [
        {
          "internalType": "address",
          "name": "",
          "type": "address"
        }
      ],
      "stateMutability": "view",
      "type": "function",
      "constant": true
    },
    {
      "inputs": [
        {
          "internalType": "address",
          "name": "_contractDao",
          "type": "address"
        }
      ],
      "name": "getMembersCount",
      "outputs": [
        {
          "internalType": "uint256",
          "name": "",
          "type": "uint256"
        }
      ],
      "stateMutability": "view",
      "type": "function",
      "constant": true
    },
    {
      "inputs": [
        {
          "internalType": "address",
          "name": "_contractDao",
          "type": "address"
        },
        {
          "internalType": "address",
          "name": "_addressMember",
          "type": "address"
        }
      ],
      "name": "addMember",
      "outputs": [],
      "stateMutability": "nonpayable",
      "type": "function"
    },
    {
      "inputs": [
        {
          "internalType": "address",
          "name": "_contractDao",
          "type": "address"
        },
        {
          "internalType": "address",
          "name": "_addressMember",
          "type": "address"
        }
      ],
      "name": "acceptMember",
      "outputs": [],
      "stateMutability": "nonpayable",
      "type": "function"
    },
    {
      "inputs": [
        {
          "internalType": "address",
          "name": "_contractDao",
          "type": "address"
        }
      ],
      "name": "requestJoin",
      "outputs": [],
      "stateMutability": "nonpayable",
      "type": "function"
    },
    {
      "inputs": [
        {
          "internalType": "address",
          "name": "_contractDao",
          "type": "address"
        },
        {
          "internalType": "address",
          "name": "_addressMember",
          "type": "address"
        }
      ],
      "name": "isActiveMember",
      "outputs": [
        {
          "internalType": "bool",
          "name": "",
          "type": "bool"
        }
      ],
      "stateMutability": "view",
      "type": "function",
      "constant": true
    },
    {
      "inputs": [
        {
          "internalType": "address",
          "name": "_contractDao",
          "type": "address"
        },
        {
          "internalType": "address",
          "name": "_memberDao",
          "type": "address"
        }
      ],
      "name": "addDao",
      "outputs": [],
      "stateMutability": "nonpayable",
      "type": "function"
    },
    {
      "inputs": [
        {
          "internalType": "address",
          "name": "_contractDao",
          "type": "address"
        },
        {
          "internalType": "address",
          "name": "_contractAddress",
          "type": "address"
        }
      ],
      "name": "authorizeAddress",
      "outputs": [],
      "stateMutability": "nonpayable",
      "type": "function"
    },
    {
      "inputs": [
        {
          "internalType": "address",
          "name": "_contractDao",
          "type": "address"
        },
        {
          "internalType": "address",
          "name": "_contractAddress",
          "type": "address"
        }
      ],
      "name": "denyAddress",
      "outputs": [],
      "stateMutability": "nonpayable",
      "type": "function"
    }
  ],
  "bytecode": "0x60806040523480156200001157600080fd5b50604051620027af380380620027af8339818101604052810190620000379190620001c0565b62000069620000546200008a640100000000026401000000009004565b62000092640100000000026401000000009004565b620000838162000092640100000000026401000000009004565b50620001f2565b600033905090565b60008060009054906101000a900473ffffffffffffffffffffffffffffffffffffffff169050816000806101000a81548173ffffffffffffffffffffffffffffffffffffffff021916908373ffffffffffffffffffffffffffffffffffffffff1602179055508173ffffffffffffffffffffffffffffffffffffffff168173ffffffffffffffffffffffffffffffffffffffff167f8be0079c531659141344cd1fd0a4f28419497f9722a3daafe3b4186f6b6457e060405160405180910390a35050565b600080fd5b600073ffffffffffffffffffffffffffffffffffffffff82169050919050565b600062000188826200015b565b9050919050565b6200019a816200017b565b8114620001a657600080fd5b50565b600081519050620001ba816200018f565b92915050565b600060208284031215620001d957620001d862000156565b5b6000620001e984828501620001a9565b91505092915050565b6125ad80620002026000396000f3fe608060405234801561001057600080fd5b5060043610610133576000357c0100000000000000000000000000000000000000000000000000000000900480638da5cb5b116100bf578063c25f3cf61161008e578063c25f3cf6146102fc578063db4d7dcd1461032e578063e498116f1461034a578063f0744c1614610366578063f2fde38b1461038457610133565b80638da5cb5b146102625780638ecf772014610280578063945da9a1146102b05780639d58b15d146102e057610133565b806358a2d1371161010657806358a2d137146101be5780636465e69f146101da578063715018a6146101f8578063760b9c3414610202578063890222b61461023257610133565b806312ee7e411461013857806329adec14146101545780632b3e5ed91461017257806336048d5f1461018e575b600080fd5b610152600480360381019061014d9190611dec565b6103a0565b005b61015c6106bd565b6040516101699190611ea3565b60405180910390f35b61018c60048036038101906101879190611dec565b6106d0565b005b6101a860048036038101906101a39190611dec565b610a7a565b6040516101b59190611f4e565b60405180910390f35b6101d860048036038101906101d39190611f69565b610b59565b005b6101e2610fdd565b6040516101ef9190611fd1565b60405180910390f35b610200611005565b005b61021c60048036038101906102179190611f69565b61108d565b6040516102299190611ffb565b60405180910390f35b61024c60048036038101906102479190611dec565b6110d9565b6040516102599190612031565b60405180910390f35b61026a611108565b604051610277919061205b565b60405180910390f35b61029a60048036038101906102959190611dec565b611131565b6040516102a79190612031565b60405180910390f35b6102ca60048036038101906102c591906120a2565b6111f1565b6040516102d7919061205b565b60405180910390f35b6102fa60048036038101906102f59190611dec565b61126f565b005b61031660048036038101906103119190611f69565b6117ca565b604051610325939291906120e2565b60405180910390f35b61034860048036038101906103439190611dec565b611821565b005b610364600480360381019061035f9190611dec565b6119c9565b005b61036e611b71565b60405161037b9190611fd1565b60405180910390f35b61039e60048036038101906103999190611f69565b611b99565b005b8160011515600260008373ffffffffffffffffffffffffffffffffffffffff1673ffffffffffffffffffffffffffffffffffffffff16815260200190815260200160002060003373ffffffffffffffffffffffffffffffffffffffff1673ffffffffffffffffffffffffffffffffffffffff16815260200190815260200160002060009054906101000a900460ff161515148061046f5750610440611108565b73ffffffffffffffffffffffffffffffffffffffff163373ffffffffffffffffffffffffffffffffffffffff16145b6104ae576040517f08c379a00000000000000000000000000000000000000000000000000000000081526004016104a590612176565b60405180910390fd5b600160008473ffffffffffffffffffffffffffffffffffffffff1673ffffffffffffffffffffffffffffffffffffffff16815260200190815260200160002060040160009054906101000a900460ff161561053e576040517f08c379a0000000000000000000000000000000000000000000000000000000008152600401610535906121e2565b60405180910390fd5b60018060008573ffffffffffffffffffffffffffffffffffffffff1673ffffffffffffffffffffffffffffffffffffffff16815260200190815260200160002060040160006101000a81548160ff02191690831515021790555082600160008573ffffffffffffffffffffffffffffffffffffffff1673ffffffffffffffffffffffffffffffffffffffff16815260200190815260200160002060000160006101000a81548173ffffffffffffffffffffffffffffffffffffffff021916908373ffffffffffffffffffffffffffffffffffffffff160217905550610623838361126f565b6001600260008573ffffffffffffffffffffffffffffffffffffffff1673ffffffffffffffffffffffffffffffffffffffff16815260200190815260200160002060008473ffffffffffffffffffffffffffffffffffffffff1673ffffffffffffffffffffffffffffffffffffffff16815260200190815260200160002060006101000a81548160ff021916908315150217905550505050565b600060149054906101000a900460ff1681565b816003808111156106e4576106e3611e2c565b5b600160008373ffffffffffffffffffffffffffffffffffffffff1673ffffffffffffffffffffffffffffffffffffffff16815260200190815260200160002060030160003373ffffffffffffffffffffffffffffffffffffffff1673ffffffffffffffffffffffffffffffffffffffff16815260200190815260200160002060000160009054906101000a900460ff16600381111561078657610785611e2c565b5b148061081f575060011515600260008373ffffffffffffffffffffffffffffffffffffffff1673ffffffffffffffffffffffffffffffffffffffff16815260200190815260200160002060003373ffffffffffffffffffffffffffffffffffffffff1673ffffffffffffffffffffffffffffffffffffffff16815260200190815260200160002060009054906101000a900460ff161515145b8061085c575061082d611108565b73ffffffffffffffffffffffffffffffffffffffff163373ffffffffffffffffffffffffffffffffffffffff16145b61089b576040517f08c379a000000000000000000000000000000000000000000000000000000000815260040161089290612176565b60405180910390fd5b600260038111156108af576108ae611e2c565b5b600160008573ffffffffffffffffffffffffffffffffffffffff1673ffffffffffffffffffffffffffffffffffffffff16815260200190815260200160002060030160008473ffffffffffffffffffffffffffffffffffffffff1673ffffffffffffffffffffffffffffffffffffffff16815260200190815260200160002060000160009054906101000a900460ff16600381111561095157610950611e2c565b5b14610991576040517f08c379a00000000000000000000000000000000000000000000000000000000081526004016109889061224e565b60405180910390fd5b6003600160008573ffffffffffffffffffffffffffffffffffffffff1673ffffffffffffffffffffffffffffffffffffffff16815260200190815260200160002060030160008473ffffffffffffffffffffffffffffffffffffffff1673ffffffffffffffffffffffffffffffffffffffff16815260200190815260200160002060000160006101000a81548160ff02191690836003811115610a3757610a36611e2c565b5b02179055507f69d02d7fd90d09588f2ba0ea3c2ba06a591eda1b091ed67790e2b36fb339ac538233604051610a6d92919061226e565b60405180910390a1505050565b610a82611d5d565b600160008473ffffffffffffffffffffffffffffffffffffffff1673ffffffffffffffffffffffffffffffffffffffff16815260200190815260200160002060030160008373ffffffffffffffffffffffffffffffffffffffff1673ffffffffffffffffffffffffffffffffffffffff1681526020019081526020016000206040518060400160405290816000820160009054906101000a900460ff166003811115610b3157610b30611e2c565b5b6003811115610b4357610b42611e2c565b5b8152602001600182015481525050905092915050565b80600380811115610b6d57610b6c611e2c565b5b600160008373ffffffffffffffffffffffffffffffffffffffff1673ffffffffffffffffffffffffffffffffffffffff16815260200190815260200160002060030160003373ffffffffffffffffffffffffffffffffffffffff1673ffffffffffffffffffffffffffffffffffffffff16815260200190815260200160002060000160009054906101000a900460ff166003811115610c0f57610c0e611e2c565b5b1415610c50576040517f08c379a0000000000000000000000000000000000000000000000000000000008152600401610c4790612176565b60405180910390fd5b60006003811115610c6457610c63611e2c565b5b600160008473ffffffffffffffffffffffffffffffffffffffff1673ffffffffffffffffffffffffffffffffffffffff16815260200190815260200160002060030160003373ffffffffffffffffffffffffffffffffffffffff1673ffffffffffffffffffffffffffffffffffffffff16815260200190815260200160002060000160009054906101000a900460ff166003811115610d0657610d05611e2c565b5b14610d46576040517f08c379a0000000000000000000000000000000000000000000000000000000008152600401610d3d90612309565b60405180910390fd5b6002600160008473ffffffffffffffffffffffffffffffffffffffff1673ffffffffffffffffffffffffffffffffffffffff16815260200190815260200160002060030160003373ffffffffffffffffffffffffffffffffffffffff1673ffffffffffffffffffffffffffffffffffffffff16815260200190815260200160002060000160006101000a81548160ff02191690836003811115610dec57610deb611e2c565b5b021790555033600160008473ffffffffffffffffffffffffffffffffffffffff1673ffffffffffffffffffffffffffffffffffffffff1681526020019081526020016000206002016000600160008673ffffffffffffffffffffffffffffffffffffffff1673ffffffffffffffffffffffffffffffffffffffff16815260200190815260200160002060010154815260200190815260200160002060006101000a81548173ffffffffffffffffffffffffffffffffffffffff021916908373ffffffffffffffffffffffffffffffffffffffff16021790555042600160008473ffffffffffffffffffffffffffffffffffffffff1673ffffffffffffffffffffffffffffffffffffffff16815260200190815260200160002060030160003373ffffffffffffffffffffffffffffffffffffffff1673ffffffffffffffffffffffffffffffffffffffff16815260200190815260200160002060010181905550600160008373ffffffffffffffffffffffffffffffffffffffff1673ffffffffffffffffffffffffffffffffffffffff16815260200190815260200160002060010160008154610f9b90612358565b919050819055507fbed19f5b65ad42d891f94ee997a95c1c635d47af67169b52c2b2f0f823b7cd7133604051610fd1919061205b565b60405180910390a15050565b604051602001610fec906123ed565b6040516020818303038152906040528051906020012081565b61100d611c91565b73ffffffffffffffffffffffffffffffffffffffff1661102b611108565b73ffffffffffffffffffffffffffffffffffffffff1614611081576040517f08c379a000000000000000000000000000000000000000000000000000000000815260040161107890612459565b60405180910390fd5b61108b6000611c99565b565b6000600160008373ffffffffffffffffffffffffffffffffffffffff1673ffffffffffffffffffffffffffffffffffffffff168152602001908152602001600020600101549050919050565b60026020528160005260406000206020528060005260406000206000915091509054906101000a900460ff1681565b60008060009054906101000a900473ffffffffffffffffffffffffffffffffffffffff16905090565b600060038081111561114657611145611e2c565b5b600160008573ffffffffffffffffffffffffffffffffffffffff1673ffffffffffffffffffffffffffffffffffffffff16815260200190815260200160002060030160008473ffffffffffffffffffffffffffffffffffffffff1673ffffffffffffffffffffffffffffffffffffffff16815260200190815260200160002060000160009054906101000a900460ff1660038111156111e8576111e7611e2c565b5b14905092915050565b6000600160008473ffffffffffffffffffffffffffffffffffffffff1673ffffffffffffffffffffffffffffffffffffffff168152602001908152602001600020600201600083815260200190815260200160002060009054906101000a900473ffffffffffffffffffffffffffffffffffffffff16905092915050565b8160038081111561128357611282611e2c565b5b600160008373ffffffffffffffffffffffffffffffffffffffff1673ffffffffffffffffffffffffffffffffffffffff16815260200190815260200160002060030160003373ffffffffffffffffffffffffffffffffffffffff1673ffffffffffffffffffffffffffffffffffffffff16815260200190815260200160002060000160009054906101000a900460ff16600381111561132557611324611e2c565b5b14806113be575060011515600260008373ffffffffffffffffffffffffffffffffffffffff1673ffffffffffffffffffffffffffffffffffffffff16815260200190815260200160002060003373ffffffffffffffffffffffffffffffffffffffff1673ffffffffffffffffffffffffffffffffffffffff16815260200190815260200160002060009054906101000a900460ff161515145b806113fb57506113cc611108565b73ffffffffffffffffffffffffffffffffffffffff163373ffffffffffffffffffffffffffffffffffffffff16145b61143a576040517f08c379a000000000000000000000000000000000000000000000000000000000815260040161143190612176565b60405180910390fd5b6000600381111561144e5761144d611e2c565b5b600160008573ffffffffffffffffffffffffffffffffffffffff1673ffffffffffffffffffffffffffffffffffffffff16815260200190815260200160002060030160008473ffffffffffffffffffffffffffffffffffffffff1673ffffffffffffffffffffffffffffffffffffffff16815260200190815260200160002060000160009054906101000a900460ff1660038111156114f0576114ef611e2c565b5b14611530576040517f08c379a000000000000000000000000000000000000000000000000000000000815260040161152790612309565b60405180910390fd5b6003600160008573ffffffffffffffffffffffffffffffffffffffff1673ffffffffffffffffffffffffffffffffffffffff16815260200190815260200160002060030160008473ffffffffffffffffffffffffffffffffffffffff1673ffffffffffffffffffffffffffffffffffffffff16815260200190815260200160002060000160006101000a81548160ff021916908360038111156115d6576115d5611e2c565b5b021790555081600160008573ffffffffffffffffffffffffffffffffffffffff1673ffffffffffffffffffffffffffffffffffffffff1681526020019081526020016000206002016000600160008773ffffffffffffffffffffffffffffffffffffffff1673ffffffffffffffffffffffffffffffffffffffff16815260200190815260200160002060010154815260200190815260200160002060006101000a81548173ffffffffffffffffffffffffffffffffffffffff021916908373ffffffffffffffffffffffffffffffffffffffff16021790555042600160008573ffffffffffffffffffffffffffffffffffffffff1673ffffffffffffffffffffffffffffffffffffffff16815260200190815260200160002060030160008473ffffffffffffffffffffffffffffffffffffffff1673ffffffffffffffffffffffffffffffffffffffff16815260200190815260200160002060010181905550600160008473ffffffffffffffffffffffffffffffffffffffff1673ffffffffffffffffffffffffffffffffffffffff1681526020019081526020016000206001016000815461178590612358565b919050819055507f6a2af11b2d73f347f9d5840aea46899e17609730b5cd91bd9c312098038acba682336040516117bd92919061226e565b60405180910390a1505050565b60016020528060005260406000206000915090508060000160009054906101000a900473ffffffffffffffffffffffffffffffffffffffff16908060010154908060040160009054906101000a900460ff16905083565b8160011515600260008373ffffffffffffffffffffffffffffffffffffffff1673ffffffffffffffffffffffffffffffffffffffff16815260200190815260200160002060003373ffffffffffffffffffffffffffffffffffffffff1673ffffffffffffffffffffffffffffffffffffffff16815260200190815260200160002060009054906101000a900460ff16151514806118f057506118c1611108565b73ffffffffffffffffffffffffffffffffffffffff163373ffffffffffffffffffffffffffffffffffffffff16145b61192f576040517f08c379a000000000000000000000000000000000000000000000000000000000815260040161192690612176565b60405180910390fd5b6001600260008573ffffffffffffffffffffffffffffffffffffffff1673ffffffffffffffffffffffffffffffffffffffff16815260200190815260200160002060008473ffffffffffffffffffffffffffffffffffffffff1673ffffffffffffffffffffffffffffffffffffffff16815260200190815260200160002060006101000a81548160ff021916908315150217905550505050565b8160011515600260008373ffffffffffffffffffffffffffffffffffffffff1673ffffffffffffffffffffffffffffffffffffffff16815260200190815260200160002060003373ffffffffffffffffffffffffffffffffffffffff1673ffffffffffffffffffffffffffffffffffffffff16815260200190815260200160002060009054906101000a900460ff1615151480611a985750611a69611108565b73ffffffffffffffffffffffffffffffffffffffff163373ffffffffffffffffffffffffffffffffffffffff16145b611ad7576040517f08c379a0000000000000000000000000000000000000000000000000000000008152600401611ace90612176565b60405180910390fd5b6000600260008573ffffffffffffffffffffffffffffffffffffffff1673ffffffffffffffffffffffffffffffffffffffff16815260200190815260200160002060008473ffffffffffffffffffffffffffffffffffffffff1673ffffffffffffffffffffffffffffffffffffffff16815260200190815260200160002060006101000a81548160ff021916908315150217905550505050565b604051602001611b80906124c5565b6040516020818303038152906040528051906020012081565b611ba1611c91565b73ffffffffffffffffffffffffffffffffffffffff16611bbf611108565b73ffffffffffffffffffffffffffffffffffffffff1614611c15576040517f08c379a0000000000000000000000000000000000000000000000000000000008152600401611c0c90612459565b60405180910390fd5b600073ffffffffffffffffffffffffffffffffffffffff168173ffffffffffffffffffffffffffffffffffffffff161415611c85576040517f08c379a0000000000000000000000000000000000000000000000000000000008152600401611c7c90612557565b60405180910390fd5b611c8e81611c99565b50565b600033905090565b60008060009054906101000a900473ffffffffffffffffffffffffffffffffffffffff169050816000806101000a81548173ffffffffffffffffffffffffffffffffffffffff021916908373ffffffffffffffffffffffffffffffffffffffff1602179055508173ffffffffffffffffffffffffffffffffffffffff168173ffffffffffffffffffffffffffffffffffffffff167f8be0079c531659141344cd1fd0a4f28419497f9722a3daafe3b4186f6b6457e060405160405180910390a35050565b604051806040016040528060006003811115611d7c57611d7b611e2c565b5b8152602001600081525090565b600080fd5b600073ffffffffffffffffffffffffffffffffffffffff82169050919050565b6000611db982611d8e565b9050919050565b611dc981611dae565b8114611dd457600080fd5b50565b600081359050611de681611dc0565b92915050565b60008060408385031215611e0357611e02611d89565b5b6000611e1185828601611dd7565b9250506020611e2285828601611dd7565b9150509250929050565b7f4e487b7100000000000000000000000000000000000000000000000000000000600052602160045260246000fd5b60028110611e6c57611e6b611e2c565b5b50565b6000819050611e7d82611e5b565b919050565b6000611e8d82611e6f565b9050919050565b611e9d81611e82565b82525050565b6000602082019050611eb86000830184611e94565b92915050565b60048110611ecf57611ece611e2c565b5b50565b6000819050611ee082611ebe565b919050565b6000611ef082611ed2565b9050919050565b611f0081611ee5565b82525050565b6000819050919050565b611f1981611f06565b82525050565b604082016000820151611f356000850182611ef7565b506020820151611f486020850182611f10565b50505050565b6000604082019050611f636000830184611f1f565b92915050565b600060208284031215611f7f57611f7e611d89565b5b6000611f8d84828501611dd7565b91505092915050565b60007fffffffffffffffff00000000000000000000000000000000000000000000000082169050919050565b611fcb81611f96565b82525050565b6000602082019050611fe66000830184611fc2565b92915050565b611ff581611f06565b82525050565b60006020820190506120106000830184611fec565b92915050565b60008115159050919050565b61202b81612016565b82525050565b60006020820190506120466000830184612022565b92915050565b61205581611dae565b82525050565b6000602082019050612070600083018461204c565b92915050565b61207f81611f06565b811461208a57600080fd5b50565b60008135905061209c81612076565b92915050565b600080604083850312156120b9576120b8611d89565b5b60006120c785828601611dd7565b92505060206120d88582860161208d565b9150509250929050565b60006060820190506120f7600083018661204c565b6121046020830185611fec565b6121116040830184612022565b949350505050565b600082825260208201905092915050565b7f4e6f7420617574686f72697a6564000000000000000000000000000000000000600082015250565b6000612160600e83612119565b915061216b8261212a565b602082019050919050565b6000602082019050818103600083015261218f81612153565b9050919050565b7f44616f20616c7265616479206164646564000000000000000000000000000000600082015250565b60006121cc601183612119565b91506121d782612196565b602082019050919050565b600060208201905081810360008301526121fb816121bf565b9050919050565b7f496e76616c6964204d656d6265723a206d7573742062652061736b696e670000600082015250565b6000612238601e83612119565b915061224382612202565b602082019050919050565b600060208201905081810360008301526122678161222b565b9050919050565b6000604082019050612283600083018561204c565b612290602083018461204c565b9392505050565b7f496e76616c6964204d656d6265723a206d757374206265206e6f742061206d6560008201527f6d62657200000000000000000000000000000000000000000000000000000000602082015250565b60006122f3602483612119565b91506122fe82612297565b604082019050919050565b60006020820190508181036000830152612322816122e6565b9050919050565b7f4e487b7100000000000000000000000000000000000000000000000000000000600052601160045260246000fd5b600061236382611f06565b91507fffffffffffffffffffffffffffffffffffffffffffffffffffffffffffffffff82141561239657612395612329565b5b600182019050919050565b7f4d656d6265724d6f64756c650000000000000000000000000000000000000000600082015250565b60006123d7600c83612119565b91506123e2826123a1565b602082019050919050565b60006020820190508181036000830152612406816123ca565b9050919050565b7f4f776e61626c653a2063616c6c6572206973206e6f7420746865206f776e6572600082015250565b6000612443602083612119565b915061244e8261240d565b602082019050919050565b6000602082019050818103600083015261247281612436565b9050919050565b7f526571756573744d656d626572736869704d6f64756c65000000000000000000600082015250565b60006124af601783612119565b91506124ba82612479565b602082019050919050565b600060208201905081810360008301526124de816124a2565b9050919050565b7f4f776e61626c653a206e6577206f776e657220697320746865207a65726f206160008201527f6464726573730000000000000000000000000000000000000000000000000000602082015250565b6000612541602683612119565b915061254c826124e5565b604082019050919050565b6000602082019050818103600083015261257081612534565b905091905056fea2646970667358221220622b3dc5618bc5a724bed3de18e5976cd3a8b82958e3afedb5c0df730ef3332764736f6c63430008090033",
  "immutableReferences": {},
  "source": "// SPDX-License-Identifier: MIT\r\npragma solidity ^0.8.9;\r\n\r\nimport \"@openzeppelin/contracts/utils/math/SafeMath.sol\";\r\nimport \"@openzeppelin/contracts/access/Ownable.sol\";\r\nimport \"../../Data.sol\";\r\nimport \"../../DaoBase.sol\";\r\n\r\ncontract RequestMembershipModule is Ownable {\r\n    using SafeMath for uint256;\r\n\r\n    /// @notice store the module code hash\r\n    bytes8 public constant moduleCode = bytes8(keccak256(abi.encode(\"RequestMembershipModule\")));\r\n\r\n    /// @notice store the module type hash\r\n    bytes8 public constant moduleType = bytes8(keccak256(abi.encode(\"MemberModule\")));\r\n\r\n    /// @notice visibility of the members in MY-DAO\r\n    Data.visibilityEnum public visibility;\r\n\r\n    /**\r\n    * @notice store daos info\r\n    * @dev param address is address of the daoBase. return daoMember struct\r\n    */\r\n    mapping(address => Data.DaoMember) public daos;\r\n\r\n    /**\r\n    * @notice store daos info\r\n    * @dev param address is address of the daoBase. return daoMember struct\r\n    */\r\n    mapping(address => mapping(address => bool)) public authorizedAddress;\r\n\r\n    event MemberAdded(address newMember, address adderAddress);\r\n    event MemberAccepted(address newMember, address acceptorAddress);\r\n    event MemberInvited(address memberInvited, address memberInvitor);\r\n    event MemberJoined(address memberJoined);\r\n    event MemberAskedJoin(address memberRequestor);\r\n\r\n    /**\r\n    * @notice constructor change the owner to be the DaosFactory\r\n    * @dev param 0 address of the DaosFactory\r\n    */\r\n    constructor(address _contractFactory) {\r\n        _transferOwnership(_contractFactory);\r\n    }\r\n\r\n    /**\r\n    * @notice check msg.sender is member or authorized\r\n    * @dev param 0 address of the DaosFactory\r\n    */\r\n    modifier onlyActiveMembersOrAuthorizeAddress(address _contractDao) {\r\n        require(daos[_contractDao].members[msg.sender].status == Data.memberStatus.active \r\n        || authorizedAddress[_contractDao][msg.sender] == true\r\n        || msg.sender == owner(), \"Not authorized\");\r\n        _;\r\n    }\r\n\r\n\r\n    /**\r\n    * @notice check msg.sender is not a member\r\n    * @dev param 0 address of the DaosFactory\r\n    */\r\n    modifier onlyNotActiveMembers(address _contractDao) {\r\n        require(daos[_contractDao].members[msg.sender].status != Data.memberStatus.active, \"Not authorized\");\r\n        _;\r\n    }\r\n\r\n\r\n    /**\r\n    * @notice check msg.sender is authorized\r\n    * @dev param 0 address of the DaosFactory\r\n    */\r\n    modifier onlyAuthorizeAddress(address _contractDao) {\r\n        require(authorizedAddress[_contractDao][msg.sender] == true, \"Not authorized\");\r\n        _;\r\n    }\r\n\r\n    /**\r\n    * @notice check msg.sender is authorized or the owner\r\n    * @dev param 0 address of the DaosFactory\r\n    */\r\n    modifier onlyAuthorizeAddressOrOwner(address _contractDao) {\r\n        require(authorizedAddress[_contractDao][msg.sender] == true || msg.sender == owner(), \"Not authorized\");\r\n        _;\r\n    }\r\n\r\n    /**\r\n    * @notice get info of a member in a dao\r\n    * @param _contractDao address of the dao\r\n    * @param _member address of the member\r\n    * @return member struct taht store info of the member see ../../Data.sol\r\n    */\r\n    function getMemberInfo(address _contractDao, address _member) external view returns(Data.member memory) {\r\n        return(daos[_contractDao].members[_member]);\r\n    }\r\n\r\n    /**\r\n    * @notice get address of a member in a dao by his id\r\n    * @param _contractDao address of the dao\r\n    * @param _id id of the member\r\n    * @return member address of the member\r\n    */\r\n    function getAddrById(address _contractDao, uint256 _id) external view returns(address) {\r\n        return daos[_contractDao].memberAddresses[_id];\r\n    }\r\n\r\n    /**\r\n    * @notice get the total member of the dao\r\n    * @param _contractDao address of the dao\r\n    * @return count uint256 of the total member in the dao\r\n    */\r\n    function getMembersCount(address _contractDao) external view returns(uint256) {\r\n        return daos[_contractDao].membersCount;\r\n    }\r\n\r\n    /**\r\n    * @notice add member to the dao\r\n    * @dev only active member or authorized address can execute this function\r\n    * @param _contractDao address of the dao\r\n    * @param _addressMember address of the user that will be added\r\n    */\r\n    function addMember(address _contractDao, address _addressMember) public onlyActiveMembersOrAuthorizeAddress(_contractDao) {\r\n        require(daos[_contractDao].members[_addressMember].status == Data.memberStatus.notMember\r\n            , \"Invalid Member: must be not a member\");\r\n        daos[_contractDao].members[_addressMember].status = Data.memberStatus.active;\r\n        daos[_contractDao].memberAddresses[daos[_contractDao].membersCount] = _addressMember;\r\n        daos[_contractDao].members[_addressMember].joinTime = block.timestamp;\r\n        ++daos[_contractDao].membersCount;\r\n        emit MemberAdded(_addressMember, msg.sender);\r\n    }\r\n\r\n    /**\r\n    * @notice accept member to the dao\r\n    * @dev only active member or authorized address can execute this function\r\n    * @param _contractDao address of the dao\r\n    * @param _addressMember address of the user that will be accepted\r\n    */\r\n    function acceptMember(address _contractDao, address _addressMember) public onlyActiveMembersOrAuthorizeAddress(_contractDao) {\r\n        require(daos[_contractDao].members[_addressMember].status == Data.memberStatus.asking\r\n            , \"Invalid Member: must be asking\");\r\n        daos[_contractDao].members[_addressMember].status = Data.memberStatus.active;\r\n        emit MemberAccepted(_addressMember, msg.sender);\r\n    }\r\n\r\n    /**\r\n    * @notice request to be a member of the dao\r\n    * @dev only not active member can execute this function\r\n    * @param _contractDao address of the dao\r\n    */\r\n    function requestJoin(address _contractDao) public onlyNotActiveMembers(_contractDao) {\r\n        require(daos[_contractDao].members[msg.sender].status == Data.memberStatus.notMember\r\n            , \"Invalid Member: must be not a member\");\r\n        daos[_contractDao].members[msg.sender].status = Data.memberStatus.asking;\r\n        daos[_contractDao].memberAddresses[daos[_contractDao].membersCount] = msg.sender;\r\n        daos[_contractDao].members[msg.sender].joinTime = block.timestamp;\r\n        ++daos[_contractDao].membersCount;\r\n        emit MemberAskedJoin(msg.sender);\r\n    }\r\n\r\n    /**\r\n    * @notice return if a address is member of a dao\r\n    * @param _contractDao address of the dao\r\n    * @param _addressMember address of the user to check\r\n    * @return bool true or false if is active\r\n    */\r\n    function isActiveMember(address _contractDao, address _addressMember) public view returns (bool){\r\n        return daos[_contractDao].members[_addressMember].status == Data.memberStatus.active;\r\n    }\r\n\r\n    /**\r\n    * @notice link a dao to SimpleDonationsModule\r\n    * @param _contractDao address of the dao\r\n    * @param _memberDao address of the user of the dao in this case the owner of the dao\r\n    */\r\n    function addDao(address _contractDao, address _memberDao) external onlyAuthorizeAddressOrOwner(_contractDao) {\r\n        require(!daos[_contractDao].isActive, \"Dao already added\");\r\n        daos[_contractDao].isActive = true;\r\n        daos[_contractDao].addressDao = _contractDao;\r\n        addMember(_contractDao, _memberDao);\r\n         authorizedAddress[_contractDao][_memberDao] = true;\r\n    }\r\n\r\n    /**\r\n    * @notice authorize a new address\r\n    * @param _contractDao address of the dao\r\n    * @param _contractAddress address that will be authorized\r\n    */\r\n    function authorizeAddress(address _contractDao, address _contractAddress) external onlyAuthorizeAddressOrOwner(_contractDao) {\r\n        authorizedAddress[_contractDao][_contractAddress] = true;\r\n    }\r\n\r\n    /**\r\n    * @notice deny a authorized address\r\n    * @param _contractDao address of the dao\r\n    * @param _contractAddress address that will be deny\r\n    */\r\n    function denyAddress(address _contractDao, address _contractAddress) external onlyAuthorizeAddressOrOwner(_contractDao) {\r\n        authorizedAddress[_contractDao][_contractAddress] = false;\r\n    }\r\n}",
  "sourcePath": "C:\\Users\\mdmou\\source\\repos\\MY-DAO\\contracts\\Modules\\Implementations\\RequestMembershipModule.sol",
  "compiler": {
    "name": "solc",
    "version": "0.8.9+commit.e5eed63a.Emscripten.clang"
  },
  "schemaVersion": "3.4.4",
  "updatedAt": "2022-05-23T15:43:19.081Z",
  "networkType": "ethereum",
  "devdoc": {
    "kind": "dev",
    "methods": {
      "acceptMember(address,address)": {
        "details": "only active member or authorized address can execute this function",
        "params": {
          "_addressMember": "address of the user that will be accepted",
          "_contractDao": "address of the dao"
        }
      },
      "addDao(address,address)": {
        "params": {
          "_contractDao": "address of the dao",
          "_memberDao": "address of the user of the dao in this case the owner of the dao"
        }
      },
      "addMember(address,address)": {
        "details": "only active member or authorized address can execute this function",
        "params": {
          "_addressMember": "address of the user that will be added",
          "_contractDao": "address of the dao"
        }
      },
      "authorizeAddress(address,address)": {
        "params": {
          "_contractAddress": "address that will be authorized",
          "_contractDao": "address of the dao"
        }
      },
      "constructor": {
        "details": "param 0 address of the DaosFactory"
      },
      "denyAddress(address,address)": {
        "params": {
          "_contractAddress": "address that will be deny",
          "_contractDao": "address of the dao"
        }
      },
      "getAddrById(address,uint256)": {
        "params": {
          "_contractDao": "address of the dao",
          "_id": "id of the member"
        },
        "returns": {
          "_0": "member address of the member"
        }
      },
      "getMemberInfo(address,address)": {
        "params": {
          "_contractDao": "address of the dao",
          "_member": "address of the member"
        },
        "returns": {
          "_0": "member struct taht store info of the member see ../../Data.sol"
        }
      },
      "getMembersCount(address)": {
        "params": {
          "_contractDao": "address of the dao"
        },
        "returns": {
          "_0": "count uint256 of the total member in the dao"
        }
      },
      "isActiveMember(address,address)": {
        "params": {
          "_addressMember": "address of the user to check",
          "_contractDao": "address of the dao"
        },
        "returns": {
          "_0": "bool true or false if is active"
        }
      },
      "owner()": {
        "details": "Returns the address of the current owner."
      },
      "renounceOwnership()": {
        "details": "Leaves the contract without owner. It will not be possible to call `onlyOwner` functions anymore. Can only be called by the current owner. NOTE: Renouncing ownership will leave the contract without an owner, thereby removing any functionality that is only available to the owner."
      },
      "requestJoin(address)": {
        "details": "only not active member can execute this function",
        "params": {
          "_contractDao": "address of the dao"
        }
      },
      "transferOwnership(address)": {
        "details": "Transfers ownership of the contract to a new account (`newOwner`). Can only be called by the current owner."
      }
    },
    "stateVariables": {
      "authorizedAddress": {
        "details": "param address is address of the daoBase. return daoMember struct"
      },
      "daos": {
        "details": "param address is address of the daoBase. return daoMember struct"
      }
    },
    "version": 1
  },
  "userdoc": {
    "kind": "user",
    "methods": {
      "acceptMember(address,address)": {
        "notice": "accept member to the dao"
      },
      "addDao(address,address)": {
        "notice": "link a dao to SimpleDonationsModule"
      },
      "addMember(address,address)": {
        "notice": "add member to the dao"
      },
      "authorizeAddress(address,address)": {
        "notice": "authorize a new address"
      },
      "authorizedAddress(address,address)": {
        "notice": "store daos info"
      },
      "constructor": {
        "notice": "constructor change the owner to be the DaosFactory"
      },
      "daos(address)": {
        "notice": "store daos info"
      },
      "denyAddress(address,address)": {
        "notice": "deny a authorized address"
      },
      "getAddrById(address,uint256)": {
        "notice": "get address of a member in a dao by his id"
      },
      "getMemberInfo(address,address)": {
        "notice": "get info of a member in a dao"
      },
      "getMembersCount(address)": {
        "notice": "get the total member of the dao"
      },
      "isActiveMember(address,address)": {
        "notice": "return if a address is member of a dao"
      },
      "moduleCode()": {
        "notice": "store the module code hash"
      },
      "moduleType()": {
        "notice": "store the module type hash"
      },
      "requestJoin(address)": {
        "notice": "request to be a member of the dao"
      },
      "visibility()": {
        "notice": "visibility of the members in MY-DAO"
      }
    },
    "version": 1
  }
}