{
  "contractName": "SimpleDonationsModule",
  "abi": [
    {
      "inputs": [
        {
          "internalType": "address",
          "name": "_contractFactory",
          "type": "address"
        }
      ],
      "stateMutability": "nonpayable",
      "type": "constructor"
    },
    {
      "anonymous": false,
      "inputs": [
        {
          "indexed": false,
          "internalType": "address",
          "name": "contractDao",
          "type": "address"
        },
        {
          "indexed": false,
          "internalType": "address",
          "name": "receiver",
          "type": "address"
        },
        {
          "indexed": false,
          "internalType": "uint256",
          "name": "startTime",
          "type": "uint256"
        },
        {
          "indexed": false,
          "internalType": "uint256",
          "name": "endTime",
          "type": "uint256"
        }
      ],
      "name": "CreateNewDonations",
      "type": "event"
    },
    {
      "anonymous": false,
      "inputs": [
        {
          "indexed": false,
          "internalType": "address",
          "name": "contractDao",
          "type": "address"
        },
        {
          "indexed": false,
          "internalType": "uint256",
          "name": "nonce",
          "type": "uint256"
        },
        {
          "indexed": false,
          "internalType": "uint256",
          "name": "amount",
          "type": "uint256"
        }
      ],
      "name": "NewDonation",
      "type": "event"
    },
    {
      "anonymous": false,
      "inputs": [
        {
          "indexed": true,
          "internalType": "address",
          "name": "previousOwner",
          "type": "address"
        },
        {
          "indexed": true,
          "internalType": "address",
          "name": "newOwner",
          "type": "address"
        }
      ],
      "name": "OwnershipTransferred",
      "type": "event"
    },
    {
      "inputs": [
        {
          "internalType": "address",
          "name": "",
          "type": "address"
        },
        {
          "internalType": "address",
          "name": "",
          "type": "address"
        }
      ],
      "name": "authorizedAddress",
      "outputs": [
        {
          "internalType": "bool",
          "name": "",
          "type": "bool"
        }
      ],
      "stateMutability": "view",
      "type": "function",
      "constant": true
    },
    {
      "inputs": [
        {
          "internalType": "address",
          "name": "",
          "type": "address"
        },
        {
          "internalType": "uint256",
          "name": "",
          "type": "uint256"
        }
      ],
      "name": "daoDonations",
      "outputs": [
        {
          "internalType": "uint256",
          "name": "id",
          "type": "uint256"
        },
        {
          "internalType": "uint256",
          "name": "funds",
          "type": "uint256"
        },
        {
          "internalType": "address",
          "name": "receiverFunds",
          "type": "address"
        },
        {
          "internalType": "uint256",
          "name": "donationsCount",
          "type": "uint256"
        },
        {
          "internalType": "uint256",
          "name": "startTime",
          "type": "uint256"
        },
        {
          "internalType": "uint256",
          "name": "endTime",
          "type": "uint256"
        },
        {
          "internalType": "bool",
          "name": "isActive",
          "type": "bool"
        }
      ],
      "stateMutability": "view",
      "type": "function",
      "constant": true
    },
    {
      "inputs": [
        {
          "internalType": "address",
          "name": "",
          "type": "address"
        }
      ],
      "name": "daos",
      "outputs": [
        {
          "internalType": "address",
          "name": "addressDao",
          "type": "address"
        },
        {
          "internalType": "bool",
          "name": "isActive",
          "type": "bool"
        }
      ],
      "stateMutability": "view",
      "type": "function",
      "constant": true
    },
    {
      "inputs": [],
      "name": "moduleCode",
      "outputs": [
        {
          "internalType": "bytes8",
          "name": "",
          "type": "bytes8"
        }
      ],
      "stateMutability": "view",
      "type": "function",
      "constant": true
    },
    {
      "inputs": [],
      "name": "moduleType",
      "outputs": [
        {
          "internalType": "bytes8",
          "name": "",
          "type": "bytes8"
        }
      ],
      "stateMutability": "view",
      "type": "function",
      "constant": true
    },
    {
      "inputs": [
        {
          "internalType": "address",
          "name": "",
          "type": "address"
        }
      ],
      "name": "nonce",
      "outputs": [
        {
          "internalType": "uint256",
          "name": "",
          "type": "uint256"
        }
      ],
      "stateMutability": "view",
      "type": "function",
      "constant": true
    },
    {
      "inputs": [],
      "name": "owner",
      "outputs": [
        {
          "internalType": "address",
          "name": "",
          "type": "address"
        }
      ],
      "stateMutability": "view",
      "type": "function",
      "constant": true
    },
    {
      "inputs": [],
      "name": "renounceOwnership",
      "outputs": [],
      "stateMutability": "nonpayable",
      "type": "function"
    },
    {
      "inputs": [
        {
          "internalType": "address",
          "name": "newOwner",
          "type": "address"
        }
      ],
      "name": "transferOwnership",
      "outputs": [],
      "stateMutability": "nonpayable",
      "type": "function"
    },
    {
      "inputs": [
        {
          "internalType": "address",
          "name": "_contractDao",
          "type": "address"
        },
        {
          "internalType": "address",
          "name": "_memberDao",
          "type": "address"
        }
      ],
      "name": "addDao",
      "outputs": [],
      "stateMutability": "nonpayable",
      "type": "function"
    },
    {
      "inputs": [
        {
          "internalType": "address",
          "name": "_contractDao",
          "type": "address"
        },
        {
          "internalType": "address",
          "name": "_contractAddress",
          "type": "address"
        }
      ],
      "name": "authorizeAddress",
      "outputs": [],
      "stateMutability": "nonpayable",
      "type": "function"
    },
    {
      "inputs": [
        {
          "internalType": "address",
          "name": "_contractDao",
          "type": "address"
        },
        {
          "internalType": "address",
          "name": "_contractAddress",
          "type": "address"
        }
      ],
      "name": "denyAddress",
      "outputs": [],
      "stateMutability": "nonpayable",
      "type": "function"
    },
    {
      "inputs": [
        {
          "internalType": "address",
          "name": "_contractDao",
          "type": "address"
        },
        {
          "internalType": "address",
          "name": "_receiver",
          "type": "address"
        },
        {
          "internalType": "uint256",
          "name": "_startTime",
          "type": "uint256"
        },
        {
          "internalType": "uint256",
          "name": "_endTime",
          "type": "uint256"
        }
      ],
      "name": "createNewDonation",
      "outputs": [],
      "stateMutability": "nonpayable",
      "type": "function"
    },
    {
      "inputs": [
        {
          "internalType": "address",
          "name": "_contractDao",
          "type": "address"
        },
        {
          "internalType": "uint256",
          "name": "_nonce",
          "type": "uint256"
        }
      ],
      "name": "donate",
      "outputs": [],
      "stateMutability": "payable",
      "type": "function",
      "payable": true
    },
    {
      "inputs": [
        {
          "internalType": "address",
          "name": "_contractDao",
          "type": "address"
        },
        {
          "internalType": "uint256",
          "name": "_nonce",
          "type": "uint256"
        }
      ],
      "name": "sendFunds",
      "outputs": [],
      "stateMutability": "nonpayable",
      "type": "function"
    }
  ],
  "bytecode": "0x60806040523480156200001157600080fd5b5060405162002926380380620029268339818101604052810190620000379190620001c7565b620000696200005462000091640100000000026401000000009004565b62000099640100000000026401000000009004565b600180819055506200008a8162000099640100000000026401000000009004565b50620001f9565b600033905090565b60008060009054906101000a900473ffffffffffffffffffffffffffffffffffffffff169050816000806101000a81548173ffffffffffffffffffffffffffffffffffffffff021916908373ffffffffffffffffffffffffffffffffffffffff1602179055508173ffffffffffffffffffffffffffffffffffffffff168173ffffffffffffffffffffffffffffffffffffffff167f8be0079c531659141344cd1fd0a4f28419497f9722a3daafe3b4186f6b6457e060405160405180910390a35050565b600080fd5b600073ffffffffffffffffffffffffffffffffffffffff82169050919050565b60006200018f8262000162565b9050919050565b620001a18162000182565b8114620001ad57600080fd5b50565b600081519050620001c18162000196565b92915050565b600060208284031215620001e057620001df6200015d565b5b6000620001f084828501620001b0565b91505092915050565b61271d80620002096000396000f3fe608060405260043610610105576000357c010000000000000000000000000000000000000000000000000000000090048063c25f3cf6116100a7578063e498116f11610076578063e498116f14610316578063e69d849d1461033f578063f0744c161461035b578063f2fde38b1461038657610105565b8063c25f3cf614610243578063c758841d14610281578063cd9a0dd5146102c4578063db4d7dcd146102ed57610105565b806370ae92d2116100e357806370ae92d214610187578063715018a6146101c4578063890222b6146101db5780638da5cb5b1461021857610105565b806312ee7e411461010a5780636465e69f146101335780636f64234e1461015e575b600080fd5b34801561011657600080fd5b50610131600480360381019061012c9190611a3d565b6103af565b005b34801561013f57600080fd5b5061014861085a565b6040516101559190611ab8565b60405180910390f35b34801561016a57600080fd5b5061018560048036038101906101809190611b09565b610882565b005b34801561019357600080fd5b506101ae60048036038101906101a99190611b49565b610be2565b6040516101bb9190611b85565b60405180910390f35b3480156101d057600080fd5b506101d9610bfa565b005b3480156101e757600080fd5b5061020260048036038101906101fd9190611a3d565b610c82565b60405161020f9190611bbb565b60405180910390f35b34801561022457600080fd5b5061022d610cb1565b60405161023a9190611be5565b60405180910390f35b34801561024f57600080fd5b5061026a60048036038101906102659190611b49565b610cda565b604051610278929190611c00565b60405180910390f35b34801561028d57600080fd5b506102a860048036038101906102a39190611b09565b610d2b565b6040516102bb9796959493929190611c29565b60405180910390f35b3480156102d057600080fd5b506102eb60048036038101906102e69190611c98565b610da7565b005b3480156102f957600080fd5b50610314600480360381019061030f9190611a3d565b61116e565b005b34801561032257600080fd5b5061033d60048036038101906103389190611a3d565b611316565b005b61035960048036038101906103549190611b09565b6114be565b005b34801561036757600080fd5b50610370611774565b60405161037d9190611ab8565b60405180910390f35b34801561039257600080fd5b506103ad60048036038101906103a89190611b49565b61179c565b005b8160011515600360008373ffffffffffffffffffffffffffffffffffffffff1673ffffffffffffffffffffffffffffffffffffffff16815260200190815260200160002060003373ffffffffffffffffffffffffffffffffffffffff1673ffffffffffffffffffffffffffffffffffffffff16815260200190815260200160002060009054906101000a900460ff161515148061047e575061044f610cb1565b73ffffffffffffffffffffffffffffffffffffffff163373ffffffffffffffffffffffffffffffffffffffff16145b6104bd576040517f08c379a00000000000000000000000000000000000000000000000000000000081526004016104b490611d5c565b60405180910390fd5b600260008473ffffffffffffffffffffffffffffffffffffffff1673ffffffffffffffffffffffffffffffffffffffff16815260200190815260200160002060000160149054906101000a900460ff161561054d576040517f08c379a000000000000000000000000000000000000000000000000000000000815260040161054490611dc8565b60405180910390fd5b6001600260008573ffffffffffffffffffffffffffffffffffffffff1673ffffffffffffffffffffffffffffffffffffffff16815260200190815260200160002060000160146101000a81548160ff02191690831515021790555082600260008573ffffffffffffffffffffffffffffffffffffffff1673ffffffffffffffffffffffffffffffffffffffff16815260200190815260200160002060000160006101000a81548173ffffffffffffffffffffffffffffffffffffffff021916908373ffffffffffffffffffffffffffffffffffffffff1602179055506000600660008573ffffffffffffffffffffffffffffffffffffffff1673ffffffffffffffffffffffffffffffffffffffff168152602001908152602001600020819055506001600360008573ffffffffffffffffffffffffffffffffffffffff1673ffffffffffffffffffffffffffffffffffffffff16815260200190815260200160002060008473ffffffffffffffffffffffffffffffffffffffff1673ffffffffffffffffffffffffffffffffffffffff16815260200190815260200160002060006101000a81548160ff0219169083151502179055508273ffffffffffffffffffffffffffffffffffffffff16636323997760405160200161072e90611e34565b6040516020818303038152906040528051906020012060006040518363ffffffff167c010000000000000000000000000000000000000000000000000000000002815260040161077f929190611e99565b60006040518083038186803b15801561079757600080fd5b505afa1580156107ab573d6000803e3d6000fd5b505050506040513d6000823e3d601f19601f820116820180604052508101906107d49190612188565b60200151600460008573ffffffffffffffffffffffffffffffffffffffff1673ffffffffffffffffffffffffffffffffffffffff16815260200190815260200160002060006101000a81548173ffffffffffffffffffffffffffffffffffffffff021916908373ffffffffffffffffffffffffffffffffffffffff160217905550505050565b6040516020016108699061221d565b6040516020818303038152906040528051906020012081565b600260015414156108c8576040517f08c379a00000000000000000000000000000000000000000000000000000000081526004016108bf90612289565b60405180910390fd5b60026001819055506000600560008473ffffffffffffffffffffffffffffffffffffffff1673ffffffffffffffffffffffffffffffffffffffff16815260200190815260200160002060008381526020019081526020016000206040518060e001604052908160008201548152602001600182015481526020016002820160009054906101000a900473ffffffffffffffffffffffffffffffffffffffff1673ffffffffffffffffffffffffffffffffffffffff1673ffffffffffffffffffffffffffffffffffffffff1681526020016003820154815260200160048201548152602001600582015481526020016006820160009054906101000a900460ff1615151515815250509050428160a0015110610a18576040517f08c379a0000000000000000000000000000000000000000000000000000000008152600401610a0f906122f5565b60405180910390fd5b6000816040015173ffffffffffffffffffffffffffffffffffffffff168260200151604051610a4690612346565b60006040518083038185875af1925050503d8060008114610a83576040519150601f19603f3d011682016040523d82523d6000602084013e610a88565b606091505b5050905080610acc576040517f08c379a0000000000000000000000000000000000000000000000000000000008152600401610ac3906123a7565b60405180910390fd5b600082602001818152505060008260c001901515908115158152505081600560008673ffffffffffffffffffffffffffffffffffffffff1673ffffffffffffffffffffffffffffffffffffffff1681526020019081526020016000206000858152602001908152602001600020600082015181600001556020820151816001015560408201518160020160006101000a81548173ffffffffffffffffffffffffffffffffffffffff021916908373ffffffffffffffffffffffffffffffffffffffff160217905550606082015181600301556080820151816004015560a0820151816005015560c08201518160060160006101000a81548160ff0219169083151502179055509050505050600180819055505050565b60066020528060005260406000206000915090505481565b610c02611894565b73ffffffffffffffffffffffffffffffffffffffff16610c20610cb1565b73ffffffffffffffffffffffffffffffffffffffff1614610c76576040517f08c379a0000000000000000000000000000000000000000000000000000000008152600401610c6d90612413565b60405180910390fd5b610c80600061189c565b565b60036020528160005260406000206020528060005260406000206000915091509054906101000a900460ff1681565b60008060009054906101000a900473ffffffffffffffffffffffffffffffffffffffff16905090565b60026020528060005260406000206000915090508060000160009054906101000a900473ffffffffffffffffffffffffffffffffffffffff16908060000160149054906101000a900460ff16905082565b6005602052816000526040600020602052806000526040600020600091509150508060000154908060010154908060020160009054906101000a900473ffffffffffffffffffffffffffffffffffffffff16908060030154908060040154908060050154908060060160009054906101000a900460ff16905087565b8360011515600360008373ffffffffffffffffffffffffffffffffffffffff1673ffffffffffffffffffffffffffffffffffffffff16815260200190815260200160002060003373ffffffffffffffffffffffffffffffffffffffff1673ffffffffffffffffffffffffffffffffffffffff16815260200190815260200160002060009054906101000a900460ff1615151480610e765750610e47610cb1565b73ffffffffffffffffffffffffffffffffffffffff163373ffffffffffffffffffffffffffffffffffffffff16145b610eb5576040517f08c379a0000000000000000000000000000000000000000000000000000000008152600401610eac90611d5c565b60405180910390fd5b610ebd611976565b600660008773ffffffffffffffffffffffffffffffffffffffff1673ffffffffffffffffffffffffffffffffffffffff1681526020019081526020016000205481600001818152505084816040019073ffffffffffffffffffffffffffffffffffffffff16908173ffffffffffffffffffffffffffffffffffffffff168152505060008160600181815250506000816020018181525050428411610f615742610f63565b835b816080018181525050428311610f8e57610f8962093a804261196090919063ffffffff16565b610f90565b825b8160a001818152505060018160c001901515908115158152505080600560008873ffffffffffffffffffffffffffffffffffffffff1673ffffffffffffffffffffffffffffffffffffffff1681526020019081526020016000206000600660008a73ffffffffffffffffffffffffffffffffffffffff1673ffffffffffffffffffffffffffffffffffffffff168152602001908152602001600020548152602001908152602001600020600082015181600001556020820151816001015560408201518160020160006101000a81548173ffffffffffffffffffffffffffffffffffffffff021916908373ffffffffffffffffffffffffffffffffffffffff160217905550606082015181600301556080820151816004015560a0820151816005015560c08201518160060160006101000a81548160ff021916908315150217905550905050600660008773ffffffffffffffffffffffffffffffffffffffff1673ffffffffffffffffffffffffffffffffffffffff1681526020019081526020016000206000815461112290612462565b919050819055507f018a52427bc41002a9ba51eb6f1477c0643d7514934f9b060b88795a74b8aebc8686868660405161115e94939291906124ab565b60405180910390a1505050505050565b8160011515600360008373ffffffffffffffffffffffffffffffffffffffff1673ffffffffffffffffffffffffffffffffffffffff16815260200190815260200160002060003373ffffffffffffffffffffffffffffffffffffffff1673ffffffffffffffffffffffffffffffffffffffff16815260200190815260200160002060009054906101000a900460ff161515148061123d575061120e610cb1565b73ffffffffffffffffffffffffffffffffffffffff163373ffffffffffffffffffffffffffffffffffffffff16145b61127c576040517f08c379a000000000000000000000000000000000000000000000000000000000815260040161127390611d5c565b60405180910390fd5b6001600360008573ffffffffffffffffffffffffffffffffffffffff1673ffffffffffffffffffffffffffffffffffffffff16815260200190815260200160002060008473ffffffffffffffffffffffffffffffffffffffff1673ffffffffffffffffffffffffffffffffffffffff16815260200190815260200160002060006101000a81548160ff021916908315150217905550505050565b8160011515600360008373ffffffffffffffffffffffffffffffffffffffff1673ffffffffffffffffffffffffffffffffffffffff16815260200190815260200160002060003373ffffffffffffffffffffffffffffffffffffffff1673ffffffffffffffffffffffffffffffffffffffff16815260200190815260200160002060009054906101000a900460ff16151514806113e557506113b6610cb1565b73ffffffffffffffffffffffffffffffffffffffff163373ffffffffffffffffffffffffffffffffffffffff16145b611424576040517f08c379a000000000000000000000000000000000000000000000000000000000815260040161141b90611d5c565b60405180910390fd5b6000600360008573ffffffffffffffffffffffffffffffffffffffff1673ffffffffffffffffffffffffffffffffffffffff16815260200190815260200160002060008473ffffffffffffffffffffffffffffffffffffffff1673ffffffffffffffffffffffffffffffffffffffff16815260200190815260200160002060006101000a81548160ff021916908315150217905550505050565b6000600560008473ffffffffffffffffffffffffffffffffffffffff1673ffffffffffffffffffffffffffffffffffffffff16815260200190815260200160002060008381526020019081526020016000206040518060e001604052908160008201548152602001600182015481526020016002820160009054906101000a900473ffffffffffffffffffffffffffffffffffffffff1673ffffffffffffffffffffffffffffffffffffffff1673ffffffffffffffffffffffffffffffffffffffff1681526020016003820154815260200160048201548152602001600582015481526020016006820160009054906101000a900460ff1615151515815250509050428160a0015111611606576040517f08c379a00000000000000000000000000000000000000000000000000000000081526004016115fd9061253c565b60405180910390fd5b61161d34826020015161196090919063ffffffff16565b81602001818152505061163e6001826060015161196090919063ffffffff16565b81606001818152505080600560008573ffffffffffffffffffffffffffffffffffffffff1673ffffffffffffffffffffffffffffffffffffffff1681526020019081526020016000206000848152602001908152602001600020600082015181600001556020820151816001015560408201518160020160006101000a81548173ffffffffffffffffffffffffffffffffffffffff021916908373ffffffffffffffffffffffffffffffffffffffff160217905550606082015181600301556080820151816004015560a0820151816005015560c08201518160060160006101000a81548160ff0219169083151502179055509050507f0d968ed0843603b466b27a4b0092affa11344caafe6d80e695c16ef623fd42bd8383346040516117679392919061255c565b60405180910390a1505050565b604051602001611783906125df565b6040516020818303038152906040528051906020012081565b6117a4611894565b73ffffffffffffffffffffffffffffffffffffffff166117c2610cb1565b73ffffffffffffffffffffffffffffffffffffffff1614611818576040517f08c379a000000000000000000000000000000000000000000000000000000000815260040161180f90612413565b60405180910390fd5b600073ffffffffffffffffffffffffffffffffffffffff168173ffffffffffffffffffffffffffffffffffffffff161415611888576040517f08c379a000000000000000000000000000000000000000000000000000000000815260040161187f90612671565b60405180910390fd5b6118918161189c565b50565b600033905090565b60008060009054906101000a900473ffffffffffffffffffffffffffffffffffffffff169050816000806101000a81548173ffffffffffffffffffffffffffffffffffffffff021916908373ffffffffffffffffffffffffffffffffffffffff1602179055508173ffffffffffffffffffffffffffffffffffffffff168173ffffffffffffffffffffffffffffffffffffffff167f8be0079c531659141344cd1fd0a4f28419497f9722a3daafe3b4186f6b6457e060405160405180910390a35050565b6000818361196e9190612691565b905092915050565b6040518060e001604052806000815260200160008152602001600073ffffffffffffffffffffffffffffffffffffffff1681526020016000815260200160008152602001600081526020016000151581525090565b6000604051905090565b600080fd5b600080fd5b600073ffffffffffffffffffffffffffffffffffffffff82169050919050565b6000611a0a826119df565b9050919050565b611a1a816119ff565b8114611a2557600080fd5b50565b600081359050611a3781611a11565b92915050565b60008060408385031215611a5457611a536119d5565b5b6000611a6285828601611a28565b9250506020611a7385828601611a28565b9150509250929050565b60007fffffffffffffffff00000000000000000000000000000000000000000000000082169050919050565b611ab281611a7d565b82525050565b6000602082019050611acd6000830184611aa9565b92915050565b6000819050919050565b611ae681611ad3565b8114611af157600080fd5b50565b600081359050611b0381611add565b92915050565b60008060408385031215611b2057611b1f6119d5565b5b6000611b2e85828601611a28565b9250506020611b3f85828601611af4565b9150509250929050565b600060208284031215611b5f57611b5e6119d5565b5b6000611b6d84828501611a28565b91505092915050565b611b7f81611ad3565b82525050565b6000602082019050611b9a6000830184611b76565b92915050565b60008115159050919050565b611bb581611ba0565b82525050565b6000602082019050611bd06000830184611bac565b92915050565b611bdf816119ff565b82525050565b6000602082019050611bfa6000830184611bd6565b92915050565b6000604082019050611c156000830185611bd6565b611c226020830184611bac565b9392505050565b600060e082019050611c3e600083018a611b76565b611c4b6020830189611b76565b611c586040830188611bd6565b611c656060830187611b76565b611c726080830186611b76565b611c7f60a0830185611b76565b611c8c60c0830184611bac565b98975050505050505050565b60008060008060808587031215611cb257611cb16119d5565b5b6000611cc087828801611a28565b9450506020611cd187828801611a28565b9350506040611ce287828801611af4565b9250506060611cf387828801611af4565b91505092959194509250565b600082825260208201905092915050565b7f4e6f7420617574686f72697a6564000000000000000000000000000000000000600082015250565b6000611d46600e83611cff565b9150611d5182611d10565b602082019050919050565b60006020820190508181036000830152611d7581611d39565b9050919050565b7f44616f20616c7265616479206164646564000000000000000000000000000000600082015250565b6000611db2601183611cff565b9150611dbd82611d7c565b602082019050919050565b60006020820190508181036000830152611de181611da5565b9050919050565b7f4d656d6265724d6f64756c650000000000000000000000000000000000000000600082015250565b6000611e1e600c83611cff565b9150611e2982611de8565b602082019050919050565b60006020820190508181036000830152611e4d81611e11565b9050919050565b6000819050919050565b6000819050919050565b6000611e83611e7e611e7984611e54565b611e5e565b611ad3565b9050919050565b611e9381611e68565b82525050565b6000604082019050611eae6000830185611aa9565b611ebb6020830184611e8a565b9392505050565b600080fd5b6000601f19601f8301169050919050565b7f4e487b7100000000000000000000000000000000000000000000000000000000600052604160045260246000fd5b611f1082611ec7565b810181811067ffffffffffffffff82111715611f2f57611f2e611ed8565b5b80604052505050565b6000611f426119cb565b9050611f4e8282611f07565b919050565b600080fd5b600081519050611f6781611add565b92915050565b600081519050611f7c81611a11565b92915050565b611f8b81611ba0565b8114611f9657600080fd5b50565b600081519050611fa881611f82565b92915050565b611fb781611a7d565b8114611fc257600080fd5b50565b600081519050611fd481611fae565b92915050565b600080fd5b600080fd5b600067ffffffffffffffff821115611fff57611ffe611ed8565b5b61200882611ec7565b9050602081019050919050565b60005b83811015612033578082015181840152602081019050612018565b83811115612042576000848401525b50505050565b600061205b61205684611fe4565b611f38565b90508281526020810184848401111561207757612076611fdf565b5b612082848285612015565b509392505050565b600082601f83011261209f5761209e611fda565b5b81516120af848260208601612048565b91505092915050565b600060e082840312156120ce576120cd611ec2565b5b6120d860e0611f38565b905060006120e884828501611f58565b60008301525060206120fc84828501611f6d565b602083015250604061211084828501611f99565b604083015250606061212484828501611f99565b606083015250608061213884828501611fc5565b60808301525060a061214c84828501611fc5565b60a08301525060c082015167ffffffffffffffff8111156121705761216f611f53565b5b61217c8482850161208a565b60c08301525092915050565b60006020828403121561219e5761219d6119d5565b5b600082015167ffffffffffffffff8111156121bc576121bb6119da565b5b6121c8848285016120b8565b91505092915050565b7f46756e64734d6f64756c65000000000000000000000000000000000000000000600082015250565b6000612207600b83611cff565b9150612212826121d1565b602082019050919050565b60006020820190508181036000830152612236816121fa565b9050919050565b7f5265656e7472616e637947756172643a207265656e7472616e742063616c6c00600082015250565b6000612273601f83611cff565b915061227e8261223d565b602082019050919050565b600060208201905081810360008301526122a281612266565b9050919050565b7f4661696c6564206e6f742066696e697368000000000000000000000000000000600082015250565b60006122df601183611cff565b91506122ea826122a9565b602082019050919050565b6000602082019050818103600083015261230e816122d2565b9050919050565b600081905092915050565b50565b6000612330600083612315565b915061233b82612320565b600082019050919050565b600061235182612323565b9150819050919050565b7f4661696c20776974686472617700000000000000000000000000000000000000600082015250565b6000612391600d83611cff565b915061239c8261235b565b602082019050919050565b600060208201905081810360008301526123c081612384565b9050919050565b7f4f776e61626c653a2063616c6c6572206973206e6f7420746865206f776e6572600082015250565b60006123fd602083611cff565b9150612408826123c7565b602082019050919050565b6000602082019050818103600083015261242c816123f0565b9050919050565b7f4e487b7100000000000000000000000000000000000000000000000000000000600052601160045260246000fd5b600061246d82611ad3565b91507fffffffffffffffffffffffffffffffffffffffffffffffffffffffffffffffff8214156124a05761249f612433565b5b600182019050919050565b60006080820190506124c06000830187611bd6565b6124cd6020830186611bd6565b6124da6040830185611b76565b6124e76060830184611b76565b95945050505050565b7f4f75746461746564000000000000000000000000000000000000000000000000600082015250565b6000612526600883611cff565b9150612531826124f0565b602082019050919050565b6000602082019050818103600083015261255581612519565b9050919050565b60006060820190506125716000830186611bd6565b61257e6020830185611b76565b61258b6040830184611b76565b949350505050565b7f53696d706c65446f6e6174696f6e734d6f64756c650000000000000000000000600082015250565b60006125c9601583611cff565b91506125d482612593565b602082019050919050565b600060208201905081810360008301526125f8816125bc565b9050919050565b7f4f776e61626c653a206e6577206f776e657220697320746865207a65726f206160008201527f6464726573730000000000000000000000000000000000000000000000000000602082015250565b600061265b602683611cff565b9150612666826125ff565b604082019050919050565b6000602082019050818103600083015261268a8161264e565b9050919050565b600061269c82611ad3565b91506126a783611ad3565b9250827fffffffffffffffffffffffffffffffffffffffffffffffffffffffffffffffff038211156126dc576126db612433565b5b82820190509291505056fea2646970667358221220bd122ddf98dd3187138750c788904be79e30a14d4f9234e0aefb3cea6dbfd67c64736f6c63430008090033",
  "immutableReferences": {},
  "source": "// SPDX-License-Identifier: MIT\r\npragma solidity ^0.8.9;\r\n\r\nimport \"@openzeppelin/contracts/utils/math/SafeMath.sol\";\r\nimport \"@openzeppelin/contracts/access/Ownable.sol\";\r\nimport \"@openzeppelin/contracts/security/ReentrancyGuard.sol\";\r\nimport \"../../Data.sol\";\r\nimport \"../Interfaces/IMembersDAO.sol\";\r\nimport \"../../DaoBase.sol\";\r\n\r\n/**\r\n* @title SimpleDonationsModule\r\n* @author chixx.eth & mourad\r\n* @notice Module Simple Donations: create a new donation instance with a preset address for \r\n* the receiver that cant be changed. When instance finish everyone can send funds to receiver address\r\n*/\r\ncontract SimpleDonationsModule is Ownable, ReentrancyGuard {\r\n  using SafeMath for uint256;\r\n\r\n  /// @notice store the module code hash\r\n  bytes8 public constant moduleCode = bytes8(keccak256(abi.encode(\"SimpleDonationsModule\")));\r\n\r\n  /// @notice store the module code hash\r\n  bytes8 public constant moduleType = bytes8(keccak256(abi.encode(\"FundsModule\")));\r\n\r\n  /**\r\n  * @notice store daos info\r\n  * @dev param address is address of the daoBase. return daosInfo struct\r\n  */\r\n  mapping(address => daosInfo) public daos;\r\n\r\n  /**\r\n  * @notice store authorized address\r\n  * @dev param0 address is address of the daoBase, param1 address to authorized. return bool true or false\r\n  */\r\n  mapping(address => mapping(address => bool)) public authorizedAddress;\r\n  \r\n  /**\r\n  * @notice store membership module address of the daoBase\r\n  * @dev param0 address is address of the daoBase. return address of the membership module\r\n  */\r\n  mapping(address => address) private memberModuleAddress; // address = DaoBaseAddr => address memberModule\r\n  \r\n  /**\r\n  * @notice store each instance of donation\r\n  * @dev param0 address is address of the daoBase, param 1 the nonce of the instance.\r\n  * return dao donation instance info see struct daoDonationsInfo\r\n  */\r\n  mapping(address => mapping(uint256 => daoDonationsInfo)) public daoDonations; // addresDaoBase => nonce => funds\r\n  \r\n  /**\r\n  * @notice store total nonce of a dao\r\n  * @dev param0 address is address of the daoBase. return the total nonce\r\n  */\r\n  mapping(address => uint256) public nonce;\r\n\r\n  /**\r\n  * @notice store dao info\r\n  * @return addressDao the address of the dao\r\n  * @return isActive if the dao is active\r\n  */\r\n  struct daosInfo {\r\n    address addressDao;\r\n    bool isActive;\r\n  }\r\n\r\n  /**\r\n  * @notice store dao donation instance info\r\n  * @return id the id of the instance linked to the nonce\r\n  * @return funds how many funds the instance have\r\n  * @return receiverFunds address of the receiver of the funds\r\n  * @return donationsCount how many user have donate funds\r\n  * @return startTime timestamp of the start of the donation instance\r\n  * @return endTime timestamp of the end of the donation instance\r\n  * @return isActivate bool true or false if its active or not\r\n  */\r\n  struct daoDonationsInfo {\r\n    uint256 id;\r\n    uint256 funds;\r\n    address receiverFunds;\r\n    uint256 donationsCount;\r\n    uint256 startTime;\r\n    uint256 endTime;\r\n    bool isActive;\r\n  }\r\n\r\n  event CreateNewDonations(address contractDao, address receiver, uint256 startTime, uint256 endTime);\r\n  event NewDonation(address contractDao, uint256 nonce, uint256 amount);\r\n\r\n  /**\r\n  * @notice constructor change the owner to be the DaosFactory\r\n  * @dev param 0 address of the DaosFactory\r\n  */\r\n  constructor(address _contractFactory) {\r\n    _transferOwnership(_contractFactory);\r\n  }\r\n\r\n  /// @notice check if msg.sender is authorized\r\n  modifier onlyAuthorizeAddress(address _contractDao) {\r\n    require(authorizedAddress[_contractDao][msg.sender] == true, \"Not authorized\");\r\n    _;\r\n  }\r\n\r\n  /// @notice check if msg.sender is authorized\r\n  modifier onlyAuthorizeAddressOrOwner(address _contractDao) {\r\n    require(authorizedAddress[_contractDao][msg.sender] == true || msg.sender == owner(), \"Not authorized\");\r\n    _;\r\n  }\r\n\r\n  /**\r\n  * @notice link a dao to SimpleDonationsModule\r\n  * @param _contractDao address of the dao\r\n  * @param _memberDao address of the user of the dao in this case the owner of the dao\r\n  */\r\n  function addDao(address _contractDao, address _memberDao) external onlyAuthorizeAddressOrOwner(_contractDao) {\r\n    require(!daos[_contractDao].isActive, \"Dao already added\");\r\n    daos[_contractDao].isActive = true;\r\n    daos[_contractDao].addressDao = _contractDao;\r\n    nonce[_contractDao] = 0;\r\n    authorizedAddress[_contractDao][_memberDao] = true;\r\n    memberModuleAddress[_contractDao] = DaoBase(_contractDao)\r\n      .getModuleDataByIndex(bytes8(keccak256(abi.encode(\"MemberModule\"))), 0).moduleAddress;\r\n  }\r\n\r\n  /**\r\n  * @notice authorize a new address\r\n  * @param _contractDao address of the dao\r\n  * @param _contractAddress address that will be authorized\r\n  */\r\n  function authorizeAddress(address _contractDao, address _contractAddress) external onlyAuthorizeAddressOrOwner(_contractDao) {\r\n    authorizedAddress[_contractDao][_contractAddress] = true;\r\n  }\r\n\r\n  /**\r\n  * @notice deny a authorized address\r\n  * @param _contractDao address of the dao\r\n  * @param _contractAddress address that will be deny\r\n  */\r\n  function denyAddress(address _contractDao, address _contractAddress) external onlyAuthorizeAddressOrOwner(_contractDao) {\r\n    authorizedAddress[_contractDao][_contractAddress] = false;\r\n  }\r\n\r\n  /**\r\n  * @notice deny a authorized address\r\n  * @param _contractDao address of the dao\r\n  * @param _receiver address that will be deny\r\n  */\r\n  function createNewDonation(\r\n    address _contractDao,\r\n    address _receiver,\r\n    uint256 _startTime,\r\n    uint256 _endTime\r\n  )\r\n    external\r\n    onlyAuthorizeAddressOrOwner(_contractDao)\r\n  {\r\n    daoDonationsInfo memory info;\r\n    info.id = nonce[_contractDao];\r\n    info.receiverFunds = _receiver;\r\n    info.donationsCount = 0;\r\n    info.funds = 0;\r\n    info.startTime = _startTime > block.timestamp ? _startTime : block.timestamp;\r\n    info.endTime = _endTime > block.timestamp ? _endTime : block.timestamp.add(1 weeks);\r\n    info.isActive = true;\r\n    daoDonations[_contractDao][nonce[_contractDao]] = info;\r\n    ++nonce[_contractDao];\r\n    emit CreateNewDonations(_contractDao, _receiver, _startTime, _endTime);\r\n  }\r\n\r\n  /**\r\n  * @notice donate fund\r\n  * @dev only ETH can be send\r\n  * @param _contractDao address of the dao\r\n  * @param _nonce id of the donation instance\r\n  */\r\n  function donate(address _contractDao, uint256 _nonce) external payable {\r\n    daoDonationsInfo memory info = daoDonations[_contractDao][_nonce];\r\n    require(info.endTime > block.timestamp, \"Outdated\");\r\n    info.funds = info.funds.add(msg.value);\r\n    info.donationsCount = info.donationsCount.add(1);\r\n    daoDonations[_contractDao][_nonce] = info;\r\n    emit NewDonation(_contractDao, _nonce, msg.value);\r\n  }\r\n\r\n  /**\r\n  * @notice send fund to receiver\r\n  * @dev the donation instance need to be finish\r\n  * @param _contractDao address of the dao\r\n  * @param _nonce id of the donation instance\r\n  */\r\n  function sendFunds(address _contractDao, uint256 _nonce) external nonReentrant() {\r\n    daoDonationsInfo memory info = daoDonations[_contractDao][_nonce];\r\n    require(info.endTime < block.timestamp, \"Failed not finish\");\r\n    (bool success, ) = payable(info.receiverFunds).call{value: info.funds}(\"\");\r\n    require(success, \"Fail withdraw\");\r\n    info.funds = 0;\r\n    info.isActive = false;\r\n    daoDonations[_contractDao][_nonce] = info;\r\n  }\r\n}",
  "sourcePath": "C:\\Users\\mdmou\\source\\repos\\MY-DAO\\contracts\\Modules\\Implementations\\SimpleDonationsModule.sol",
  "compiler": {
    "name": "solc",
    "version": "0.8.9+commit.e5eed63a.Emscripten.clang"
  },
  "schemaVersion": "3.4.4",
  "updatedAt": "2022-05-23T15:44:19.351Z",
  "networkType": "ethereum",
  "devdoc": {
    "author": "chixx.eth & mourad",
    "kind": "dev",
    "methods": {
      "addDao(address,address)": {
        "params": {
          "_contractDao": "address of the dao",
          "_memberDao": "address of the user of the dao in this case the owner of the dao"
        }
      },
      "authorizeAddress(address,address)": {
        "params": {
          "_contractAddress": "address that will be authorized",
          "_contractDao": "address of the dao"
        }
      },
      "constructor": {
        "details": "param 0 address of the DaosFactory"
      },
      "createNewDonation(address,address,uint256,uint256)": {
        "params": {
          "_contractDao": "address of the dao",
          "_receiver": "address that will be deny"
        }
      },
      "denyAddress(address,address)": {
        "params": {
          "_contractAddress": "address that will be deny",
          "_contractDao": "address of the dao"
        }
      },
      "donate(address,uint256)": {
        "details": "only ETH can be send",
        "params": {
          "_contractDao": "address of the dao",
          "_nonce": "id of the donation instance"
        }
      },
      "owner()": {
        "details": "Returns the address of the current owner."
      },
      "renounceOwnership()": {
        "details": "Leaves the contract without owner. It will not be possible to call `onlyOwner` functions anymore. Can only be called by the current owner. NOTE: Renouncing ownership will leave the contract without an owner, thereby removing any functionality that is only available to the owner."
      },
      "sendFunds(address,uint256)": {
        "details": "the donation instance need to be finish",
        "params": {
          "_contractDao": "address of the dao",
          "_nonce": "id of the donation instance"
        }
      },
      "transferOwnership(address)": {
        "details": "Transfers ownership of the contract to a new account (`newOwner`). Can only be called by the current owner."
      }
    },
    "stateVariables": {
      "authorizedAddress": {
        "details": "param0 address is address of the daoBase, param1 address to authorized. return bool true or false"
      },
      "daoDonations": {
        "details": "param0 address is address of the daoBase, param 1 the nonce of the instance. return dao donation instance info see struct daoDonationsInfo"
      },
      "daos": {
        "details": "param address is address of the daoBase. return daosInfo struct"
      },
      "memberModuleAddress": {
        "details": "param0 address is address of the daoBase. return address of the membership module"
      },
      "nonce": {
        "details": "param0 address is address of the daoBase. return the total nonce"
      }
    },
    "title": "SimpleDonationsModule",
    "version": 1
  },
  "userdoc": {
    "kind": "user",
    "methods": {
      "addDao(address,address)": {
        "notice": "link a dao to SimpleDonationsModule"
      },
      "authorizeAddress(address,address)": {
        "notice": "authorize a new address"
      },
      "authorizedAddress(address,address)": {
        "notice": "store authorized address"
      },
      "constructor": {
        "notice": "constructor change the owner to be the DaosFactory"
      },
      "createNewDonation(address,address,uint256,uint256)": {
        "notice": "deny a authorized address"
      },
      "daoDonations(address,uint256)": {
        "notice": "store each instance of donation"
      },
      "daos(address)": {
        "notice": "store daos info"
      },
      "denyAddress(address,address)": {
        "notice": "deny a authorized address"
      },
      "donate(address,uint256)": {
        "notice": "donate fund"
      },
      "moduleCode()": {
        "notice": "store the module code hash"
      },
      "moduleType()": {
        "notice": "store the module code hash"
      },
      "nonce(address)": {
        "notice": "store total nonce of a dao"
      },
      "sendFunds(address,uint256)": {
        "notice": "send fund to receiver"
      }
    },
    "notice": "Module Simple Donations: create a new donation instance with a preset address for  the receiver that cant be changed. When instance finish everyone can send funds to receiver address",
    "version": 1
  }
}