{
  "contractName": "SimpleDonationsModule",
  "abi": [
    {
      "inputs": [
        {
          "internalType": "address",
          "name": "_contractFactory",
          "type": "address"
        }
      ],
      "stateMutability": "nonpayable",
      "type": "constructor"
    },
    {
      "anonymous": false,
      "inputs": [
        {
          "indexed": false,
          "internalType": "address",
          "name": "contractDao",
          "type": "address"
        },
        {
          "indexed": false,
          "internalType": "address",
          "name": "receiver",
          "type": "address"
        }
      ],
      "name": "NewDonations",
      "type": "event"
    },
    {
      "anonymous": false,
      "inputs": [
        {
          "indexed": true,
          "internalType": "address",
          "name": "previousOwner",
          "type": "address"
        },
        {
          "indexed": true,
          "internalType": "address",
          "name": "newOwner",
          "type": "address"
        }
      ],
      "name": "OwnershipTransferred",
      "type": "event"
    },
    {
      "inputs": [
        {
          "internalType": "address",
          "name": "",
          "type": "address"
        },
        {
          "internalType": "address",
          "name": "",
          "type": "address"
        }
      ],
      "name": "authorizedAddress",
      "outputs": [
        {
          "internalType": "bool",
          "name": "",
          "type": "bool"
        }
      ],
      "stateMutability": "view",
      "type": "function"
    },
    {
      "inputs": [
        {
          "internalType": "address",
          "name": "",
          "type": "address"
        },
        {
          "internalType": "uint256",
          "name": "",
          "type": "uint256"
        }
      ],
      "name": "daoDonations",
      "outputs": [
        {
          "internalType": "uint256",
          "name": "id",
          "type": "uint256"
        },
        {
          "internalType": "uint256",
          "name": "funds",
          "type": "uint256"
        },
        {
          "internalType": "address",
          "name": "receiverFunds",
          "type": "address"
        },
        {
          "internalType": "uint256",
          "name": "donationsCount",
          "type": "uint256"
        },
        {
          "internalType": "uint256",
          "name": "startTime",
          "type": "uint256"
        },
        {
          "internalType": "uint256",
          "name": "endTime",
          "type": "uint256"
        },
        {
          "internalType": "bool",
          "name": "isActive",
          "type": "bool"
        }
      ],
      "stateMutability": "view",
      "type": "function"
    },
    {
      "inputs": [
        {
          "internalType": "address",
          "name": "",
          "type": "address"
        }
      ],
      "name": "daos",
      "outputs": [
        {
          "internalType": "address",
          "name": "addressDao",
          "type": "address"
        },
        {
          "internalType": "bool",
          "name": "isActive",
          "type": "bool"
        }
      ],
      "stateMutability": "view",
      "type": "function"
    },
    {
      "inputs": [],
      "name": "moduleCode",
      "outputs": [
        {
          "internalType": "bytes8",
          "name": "",
          "type": "bytes8"
        }
      ],
      "stateMutability": "view",
      "type": "function"
    },
    {
      "inputs": [],
      "name": "moduleType",
      "outputs": [
        {
          "internalType": "bytes8",
          "name": "",
          "type": "bytes8"
        }
      ],
      "stateMutability": "view",
      "type": "function"
    },
    {
      "inputs": [
        {
          "internalType": "address",
          "name": "",
          "type": "address"
        }
      ],
      "name": "nonce",
      "outputs": [
        {
          "internalType": "uint256",
          "name": "",
          "type": "uint256"
        }
      ],
      "stateMutability": "view",
      "type": "function"
    },
    {
      "inputs": [],
      "name": "owner",
      "outputs": [
        {
          "internalType": "address",
          "name": "",
          "type": "address"
        }
      ],
      "stateMutability": "view",
      "type": "function"
    },
    {
      "inputs": [],
      "name": "renounceOwnership",
      "outputs": [],
      "stateMutability": "nonpayable",
      "type": "function"
    },
    {
      "inputs": [
        {
          "internalType": "address",
          "name": "newOwner",
          "type": "address"
        }
      ],
      "name": "transferOwnership",
      "outputs": [],
      "stateMutability": "nonpayable",
      "type": "function"
    },
    {
      "inputs": [
        {
          "internalType": "address",
          "name": "_contractDao",
          "type": "address"
        },
        {
          "internalType": "address",
          "name": "_memberDao",
          "type": "address"
        }
      ],
      "name": "addDao",
      "outputs": [],
      "stateMutability": "nonpayable",
      "type": "function"
    },
    {
      "inputs": [
        {
          "internalType": "address",
          "name": "_contractDao",
          "type": "address"
        },
        {
          "internalType": "address",
          "name": "_contractAddress",
          "type": "address"
        }
      ],
      "name": "authorizeAddress",
      "outputs": [],
      "stateMutability": "nonpayable",
      "type": "function"
    },
    {
      "inputs": [
        {
          "internalType": "address",
          "name": "_contractDao",
          "type": "address"
        },
        {
          "internalType": "address",
          "name": "_contractAddress",
          "type": "address"
        }
      ],
      "name": "denyAddress",
      "outputs": [],
      "stateMutability": "nonpayable",
      "type": "function"
    },
    {
      "inputs": [
        {
          "internalType": "address",
          "name": "_contractDao",
          "type": "address"
        },
        {
          "internalType": "address",
          "name": "_receiver",
          "type": "address"
        },
        {
          "internalType": "uint256",
          "name": "_startTime",
          "type": "uint256"
        },
        {
          "internalType": "uint256",
          "name": "_endTime",
          "type": "uint256"
        }
      ],
      "name": "createNewDonation",
      "outputs": [],
      "stateMutability": "nonpayable",
      "type": "function"
    },
    {
      "inputs": [
        {
          "internalType": "address",
          "name": "_contractDao",
          "type": "address"
        },
        {
          "internalType": "uint256",
          "name": "_nonce",
          "type": "uint256"
        }
      ],
      "name": "donate",
      "outputs": [],
      "stateMutability": "payable",
      "type": "function"
    },
    {
      "inputs": [
        {
          "internalType": "address",
          "name": "_contractDao",
          "type": "address"
        },
        {
          "internalType": "uint256",
          "name": "_nonce",
          "type": "uint256"
        }
      ],
      "name": "sendFunds",
      "outputs": [],
      "stateMutability": "nonpayable",
      "type": "function"
    }
  ],
  "bytecode": "0x6080604052604051602001620000159062000280565b60405160208183030381529060405280519060200120600260006101000a81548167ffffffffffffffff02191690837801000000000000000000000000000000000000000000000000900402179055506040516020016200007690620002f2565b60405160208183030381529060405280519060200120600260086101000a81548167ffffffffffffffff0219169083780100000000000000000000000000000000000000000000000090040217905550348015620000d357600080fd5b5060405162002709380380620027098339818101604052810190620000f991906200037e565b6200012b6200011662000153640100000000026401000000009004565b6200015b640100000000026401000000009004565b600180819055506200014c816200015b640100000000026401000000009004565b50620003b0565b600033905090565b60008060009054906101000a900473ffffffffffffffffffffffffffffffffffffffff169050816000806101000a81548173ffffffffffffffffffffffffffffffffffffffff021916908373ffffffffffffffffffffffffffffffffffffffff1602179055508173ffffffffffffffffffffffffffffffffffffffff168173ffffffffffffffffffffffffffffffffffffffff167f8be0079c531659141344cd1fd0a4f28419497f9722a3daafe3b4186f6b6457e060405160405180910390a35050565b600082825260208201905092915050565b7f53696d706c65446f6e6174696f6e734d6f64756c650000000000000000000000600082015250565b6000620002686015836200021f565b9150620002758262000230565b602082019050919050565b600060208201905081810360008301526200029b8162000259565b9050919050565b7f46756e64734d6f64756c65000000000000000000000000000000000000000000600082015250565b6000620002da600b836200021f565b9150620002e782620002a2565b602082019050919050565b600060208201905081810360008301526200030d81620002cb565b9050919050565b600080fd5b600073ffffffffffffffffffffffffffffffffffffffff82169050919050565b6000620003468262000319565b9050919050565b620003588162000339565b81146200036457600080fd5b50565b60008151905062000378816200034d565b92915050565b60006020828403121562000397576200039662000314565b5b6000620003a78482850162000367565b91505092915050565b61234980620003c06000396000f3fe608060405260043610610105576000357c010000000000000000000000000000000000000000000000000000000090048063c25f3cf6116100a7578063e498116f11610076578063e498116f14610316578063e69d849d1461033f578063f0744c161461035b578063f2fde38b1461038657610105565b8063c25f3cf614610243578063c758841d14610281578063cd9a0dd5146102c4578063db4d7dcd146102ed57610105565b806370ae92d2116100e357806370ae92d214610187578063715018a6146101c4578063890222b6146101db5780638da5cb5b1461021857610105565b806312ee7e411461010a5780636465e69f146101335780636f64234e1461015e575b600080fd5b34801561011657600080fd5b50610131600480360381019061012c9190611888565b6103af565b005b34801561013f57600080fd5b50610148610857565b6040516101559190611903565b60405180910390f35b34801561016a57600080fd5b5061018560048036038101906101809190611954565b610882565b005b34801561019357600080fd5b506101ae60048036038101906101a99190611994565b610af5565b6040516101bb91906119d0565b60405180910390f35b3480156101d057600080fd5b506101d9610b0d565b005b3480156101e757600080fd5b5061020260048036038101906101fd9190611888565b610b95565b60405161020f9190611a06565b60405180910390f35b34801561022457600080fd5b5061022d610bc4565b60405161023a9190611a30565b60405180910390f35b34801561024f57600080fd5b5061026a60048036038101906102659190611994565b610bed565b604051610278929190611a4b565b60405180910390f35b34801561028d57600080fd5b506102a860048036038101906102a39190611954565b610c3e565b6040516102bb9796959493929190611a74565b60405180910390f35b3480156102d057600080fd5b506102eb60048036038101906102e69190611ae3565b610cba565b005b3480156102f957600080fd5b50610314600480360381019061030f9190611888565b610ff1565b005b34801561032257600080fd5b5061033d60048036038101906103389190611888565b611199565b005b61035960048036038101906103549190611954565b611341565b005b34801561036757600080fd5b506103706115bc565b60405161037d9190611903565b60405180910390f35b34801561039257600080fd5b506103ad60048036038101906103a89190611994565b6115e7565b005b8160011515600460008373ffffffffffffffffffffffffffffffffffffffff1673ffffffffffffffffffffffffffffffffffffffff16815260200190815260200160002060003373ffffffffffffffffffffffffffffffffffffffff1673ffffffffffffffffffffffffffffffffffffffff16815260200190815260200160002060009054906101000a900460ff161515148061047e575061044f610bc4565b73ffffffffffffffffffffffffffffffffffffffff163373ffffffffffffffffffffffffffffffffffffffff16145b6104bd576040517f08c379a00000000000000000000000000000000000000000000000000000000081526004016104b490611ba7565b60405180910390fd5b600360008473ffffffffffffffffffffffffffffffffffffffff1673ffffffffffffffffffffffffffffffffffffffff16815260200190815260200160002060000160149054906101000a900460ff161561054d576040517f08c379a000000000000000000000000000000000000000000000000000000000815260040161054490611c13565b60405180910390fd5b6001600360008573ffffffffffffffffffffffffffffffffffffffff1673ffffffffffffffffffffffffffffffffffffffff16815260200190815260200160002060000160146101000a81548160ff02191690831515021790555082600360008573ffffffffffffffffffffffffffffffffffffffff1673ffffffffffffffffffffffffffffffffffffffff16815260200190815260200160002060000160006101000a81548173ffffffffffffffffffffffffffffffffffffffff021916908373ffffffffffffffffffffffffffffffffffffffff1602179055506000600760008573ffffffffffffffffffffffffffffffffffffffff1673ffffffffffffffffffffffffffffffffffffffff168152602001908152602001600020819055506001600460008573ffffffffffffffffffffffffffffffffffffffff1673ffffffffffffffffffffffffffffffffffffffff16815260200190815260200160002060008473ffffffffffffffffffffffffffffffffffffffff1673ffffffffffffffffffffffffffffffffffffffff16815260200190815260200160002060006101000a81548160ff0219169083151502179055508273ffffffffffffffffffffffffffffffffffffffff1663d8d8e93c60405160200161072e90611c7f565b604051602081830303815290604052805190602001206040518263ffffffff167c010000000000000000000000000000000000000000000000000000000002815260040161077c9190611903565b60006040518083038186803b15801561079457600080fd5b505afa1580156107a8573d6000803e3d6000fd5b505050506040513d6000823e3d601f19601f820116820180604052508101906107d19190611f51565b60200151600560008573ffffffffffffffffffffffffffffffffffffffff1673ffffffffffffffffffffffffffffffffffffffff16815260200190815260200160002060006101000a81548173ffffffffffffffffffffffffffffffffffffffff021916908373ffffffffffffffffffffffffffffffffffffffff160217905550505050565b600260089054906101000a900478010000000000000000000000000000000000000000000000000281565b600260015414156108c8576040517f08c379a00000000000000000000000000000000000000000000000000000000081526004016108bf90611fe6565b60405180910390fd5b60026001819055506000600660008473ffffffffffffffffffffffffffffffffffffffff1673ffffffffffffffffffffffffffffffffffffffff16815260200190815260200160002060008381526020019081526020016000206040518060e001604052908160008201548152602001600182015481526020016002820160009054906101000a900473ffffffffffffffffffffffffffffffffffffffff1673ffffffffffffffffffffffffffffffffffffffff1673ffffffffffffffffffffffffffffffffffffffff1681526020016003820154815260200160048201548152602001600582015481526020016006820160009054906101000a900460ff1615151515815250509050428160a0015110610a18576040517f08c379a0000000000000000000000000000000000000000000000000000000008152600401610a0f90612052565b60405180910390fd5b6000816040015173ffffffffffffffffffffffffffffffffffffffff168260200151604051610a46906120a3565b60006040518083038185875af1925050503d8060008114610a83576040519150601f19603f3d011682016040523d82523d6000602084013e610a88565b606091505b5050905080610acc576040517f08c379a0000000000000000000000000000000000000000000000000000000008152600401610ac390612104565b60405180910390fd5b600082602001818152505060008260c00190151590811515815250505050600180819055505050565b60076020528060005260406000206000915090505481565b610b156116df565b73ffffffffffffffffffffffffffffffffffffffff16610b33610bc4565b73ffffffffffffffffffffffffffffffffffffffff1614610b89576040517f08c379a0000000000000000000000000000000000000000000000000000000008152600401610b8090612170565b60405180910390fd5b610b9360006116e7565b565b60046020528160005260406000206020528060005260406000206000915091509054906101000a900460ff1681565b60008060009054906101000a900473ffffffffffffffffffffffffffffffffffffffff16905090565b60036020528060005260406000206000915090508060000160009054906101000a900473ffffffffffffffffffffffffffffffffffffffff16908060000160149054906101000a900460ff16905082565b6006602052816000526040600020602052806000526040600020600091509150508060000154908060010154908060020160009054906101000a900473ffffffffffffffffffffffffffffffffffffffff16908060030154908060040154908060050154908060060160009054906101000a900460ff16905087565b8360011515600460008373ffffffffffffffffffffffffffffffffffffffff1673ffffffffffffffffffffffffffffffffffffffff16815260200190815260200160002060003373ffffffffffffffffffffffffffffffffffffffff1673ffffffffffffffffffffffffffffffffffffffff16815260200190815260200160002060009054906101000a900460ff1615151480610d895750610d5a610bc4565b73ffffffffffffffffffffffffffffffffffffffff163373ffffffffffffffffffffffffffffffffffffffff16145b610dc8576040517f08c379a0000000000000000000000000000000000000000000000000000000008152600401610dbf90611ba7565b60405180910390fd5b610dd06117c1565b600760008773ffffffffffffffffffffffffffffffffffffffff1673ffffffffffffffffffffffffffffffffffffffff1681526020019081526020016000205481600001818152505084816040019073ffffffffffffffffffffffffffffffffffffffff16908173ffffffffffffffffffffffffffffffffffffffff168152505060008160600181815250506000816020018181525050428411610e745742610e76565b835b816080018181525050428311610ea157610e9c62093a80426117ab90919063ffffffff16565b610ea3565b825b8160a001818152505060018160c001901515908115158152505080600660008873ffffffffffffffffffffffffffffffffffffffff1673ffffffffffffffffffffffffffffffffffffffff1681526020019081526020016000206000600760008a73ffffffffffffffffffffffffffffffffffffffff1673ffffffffffffffffffffffffffffffffffffffff168152602001908152602001600020548152602001908152602001600020600082015181600001556020820151816001015560408201518160020160006101000a81548173ffffffffffffffffffffffffffffffffffffffff021916908373ffffffffffffffffffffffffffffffffffffffff160217905550606082015181600301556080820151816004015560a0820151816005015560c08201518160060160006101000a81548160ff021916908315150217905550905050505050505050565b8160011515600460008373ffffffffffffffffffffffffffffffffffffffff1673ffffffffffffffffffffffffffffffffffffffff16815260200190815260200160002060003373ffffffffffffffffffffffffffffffffffffffff1673ffffffffffffffffffffffffffffffffffffffff16815260200190815260200160002060009054906101000a900460ff16151514806110c05750611091610bc4565b73ffffffffffffffffffffffffffffffffffffffff163373ffffffffffffffffffffffffffffffffffffffff16145b6110ff576040517f08c379a00000000000000000000000000000000000000000000000000000000081526004016110f690611ba7565b60405180910390fd5b6001600460008573ffffffffffffffffffffffffffffffffffffffff1673ffffffffffffffffffffffffffffffffffffffff16815260200190815260200160002060008473ffffffffffffffffffffffffffffffffffffffff1673ffffffffffffffffffffffffffffffffffffffff16815260200190815260200160002060006101000a81548160ff021916908315150217905550505050565b8160011515600460008373ffffffffffffffffffffffffffffffffffffffff1673ffffffffffffffffffffffffffffffffffffffff16815260200190815260200160002060003373ffffffffffffffffffffffffffffffffffffffff1673ffffffffffffffffffffffffffffffffffffffff16815260200190815260200160002060009054906101000a900460ff16151514806112685750611239610bc4565b73ffffffffffffffffffffffffffffffffffffffff163373ffffffffffffffffffffffffffffffffffffffff16145b6112a7576040517f08c379a000000000000000000000000000000000000000000000000000000000815260040161129e90611ba7565b60405180910390fd5b6000600460008573ffffffffffffffffffffffffffffffffffffffff1673ffffffffffffffffffffffffffffffffffffffff16815260200190815260200160002060008473ffffffffffffffffffffffffffffffffffffffff1673ffffffffffffffffffffffffffffffffffffffff16815260200190815260200160002060006101000a81548160ff021916908315150217905550505050565b6000600660008473ffffffffffffffffffffffffffffffffffffffff1673ffffffffffffffffffffffffffffffffffffffff16815260200190815260200160002060008381526020019081526020016000206040518060e001604052908160008201548152602001600182015481526020016002820160009054906101000a900473ffffffffffffffffffffffffffffffffffffffff1673ffffffffffffffffffffffffffffffffffffffff1673ffffffffffffffffffffffffffffffffffffffff1681526020016003820154815260200160048201548152602001600582015481526020016006820160009054906101000a900460ff1615151515815250509050428160a0015111611489576040517f08c379a0000000000000000000000000000000000000000000000000000000008152600401611480906121dc565b60405180910390fd5b6114a03482602001516117ab90919063ffffffff16565b8160200181815250506114c1600182606001516117ab90919063ffffffff16565b81606001818152505080600660008573ffffffffffffffffffffffffffffffffffffffff1673ffffffffffffffffffffffffffffffffffffffff1681526020019081526020016000206000848152602001908152602001600020600082015181600001556020820151816001015560408201518160020160006101000a81548173ffffffffffffffffffffffffffffffffffffffff021916908373ffffffffffffffffffffffffffffffffffffffff160217905550606082015181600301556080820151816004015560a0820151816005015560c08201518160060160006101000a81548160ff021916908315150217905550905050505050565b600260009054906101000a900478010000000000000000000000000000000000000000000000000281565b6115ef6116df565b73ffffffffffffffffffffffffffffffffffffffff1661160d610bc4565b73ffffffffffffffffffffffffffffffffffffffff1614611663576040517f08c379a000000000000000000000000000000000000000000000000000000000815260040161165a90612170565b60405180910390fd5b600073ffffffffffffffffffffffffffffffffffffffff168173ffffffffffffffffffffffffffffffffffffffff1614156116d3576040517f08c379a00000000000000000000000000000000000000000000000000000000081526004016116ca9061226e565b60405180910390fd5b6116dc816116e7565b50565b600033905090565b60008060009054906101000a900473ffffffffffffffffffffffffffffffffffffffff169050816000806101000a81548173ffffffffffffffffffffffffffffffffffffffff021916908373ffffffffffffffffffffffffffffffffffffffff1602179055508173ffffffffffffffffffffffffffffffffffffffff168173ffffffffffffffffffffffffffffffffffffffff167f8be0079c531659141344cd1fd0a4f28419497f9722a3daafe3b4186f6b6457e060405160405180910390a35050565b600081836117b991906122bd565b905092915050565b6040518060e001604052806000815260200160008152602001600073ffffffffffffffffffffffffffffffffffffffff1681526020016000815260200160008152602001600081526020016000151581525090565b6000604051905090565b600080fd5b600080fd5b600073ffffffffffffffffffffffffffffffffffffffff82169050919050565b60006118558261182a565b9050919050565b6118658161184a565b811461187057600080fd5b50565b6000813590506118828161185c565b92915050565b6000806040838503121561189f5761189e611820565b5b60006118ad85828601611873565b92505060206118be85828601611873565b9150509250929050565b60007fffffffffffffffff00000000000000000000000000000000000000000000000082169050919050565b6118fd816118c8565b82525050565b600060208201905061191860008301846118f4565b92915050565b6000819050919050565b6119318161191e565b811461193c57600080fd5b50565b60008135905061194e81611928565b92915050565b6000806040838503121561196b5761196a611820565b5b600061197985828601611873565b925050602061198a8582860161193f565b9150509250929050565b6000602082840312156119aa576119a9611820565b5b60006119b884828501611873565b91505092915050565b6119ca8161191e565b82525050565b60006020820190506119e560008301846119c1565b92915050565b60008115159050919050565b611a00816119eb565b82525050565b6000602082019050611a1b60008301846119f7565b92915050565b611a2a8161184a565b82525050565b6000602082019050611a456000830184611a21565b92915050565b6000604082019050611a606000830185611a21565b611a6d60208301846119f7565b9392505050565b600060e082019050611a89600083018a6119c1565b611a9660208301896119c1565b611aa36040830188611a21565b611ab060608301876119c1565b611abd60808301866119c1565b611aca60a08301856119c1565b611ad760c08301846119f7565b98975050505050505050565b60008060008060808587031215611afd57611afc611820565b5b6000611b0b87828801611873565b9450506020611b1c87828801611873565b9350506040611b2d8782880161193f565b9250506060611b3e8782880161193f565b91505092959194509250565b600082825260208201905092915050565b7f4e6f7420617574686f72697a6564000000000000000000000000000000000000600082015250565b6000611b91600e83611b4a565b9150611b9c82611b5b565b602082019050919050565b60006020820190508181036000830152611bc081611b84565b9050919050565b7f44616f20616c7265616479206164646564000000000000000000000000000000600082015250565b6000611bfd601183611b4a565b9150611c0882611bc7565b602082019050919050565b60006020820190508181036000830152611c2c81611bf0565b9050919050565b7f4d656d6265724d6f64756c650000000000000000000000000000000000000000600082015250565b6000611c69600c83611b4a565b9150611c7482611c33565b602082019050919050565b60006020820190508181036000830152611c9881611c5c565b9050919050565b600080fd5b6000601f19601f8301169050919050565b7f4e487b7100000000000000000000000000000000000000000000000000000000600052604160045260246000fd5b611ced82611ca4565b810181811067ffffffffffffffff82111715611d0c57611d0b611cb5565b5b80604052505050565b6000611d1f611816565b9050611d2b8282611ce4565b919050565b600080fd5b600081519050611d4481611928565b92915050565b600081519050611d598161185c565b92915050565b611d68816119eb565b8114611d7357600080fd5b50565b600081519050611d8581611d5f565b92915050565b611d94816118c8565b8114611d9f57600080fd5b50565b600081519050611db181611d8b565b92915050565b600080fd5b600080fd5b600067ffffffffffffffff821115611ddc57611ddb611cb5565b5b611de582611ca4565b9050602081019050919050565b60005b83811015611e10578082015181840152602081019050611df5565b83811115611e1f576000848401525b50505050565b6000611e38611e3384611dc1565b611d15565b905082815260208101848484011115611e5457611e53611dbc565b5b611e5f848285611df2565b509392505050565b600082601f830112611e7c57611e7b611db7565b5b8151611e8c848260208601611e25565b91505092915050565b600060c08284031215611eab57611eaa611c9f565b5b611eb560c0611d15565b90506000611ec584828501611d35565b6000830152506020611ed984828501611d4a565b6020830152506040611eed84828501611d76565b6040830152506060611f0184828501611da2565b6060830152506080611f1584828501611da2565b60808301525060a082015167ffffffffffffffff811115611f3957611f38611d30565b5b611f4584828501611e67565b60a08301525092915050565b600060208284031215611f6757611f66611820565b5b600082015167ffffffffffffffff811115611f8557611f84611825565b5b611f9184828501611e95565b91505092915050565b7f5265656e7472616e637947756172643a207265656e7472616e742063616c6c00600082015250565b6000611fd0601f83611b4a565b9150611fdb82611f9a565b602082019050919050565b60006020820190508181036000830152611fff81611fc3565b9050919050565b7f4661696c6564206e6f742066696e697368000000000000000000000000000000600082015250565b600061203c601183611b4a565b915061204782612006565b602082019050919050565b6000602082019050818103600083015261206b8161202f565b9050919050565b600081905092915050565b50565b600061208d600083612072565b91506120988261207d565b600082019050919050565b60006120ae82612080565b9150819050919050565b7f4661696c20776974686472617700000000000000000000000000000000000000600082015250565b60006120ee600d83611b4a565b91506120f9826120b8565b602082019050919050565b6000602082019050818103600083015261211d816120e1565b9050919050565b7f4f776e61626c653a2063616c6c6572206973206e6f7420746865206f776e6572600082015250565b600061215a602083611b4a565b915061216582612124565b602082019050919050565b600060208201905081810360008301526121898161214d565b9050919050565b7f4f75746461746564000000000000000000000000000000000000000000000000600082015250565b60006121c6600883611b4a565b91506121d182612190565b602082019050919050565b600060208201905081810360008301526121f5816121b9565b9050919050565b7f4f776e61626c653a206e6577206f776e657220697320746865207a65726f206160008201527f6464726573730000000000000000000000000000000000000000000000000000602082015250565b6000612258602683611b4a565b9150612263826121fc565b604082019050919050565b600060208201905081810360008301526122878161224b565b9050919050565b7f4e487b7100000000000000000000000000000000000000000000000000000000600052601160045260246000fd5b60006122c88261191e565b91506122d38361191e565b9250827fffffffffffffffffffffffffffffffffffffffffffffffffffffffffffffffff038211156123085761230761228e565b5b82820190509291505056fea2646970667358221220ad7f40c5374d8156b884f9f3e7312ee21d9d63def29888030c063d171bcb4a7d64736f6c63430008090033",
  "immutableReferences": {},
  "source": "// SPDX-License-Identifier: MIT\r\npragma solidity ^0.8.9;\r\n\r\nimport \"@openzeppelin/contracts/utils/math/SafeMath.sol\";\r\nimport \"@openzeppelin/contracts/access/Ownable.sol\";\r\nimport \"@openzeppelin/contracts/security/ReentrancyGuard.sol\";\r\nimport \"../../Data.sol\";\r\nimport \"../Interfaces/IMembersDAO.sol\";\r\nimport \"../../DaoBase.sol\";\r\n\r\ncontract SimpleDonationsModule is Ownable, ReentrancyGuard {\r\n  using SafeMath for uint256;\r\n  bytes8 public moduleCode = bytes8(keccak256(abi.encode(\"SimpleDonationsModule\")));\r\n  bytes8 public moduleType = bytes8(keccak256(abi.encode(\"FundsModule\")));\r\n\r\n  mapping(address => daosInfo) public daos;\r\n  mapping(address => mapping(address => bool)) public authorizedAddress; // address = DaoBaseAddr => address authorized => true or false\r\n  mapping(address => address) private memberModuleAddress; // address = DaoBaseAddr => address memberModule\r\n  mapping(address => mapping(uint256 => daoDonationsInfo)) public daoDonations; // addresDaoBase => nonce => funds\r\n  mapping(address => uint256) public nonce;\r\n\r\n  struct daosInfo {\r\n    address addressDao;\r\n    bool isActive;\r\n  }\r\n  struct daoDonationsInfo {\r\n    uint256 id;\r\n    uint256 funds;\r\n    address receiverFunds;\r\n    uint256 donationsCount;\r\n    uint256 startTime;\r\n    uint256 endTime;\r\n    bool isActive;\r\n  }\r\n\r\n  event NewDonations(address contractDao, address receiver);\r\n\r\n  constructor(address _contractFactory) {\r\n    _transferOwnership(_contractFactory);\r\n  }\r\n\r\n  modifier onlyAuthorizeAddress(address _contractDao) {\r\n    require(authorizedAddress[_contractDao][msg.sender] == true, \"Not authorized\");\r\n    _;\r\n  }\r\n  modifier onlyAuthorizeAddressOrOwner(address _contractDao) {\r\n    require(authorizedAddress[_contractDao][msg.sender] == true || msg.sender == owner(), \"Not authorized\");\r\n    _;\r\n  }\r\n  function addDao(address _contractDao, address _memberDao) external onlyAuthorizeAddressOrOwner(_contractDao) {\r\n    require(!daos[_contractDao].isActive, \"Dao already added\");\r\n    daos[_contractDao].isActive = true;\r\n    daos[_contractDao].addressDao = _contractDao;\r\n    nonce[_contractDao] = 0;\r\n    authorizedAddress[_contractDao][_memberDao] = true;\r\n    memberModuleAddress[_contractDao] = DaoBase(_contractDao)\r\n      .getModuleData(bytes8(keccak256(abi.encode(\"MemberModule\")))).moduleAddress;\r\n  }\r\n\r\n  function authorizeAddress(address _contractDao, address _contractAddress) external onlyAuthorizeAddressOrOwner(_contractDao) {\r\n    authorizedAddress[_contractDao][_contractAddress] = true;\r\n  }\r\n\r\n  function denyAddress(address _contractDao, address _contractAddress) external onlyAuthorizeAddressOrOwner(_contractDao) {\r\n    authorizedAddress[_contractDao][_contractAddress] = false;\r\n  }\r\n\r\n  function createNewDonation(\r\n    address _contractDao,\r\n    address _receiver,\r\n    uint256 _startTime,\r\n    uint256 _endTime\r\n  ) external onlyAuthorizeAddressOrOwner(_contractDao) {\r\n    daoDonationsInfo memory info;\r\n    info.id = nonce[_contractDao];\r\n    info.receiverFunds = _receiver;\r\n    info.donationsCount = 0;\r\n    info.funds = 0;\r\n    info.startTime = _startTime > block.timestamp ? _startTime : block.timestamp;\r\n    info.endTime = _endTime > block.timestamp ? _endTime : block.timestamp.add(1 weeks);\r\n    info.isActive = true;\r\n    daoDonations[_contractDao][nonce[_contractDao]] = info;\r\n  }\r\n  function donate(address _contractDao, uint256 _nonce) external payable {\r\n    daoDonationsInfo memory info = daoDonations[_contractDao][_nonce];\r\n    require(info.endTime > block.timestamp, \"Outdated\");\r\n    info.funds = info.funds.add(msg.value);\r\n    info.donationsCount = info.donationsCount.add(1);\r\n    daoDonations[_contractDao][_nonce] = info;\r\n  }\r\n  function sendFunds(address _contractDao, uint256 _nonce) external nonReentrant() {\r\n    daoDonationsInfo memory info = daoDonations[_contractDao][_nonce];\r\n    require(info.endTime < block.timestamp, \"Failed not finish\");\r\n    (bool success, ) = payable(info.receiverFunds).call{value: info.funds}(\"\");\r\n    require(success, \"Fail withdraw\");\r\n    info.funds = 0;\r\n    info.isActive = false;\r\n  }\r\n}",
  "sourcePath": "C:\\Users\\mdmou\\source\\repos\\MY-DAO\\contracts\\Modules\\Implementations\\SimpleDonationsModules.sol",
  "compiler": {
    "name": "solc",
    "version": "0.8.9+commit.e5eed63a.Emscripten.clang"
  },
  "schemaVersion": "3.4.4",
  "updatedAt": "2022-05-20T23:47:11.421Z",
  "devdoc": {
    "kind": "dev",
    "methods": {
      "owner()": {
        "details": "Returns the address of the current owner."
      },
      "renounceOwnership()": {
        "details": "Leaves the contract without owner. It will not be possible to call `onlyOwner` functions anymore. Can only be called by the current owner. NOTE: Renouncing ownership will leave the contract without an owner, thereby removing any functionality that is only available to the owner."
      },
      "transferOwnership(address)": {
        "details": "Transfers ownership of the contract to a new account (`newOwner`). Can only be called by the current owner."
      }
    },
    "version": 1
  },
  "userdoc": {
    "kind": "user",
    "methods": {},
    "version": 1
  }
}