{
  "contractName": "VotingYesNoModule",
  "abi": [
    {
      "inputs": [
        {
          "internalType": "address",
          "name": "_contractFactory",
          "type": "address"
        }
      ],
      "stateMutability": "nonpayable",
      "type": "constructor"
    },
    {
      "anonymous": false,
      "inputs": [
        {
          "indexed": true,
          "internalType": "address",
          "name": "previousOwner",
          "type": "address"
        },
        {
          "indexed": true,
          "internalType": "address",
          "name": "newOwner",
          "type": "address"
        }
      ],
      "name": "OwnershipTransferred",
      "type": "event"
    },
    {
      "anonymous": false,
      "inputs": [
        {
          "indexed": false,
          "internalType": "address",
          "name": "creatorAddress",
          "type": "address"
        },
        {
          "indexed": false,
          "internalType": "string",
          "name": "name",
          "type": "string"
        }
      ],
      "name": "VoteSessionCreated",
      "type": "event"
    },
    {
      "anonymous": false,
      "inputs": [
        {
          "indexed": false,
          "internalType": "address",
          "name": "voterAddress",
          "type": "address"
        },
        {
          "indexed": false,
          "internalType": "uint256",
          "name": "voteSessionId",
          "type": "uint256"
        },
        {
          "indexed": false,
          "internalType": "enum VotingYesNoModule.responseEnum",
          "name": "response",
          "type": "uint8"
        }
      ],
      "name": "Voted",
      "type": "event"
    },
    {
      "inputs": [
        {
          "internalType": "address",
          "name": "",
          "type": "address"
        }
      ],
      "name": "daos",
      "outputs": [
        {
          "internalType": "address",
          "name": "addressDao",
          "type": "address"
        },
        {
          "internalType": "uint256",
          "name": "membersCount",
          "type": "uint256"
        },
        {
          "internalType": "bool",
          "name": "isActive",
          "type": "bool"
        }
      ],
      "stateMutability": "view",
      "type": "function",
      "constant": true
    },
    {
      "inputs": [],
      "name": "owner",
      "outputs": [
        {
          "internalType": "address",
          "name": "",
          "type": "address"
        }
      ],
      "stateMutability": "view",
      "type": "function",
      "constant": true
    },
    {
      "inputs": [],
      "name": "renounceOwnership",
      "outputs": [],
      "stateMutability": "nonpayable",
      "type": "function"
    },
    {
      "inputs": [
        {
          "internalType": "address",
          "name": "newOwner",
          "type": "address"
        }
      ],
      "name": "transferOwnership",
      "outputs": [],
      "stateMutability": "nonpayable",
      "type": "function"
    },
    {
      "inputs": [
        {
          "internalType": "address",
          "name": "",
          "type": "address"
        },
        {
          "internalType": "uint256",
          "name": "",
          "type": "uint256"
        }
      ],
      "name": "voteSessions",
      "outputs": [
        {
          "internalType": "address",
          "name": "creatorAddress",
          "type": "address"
        },
        {
          "internalType": "uint256",
          "name": "creationTime",
          "type": "uint256"
        },
        {
          "internalType": "string",
          "name": "name",
          "type": "string"
        },
        {
          "internalType": "string",
          "name": "description",
          "type": "string"
        },
        {
          "internalType": "bool",
          "name": "isTerminated",
          "type": "bool"
        },
        {
          "internalType": "uint256",
          "name": "votersCount",
          "type": "uint256"
        },
        {
          "internalType": "enum VotingYesNoModule.durationEnum",
          "name": "duration",
          "type": "uint8"
        },
        {
          "internalType": "bool",
          "name": "isCreated",
          "type": "bool"
        }
      ],
      "stateMutability": "view",
      "type": "function",
      "constant": true
    },
    {
      "inputs": [
        {
          "internalType": "address",
          "name": "",
          "type": "address"
        }
      ],
      "name": "voteSessionsCount",
      "outputs": [
        {
          "internalType": "uint256",
          "name": "",
          "type": "uint256"
        }
      ],
      "stateMutability": "view",
      "type": "function",
      "constant": true
    },
    {
      "inputs": [
        {
          "internalType": "address",
          "name": "_contractDao",
          "type": "address"
        }
      ],
      "name": "getVotesCount",
      "outputs": [
        {
          "internalType": "uint256",
          "name": "",
          "type": "uint256"
        }
      ],
      "stateMutability": "view",
      "type": "function",
      "constant": true
    },
    {
      "inputs": [
        {
          "internalType": "address",
          "name": "_contractDao",
          "type": "address"
        },
        {
          "internalType": "uint256",
          "name": "voteSessionId",
          "type": "uint256"
        },
        {
          "internalType": "address",
          "name": "_voterAddress",
          "type": "address"
        }
      ],
      "name": "getVoteInfo",
      "outputs": [
        {
          "components": [
            {
              "internalType": "enum VotingYesNoModule.responseEnum",
              "name": "response",
              "type": "uint8"
            },
            {
              "internalType": "address",
              "name": "voter",
              "type": "address"
            },
            {
              "internalType": "bool",
              "name": "voted",
              "type": "bool"
            }
          ],
          "internalType": "struct VotingYesNoModule.voteResult",
          "name": "",
          "type": "tuple"
        }
      ],
      "stateMutability": "view",
      "type": "function",
      "constant": true
    },
    {
      "inputs": [
        {
          "internalType": "address",
          "name": "_contractDao",
          "type": "address"
        },
        {
          "internalType": "uint256",
          "name": "voteSessionId",
          "type": "uint256"
        }
      ],
      "name": "getVoteSessionInfo",
      "outputs": [
        {
          "internalType": "address",
          "name": "creatorAddress",
          "type": "address"
        },
        {
          "internalType": "uint256",
          "name": "creationTime",
          "type": "uint256"
        },
        {
          "internalType": "string",
          "name": "name",
          "type": "string"
        },
        {
          "internalType": "string",
          "name": "description",
          "type": "string"
        },
        {
          "internalType": "bool",
          "name": "isTerminated",
          "type": "bool"
        },
        {
          "internalType": "uint256",
          "name": "votersCount",
          "type": "uint256"
        }
      ],
      "stateMutability": "view",
      "type": "function",
      "constant": true
    },
    {
      "inputs": [
        {
          "internalType": "address",
          "name": "_contractDao",
          "type": "address"
        },
        {
          "internalType": "uint256",
          "name": "voteSessionId",
          "type": "uint256"
        },
        {
          "internalType": "uint256",
          "name": "voterId",
          "type": "uint256"
        }
      ],
      "name": "getVoterAddressById",
      "outputs": [
        {
          "internalType": "address",
          "name": "",
          "type": "address"
        }
      ],
      "stateMutability": "view",
      "type": "function",
      "constant": true
    },
    {
      "inputs": [
        {
          "internalType": "address",
          "name": "_contractDao",
          "type": "address"
        },
        {
          "internalType": "uint256",
          "name": "voteSessionId",
          "type": "uint256"
        }
      ],
      "name": "getVotersCount",
      "outputs": [
        {
          "internalType": "uint256",
          "name": "",
          "type": "uint256"
        }
      ],
      "stateMutability": "view",
      "type": "function",
      "constant": true
    },
    {
      "inputs": [
        {
          "internalType": "address",
          "name": "_contractDao",
          "type": "address"
        },
        {
          "internalType": "string",
          "name": "name",
          "type": "string"
        },
        {
          "internalType": "string",
          "name": "description",
          "type": "string"
        },
        {
          "internalType": "uint8",
          "name": "duration",
          "type": "uint8"
        }
      ],
      "name": "createVote",
      "outputs": [],
      "stateMutability": "nonpayable",
      "type": "function"
    },
    {
      "inputs": [
        {
          "internalType": "address",
          "name": "_contractDao",
          "type": "address"
        },
        {
          "internalType": "uint256",
          "name": "voteSessionId",
          "type": "uint256"
        },
        {
          "internalType": "uint8",
          "name": "response",
          "type": "uint8"
        }
      ],
      "name": "vote",
      "outputs": [],
      "stateMutability": "nonpayable",
      "type": "function"
    },
    {
      "inputs": [
        {
          "internalType": "address",
          "name": "_contractDao",
          "type": "address"
        },
        {
          "internalType": "uint256",
          "name": "voteSessionId",
          "type": "uint256"
        }
      ],
      "name": "isVoteSessionDurationExpired",
      "outputs": [
        {
          "internalType": "bool",
          "name": "",
          "type": "bool"
        }
      ],
      "stateMutability": "view",
      "type": "function",
      "constant": true
    },
    {
      "inputs": [
        {
          "internalType": "address",
          "name": "_contractDao",
          "type": "address"
        },
        {
          "internalType": "uint256",
          "name": "voteSessionId",
          "type": "uint256"
        },
        {
          "internalType": "address",
          "name": "voter",
          "type": "address"
        }
      ],
      "name": "hasVoted",
      "outputs": [
        {
          "internalType": "bool",
          "name": "",
          "type": "bool"
        }
      ],
      "stateMutability": "view",
      "type": "function",
      "constant": true
    },
    {
      "inputs": [
        {
          "internalType": "address",
          "name": "_contractDao",
          "type": "address"
        },
        {
          "internalType": "address",
          "name": "_memberDao",
          "type": "address"
        }
      ],
      "name": "addDao",
      "outputs": [],
      "stateMutability": "nonpayable",
      "type": "function"
    },
    {
      "inputs": [
        {
          "internalType": "address",
          "name": "_contractDao",
          "type": "address"
        },
        {
          "internalType": "address",
          "name": "_contractAddress",
          "type": "address"
        }
      ],
      "name": "authorizeContract",
      "outputs": [],
      "stateMutability": "nonpayable",
      "type": "function"
    },
    {
      "inputs": [
        {
          "internalType": "address",
          "name": "_contractDao",
          "type": "address"
        },
        {
          "internalType": "address",
          "name": "_contractAddress",
          "type": "address"
        }
      ],
      "name": "denyContract",
      "outputs": [],
      "stateMutability": "nonpayable",
      "type": "function"
    }
  ],
  "bytecode": "0x60806040523480156200001157600080fd5b5060405162003765380380620037658339818101604052810190620000379190620001c0565b62000069620000546200008a640100000000026401000000009004565b62000092640100000000026401000000009004565b620000838162000092640100000000026401000000009004565b50620001f2565b600033905090565b60008060009054906101000a900473ffffffffffffffffffffffffffffffffffffffff169050816000806101000a81548173ffffffffffffffffffffffffffffffffffffffff021916908373ffffffffffffffffffffffffffffffffffffffff1602179055508173ffffffffffffffffffffffffffffffffffffffff168173ffffffffffffffffffffffffffffffffffffffff167f8be0079c531659141344cd1fd0a4f28419497f9722a3daafe3b4186f6b6457e060405160405180910390a35050565b600080fd5b600073ffffffffffffffffffffffffffffffffffffffff82169050919050565b600062000188826200015b565b9050919050565b6200019a816200017b565b8114620001a657600080fd5b50565b600081519050620001ba816200018f565b92915050565b600060208284031215620001d957620001d862000156565b5b6000620001e984828501620001a9565b91505092915050565b61356380620002026000396000f3fe608060405234801561001057600080fd5b5060043610610133576000357c0100000000000000000000000000000000000000000000000000000000900480638da5cb5b116100bf578063c25f3cf61161008e578063c25f3cf614610325578063e69a190a14610357578063f2fde38b1461038e578063fd95029a146103aa578063fe0ac3e7146103da57610133565b80638da5cb5b146102775780638f66950514610295578063a5fc4dc6146102c5578063c19fe6c2146102f557610133565b80634568f199116101065780634568f199146101d05780636a348b7b146101ec578063715018a614610208578063770e172a146102125780638b1ce2ef1461024757610133565b80630fae38ac1461013857806312ee7e4114610168578063144fdd5d1461018457806338e58af0146101b4575b600080fd5b610152600480360381019061014d91906125f2565b6103f6565b60405161015f9190612660565b60405180910390f35b610182600480360381019061017d919061267b565b610542565b005b61019e600480360381019061019991906126bb565b6108d3565b6040516101ab919061270a565b60405180910390f35b6101ce60048036038101906101c991906128a4565b610931565b005b6101ea60048036038101906101e5919061267b565b610d5c565b005b61020660048036038101906102019190612943565b610f04565b005b6102106115d7565b005b61022c600480360381019061022791906126bb565b61165f565b60405161023e96959493929190612a2d565b60405180910390f35b610261600480360381019061025c91906126bb565b6119b3565b60405161026e9190612660565b60405180910390f35b61027f611c7b565b60405161028c9190612a9c565b60405180910390f35b6102af60048036038101906102aa9190612ab7565b611ca4565b6040516102bc9190612a9c565b60405180910390f35b6102df60048036038101906102da9190612b0a565b611d34565b6040516102ec919061270a565b60405180910390f35b61030f600480360381019061030a9190612b0a565b611d4c565b60405161031c919061270a565b60405180910390f35b61033f600480360381019061033a9190612b0a565b611d95565b60405161034e93929190612b37565b60405180910390f35b610371600480360381019061036c91906126bb565b611dec565b604051610385989796959493929190612be5565b60405180910390f35b6103a860048036038101906103a39190612b0a565b611f98565b005b6103c460048036038101906103bf91906125f2565b612090565b6040516103d19190612d19565b60405180910390f35b6103f460048036038101906103ef919061267b565b6121e8565b005b6000600360008573ffffffffffffffffffffffffffffffffffffffff1673ffffffffffffffffffffffffffffffffffffffff168152602001908152602001600020600084815260200190815260200160002060090160019054906101000a900460ff16610498576040517f08c379a000000000000000000000000000000000000000000000000000000000815260040161048f90612d80565b60405180910390fd5b600360008573ffffffffffffffffffffffffffffffffffffffff1673ffffffffffffffffffffffffffffffffffffffff168152602001908152602001600020600084815260200190815260200160002060060160008373ffffffffffffffffffffffffffffffffffffffff1673ffffffffffffffffffffffffffffffffffffffff16815260200190815260200160002060000160159054906101000a900460ff1690509392505050565b8160011515600560008373ffffffffffffffffffffffffffffffffffffffff1673ffffffffffffffffffffffffffffffffffffffff16815260200190815260200160002060003373ffffffffffffffffffffffffffffffffffffffff1673ffffffffffffffffffffffffffffffffffffffff16815260200190815260200160002060009054906101000a900460ff161515148061061157506105e2611c7b565b73ffffffffffffffffffffffffffffffffffffffff163373ffffffffffffffffffffffffffffffffffffffff16145b610650576040517f08c379a000000000000000000000000000000000000000000000000000000000815260040161064790612dec565b60405180910390fd5b600460008473ffffffffffffffffffffffffffffffffffffffff1673ffffffffffffffffffffffffffffffffffffffff16815260200190815260200160002060040160009054906101000a900460ff16156106e0576040517f08c379a00000000000000000000000000000000000000000000000000000000081526004016106d790612e58565b60405180910390fd5b6001600460008573ffffffffffffffffffffffffffffffffffffffff1673ffffffffffffffffffffffffffffffffffffffff16815260200190815260200160002060040160006101000a81548160ff02191690831515021790555082600460008573ffffffffffffffffffffffffffffffffffffffff1673ffffffffffffffffffffffffffffffffffffffff16815260200190815260200160002060000160006101000a81548173ffffffffffffffffffffffffffffffffffffffff021916908373ffffffffffffffffffffffffffffffffffffffff1602179055508273ffffffffffffffffffffffffffffffffffffffff1663d8d8e93c6040516020016107e790612ec4565b604051602081830303815290604052805190602001206040518263ffffffff167c01000000000000000000000000000000000000000000000000000000000281526004016108359190612f1f565b60006040518083038186803b15801561084d57600080fd5b505afa158015610861573d6000803e3d6000fd5b505050506040513d6000823e3d601f19601f8201168201806040525081019061088a91906130f2565b60200151600660006101000a81548173ffffffffffffffffffffffffffffffffffffffff021916908373ffffffffffffffffffffffffffffffffffffffff160217905550505050565b6000600360008473ffffffffffffffffffffffffffffffffffffffff1673ffffffffffffffffffffffffffffffffffffffff168152602001908152602001600020600083815260200190815260200160002060050154905092915050565b600260008573ffffffffffffffffffffffffffffffffffffffff1673ffffffffffffffffffffffffffffffffffffffff1681526020019081526020016000206000815461097d9061316a565b919050819055506000600360008673ffffffffffffffffffffffffffffffffffffffff1673ffffffffffffffffffffffffffffffffffffffff1681526020019081526020016000206000600260008873ffffffffffffffffffffffffffffffffffffffff1673ffffffffffffffffffffffffffffffffffffffff16815260200190815260200160002054815260200190815260200160002060040160006101000a81548160ff02191690831515021790555082600360008673ffffffffffffffffffffffffffffffffffffffff1673ffffffffffffffffffffffffffffffffffffffff1681526020019081526020016000206000600260008873ffffffffffffffffffffffffffffffffffffffff1673ffffffffffffffffffffffffffffffffffffffff1681526020019081526020016000205481526020019081526020016000206002019080519060200190610ad592919061245c565b5081600360008673ffffffffffffffffffffffffffffffffffffffff1673ffffffffffffffffffffffffffffffffffffffff1681526020019081526020016000206000600260008873ffffffffffffffffffffffffffffffffffffffff1673ffffffffffffffffffffffffffffffffffffffff1681526020019081526020016000205481526020019081526020016000206003019080519060200190610b7c92919061245c565b5033600360008673ffffffffffffffffffffffffffffffffffffffff1673ffffffffffffffffffffffffffffffffffffffff1681526020019081526020016000206000600260008873ffffffffffffffffffffffffffffffffffffffff1673ffffffffffffffffffffffffffffffffffffffff16815260200190815260200160002054815260200190815260200160002060000160006101000a81548173ffffffffffffffffffffffffffffffffffffffff021916908373ffffffffffffffffffffffffffffffffffffffff1602179055508060ff166001811115610c6457610c63612b6e565b5b600360008673ffffffffffffffffffffffffffffffffffffffff1673ffffffffffffffffffffffffffffffffffffffff1681526020019081526020016000206000600260008873ffffffffffffffffffffffffffffffffffffffff1673ffffffffffffffffffffffffffffffffffffffff16815260200190815260200160002054815260200190815260200160002060090160006101000a81548160ff02191690836001811115610d1857610d17612b6e565b5b02179055507fcd6cc57f1b7b27f4de7516169856aba6cdae3616948048548d9e3893565c61603384604051610d4e9291906131b3565b60405180910390a150505050565b8160011515600560008373ffffffffffffffffffffffffffffffffffffffff1673ffffffffffffffffffffffffffffffffffffffff16815260200190815260200160002060003373ffffffffffffffffffffffffffffffffffffffff1673ffffffffffffffffffffffffffffffffffffffff16815260200190815260200160002060009054906101000a900460ff1615151480610e2b5750610dfc611c7b565b73ffffffffffffffffffffffffffffffffffffffff163373ffffffffffffffffffffffffffffffffffffffff16145b610e6a576040517f08c379a0000000000000000000000000000000000000000000000000000000008152600401610e6190612dec565b60405180910390fd5b6001600560008573ffffffffffffffffffffffffffffffffffffffff1673ffffffffffffffffffffffffffffffffffffffff16815260200190815260200160002060008473ffffffffffffffffffffffffffffffffffffffff1673ffffffffffffffffffffffffffffffffffffffff16815260200190815260200160002060006101000a81548160ff021916908315150217905550505050565b600360008473ffffffffffffffffffffffffffffffffffffffff1673ffffffffffffffffffffffffffffffffffffffff168152602001908152602001600020600083815260200190815260200160002060090160019054906101000a900460ff16610fa4576040517f08c379a0000000000000000000000000000000000000000000000000000000008152600401610f9b90612d80565b60405180910390fd5b610fae83836119b3565b610fed576040517f08c379a0000000000000000000000000000000000000000000000000000000008152600401610fe49061322f565b60405180910390fd5b610ff88383336103f6565b611037576040517f08c379a000000000000000000000000000000000000000000000000000000000815260040161102e9061329b565b60405180910390fd5b600660009054906101000a900473ffffffffffffffffffffffffffffffffffffffff1673ffffffffffffffffffffffffffffffffffffffff166345ecd02f336040518263ffffffff167c01000000000000000000000000000000000000000000000000000000000281526004016110ae9190612a9c565b60206040518083038186803b1580156110c657600080fd5b505afa1580156110da573d6000803e3d6000fd5b505050506040513d601f19601f820116820180604052508101906110fe91906132bb565b61113d576040517f08c379a000000000000000000000000000000000000000000000000000000000815260040161113490613334565b60405180910390fd5b33600360008573ffffffffffffffffffffffffffffffffffffffff1673ffffffffffffffffffffffffffffffffffffffff16815260200190815260200160002060008481526020019081526020016000206007016000600360008773ffffffffffffffffffffffffffffffffffffffff1673ffffffffffffffffffffffffffffffffffffffff168152602001908152602001600020600086815260200190815260200160002060050154815260200190815260200160002060006101000a81548173ffffffffffffffffffffffffffffffffffffffff021916908373ffffffffffffffffffffffffffffffffffffffff160217905550600360008473ffffffffffffffffffffffffffffffffffffffff1673ffffffffffffffffffffffffffffffffffffffff1681526020019081526020016000206000838152602001908152602001600020600501600081546112939061316a565b919050819055508060ff1660018111156112b0576112af612b6e565b5b600360008573ffffffffffffffffffffffffffffffffffffffff1673ffffffffffffffffffffffffffffffffffffffff168152602001908152602001600020600084815260200190815260200160002060060160003373ffffffffffffffffffffffffffffffffffffffff1673ffffffffffffffffffffffffffffffffffffffff16815260200190815260200160002060000160006101000a81548160ff0219169083600181111561136557611364612b6e565b5b02179055506001600360008573ffffffffffffffffffffffffffffffffffffffff1673ffffffffffffffffffffffffffffffffffffffff168152602001908152602001600020600084815260200190815260200160002060060160003373ffffffffffffffffffffffffffffffffffffffff1673ffffffffffffffffffffffffffffffffffffffff16815260200190815260200160002060000160156101000a81548160ff021916908315150217905550600360008473ffffffffffffffffffffffffffffffffffffffff1673ffffffffffffffffffffffffffffffffffffffff168152602001908152602001600020600083815260200190815260200160002060080160405180606001604052808360ff16600181111561148a57611489612b6e565b5b600181111561149c5761149b612b6e565b5b81526020013373ffffffffffffffffffffffffffffffffffffffff168152602001600115158152509080600181540180825580915050600190039060005260206000200160009091909190915060008201518160000160006101000a81548160ff0219169083600181111561151457611513612b6e565b5b021790555060208201518160000160016101000a81548173ffffffffffffffffffffffffffffffffffffffff021916908373ffffffffffffffffffffffffffffffffffffffff16021790555060408201518160000160156101000a81548160ff02191690831515021790555050507fcc66c27f993ef125e1b985d84a52726edc66dcc64e94d172f80253e37d52637233838360ff1660018111156115bb576115ba612b6e565b5b6040516115ca93929190613363565b60405180910390a1505050565b6115df612390565b73ffffffffffffffffffffffffffffffffffffffff166115fd611c7b565b73ffffffffffffffffffffffffffffffffffffffff1614611653576040517f08c379a000000000000000000000000000000000000000000000000000000000815260040161164a906133e6565b60405180910390fd5b61165d6000612398565b565b600080606080600080600360008973ffffffffffffffffffffffffffffffffffffffff1673ffffffffffffffffffffffffffffffffffffffff168152602001908152602001600020600088815260200190815260200160002060000160009054906101000a900473ffffffffffffffffffffffffffffffffffffffff169550600360008973ffffffffffffffffffffffffffffffffffffffff1673ffffffffffffffffffffffffffffffffffffffff1681526020019081526020016000206000888152602001908152602001600020600101549450600360008973ffffffffffffffffffffffffffffffffffffffff1673ffffffffffffffffffffffffffffffffffffffff1681526020019081526020016000206000888152602001908152602001600020600201805461179290613435565b80601f01602080910402602001604051908101604052809291908181526020018280546117be90613435565b801561180b5780601f106117e05761010080835404028352916020019161180b565b820191906000526020600020905b8154815290600101906020018083116117ee57829003601f168201915b50505050509350600360008973ffffffffffffffffffffffffffffffffffffffff1673ffffffffffffffffffffffffffffffffffffffff1681526020019081526020016000206000888152602001908152602001600020600301805461187090613435565b80601f016020809104026020016040519081016040528092919081815260200182805461189c90613435565b80156118e95780601f106118be576101008083540402835291602001916118e9565b820191906000526020600020905b8154815290600101906020018083116118cc57829003601f168201915b50505050509250600360008973ffffffffffffffffffffffffffffffffffffffff1673ffffffffffffffffffffffffffffffffffffffff168152602001908152602001600020600088815260200190815260200160002060040160009054906101000a900460ff169150600360008973ffffffffffffffffffffffffffffffffffffffff1673ffffffffffffffffffffffffffffffffffffffff16815260200190815260200160002060008881526020019081526020016000206005015490509295509295509295565b6000600360008473ffffffffffffffffffffffffffffffffffffffff1673ffffffffffffffffffffffffffffffffffffffff168152602001908152602001600020600083815260200190815260200160002060090160019054906101000a900460ff16611a55576040517f08c379a0000000000000000000000000000000000000000000000000000000008152600401611a4c90612d80565b60405180910390fd5b600360008473ffffffffffffffffffffffffffffffffffffffff1673ffffffffffffffffffffffffffffffffffffffff168152602001908152602001600020600083815260200190815260200160002060040160009054906101000a900460ff1615611ac45760019050611c75565b6000600360008573ffffffffffffffffffffffffffffffffffffffff1673ffffffffffffffffffffffffffffffffffffffff16815260200190815260200160002060008481526020019081526020016000206001015442611b259190613467565b905060006001811115611b3b57611b3a612b6e565b5b600360008673ffffffffffffffffffffffffffffffffffffffff1673ffffffffffffffffffffffffffffffffffffffff168152602001908152602001600020600085815260200190815260200160002060090160009054906101000a900460ff166001811115611bae57611bad612b6e565b5b148015611bbc5750610e1081115b15611bcb576001915050611c75565b600180811115611bde57611bdd612b6e565b5b600360008673ffffffffffffffffffffffffffffffffffffffff1673ffffffffffffffffffffffffffffffffffffffff168152602001908152602001600020600085815260200190815260200160002060090160009054906101000a900460ff166001811115611c5157611c50612b6e565b5b148015611c6057506201518081115b15611c6f576001915050611c75565b60009150505b92915050565b60008060009054906101000a900473ffffffffffffffffffffffffffffffffffffffff16905090565b6000600360008573ffffffffffffffffffffffffffffffffffffffff1673ffffffffffffffffffffffffffffffffffffffff1681526020019081526020016000206000848152602001908152602001600020600701600083815260200190815260200160002060009054906101000a900473ffffffffffffffffffffffffffffffffffffffff1690509392505050565b60026020528060005260406000206000915090505481565b6000600260008373ffffffffffffffffffffffffffffffffffffffff1673ffffffffffffffffffffffffffffffffffffffff168152602001908152602001600020549050919050565b60046020528060005260406000206000915090508060000160009054906101000a900473ffffffffffffffffffffffffffffffffffffffff16908060010154908060040160009054906101000a900460ff16905083565b6003602052816000526040600020602052806000526040600020600091509150508060000160009054906101000a900473ffffffffffffffffffffffffffffffffffffffff1690806001015490806002018054611e4890613435565b80601f0160208091040260200160405190810160405280929190818152602001828054611e7490613435565b8015611ec15780601f10611e9657610100808354040283529160200191611ec1565b820191906000526020600020905b815481529060010190602001808311611ea457829003601f168201915b505050505090806003018054611ed690613435565b80601f0160208091040260200160405190810160405280929190818152602001828054611f0290613435565b8015611f4f5780601f10611f2457610100808354040283529160200191611f4f565b820191906000526020600020905b815481529060010190602001808311611f3257829003601f168201915b5050505050908060040160009054906101000a900460ff16908060050154908060090160009054906101000a900460ff16908060090160019054906101000a900460ff16905088565b611fa0612390565b73ffffffffffffffffffffffffffffffffffffffff16611fbe611c7b565b73ffffffffffffffffffffffffffffffffffffffff1614612014576040517f08c379a000000000000000000000000000000000000000000000000000000000815260040161200b906133e6565b60405180910390fd5b600073ffffffffffffffffffffffffffffffffffffffff168173ffffffffffffffffffffffffffffffffffffffff161415612084576040517f08c379a000000000000000000000000000000000000000000000000000000000815260040161207b9061350d565b60405180910390fd5b61208d81612398565b50565b6120986124e2565b600360008573ffffffffffffffffffffffffffffffffffffffff1673ffffffffffffffffffffffffffffffffffffffff168152602001908152602001600020600084815260200190815260200160002060060160008373ffffffffffffffffffffffffffffffffffffffff1673ffffffffffffffffffffffffffffffffffffffff1681526020019081526020016000206040518060600160405290816000820160009054906101000a900460ff16600181111561215857612157612b6e565b5b600181111561216a57612169612b6e565b5b81526020016000820160019054906101000a900473ffffffffffffffffffffffffffffffffffffffff1673ffffffffffffffffffffffffffffffffffffffff1673ffffffffffffffffffffffffffffffffffffffff1681526020016000820160159054906101000a900460ff16151515158152505090509392505050565b8160011515600560008373ffffffffffffffffffffffffffffffffffffffff1673ffffffffffffffffffffffffffffffffffffffff16815260200190815260200160002060003373ffffffffffffffffffffffffffffffffffffffff1673ffffffffffffffffffffffffffffffffffffffff16815260200190815260200160002060009054906101000a900460ff16151514806122b75750612288611c7b565b73ffffffffffffffffffffffffffffffffffffffff163373ffffffffffffffffffffffffffffffffffffffff16145b6122f6576040517f08c379a00000000000000000000000000000000000000000000000000000000081526004016122ed90612dec565b60405180910390fd5b6000600560008573ffffffffffffffffffffffffffffffffffffffff1673ffffffffffffffffffffffffffffffffffffffff16815260200190815260200160002060008473ffffffffffffffffffffffffffffffffffffffff1673ffffffffffffffffffffffffffffffffffffffff16815260200190815260200160002060006101000a81548160ff021916908315150217905550505050565b600033905090565b60008060009054906101000a900473ffffffffffffffffffffffffffffffffffffffff169050816000806101000a81548173ffffffffffffffffffffffffffffffffffffffff021916908373ffffffffffffffffffffffffffffffffffffffff1602179055508173ffffffffffffffffffffffffffffffffffffffff168173ffffffffffffffffffffffffffffffffffffffff167f8be0079c531659141344cd1fd0a4f28419497f9722a3daafe3b4186f6b6457e060405160405180910390a35050565b82805461246890613435565b90600052602060002090601f01602090048101928261248a57600085556124d1565b82601f106124a357805160ff19168380011785556124d1565b828001600101855582156124d1579182015b828111156124d05782518255916020019190600101906124b5565b5b5090506124de919061252d565b5090565b60405180606001604052806000600181111561250157612500612b6e565b5b8152602001600073ffffffffffffffffffffffffffffffffffffffff1681526020016000151581525090565b5b8082111561254657600081600090555060010161252e565b5090565b6000604051905090565b600080fd5b600080fd5b600073ffffffffffffffffffffffffffffffffffffffff82169050919050565b60006125898261255e565b9050919050565b6125998161257e565b81146125a457600080fd5b50565b6000813590506125b681612590565b92915050565b6000819050919050565b6125cf816125bc565b81146125da57600080fd5b50565b6000813590506125ec816125c6565b92915050565b60008060006060848603121561260b5761260a612554565b5b6000612619868287016125a7565b935050602061262a868287016125dd565b925050604061263b868287016125a7565b9150509250925092565b60008115159050919050565b61265a81612645565b82525050565b60006020820190506126756000830184612651565b92915050565b6000806040838503121561269257612691612554565b5b60006126a0858286016125a7565b92505060206126b1858286016125a7565b9150509250929050565b600080604083850312156126d2576126d1612554565b5b60006126e0858286016125a7565b92505060206126f1858286016125dd565b9150509250929050565b612704816125bc565b82525050565b600060208201905061271f60008301846126fb565b92915050565b600080fd5b600080fd5b6000601f19601f8301169050919050565b7f4e487b7100000000000000000000000000000000000000000000000000000000600052604160045260246000fd5b6127788261272f565b810181811067ffffffffffffffff8211171561279757612796612740565b5b80604052505050565b60006127aa61254a565b90506127b6828261276f565b919050565b600067ffffffffffffffff8211156127d6576127d5612740565b5b6127df8261272f565b9050602081019050919050565b82818337600083830152505050565b600061280e612809846127bb565b6127a0565b90508281526020810184848401111561282a5761282961272a565b5b6128358482856127ec565b509392505050565b600082601f83011261285257612851612725565b5b81356128628482602086016127fb565b91505092915050565b600060ff82169050919050565b6128818161286b565b811461288c57600080fd5b50565b60008135905061289e81612878565b92915050565b600080600080608085870312156128be576128bd612554565b5b60006128cc878288016125a7565b945050602085013567ffffffffffffffff8111156128ed576128ec612559565b5b6128f98782880161283d565b935050604085013567ffffffffffffffff81111561291a57612919612559565b5b6129268782880161283d565b92505060606129378782880161288f565b91505092959194509250565b60008060006060848603121561295c5761295b612554565b5b600061296a868287016125a7565b935050602061297b868287016125dd565b925050604061298c8682870161288f565b9150509250925092565b61299f8161257e565b82525050565b600081519050919050565b600082825260208201905092915050565b60005b838110156129df5780820151818401526020810190506129c4565b838111156129ee576000848401525b50505050565b60006129ff826129a5565b612a0981856129b0565b9350612a198185602086016129c1565b612a228161272f565b840191505092915050565b600060c082019050612a426000830189612996565b612a4f60208301886126fb565b8181036040830152612a6181876129f4565b90508181036060830152612a7581866129f4565b9050612a846080830185612651565b612a9160a08301846126fb565b979650505050505050565b6000602082019050612ab16000830184612996565b92915050565b600080600060608486031215612ad057612acf612554565b5b6000612ade868287016125a7565b9350506020612aef868287016125dd565b9250506040612b00868287016125dd565b9150509250925092565b600060208284031215612b2057612b1f612554565b5b6000612b2e848285016125a7565b91505092915050565b6000606082019050612b4c6000830186612996565b612b5960208301856126fb565b612b666040830184612651565b949350505050565b7f4e487b7100000000000000000000000000000000000000000000000000000000600052602160045260246000fd5b60028110612bae57612bad612b6e565b5b50565b6000819050612bbf82612b9d565b919050565b6000612bcf82612bb1565b9050919050565b612bdf81612bc4565b82525050565b600061010082019050612bfb600083018b612996565b612c08602083018a6126fb565b8181036040830152612c1a81896129f4565b90508181036060830152612c2e81886129f4565b9050612c3d6080830187612651565b612c4a60a08301866126fb565b612c5760c0830185612bd6565b612c6460e0830184612651565b9998505050505050505050565b60028110612c8257612c81612b6e565b5b50565b6000819050612c9382612c71565b919050565b6000612ca382612c85565b9050919050565b612cb381612c98565b82525050565b612cc28161257e565b82525050565b612cd181612645565b82525050565b606082016000820151612ced6000850182612caa565b506020820151612d006020850182612cb9565b506040820151612d136040850182612cc8565b50505050565b6000606082019050612d2e6000830184612cd7565b92915050565b7f566f74652073657373696f6e206e6f7420666f756e6400000000000000000000600082015250565b6000612d6a6016836129b0565b9150612d7582612d34565b602082019050919050565b60006020820190508181036000830152612d9981612d5d565b9050919050565b7f4e6f7420617574686f72697a6564204242420000000000000000000000000000600082015250565b6000612dd66012836129b0565b9150612de182612da0565b602082019050919050565b60006020820190508181036000830152612e0581612dc9565b9050919050565b7f44616f20616c7265616479206164646564000000000000000000000000000000600082015250565b6000612e426011836129b0565b9150612e4d82612e0c565b602082019050919050565b60006020820190508181036000830152612e7181612e35565b9050919050565b7f4d656d6265724d6f64756c650000000000000000000000000000000000000000600082015250565b6000612eae600c836129b0565b9150612eb982612e78565b602082019050919050565b60006020820190508181036000830152612edd81612ea1565b9050919050565b60007fffffffffffffffff00000000000000000000000000000000000000000000000082169050919050565b612f1981612ee4565b82525050565b6000602082019050612f346000830184612f10565b92915050565b600080fd5b600080fd5b600081519050612f53816125c6565b92915050565b600081519050612f6881612590565b92915050565b612f7781612645565b8114612f8257600080fd5b50565b600081519050612f9481612f6e565b92915050565b612fa381612ee4565b8114612fae57600080fd5b50565b600081519050612fc081612f9a565b92915050565b6000612fd9612fd4846127bb565b6127a0565b905082815260208101848484011115612ff557612ff461272a565b5b6130008482856129c1565b509392505050565b600082601f83011261301d5761301c612725565b5b815161302d848260208601612fc6565b91505092915050565b600060c0828403121561304c5761304b612f3a565b5b61305660c06127a0565b9050600061306684828501612f44565b600083015250602061307a84828501612f59565b602083015250604061308e84828501612f85565b60408301525060606130a284828501612fb1565b60608301525060806130b684828501612fb1565b60808301525060a082015167ffffffffffffffff8111156130da576130d9612f3f565b5b6130e684828501613008565b60a08301525092915050565b60006020828403121561310857613107612554565b5b600082015167ffffffffffffffff81111561312657613125612559565b5b61313284828501613036565b91505092915050565b7f4e487b7100000000000000000000000000000000000000000000000000000000600052601160045260246000fd5b6000613175826125bc565b91507fffffffffffffffffffffffffffffffffffffffffffffffffffffffffffffffff8214156131a8576131a761313b565b5b600182019050919050565b60006040820190506131c86000830185612996565b81810360208301526131da81846129f4565b90509392505050565b7f566f74652073657373696f6e207465726d696e61746564000000000000000000600082015250565b60006132196017836129b0565b9150613224826131e3565b602082019050919050565b600060208201905081810360008301526132488161320c565b9050919050565b7f416c726561647920766f74656400000000000000000000000000000000000000600082015250565b6000613285600d836129b0565b91506132908261324f565b602082019050919050565b600060208201905081810360008301526132b481613278565b9050919050565b6000602082840312156132d1576132d0612554565b5b60006132df84828501612f85565b91505092915050565b7f4e6f742044414f206d656d626572000000000000000000000000000000000000600082015250565b600061331e600e836129b0565b9150613329826132e8565b602082019050919050565b6000602082019050818103600083015261334d81613311565b9050919050565b61335d81612c98565b82525050565b60006060820190506133786000830186612996565b61338560208301856126fb565b6133926040830184613354565b949350505050565b7f4f776e61626c653a2063616c6c6572206973206e6f7420746865206f776e6572600082015250565b60006133d06020836129b0565b91506133db8261339a565b602082019050919050565b600060208201905081810360008301526133ff816133c3565b9050919050565b7f4e487b7100000000000000000000000000000000000000000000000000000000600052602260045260246000fd5b6000600282049050600182168061344d57607f821691505b6020821081141561346157613460613406565b5b50919050565b6000613472826125bc565b915061347d836125bc565b9250828210156134905761348f61313b565b5b828203905092915050565b7f4f776e61626c653a206e6577206f776e657220697320746865207a65726f206160008201527f6464726573730000000000000000000000000000000000000000000000000000602082015250565b60006134f76026836129b0565b91506135028261349b565b604082019050919050565b60006020820190508181036000830152613526816134ea565b905091905056fea2646970667358221220818896e94f24b88c6fc95e404f25e7270aabfd13450686d63e278b034b1e2af864736f6c63430008090033",
  "immutableReferences": {},
  "source": "// SPDX-License-Identifier: MIT\r\npragma solidity ^0.8.9;\r\n\r\nimport \"@openzeppelin/contracts/utils/math/SafeMath.sol\";\r\nimport \"@openzeppelin/contracts/access/Ownable.sol\";\r\nimport \"../../Data.sol\";\r\nimport \"../Interfaces/IMembersDAO.sol\";\r\nimport \"../../DaoBase.sol\";\r\n\r\n//is DaosFactory\r\ncontract VotingYesNoModule is Ownable {\r\n    using SafeMath for uint256;\r\n    //DaoBase private dao;\r\n    IMembersDao private membersDao;\r\n    mapping(address => uint256) public voteSessionsCount;\r\n    mapping(address => mapping(uint256 => voteSession)) public voteSessions;\r\n    mapping(address => Data.DaoMember) public daos;\r\n    mapping(address => mapping(address => bool)) private authorizedContracts;\r\n    address private memberModuleAddress;\r\n\r\n    struct voteSession {\r\n        address creatorAddress;\r\n        uint256 creationTime;\r\n        string name;\r\n        string description;\r\n        bool isTerminated;\r\n        uint256 votersCount;\r\n        mapping(address => voteResult) votes;\r\n        mapping(uint256 => address) voterAddresses;\r\n        voteResult[] voteResults;\r\n        durationEnum duration;\r\n        bool isCreated;\r\n    }\r\n\r\n    struct voteResult {\r\n        responseEnum response;\r\n        address voter;\r\n        bool voted;\r\n    }\r\n\r\n    struct voteResponseResult {\r\n        responseEnum response;\r\n        uint256 voteNumbers;\r\n    } \r\n\r\n    enum responseEnum {\r\n        yes,\r\n        no\r\n    }\r\n\r\n    enum durationEnum {\r\n        oneHour,\r\n        oneDay\r\n    }\r\n\r\n    event VoteSessionCreated(address creatorAddress, string name);\r\n    event Voted(address voterAddress, uint256 voteSessionId, responseEnum response);\r\n\r\n    constructor(address _contractFactory) {\r\n        _transferOwnership(_contractFactory);\r\n    }\r\n\r\n    modifier onlyAuthorizeContracts(address _contractDao) {\r\n        require(authorizedContracts[_contractDao][msg.sender] == true, \"Not authorized BB\");\r\n        _;\r\n    }\r\n    modifier onlyAuthorizeContractsOrOwner(address _contractDao) {\r\n        require(authorizedContracts[_contractDao][msg.sender] == true || msg.sender == owner(), \"Not authorized BBB\");\r\n        _;\r\n    }\r\n\r\n    function getVotesCount(address _contractDao) public view returns (uint256)\r\n    {\r\n        return voteSessionsCount[_contractDao];\r\n    }\r\n\r\n    // function getVote(address _contractDao, uint256 voteSessionId) external view returns (voteSession memory)\r\n    // {\r\n    //     return (voteSessions[_contractDao][voteSessionId]);\r\n    // }\r\n\r\n    function getVoteInfo(address _contractDao, uint256 voteSessionId, address _voterAddress) external view returns(voteResult memory) {\r\n        return(voteSessions[_contractDao][voteSessionId].votes[_voterAddress]);\r\n    }\r\n\r\n    function getVoteSessionInfo(address _contractDao, uint256 voteSessionId) external view returns(address creatorAddress,\r\n                                                                                                                            uint256 creationTime,\r\n                                                                                                                            string memory name,\r\n                                                                                                                            string memory description,\r\n                                                                                                                            bool isTerminated,\r\n                                                                                                                            uint256 votersCount) {\r\n         creatorAddress = voteSessions[_contractDao][voteSessionId].creatorAddress;\r\n         creationTime = voteSessions[_contractDao][voteSessionId].creationTime;\r\n         name = voteSessions[_contractDao][voteSessionId].name;\r\n         description = voteSessions[_contractDao][voteSessionId].description;\r\n         isTerminated = voteSessions[_contractDao][voteSessionId].isTerminated;\r\n         votersCount = voteSessions[_contractDao][voteSessionId].votersCount;\r\n    }\r\n\r\n    function getVoterAddressById(address _contractDao, uint256 voteSessionId, uint256 voterId) external view returns(address) {\r\n        return voteSessions[_contractDao][voteSessionId].voterAddresses[voterId];\r\n    }\r\n\r\n    function getVotersCount(address _contractDao, uint256 voteSessionId) external view returns(uint256) {\r\n        return voteSessions[_contractDao][voteSessionId].votersCount;\r\n    }\r\n\r\n    function createVote(address _contractDao, string memory name, string memory description, uint8 duration) public {\r\n        ++voteSessionsCount[_contractDao];\r\n        voteSessions[_contractDao][voteSessionsCount[_contractDao]].isTerminated = false;\r\n        voteSessions[_contractDao][voteSessionsCount[_contractDao]].name = name;\r\n        voteSessions[_contractDao][voteSessionsCount[_contractDao]].description = description;\r\n        voteSessions[_contractDao][voteSessionsCount[_contractDao]].creatorAddress = msg.sender;\r\n        voteSessions[_contractDao][voteSessionsCount[_contractDao]].duration = durationEnum(duration);\r\n        \r\n        emit VoteSessionCreated(msg.sender, name);\r\n    }\r\n\r\n    function vote(address _contractDao, uint256 voteSessionId, uint8 response) public {\r\n        require(voteSessions[_contractDao][voteSessionId].isCreated, \"Vote session not found\");\r\n        require(isVoteSessionDurationExpired(_contractDao, voteSessionId), \"Vote session terminated\");\r\n        require(hasVoted(_contractDao, voteSessionId, msg.sender), \"Already voted\");\r\n        require(IMembersDao(memberModuleAddress).isActiveMember(msg.sender), \"Not DAO member\");\r\n\r\n        //add voter address\r\n        voteSessions[_contractDao][voteSessionId].voterAddresses[voteSessions[_contractDao][voteSessionId].votersCount] = msg.sender;\r\n        ++voteSessions[_contractDao][voteSessionId].votersCount;\r\n\r\n        //add voter vote\r\n        voteSessions[_contractDao][voteSessionId].votes[msg.sender].response = responseEnum(response);\r\n        voteSessions[_contractDao][voteSessionId].votes[msg.sender].voted = true;\r\n        voteSessions[_contractDao][voteSessionId].voteResults.push(voteResult(responseEnum(response), msg.sender, true));\r\n        \r\n        emit Voted(msg.sender, voteSessionId, responseEnum(response));\r\n    }\r\n\r\n    function isVoteSessionDurationExpired(address _contractDao, uint256 voteSessionId) public view returns (bool) {\r\n        require(voteSessions[_contractDao][voteSessionId].isCreated, \"Vote session not found\");\r\n\r\n        if(voteSessions[_contractDao][voteSessionId].isTerminated)\r\n            return true;\r\n\r\n        uint256 deltaTimestamp = block.timestamp - voteSessions[_contractDao][voteSessionId].creationTime;\r\n        if(voteSessions[_contractDao][voteSessionId].duration == durationEnum.oneHour && deltaTimestamp > 1 hours)\r\n            return true;\r\n        if(voteSessions[_contractDao][voteSessionId].duration == durationEnum.oneDay && deltaTimestamp > 1 days)\r\n            return true;\r\n\r\n        return false;\r\n    }    \r\n\r\n    function hasVoted(address _contractDao, uint256 voteSessionId, address voter) public view returns (bool) {\r\n        require(voteSessions[_contractDao][voteSessionId].isCreated, \"Vote session not found\");\r\n\r\n        return voteSessions[_contractDao][voteSessionId].votes[voter].voted;\r\n    }     \r\n\r\n    function addDao(address _contractDao, address _memberDao) external onlyAuthorizeContractsOrOwner(_contractDao) {\r\n        require(!daos[_contractDao].isActive, \"Dao already added\");\r\n        daos[_contractDao].isActive = true;\r\n        daos[_contractDao].addressDao = _contractDao;\r\n        memberModuleAddress = DaoBase(_contractDao).getModuleData(bytes8(keccak256(abi.encode(\"MemberModule\")))).moduleAddress;\r\n    }\r\n\r\n    function authorizeContract(address _contractDao, address _contractAddress) external onlyAuthorizeContractsOrOwner(_contractDao) {\r\n        authorizedContracts[_contractDao][_contractAddress] = true;\r\n    }\r\n\r\n    function denyContract(address _contractDao, address _contractAddress) external onlyAuthorizeContractsOrOwner(_contractDao) {\r\n        authorizedContracts[_contractDao][_contractAddress] = false;\r\n    }\r\n}",
  "sourcePath": "C:\\Users\\mdmou\\source\\repos\\MY-DAO\\contracts\\Modules\\Implementations\\VotingYesNoModule.sol",
  "compiler": {
    "name": "solc",
    "version": "0.8.9+commit.e5eed63a.Emscripten.clang"
  },
  "schemaVersion": "3.4.4",
  "updatedAt": "2022-05-17T15:55:26.701Z",
  "networkType": "ethereum",
  "devdoc": {
    "kind": "dev",
    "methods": {
      "owner()": {
        "details": "Returns the address of the current owner."
      },
      "renounceOwnership()": {
        "details": "Leaves the contract without owner. It will not be possible to call `onlyOwner` functions anymore. Can only be called by the current owner. NOTE: Renouncing ownership will leave the contract without an owner, thereby removing any functionality that is only available to the owner."
      },
      "transferOwnership(address)": {
        "details": "Transfers ownership of the contract to a new account (`newOwner`). Can only be called by the current owner."
      }
    },
    "version": 1
  },
  "userdoc": {
    "kind": "user",
    "methods": {},
    "version": 1
  }
}