{
  "contractName": "VotingYesNoModule",
  "abi": [
    {
      "inputs": [
        {
          "internalType": "address",
          "name": "_contractFactory",
          "type": "address"
        }
      ],
      "stateMutability": "nonpayable",
      "type": "constructor"
    },
    {
      "anonymous": false,
      "inputs": [
        {
          "indexed": true,
          "internalType": "address",
          "name": "previousOwner",
          "type": "address"
        },
        {
          "indexed": true,
          "internalType": "address",
          "name": "newOwner",
          "type": "address"
        }
      ],
      "name": "OwnershipTransferred",
      "type": "event"
    },
    {
      "anonymous": false,
      "inputs": [
        {
          "indexed": false,
          "internalType": "address",
          "name": "creatorAddress",
          "type": "address"
        },
        {
          "indexed": false,
          "internalType": "string",
          "name": "name",
          "type": "string"
        },
        {
          "indexed": false,
          "internalType": "string",
          "name": "description",
          "type": "string"
        },
        {
          "indexed": false,
          "internalType": "uint256",
          "name": "id",
          "type": "uint256"
        }
      ],
      "name": "VoteSessionCreated",
      "type": "event"
    },
    {
      "anonymous": false,
      "inputs": [
        {
          "indexed": false,
          "internalType": "address",
          "name": "voterAddress",
          "type": "address"
        },
        {
          "indexed": false,
          "internalType": "uint256",
          "name": "voteSessionId",
          "type": "uint256"
        },
        {
          "indexed": false,
          "internalType": "enum VotingYesNoModule.responseEnum",
          "name": "response",
          "type": "uint8"
        }
      ],
      "name": "Voted",
      "type": "event"
    },
    {
      "inputs": [
        {
          "internalType": "address",
          "name": "",
          "type": "address"
        },
        {
          "internalType": "address",
          "name": "",
          "type": "address"
        }
      ],
      "name": "authorizedAddress",
      "outputs": [
        {
          "internalType": "bool",
          "name": "",
          "type": "bool"
        }
      ],
      "stateMutability": "view",
      "type": "function",
      "constant": true
    },
    {
      "inputs": [
        {
          "internalType": "address",
          "name": "",
          "type": "address"
        }
      ],
      "name": "daos",
      "outputs": [
        {
          "internalType": "address",
          "name": "addressDao",
          "type": "address"
        },
        {
          "internalType": "uint256",
          "name": "membersCount",
          "type": "uint256"
        },
        {
          "internalType": "bool",
          "name": "isActive",
          "type": "bool"
        }
      ],
      "stateMutability": "view",
      "type": "function",
      "constant": true
    },
    {
      "inputs": [],
      "name": "owner",
      "outputs": [
        {
          "internalType": "address",
          "name": "",
          "type": "address"
        }
      ],
      "stateMutability": "view",
      "type": "function",
      "constant": true
    },
    {
      "inputs": [],
      "name": "renounceOwnership",
      "outputs": [],
      "stateMutability": "nonpayable",
      "type": "function"
    },
    {
      "inputs": [
        {
          "internalType": "address",
          "name": "newOwner",
          "type": "address"
        }
      ],
      "name": "transferOwnership",
      "outputs": [],
      "stateMutability": "nonpayable",
      "type": "function"
    },
    {
      "inputs": [
        {
          "internalType": "address",
          "name": "",
          "type": "address"
        },
        {
          "internalType": "uint256",
          "name": "",
          "type": "uint256"
        }
      ],
      "name": "voteSessions",
      "outputs": [
        {
          "internalType": "address",
          "name": "creatorAddress",
          "type": "address"
        },
        {
          "internalType": "uint256",
          "name": "creationTime",
          "type": "uint256"
        },
        {
          "internalType": "string",
          "name": "name",
          "type": "string"
        },
        {
          "internalType": "string",
          "name": "description",
          "type": "string"
        },
        {
          "internalType": "bool",
          "name": "isTerminated",
          "type": "bool"
        },
        {
          "internalType": "uint256",
          "name": "votersCount",
          "type": "uint256"
        },
        {
          "internalType": "uint256",
          "name": "duration",
          "type": "uint256"
        },
        {
          "internalType": "bool",
          "name": "isCreated",
          "type": "bool"
        }
      ],
      "stateMutability": "view",
      "type": "function",
      "constant": true
    },
    {
      "inputs": [
        {
          "internalType": "address",
          "name": "",
          "type": "address"
        }
      ],
      "name": "voteSessionsCount",
      "outputs": [
        {
          "internalType": "uint256",
          "name": "",
          "type": "uint256"
        }
      ],
      "stateMutability": "view",
      "type": "function",
      "constant": true
    },
    {
      "inputs": [
        {
          "internalType": "address",
          "name": "_contractDao",
          "type": "address"
        }
      ],
      "name": "getVotesCount",
      "outputs": [
        {
          "internalType": "uint256",
          "name": "",
          "type": "uint256"
        }
      ],
      "stateMutability": "view",
      "type": "function",
      "constant": true
    },
    {
      "inputs": [
        {
          "internalType": "address",
          "name": "_contractDao",
          "type": "address"
        },
        {
          "internalType": "uint256",
          "name": "voteSessionId",
          "type": "uint256"
        },
        {
          "internalType": "address",
          "name": "_voterAddress",
          "type": "address"
        }
      ],
      "name": "getVoteInfo",
      "outputs": [
        {
          "components": [
            {
              "internalType": "enum VotingYesNoModule.responseEnum",
              "name": "response",
              "type": "uint8"
            },
            {
              "internalType": "address",
              "name": "voter",
              "type": "address"
            },
            {
              "internalType": "bool",
              "name": "voted",
              "type": "bool"
            }
          ],
          "internalType": "struct VotingYesNoModule.voteResult",
          "name": "",
          "type": "tuple"
        }
      ],
      "stateMutability": "view",
      "type": "function",
      "constant": true
    },
    {
      "inputs": [
        {
          "internalType": "address",
          "name": "_contractDao",
          "type": "address"
        },
        {
          "internalType": "uint256",
          "name": "voteSessionId",
          "type": "uint256"
        }
      ],
      "name": "getVoteSessionInfo",
      "outputs": [
        {
          "internalType": "address",
          "name": "creatorAddress",
          "type": "address"
        },
        {
          "internalType": "uint256",
          "name": "creationTime",
          "type": "uint256"
        },
        {
          "internalType": "string",
          "name": "name",
          "type": "string"
        },
        {
          "internalType": "string",
          "name": "description",
          "type": "string"
        },
        {
          "internalType": "bool",
          "name": "isTerminated",
          "type": "bool"
        },
        {
          "internalType": "uint256",
          "name": "votersCount",
          "type": "uint256"
        },
        {
          "internalType": "uint256",
          "name": "duration",
          "type": "uint256"
        }
      ],
      "stateMutability": "view",
      "type": "function",
      "constant": true
    },
    {
      "inputs": [
        {
          "internalType": "address",
          "name": "_contractDao",
          "type": "address"
        },
        {
          "internalType": "uint256",
          "name": "voteSessionId",
          "type": "uint256"
        },
        {
          "internalType": "uint256",
          "name": "voterId",
          "type": "uint256"
        }
      ],
      "name": "getVoterAddressById",
      "outputs": [
        {
          "internalType": "address",
          "name": "",
          "type": "address"
        }
      ],
      "stateMutability": "view",
      "type": "function",
      "constant": true
    },
    {
      "inputs": [
        {
          "internalType": "address",
          "name": "_contractDao",
          "type": "address"
        },
        {
          "internalType": "uint256",
          "name": "voteSessionId",
          "type": "uint256"
        }
      ],
      "name": "getVotersCount",
      "outputs": [
        {
          "internalType": "uint256",
          "name": "",
          "type": "uint256"
        }
      ],
      "stateMutability": "view",
      "type": "function",
      "constant": true
    },
    {
      "inputs": [
        {
          "internalType": "address",
          "name": "_contractDao",
          "type": "address"
        },
        {
          "internalType": "string",
          "name": "name",
          "type": "string"
        },
        {
          "internalType": "string",
          "name": "description",
          "type": "string"
        },
        {
          "internalType": "uint256",
          "name": "duration",
          "type": "uint256"
        }
      ],
      "name": "createVote",
      "outputs": [
        {
          "internalType": "uint256",
          "name": "",
          "type": "uint256"
        }
      ],
      "stateMutability": "nonpayable",
      "type": "function"
    },
    {
      "inputs": [
        {
          "internalType": "address",
          "name": "_contractDao",
          "type": "address"
        },
        {
          "internalType": "uint256",
          "name": "voteSessionId",
          "type": "uint256"
        },
        {
          "internalType": "uint8",
          "name": "response",
          "type": "uint8"
        }
      ],
      "name": "vote",
      "outputs": [],
      "stateMutability": "nonpayable",
      "type": "function"
    },
    {
      "inputs": [
        {
          "internalType": "address",
          "name": "_contractDao",
          "type": "address"
        },
        {
          "internalType": "uint256",
          "name": "voteSessionId",
          "type": "uint256"
        },
        {
          "internalType": "address",
          "name": "voter",
          "type": "address"
        }
      ],
      "name": "hasVoted",
      "outputs": [
        {
          "internalType": "bool",
          "name": "",
          "type": "bool"
        }
      ],
      "stateMutability": "view",
      "type": "function",
      "constant": true
    },
    {
      "inputs": [
        {
          "internalType": "address",
          "name": "_contractDao",
          "type": "address"
        },
        {
          "internalType": "address",
          "name": "_memberDao",
          "type": "address"
        }
      ],
      "name": "addDao",
      "outputs": [],
      "stateMutability": "nonpayable",
      "type": "function"
    },
    {
      "inputs": [
        {
          "internalType": "address",
          "name": "_contractDao",
          "type": "address"
        },
        {
          "internalType": "address",
          "name": "_contractAddress",
          "type": "address"
        }
      ],
      "name": "authorizeAddress",
      "outputs": [],
      "stateMutability": "nonpayable",
      "type": "function"
    },
    {
      "inputs": [
        {
          "internalType": "address",
          "name": "_contractDao",
          "type": "address"
        },
        {
          "internalType": "address",
          "name": "_contractAddress",
          "type": "address"
        }
      ],
      "name": "denyAddress",
      "outputs": [],
      "stateMutability": "nonpayable",
      "type": "function"
    }
  ],
  "bytecode": "0x60806040523480156200001157600080fd5b5060405162003b2d38038062003b2d8339818101604052810190620000379190620001c0565b62000069620000546200008a640100000000026401000000009004565b62000092640100000000026401000000009004565b620000838162000092640100000000026401000000009004565b50620001f2565b600033905090565b60008060009054906101000a900473ffffffffffffffffffffffffffffffffffffffff169050816000806101000a81548173ffffffffffffffffffffffffffffffffffffffff021916908373ffffffffffffffffffffffffffffffffffffffff1602179055508173ffffffffffffffffffffffffffffffffffffffff168173ffffffffffffffffffffffffffffffffffffffff167f8be0079c531659141344cd1fd0a4f28419497f9722a3daafe3b4186f6b6457e060405160405180910390a35050565b600080fd5b600073ffffffffffffffffffffffffffffffffffffffff82169050919050565b600062000188826200015b565b9050919050565b6200019a816200017b565b8114620001a657600080fd5b50565b600081519050620001ba816200018f565b92915050565b600060208284031215620001d957620001d862000156565b5b6000620001e984828501620001a9565b91505092915050565b61392b80620002026000396000f3fe608060405234801561001057600080fd5b5060043610610133576000357c0100000000000000000000000000000000000000000000000000000000900480638f669505116100bf578063db4d7dcd1161008e578063db4d7dcd14610350578063e498116f1461036c578063e69a190a14610388578063f2fde38b146103bf578063fd95029a146103db57610133565b80638f6695051461028e578063a5fc4dc6146102be578063c19fe6c2146102ee578063c25f3cf61461031e57610133565b80636a348b7b116101065780636a348b7b146101e4578063715018a614610200578063770e172a1461020a578063890222b6146102405780638da5cb5b1461027057610133565b80630fae38ac1461013857806312ee7e4114610168578063144fdd5d1461018457806327d06611146101b4575b600080fd5b610152600480360381019061014d9190612952565b61040b565b60405161015f91906129c0565b60405180910390f35b610182600480360381019061017d91906129db565b610557565b005b61019e60048036038101906101999190612a1b565b6109ba565b6040516101ab9190612a6a565b60405180910390f35b6101ce60048036038101906101c99190612bcb565b610a18565b6040516101db9190612a6a565b60405180910390f35b6101fe60048036038101906101f99190612ca3565b61121e565b005b6102086119db565b005b610224600480360381019061021f9190612a1b565b611a63565b6040516102379796959493929190612d8d565b60405180910390f35b61025a600480360381019061025591906129db565b611e11565b60405161026791906129c0565b60405180910390f35b610278611e40565b6040516102859190612e0a565b60405180910390f35b6102a860048036038101906102a39190612e25565b611e69565b6040516102b59190612e0a565b60405180910390f35b6102d860048036038101906102d39190612e78565b611ef9565b6040516102e59190612a6a565b60405180910390f35b61030860048036038101906103039190612e78565b611f11565b6040516103159190612a6a565b60405180910390f35b61033860048036038101906103339190612e78565b611f5a565b60405161034793929190612ea5565b60405180910390f35b61036a600480360381019061036591906129db565b611fb1565b005b610386600480360381019061038191906129db565b612159565b005b6103a2600480360381019061039d9190612a1b565b612301565b6040516103b6989796959493929190612edc565b60405180910390f35b6103d960048036038101906103d49190612e78565b6124a0565b005b6103f560048036038101906103f09190612952565b612598565b604051610402919061303f565b60405180910390f35b6000600360008573ffffffffffffffffffffffffffffffffffffffff1673ffffffffffffffffffffffffffffffffffffffff1681526020019081526020016000206000848152602001908152602001600020600a0160009054906101000a900460ff166104ad576040517f08c379a00000000000000000000000000000000000000000000000000000000081526004016104a4906130a6565b60405180910390fd5b600360008573ffffffffffffffffffffffffffffffffffffffff1673ffffffffffffffffffffffffffffffffffffffff168152602001908152602001600020600084815260200190815260200160002060060160008373ffffffffffffffffffffffffffffffffffffffff1673ffffffffffffffffffffffffffffffffffffffff16815260200190815260200160002060000160159054906101000a900460ff1690509392505050565b8160011515600560008373ffffffffffffffffffffffffffffffffffffffff1673ffffffffffffffffffffffffffffffffffffffff16815260200190815260200160002060003373ffffffffffffffffffffffffffffffffffffffff1673ffffffffffffffffffffffffffffffffffffffff16815260200190815260200160002060009054906101000a900460ff161515148061062657506105f7611e40565b73ffffffffffffffffffffffffffffffffffffffff163373ffffffffffffffffffffffffffffffffffffffff16145b610665576040517f08c379a000000000000000000000000000000000000000000000000000000000815260040161065c90613112565b60405180910390fd5b600460008473ffffffffffffffffffffffffffffffffffffffff1673ffffffffffffffffffffffffffffffffffffffff16815260200190815260200160002060040160009054906101000a900460ff16156106f5576040517f08c379a00000000000000000000000000000000000000000000000000000000081526004016106ec9061317e565b60405180910390fd5b6001600460008573ffffffffffffffffffffffffffffffffffffffff1673ffffffffffffffffffffffffffffffffffffffff16815260200190815260200160002060040160006101000a81548160ff02191690831515021790555082600460008573ffffffffffffffffffffffffffffffffffffffff1673ffffffffffffffffffffffffffffffffffffffff16815260200190815260200160002060000160006101000a81548173ffffffffffffffffffffffffffffffffffffffff021916908373ffffffffffffffffffffffffffffffffffffffff1602179055508273ffffffffffffffffffffffffffffffffffffffff1663d8d8e93c6040516020016107fc906131ea565b604051602081830303815290604052805190602001206040518263ffffffff167c010000000000000000000000000000000000000000000000000000000002815260040161084a9190613245565b60006040518083038186803b15801561086257600080fd5b505afa158015610876573d6000803e3d6000fd5b505050506040513d6000823e3d601f19601f8201168201806040525081019061089f9190613418565b60200151600660008573ffffffffffffffffffffffffffffffffffffffff1673ffffffffffffffffffffffffffffffffffffffff16815260200190815260200160002060006101000a81548173ffffffffffffffffffffffffffffffffffffffff021916908373ffffffffffffffffffffffffffffffffffffffff1602179055506001600560008573ffffffffffffffffffffffffffffffffffffffff1673ffffffffffffffffffffffffffffffffffffffff16815260200190815260200160002060008473ffffffffffffffffffffffffffffffffffffffff1673ffffffffffffffffffffffffffffffffffffffff16815260200190815260200160002060006101000a81548160ff021916908315150217905550505050565b6000600360008473ffffffffffffffffffffffffffffffffffffffff1673ffffffffffffffffffffffffffffffffffffffff168152602001908152602001600020600083815260200190815260200160002060050154905092915050565b6000600660008673ffffffffffffffffffffffffffffffffffffffff1673ffffffffffffffffffffffffffffffffffffffff16815260200190815260200160002060009054906101000a900473ffffffffffffffffffffffffffffffffffffffff1673ffffffffffffffffffffffffffffffffffffffff16638ecf772086336040518363ffffffff167c0100000000000000000000000000000000000000000000000000000000028152600401610ad0929190613461565b60206040518083038186803b158015610ae857600080fd5b505afa158015610afc573d6000803e3d6000fd5b505050506040513d601f19601f82011682018060405250810190610b20919061348a565b610b5f576040517f08c379a0000000000000000000000000000000000000000000000000000000008152600401610b5690613503565b60405180910390fd5b6000600360008773ffffffffffffffffffffffffffffffffffffffff1673ffffffffffffffffffffffffffffffffffffffff1681526020019081526020016000206000600260008973ffffffffffffffffffffffffffffffffffffffff1673ffffffffffffffffffffffffffffffffffffffff16815260200190815260200160002054815260200190815260200160002060040160006101000a81548160ff0219169083151502179055506001600360008773ffffffffffffffffffffffffffffffffffffffff1673ffffffffffffffffffffffffffffffffffffffff1681526020019081526020016000206000600260008973ffffffffffffffffffffffffffffffffffffffff1673ffffffffffffffffffffffffffffffffffffffff168152602001908152602001600020548152602001908152602001600020600a0160006101000a81548160ff02191690831515021790555042600360008773ffffffffffffffffffffffffffffffffffffffff1673ffffffffffffffffffffffffffffffffffffffff1681526020019081526020016000206000600260008973ffffffffffffffffffffffffffffffffffffffff1673ffffffffffffffffffffffffffffffffffffffff1681526020019081526020016000205481526020019081526020016000206001018190555083600360008773ffffffffffffffffffffffffffffffffffffffff1673ffffffffffffffffffffffffffffffffffffffff1681526020019081526020016000206000600260008973ffffffffffffffffffffffffffffffffffffffff1673ffffffffffffffffffffffffffffffffffffffff1681526020019081526020016000205481526020019081526020016000206002019080519060200190610df29291906127bc565b5082600360008773ffffffffffffffffffffffffffffffffffffffff1673ffffffffffffffffffffffffffffffffffffffff1681526020019081526020016000206000600260008973ffffffffffffffffffffffffffffffffffffffff1673ffffffffffffffffffffffffffffffffffffffff1681526020019081526020016000205481526020019081526020016000206003019080519060200190610e999291906127bc565b5033600360008773ffffffffffffffffffffffffffffffffffffffff1673ffffffffffffffffffffffffffffffffffffffff1681526020019081526020016000206000600260008973ffffffffffffffffffffffffffffffffffffffff1673ffffffffffffffffffffffffffffffffffffffff16815260200190815260200160002054815260200190815260200160002060000160006101000a81548173ffffffffffffffffffffffffffffffffffffffff021916908373ffffffffffffffffffffffffffffffffffffffff16021790555081600360008773ffffffffffffffffffffffffffffffffffffffff1673ffffffffffffffffffffffffffffffffffffffff1681526020019081526020016000206000600260008973ffffffffffffffffffffffffffffffffffffffff1673ffffffffffffffffffffffffffffffffffffffff168152602001908152602001600020548152602001908152602001600020600901819055506000600360008773ffffffffffffffffffffffffffffffffffffffff1673ffffffffffffffffffffffffffffffffffffffff1681526020019081526020016000206000600260008973ffffffffffffffffffffffffffffffffffffffff1673ffffffffffffffffffffffffffffffffffffffff16815260200190815260200160002054815260200190815260200160002060060160003373ffffffffffffffffffffffffffffffffffffffff1673ffffffffffffffffffffffffffffffffffffffff16815260200190815260200160002060000160156101000a81548160ff021916908315150217905550600260008673ffffffffffffffffffffffffffffffffffffffff1673ffffffffffffffffffffffffffffffffffffffff1681526020019081526020016000206000815461113990613552565b919050819055507fc9dacb6f995d8bca3f0a5e84d106a122c00f8df2dda6a759eec9c7353701ae053385856001600260008b73ffffffffffffffffffffffffffffffffffffffff1673ffffffffffffffffffffffffffffffffffffffff168152602001908152602001600020546111b0919061359b565b6040516111c094939291906135cf565b60405180910390a16001600260008773ffffffffffffffffffffffffffffffffffffffff1673ffffffffffffffffffffffffffffffffffffffff16815260200190815260200160002054611214919061359b565b9050949350505050565b600360008473ffffffffffffffffffffffffffffffffffffffff1673ffffffffffffffffffffffffffffffffffffffff1681526020019081526020016000206000838152602001908152602001600020600a0160009054906101000a900460ff166112be576040517f08c379a00000000000000000000000000000000000000000000000000000000081526004016112b5906130a6565b60405180910390fd5b600360008473ffffffffffffffffffffffffffffffffffffffff1673ffffffffffffffffffffffffffffffffffffffff168152602001908152602001600020600083815260200190815260200160002060090154600360008573ffffffffffffffffffffffffffffffffffffffff1673ffffffffffffffffffffffffffffffffffffffff1681526020019081526020016000206000848152602001908152602001600020600101546113709190613622565b42106113b1576040517f08c379a00000000000000000000000000000000000000000000000000000000081526004016113a8906136c4565b60405180910390fd5b6113bc83833361040b565b156113fc576040517f08c379a00000000000000000000000000000000000000000000000000000000081526004016113f390613730565b60405180910390fd5b600660008473ffffffffffffffffffffffffffffffffffffffff1673ffffffffffffffffffffffffffffffffffffffff16815260200190815260200160002060009054906101000a900473ffffffffffffffffffffffffffffffffffffffff1673ffffffffffffffffffffffffffffffffffffffff16638ecf772084336040518363ffffffff167c01000000000000000000000000000000000000000000000000000000000281526004016114b2929190613461565b60206040518083038186803b1580156114ca57600080fd5b505afa1580156114de573d6000803e3d6000fd5b505050506040513d601f19601f82011682018060405250810190611502919061348a565b611541576040517f08c379a000000000000000000000000000000000000000000000000000000000815260040161153890613503565b60405180910390fd5b33600360008573ffffffffffffffffffffffffffffffffffffffff1673ffffffffffffffffffffffffffffffffffffffff16815260200190815260200160002060008481526020019081526020016000206007016000600360008773ffffffffffffffffffffffffffffffffffffffff1673ffffffffffffffffffffffffffffffffffffffff168152602001908152602001600020600086815260200190815260200160002060050154815260200190815260200160002060006101000a81548173ffffffffffffffffffffffffffffffffffffffff021916908373ffffffffffffffffffffffffffffffffffffffff160217905550600360008473ffffffffffffffffffffffffffffffffffffffff1673ffffffffffffffffffffffffffffffffffffffff16815260200190815260200160002060008381526020019081526020016000206005016000815461169790613552565b919050819055508060ff1660018111156116b4576116b3612f68565b5b600360008573ffffffffffffffffffffffffffffffffffffffff1673ffffffffffffffffffffffffffffffffffffffff168152602001908152602001600020600084815260200190815260200160002060060160003373ffffffffffffffffffffffffffffffffffffffff1673ffffffffffffffffffffffffffffffffffffffff16815260200190815260200160002060000160006101000a81548160ff0219169083600181111561176957611768612f68565b5b02179055506001600360008573ffffffffffffffffffffffffffffffffffffffff1673ffffffffffffffffffffffffffffffffffffffff168152602001908152602001600020600084815260200190815260200160002060060160003373ffffffffffffffffffffffffffffffffffffffff1673ffffffffffffffffffffffffffffffffffffffff16815260200190815260200160002060000160156101000a81548160ff021916908315150217905550600360008473ffffffffffffffffffffffffffffffffffffffff1673ffffffffffffffffffffffffffffffffffffffff168152602001908152602001600020600083815260200190815260200160002060080160405180606001604052808360ff16600181111561188e5761188d612f68565b5b60018111156118a05761189f612f68565b5b81526020013373ffffffffffffffffffffffffffffffffffffffff168152602001600115158152509080600181540180825580915050600190039060005260206000200160009091909190915060008201518160000160006101000a81548160ff0219169083600181111561191857611917612f68565b5b021790555060208201518160000160016101000a81548173ffffffffffffffffffffffffffffffffffffffff021916908373ffffffffffffffffffffffffffffffffffffffff16021790555060408201518160000160156101000a81548160ff02191690831515021790555050507fcc66c27f993ef125e1b985d84a52726edc66dcc64e94d172f80253e37d52637233838360ff1660018111156119bf576119be612f68565b5b6040516119ce9392919061375f565b60405180910390a1505050565b6119e36126f0565b73ffffffffffffffffffffffffffffffffffffffff16611a01611e40565b73ffffffffffffffffffffffffffffffffffffffff1614611a57576040517f08c379a0000000000000000000000000000000000000000000000000000000008152600401611a4e906137e2565b60405180910390fd5b611a6160006126f8565b565b6000806060806000806000600360008a73ffffffffffffffffffffffffffffffffffffffff1673ffffffffffffffffffffffffffffffffffffffff168152602001908152602001600020600089815260200190815260200160002060000160009054906101000a900473ffffffffffffffffffffffffffffffffffffffff169650600360008a73ffffffffffffffffffffffffffffffffffffffff1673ffffffffffffffffffffffffffffffffffffffff1681526020019081526020016000206000898152602001908152602001600020600101549550600360008a73ffffffffffffffffffffffffffffffffffffffff1673ffffffffffffffffffffffffffffffffffffffff16815260200190815260200160002060008981526020019081526020016000206002018054611b9890613831565b80601f0160208091040260200160405190810160405280929190818152602001828054611bc490613831565b8015611c115780601f10611be657610100808354040283529160200191611c11565b820191906000526020600020905b815481529060010190602001808311611bf457829003601f168201915b50505050509450600360008a73ffffffffffffffffffffffffffffffffffffffff1673ffffffffffffffffffffffffffffffffffffffff16815260200190815260200160002060008981526020019081526020016000206003018054611c7690613831565b80601f0160208091040260200160405190810160405280929190818152602001828054611ca290613831565b8015611cef5780601f10611cc457610100808354040283529160200191611cef565b820191906000526020600020905b815481529060010190602001808311611cd257829003601f168201915b50505050509350600360008a73ffffffffffffffffffffffffffffffffffffffff1673ffffffffffffffffffffffffffffffffffffffff168152602001908152602001600020600089815260200190815260200160002060040160009054906101000a900460ff169250600360008a73ffffffffffffffffffffffffffffffffffffffff1673ffffffffffffffffffffffffffffffffffffffff1681526020019081526020016000206000898152602001908152602001600020600501549150600360008a73ffffffffffffffffffffffffffffffffffffffff1673ffffffffffffffffffffffffffffffffffffffff168152602001908152602001600020600089815260200190815260200160002060090154905092959891949750929550565b60056020528160005260406000206020528060005260406000206000915091509054906101000a900460ff1681565b60008060009054906101000a900473ffffffffffffffffffffffffffffffffffffffff16905090565b6000600360008573ffffffffffffffffffffffffffffffffffffffff1673ffffffffffffffffffffffffffffffffffffffff1681526020019081526020016000206000848152602001908152602001600020600701600083815260200190815260200160002060009054906101000a900473ffffffffffffffffffffffffffffffffffffffff1690509392505050565b60026020528060005260406000206000915090505481565b6000600260008373ffffffffffffffffffffffffffffffffffffffff1673ffffffffffffffffffffffffffffffffffffffff168152602001908152602001600020549050919050565b60046020528060005260406000206000915090508060000160009054906101000a900473ffffffffffffffffffffffffffffffffffffffff16908060010154908060040160009054906101000a900460ff16905083565b8160011515600560008373ffffffffffffffffffffffffffffffffffffffff1673ffffffffffffffffffffffffffffffffffffffff16815260200190815260200160002060003373ffffffffffffffffffffffffffffffffffffffff1673ffffffffffffffffffffffffffffffffffffffff16815260200190815260200160002060009054906101000a900460ff16151514806120805750612051611e40565b73ffffffffffffffffffffffffffffffffffffffff163373ffffffffffffffffffffffffffffffffffffffff16145b6120bf576040517f08c379a00000000000000000000000000000000000000000000000000000000081526004016120b690613112565b60405180910390fd5b6001600560008573ffffffffffffffffffffffffffffffffffffffff1673ffffffffffffffffffffffffffffffffffffffff16815260200190815260200160002060008473ffffffffffffffffffffffffffffffffffffffff1673ffffffffffffffffffffffffffffffffffffffff16815260200190815260200160002060006101000a81548160ff021916908315150217905550505050565b8160011515600560008373ffffffffffffffffffffffffffffffffffffffff1673ffffffffffffffffffffffffffffffffffffffff16815260200190815260200160002060003373ffffffffffffffffffffffffffffffffffffffff1673ffffffffffffffffffffffffffffffffffffffff16815260200190815260200160002060009054906101000a900460ff161515148061222857506121f9611e40565b73ffffffffffffffffffffffffffffffffffffffff163373ffffffffffffffffffffffffffffffffffffffff16145b612267576040517f08c379a000000000000000000000000000000000000000000000000000000000815260040161225e90613112565b60405180910390fd5b6000600560008573ffffffffffffffffffffffffffffffffffffffff1673ffffffffffffffffffffffffffffffffffffffff16815260200190815260200160002060008473ffffffffffffffffffffffffffffffffffffffff1673ffffffffffffffffffffffffffffffffffffffff16815260200190815260200160002060006101000a81548160ff021916908315150217905550505050565b6003602052816000526040600020602052806000526040600020600091509150508060000160009054906101000a900473ffffffffffffffffffffffffffffffffffffffff169080600101549080600201805461235d90613831565b80601f016020809104026020016040519081016040528092919081815260200182805461238990613831565b80156123d65780601f106123ab576101008083540402835291602001916123d6565b820191906000526020600020905b8154815290600101906020018083116123b957829003601f168201915b5050505050908060030180546123eb90613831565b80601f016020809104026020016040519081016040528092919081815260200182805461241790613831565b80156124645780601f1061243957610100808354040283529160200191612464565b820191906000526020600020905b81548152906001019060200180831161244757829003601f168201915b5050505050908060040160009054906101000a900460ff169080600501549080600901549080600a0160009054906101000a900460ff16905088565b6124a86126f0565b73ffffffffffffffffffffffffffffffffffffffff166124c6611e40565b73ffffffffffffffffffffffffffffffffffffffff161461251c576040517f08c379a0000000000000000000000000000000000000000000000000000000008152600401612513906137e2565b60405180910390fd5b600073ffffffffffffffffffffffffffffffffffffffff168173ffffffffffffffffffffffffffffffffffffffff16141561258c576040517f08c379a0000000000000000000000000000000000000000000000000000000008152600401612583906138d5565b60405180910390fd5b612595816126f8565b50565b6125a0612842565b600360008573ffffffffffffffffffffffffffffffffffffffff1673ffffffffffffffffffffffffffffffffffffffff168152602001908152602001600020600084815260200190815260200160002060060160008373ffffffffffffffffffffffffffffffffffffffff1673ffffffffffffffffffffffffffffffffffffffff1681526020019081526020016000206040518060600160405290816000820160009054906101000a900460ff1660018111156126605761265f612f68565b5b600181111561267257612671612f68565b5b81526020016000820160019054906101000a900473ffffffffffffffffffffffffffffffffffffffff1673ffffffffffffffffffffffffffffffffffffffff1673ffffffffffffffffffffffffffffffffffffffff1681526020016000820160159054906101000a900460ff16151515158152505090509392505050565b600033905090565b60008060009054906101000a900473ffffffffffffffffffffffffffffffffffffffff169050816000806101000a81548173ffffffffffffffffffffffffffffffffffffffff021916908373ffffffffffffffffffffffffffffffffffffffff1602179055508173ffffffffffffffffffffffffffffffffffffffff168173ffffffffffffffffffffffffffffffffffffffff167f8be0079c531659141344cd1fd0a4f28419497f9722a3daafe3b4186f6b6457e060405160405180910390a35050565b8280546127c890613831565b90600052602060002090601f0160209004810192826127ea5760008555612831565b82601f1061280357805160ff1916838001178555612831565b82800160010185558215612831579182015b82811115612830578251825591602001919060010190612815565b5b50905061283e919061288d565b5090565b60405180606001604052806000600181111561286157612860612f68565b5b8152602001600073ffffffffffffffffffffffffffffffffffffffff1681526020016000151581525090565b5b808211156128a657600081600090555060010161288e565b5090565b6000604051905090565b600080fd5b600080fd5b600073ffffffffffffffffffffffffffffffffffffffff82169050919050565b60006128e9826128be565b9050919050565b6128f9816128de565b811461290457600080fd5b50565b600081359050612916816128f0565b92915050565b6000819050919050565b61292f8161291c565b811461293a57600080fd5b50565b60008135905061294c81612926565b92915050565b60008060006060848603121561296b5761296a6128b4565b5b600061297986828701612907565b935050602061298a8682870161293d565b925050604061299b86828701612907565b9150509250925092565b60008115159050919050565b6129ba816129a5565b82525050565b60006020820190506129d560008301846129b1565b92915050565b600080604083850312156129f2576129f16128b4565b5b6000612a0085828601612907565b9250506020612a1185828601612907565b9150509250929050565b60008060408385031215612a3257612a316128b4565b5b6000612a4085828601612907565b9250506020612a518582860161293d565b9150509250929050565b612a648161291c565b82525050565b6000602082019050612a7f6000830184612a5b565b92915050565b600080fd5b600080fd5b6000601f19601f8301169050919050565b7f4e487b7100000000000000000000000000000000000000000000000000000000600052604160045260246000fd5b612ad882612a8f565b810181811067ffffffffffffffff82111715612af757612af6612aa0565b5b80604052505050565b6000612b0a6128aa565b9050612b168282612acf565b919050565b600067ffffffffffffffff821115612b3657612b35612aa0565b5b612b3f82612a8f565b9050602081019050919050565b82818337600083830152505050565b6000612b6e612b6984612b1b565b612b00565b905082815260208101848484011115612b8a57612b89612a8a565b5b612b95848285612b4c565b509392505050565b600082601f830112612bb257612bb1612a85565b5b8135612bc2848260208601612b5b565b91505092915050565b60008060008060808587031215612be557612be46128b4565b5b6000612bf387828801612907565b945050602085013567ffffffffffffffff811115612c1457612c136128b9565b5b612c2087828801612b9d565b935050604085013567ffffffffffffffff811115612c4157612c406128b9565b5b612c4d87828801612b9d565b9250506060612c5e8782880161293d565b91505092959194509250565b600060ff82169050919050565b612c8081612c6a565b8114612c8b57600080fd5b50565b600081359050612c9d81612c77565b92915050565b600080600060608486031215612cbc57612cbb6128b4565b5b6000612cca86828701612907565b9350506020612cdb8682870161293d565b9250506040612cec86828701612c8e565b9150509250925092565b612cff816128de565b82525050565b600081519050919050565b600082825260208201905092915050565b60005b83811015612d3f578082015181840152602081019050612d24565b83811115612d4e576000848401525b50505050565b6000612d5f82612d05565b612d698185612d10565b9350612d79818560208601612d21565b612d8281612a8f565b840191505092915050565b600060e082019050612da2600083018a612cf6565b612daf6020830189612a5b565b8181036040830152612dc18188612d54565b90508181036060830152612dd58187612d54565b9050612de460808301866129b1565b612df160a0830185612a5b565b612dfe60c0830184612a5b565b98975050505050505050565b6000602082019050612e1f6000830184612cf6565b92915050565b600080600060608486031215612e3e57612e3d6128b4565b5b6000612e4c86828701612907565b9350506020612e5d8682870161293d565b9250506040612e6e8682870161293d565b9150509250925092565b600060208284031215612e8e57612e8d6128b4565b5b6000612e9c84828501612907565b91505092915050565b6000606082019050612eba6000830186612cf6565b612ec76020830185612a5b565b612ed460408301846129b1565b949350505050565b600061010082019050612ef2600083018b612cf6565b612eff602083018a612a5b565b8181036040830152612f118189612d54565b90508181036060830152612f258188612d54565b9050612f3460808301876129b1565b612f4160a0830186612a5b565b612f4e60c0830185612a5b565b612f5b60e08301846129b1565b9998505050505050505050565b7f4e487b7100000000000000000000000000000000000000000000000000000000600052602160045260246000fd5b60028110612fa857612fa7612f68565b5b50565b6000819050612fb982612f97565b919050565b6000612fc982612fab565b9050919050565b612fd981612fbe565b82525050565b612fe8816128de565b82525050565b612ff7816129a5565b82525050565b6060820160008201516130136000850182612fd0565b5060208201516130266020850182612fdf565b5060408201516130396040850182612fee565b50505050565b60006060820190506130546000830184612ffd565b92915050565b7f566f74652073657373696f6e206e6f7420666f756e6400000000000000000000600082015250565b6000613090601683612d10565b915061309b8261305a565b602082019050919050565b600060208201905081810360008301526130bf81613083565b9050919050565b7f4e6f7420617574686f72697a6564204242420000000000000000000000000000600082015250565b60006130fc601283612d10565b9150613107826130c6565b602082019050919050565b6000602082019050818103600083015261312b816130ef565b9050919050565b7f44616f20616c7265616479206164646564000000000000000000000000000000600082015250565b6000613168601183612d10565b915061317382613132565b602082019050919050565b600060208201905081810360008301526131978161315b565b9050919050565b7f4d656d6265724d6f64756c650000000000000000000000000000000000000000600082015250565b60006131d4600c83612d10565b91506131df8261319e565b602082019050919050565b60006020820190508181036000830152613203816131c7565b9050919050565b60007fffffffffffffffff00000000000000000000000000000000000000000000000082169050919050565b61323f8161320a565b82525050565b600060208201905061325a6000830184613236565b92915050565b600080fd5b600080fd5b60008151905061327981612926565b92915050565b60008151905061328e816128f0565b92915050565b61329d816129a5565b81146132a857600080fd5b50565b6000815190506132ba81613294565b92915050565b6132c98161320a565b81146132d457600080fd5b50565b6000815190506132e6816132c0565b92915050565b60006132ff6132fa84612b1b565b612b00565b90508281526020810184848401111561331b5761331a612a8a565b5b613326848285612d21565b509392505050565b600082601f83011261334357613342612a85565b5b81516133538482602086016132ec565b91505092915050565b600060c0828403121561337257613371613260565b5b61337c60c0612b00565b9050600061338c8482850161326a565b60008301525060206133a08482850161327f565b60208301525060406133b4848285016132ab565b60408301525060606133c8848285016132d7565b60608301525060806133dc848285016132d7565b60808301525060a082015167ffffffffffffffff811115613400576133ff613265565b5b61340c8482850161332e565b60a08301525092915050565b60006020828403121561342e5761342d6128b4565b5b600082015167ffffffffffffffff81111561344c5761344b6128b9565b5b6134588482850161335c565b91505092915050565b60006040820190506134766000830185612cf6565b6134836020830184612cf6565b9392505050565b6000602082840312156134a05761349f6128b4565b5b60006134ae848285016132ab565b91505092915050565b7f4e6f742044414f206d656d626572000000000000000000000000000000000000600082015250565b60006134ed600e83612d10565b91506134f8826134b7565b602082019050919050565b6000602082019050818103600083015261351c816134e0565b9050919050565b7f4e487b7100000000000000000000000000000000000000000000000000000000600052601160045260246000fd5b600061355d8261291c565b91507fffffffffffffffffffffffffffffffffffffffffffffffffffffffffffffffff8214156135905761358f613523565b5b600182019050919050565b60006135a68261291c565b91506135b18361291c565b9250828210156135c4576135c3613523565b5b828203905092915050565b60006080820190506135e46000830187612cf6565b81810360208301526135f68186612d54565b9050818103604083015261360a8185612d54565b90506136196060830184612a5b565b95945050505050565b600061362d8261291c565b91506136388361291c565b9250827fffffffffffffffffffffffffffffffffffffffffffffffffffffffffffffffff0382111561366d5761366c613523565b5b828201905092915050565b7f566f74652073657373696f6e207465726d696e61746564000000000000000000600082015250565b60006136ae601783612d10565b91506136b982613678565b602082019050919050565b600060208201905081810360008301526136dd816136a1565b9050919050565b7f416c726561647920766f74656400000000000000000000000000000000000000600082015250565b600061371a600d83612d10565b9150613725826136e4565b602082019050919050565b600060208201905081810360008301526137498161370d565b9050919050565b61375981612fbe565b82525050565b60006060820190506137746000830186612cf6565b6137816020830185612a5b565b61378e6040830184613750565b949350505050565b7f4f776e61626c653a2063616c6c6572206973206e6f7420746865206f776e6572600082015250565b60006137cc602083612d10565b91506137d782613796565b602082019050919050565b600060208201905081810360008301526137fb816137bf565b9050919050565b7f4e487b7100000000000000000000000000000000000000000000000000000000600052602260045260246000fd5b6000600282049050600182168061384957607f821691505b6020821081141561385d5761385c613802565b5b50919050565b7f4f776e61626c653a206e6577206f776e657220697320746865207a65726f206160008201527f6464726573730000000000000000000000000000000000000000000000000000602082015250565b60006138bf602683612d10565b91506138ca82613863565b604082019050919050565b600060208201905081810360008301526138ee816138b2565b905091905056fea2646970667358221220cd696cfe83d4c50c8344f20fc37ad42243ff24de014a39e13aa345abf13e023a64736f6c63430008090033",
  "immutableReferences": {},
  "source": "// SPDX-License-Identifier: MIT\r\npragma solidity ^0.8.9;\r\n\r\nimport \"@openzeppelin/contracts/utils/math/SafeMath.sol\";\r\nimport \"@openzeppelin/contracts/access/Ownable.sol\";\r\nimport \"../../Data.sol\";\r\nimport \"../Interfaces/IMembersDAO.sol\";\r\nimport \"../../DaoBase.sol\";\r\n\r\ncontract VotingYesNoModule is Ownable {\r\n    using SafeMath for uint256;\r\n    IMembersDao private membersDao;\r\n    mapping(address => uint256) public voteSessionsCount;\r\n    mapping(address => mapping(uint256 => voteSession)) public voteSessions;\r\n    mapping(address => Data.DaoMember) public daos;\r\n    mapping(address => mapping(address => bool)) public authorizedAddress;\r\n    mapping(address => address) private memberModuleAddresses;\r\n\r\n    struct voteSession {\r\n        address creatorAddress;\r\n        uint256 creationTime;\r\n        string name;\r\n        string description;\r\n        bool isTerminated;\r\n        uint256 votersCount;\r\n        mapping(address => voteResult) votes;\r\n        mapping(uint256 => address) voterAddresses;\r\n        voteResult[] voteResults;\r\n        uint256 duration;\r\n        bool isCreated;\r\n    }\r\n\r\n    struct voteResult {\r\n        responseEnum response;\r\n        address voter;\r\n        bool voted;\r\n    }\r\n\r\n    struct voteResponseResult {\r\n        responseEnum response;\r\n        uint256 voteNumbers;\r\n    } \r\n\r\n    enum responseEnum {\r\n        yes,\r\n        no\r\n    }\r\n\r\n    event VoteSessionCreated(address creatorAddress, string name, string description, uint256 id);\r\n    event Voted(address voterAddress, uint256 voteSessionId, responseEnum response);\r\n\r\n    constructor(address _contractFactory) {\r\n        _transferOwnership(_contractFactory);\r\n    }\r\n\r\n    modifier onlyAuthorizeAddress(address _contractDao) {\r\n        require(authorizedAddress[_contractDao][msg.sender] == true, \"Not authorized BB\");\r\n        _;\r\n    }\r\n    modifier onlyAuthorizeAddressOrOwner(address _contractDao) {\r\n        require(authorizedAddress[_contractDao][msg.sender] == true || msg.sender == owner(), \"Not authorized BBB\");\r\n        _;\r\n    }\r\n\r\n    function getVotesCount(address _contractDao) public view returns (uint256)\r\n    {\r\n        return voteSessionsCount[_contractDao];\r\n    }\r\n\r\n    // function getVote(address _contractDao, uint256 voteSessionId) external view returns (voteSession memory)\r\n    // {\r\n    //     return (voteSessions[_contractDao][voteSessionId]);\r\n    // }\r\n\r\n    function getVoteInfo(address _contractDao, uint256 voteSessionId, address _voterAddress) external view returns(voteResult memory) {\r\n        return(voteSessions[_contractDao][voteSessionId].votes[_voterAddress]);\r\n    }\r\n\r\n    function getVoteSessionInfo(address _contractDao, uint256 voteSessionId)\r\n        external\r\n        view \r\n        returns\r\n    (\r\n        address creatorAddress,\r\n        uint256 creationTime,\r\n        string memory name,\r\n        string memory description,\r\n        bool isTerminated,\r\n        uint256 votersCount,\r\n        uint256 duration\r\n    ) {\r\n        creatorAddress = voteSessions[_contractDao][voteSessionId].creatorAddress;\r\n        creationTime = voteSessions[_contractDao][voteSessionId].creationTime;\r\n        name = voteSessions[_contractDao][voteSessionId].name;\r\n        description = voteSessions[_contractDao][voteSessionId].description;\r\n        isTerminated = voteSessions[_contractDao][voteSessionId].isTerminated;\r\n        votersCount = voteSessions[_contractDao][voteSessionId].votersCount;\r\n        duration = voteSessions[_contractDao][voteSessionId].duration;\r\n    }\r\n\r\n    function getVoterAddressById(address _contractDao, uint256 voteSessionId, uint256 voterId) external view returns(address) {\r\n        return voteSessions[_contractDao][voteSessionId].voterAddresses[voterId];\r\n    }\r\n\r\n    function getVotersCount(address _contractDao, uint256 voteSessionId) external view returns(uint256) {\r\n        return voteSessions[_contractDao][voteSessionId].votersCount;\r\n    }\r\n\r\n    function createVote(address _contractDao, string memory name, string memory description, uint256 duration) public returns (uint256) {\r\n        require(IMembersDao(memberModuleAddresses[_contractDao]).isActiveMember(_contractDao, msg.sender), \"Not DAO member\");\r\n        \r\n        voteSessions[_contractDao][voteSessionsCount[_contractDao]].isTerminated = false;\r\n        voteSessions[_contractDao][voteSessionsCount[_contractDao]].isCreated = true;\r\n        voteSessions[_contractDao][voteSessionsCount[_contractDao]].creationTime = block.timestamp;\r\n        voteSessions[_contractDao][voteSessionsCount[_contractDao]].name = name;\r\n        voteSessions[_contractDao][voteSessionsCount[_contractDao]].description = description;\r\n        voteSessions[_contractDao][voteSessionsCount[_contractDao]].creatorAddress = msg.sender;\r\n        voteSessions[_contractDao][voteSessionsCount[_contractDao]].duration = duration;\r\n        voteSessions[_contractDao][voteSessionsCount[_contractDao]].votes[msg.sender].voted = false;\r\n        ++voteSessionsCount[_contractDao];\r\n\r\n        emit VoteSessionCreated(msg.sender, name, description, voteSessionsCount[_contractDao] - 1);\r\n        return voteSessionsCount[_contractDao] - 1;\r\n    }\r\n\r\n    function vote(address _contractDao, uint256 voteSessionId, uint8 response) public {\r\n        require(voteSessions[_contractDao][voteSessionId].isCreated, \"Vote session not found\");\r\n        require(block.timestamp < voteSessions[_contractDao][voteSessionId].creationTime \r\n            + voteSessions[_contractDao][voteSessionId].duration, \"Vote session terminated\");\r\n        require(!hasVoted(_contractDao, voteSessionId, msg.sender), \"Already voted\");\r\n        require(IMembersDao(memberModuleAddresses[_contractDao]).isActiveMember(_contractDao, msg.sender), \"Not DAO member\");\r\n\r\n        //add voter address\r\n        voteSessions[_contractDao][voteSessionId].voterAddresses[voteSessions[_contractDao][voteSessionId].votersCount] = msg.sender;\r\n        ++voteSessions[_contractDao][voteSessionId].votersCount;\r\n\r\n        //add voter vote\r\n        voteSessions[_contractDao][voteSessionId].votes[msg.sender].response = responseEnum(response);\r\n        voteSessions[_contractDao][voteSessionId].votes[msg.sender].voted = true;\r\n        voteSessions[_contractDao][voteSessionId].voteResults.push(voteResult(responseEnum(response), msg.sender, true));\r\n        \r\n        emit Voted(msg.sender, voteSessionId, responseEnum(response));\r\n    }\r\n\r\n    function hasVoted(address _contractDao, uint256 voteSessionId, address voter) public view returns (bool) {\r\n        require(voteSessions[_contractDao][voteSessionId].isCreated, \"Vote session not found\");\r\n\r\n        return voteSessions[_contractDao][voteSessionId].votes[voter].voted;\r\n    }\r\n\r\n    function addDao(address _contractDao, address _memberDao) external onlyAuthorizeAddressOrOwner(_contractDao) {\r\n        require(!daos[_contractDao].isActive, \"Dao already added\");\r\n        daos[_contractDao].isActive = true;\r\n        daos[_contractDao].addressDao = _contractDao;\r\n        memberModuleAddresses[_contractDao] = DaoBase(_contractDao).getModuleData(bytes8(keccak256(abi.encode(\"MemberModule\")))).moduleAddress;\r\n        authorizedAddress[_contractDao][_memberDao] = true;\r\n    }\r\n\r\n    function authorizeAddress(address _contractDao, address _contractAddress) external onlyAuthorizeAddressOrOwner(_contractDao) {\r\n        authorizedAddress[_contractDao][_contractAddress] = true;\r\n    }\r\n\r\n    function denyAddress(address _contractDao, address _contractAddress) external onlyAuthorizeAddressOrOwner(_contractDao) {\r\n        authorizedAddress[_contractDao][_contractAddress] = false;\r\n    }\r\n}",
  "sourcePath": "C:\\Users\\mdmou\\source\\repos\\MY-DAO\\contracts\\Modules\\Implementations\\VotingYesNoModule.sol",
  "compiler": {
    "name": "solc",
    "version": "0.8.9+commit.e5eed63a.Emscripten.clang"
  },
  "schemaVersion": "3.4.4",
  "updatedAt": "2022-05-21T16:55:24.101Z",
  "networkType": "ethereum",
  "devdoc": {
    "kind": "dev",
    "methods": {
      "owner()": {
        "details": "Returns the address of the current owner."
      },
      "renounceOwnership()": {
        "details": "Leaves the contract without owner. It will not be possible to call `onlyOwner` functions anymore. Can only be called by the current owner. NOTE: Renouncing ownership will leave the contract without an owner, thereby removing any functionality that is only available to the owner."
      },
      "transferOwnership(address)": {
        "details": "Transfers ownership of the contract to a new account (`newOwner`). Can only be called by the current owner."
      }
    },
    "version": 1
  },
  "userdoc": {
    "kind": "user",
    "methods": {},
    "version": 1
  }
}