{
  "contractName": "VotingYesNoModule",
  "abi": [
    {
      "inputs": [
        {
          "internalType": "address",
          "name": "_contractFactory",
          "type": "address"
        }
      ],
      "stateMutability": "nonpayable",
      "type": "constructor"
    },
    {
      "anonymous": false,
      "inputs": [
        {
          "indexed": true,
          "internalType": "address",
          "name": "previousOwner",
          "type": "address"
        },
        {
          "indexed": true,
          "internalType": "address",
          "name": "newOwner",
          "type": "address"
        }
      ],
      "name": "OwnershipTransferred",
      "type": "event"
    },
    {
      "anonymous": false,
      "inputs": [
        {
          "indexed": false,
          "internalType": "address",
          "name": "creatorAddress",
          "type": "address"
        },
        {
          "indexed": false,
          "internalType": "string",
          "name": "name",
          "type": "string"
        }
      ],
      "name": "VoteSessionCreated",
      "type": "event"
    },
    {
      "anonymous": false,
      "inputs": [
        {
          "indexed": false,
          "internalType": "address",
          "name": "voterAddress",
          "type": "address"
        },
        {
          "indexed": false,
          "internalType": "uint256",
          "name": "voteSessionId",
          "type": "uint256"
        },
        {
          "indexed": false,
          "internalType": "enum VotingYesNoModule.responseEnum",
          "name": "response",
          "type": "uint8"
        }
      ],
      "name": "Voted",
      "type": "event"
    },
    {
      "inputs": [
        {
          "internalType": "address",
          "name": "",
          "type": "address"
        },
        {
          "internalType": "address",
          "name": "",
          "type": "address"
        }
      ],
      "name": "authorizedContracts",
      "outputs": [
        {
          "internalType": "bool",
          "name": "",
          "type": "bool"
        }
      ],
      "stateMutability": "view",
      "type": "function",
      "constant": true
    },
    {
      "inputs": [
        {
          "internalType": "address",
          "name": "",
          "type": "address"
        }
      ],
      "name": "daos",
      "outputs": [
        {
          "internalType": "address",
          "name": "addressDao",
          "type": "address"
        },
        {
          "internalType": "uint256",
          "name": "membersCount",
          "type": "uint256"
        },
        {
          "internalType": "bool",
          "name": "isActive",
          "type": "bool"
        }
      ],
      "stateMutability": "view",
      "type": "function",
      "constant": true
    },
    {
      "inputs": [],
      "name": "owner",
      "outputs": [
        {
          "internalType": "address",
          "name": "",
          "type": "address"
        }
      ],
      "stateMutability": "view",
      "type": "function",
      "constant": true
    },
    {
      "inputs": [],
      "name": "renounceOwnership",
      "outputs": [],
      "stateMutability": "nonpayable",
      "type": "function"
    },
    {
      "inputs": [
        {
          "internalType": "address",
          "name": "newOwner",
          "type": "address"
        }
      ],
      "name": "transferOwnership",
      "outputs": [],
      "stateMutability": "nonpayable",
      "type": "function"
    },
    {
      "inputs": [
        {
          "internalType": "address",
          "name": "",
          "type": "address"
        },
        {
          "internalType": "uint256",
          "name": "",
          "type": "uint256"
        }
      ],
      "name": "voteSessions",
      "outputs": [
        {
          "internalType": "address",
          "name": "creatorAddress",
          "type": "address"
        },
        {
          "internalType": "uint256",
          "name": "creationTime",
          "type": "uint256"
        },
        {
          "internalType": "string",
          "name": "name",
          "type": "string"
        },
        {
          "internalType": "string",
          "name": "description",
          "type": "string"
        },
        {
          "internalType": "bool",
          "name": "isTerminated",
          "type": "bool"
        },
        {
          "internalType": "uint256",
          "name": "votersCount",
          "type": "uint256"
        },
        {
          "internalType": "enum VotingYesNoModule.durationEnum",
          "name": "duration",
          "type": "uint8"
        },
        {
          "internalType": "bool",
          "name": "isCreated",
          "type": "bool"
        }
      ],
      "stateMutability": "view",
      "type": "function",
      "constant": true
    },
    {
      "inputs": [
        {
          "internalType": "address",
          "name": "",
          "type": "address"
        }
      ],
      "name": "voteSessionsCount",
      "outputs": [
        {
          "internalType": "uint256",
          "name": "",
          "type": "uint256"
        }
      ],
      "stateMutability": "view",
      "type": "function",
      "constant": true
    },
    {
      "inputs": [
        {
          "internalType": "address",
          "name": "_contractDao",
          "type": "address"
        }
      ],
      "name": "getVotesCount",
      "outputs": [
        {
          "internalType": "uint256",
          "name": "",
          "type": "uint256"
        }
      ],
      "stateMutability": "view",
      "type": "function",
      "constant": true
    },
    {
      "inputs": [
        {
          "internalType": "address",
          "name": "_contractDao",
          "type": "address"
        },
        {
          "internalType": "uint256",
          "name": "voteSessionId",
          "type": "uint256"
        },
        {
          "internalType": "address",
          "name": "_voterAddress",
          "type": "address"
        }
      ],
      "name": "getVoteInfo",
      "outputs": [
        {
          "components": [
            {
              "internalType": "enum VotingYesNoModule.responseEnum",
              "name": "response",
              "type": "uint8"
            },
            {
              "internalType": "address",
              "name": "voter",
              "type": "address"
            },
            {
              "internalType": "bool",
              "name": "voted",
              "type": "bool"
            }
          ],
          "internalType": "struct VotingYesNoModule.voteResult",
          "name": "",
          "type": "tuple"
        }
      ],
      "stateMutability": "view",
      "type": "function",
      "constant": true
    },
    {
      "inputs": [
        {
          "internalType": "address",
          "name": "_contractDao",
          "type": "address"
        },
        {
          "internalType": "uint256",
          "name": "voteSessionId",
          "type": "uint256"
        }
      ],
      "name": "getVoteSessionInfo",
      "outputs": [
        {
          "internalType": "address",
          "name": "creatorAddress",
          "type": "address"
        },
        {
          "internalType": "uint256",
          "name": "creationTime",
          "type": "uint256"
        },
        {
          "internalType": "string",
          "name": "name",
          "type": "string"
        },
        {
          "internalType": "string",
          "name": "description",
          "type": "string"
        },
        {
          "internalType": "bool",
          "name": "isTerminated",
          "type": "bool"
        },
        {
          "internalType": "uint256",
          "name": "votersCount",
          "type": "uint256"
        }
      ],
      "stateMutability": "view",
      "type": "function",
      "constant": true
    },
    {
      "inputs": [
        {
          "internalType": "address",
          "name": "_contractDao",
          "type": "address"
        },
        {
          "internalType": "uint256",
          "name": "voteSessionId",
          "type": "uint256"
        },
        {
          "internalType": "uint256",
          "name": "voterId",
          "type": "uint256"
        }
      ],
      "name": "getVoterAddressById",
      "outputs": [
        {
          "internalType": "address",
          "name": "",
          "type": "address"
        }
      ],
      "stateMutability": "view",
      "type": "function",
      "constant": true
    },
    {
      "inputs": [
        {
          "internalType": "address",
          "name": "_contractDao",
          "type": "address"
        },
        {
          "internalType": "uint256",
          "name": "voteSessionId",
          "type": "uint256"
        }
      ],
      "name": "getVotersCount",
      "outputs": [
        {
          "internalType": "uint256",
          "name": "",
          "type": "uint256"
        }
      ],
      "stateMutability": "view",
      "type": "function",
      "constant": true
    },
    {
      "inputs": [
        {
          "internalType": "address",
          "name": "_contractDao",
          "type": "address"
        },
        {
          "internalType": "string",
          "name": "name",
          "type": "string"
        },
        {
          "internalType": "string",
          "name": "description",
          "type": "string"
        },
        {
          "internalType": "uint8",
          "name": "duration",
          "type": "uint8"
        }
      ],
      "name": "createVote",
      "outputs": [],
      "stateMutability": "nonpayable",
      "type": "function"
    },
    {
      "inputs": [
        {
          "internalType": "address",
          "name": "_contractDao",
          "type": "address"
        },
        {
          "internalType": "uint256",
          "name": "voteSessionId",
          "type": "uint256"
        },
        {
          "internalType": "uint8",
          "name": "response",
          "type": "uint8"
        }
      ],
      "name": "vote",
      "outputs": [],
      "stateMutability": "nonpayable",
      "type": "function"
    },
    {
      "inputs": [
        {
          "internalType": "address",
          "name": "_contractDao",
          "type": "address"
        },
        {
          "internalType": "uint256",
          "name": "voteSessionId",
          "type": "uint256"
        }
      ],
      "name": "isVoteSessionDurationExpired",
      "outputs": [
        {
          "internalType": "bool",
          "name": "",
          "type": "bool"
        }
      ],
      "stateMutability": "view",
      "type": "function",
      "constant": true
    },
    {
      "inputs": [
        {
          "internalType": "address",
          "name": "_contractDao",
          "type": "address"
        },
        {
          "internalType": "uint256",
          "name": "voteSessionId",
          "type": "uint256"
        },
        {
          "internalType": "address",
          "name": "voter",
          "type": "address"
        }
      ],
      "name": "hasVoted",
      "outputs": [
        {
          "internalType": "bool",
          "name": "",
          "type": "bool"
        }
      ],
      "stateMutability": "view",
      "type": "function",
      "constant": true
    },
    {
      "inputs": [
        {
          "internalType": "address",
          "name": "_contractDao",
          "type": "address"
        },
        {
          "internalType": "address",
          "name": "_memberDao",
          "type": "address"
        }
      ],
      "name": "addDao",
      "outputs": [],
      "stateMutability": "nonpayable",
      "type": "function"
    },
    {
      "inputs": [
        {
          "internalType": "address",
          "name": "_contractDao",
          "type": "address"
        },
        {
          "internalType": "address",
          "name": "_contractAddress",
          "type": "address"
        }
      ],
      "name": "authorizeContract",
      "outputs": [],
      "stateMutability": "nonpayable",
      "type": "function"
    },
    {
      "inputs": [
        {
          "internalType": "address",
          "name": "_contractDao",
          "type": "address"
        },
        {
          "internalType": "address",
          "name": "_contractAddress",
          "type": "address"
        }
      ],
      "name": "denyContract",
      "outputs": [],
      "stateMutability": "nonpayable",
      "type": "function"
    }
  ],
  "bytecode": "0x60806040523480156200001157600080fd5b50604051620037fa380380620037fa8339818101604052810190620000379190620001c0565b62000069620000546200008a640100000000026401000000009004565b62000092640100000000026401000000009004565b620000838162000092640100000000026401000000009004565b50620001f2565b600033905090565b60008060009054906101000a900473ffffffffffffffffffffffffffffffffffffffff169050816000806101000a81548173ffffffffffffffffffffffffffffffffffffffff021916908373ffffffffffffffffffffffffffffffffffffffff1602179055508173ffffffffffffffffffffffffffffffffffffffff168173ffffffffffffffffffffffffffffffffffffffff167f8be0079c531659141344cd1fd0a4f28419497f9722a3daafe3b4186f6b6457e060405160405180910390a35050565b600080fd5b600073ffffffffffffffffffffffffffffffffffffffff82169050919050565b600062000188826200015b565b9050919050565b6200019a816200017b565b8114620001a657600080fd5b50565b600081519050620001ba816200018f565b92915050565b600060208284031215620001d957620001d862000156565b5b6000620001e984828501620001a9565b91505092915050565b6135f880620002026000396000f3fe608060405234801561001057600080fd5b506004361061013e576000357c0100000000000000000000000000000000000000000000000000000000900480638b1ce2ef116100ca578063c25f3cf61161008e578063c25f3cf614610360578063e69a190a14610392578063f2fde38b146103c9578063fd95029a146103e5578063fe0ac3e7146104155761013e565b80638b1ce2ef146102825780638da5cb5b146102b25780638f669505146102d0578063a5fc4dc614610300578063c19fe6c2146103305761013e565b80634568f199116101115780634568f199146101db5780636a348b7b146101f7578063715018a614610213578063770e172a1461021d5780637bf5351c146102525761013e565b80630fae38ac1461014357806312ee7e4114610173578063144fdd5d1461018f57806338e58af0146101bf575b600080fd5b61015d6004803603810190610158919061265e565b610431565b60405161016a91906126cc565b60405180910390f35b61018d600480360381019061018891906126e7565b61057d565b005b6101a960048036038101906101a49190612727565b61090e565b6040516101b69190612776565b60405180910390f35b6101d960048036038101906101d49190612910565b61096c565b005b6101f560048036038101906101f091906126e7565b610d97565b005b610211600480360381019061020c91906129af565b610f3f565b005b61021b611614565b005b61023760048036038101906102329190612727565b61169c565b60405161024996959493929190612a99565b60405180910390f35b61026c600480360381019061026791906126e7565b6119f0565b60405161027991906126cc565b60405180910390f35b61029c60048036038101906102979190612727565b611a1f565b6040516102a991906126cc565b60405180910390f35b6102ba611ce7565b6040516102c79190612b08565b60405180910390f35b6102ea60048036038101906102e59190612b23565b611d10565b6040516102f79190612b08565b60405180910390f35b61031a60048036038101906103159190612b76565b611da0565b6040516103279190612776565b60405180910390f35b61034a60048036038101906103459190612b76565b611db8565b6040516103579190612776565b60405180910390f35b61037a60048036038101906103759190612b76565b611e01565b60405161038993929190612ba3565b60405180910390f35b6103ac60048036038101906103a79190612727565b611e58565b6040516103c0989796959493929190612c51565b60405180910390f35b6103e360048036038101906103de9190612b76565b612004565b005b6103ff60048036038101906103fa919061265e565b6120fc565b60405161040c9190612d85565b60405180910390f35b61042f600480360381019061042a91906126e7565b612254565b005b6000600360008573ffffffffffffffffffffffffffffffffffffffff1673ffffffffffffffffffffffffffffffffffffffff168152602001908152602001600020600084815260200190815260200160002060090160019054906101000a900460ff166104d3576040517f08c379a00000000000000000000000000000000000000000000000000000000081526004016104ca90612dec565b60405180910390fd5b600360008573ffffffffffffffffffffffffffffffffffffffff1673ffffffffffffffffffffffffffffffffffffffff168152602001908152602001600020600084815260200190815260200160002060060160008373ffffffffffffffffffffffffffffffffffffffff1673ffffffffffffffffffffffffffffffffffffffff16815260200190815260200160002060000160159054906101000a900460ff1690509392505050565b8160011515600560008373ffffffffffffffffffffffffffffffffffffffff1673ffffffffffffffffffffffffffffffffffffffff16815260200190815260200160002060003373ffffffffffffffffffffffffffffffffffffffff1673ffffffffffffffffffffffffffffffffffffffff16815260200190815260200160002060009054906101000a900460ff161515148061064c575061061d611ce7565b73ffffffffffffffffffffffffffffffffffffffff163373ffffffffffffffffffffffffffffffffffffffff16145b61068b576040517f08c379a000000000000000000000000000000000000000000000000000000000815260040161068290612e58565b60405180910390fd5b600460008473ffffffffffffffffffffffffffffffffffffffff1673ffffffffffffffffffffffffffffffffffffffff16815260200190815260200160002060040160009054906101000a900460ff161561071b576040517f08c379a000000000000000000000000000000000000000000000000000000000815260040161071290612ec4565b60405180910390fd5b6001600460008573ffffffffffffffffffffffffffffffffffffffff1673ffffffffffffffffffffffffffffffffffffffff16815260200190815260200160002060040160006101000a81548160ff02191690831515021790555082600460008573ffffffffffffffffffffffffffffffffffffffff1673ffffffffffffffffffffffffffffffffffffffff16815260200190815260200160002060000160006101000a81548173ffffffffffffffffffffffffffffffffffffffff021916908373ffffffffffffffffffffffffffffffffffffffff1602179055508273ffffffffffffffffffffffffffffffffffffffff1663d8d8e93c60405160200161082290612f30565b604051602081830303815290604052805190602001206040518263ffffffff167c01000000000000000000000000000000000000000000000000000000000281526004016108709190612f8b565b60006040518083038186803b15801561088857600080fd5b505afa15801561089c573d6000803e3d6000fd5b505050506040513d6000823e3d601f19601f820116820180604052508101906108c5919061315e565b60200151600660006101000a81548173ffffffffffffffffffffffffffffffffffffffff021916908373ffffffffffffffffffffffffffffffffffffffff160217905550505050565b6000600360008473ffffffffffffffffffffffffffffffffffffffff1673ffffffffffffffffffffffffffffffffffffffff168152602001908152602001600020600083815260200190815260200160002060050154905092915050565b6000600360008673ffffffffffffffffffffffffffffffffffffffff1673ffffffffffffffffffffffffffffffffffffffff1681526020019081526020016000206000600260008873ffffffffffffffffffffffffffffffffffffffff1673ffffffffffffffffffffffffffffffffffffffff16815260200190815260200160002054815260200190815260200160002060040160006101000a81548160ff02191690831515021790555082600360008673ffffffffffffffffffffffffffffffffffffffff1673ffffffffffffffffffffffffffffffffffffffff1681526020019081526020016000206000600260008873ffffffffffffffffffffffffffffffffffffffff1673ffffffffffffffffffffffffffffffffffffffff1681526020019081526020016000205481526020019081526020016000206002019080519060200190610abd9291906124c8565b5081600360008673ffffffffffffffffffffffffffffffffffffffff1673ffffffffffffffffffffffffffffffffffffffff1681526020019081526020016000206000600260008873ffffffffffffffffffffffffffffffffffffffff1673ffffffffffffffffffffffffffffffffffffffff1681526020019081526020016000205481526020019081526020016000206003019080519060200190610b649291906124c8565b5033600360008673ffffffffffffffffffffffffffffffffffffffff1673ffffffffffffffffffffffffffffffffffffffff1681526020019081526020016000206000600260008873ffffffffffffffffffffffffffffffffffffffff1673ffffffffffffffffffffffffffffffffffffffff16815260200190815260200160002054815260200190815260200160002060000160006101000a81548173ffffffffffffffffffffffffffffffffffffffff021916908373ffffffffffffffffffffffffffffffffffffffff1602179055508060ff166001811115610c4c57610c4b612bda565b5b600360008673ffffffffffffffffffffffffffffffffffffffff1673ffffffffffffffffffffffffffffffffffffffff1681526020019081526020016000206000600260008873ffffffffffffffffffffffffffffffffffffffff1673ffffffffffffffffffffffffffffffffffffffff16815260200190815260200160002054815260200190815260200160002060090160006101000a81548160ff02191690836001811115610d0057610cff612bda565b5b0217905550600260008573ffffffffffffffffffffffffffffffffffffffff1673ffffffffffffffffffffffffffffffffffffffff16815260200190815260200160002060008154610d51906131d6565b919050819055507fcd6cc57f1b7b27f4de7516169856aba6cdae3616948048548d9e3893565c61603384604051610d8992919061321f565b60405180910390a150505050565b8160011515600560008373ffffffffffffffffffffffffffffffffffffffff1673ffffffffffffffffffffffffffffffffffffffff16815260200190815260200160002060003373ffffffffffffffffffffffffffffffffffffffff1673ffffffffffffffffffffffffffffffffffffffff16815260200190815260200160002060009054906101000a900460ff1615151480610e665750610e37611ce7565b73ffffffffffffffffffffffffffffffffffffffff163373ffffffffffffffffffffffffffffffffffffffff16145b610ea5576040517f08c379a0000000000000000000000000000000000000000000000000000000008152600401610e9c90612e58565b60405180910390fd5b6001600560008573ffffffffffffffffffffffffffffffffffffffff1673ffffffffffffffffffffffffffffffffffffffff16815260200190815260200160002060008473ffffffffffffffffffffffffffffffffffffffff1673ffffffffffffffffffffffffffffffffffffffff16815260200190815260200160002060006101000a81548160ff021916908315150217905550505050565b600360008473ffffffffffffffffffffffffffffffffffffffff1673ffffffffffffffffffffffffffffffffffffffff168152602001908152602001600020600083815260200190815260200160002060090160019054906101000a900460ff16610fdf576040517f08c379a0000000000000000000000000000000000000000000000000000000008152600401610fd690612dec565b60405180910390fd5b610fe98383611a1f565b611028576040517f08c379a000000000000000000000000000000000000000000000000000000000815260040161101f9061329b565b60405180910390fd5b611033838333610431565b611072576040517f08c379a000000000000000000000000000000000000000000000000000000000815260040161106990613307565b60405180910390fd5b600660009054906101000a900473ffffffffffffffffffffffffffffffffffffffff1673ffffffffffffffffffffffffffffffffffffffff16638ecf772084336040518363ffffffff167c01000000000000000000000000000000000000000000000000000000000281526004016110eb929190613327565b60206040518083038186803b15801561110357600080fd5b505afa158015611117573d6000803e3d6000fd5b505050506040513d601f19601f8201168201806040525081019061113b9190613350565b61117a576040517f08c379a0000000000000000000000000000000000000000000000000000000008152600401611171906133c9565b60405180910390fd5b33600360008573ffffffffffffffffffffffffffffffffffffffff1673ffffffffffffffffffffffffffffffffffffffff16815260200190815260200160002060008481526020019081526020016000206007016000600360008773ffffffffffffffffffffffffffffffffffffffff1673ffffffffffffffffffffffffffffffffffffffff168152602001908152602001600020600086815260200190815260200160002060050154815260200190815260200160002060006101000a81548173ffffffffffffffffffffffffffffffffffffffff021916908373ffffffffffffffffffffffffffffffffffffffff160217905550600360008473ffffffffffffffffffffffffffffffffffffffff1673ffffffffffffffffffffffffffffffffffffffff1681526020019081526020016000206000838152602001908152602001600020600501600081546112d0906131d6565b919050819055508060ff1660018111156112ed576112ec612bda565b5b600360008573ffffffffffffffffffffffffffffffffffffffff1673ffffffffffffffffffffffffffffffffffffffff168152602001908152602001600020600084815260200190815260200160002060060160003373ffffffffffffffffffffffffffffffffffffffff1673ffffffffffffffffffffffffffffffffffffffff16815260200190815260200160002060000160006101000a81548160ff021916908360018111156113a2576113a1612bda565b5b02179055506001600360008573ffffffffffffffffffffffffffffffffffffffff1673ffffffffffffffffffffffffffffffffffffffff168152602001908152602001600020600084815260200190815260200160002060060160003373ffffffffffffffffffffffffffffffffffffffff1673ffffffffffffffffffffffffffffffffffffffff16815260200190815260200160002060000160156101000a81548160ff021916908315150217905550600360008473ffffffffffffffffffffffffffffffffffffffff1673ffffffffffffffffffffffffffffffffffffffff168152602001908152602001600020600083815260200190815260200160002060080160405180606001604052808360ff1660018111156114c7576114c6612bda565b5b60018111156114d9576114d8612bda565b5b81526020013373ffffffffffffffffffffffffffffffffffffffff168152602001600115158152509080600181540180825580915050600190039060005260206000200160009091909190915060008201518160000160006101000a81548160ff0219169083600181111561155157611550612bda565b5b021790555060208201518160000160016101000a81548173ffffffffffffffffffffffffffffffffffffffff021916908373ffffffffffffffffffffffffffffffffffffffff16021790555060408201518160000160156101000a81548160ff02191690831515021790555050507fcc66c27f993ef125e1b985d84a52726edc66dcc64e94d172f80253e37d52637233838360ff1660018111156115f8576115f7612bda565b5b604051611607939291906133f8565b60405180910390a1505050565b61161c6123fc565b73ffffffffffffffffffffffffffffffffffffffff1661163a611ce7565b73ffffffffffffffffffffffffffffffffffffffff1614611690576040517f08c379a00000000000000000000000000000000000000000000000000000000081526004016116879061347b565b60405180910390fd5b61169a6000612404565b565b600080606080600080600360008973ffffffffffffffffffffffffffffffffffffffff1673ffffffffffffffffffffffffffffffffffffffff168152602001908152602001600020600088815260200190815260200160002060000160009054906101000a900473ffffffffffffffffffffffffffffffffffffffff169550600360008973ffffffffffffffffffffffffffffffffffffffff1673ffffffffffffffffffffffffffffffffffffffff1681526020019081526020016000206000888152602001908152602001600020600101549450600360008973ffffffffffffffffffffffffffffffffffffffff1673ffffffffffffffffffffffffffffffffffffffff168152602001908152602001600020600088815260200190815260200160002060020180546117cf906134ca565b80601f01602080910402602001604051908101604052809291908181526020018280546117fb906134ca565b80156118485780601f1061181d57610100808354040283529160200191611848565b820191906000526020600020905b81548152906001019060200180831161182b57829003601f168201915b50505050509350600360008973ffffffffffffffffffffffffffffffffffffffff1673ffffffffffffffffffffffffffffffffffffffff168152602001908152602001600020600088815260200190815260200160002060030180546118ad906134ca565b80601f01602080910402602001604051908101604052809291908181526020018280546118d9906134ca565b80156119265780601f106118fb57610100808354040283529160200191611926565b820191906000526020600020905b81548152906001019060200180831161190957829003601f168201915b50505050509250600360008973ffffffffffffffffffffffffffffffffffffffff1673ffffffffffffffffffffffffffffffffffffffff168152602001908152602001600020600088815260200190815260200160002060040160009054906101000a900460ff169150600360008973ffffffffffffffffffffffffffffffffffffffff1673ffffffffffffffffffffffffffffffffffffffff16815260200190815260200160002060008881526020019081526020016000206005015490509295509295509295565b60056020528160005260406000206020528060005260406000206000915091509054906101000a900460ff1681565b6000600360008473ffffffffffffffffffffffffffffffffffffffff1673ffffffffffffffffffffffffffffffffffffffff168152602001908152602001600020600083815260200190815260200160002060090160019054906101000a900460ff16611ac1576040517f08c379a0000000000000000000000000000000000000000000000000000000008152600401611ab890612dec565b60405180910390fd5b600360008473ffffffffffffffffffffffffffffffffffffffff1673ffffffffffffffffffffffffffffffffffffffff168152602001908152602001600020600083815260200190815260200160002060040160009054906101000a900460ff1615611b305760019050611ce1565b6000600360008573ffffffffffffffffffffffffffffffffffffffff1673ffffffffffffffffffffffffffffffffffffffff16815260200190815260200160002060008481526020019081526020016000206001015442611b9191906134fc565b905060006001811115611ba757611ba6612bda565b5b600360008673ffffffffffffffffffffffffffffffffffffffff1673ffffffffffffffffffffffffffffffffffffffff168152602001908152602001600020600085815260200190815260200160002060090160009054906101000a900460ff166001811115611c1a57611c19612bda565b5b148015611c285750610e1081115b15611c37576001915050611ce1565b600180811115611c4a57611c49612bda565b5b600360008673ffffffffffffffffffffffffffffffffffffffff1673ffffffffffffffffffffffffffffffffffffffff168152602001908152602001600020600085815260200190815260200160002060090160009054906101000a900460ff166001811115611cbd57611cbc612bda565b5b148015611ccc57506201518081115b15611cdb576001915050611ce1565b60009150505b92915050565b60008060009054906101000a900473ffffffffffffffffffffffffffffffffffffffff16905090565b6000600360008573ffffffffffffffffffffffffffffffffffffffff1673ffffffffffffffffffffffffffffffffffffffff1681526020019081526020016000206000848152602001908152602001600020600701600083815260200190815260200160002060009054906101000a900473ffffffffffffffffffffffffffffffffffffffff1690509392505050565b60026020528060005260406000206000915090505481565b6000600260008373ffffffffffffffffffffffffffffffffffffffff1673ffffffffffffffffffffffffffffffffffffffff168152602001908152602001600020549050919050565b60046020528060005260406000206000915090508060000160009054906101000a900473ffffffffffffffffffffffffffffffffffffffff16908060010154908060040160009054906101000a900460ff16905083565b6003602052816000526040600020602052806000526040600020600091509150508060000160009054906101000a900473ffffffffffffffffffffffffffffffffffffffff1690806001015490806002018054611eb4906134ca565b80601f0160208091040260200160405190810160405280929190818152602001828054611ee0906134ca565b8015611f2d5780601f10611f0257610100808354040283529160200191611f2d565b820191906000526020600020905b815481529060010190602001808311611f1057829003601f168201915b505050505090806003018054611f42906134ca565b80601f0160208091040260200160405190810160405280929190818152602001828054611f6e906134ca565b8015611fbb5780601f10611f9057610100808354040283529160200191611fbb565b820191906000526020600020905b815481529060010190602001808311611f9e57829003601f168201915b5050505050908060040160009054906101000a900460ff16908060050154908060090160009054906101000a900460ff16908060090160019054906101000a900460ff16905088565b61200c6123fc565b73ffffffffffffffffffffffffffffffffffffffff1661202a611ce7565b73ffffffffffffffffffffffffffffffffffffffff1614612080576040517f08c379a00000000000000000000000000000000000000000000000000000000081526004016120779061347b565b60405180910390fd5b600073ffffffffffffffffffffffffffffffffffffffff168173ffffffffffffffffffffffffffffffffffffffff1614156120f0576040517f08c379a00000000000000000000000000000000000000000000000000000000081526004016120e7906135a2565b60405180910390fd5b6120f981612404565b50565b61210461254e565b600360008573ffffffffffffffffffffffffffffffffffffffff1673ffffffffffffffffffffffffffffffffffffffff168152602001908152602001600020600084815260200190815260200160002060060160008373ffffffffffffffffffffffffffffffffffffffff1673ffffffffffffffffffffffffffffffffffffffff1681526020019081526020016000206040518060600160405290816000820160009054906101000a900460ff1660018111156121c4576121c3612bda565b5b60018111156121d6576121d5612bda565b5b81526020016000820160019054906101000a900473ffffffffffffffffffffffffffffffffffffffff1673ffffffffffffffffffffffffffffffffffffffff1673ffffffffffffffffffffffffffffffffffffffff1681526020016000820160159054906101000a900460ff16151515158152505090509392505050565b8160011515600560008373ffffffffffffffffffffffffffffffffffffffff1673ffffffffffffffffffffffffffffffffffffffff16815260200190815260200160002060003373ffffffffffffffffffffffffffffffffffffffff1673ffffffffffffffffffffffffffffffffffffffff16815260200190815260200160002060009054906101000a900460ff161515148061232357506122f4611ce7565b73ffffffffffffffffffffffffffffffffffffffff163373ffffffffffffffffffffffffffffffffffffffff16145b612362576040517f08c379a000000000000000000000000000000000000000000000000000000000815260040161235990612e58565b60405180910390fd5b6000600560008573ffffffffffffffffffffffffffffffffffffffff1673ffffffffffffffffffffffffffffffffffffffff16815260200190815260200160002060008473ffffffffffffffffffffffffffffffffffffffff1673ffffffffffffffffffffffffffffffffffffffff16815260200190815260200160002060006101000a81548160ff021916908315150217905550505050565b600033905090565b60008060009054906101000a900473ffffffffffffffffffffffffffffffffffffffff169050816000806101000a81548173ffffffffffffffffffffffffffffffffffffffff021916908373ffffffffffffffffffffffffffffffffffffffff1602179055508173ffffffffffffffffffffffffffffffffffffffff168173ffffffffffffffffffffffffffffffffffffffff167f8be0079c531659141344cd1fd0a4f28419497f9722a3daafe3b4186f6b6457e060405160405180910390a35050565b8280546124d4906134ca565b90600052602060002090601f0160209004810192826124f6576000855561253d565b82601f1061250f57805160ff191683800117855561253d565b8280016001018555821561253d579182015b8281111561253c578251825591602001919060010190612521565b5b50905061254a9190612599565b5090565b60405180606001604052806000600181111561256d5761256c612bda565b5b8152602001600073ffffffffffffffffffffffffffffffffffffffff1681526020016000151581525090565b5b808211156125b257600081600090555060010161259a565b5090565b6000604051905090565b600080fd5b600080fd5b600073ffffffffffffffffffffffffffffffffffffffff82169050919050565b60006125f5826125ca565b9050919050565b612605816125ea565b811461261057600080fd5b50565b600081359050612622816125fc565b92915050565b6000819050919050565b61263b81612628565b811461264657600080fd5b50565b60008135905061265881612632565b92915050565b600080600060608486031215612677576126766125c0565b5b600061268586828701612613565b935050602061269686828701612649565b92505060406126a786828701612613565b9150509250925092565b60008115159050919050565b6126c6816126b1565b82525050565b60006020820190506126e160008301846126bd565b92915050565b600080604083850312156126fe576126fd6125c0565b5b600061270c85828601612613565b925050602061271d85828601612613565b9150509250929050565b6000806040838503121561273e5761273d6125c0565b5b600061274c85828601612613565b925050602061275d85828601612649565b9150509250929050565b61277081612628565b82525050565b600060208201905061278b6000830184612767565b92915050565b600080fd5b600080fd5b6000601f19601f8301169050919050565b7f4e487b7100000000000000000000000000000000000000000000000000000000600052604160045260246000fd5b6127e48261279b565b810181811067ffffffffffffffff82111715612803576128026127ac565b5b80604052505050565b60006128166125b6565b905061282282826127db565b919050565b600067ffffffffffffffff821115612842576128416127ac565b5b61284b8261279b565b9050602081019050919050565b82818337600083830152505050565b600061287a61287584612827565b61280c565b90508281526020810184848401111561289657612895612796565b5b6128a1848285612858565b509392505050565b600082601f8301126128be576128bd612791565b5b81356128ce848260208601612867565b91505092915050565b600060ff82169050919050565b6128ed816128d7565b81146128f857600080fd5b50565b60008135905061290a816128e4565b92915050565b6000806000806080858703121561292a576129296125c0565b5b600061293887828801612613565b945050602085013567ffffffffffffffff811115612959576129586125c5565b5b612965878288016128a9565b935050604085013567ffffffffffffffff811115612986576129856125c5565b5b612992878288016128a9565b92505060606129a3878288016128fb565b91505092959194509250565b6000806000606084860312156129c8576129c76125c0565b5b60006129d686828701612613565b93505060206129e786828701612649565b92505060406129f8868287016128fb565b9150509250925092565b612a0b816125ea565b82525050565b600081519050919050565b600082825260208201905092915050565b60005b83811015612a4b578082015181840152602081019050612a30565b83811115612a5a576000848401525b50505050565b6000612a6b82612a11565b612a758185612a1c565b9350612a85818560208601612a2d565b612a8e8161279b565b840191505092915050565b600060c082019050612aae6000830189612a02565b612abb6020830188612767565b8181036040830152612acd8187612a60565b90508181036060830152612ae18186612a60565b9050612af060808301856126bd565b612afd60a0830184612767565b979650505050505050565b6000602082019050612b1d6000830184612a02565b92915050565b600080600060608486031215612b3c57612b3b6125c0565b5b6000612b4a86828701612613565b9350506020612b5b86828701612649565b9250506040612b6c86828701612649565b9150509250925092565b600060208284031215612b8c57612b8b6125c0565b5b6000612b9a84828501612613565b91505092915050565b6000606082019050612bb86000830186612a02565b612bc56020830185612767565b612bd260408301846126bd565b949350505050565b7f4e487b7100000000000000000000000000000000000000000000000000000000600052602160045260246000fd5b60028110612c1a57612c19612bda565b5b50565b6000819050612c2b82612c09565b919050565b6000612c3b82612c1d565b9050919050565b612c4b81612c30565b82525050565b600061010082019050612c67600083018b612a02565b612c74602083018a612767565b8181036040830152612c868189612a60565b90508181036060830152612c9a8188612a60565b9050612ca960808301876126bd565b612cb660a0830186612767565b612cc360c0830185612c42565b612cd060e08301846126bd565b9998505050505050505050565b60028110612cee57612ced612bda565b5b50565b6000819050612cff82612cdd565b919050565b6000612d0f82612cf1565b9050919050565b612d1f81612d04565b82525050565b612d2e816125ea565b82525050565b612d3d816126b1565b82525050565b606082016000820151612d596000850182612d16565b506020820151612d6c6020850182612d25565b506040820151612d7f6040850182612d34565b50505050565b6000606082019050612d9a6000830184612d43565b92915050565b7f566f74652073657373696f6e206e6f7420666f756e6400000000000000000000600082015250565b6000612dd6601683612a1c565b9150612de182612da0565b602082019050919050565b60006020820190508181036000830152612e0581612dc9565b9050919050565b7f4e6f7420617574686f72697a6564204242420000000000000000000000000000600082015250565b6000612e42601283612a1c565b9150612e4d82612e0c565b602082019050919050565b60006020820190508181036000830152612e7181612e35565b9050919050565b7f44616f20616c7265616479206164646564000000000000000000000000000000600082015250565b6000612eae601183612a1c565b9150612eb982612e78565b602082019050919050565b60006020820190508181036000830152612edd81612ea1565b9050919050565b7f4d656d6265724d6f64756c650000000000000000000000000000000000000000600082015250565b6000612f1a600c83612a1c565b9150612f2582612ee4565b602082019050919050565b60006020820190508181036000830152612f4981612f0d565b9050919050565b60007fffffffffffffffff00000000000000000000000000000000000000000000000082169050919050565b612f8581612f50565b82525050565b6000602082019050612fa06000830184612f7c565b92915050565b600080fd5b600080fd5b600081519050612fbf81612632565b92915050565b600081519050612fd4816125fc565b92915050565b612fe3816126b1565b8114612fee57600080fd5b50565b60008151905061300081612fda565b92915050565b61300f81612f50565b811461301a57600080fd5b50565b60008151905061302c81613006565b92915050565b600061304561304084612827565b61280c565b90508281526020810184848401111561306157613060612796565b5b61306c848285612a2d565b509392505050565b600082601f83011261308957613088612791565b5b8151613099848260208601613032565b91505092915050565b600060c082840312156130b8576130b7612fa6565b5b6130c260c061280c565b905060006130d284828501612fb0565b60008301525060206130e684828501612fc5565b60208301525060406130fa84828501612ff1565b604083015250606061310e8482850161301d565b60608301525060806131228482850161301d565b60808301525060a082015167ffffffffffffffff81111561314657613145612fab565b5b61315284828501613074565b60a08301525092915050565b600060208284031215613174576131736125c0565b5b600082015167ffffffffffffffff811115613192576131916125c5565b5b61319e848285016130a2565b91505092915050565b7f4e487b7100000000000000000000000000000000000000000000000000000000600052601160045260246000fd5b60006131e182612628565b91507fffffffffffffffffffffffffffffffffffffffffffffffffffffffffffffffff821415613214576132136131a7565b5b600182019050919050565b60006040820190506132346000830185612a02565b81810360208301526132468184612a60565b90509392505050565b7f566f74652073657373696f6e207465726d696e61746564000000000000000000600082015250565b6000613285601783612a1c565b91506132908261324f565b602082019050919050565b600060208201905081810360008301526132b481613278565b9050919050565b7f416c726561647920766f74656400000000000000000000000000000000000000600082015250565b60006132f1600d83612a1c565b91506132fc826132bb565b602082019050919050565b60006020820190508181036000830152613320816132e4565b9050919050565b600060408201905061333c6000830185612a02565b6133496020830184612a02565b9392505050565b600060208284031215613366576133656125c0565b5b600061337484828501612ff1565b91505092915050565b7f4e6f742044414f206d656d626572000000000000000000000000000000000000600082015250565b60006133b3600e83612a1c565b91506133be8261337d565b602082019050919050565b600060208201905081810360008301526133e2816133a6565b9050919050565b6133f281612d04565b82525050565b600060608201905061340d6000830186612a02565b61341a6020830185612767565b61342760408301846133e9565b949350505050565b7f4f776e61626c653a2063616c6c6572206973206e6f7420746865206f776e6572600082015250565b6000613465602083612a1c565b91506134708261342f565b602082019050919050565b6000602082019050818103600083015261349481613458565b9050919050565b7f4e487b7100000000000000000000000000000000000000000000000000000000600052602260045260246000fd5b600060028204905060018216806134e257607f821691505b602082108114156134f6576134f561349b565b5b50919050565b600061350782612628565b915061351283612628565b925082821015613525576135246131a7565b5b828203905092915050565b7f4f776e61626c653a206e6577206f776e657220697320746865207a65726f206160008201527f6464726573730000000000000000000000000000000000000000000000000000602082015250565b600061358c602683612a1c565b915061359782613530565b604082019050919050565b600060208201905081810360008301526135bb8161357f565b905091905056fea2646970667358221220193cf321a1b4ed3103e0dcfd1413733e46c9f08ac709f136019c49041b0ea06b64736f6c63430008090033",
  "immutableReferences": {},
  "source": "// SPDX-License-Identifier: MIT\r\npragma solidity ^0.8.9;\r\n\r\nimport \"@openzeppelin/contracts/utils/math/SafeMath.sol\";\r\nimport \"@openzeppelin/contracts/access/Ownable.sol\";\r\nimport \"../../Data.sol\";\r\nimport \"../Interfaces/IMembersDAO.sol\";\r\nimport \"../../DaoBase.sol\";\r\n\r\n//is DaosFactory\r\ncontract VotingYesNoModule is Ownable {\r\n    using SafeMath for uint256;\r\n    //DaoBase private dao;\r\n    IMembersDao private membersDao;\r\n    mapping(address => uint256) public voteSessionsCount;\r\n    mapping(address => mapping(uint256 => voteSession)) public voteSessions;\r\n    mapping(address => Data.DaoMember) public daos;\r\n    mapping(address => mapping(address => bool)) public authorizedContracts;\r\n    address private memberModuleAddress;\r\n\r\n    struct voteSession {\r\n        address creatorAddress;\r\n        uint256 creationTime;\r\n        string name;\r\n        string description;\r\n        bool isTerminated;\r\n        uint256 votersCount;\r\n        mapping(address => voteResult) votes;\r\n        mapping(uint256 => address) voterAddresses;\r\n        voteResult[] voteResults;\r\n        durationEnum duration;\r\n        bool isCreated;\r\n    }\r\n\r\n    struct voteResult {\r\n        responseEnum response;\r\n        address voter;\r\n        bool voted;\r\n    }\r\n\r\n    struct voteResponseResult {\r\n        responseEnum response;\r\n        uint256 voteNumbers;\r\n    } \r\n\r\n    enum responseEnum {\r\n        yes,\r\n        no\r\n    }\r\n\r\n    enum durationEnum {\r\n        oneHour,\r\n        oneDay\r\n    }\r\n\r\n    event VoteSessionCreated(address creatorAddress, string name);\r\n    event Voted(address voterAddress, uint256 voteSessionId, responseEnum response);\r\n\r\n    constructor(address _contractFactory) {\r\n        _transferOwnership(_contractFactory);\r\n    }\r\n\r\n    modifier onlyAuthorizeContracts(address _contractDao) {\r\n        require(authorizedContracts[_contractDao][msg.sender] == true, \"Not authorized BB\");\r\n        _;\r\n    }\r\n    modifier onlyAuthorizeContractsOrOwner(address _contractDao) {\r\n        require(authorizedContracts[_contractDao][msg.sender] == true || msg.sender == owner(), \"Not authorized BBB\");\r\n        _;\r\n    }\r\n\r\n    function getVotesCount(address _contractDao) public view returns (uint256)\r\n    {\r\n        return voteSessionsCount[_contractDao];\r\n    }\r\n\r\n    // function getVote(address _contractDao, uint256 voteSessionId) external view returns (voteSession memory)\r\n    // {\r\n    //     return (voteSessions[_contractDao][voteSessionId]);\r\n    // }\r\n\r\n    function getVoteInfo(address _contractDao, uint256 voteSessionId, address _voterAddress) external view returns(voteResult memory) {\r\n        return(voteSessions[_contractDao][voteSessionId].votes[_voterAddress]);\r\n    }\r\n\r\n    function getVoteSessionInfo(address _contractDao, uint256 voteSessionId) external view returns(address creatorAddress,\r\n                                                                                                                            uint256 creationTime,\r\n                                                                                                                            string memory name,\r\n                                                                                                                            string memory description,\r\n                                                                                                                            bool isTerminated,\r\n                                                                                                                            uint256 votersCount) {\r\n         creatorAddress = voteSessions[_contractDao][voteSessionId].creatorAddress;\r\n         creationTime = voteSessions[_contractDao][voteSessionId].creationTime;\r\n         name = voteSessions[_contractDao][voteSessionId].name;\r\n         description = voteSessions[_contractDao][voteSessionId].description;\r\n         isTerminated = voteSessions[_contractDao][voteSessionId].isTerminated;\r\n         votersCount = voteSessions[_contractDao][voteSessionId].votersCount;\r\n    }\r\n\r\n    function getVoterAddressById(address _contractDao, uint256 voteSessionId, uint256 voterId) external view returns(address) {\r\n        return voteSessions[_contractDao][voteSessionId].voterAddresses[voterId];\r\n    }\r\n\r\n    function getVotersCount(address _contractDao, uint256 voteSessionId) external view returns(uint256) {\r\n        return voteSessions[_contractDao][voteSessionId].votersCount;\r\n    }\r\n\r\n    function createVote(address _contractDao, string memory name, string memory description, uint8 duration) public {\r\n        \r\n        voteSessions[_contractDao][voteSessionsCount[_contractDao]].isTerminated = false;\r\n        voteSessions[_contractDao][voteSessionsCount[_contractDao]].name = name;\r\n        voteSessions[_contractDao][voteSessionsCount[_contractDao]].description = description;\r\n        voteSessions[_contractDao][voteSessionsCount[_contractDao]].creatorAddress = msg.sender;\r\n        voteSessions[_contractDao][voteSessionsCount[_contractDao]].duration = durationEnum(duration);\r\n        ++voteSessionsCount[_contractDao];\r\n        \r\n        emit VoteSessionCreated(msg.sender, name);\r\n    }\r\n\r\n    function vote(address _contractDao, uint256 voteSessionId, uint8 response) public {\r\n        require(voteSessions[_contractDao][voteSessionId].isCreated, \"Vote session not found\");\r\n        require(isVoteSessionDurationExpired(_contractDao, voteSessionId), \"Vote session terminated\");\r\n        require(hasVoted(_contractDao, voteSessionId, msg.sender), \"Already voted\");\r\n        require(IMembersDao(memberModuleAddress).isActiveMember(_contractDao, msg.sender), \"Not DAO member\");\r\n\r\n        //add voter address\r\n        voteSessions[_contractDao][voteSessionId].voterAddresses[voteSessions[_contractDao][voteSessionId].votersCount] = msg.sender;\r\n        ++voteSessions[_contractDao][voteSessionId].votersCount;\r\n\r\n        //add voter vote\r\n        voteSessions[_contractDao][voteSessionId].votes[msg.sender].response = responseEnum(response);\r\n        voteSessions[_contractDao][voteSessionId].votes[msg.sender].voted = true;\r\n        voteSessions[_contractDao][voteSessionId].voteResults.push(voteResult(responseEnum(response), msg.sender, true));\r\n        \r\n        emit Voted(msg.sender, voteSessionId, responseEnum(response));\r\n    }\r\n\r\n    function isVoteSessionDurationExpired(address _contractDao, uint256 voteSessionId) public view returns (bool) {\r\n        require(voteSessions[_contractDao][voteSessionId].isCreated, \"Vote session not found\");\r\n\r\n        if(voteSessions[_contractDao][voteSessionId].isTerminated)\r\n            return true;\r\n\r\n        uint256 deltaTimestamp = block.timestamp - voteSessions[_contractDao][voteSessionId].creationTime;\r\n        if(voteSessions[_contractDao][voteSessionId].duration == durationEnum.oneHour && deltaTimestamp > 1 hours)\r\n            return true;\r\n        if(voteSessions[_contractDao][voteSessionId].duration == durationEnum.oneDay && deltaTimestamp > 1 days)\r\n            return true;\r\n\r\n        return false;\r\n    }    \r\n\r\n    function hasVoted(address _contractDao, uint256 voteSessionId, address voter) public view returns (bool) {\r\n        require(voteSessions[_contractDao][voteSessionId].isCreated, \"Vote session not found\");\r\n\r\n        return voteSessions[_contractDao][voteSessionId].votes[voter].voted;\r\n    }     \r\n\r\n    function addDao(address _contractDao, address _memberDao) external onlyAuthorizeContractsOrOwner(_contractDao) {\r\n        require(!daos[_contractDao].isActive, \"Dao already added\");\r\n        daos[_contractDao].isActive = true;\r\n        daos[_contractDao].addressDao = _contractDao;\r\n        memberModuleAddress = DaoBase(_contractDao).getModuleData(bytes8(keccak256(abi.encode(\"MemberModule\")))).moduleAddress;\r\n    }\r\n\r\n    function authorizeContract(address _contractDao, address _contractAddress) external onlyAuthorizeContractsOrOwner(_contractDao) {\r\n        authorizedContracts[_contractDao][_contractAddress] = true;\r\n    }\r\n\r\n    function denyContract(address _contractDao, address _contractAddress) external onlyAuthorizeContractsOrOwner(_contractDao) {\r\n        authorizedContracts[_contractDao][_contractAddress] = false;\r\n    }\r\n}",
  "sourcePath": "C:\\Users\\mdmou\\source\\repos\\MY-DAO\\contracts\\Modules\\Implementations\\VotingYesNoModule.sol",
  "compiler": {
    "name": "solc",
    "version": "0.8.9+commit.e5eed63a.Emscripten.clang"
  },
  "schemaVersion": "3.4.4",
  "updatedAt": "2022-05-18T22:25:40.955Z",
  "networkType": "ethereum",
  "devdoc": {
    "kind": "dev",
    "methods": {
      "owner()": {
        "details": "Returns the address of the current owner."
      },
      "renounceOwnership()": {
        "details": "Leaves the contract without owner. It will not be possible to call `onlyOwner` functions anymore. Can only be called by the current owner. NOTE: Renouncing ownership will leave the contract without an owner, thereby removing any functionality that is only available to the owner."
      },
      "transferOwnership(address)": {
        "details": "Transfers ownership of the contract to a new account (`newOwner`). Can only be called by the current owner."
      }
    },
    "version": 1
  },
  "userdoc": {
    "kind": "user",
    "methods": {},
    "version": 1
  }
}