{
  "contractName": "VotingYesNoModule",
  "abi": [
    {
      "inputs": [
        {
          "internalType": "address",
          "name": "_contractFactory",
          "type": "address"
        }
      ],
      "stateMutability": "nonpayable",
      "type": "constructor"
    },
    {
      "anonymous": false,
      "inputs": [
        {
          "indexed": true,
          "internalType": "address",
          "name": "previousOwner",
          "type": "address"
        },
        {
          "indexed": true,
          "internalType": "address",
          "name": "newOwner",
          "type": "address"
        }
      ],
      "name": "OwnershipTransferred",
      "type": "event"
    },
    {
      "anonymous": false,
      "inputs": [
        {
          "indexed": false,
          "internalType": "address",
          "name": "creatorAddress",
          "type": "address"
        },
        {
          "indexed": false,
          "internalType": "string",
          "name": "name",
          "type": "string"
        }
      ],
      "name": "VoteSessionCreated",
      "type": "event"
    },
    {
      "anonymous": false,
      "inputs": [
        {
          "indexed": false,
          "internalType": "address",
          "name": "voterAddress",
          "type": "address"
        },
        {
          "indexed": false,
          "internalType": "uint256",
          "name": "voteSessionId",
          "type": "uint256"
        },
        {
          "indexed": false,
          "internalType": "enum VotingYesNoModule.responseEnum",
          "name": "response",
          "type": "uint8"
        }
      ],
      "name": "Voted",
      "type": "event"
    },
    {
      "inputs": [
        {
          "internalType": "address",
          "name": "",
          "type": "address"
        }
      ],
      "name": "daos",
      "outputs": [
        {
          "internalType": "address",
          "name": "addressDao",
          "type": "address"
        },
        {
          "internalType": "uint256",
          "name": "membersCount",
          "type": "uint256"
        },
        {
          "internalType": "bool",
          "name": "isActive",
          "type": "bool"
        }
      ],
      "stateMutability": "view",
      "type": "function",
      "constant": true
    },
    {
      "inputs": [],
      "name": "owner",
      "outputs": [
        {
          "internalType": "address",
          "name": "",
          "type": "address"
        }
      ],
      "stateMutability": "view",
      "type": "function",
      "constant": true
    },
    {
      "inputs": [],
      "name": "renounceOwnership",
      "outputs": [],
      "stateMutability": "nonpayable",
      "type": "function"
    },
    {
      "inputs": [
        {
          "internalType": "address",
          "name": "newOwner",
          "type": "address"
        }
      ],
      "name": "transferOwnership",
      "outputs": [],
      "stateMutability": "nonpayable",
      "type": "function"
    },
    {
      "inputs": [
        {
          "internalType": "address",
          "name": "",
          "type": "address"
        },
        {
          "internalType": "uint256",
          "name": "",
          "type": "uint256"
        }
      ],
      "name": "voteSessions",
      "outputs": [
        {
          "internalType": "address",
          "name": "creatorAddress",
          "type": "address"
        },
        {
          "internalType": "uint256",
          "name": "creationTime",
          "type": "uint256"
        },
        {
          "internalType": "string",
          "name": "name",
          "type": "string"
        },
        {
          "internalType": "string",
          "name": "description",
          "type": "string"
        },
        {
          "internalType": "bool",
          "name": "isTerminated",
          "type": "bool"
        },
        {
          "internalType": "enum VotingYesNoModule.durationEnum",
          "name": "duration",
          "type": "uint8"
        },
        {
          "internalType": "bool",
          "name": "isCreated",
          "type": "bool"
        }
      ],
      "stateMutability": "view",
      "type": "function",
      "constant": true
    },
    {
      "inputs": [],
      "name": "voteSessionsCount",
      "outputs": [
        {
          "internalType": "uint256",
          "name": "",
          "type": "uint256"
        }
      ],
      "stateMutability": "view",
      "type": "function",
      "constant": true
    },
    {
      "inputs": [
        {
          "internalType": "address",
          "name": "_contractDao",
          "type": "address"
        },
        {
          "internalType": "string",
          "name": "name",
          "type": "string"
        },
        {
          "internalType": "string",
          "name": "description",
          "type": "string"
        },
        {
          "internalType": "uint8",
          "name": "duration",
          "type": "uint8"
        }
      ],
      "name": "createVote",
      "outputs": [],
      "stateMutability": "nonpayable",
      "type": "function"
    },
    {
      "inputs": [
        {
          "internalType": "address",
          "name": "_contractDao",
          "type": "address"
        },
        {
          "internalType": "uint256",
          "name": "voteSessionId",
          "type": "uint256"
        },
        {
          "internalType": "uint8",
          "name": "response",
          "type": "uint8"
        }
      ],
      "name": "vote",
      "outputs": [],
      "stateMutability": "nonpayable",
      "type": "function"
    },
    {
      "inputs": [
        {
          "internalType": "address",
          "name": "_contractDao",
          "type": "address"
        },
        {
          "internalType": "uint256",
          "name": "voteSessionId",
          "type": "uint256"
        }
      ],
      "name": "isVoteSessionDurationExpired",
      "outputs": [
        {
          "internalType": "bool",
          "name": "",
          "type": "bool"
        }
      ],
      "stateMutability": "view",
      "type": "function",
      "constant": true
    },
    {
      "inputs": [
        {
          "internalType": "address",
          "name": "_contractDao",
          "type": "address"
        },
        {
          "internalType": "uint256",
          "name": "voteSessionId",
          "type": "uint256"
        },
        {
          "internalType": "address",
          "name": "voter",
          "type": "address"
        }
      ],
      "name": "hasVoted",
      "outputs": [
        {
          "internalType": "bool",
          "name": "",
          "type": "bool"
        }
      ],
      "stateMutability": "view",
      "type": "function",
      "constant": true
    },
    {
      "inputs": [
        {
          "internalType": "address",
          "name": "_contractDao",
          "type": "address"
        },
        {
          "internalType": "address",
          "name": "_memberDao",
          "type": "address"
        }
      ],
      "name": "addDao",
      "outputs": [],
      "stateMutability": "nonpayable",
      "type": "function"
    },
    {
      "inputs": [
        {
          "internalType": "address",
          "name": "_contractDao",
          "type": "address"
        },
        {
          "internalType": "address",
          "name": "_contractAddress",
          "type": "address"
        }
      ],
      "name": "authorizeContract",
      "outputs": [],
      "stateMutability": "nonpayable",
      "type": "function"
    },
    {
      "inputs": [
        {
          "internalType": "address",
          "name": "_contractDao",
          "type": "address"
        },
        {
          "internalType": "address",
          "name": "_contractAddress",
          "type": "address"
        }
      ],
      "name": "denyContract",
      "outputs": [],
      "stateMutability": "nonpayable",
      "type": "function"
    }
  ],
  "bytecode": "0x60806040523480156200001157600080fd5b5060405162002bb038038062002bb08339818101604052810190620000379190620001c0565b62000069620000546200008a640100000000026401000000009004565b62000092640100000000026401000000009004565b620000838162000092640100000000026401000000009004565b50620001f2565b600033905090565b60008060009054906101000a900473ffffffffffffffffffffffffffffffffffffffff169050816000806101000a81548173ffffffffffffffffffffffffffffffffffffffff021916908373ffffffffffffffffffffffffffffffffffffffff1602179055508173ffffffffffffffffffffffffffffffffffffffff168173ffffffffffffffffffffffffffffffffffffffff167f8be0079c531659141344cd1fd0a4f28419497f9722a3daafe3b4186f6b6457e060405160405180910390a35050565b600080fd5b600073ffffffffffffffffffffffffffffffffffffffff82169050919050565b600062000188826200015b565b9050919050565b6200019a816200017b565b8114620001a657600080fd5b50565b600081519050620001ba816200018f565b92915050565b600060208284031215620001d957620001d862000156565b5b6000620001e984828501620001a9565b91505092915050565b6129ae80620002026000396000f3fe608060405234801561001057600080fd5b50600436106100ec576000357c0100000000000000000000000000000000000000000000000000000000900480638b1ce2ef116100a9578063e69a190a11610083578063e69a190a1461021b578063ebd0e27a14610251578063f2fde38b1461026f578063fe0ac3e71461028b576100ec565b80638b1ce2ef1461019b5780638da5cb5b146101cb578063c25f3cf6146101e9576100ec565b80630fae38ac146100f157806312ee7e411461012157806338e58af01461013d5780634568f199146101595780636a348b7b14610175578063715018a614610191575b600080fd5b61010b60048036038101906101069190611b98565b6102a7565b6040516101189190611c06565b60405180910390f35b61013b60048036038101906101369190611c21565b6103f3565b005b61015760048036038101906101529190611de0565b610784565b005b610173600480360381019061016e9190611c21565b610a41565b005b61018f600480360381019061018a9190611e7f565b610be9565b005b610199611165565b005b6101b560048036038101906101b09190611ed2565b6111ed565b6040516101c29190611c06565b60405180910390f35b6101d36114b5565b6040516101e09190611f21565b60405180910390f35b61020360048036038101906101fe9190611f3c565b6114de565b60405161021293929190611f78565b60405180910390f35b61023560048036038101906102309190611ed2565b611535565b60405161024897969594939291906120ae565b60405180910390f35b6102596116db565b604051610266919061212b565b60405180910390f35b61028960048036038101906102849190611f3c565b6116e1565b005b6102a560048036038101906102a09190611c21565b6117d9565b005b6000600360008573ffffffffffffffffffffffffffffffffffffffff1673ffffffffffffffffffffffffffffffffffffffff168152602001908152602001600020600084815260200190815260200160002060070160019054906101000a900460ff16610349576040517f08c379a000000000000000000000000000000000000000000000000000000000815260040161034090612192565b60405180910390fd5b600360008573ffffffffffffffffffffffffffffffffffffffff1673ffffffffffffffffffffffffffffffffffffffff168152602001908152602001600020600084815260200190815260200160002060050160008373ffffffffffffffffffffffffffffffffffffffff1673ffffffffffffffffffffffffffffffffffffffff16815260200190815260200160002060000160159054906101000a900460ff1690509392505050565b8160011515600560008373ffffffffffffffffffffffffffffffffffffffff1673ffffffffffffffffffffffffffffffffffffffff16815260200190815260200160002060003373ffffffffffffffffffffffffffffffffffffffff1673ffffffffffffffffffffffffffffffffffffffff16815260200190815260200160002060009054906101000a900460ff16151514806104c257506104936114b5565b73ffffffffffffffffffffffffffffffffffffffff163373ffffffffffffffffffffffffffffffffffffffff16145b610501576040517f08c379a00000000000000000000000000000000000000000000000000000000081526004016104f8906121fe565b60405180910390fd5b600460008473ffffffffffffffffffffffffffffffffffffffff1673ffffffffffffffffffffffffffffffffffffffff16815260200190815260200160002060040160009054906101000a900460ff1615610591576040517f08c379a00000000000000000000000000000000000000000000000000000000081526004016105889061226a565b60405180910390fd5b6001600460008573ffffffffffffffffffffffffffffffffffffffff1673ffffffffffffffffffffffffffffffffffffffff16815260200190815260200160002060040160006101000a81548160ff02191690831515021790555082600460008573ffffffffffffffffffffffffffffffffffffffff1673ffffffffffffffffffffffffffffffffffffffff16815260200190815260200160002060000160006101000a81548173ffffffffffffffffffffffffffffffffffffffff021916908373ffffffffffffffffffffffffffffffffffffffff1602179055508273ffffffffffffffffffffffffffffffffffffffff1663d8d8e93c604051602001610698906122d6565b604051602081830303815290604052805190602001206040518263ffffffff167c01000000000000000000000000000000000000000000000000000000000281526004016106e69190612331565b60006040518083038186803b1580156106fe57600080fd5b505afa158015610712573d6000803e3d6000fd5b505050506040513d6000823e3d601f19601f8201168201806040525081019061073b9190612504565b60200151600660006101000a81548173ffffffffffffffffffffffffffffffffffffffff021916908373ffffffffffffffffffffffffffffffffffffffff160217905550505050565b6002600081546107939061257c565b919050819055506000600360008673ffffffffffffffffffffffffffffffffffffffff1673ffffffffffffffffffffffffffffffffffffffff1681526020019081526020016000206000600254815260200190815260200160002060040160006101000a81548160ff02191690831515021790555082600360008673ffffffffffffffffffffffffffffffffffffffff1673ffffffffffffffffffffffffffffffffffffffff168152602001908152602001600020600060025481526020019081526020016000206002019080519060200190610871929190611a4d565b5081600360008673ffffffffffffffffffffffffffffffffffffffff1673ffffffffffffffffffffffffffffffffffffffff1681526020019081526020016000206000600254815260200190815260200160002060030190805190602001906108db929190611a4d565b5033600360008673ffffffffffffffffffffffffffffffffffffffff1673ffffffffffffffffffffffffffffffffffffffff1681526020019081526020016000206000600254815260200190815260200160002060000160006101000a81548173ffffffffffffffffffffffffffffffffffffffff021916908373ffffffffffffffffffffffffffffffffffffffff1602179055508060ff16600181111561098657610985612037565b5b600360008673ffffffffffffffffffffffffffffffffffffffff1673ffffffffffffffffffffffffffffffffffffffff1681526020019081526020016000206000600254815260200190815260200160002060070160006101000a81548160ff021916908360018111156109fd576109fc612037565b5b02179055507fcd6cc57f1b7b27f4de7516169856aba6cdae3616948048548d9e3893565c61603384604051610a339291906125c5565b60405180910390a150505050565b8160011515600560008373ffffffffffffffffffffffffffffffffffffffff1673ffffffffffffffffffffffffffffffffffffffff16815260200190815260200160002060003373ffffffffffffffffffffffffffffffffffffffff1673ffffffffffffffffffffffffffffffffffffffff16815260200190815260200160002060009054906101000a900460ff1615151480610b105750610ae16114b5565b73ffffffffffffffffffffffffffffffffffffffff163373ffffffffffffffffffffffffffffffffffffffff16145b610b4f576040517f08c379a0000000000000000000000000000000000000000000000000000000008152600401610b46906121fe565b60405180910390fd5b6001600560008573ffffffffffffffffffffffffffffffffffffffff1673ffffffffffffffffffffffffffffffffffffffff16815260200190815260200160002060008473ffffffffffffffffffffffffffffffffffffffff1673ffffffffffffffffffffffffffffffffffffffff16815260200190815260200160002060006101000a81548160ff021916908315150217905550505050565b600360008473ffffffffffffffffffffffffffffffffffffffff1673ffffffffffffffffffffffffffffffffffffffff168152602001908152602001600020600083815260200190815260200160002060070160019054906101000a900460ff16610c89576040517f08c379a0000000000000000000000000000000000000000000000000000000008152600401610c8090612192565b60405180910390fd5b610c9383836111ed565b610cd2576040517f08c379a0000000000000000000000000000000000000000000000000000000008152600401610cc990612641565b60405180910390fd5b610cdd8383336102a7565b610d1c576040517f08c379a0000000000000000000000000000000000000000000000000000000008152600401610d13906126ad565b60405180910390fd5b600660009054906101000a900473ffffffffffffffffffffffffffffffffffffffff1673ffffffffffffffffffffffffffffffffffffffff166345ecd02f336040518263ffffffff167c0100000000000000000000000000000000000000000000000000000000028152600401610d939190611f21565b60206040518083038186803b158015610dab57600080fd5b505afa158015610dbf573d6000803e3d6000fd5b505050506040513d601f19601f82011682018060405250810190610de391906126cd565b610e22576040517f08c379a0000000000000000000000000000000000000000000000000000000008152600401610e1990612746565b60405180910390fd5b8060ff166001811115610e3857610e37612037565b5b600360008573ffffffffffffffffffffffffffffffffffffffff1673ffffffffffffffffffffffffffffffffffffffff1681526020019081526020016000206000600254815260200190815260200160002060050160003373ffffffffffffffffffffffffffffffffffffffff1673ffffffffffffffffffffffffffffffffffffffff16815260200190815260200160002060000160006101000a81548160ff02191690836001811115610eef57610eee612037565b5b02179055506001600360008573ffffffffffffffffffffffffffffffffffffffff1673ffffffffffffffffffffffffffffffffffffffff1681526020019081526020016000206000600254815260200190815260200160002060050160003373ffffffffffffffffffffffffffffffffffffffff1673ffffffffffffffffffffffffffffffffffffffff16815260200190815260200160002060000160156101000a81548160ff021916908315150217905550600360008473ffffffffffffffffffffffffffffffffffffffff1673ffffffffffffffffffffffffffffffffffffffff1681526020019081526020016000206000600254815260200190815260200160002060060160405180606001604052808360ff16600181111561101857611017612037565b5b600181111561102a57611029612037565b5b81526020013373ffffffffffffffffffffffffffffffffffffffff168152602001600115158152509080600181540180825580915050600190039060005260206000200160009091909190915060008201518160000160006101000a81548160ff021916908360018111156110a2576110a1612037565b5b021790555060208201518160000160016101000a81548173ffffffffffffffffffffffffffffffffffffffff021916908373ffffffffffffffffffffffffffffffffffffffff16021790555060408201518160000160156101000a81548160ff02191690831515021790555050507fcc66c27f993ef125e1b985d84a52726edc66dcc64e94d172f80253e37d52637233838360ff16600181111561114957611148612037565b5b604051611158939291906127ae565b60405180910390a1505050565b61116d611981565b73ffffffffffffffffffffffffffffffffffffffff1661118b6114b5565b73ffffffffffffffffffffffffffffffffffffffff16146111e1576040517f08c379a00000000000000000000000000000000000000000000000000000000081526004016111d890612831565b60405180910390fd5b6111eb6000611989565b565b6000600360008473ffffffffffffffffffffffffffffffffffffffff1673ffffffffffffffffffffffffffffffffffffffff168152602001908152602001600020600083815260200190815260200160002060070160019054906101000a900460ff1661128f576040517f08c379a000000000000000000000000000000000000000000000000000000000815260040161128690612192565b60405180910390fd5b600360008473ffffffffffffffffffffffffffffffffffffffff1673ffffffffffffffffffffffffffffffffffffffff168152602001908152602001600020600083815260200190815260200160002060040160009054906101000a900460ff16156112fe57600190506114af565b6000600360008573ffffffffffffffffffffffffffffffffffffffff1673ffffffffffffffffffffffffffffffffffffffff1681526020019081526020016000206000848152602001908152602001600020600101544261135f9190612851565b90506000600181111561137557611374612037565b5b600360008673ffffffffffffffffffffffffffffffffffffffff1673ffffffffffffffffffffffffffffffffffffffff168152602001908152602001600020600085815260200190815260200160002060070160009054906101000a900460ff1660018111156113e8576113e7612037565b5b1480156113f65750610e1081115b156114055760019150506114af565b60018081111561141857611417612037565b5b600360008673ffffffffffffffffffffffffffffffffffffffff1673ffffffffffffffffffffffffffffffffffffffff168152602001908152602001600020600085815260200190815260200160002060070160009054906101000a900460ff16600181111561148b5761148a612037565b5b14801561149a57506201518081115b156114a95760019150506114af565b60009150505b92915050565b60008060009054906101000a900473ffffffffffffffffffffffffffffffffffffffff16905090565b60046020528060005260406000206000915090508060000160009054906101000a900473ffffffffffffffffffffffffffffffffffffffff16908060010154908060040160009054906101000a900460ff16905083565b6003602052816000526040600020602052806000526040600020600091509150508060000160009054906101000a900473ffffffffffffffffffffffffffffffffffffffff1690806001015490806002018054611591906128b4565b80601f01602080910402602001604051908101604052809291908181526020018280546115bd906128b4565b801561160a5780601f106115df5761010080835404028352916020019161160a565b820191906000526020600020905b8154815290600101906020018083116115ed57829003601f168201915b50505050509080600301805461161f906128b4565b80601f016020809104026020016040519081016040528092919081815260200182805461164b906128b4565b80156116985780601f1061166d57610100808354040283529160200191611698565b820191906000526020600020905b81548152906001019060200180831161167b57829003601f168201915b5050505050908060040160009054906101000a900460ff16908060070160009054906101000a900460ff16908060070160019054906101000a900460ff16905087565b60025481565b6116e9611981565b73ffffffffffffffffffffffffffffffffffffffff166117076114b5565b73ffffffffffffffffffffffffffffffffffffffff161461175d576040517f08c379a000000000000000000000000000000000000000000000000000000000815260040161175490612831565b60405180910390fd5b600073ffffffffffffffffffffffffffffffffffffffff168173ffffffffffffffffffffffffffffffffffffffff1614156117cd576040517f08c379a00000000000000000000000000000000000000000000000000000000081526004016117c490612958565b60405180910390fd5b6117d681611989565b50565b8160011515600560008373ffffffffffffffffffffffffffffffffffffffff1673ffffffffffffffffffffffffffffffffffffffff16815260200190815260200160002060003373ffffffffffffffffffffffffffffffffffffffff1673ffffffffffffffffffffffffffffffffffffffff16815260200190815260200160002060009054906101000a900460ff16151514806118a857506118796114b5565b73ffffffffffffffffffffffffffffffffffffffff163373ffffffffffffffffffffffffffffffffffffffff16145b6118e7576040517f08c379a00000000000000000000000000000000000000000000000000000000081526004016118de906121fe565b60405180910390fd5b6000600560008573ffffffffffffffffffffffffffffffffffffffff1673ffffffffffffffffffffffffffffffffffffffff16815260200190815260200160002060008473ffffffffffffffffffffffffffffffffffffffff1673ffffffffffffffffffffffffffffffffffffffff16815260200190815260200160002060006101000a81548160ff021916908315150217905550505050565b600033905090565b60008060009054906101000a900473ffffffffffffffffffffffffffffffffffffffff169050816000806101000a81548173ffffffffffffffffffffffffffffffffffffffff021916908373ffffffffffffffffffffffffffffffffffffffff1602179055508173ffffffffffffffffffffffffffffffffffffffff168173ffffffffffffffffffffffffffffffffffffffff167f8be0079c531659141344cd1fd0a4f28419497f9722a3daafe3b4186f6b6457e060405160405180910390a35050565b828054611a59906128b4565b90600052602060002090601f016020900481019282611a7b5760008555611ac2565b82601f10611a9457805160ff1916838001178555611ac2565b82800160010185558215611ac2579182015b82811115611ac1578251825591602001919060010190611aa6565b5b509050611acf9190611ad3565b5090565b5b80821115611aec576000816000905550600101611ad4565b5090565b6000604051905090565b600080fd5b600080fd5b600073ffffffffffffffffffffffffffffffffffffffff82169050919050565b6000611b2f82611b04565b9050919050565b611b3f81611b24565b8114611b4a57600080fd5b50565b600081359050611b5c81611b36565b92915050565b6000819050919050565b611b7581611b62565b8114611b8057600080fd5b50565b600081359050611b9281611b6c565b92915050565b600080600060608486031215611bb157611bb0611afa565b5b6000611bbf86828701611b4d565b9350506020611bd086828701611b83565b9250506040611be186828701611b4d565b9150509250925092565b60008115159050919050565b611c0081611beb565b82525050565b6000602082019050611c1b6000830184611bf7565b92915050565b60008060408385031215611c3857611c37611afa565b5b6000611c4685828601611b4d565b9250506020611c5785828601611b4d565b9150509250929050565b600080fd5b600080fd5b6000601f19601f8301169050919050565b7f4e487b7100000000000000000000000000000000000000000000000000000000600052604160045260246000fd5b611cb482611c6b565b810181811067ffffffffffffffff82111715611cd357611cd2611c7c565b5b80604052505050565b6000611ce6611af0565b9050611cf28282611cab565b919050565b600067ffffffffffffffff821115611d1257611d11611c7c565b5b611d1b82611c6b565b9050602081019050919050565b82818337600083830152505050565b6000611d4a611d4584611cf7565b611cdc565b905082815260208101848484011115611d6657611d65611c66565b5b611d71848285611d28565b509392505050565b600082601f830112611d8e57611d8d611c61565b5b8135611d9e848260208601611d37565b91505092915050565b600060ff82169050919050565b611dbd81611da7565b8114611dc857600080fd5b50565b600081359050611dda81611db4565b92915050565b60008060008060808587031215611dfa57611df9611afa565b5b6000611e0887828801611b4d565b945050602085013567ffffffffffffffff811115611e2957611e28611aff565b5b611e3587828801611d79565b935050604085013567ffffffffffffffff811115611e5657611e55611aff565b5b611e6287828801611d79565b9250506060611e7387828801611dcb565b91505092959194509250565b600080600060608486031215611e9857611e97611afa565b5b6000611ea686828701611b4d565b9350506020611eb786828701611b83565b9250506040611ec886828701611dcb565b9150509250925092565b60008060408385031215611ee957611ee8611afa565b5b6000611ef785828601611b4d565b9250506020611f0885828601611b83565b9150509250929050565b611f1b81611b24565b82525050565b6000602082019050611f366000830184611f12565b92915050565b600060208284031215611f5257611f51611afa565b5b6000611f6084828501611b4d565b91505092915050565b611f7281611b62565b82525050565b6000606082019050611f8d6000830186611f12565b611f9a6020830185611f69565b611fa76040830184611bf7565b949350505050565b600081519050919050565b600082825260208201905092915050565b60005b83811015611fe9578082015181840152602081019050611fce565b83811115611ff8576000848401525b50505050565b600061200982611faf565b6120138185611fba565b9350612023818560208601611fcb565b61202c81611c6b565b840191505092915050565b7f4e487b7100000000000000000000000000000000000000000000000000000000600052602160045260246000fd5b6002811061207757612076612037565b5b50565b600081905061208882612066565b919050565b60006120988261207a565b9050919050565b6120a88161208d565b82525050565b600060e0820190506120c3600083018a611f12565b6120d06020830189611f69565b81810360408301526120e28188611ffe565b905081810360608301526120f68187611ffe565b90506121056080830186611bf7565b61211260a083018561209f565b61211f60c0830184611bf7565b98975050505050505050565b60006020820190506121406000830184611f69565b92915050565b7f566f74652073657373696f6e206e6f7420666f756e6400000000000000000000600082015250565b600061217c601683611fba565b915061218782612146565b602082019050919050565b600060208201905081810360008301526121ab8161216f565b9050919050565b7f4e6f7420617574686f72697a6564204242420000000000000000000000000000600082015250565b60006121e8601283611fba565b91506121f3826121b2565b602082019050919050565b60006020820190508181036000830152612217816121db565b9050919050565b7f44616f20616c7265616479206164646564000000000000000000000000000000600082015250565b6000612254601183611fba565b915061225f8261221e565b602082019050919050565b6000602082019050818103600083015261228381612247565b9050919050565b7f4d656d6265724d6f64756c650000000000000000000000000000000000000000600082015250565b60006122c0600c83611fba565b91506122cb8261228a565b602082019050919050565b600060208201905081810360008301526122ef816122b3565b9050919050565b60007fffffffffffffffff00000000000000000000000000000000000000000000000082169050919050565b61232b816122f6565b82525050565b60006020820190506123466000830184612322565b92915050565b600080fd5b600080fd5b60008151905061236581611b6c565b92915050565b60008151905061237a81611b36565b92915050565b61238981611beb565b811461239457600080fd5b50565b6000815190506123a681612380565b92915050565b6123b5816122f6565b81146123c057600080fd5b50565b6000815190506123d2816123ac565b92915050565b60006123eb6123e684611cf7565b611cdc565b90508281526020810184848401111561240757612406611c66565b5b612412848285611fcb565b509392505050565b600082601f83011261242f5761242e611c61565b5b815161243f8482602086016123d8565b91505092915050565b600060c0828403121561245e5761245d61234c565b5b61246860c0611cdc565b9050600061247884828501612356565b600083015250602061248c8482850161236b565b60208301525060406124a084828501612397565b60408301525060606124b4848285016123c3565b60608301525060806124c8848285016123c3565b60808301525060a082015167ffffffffffffffff8111156124ec576124eb612351565b5b6124f88482850161241a565b60a08301525092915050565b60006020828403121561251a57612519611afa565b5b600082015167ffffffffffffffff81111561253857612537611aff565b5b61254484828501612448565b91505092915050565b7f4e487b7100000000000000000000000000000000000000000000000000000000600052601160045260246000fd5b600061258782611b62565b91507fffffffffffffffffffffffffffffffffffffffffffffffffffffffffffffffff8214156125ba576125b961254d565b5b600182019050919050565b60006040820190506125da6000830185611f12565b81810360208301526125ec8184611ffe565b90509392505050565b7f566f74652073657373696f6e207465726d696e61746564000000000000000000600082015250565b600061262b601783611fba565b9150612636826125f5565b602082019050919050565b6000602082019050818103600083015261265a8161261e565b9050919050565b7f416c726561647920766f74656400000000000000000000000000000000000000600082015250565b6000612697600d83611fba565b91506126a282612661565b602082019050919050565b600060208201905081810360008301526126c68161268a565b9050919050565b6000602082840312156126e3576126e2611afa565b5b60006126f184828501612397565b91505092915050565b7f4e6f742044414f206d656d626572000000000000000000000000000000000000600082015250565b6000612730600e83611fba565b915061273b826126fa565b602082019050919050565b6000602082019050818103600083015261275f81612723565b9050919050565b6002811061277757612776612037565b5b50565b600081905061278882612766565b919050565b60006127988261277a565b9050919050565b6127a88161278d565b82525050565b60006060820190506127c36000830186611f12565b6127d06020830185611f69565b6127dd604083018461279f565b949350505050565b7f4f776e61626c653a2063616c6c6572206973206e6f7420746865206f776e6572600082015250565b600061281b602083611fba565b9150612826826127e5565b602082019050919050565b6000602082019050818103600083015261284a8161280e565b9050919050565b600061285c82611b62565b915061286783611b62565b92508282101561287a5761287961254d565b5b828203905092915050565b7f4e487b7100000000000000000000000000000000000000000000000000000000600052602260045260246000fd5b600060028204905060018216806128cc57607f821691505b602082108114156128e0576128df612885565b5b50919050565b7f4f776e61626c653a206e6577206f776e657220697320746865207a65726f206160008201527f6464726573730000000000000000000000000000000000000000000000000000602082015250565b6000612942602683611fba565b915061294d826128e6565b604082019050919050565b6000602082019050818103600083015261297181612935565b905091905056fea26469706673582212202107b60a06088f3103dc15ddce72837b4a4e9e7480dcde95877bf83f28cf2ecd64736f6c63430008090033",
  "immutableReferences": {},
  "source": "// SPDX-License-Identifier: MIT\r\npragma solidity ^0.8.9;\r\n\r\nimport \"@openzeppelin/contracts/utils/math/SafeMath.sol\";\r\nimport \"@openzeppelin/contracts/access/Ownable.sol\";\r\nimport \"../../Data.sol\";\r\nimport \"../Interfaces/IMembersDAO.sol\";\r\nimport \"../../DaoBase.sol\";\r\n\r\n//is DaosFactory\r\ncontract VotingYesNoModule is Ownable {\r\n    using SafeMath for uint256;\r\n    //DaoBase private dao;\r\n    IMembersDao private membersDao;\r\n    uint256 public voteSessionsCount;\r\n    mapping(address => mapping(uint256 => voteSession)) public voteSessions;\r\n    mapping(address => Data.DaoMember) public daos;\r\n    mapping(address => mapping(address => bool)) private authorizedContracts;\r\n    address private memberModuleAddress;\r\n\r\n    struct voteSession {\r\n        address creatorAddress;\r\n        uint256 creationTime;\r\n        string name;\r\n        string description;\r\n        bool isTerminated;\r\n        mapping(address => voteResult) votes;\r\n        voteResult[] voteResults;\r\n        durationEnum duration;\r\n        bool isCreated;\r\n    }\r\n\r\n    struct voteResult {\r\n        responseEnum response;\r\n        address voter;\r\n        bool voted;\r\n    }\r\n\r\n    struct voteResponseResult {\r\n        responseEnum response;\r\n        uint256 voteNumbers;\r\n    } \r\n\r\n    enum responseEnum {\r\n        yes,\r\n        no\r\n    }\r\n\r\n    enum durationEnum {\r\n        oneHour,\r\n        oneDay\r\n    }\r\n\r\n    event VoteSessionCreated(address creatorAddress, string name);\r\n    event Voted(address voterAddress, uint256 voteSessionId, responseEnum response);\r\n\r\n    constructor(address _contractFactory) {\r\n        _transferOwnership(_contractFactory);\r\n    }\r\n\r\n    modifier onlyAuthorizeContracts(address _contractDao) {\r\n        require(authorizedContracts[_contractDao][msg.sender] == true, \"Not authorized BB\");\r\n        _;\r\n    }\r\n    modifier onlyAuthorizeContractsOrOwner(address _contractDao) {\r\n        require(authorizedContracts[_contractDao][msg.sender] == true || msg.sender == owner(), \"Not authorized BBB\");\r\n        _;\r\n    }\r\n\r\n    function createVote(address _contractDao, string memory name, string memory description, uint8 duration) public {\r\n        ++voteSessionsCount;\r\n        voteSessions[_contractDao][voteSessionsCount].isTerminated = false;\r\n        voteSessions[_contractDao][voteSessionsCount].name = name;\r\n        voteSessions[_contractDao][voteSessionsCount].description = description;\r\n        voteSessions[_contractDao][voteSessionsCount].creatorAddress = msg.sender;\r\n        voteSessions[_contractDao][voteSessionsCount].duration = durationEnum(duration);\r\n        \r\n        emit VoteSessionCreated(msg.sender, name);\r\n    }\r\n\r\n    function vote(address _contractDao, uint256 voteSessionId, uint8 response) public {\r\n        require(voteSessions[_contractDao][voteSessionId].isCreated, \"Vote session not found\");\r\n        require(isVoteSessionDurationExpired(_contractDao, voteSessionId), \"Vote session terminated\");\r\n        require(hasVoted(_contractDao, voteSessionId, msg.sender), \"Already voted\");\r\n        require(IMembersDao(memberModuleAddress).isActiveMember(msg.sender), \"Not DAO member\");\r\n\r\n        voteSessions[_contractDao][voteSessionsCount].votes[msg.sender].response = responseEnum(response);\r\n        voteSessions[_contractDao][voteSessionsCount].votes[msg.sender].voted = true;\r\n        voteSessions[_contractDao][voteSessionsCount].voteResults.push(voteResult(responseEnum(response), msg.sender, true));\r\n        \r\n        emit Voted(msg.sender, voteSessionId, responseEnum(response));\r\n    }\r\n\r\n    function isVoteSessionDurationExpired(address _contractDao, uint256 voteSessionId) public view returns (bool) {\r\n        require(voteSessions[_contractDao][voteSessionId].isCreated, \"Vote session not found\");\r\n\r\n        if(voteSessions[_contractDao][voteSessionId].isTerminated)\r\n            return true;\r\n\r\n        uint256 deltaTimestamp = block.timestamp - voteSessions[_contractDao][voteSessionId].creationTime;\r\n        if(voteSessions[_contractDao][voteSessionId].duration == durationEnum.oneHour && deltaTimestamp > 1 hours)\r\n            return true;\r\n        if(voteSessions[_contractDao][voteSessionId].duration == durationEnum.oneDay && deltaTimestamp > 1 days)\r\n            return true;\r\n\r\n        return false;\r\n    }    \r\n\r\n    function hasVoted(address _contractDao, uint256 voteSessionId, address voter) public view returns (bool) {\r\n        require(voteSessions[_contractDao][voteSessionId].isCreated, \"Vote session not found\");\r\n\r\n        return voteSessions[_contractDao][voteSessionId].votes[voter].voted;\r\n    }     \r\n\r\n    function addDao(address _contractDao, address _memberDao) external onlyAuthorizeContractsOrOwner(_contractDao) {\r\n        require(!daos[_contractDao].isActive, \"Dao already added\");\r\n        daos[_contractDao].isActive = true;\r\n        daos[_contractDao].addressDao = _contractDao;\r\n        memberModuleAddress = DaoBase(_contractDao).getModuleData(bytes8(keccak256(abi.encode(\"MemberModule\")))).moduleAddress;\r\n    }\r\n\r\n    function authorizeContract(address _contractDao, address _contractAddress) external onlyAuthorizeContractsOrOwner(_contractDao) {\r\n        authorizedContracts[_contractDao][_contractAddress] = true;\r\n    }\r\n\r\n    function denyContract(address _contractDao, address _contractAddress) external onlyAuthorizeContractsOrOwner(_contractDao) {\r\n        authorizedContracts[_contractDao][_contractAddress] = false;\r\n    }\r\n}",
  "sourcePath": "C:\\Users\\mdmou\\source\\repos\\MY-DAO\\contracts\\Modules\\Implementations\\VotingYesNoModule.sol",
  "compiler": {
    "name": "solc",
    "version": "0.8.9+commit.e5eed63a.Emscripten.clang"
  },
  "schemaVersion": "3.4.4",
  "updatedAt": "2022-05-16T22:35:48.422Z",
  "networkType": "ethereum",
  "devdoc": {
    "kind": "dev",
    "methods": {
      "owner()": {
        "details": "Returns the address of the current owner."
      },
      "renounceOwnership()": {
        "details": "Leaves the contract without owner. It will not be possible to call `onlyOwner` functions anymore. Can only be called by the current owner. NOTE: Renouncing ownership will leave the contract without an owner, thereby removing any functionality that is only available to the owner."
      },
      "transferOwnership(address)": {
        "details": "Transfers ownership of the contract to a new account (`newOwner`). Can only be called by the current owner."
      }
    },
    "version": 1
  },
  "userdoc": {
    "kind": "user",
    "methods": {},
    "version": 1
  }
}