{
  "contractName": "VotingYesNo",
  "abi": [
    {
      "inputs": [
        {
          "internalType": "address",
          "name": "daoAddress",
          "type": "address"
        },
        {
          "internalType": "address",
          "name": "membersDaoAddress",
          "type": "address"
        }
      ],
      "stateMutability": "nonpayable",
      "type": "constructor"
    },
    {
      "anonymous": false,
      "inputs": [
        {
          "indexed": true,
          "internalType": "address",
          "name": "previousOwner",
          "type": "address"
        },
        {
          "indexed": true,
          "internalType": "address",
          "name": "newOwner",
          "type": "address"
        }
      ],
      "name": "OwnershipTransferred",
      "type": "event"
    },
    {
      "anonymous": false,
      "inputs": [
        {
          "indexed": false,
          "internalType": "address",
          "name": "creatorAddress",
          "type": "address"
        },
        {
          "indexed": false,
          "internalType": "string",
          "name": "name",
          "type": "string"
        }
      ],
      "name": "VoteSessionCreated",
      "type": "event"
    },
    {
      "anonymous": false,
      "inputs": [
        {
          "indexed": false,
          "internalType": "address",
          "name": "voterAddress",
          "type": "address"
        },
        {
          "indexed": false,
          "internalType": "uint256",
          "name": "voteSessionId",
          "type": "uint256"
        },
        {
          "indexed": false,
          "internalType": "enum VotingYesNo.responseEnum",
          "name": "response",
          "type": "uint8"
        }
      ],
      "name": "Voted",
      "type": "event"
    },
    {
      "inputs": [],
      "name": "owner",
      "outputs": [
        {
          "internalType": "address",
          "name": "",
          "type": "address"
        }
      ],
      "stateMutability": "view",
      "type": "function"
    },
    {
      "inputs": [],
      "name": "renounceOwnership",
      "outputs": [],
      "stateMutability": "nonpayable",
      "type": "function"
    },
    {
      "inputs": [
        {
          "internalType": "address",
          "name": "newOwner",
          "type": "address"
        }
      ],
      "name": "transferOwnership",
      "outputs": [],
      "stateMutability": "nonpayable",
      "type": "function"
    },
    {
      "inputs": [
        {
          "internalType": "uint256",
          "name": "",
          "type": "uint256"
        }
      ],
      "name": "voteSessions",
      "outputs": [
        {
          "internalType": "address",
          "name": "creatorAddress",
          "type": "address"
        },
        {
          "internalType": "uint256",
          "name": "creationTime",
          "type": "uint256"
        },
        {
          "internalType": "string",
          "name": "name",
          "type": "string"
        },
        {
          "internalType": "string",
          "name": "description",
          "type": "string"
        },
        {
          "internalType": "bool",
          "name": "isTerminated",
          "type": "bool"
        },
        {
          "internalType": "enum VotingYesNo.durationEnum",
          "name": "duration",
          "type": "uint8"
        },
        {
          "internalType": "bool",
          "name": "isCreated",
          "type": "bool"
        }
      ],
      "stateMutability": "view",
      "type": "function"
    },
    {
      "inputs": [],
      "name": "voteSessionsCount",
      "outputs": [
        {
          "internalType": "uint256",
          "name": "",
          "type": "uint256"
        }
      ],
      "stateMutability": "view",
      "type": "function"
    },
    {
      "inputs": [
        {
          "internalType": "string",
          "name": "name",
          "type": "string"
        },
        {
          "internalType": "string",
          "name": "description",
          "type": "string"
        },
        {
          "internalType": "uint8",
          "name": "duration",
          "type": "uint8"
        }
      ],
      "name": "createVote",
      "outputs": [],
      "stateMutability": "nonpayable",
      "type": "function"
    },
    {
      "inputs": [
        {
          "internalType": "uint256",
          "name": "voteSessionId",
          "type": "uint256"
        },
        {
          "internalType": "uint8",
          "name": "response",
          "type": "uint8"
        }
      ],
      "name": "vote",
      "outputs": [],
      "stateMutability": "nonpayable",
      "type": "function"
    },
    {
      "inputs": [
        {
          "internalType": "uint256",
          "name": "voteSessionId",
          "type": "uint256"
        }
      ],
      "name": "isVoteSessionDurationExpired",
      "outputs": [
        {
          "internalType": "bool",
          "name": "",
          "type": "bool"
        }
      ],
      "stateMutability": "view",
      "type": "function"
    },
    {
      "inputs": [
        {
          "internalType": "uint256",
          "name": "voteSessionId",
          "type": "uint256"
        },
        {
          "internalType": "address",
          "name": "voter",
          "type": "address"
        }
      ],
      "name": "hasVoted",
      "outputs": [
        {
          "internalType": "bool",
          "name": "",
          "type": "bool"
        }
      ],
      "stateMutability": "view",
      "type": "function"
    }
  ],
  "bytecode": "0x60806040523480156200001157600080fd5b5060405162001c1e38038062001c1e833981810160405281019062000037919062000229565b6200006962000054620000f3640100000000026401000000009004565b620000fb640100000000026401000000009004565b81600160006101000a81548173ffffffffffffffffffffffffffffffffffffffff021916908373ffffffffffffffffffffffffffffffffffffffff16021790555080600260006101000a81548173ffffffffffffffffffffffffffffffffffffffff021916908373ffffffffffffffffffffffffffffffffffffffff160217905550505062000270565b600033905090565b60008060009054906101000a900473ffffffffffffffffffffffffffffffffffffffff169050816000806101000a81548173ffffffffffffffffffffffffffffffffffffffff021916908373ffffffffffffffffffffffffffffffffffffffff1602179055508173ffffffffffffffffffffffffffffffffffffffff168173ffffffffffffffffffffffffffffffffffffffff167f8be0079c531659141344cd1fd0a4f28419497f9722a3daafe3b4186f6b6457e060405160405180910390a35050565b600080fd5b600073ffffffffffffffffffffffffffffffffffffffff82169050919050565b6000620001f182620001c4565b9050919050565b6200020381620001e4565b81146200020f57600080fd5b50565b6000815190506200022381620001f8565b92915050565b60008060408385031215620002435762000242620001bf565b5b6000620002538582860162000212565b9250506020620002668582860162000212565b9150509250929050565b61199e80620002806000396000f3fe608060405234801561001057600080fd5b50600436106100b0576000357c010000000000000000000000000000000000000000000000000000000090048063715018a611610083578063715018a6146101675780638da5cb5b14610171578063943e82161461018f578063ebd0e27a146101ab578063f2fde38b146101c9576100b0565b806306caebb6146100b557806343859632146100eb578063450e640c1461011b578063700e6cce14610137575b600080fd5b6100cf60048036038101906100ca9190610f5d565b6101e5565b6040516100e29796959493929190611105565b60405180910390f35b610105600480360381019061010091906111ae565b61037e565b60405161011291906111ee565b60405180910390f35b61013560048036038101906101309190611377565b61044f565b005b610151600480360381019061014c9190610f5d565b6105da565b60405161015e91906111ee565b60405180910390f35b61016f610770565b005b6101796107f8565b6040516101869190611402565b60405180910390f35b6101a960048036038101906101a4919061141d565b610821565b005b6101b3610ca6565b6040516101c0919061145d565b60405180910390f35b6101e360048036038101906101de9190611478565b610cac565b005b60046020528060005260406000206000915090508060000160009054906101000a900473ffffffffffffffffffffffffffffffffffffffff1690806001015490806002018054610234906114d4565b80601f0160208091040260200160405190810160405280929190818152602001828054610260906114d4565b80156102ad5780601f10610282576101008083540402835291602001916102ad565b820191906000526020600020905b81548152906001019060200180831161029057829003601f168201915b5050505050908060030180546102c2906114d4565b80601f01602080910402602001604051908101604052809291908181526020018280546102ee906114d4565b801561033b5780601f106103105761010080835404028352916020019161033b565b820191906000526020600020905b81548152906001019060200180831161031e57829003601f168201915b5050505050908060040160009054906101000a900460ff16908060070160009054906101000a900460ff16908060070160019054906101000a900460ff16905087565b60006004600084815260200190815260200160002060070160019054906101000a900460ff166103e3576040517f08c379a00000000000000000000000000000000000000000000000000000000081526004016103da90611552565b60405180910390fd5b6004600084815260200190815260200160002060050160008373ffffffffffffffffffffffffffffffffffffffff1673ffffffffffffffffffffffffffffffffffffffff16815260200190815260200160002060000160159054906101000a900460ff16905092915050565b60036000815461045e906115a1565b91905081905550600060046000600354815260200190815260200160002060040160006101000a81548160ff0219169083151502179055508260046000600354815260200190815260200160002060020190805190602001906104c2929190610e70565b508160046000600354815260200190815260200160002060030190805190602001906104ef929190610e70565b503360046000600354815260200190815260200160002060000160006101000a81548173ffffffffffffffffffffffffffffffffffffffff021916908373ffffffffffffffffffffffffffffffffffffffff1602179055508060ff16600181111561055d5761055c61108e565b5b60046000600354815260200190815260200160002060070160006101000a81548160ff021916908360018111156105975761059661108e565b5b02179055507fcd6cc57f1b7b27f4de7516169856aba6cdae3616948048548d9e3893565c616033846040516105cd9291906115ea565b60405180910390a1505050565b60006004600083815260200190815260200160002060070160019054906101000a900460ff1661063f576040517f08c379a000000000000000000000000000000000000000000000000000000000815260040161063690611552565b60405180910390fd5b6004600083815260200190815260200160002060040160009054906101000a900460ff1615610671576001905061076b565b6000600460008481526020019081526020016000206001015442610695919061161a565b9050600060018111156106ab576106aa61108e565b5b6004600085815260200190815260200160002060070160009054906101000a900460ff1660018111156106e1576106e061108e565b5b1480156106ef5750610e1081115b156106fe57600191505061076b565b6001808111156107115761071061108e565b5b6004600085815260200190815260200160002060070160009054906101000a900460ff1660018111156107475761074661108e565b5b14801561075657506201518081115b1561076557600191505061076b565b60009150505b919050565b610778610da4565b73ffffffffffffffffffffffffffffffffffffffff166107966107f8565b73ffffffffffffffffffffffffffffffffffffffff16146107ec576040517f08c379a00000000000000000000000000000000000000000000000000000000081526004016107e39061169a565b60405180910390fd5b6107f66000610dac565b565b60008060009054906101000a900473ffffffffffffffffffffffffffffffffffffffff16905090565b6004600083815260200190815260200160002060070160019054906101000a900460ff16610884576040517f08c379a000000000000000000000000000000000000000000000000000000000815260040161087b90611552565b60405180910390fd5b61088d826105da565b6108cc576040517f08c379a00000000000000000000000000000000000000000000000000000000081526004016108c390611706565b60405180910390fd5b6108d6823361037e565b610915576040517f08c379a000000000000000000000000000000000000000000000000000000000815260040161090c90611772565b60405180910390fd5b600260009054906101000a900473ffffffffffffffffffffffffffffffffffffffff1673ffffffffffffffffffffffffffffffffffffffff166345ecd02f336040518263ffffffff167c010000000000000000000000000000000000000000000000000000000002815260040161098c9190611402565b60206040518083038186803b1580156109a457600080fd5b505afa1580156109b8573d6000803e3d6000fd5b505050506040513d601f19601f820116820180604052508101906109dc91906117be565b610a1b576040517f08c379a0000000000000000000000000000000000000000000000000000000008152600401610a1290611837565b60405180910390fd5b8060ff166001811115610a3157610a3061108e565b5b60046000600354815260200190815260200160002060050160003373ffffffffffffffffffffffffffffffffffffffff1673ffffffffffffffffffffffffffffffffffffffff16815260200190815260200160002060000160006101000a81548160ff02191690836001811115610aab57610aaa61108e565b5b0217905550600160046000600354815260200190815260200160002060050160003373ffffffffffffffffffffffffffffffffffffffff1673ffffffffffffffffffffffffffffffffffffffff16815260200190815260200160002060000160156101000a81548160ff02191690831515021790555060046000600354815260200190815260200160002060060160405180606001604052808360ff166001811115610b5a57610b5961108e565b5b6001811115610b6c57610b6b61108e565b5b81526020013373ffffffffffffffffffffffffffffffffffffffff168152602001600115158152509080600181540180825580915050600190039060005260206000200160009091909190915060008201518160000160006101000a81548160ff02191690836001811115610be457610be361108e565b5b021790555060208201518160000160016101000a81548173ffffffffffffffffffffffffffffffffffffffff021916908373ffffffffffffffffffffffffffffffffffffffff16021790555060408201518160000160156101000a81548160ff02191690831515021790555050507fcc66c27f993ef125e1b985d84a52726edc66dcc64e94d172f80253e37d52637233838360ff166001811115610c8b57610c8a61108e565b5b604051610c9a9392919061189f565b60405180910390a15050565b60035481565b610cb4610da4565b73ffffffffffffffffffffffffffffffffffffffff16610cd26107f8565b73ffffffffffffffffffffffffffffffffffffffff1614610d28576040517f08c379a0000000000000000000000000000000000000000000000000000000008152600401610d1f9061169a565b60405180910390fd5b600073ffffffffffffffffffffffffffffffffffffffff168173ffffffffffffffffffffffffffffffffffffffff161415610d98576040517f08c379a0000000000000000000000000000000000000000000000000000000008152600401610d8f90611948565b60405180910390fd5b610da181610dac565b50565b600033905090565b60008060009054906101000a900473ffffffffffffffffffffffffffffffffffffffff169050816000806101000a81548173ffffffffffffffffffffffffffffffffffffffff021916908373ffffffffffffffffffffffffffffffffffffffff1602179055508173ffffffffffffffffffffffffffffffffffffffff168173ffffffffffffffffffffffffffffffffffffffff167f8be0079c531659141344cd1fd0a4f28419497f9722a3daafe3b4186f6b6457e060405160405180910390a35050565b828054610e7c906114d4565b90600052602060002090601f016020900481019282610e9e5760008555610ee5565b82601f10610eb757805160ff1916838001178555610ee5565b82800160010185558215610ee5579182015b82811115610ee4578251825591602001919060010190610ec9565b5b509050610ef29190610ef6565b5090565b5b80821115610f0f576000816000905550600101610ef7565b5090565b6000604051905090565b600080fd5b600080fd5b6000819050919050565b610f3a81610f27565b8114610f4557600080fd5b50565b600081359050610f5781610f31565b92915050565b600060208284031215610f7357610f72610f1d565b5b6000610f8184828501610f48565b91505092915050565b600073ffffffffffffffffffffffffffffffffffffffff82169050919050565b6000610fb582610f8a565b9050919050565b610fc581610faa565b82525050565b610fd481610f27565b82525050565b600081519050919050565b600082825260208201905092915050565b60005b83811015611014578082015181840152602081019050610ff9565b83811115611023576000848401525b50505050565b6000601f19601f8301169050919050565b600061104582610fda565b61104f8185610fe5565b935061105f818560208601610ff6565b61106881611029565b840191505092915050565b60008115159050919050565b61108881611073565b82525050565b7f4e487b7100000000000000000000000000000000000000000000000000000000600052602160045260246000fd5b600281106110ce576110cd61108e565b5b50565b60008190506110df826110bd565b919050565b60006110ef826110d1565b9050919050565b6110ff816110e4565b82525050565b600060e08201905061111a600083018a610fbc565b6111276020830189610fcb565b8181036040830152611139818861103a565b9050818103606083015261114d818761103a565b905061115c608083018661107f565b61116960a08301856110f6565b61117660c083018461107f565b98975050505050505050565b61118b81610faa565b811461119657600080fd5b50565b6000813590506111a881611182565b92915050565b600080604083850312156111c5576111c4610f1d565b5b60006111d385828601610f48565b92505060206111e485828601611199565b9150509250929050565b6000602082019050611203600083018461107f565b92915050565b600080fd5b600080fd5b7f4e487b7100000000000000000000000000000000000000000000000000000000600052604160045260246000fd5b61124b82611029565b810181811067ffffffffffffffff8211171561126a57611269611213565b5b80604052505050565b600061127d610f13565b90506112898282611242565b919050565b600067ffffffffffffffff8211156112a9576112a8611213565b5b6112b282611029565b9050602081019050919050565b82818337600083830152505050565b60006112e16112dc8461128e565b611273565b9050828152602081018484840111156112fd576112fc61120e565b5b6113088482856112bf565b509392505050565b600082601f83011261132557611324611209565b5b81356113358482602086016112ce565b91505092915050565b600060ff82169050919050565b6113548161133e565b811461135f57600080fd5b50565b6000813590506113718161134b565b92915050565b6000806000606084860312156113905761138f610f1d565b5b600084013567ffffffffffffffff8111156113ae576113ad610f22565b5b6113ba86828701611310565b935050602084013567ffffffffffffffff8111156113db576113da610f22565b5b6113e786828701611310565b92505060406113f886828701611362565b9150509250925092565b60006020820190506114176000830184610fbc565b92915050565b6000806040838503121561143457611433610f1d565b5b600061144285828601610f48565b925050602061145385828601611362565b9150509250929050565b60006020820190506114726000830184610fcb565b92915050565b60006020828403121561148e5761148d610f1d565b5b600061149c84828501611199565b91505092915050565b7f4e487b7100000000000000000000000000000000000000000000000000000000600052602260045260246000fd5b600060028204905060018216806114ec57607f821691505b60208210811415611500576114ff6114a5565b5b50919050565b7f566f74652073657373696f6e206e6f7420666f756e6400000000000000000000600082015250565b600061153c601683610fe5565b915061154782611506565b602082019050919050565b6000602082019050818103600083015261156b8161152f565b9050919050565b7f4e487b7100000000000000000000000000000000000000000000000000000000600052601160045260246000fd5b60006115ac82610f27565b91507fffffffffffffffffffffffffffffffffffffffffffffffffffffffffffffffff8214156115df576115de611572565b5b600182019050919050565b60006040820190506115ff6000830185610fbc565b8181036020830152611611818461103a565b90509392505050565b600061162582610f27565b915061163083610f27565b92508282101561164357611642611572565b5b828203905092915050565b7f4f776e61626c653a2063616c6c6572206973206e6f7420746865206f776e6572600082015250565b6000611684602083610fe5565b915061168f8261164e565b602082019050919050565b600060208201905081810360008301526116b381611677565b9050919050565b7f566f74652073657373696f6e207465726d696e61746564000000000000000000600082015250565b60006116f0601783610fe5565b91506116fb826116ba565b602082019050919050565b6000602082019050818103600083015261171f816116e3565b9050919050565b7f416c726561647920766f74656400000000000000000000000000000000000000600082015250565b600061175c600d83610fe5565b915061176782611726565b602082019050919050565b6000602082019050818103600083015261178b8161174f565b9050919050565b61179b81611073565b81146117a657600080fd5b50565b6000815190506117b881611792565b92915050565b6000602082840312156117d4576117d3610f1d565b5b60006117e2848285016117a9565b91505092915050565b7f4e6f742044414f206d656d626572000000000000000000000000000000000000600082015250565b6000611821600e83610fe5565b915061182c826117eb565b602082019050919050565b6000602082019050818103600083015261185081611814565b9050919050565b600281106118685761186761108e565b5b50565b600081905061187982611857565b919050565b60006118898261186b565b9050919050565b6118998161187e565b82525050565b60006060820190506118b46000830186610fbc565b6118c16020830185610fcb565b6118ce6040830184611890565b949350505050565b7f4f776e61626c653a206e6577206f776e657220697320746865207a65726f206160008201527f6464726573730000000000000000000000000000000000000000000000000000602082015250565b6000611932602683610fe5565b915061193d826118d6565b604082019050919050565b6000602082019050818103600083015261196181611925565b905091905056fea26469706673582212205f5b1d38ddbab0e84c255dab2636fc24e5e16af57962c397ceb6a599efdb624064736f6c63430008090033",
  "immutableReferences": {},
  "source": "// SPDX-License-Identifier: MIT\r\npragma solidity ^0.8.9;\r\n\r\nimport \"@openzeppelin/contracts/utils/math/SafeMath.sol\";\r\nimport \"@openzeppelin/contracts/access/Ownable.sol\";\r\nimport \"../../Data.sol\";\r\nimport \"../Interfaces/IMembersDAO.sol\";\r\nimport \"../../DaoBase.sol\";\r\n\r\n//is DaosFactory\r\ncontract VotingYesNo is Ownable {\r\n    using SafeMath for uint256;\r\n    DaoBase private dao;\r\n    IMembersDao private membersDao;\r\n    uint256 public voteSessionsCount;\r\n    mapping(uint256 => voteSession) public voteSessions;\r\n\r\n    struct voteSession {\r\n        address creatorAddress;\r\n        uint256 creationTime;\r\n        string name;\r\n        string description;\r\n        bool isTerminated;\r\n        mapping(address => voteResult) votes;\r\n        voteResult[] voteResults;\r\n        durationEnum duration;\r\n        bool isCreated;\r\n    }\r\n\r\n    struct voteResult {\r\n        responseEnum response;\r\n        address voter;\r\n        bool voted;\r\n    }\r\n\r\n    struct voteResponseResult {\r\n        responseEnum response;\r\n        uint256 voteNumbers;\r\n    } \r\n\r\n    enum responseEnum {\r\n        yes,\r\n        no\r\n    }\r\n\r\n    enum durationEnum {\r\n        oneHour,\r\n        oneDay\r\n    }\r\n\r\n    event VoteSessionCreated(address creatorAddress, string name);\r\n    event Voted(address voterAddress, uint256 voteSessionId, responseEnum response);\r\n\r\n    constructor (address daoAddress, address membersDaoAddress)\r\n    {\r\n        dao = DaoBase(daoAddress);\r\n        membersDao = IMembersDao(membersDaoAddress);\r\n    }\r\n\r\n    function createVote(string memory name, string memory description, uint8 duration) public {\r\n        ++voteSessionsCount;\r\n        voteSessions[voteSessionsCount].isTerminated = false;\r\n        voteSessions[voteSessionsCount].name = name;\r\n        voteSessions[voteSessionsCount].description = description;\r\n        voteSessions[voteSessionsCount].creatorAddress = msg.sender;\r\n        voteSessions[voteSessionsCount].duration = durationEnum(duration);\r\n        \r\n        emit VoteSessionCreated(msg.sender, name);\r\n    }\r\n\r\n    function vote(uint256 voteSessionId, uint8 response) public {\r\n        require(voteSessions[voteSessionId].isCreated, \"Vote session not found\");\r\n        require(isVoteSessionDurationExpired(voteSessionId), \"Vote session terminated\");\r\n        require(hasVoted(voteSessionId, msg.sender), \"Already voted\");\r\n        require(membersDao.isActiveMember(msg.sender), \"Not DAO member\");\r\n\r\n        voteSessions[voteSessionsCount].votes[msg.sender].response = responseEnum(response);\r\n        voteSessions[voteSessionsCount].votes[msg.sender].voted = true;\r\n        voteSessions[voteSessionsCount].voteResults.push(voteResult(responseEnum(response), msg.sender, true));\r\n        \r\n        emit Voted(msg.sender, voteSessionId, responseEnum(response));\r\n    }\r\n\r\n    function isVoteSessionDurationExpired(uint256 voteSessionId) public view returns (bool) {\r\n        require(voteSessions[voteSessionId].isCreated, \"Vote session not found\");\r\n\r\n        if(voteSessions[voteSessionId].isTerminated)\r\n            return true;\r\n\r\n        uint256 deltaTimestamp = block.timestamp - voteSessions[voteSessionId].creationTime;\r\n        if(voteSessions[voteSessionId].duration == durationEnum.oneHour && deltaTimestamp > 1 hours)\r\n            return true;\r\n        if(voteSessions[voteSessionId].duration == durationEnum.oneDay && deltaTimestamp > 1 days)\r\n            return true;\r\n\r\n        return false;\r\n    }    \r\n\r\n    function hasVoted(uint256 voteSessionId, address voter) public view returns (bool) {\r\n        require(voteSessions[voteSessionId].isCreated, \"Vote session not found\");\r\n\r\n        return voteSessions[voteSessionId].votes[voter].voted;\r\n    }     \r\n  \r\n}",
  "sourcePath": "C:\\Users\\mdmou\\source\\repos\\MY-DAO\\contracts\\Modules\\Implementations\\VotingModule.sol",
  "compiler": {
    "name": "solc",
    "version": "0.8.9+commit.e5eed63a.Emscripten.clang"
  },
  "schemaVersion": "3.4.4",
  "updatedAt": "2022-05-14T21:26:06.249Z",
  "devdoc": {
    "kind": "dev",
    "methods": {
      "owner()": {
        "details": "Returns the address of the current owner."
      },
      "renounceOwnership()": {
        "details": "Leaves the contract without owner. It will not be possible to call `onlyOwner` functions anymore. Can only be called by the current owner. NOTE: Renouncing ownership will leave the contract without an owner, thereby removing any functionality that is only available to the owner."
      },
      "transferOwnership(address)": {
        "details": "Transfers ownership of the contract to a new account (`newOwner`). Can only be called by the current owner."
      }
    },
    "version": 1
  },
  "userdoc": {
    "kind": "user",
    "methods": {},
    "version": 1
  }
}