{
  "contractName": "VotingYesNoModule",
  "abi": [
    {
      "inputs": [
        {
          "internalType": "address",
          "name": "_contractFactory",
          "type": "address"
        }
      ],
      "stateMutability": "nonpayable",
      "type": "constructor"
    },
    {
      "anonymous": false,
      "inputs": [
        {
          "indexed": true,
          "internalType": "address",
          "name": "previousOwner",
          "type": "address"
        },
        {
          "indexed": true,
          "internalType": "address",
          "name": "newOwner",
          "type": "address"
        }
      ],
      "name": "OwnershipTransferred",
      "type": "event"
    },
    {
      "anonymous": false,
      "inputs": [
        {
          "indexed": false,
          "internalType": "address",
          "name": "creatorAddress",
          "type": "address"
        },
        {
          "indexed": false,
          "internalType": "string",
          "name": "name",
          "type": "string"
        }
      ],
      "name": "VoteSessionCreated",
      "type": "event"
    },
    {
      "anonymous": false,
      "inputs": [
        {
          "indexed": false,
          "internalType": "address",
          "name": "voterAddress",
          "type": "address"
        },
        {
          "indexed": false,
          "internalType": "uint256",
          "name": "voteSessionId",
          "type": "uint256"
        },
        {
          "indexed": false,
          "internalType": "enum VotingYesNoModule.responseEnum",
          "name": "response",
          "type": "uint8"
        }
      ],
      "name": "Voted",
      "type": "event"
    },
    {
      "inputs": [
        {
          "internalType": "address",
          "name": "",
          "type": "address"
        },
        {
          "internalType": "address",
          "name": "",
          "type": "address"
        }
      ],
      "name": "authorizedContracts",
      "outputs": [
        {
          "internalType": "bool",
          "name": "",
          "type": "bool"
        }
      ],
      "stateMutability": "view",
      "type": "function"
    },
    {
      "inputs": [
        {
          "internalType": "address",
          "name": "",
          "type": "address"
        }
      ],
      "name": "daos",
      "outputs": [
        {
          "internalType": "address",
          "name": "addressDao",
          "type": "address"
        },
        {
          "internalType": "uint256",
          "name": "membersCount",
          "type": "uint256"
        },
        {
          "internalType": "bool",
          "name": "isActive",
          "type": "bool"
        }
      ],
      "stateMutability": "view",
      "type": "function"
    },
    {
      "inputs": [],
      "name": "owner",
      "outputs": [
        {
          "internalType": "address",
          "name": "",
          "type": "address"
        }
      ],
      "stateMutability": "view",
      "type": "function"
    },
    {
      "inputs": [],
      "name": "renounceOwnership",
      "outputs": [],
      "stateMutability": "nonpayable",
      "type": "function"
    },
    {
      "inputs": [
        {
          "internalType": "address",
          "name": "newOwner",
          "type": "address"
        }
      ],
      "name": "transferOwnership",
      "outputs": [],
      "stateMutability": "nonpayable",
      "type": "function"
    },
    {
      "inputs": [
        {
          "internalType": "address",
          "name": "",
          "type": "address"
        },
        {
          "internalType": "uint256",
          "name": "",
          "type": "uint256"
        }
      ],
      "name": "voteSessions",
      "outputs": [
        {
          "internalType": "address",
          "name": "creatorAddress",
          "type": "address"
        },
        {
          "internalType": "uint256",
          "name": "creationTime",
          "type": "uint256"
        },
        {
          "internalType": "string",
          "name": "name",
          "type": "string"
        },
        {
          "internalType": "string",
          "name": "description",
          "type": "string"
        },
        {
          "internalType": "bool",
          "name": "isTerminated",
          "type": "bool"
        },
        {
          "internalType": "uint256",
          "name": "votersCount",
          "type": "uint256"
        },
        {
          "internalType": "enum VotingYesNoModule.durationEnum",
          "name": "duration",
          "type": "uint8"
        },
        {
          "internalType": "bool",
          "name": "isCreated",
          "type": "bool"
        }
      ],
      "stateMutability": "view",
      "type": "function"
    },
    {
      "inputs": [
        {
          "internalType": "address",
          "name": "",
          "type": "address"
        }
      ],
      "name": "voteSessionsCount",
      "outputs": [
        {
          "internalType": "uint256",
          "name": "",
          "type": "uint256"
        }
      ],
      "stateMutability": "view",
      "type": "function"
    },
    {
      "inputs": [
        {
          "internalType": "address",
          "name": "_contractDao",
          "type": "address"
        }
      ],
      "name": "getVotesCount",
      "outputs": [
        {
          "internalType": "uint256",
          "name": "",
          "type": "uint256"
        }
      ],
      "stateMutability": "view",
      "type": "function"
    },
    {
      "inputs": [
        {
          "internalType": "address",
          "name": "_contractDao",
          "type": "address"
        },
        {
          "internalType": "uint256",
          "name": "voteSessionId",
          "type": "uint256"
        },
        {
          "internalType": "address",
          "name": "_voterAddress",
          "type": "address"
        }
      ],
      "name": "getVoteInfo",
      "outputs": [
        {
          "components": [
            {
              "internalType": "enum VotingYesNoModule.responseEnum",
              "name": "response",
              "type": "uint8"
            },
            {
              "internalType": "address",
              "name": "voter",
              "type": "address"
            },
            {
              "internalType": "bool",
              "name": "voted",
              "type": "bool"
            }
          ],
          "internalType": "struct VotingYesNoModule.voteResult",
          "name": "",
          "type": "tuple"
        }
      ],
      "stateMutability": "view",
      "type": "function"
    },
    {
      "inputs": [
        {
          "internalType": "address",
          "name": "_contractDao",
          "type": "address"
        },
        {
          "internalType": "uint256",
          "name": "voteSessionId",
          "type": "uint256"
        }
      ],
      "name": "getVoteSessionInfo",
      "outputs": [
        {
          "internalType": "address",
          "name": "creatorAddress",
          "type": "address"
        },
        {
          "internalType": "uint256",
          "name": "creationTime",
          "type": "uint256"
        },
        {
          "internalType": "string",
          "name": "name",
          "type": "string"
        },
        {
          "internalType": "string",
          "name": "description",
          "type": "string"
        },
        {
          "internalType": "bool",
          "name": "isTerminated",
          "type": "bool"
        },
        {
          "internalType": "uint256",
          "name": "votersCount",
          "type": "uint256"
        },
        {
          "internalType": "enum VotingYesNoModule.durationEnum",
          "name": "duration",
          "type": "uint8"
        }
      ],
      "stateMutability": "view",
      "type": "function"
    },
    {
      "inputs": [
        {
          "internalType": "address",
          "name": "_contractDao",
          "type": "address"
        },
        {
          "internalType": "uint256",
          "name": "voteSessionId",
          "type": "uint256"
        },
        {
          "internalType": "uint256",
          "name": "voterId",
          "type": "uint256"
        }
      ],
      "name": "getVoterAddressById",
      "outputs": [
        {
          "internalType": "address",
          "name": "",
          "type": "address"
        }
      ],
      "stateMutability": "view",
      "type": "function"
    },
    {
      "inputs": [
        {
          "internalType": "address",
          "name": "_contractDao",
          "type": "address"
        },
        {
          "internalType": "uint256",
          "name": "voteSessionId",
          "type": "uint256"
        }
      ],
      "name": "getVotersCount",
      "outputs": [
        {
          "internalType": "uint256",
          "name": "",
          "type": "uint256"
        }
      ],
      "stateMutability": "view",
      "type": "function"
    },
    {
      "inputs": [
        {
          "internalType": "address",
          "name": "_contractDao",
          "type": "address"
        },
        {
          "internalType": "string",
          "name": "name",
          "type": "string"
        },
        {
          "internalType": "string",
          "name": "description",
          "type": "string"
        },
        {
          "internalType": "uint8",
          "name": "duration",
          "type": "uint8"
        }
      ],
      "name": "createVote",
      "outputs": [],
      "stateMutability": "nonpayable",
      "type": "function"
    },
    {
      "inputs": [
        {
          "internalType": "address",
          "name": "_contractDao",
          "type": "address"
        },
        {
          "internalType": "uint256",
          "name": "voteSessionId",
          "type": "uint256"
        },
        {
          "internalType": "uint8",
          "name": "response",
          "type": "uint8"
        }
      ],
      "name": "vote",
      "outputs": [],
      "stateMutability": "nonpayable",
      "type": "function"
    },
    {
      "inputs": [
        {
          "internalType": "address",
          "name": "_contractDao",
          "type": "address"
        },
        {
          "internalType": "uint256",
          "name": "voteSessionId",
          "type": "uint256"
        }
      ],
      "name": "isVoteSessionDurationExpired",
      "outputs": [
        {
          "internalType": "bool",
          "name": "",
          "type": "bool"
        }
      ],
      "stateMutability": "view",
      "type": "function"
    },
    {
      "inputs": [
        {
          "internalType": "address",
          "name": "_contractDao",
          "type": "address"
        },
        {
          "internalType": "uint256",
          "name": "voteSessionId",
          "type": "uint256"
        },
        {
          "internalType": "address",
          "name": "voter",
          "type": "address"
        }
      ],
      "name": "hasVoted",
      "outputs": [
        {
          "internalType": "bool",
          "name": "",
          "type": "bool"
        }
      ],
      "stateMutability": "view",
      "type": "function"
    },
    {
      "inputs": [
        {
          "internalType": "address",
          "name": "_contractDao",
          "type": "address"
        },
        {
          "internalType": "address",
          "name": "_memberDao",
          "type": "address"
        }
      ],
      "name": "addDao",
      "outputs": [],
      "stateMutability": "nonpayable",
      "type": "function"
    },
    {
      "inputs": [
        {
          "internalType": "address",
          "name": "_contractDao",
          "type": "address"
        },
        {
          "internalType": "address",
          "name": "_contractAddress",
          "type": "address"
        }
      ],
      "name": "authorizeAddress",
      "outputs": [],
      "stateMutability": "nonpayable",
      "type": "function"
    },
    {
      "inputs": [
        {
          "internalType": "address",
          "name": "_contractDao",
          "type": "address"
        },
        {
          "internalType": "address",
          "name": "_contractAddress",
          "type": "address"
        }
      ],
      "name": "denyAddress",
      "outputs": [],
      "stateMutability": "nonpayable",
      "type": "function"
    }
  ],
  "bytecode": "0x60806040523480156200001157600080fd5b5060405162003995380380620039958339818101604052810190620000379190620001c0565b62000069620000546200008a640100000000026401000000009004565b62000092640100000000026401000000009004565b620000838162000092640100000000026401000000009004565b50620001f2565b600033905090565b60008060009054906101000a900473ffffffffffffffffffffffffffffffffffffffff169050816000806101000a81548173ffffffffffffffffffffffffffffffffffffffff021916908373ffffffffffffffffffffffffffffffffffffffff1602179055508173ffffffffffffffffffffffffffffffffffffffff168173ffffffffffffffffffffffffffffffffffffffff167f8be0079c531659141344cd1fd0a4f28419497f9722a3daafe3b4186f6b6457e060405160405180910390a35050565b600080fd5b600073ffffffffffffffffffffffffffffffffffffffff82169050919050565b600062000188826200015b565b9050919050565b6200019a816200017b565b8114620001a657600080fd5b50565b600081519050620001ba816200018f565b92915050565b600060208284031215620001d957620001d862000156565b5b6000620001e984828501620001a9565b91505092915050565b61379380620002026000396000f3fe608060405234801561001057600080fd5b506004361061013e576000357c0100000000000000000000000000000000000000000000000000000000900480638da5cb5b116100ca578063db4d7dcd1161008e578063db4d7dcd14610377578063e498116f14610393578063e69a190a146103af578063f2fde38b146103e6578063fd95029a146104025761013e565b80638da5cb5b146102975780638f669505146102b5578063a5fc4dc6146102e5578063c19fe6c214610315578063c25f3cf6146103455761013e565b80636a348b7b116101115780636a348b7b146101db578063715018a6146101f7578063770e172a146102015780637bf5351c146102375780638b1ce2ef146102675761013e565b80630fae38ac1461014357806312ee7e4114610173578063144fdd5d1461018f57806338e58af0146101bf575b600080fd5b61015d600480360381019061015891906127eb565b610432565b60405161016a9190612859565b60405180910390f35b61018d60048036038101906101889190612874565b61057e565b005b6101a960048036038101906101a491906128b4565b61094c565b6040516101b69190612903565b60405180910390f35b6101d960048036038101906101d49190612a9d565b6109aa565b005b6101f560048036038101906101f09190612b3c565b610e80565b005b6101ff611592565b005b61021b600480360381019061021691906128b4565b61161a565b60405161022e9796959493929190612c9d565b60405180910390f35b610251600480360381019061024c9190612874565b6119d5565b60405161025e9190612859565b60405180910390f35b610281600480360381019061027c91906128b4565b611a04565b60405161028e9190612859565b60405180910390f35b61029f611ccc565b6040516102ac9190612d1a565b60405180910390f35b6102cf60048036038101906102ca9190612d35565b611cf5565b6040516102dc9190612d1a565b60405180910390f35b6102ff60048036038101906102fa9190612d88565b611d85565b60405161030c9190612903565b60405180910390f35b61032f600480360381019061032a9190612d88565b611d9d565b60405161033c9190612903565b60405180910390f35b61035f600480360381019061035a9190612d88565b611de6565b60405161036e93929190612db5565b60405180910390f35b610391600480360381019061038c9190612874565b611e3d565b005b6103ad60048036038101906103a89190612874565b611fe5565b005b6103c960048036038101906103c491906128b4565b61218d565b6040516103dd989796959493929190612dec565b60405180910390f35b61040060048036038101906103fb9190612d88565b612339565b005b61041c600480360381019061041791906127eb565b612431565b6040516104299190612f20565b60405180910390f35b6000600360008573ffffffffffffffffffffffffffffffffffffffff1673ffffffffffffffffffffffffffffffffffffffff168152602001908152602001600020600084815260200190815260200160002060090160019054906101000a900460ff166104d4576040517f08c379a00000000000000000000000000000000000000000000000000000000081526004016104cb90612f87565b60405180910390fd5b600360008573ffffffffffffffffffffffffffffffffffffffff1673ffffffffffffffffffffffffffffffffffffffff168152602001908152602001600020600084815260200190815260200160002060060160008373ffffffffffffffffffffffffffffffffffffffff1673ffffffffffffffffffffffffffffffffffffffff16815260200190815260200160002060000160159054906101000a900460ff1690509392505050565b8160011515600560008373ffffffffffffffffffffffffffffffffffffffff1673ffffffffffffffffffffffffffffffffffffffff16815260200190815260200160002060003373ffffffffffffffffffffffffffffffffffffffff1673ffffffffffffffffffffffffffffffffffffffff16815260200190815260200160002060009054906101000a900460ff161515148061064d575061061e611ccc565b73ffffffffffffffffffffffffffffffffffffffff163373ffffffffffffffffffffffffffffffffffffffff16145b61068c576040517f08c379a000000000000000000000000000000000000000000000000000000000815260040161068390612ff3565b60405180910390fd5b600460008473ffffffffffffffffffffffffffffffffffffffff1673ffffffffffffffffffffffffffffffffffffffff16815260200190815260200160002060040160009054906101000a900460ff161561071c576040517f08c379a00000000000000000000000000000000000000000000000000000000081526004016107139061305f565b60405180910390fd5b6001600460008573ffffffffffffffffffffffffffffffffffffffff1673ffffffffffffffffffffffffffffffffffffffff16815260200190815260200160002060040160006101000a81548160ff02191690831515021790555082600460008573ffffffffffffffffffffffffffffffffffffffff1673ffffffffffffffffffffffffffffffffffffffff16815260200190815260200160002060000160006101000a81548173ffffffffffffffffffffffffffffffffffffffff021916908373ffffffffffffffffffffffffffffffffffffffff1602179055508273ffffffffffffffffffffffffffffffffffffffff1663d8d8e93c604051602001610823906130cb565b604051602081830303815290604052805190602001206040518263ffffffff167c01000000000000000000000000000000000000000000000000000000000281526004016108719190613126565b60006040518083038186803b15801561088957600080fd5b505afa15801561089d573d6000803e3d6000fd5b505050506040513d6000823e3d601f19601f820116820180604052508101906108c691906132f9565b60200151600660008573ffffffffffffffffffffffffffffffffffffffff1673ffffffffffffffffffffffffffffffffffffffff16815260200190815260200160002060006101000a81548173ffffffffffffffffffffffffffffffffffffffff021916908373ffffffffffffffffffffffffffffffffffffffff160217905550505050565b6000600360008473ffffffffffffffffffffffffffffffffffffffff1673ffffffffffffffffffffffffffffffffffffffff168152602001908152602001600020600083815260200190815260200160002060050154905092915050565b6000600360008673ffffffffffffffffffffffffffffffffffffffff1673ffffffffffffffffffffffffffffffffffffffff1681526020019081526020016000206000600260008873ffffffffffffffffffffffffffffffffffffffff1673ffffffffffffffffffffffffffffffffffffffff16815260200190815260200160002054815260200190815260200160002060040160006101000a81548160ff0219169083151502179055506000600360008673ffffffffffffffffffffffffffffffffffffffff1673ffffffffffffffffffffffffffffffffffffffff1681526020019081526020016000206000600260008873ffffffffffffffffffffffffffffffffffffffff1673ffffffffffffffffffffffffffffffffffffffff16815260200190815260200160002054815260200190815260200160002060090160016101000a81548160ff02191690831515021790555082600360008673ffffffffffffffffffffffffffffffffffffffff1673ffffffffffffffffffffffffffffffffffffffff1681526020019081526020016000206000600260008873ffffffffffffffffffffffffffffffffffffffff1673ffffffffffffffffffffffffffffffffffffffff1681526020019081526020016000205481526020019081526020016000206002019080519060200190610ba6929190612655565b5081600360008673ffffffffffffffffffffffffffffffffffffffff1673ffffffffffffffffffffffffffffffffffffffff1681526020019081526020016000206000600260008873ffffffffffffffffffffffffffffffffffffffff1673ffffffffffffffffffffffffffffffffffffffff1681526020019081526020016000205481526020019081526020016000206003019080519060200190610c4d929190612655565b5033600360008673ffffffffffffffffffffffffffffffffffffffff1673ffffffffffffffffffffffffffffffffffffffff1681526020019081526020016000206000600260008873ffffffffffffffffffffffffffffffffffffffff1673ffffffffffffffffffffffffffffffffffffffff16815260200190815260200160002054815260200190815260200160002060000160006101000a81548173ffffffffffffffffffffffffffffffffffffffff021916908373ffffffffffffffffffffffffffffffffffffffff1602179055508060ff166001811115610d3557610d34612c26565b5b600360008673ffffffffffffffffffffffffffffffffffffffff1673ffffffffffffffffffffffffffffffffffffffff1681526020019081526020016000206000600260008873ffffffffffffffffffffffffffffffffffffffff1673ffffffffffffffffffffffffffffffffffffffff16815260200190815260200160002054815260200190815260200160002060090160006101000a81548160ff02191690836001811115610de957610de8612c26565b5b0217905550600260008573ffffffffffffffffffffffffffffffffffffffff1673ffffffffffffffffffffffffffffffffffffffff16815260200190815260200160002060008154610e3a90613371565b919050819055507fcd6cc57f1b7b27f4de7516169856aba6cdae3616948048548d9e3893565c61603384604051610e729291906133ba565b60405180910390a150505050565b600360008473ffffffffffffffffffffffffffffffffffffffff1673ffffffffffffffffffffffffffffffffffffffff168152602001908152602001600020600083815260200190815260200160002060090160019054906101000a900460ff16610f20576040517f08c379a0000000000000000000000000000000000000000000000000000000008152600401610f1790612f87565b60405180910390fd5b610f2a8383611a04565b610f69576040517f08c379a0000000000000000000000000000000000000000000000000000000008152600401610f6090613436565b60405180910390fd5b610f74838333610432565b610fb3576040517f08c379a0000000000000000000000000000000000000000000000000000000008152600401610faa906134a2565b60405180910390fd5b600660008473ffffffffffffffffffffffffffffffffffffffff1673ffffffffffffffffffffffffffffffffffffffff16815260200190815260200160002060009054906101000a900473ffffffffffffffffffffffffffffffffffffffff1673ffffffffffffffffffffffffffffffffffffffff16638ecf772084336040518363ffffffff167c01000000000000000000000000000000000000000000000000000000000281526004016110699291906134c2565b60206040518083038186803b15801561108157600080fd5b505afa158015611095573d6000803e3d6000fd5b505050506040513d601f19601f820116820180604052508101906110b991906134eb565b6110f8576040517f08c379a00000000000000000000000000000000000000000000000000000000081526004016110ef90613564565b60405180910390fd5b33600360008573ffffffffffffffffffffffffffffffffffffffff1673ffffffffffffffffffffffffffffffffffffffff16815260200190815260200160002060008481526020019081526020016000206007016000600360008773ffffffffffffffffffffffffffffffffffffffff1673ffffffffffffffffffffffffffffffffffffffff168152602001908152602001600020600086815260200190815260200160002060050154815260200190815260200160002060006101000a81548173ffffffffffffffffffffffffffffffffffffffff021916908373ffffffffffffffffffffffffffffffffffffffff160217905550600360008473ffffffffffffffffffffffffffffffffffffffff1673ffffffffffffffffffffffffffffffffffffffff16815260200190815260200160002060008381526020019081526020016000206005016000815461124e90613371565b919050819055508060ff16600181111561126b5761126a612c26565b5b600360008573ffffffffffffffffffffffffffffffffffffffff1673ffffffffffffffffffffffffffffffffffffffff168152602001908152602001600020600084815260200190815260200160002060060160003373ffffffffffffffffffffffffffffffffffffffff1673ffffffffffffffffffffffffffffffffffffffff16815260200190815260200160002060000160006101000a81548160ff021916908360018111156113205761131f612c26565b5b02179055506001600360008573ffffffffffffffffffffffffffffffffffffffff1673ffffffffffffffffffffffffffffffffffffffff168152602001908152602001600020600084815260200190815260200160002060060160003373ffffffffffffffffffffffffffffffffffffffff1673ffffffffffffffffffffffffffffffffffffffff16815260200190815260200160002060000160156101000a81548160ff021916908315150217905550600360008473ffffffffffffffffffffffffffffffffffffffff1673ffffffffffffffffffffffffffffffffffffffff168152602001908152602001600020600083815260200190815260200160002060080160405180606001604052808360ff16600181111561144557611444612c26565b5b600181111561145757611456612c26565b5b81526020013373ffffffffffffffffffffffffffffffffffffffff168152602001600115158152509080600181540180825580915050600190039060005260206000200160009091909190915060008201518160000160006101000a81548160ff021916908360018111156114cf576114ce612c26565b5b021790555060208201518160000160016101000a81548173ffffffffffffffffffffffffffffffffffffffff021916908373ffffffffffffffffffffffffffffffffffffffff16021790555060408201518160000160156101000a81548160ff02191690831515021790555050507fcc66c27f993ef125e1b985d84a52726edc66dcc64e94d172f80253e37d52637233838360ff16600181111561157657611575612c26565b5b60405161158593929190613593565b60405180910390a1505050565b61159a612589565b73ffffffffffffffffffffffffffffffffffffffff166115b8611ccc565b73ffffffffffffffffffffffffffffffffffffffff161461160e576040517f08c379a000000000000000000000000000000000000000000000000000000000815260040161160590613616565b60405180910390fd5b6116186000612591565b565b6000806060806000806000600360008a73ffffffffffffffffffffffffffffffffffffffff1673ffffffffffffffffffffffffffffffffffffffff168152602001908152602001600020600089815260200190815260200160002060000160009054906101000a900473ffffffffffffffffffffffffffffffffffffffff169650600360008a73ffffffffffffffffffffffffffffffffffffffff1673ffffffffffffffffffffffffffffffffffffffff1681526020019081526020016000206000898152602001908152602001600020600101549550600360008a73ffffffffffffffffffffffffffffffffffffffff1673ffffffffffffffffffffffffffffffffffffffff1681526020019081526020016000206000898152602001908152602001600020600201805461174f90613665565b80601f016020809104026020016040519081016040528092919081815260200182805461177b90613665565b80156117c85780601f1061179d576101008083540402835291602001916117c8565b820191906000526020600020905b8154815290600101906020018083116117ab57829003601f168201915b50505050509450600360008a73ffffffffffffffffffffffffffffffffffffffff1673ffffffffffffffffffffffffffffffffffffffff1681526020019081526020016000206000898152602001908152602001600020600301805461182d90613665565b80601f016020809104026020016040519081016040528092919081815260200182805461185990613665565b80156118a65780601f1061187b576101008083540402835291602001916118a6565b820191906000526020600020905b81548152906001019060200180831161188957829003601f168201915b50505050509350600360008a73ffffffffffffffffffffffffffffffffffffffff1673ffffffffffffffffffffffffffffffffffffffff168152602001908152602001600020600089815260200190815260200160002060040160009054906101000a900460ff169250600360008a73ffffffffffffffffffffffffffffffffffffffff1673ffffffffffffffffffffffffffffffffffffffff1681526020019081526020016000206000898152602001908152602001600020600501549150600360008a73ffffffffffffffffffffffffffffffffffffffff1673ffffffffffffffffffffffffffffffffffffffff168152602001908152602001600020600089815260200190815260200160002060090160009054906101000a900460ff16905092959891949750929550565b60056020528160005260406000206020528060005260406000206000915091509054906101000a900460ff1681565b6000600360008473ffffffffffffffffffffffffffffffffffffffff1673ffffffffffffffffffffffffffffffffffffffff168152602001908152602001600020600083815260200190815260200160002060090160019054906101000a900460ff16611aa6576040517f08c379a0000000000000000000000000000000000000000000000000000000008152600401611a9d90612f87565b60405180910390fd5b600360008473ffffffffffffffffffffffffffffffffffffffff1673ffffffffffffffffffffffffffffffffffffffff168152602001908152602001600020600083815260200190815260200160002060040160009054906101000a900460ff1615611b155760019050611cc6565b6000600360008573ffffffffffffffffffffffffffffffffffffffff1673ffffffffffffffffffffffffffffffffffffffff16815260200190815260200160002060008481526020019081526020016000206001015442611b769190613697565b905060006001811115611b8c57611b8b612c26565b5b600360008673ffffffffffffffffffffffffffffffffffffffff1673ffffffffffffffffffffffffffffffffffffffff168152602001908152602001600020600085815260200190815260200160002060090160009054906101000a900460ff166001811115611bff57611bfe612c26565b5b148015611c0d5750610e1081115b15611c1c576001915050611cc6565b600180811115611c2f57611c2e612c26565b5b600360008673ffffffffffffffffffffffffffffffffffffffff1673ffffffffffffffffffffffffffffffffffffffff168152602001908152602001600020600085815260200190815260200160002060090160009054906101000a900460ff166001811115611ca257611ca1612c26565b5b148015611cb157506201518081115b15611cc0576001915050611cc6565b60009150505b92915050565b60008060009054906101000a900473ffffffffffffffffffffffffffffffffffffffff16905090565b6000600360008573ffffffffffffffffffffffffffffffffffffffff1673ffffffffffffffffffffffffffffffffffffffff1681526020019081526020016000206000848152602001908152602001600020600701600083815260200190815260200160002060009054906101000a900473ffffffffffffffffffffffffffffffffffffffff1690509392505050565b60026020528060005260406000206000915090505481565b6000600260008373ffffffffffffffffffffffffffffffffffffffff1673ffffffffffffffffffffffffffffffffffffffff168152602001908152602001600020549050919050565b60046020528060005260406000206000915090508060000160009054906101000a900473ffffffffffffffffffffffffffffffffffffffff16908060010154908060040160009054906101000a900460ff16905083565b8160011515600560008373ffffffffffffffffffffffffffffffffffffffff1673ffffffffffffffffffffffffffffffffffffffff16815260200190815260200160002060003373ffffffffffffffffffffffffffffffffffffffff1673ffffffffffffffffffffffffffffffffffffffff16815260200190815260200160002060009054906101000a900460ff1615151480611f0c5750611edd611ccc565b73ffffffffffffffffffffffffffffffffffffffff163373ffffffffffffffffffffffffffffffffffffffff16145b611f4b576040517f08c379a0000000000000000000000000000000000000000000000000000000008152600401611f4290612ff3565b60405180910390fd5b6001600560008573ffffffffffffffffffffffffffffffffffffffff1673ffffffffffffffffffffffffffffffffffffffff16815260200190815260200160002060008473ffffffffffffffffffffffffffffffffffffffff1673ffffffffffffffffffffffffffffffffffffffff16815260200190815260200160002060006101000a81548160ff021916908315150217905550505050565b8160011515600560008373ffffffffffffffffffffffffffffffffffffffff1673ffffffffffffffffffffffffffffffffffffffff16815260200190815260200160002060003373ffffffffffffffffffffffffffffffffffffffff1673ffffffffffffffffffffffffffffffffffffffff16815260200190815260200160002060009054906101000a900460ff16151514806120b45750612085611ccc565b73ffffffffffffffffffffffffffffffffffffffff163373ffffffffffffffffffffffffffffffffffffffff16145b6120f3576040517f08c379a00000000000000000000000000000000000000000000000000000000081526004016120ea90612ff3565b60405180910390fd5b6000600560008573ffffffffffffffffffffffffffffffffffffffff1673ffffffffffffffffffffffffffffffffffffffff16815260200190815260200160002060008473ffffffffffffffffffffffffffffffffffffffff1673ffffffffffffffffffffffffffffffffffffffff16815260200190815260200160002060006101000a81548160ff021916908315150217905550505050565b6003602052816000526040600020602052806000526040600020600091509150508060000160009054906101000a900473ffffffffffffffffffffffffffffffffffffffff16908060010154908060020180546121e990613665565b80601f016020809104026020016040519081016040528092919081815260200182805461221590613665565b80156122625780601f1061223757610100808354040283529160200191612262565b820191906000526020600020905b81548152906001019060200180831161224557829003601f168201915b50505050509080600301805461227790613665565b80601f01602080910402602001604051908101604052809291908181526020018280546122a390613665565b80156122f05780601f106122c5576101008083540402835291602001916122f0565b820191906000526020600020905b8154815290600101906020018083116122d357829003601f168201915b5050505050908060040160009054906101000a900460ff16908060050154908060090160009054906101000a900460ff16908060090160019054906101000a900460ff16905088565b612341612589565b73ffffffffffffffffffffffffffffffffffffffff1661235f611ccc565b73ffffffffffffffffffffffffffffffffffffffff16146123b5576040517f08c379a00000000000000000000000000000000000000000000000000000000081526004016123ac90613616565b60405180910390fd5b600073ffffffffffffffffffffffffffffffffffffffff168173ffffffffffffffffffffffffffffffffffffffff161415612425576040517f08c379a000000000000000000000000000000000000000000000000000000000815260040161241c9061373d565b60405180910390fd5b61242e81612591565b50565b6124396126db565b600360008573ffffffffffffffffffffffffffffffffffffffff1673ffffffffffffffffffffffffffffffffffffffff168152602001908152602001600020600084815260200190815260200160002060060160008373ffffffffffffffffffffffffffffffffffffffff1673ffffffffffffffffffffffffffffffffffffffff1681526020019081526020016000206040518060600160405290816000820160009054906101000a900460ff1660018111156124f9576124f8612c26565b5b600181111561250b5761250a612c26565b5b81526020016000820160019054906101000a900473ffffffffffffffffffffffffffffffffffffffff1673ffffffffffffffffffffffffffffffffffffffff1673ffffffffffffffffffffffffffffffffffffffff1681526020016000820160159054906101000a900460ff16151515158152505090509392505050565b600033905090565b60008060009054906101000a900473ffffffffffffffffffffffffffffffffffffffff169050816000806101000a81548173ffffffffffffffffffffffffffffffffffffffff021916908373ffffffffffffffffffffffffffffffffffffffff1602179055508173ffffffffffffffffffffffffffffffffffffffff168173ffffffffffffffffffffffffffffffffffffffff167f8be0079c531659141344cd1fd0a4f28419497f9722a3daafe3b4186f6b6457e060405160405180910390a35050565b82805461266190613665565b90600052602060002090601f01602090048101928261268357600085556126ca565b82601f1061269c57805160ff19168380011785556126ca565b828001600101855582156126ca579182015b828111156126c95782518255916020019190600101906126ae565b5b5090506126d79190612726565b5090565b6040518060600160405280600060018111156126fa576126f9612c26565b5b8152602001600073ffffffffffffffffffffffffffffffffffffffff1681526020016000151581525090565b5b8082111561273f576000816000905550600101612727565b5090565b6000604051905090565b600080fd5b600080fd5b600073ffffffffffffffffffffffffffffffffffffffff82169050919050565b600061278282612757565b9050919050565b61279281612777565b811461279d57600080fd5b50565b6000813590506127af81612789565b92915050565b6000819050919050565b6127c8816127b5565b81146127d357600080fd5b50565b6000813590506127e5816127bf565b92915050565b6000806000606084860312156128045761280361274d565b5b6000612812868287016127a0565b9350506020612823868287016127d6565b9250506040612834868287016127a0565b9150509250925092565b60008115159050919050565b6128538161283e565b82525050565b600060208201905061286e600083018461284a565b92915050565b6000806040838503121561288b5761288a61274d565b5b6000612899858286016127a0565b92505060206128aa858286016127a0565b9150509250929050565b600080604083850312156128cb576128ca61274d565b5b60006128d9858286016127a0565b92505060206128ea858286016127d6565b9150509250929050565b6128fd816127b5565b82525050565b600060208201905061291860008301846128f4565b92915050565b600080fd5b600080fd5b6000601f19601f8301169050919050565b7f4e487b7100000000000000000000000000000000000000000000000000000000600052604160045260246000fd5b61297182612928565b810181811067ffffffffffffffff821117156129905761298f612939565b5b80604052505050565b60006129a3612743565b90506129af8282612968565b919050565b600067ffffffffffffffff8211156129cf576129ce612939565b5b6129d882612928565b9050602081019050919050565b82818337600083830152505050565b6000612a07612a02846129b4565b612999565b905082815260208101848484011115612a2357612a22612923565b5b612a2e8482856129e5565b509392505050565b600082601f830112612a4b57612a4a61291e565b5b8135612a5b8482602086016129f4565b91505092915050565b600060ff82169050919050565b612a7a81612a64565b8114612a8557600080fd5b50565b600081359050612a9781612a71565b92915050565b60008060008060808587031215612ab757612ab661274d565b5b6000612ac5878288016127a0565b945050602085013567ffffffffffffffff811115612ae657612ae5612752565b5b612af287828801612a36565b935050604085013567ffffffffffffffff811115612b1357612b12612752565b5b612b1f87828801612a36565b9250506060612b3087828801612a88565b91505092959194509250565b600080600060608486031215612b5557612b5461274d565b5b6000612b63868287016127a0565b9350506020612b74868287016127d6565b9250506040612b8586828701612a88565b9150509250925092565b612b9881612777565b82525050565b600081519050919050565b600082825260208201905092915050565b60005b83811015612bd8578082015181840152602081019050612bbd565b83811115612be7576000848401525b50505050565b6000612bf882612b9e565b612c028185612ba9565b9350612c12818560208601612bba565b612c1b81612928565b840191505092915050565b7f4e487b7100000000000000000000000000000000000000000000000000000000600052602160045260246000fd5b60028110612c6657612c65612c26565b5b50565b6000819050612c7782612c55565b919050565b6000612c8782612c69565b9050919050565b612c9781612c7c565b82525050565b600060e082019050612cb2600083018a612b8f565b612cbf60208301896128f4565b8181036040830152612cd18188612bed565b90508181036060830152612ce58187612bed565b9050612cf4608083018661284a565b612d0160a08301856128f4565b612d0e60c0830184612c8e565b98975050505050505050565b6000602082019050612d2f6000830184612b8f565b92915050565b600080600060608486031215612d4e57612d4d61274d565b5b6000612d5c868287016127a0565b9350506020612d6d868287016127d6565b9250506040612d7e868287016127d6565b9150509250925092565b600060208284031215612d9e57612d9d61274d565b5b6000612dac848285016127a0565b91505092915050565b6000606082019050612dca6000830186612b8f565b612dd760208301856128f4565b612de4604083018461284a565b949350505050565b600061010082019050612e02600083018b612b8f565b612e0f602083018a6128f4565b8181036040830152612e218189612bed565b90508181036060830152612e358188612bed565b9050612e44608083018761284a565b612e5160a08301866128f4565b612e5e60c0830185612c8e565b612e6b60e083018461284a565b9998505050505050505050565b60028110612e8957612e88612c26565b5b50565b6000819050612e9a82612e78565b919050565b6000612eaa82612e8c565b9050919050565b612eba81612e9f565b82525050565b612ec981612777565b82525050565b612ed88161283e565b82525050565b606082016000820151612ef46000850182612eb1565b506020820151612f076020850182612ec0565b506040820151612f1a6040850182612ecf565b50505050565b6000606082019050612f356000830184612ede565b92915050565b7f566f74652073657373696f6e206e6f7420666f756e6400000000000000000000600082015250565b6000612f71601683612ba9565b9150612f7c82612f3b565b602082019050919050565b60006020820190508181036000830152612fa081612f64565b9050919050565b7f4e6f7420617574686f72697a6564204242420000000000000000000000000000600082015250565b6000612fdd601283612ba9565b9150612fe882612fa7565b602082019050919050565b6000602082019050818103600083015261300c81612fd0565b9050919050565b7f44616f20616c7265616479206164646564000000000000000000000000000000600082015250565b6000613049601183612ba9565b915061305482613013565b602082019050919050565b600060208201905081810360008301526130788161303c565b9050919050565b7f4d656d6265724d6f64756c650000000000000000000000000000000000000000600082015250565b60006130b5600c83612ba9565b91506130c08261307f565b602082019050919050565b600060208201905081810360008301526130e4816130a8565b9050919050565b60007fffffffffffffffff00000000000000000000000000000000000000000000000082169050919050565b613120816130eb565b82525050565b600060208201905061313b6000830184613117565b92915050565b600080fd5b600080fd5b60008151905061315a816127bf565b92915050565b60008151905061316f81612789565b92915050565b61317e8161283e565b811461318957600080fd5b50565b60008151905061319b81613175565b92915050565b6131aa816130eb565b81146131b557600080fd5b50565b6000815190506131c7816131a1565b92915050565b60006131e06131db846129b4565b612999565b9050828152602081018484840111156131fc576131fb612923565b5b613207848285612bba565b509392505050565b600082601f8301126132245761322361291e565b5b81516132348482602086016131cd565b91505092915050565b600060c0828403121561325357613252613141565b5b61325d60c0612999565b9050600061326d8482850161314b565b600083015250602061328184828501613160565b60208301525060406132958482850161318c565b60408301525060606132a9848285016131b8565b60608301525060806132bd848285016131b8565b60808301525060a082015167ffffffffffffffff8111156132e1576132e0613146565b5b6132ed8482850161320f565b60a08301525092915050565b60006020828403121561330f5761330e61274d565b5b600082015167ffffffffffffffff81111561332d5761332c612752565b5b6133398482850161323d565b91505092915050565b7f4e487b7100000000000000000000000000000000000000000000000000000000600052601160045260246000fd5b600061337c826127b5565b91507fffffffffffffffffffffffffffffffffffffffffffffffffffffffffffffffff8214156133af576133ae613342565b5b600182019050919050565b60006040820190506133cf6000830185612b8f565b81810360208301526133e18184612bed565b90509392505050565b7f566f74652073657373696f6e207465726d696e61746564000000000000000000600082015250565b6000613420601783612ba9565b915061342b826133ea565b602082019050919050565b6000602082019050818103600083015261344f81613413565b9050919050565b7f416c726561647920766f74656400000000000000000000000000000000000000600082015250565b600061348c600d83612ba9565b915061349782613456565b602082019050919050565b600060208201905081810360008301526134bb8161347f565b9050919050565b60006040820190506134d76000830185612b8f565b6134e46020830184612b8f565b9392505050565b6000602082840312156135015761350061274d565b5b600061350f8482850161318c565b91505092915050565b7f4e6f742044414f206d656d626572000000000000000000000000000000000000600082015250565b600061354e600e83612ba9565b915061355982613518565b602082019050919050565b6000602082019050818103600083015261357d81613541565b9050919050565b61358d81612e9f565b82525050565b60006060820190506135a86000830186612b8f565b6135b560208301856128f4565b6135c26040830184613584565b949350505050565b7f4f776e61626c653a2063616c6c6572206973206e6f7420746865206f776e6572600082015250565b6000613600602083612ba9565b915061360b826135ca565b602082019050919050565b6000602082019050818103600083015261362f816135f3565b9050919050565b7f4e487b7100000000000000000000000000000000000000000000000000000000600052602260045260246000fd5b6000600282049050600182168061367d57607f821691505b6020821081141561369157613690613636565b5b50919050565b60006136a2826127b5565b91506136ad836127b5565b9250828210156136c0576136bf613342565b5b828203905092915050565b7f4f776e61626c653a206e6577206f776e657220697320746865207a65726f206160008201527f6464726573730000000000000000000000000000000000000000000000000000602082015250565b6000613727602683612ba9565b9150613732826136cb565b604082019050919050565b600060208201905081810360008301526137568161371a565b905091905056fea264697066735822122007db1ec127496ed027e9e5cb7d51ac4922b702a9a1c1691cf99bcc5dc121aa7f64736f6c63430008090033",
  "immutableReferences": {},
  "source": "// SPDX-License-Identifier: MIT\r\npragma solidity ^0.8.9;\r\n\r\nimport \"@openzeppelin/contracts/utils/math/SafeMath.sol\";\r\nimport \"@openzeppelin/contracts/access/Ownable.sol\";\r\nimport \"../../Data.sol\";\r\nimport \"../Interfaces/IMembersDAO.sol\";\r\nimport \"../../DaoBase.sol\";\r\n\r\n//is DaosFactory\r\ncontract VotingYesNoModule is Ownable {\r\n    using SafeMath for uint256;\r\n    //DaoBase private dao;\r\n    IMembersDao private membersDao;\r\n    mapping(address => uint256) public voteSessionsCount;\r\n    mapping(address => mapping(uint256 => voteSession)) public voteSessions;\r\n    mapping(address => Data.DaoMember) public daos;\r\n    mapping(address => mapping(address => bool)) public authorizedContracts;\r\n    mapping(address => address) private memberModuleAddresses;\r\n\r\n    struct voteSession {\r\n        address creatorAddress;\r\n        uint256 creationTime;\r\n        string name;\r\n        string description;\r\n        bool isTerminated;\r\n        uint256 votersCount;\r\n        mapping(address => voteResult) votes;\r\n        mapping(uint256 => address) voterAddresses;\r\n        voteResult[] voteResults;\r\n        durationEnum duration;\r\n        bool isCreated;\r\n    }\r\n\r\n    struct voteResult {\r\n        responseEnum response;\r\n        address voter;\r\n        bool voted;\r\n    }\r\n\r\n    struct voteResponseResult {\r\n        responseEnum response;\r\n        uint256 voteNumbers;\r\n    } \r\n\r\n    enum responseEnum {\r\n        yes,\r\n        no\r\n    }\r\n\r\n    enum durationEnum {\r\n        oneHour,\r\n        oneDay\r\n    }\r\n\r\n    event VoteSessionCreated(address creatorAddress, string name);\r\n    event Voted(address voterAddress, uint256 voteSessionId, responseEnum response);\r\n\r\n    constructor(address _contractFactory) {\r\n        _transferOwnership(_contractFactory);\r\n    }\r\n\r\n    modifier onlyAuthorizeContracts(address _contractDao) {\r\n        require(authorizedContracts[_contractDao][msg.sender] == true, \"Not authorized BB\");\r\n        _;\r\n    }\r\n    modifier onlyAuthorizeContractsOrOwner(address _contractDao) {\r\n        require(authorizedContracts[_contractDao][msg.sender] == true || msg.sender == owner(), \"Not authorized BBB\");\r\n        _;\r\n    }\r\n\r\n    function getVotesCount(address _contractDao) public view returns (uint256)\r\n    {\r\n        return voteSessionsCount[_contractDao];\r\n    }\r\n\r\n    // function getVote(address _contractDao, uint256 voteSessionId) external view returns (voteSession memory)\r\n    // {\r\n    //     return (voteSessions[_contractDao][voteSessionId]);\r\n    // }\r\n\r\n    function getVoteInfo(address _contractDao, uint256 voteSessionId, address _voterAddress) external view returns(voteResult memory) {\r\n        return(voteSessions[_contractDao][voteSessionId].votes[_voterAddress]);\r\n    }\r\n\r\n    function getVoteSessionInfo(address _contractDao, uint256 voteSessionId) external view returns(address creatorAddress,\r\n                                                                                                    uint256 creationTime,\r\n                                                                                                    string memory name,\r\n                                                                                                    string memory description,\r\n                                                                                                    bool isTerminated,\r\n                                                                                                    uint256 votersCount,\r\n                                                                                                    durationEnum duration) {\r\n         creatorAddress = voteSessions[_contractDao][voteSessionId].creatorAddress;\r\n         creationTime = voteSessions[_contractDao][voteSessionId].creationTime;\r\n         name = voteSessions[_contractDao][voteSessionId].name;\r\n         description = voteSessions[_contractDao][voteSessionId].description;\r\n         isTerminated = voteSessions[_contractDao][voteSessionId].isTerminated;\r\n         votersCount = voteSessions[_contractDao][voteSessionId].votersCount;\r\n         duration = voteSessions[_contractDao][voteSessionId].duration;\r\n    }\r\n\r\n    function getVoterAddressById(address _contractDao, uint256 voteSessionId, uint256 voterId) external view returns(address) {\r\n        return voteSessions[_contractDao][voteSessionId].voterAddresses[voterId];\r\n    }\r\n\r\n    function getVotersCount(address _contractDao, uint256 voteSessionId) external view returns(uint256) {\r\n        return voteSessions[_contractDao][voteSessionId].votersCount;\r\n    }\r\n\r\n    function createVote(address _contractDao, string memory name, string memory description, uint8 duration) public {\r\n        \r\n        voteSessions[_contractDao][voteSessionsCount[_contractDao]].isTerminated = false;\r\n        voteSessions[_contractDao][voteSessionsCount[_contractDao]].isCreated = false;\r\n        voteSessions[_contractDao][voteSessionsCount[_contractDao]].name = name;\r\n        voteSessions[_contractDao][voteSessionsCount[_contractDao]].description = description;\r\n        voteSessions[_contractDao][voteSessionsCount[_contractDao]].creatorAddress = msg.sender;\r\n        voteSessions[_contractDao][voteSessionsCount[_contractDao]].duration = durationEnum(duration);\r\n        ++voteSessionsCount[_contractDao];\r\n\r\n        emit VoteSessionCreated(msg.sender, name);\r\n    }\r\n\r\n    function vote(address _contractDao, uint256 voteSessionId, uint8 response) public {\r\n        require(voteSessions[_contractDao][voteSessionId].isCreated, \"Vote session not found\");\r\n        require(isVoteSessionDurationExpired(_contractDao, voteSessionId), \"Vote session terminated\");\r\n        require(hasVoted(_contractDao, voteSessionId, msg.sender), \"Already voted\");\r\n        require(IMembersDao(memberModuleAddresses[_contractDao]).isActiveMember(_contractDao, msg.sender), \"Not DAO member\");\r\n\r\n        //add voter address\r\n        voteSessions[_contractDao][voteSessionId].voterAddresses[voteSessions[_contractDao][voteSessionId].votersCount] = msg.sender;\r\n        ++voteSessions[_contractDao][voteSessionId].votersCount;\r\n\r\n        //add voter vote\r\n        voteSessions[_contractDao][voteSessionId].votes[msg.sender].response = responseEnum(response);\r\n        voteSessions[_contractDao][voteSessionId].votes[msg.sender].voted = true;\r\n        voteSessions[_contractDao][voteSessionId].voteResults.push(voteResult(responseEnum(response), msg.sender, true));\r\n        \r\n        emit Voted(msg.sender, voteSessionId, responseEnum(response));\r\n    }\r\n\r\n    function isVoteSessionDurationExpired(address _contractDao, uint256 voteSessionId) public view returns (bool) {\r\n        require(voteSessions[_contractDao][voteSessionId].isCreated, \"Vote session not found\");\r\n\r\n        if(voteSessions[_contractDao][voteSessionId].isTerminated)\r\n            return true;\r\n\r\n        uint256 deltaTimestamp = block.timestamp - voteSessions[_contractDao][voteSessionId].creationTime;\r\n        if(voteSessions[_contractDao][voteSessionId].duration == durationEnum.oneHour && deltaTimestamp > 1 hours)\r\n            return true;\r\n        if(voteSessions[_contractDao][voteSessionId].duration == durationEnum.oneDay && deltaTimestamp > 1 days)\r\n            return true;\r\n\r\n        return false;\r\n    }    \r\n\r\n    function hasVoted(address _contractDao, uint256 voteSessionId, address voter) public view returns (bool) {\r\n        require(voteSessions[_contractDao][voteSessionId].isCreated, \"Vote session not found\");\r\n\r\n        return voteSessions[_contractDao][voteSessionId].votes[voter].voted;\r\n    }     \r\n\r\n    function addDao(address _contractDao, address _memberDao) external onlyAuthorizeContractsOrOwner(_contractDao) {\r\n        require(!daos[_contractDao].isActive, \"Dao already added\");\r\n        daos[_contractDao].isActive = true;\r\n        daos[_contractDao].addressDao = _contractDao;\r\n        memberModuleAddresses[_contractDao] = DaoBase(_contractDao).getModuleData(bytes8(keccak256(abi.encode(\"MemberModule\")))).moduleAddress;\r\n    }\r\n\r\n    function authorizeAddress(address _contractDao, address _contractAddress) external onlyAuthorizeContractsOrOwner(_contractDao) {\r\n        authorizedContracts[_contractDao][_contractAddress] = true;\r\n    }\r\n\r\n    function denyAddress(address _contractDao, address _contractAddress) external onlyAuthorizeContractsOrOwner(_contractDao) {\r\n        authorizedContracts[_contractDao][_contractAddress] = false;\r\n    }\r\n}",
  "sourcePath": "C:\\Users\\mdmou\\source\\repos\\MY-DAO\\contracts\\Modules\\Implementations\\VotingYesNoModule.sol",
  "compiler": {
    "name": "solc",
    "version": "0.8.9+commit.e5eed63a.Emscripten.clang"
  },
  "schemaVersion": "3.4.4",
  "updatedAt": "2022-05-20T23:47:11.458Z",
  "devdoc": {
    "kind": "dev",
    "methods": {
      "owner()": {
        "details": "Returns the address of the current owner."
      },
      "renounceOwnership()": {
        "details": "Leaves the contract without owner. It will not be possible to call `onlyOwner` functions anymore. Can only be called by the current owner. NOTE: Renouncing ownership will leave the contract without an owner, thereby removing any functionality that is only available to the owner."
      },
      "transferOwnership(address)": {
        "details": "Transfers ownership of the contract to a new account (`newOwner`). Can only be called by the current owner."
      }
    },
    "version": 1
  },
  "userdoc": {
    "kind": "user",
    "methods": {},
    "version": 1
  }
}