{
  "contractName": "VotingYesNoModule",
  "abi": [
    {
      "anonymous": false,
      "inputs": [
        {
          "indexed": true,
          "internalType": "address",
          "name": "previousOwner",
          "type": "address"
        },
        {
          "indexed": true,
          "internalType": "address",
          "name": "newOwner",
          "type": "address"
        }
      ],
      "name": "OwnershipTransferred",
      "type": "event"
    },
    {
      "anonymous": false,
      "inputs": [
        {
          "indexed": false,
          "internalType": "address",
          "name": "creatorAddress",
          "type": "address"
        },
        {
          "indexed": false,
          "internalType": "string",
          "name": "name",
          "type": "string"
        }
      ],
      "name": "VoteSessionCreated",
      "type": "event"
    },
    {
      "anonymous": false,
      "inputs": [
        {
          "indexed": false,
          "internalType": "address",
          "name": "voterAddress",
          "type": "address"
        },
        {
          "indexed": false,
          "internalType": "uint256",
          "name": "voteSessionId",
          "type": "uint256"
        },
        {
          "indexed": false,
          "internalType": "enum VotingYesNoModule.responseEnum",
          "name": "response",
          "type": "uint8"
        }
      ],
      "name": "Voted",
      "type": "event"
    },
    {
      "inputs": [
        {
          "internalType": "address",
          "name": "",
          "type": "address"
        }
      ],
      "name": "daos",
      "outputs": [
        {
          "internalType": "address",
          "name": "addressDao",
          "type": "address"
        },
        {
          "internalType": "uint256",
          "name": "membersCount",
          "type": "uint256"
        },
        {
          "internalType": "bool",
          "name": "isActive",
          "type": "bool"
        }
      ],
      "stateMutability": "view",
      "type": "function",
      "constant": true
    },
    {
      "inputs": [],
      "name": "owner",
      "outputs": [
        {
          "internalType": "address",
          "name": "",
          "type": "address"
        }
      ],
      "stateMutability": "view",
      "type": "function",
      "constant": true
    },
    {
      "inputs": [],
      "name": "renounceOwnership",
      "outputs": [],
      "stateMutability": "nonpayable",
      "type": "function"
    },
    {
      "inputs": [
        {
          "internalType": "address",
          "name": "newOwner",
          "type": "address"
        }
      ],
      "name": "transferOwnership",
      "outputs": [],
      "stateMutability": "nonpayable",
      "type": "function"
    },
    {
      "inputs": [
        {
          "internalType": "address",
          "name": "",
          "type": "address"
        },
        {
          "internalType": "uint256",
          "name": "",
          "type": "uint256"
        }
      ],
      "name": "voteSessions",
      "outputs": [
        {
          "internalType": "address",
          "name": "creatorAddress",
          "type": "address"
        },
        {
          "internalType": "uint256",
          "name": "creationTime",
          "type": "uint256"
        },
        {
          "internalType": "string",
          "name": "name",
          "type": "string"
        },
        {
          "internalType": "string",
          "name": "description",
          "type": "string"
        },
        {
          "internalType": "bool",
          "name": "isTerminated",
          "type": "bool"
        },
        {
          "internalType": "enum VotingYesNoModule.durationEnum",
          "name": "duration",
          "type": "uint8"
        },
        {
          "internalType": "bool",
          "name": "isCreated",
          "type": "bool"
        }
      ],
      "stateMutability": "view",
      "type": "function",
      "constant": true
    },
    {
      "inputs": [],
      "name": "voteSessionsCount",
      "outputs": [
        {
          "internalType": "uint256",
          "name": "",
          "type": "uint256"
        }
      ],
      "stateMutability": "view",
      "type": "function",
      "constant": true
    },
    {
      "inputs": [
        {
          "internalType": "address",
          "name": "_contractDao",
          "type": "address"
        },
        {
          "internalType": "string",
          "name": "name",
          "type": "string"
        },
        {
          "internalType": "string",
          "name": "description",
          "type": "string"
        },
        {
          "internalType": "uint8",
          "name": "duration",
          "type": "uint8"
        }
      ],
      "name": "createVote",
      "outputs": [],
      "stateMutability": "nonpayable",
      "type": "function"
    },
    {
      "inputs": [
        {
          "internalType": "address",
          "name": "_contractDao",
          "type": "address"
        },
        {
          "internalType": "uint256",
          "name": "voteSessionId",
          "type": "uint256"
        },
        {
          "internalType": "uint8",
          "name": "response",
          "type": "uint8"
        }
      ],
      "name": "vote",
      "outputs": [],
      "stateMutability": "nonpayable",
      "type": "function"
    },
    {
      "inputs": [
        {
          "internalType": "address",
          "name": "_contractDao",
          "type": "address"
        },
        {
          "internalType": "uint256",
          "name": "voteSessionId",
          "type": "uint256"
        }
      ],
      "name": "isVoteSessionDurationExpired",
      "outputs": [
        {
          "internalType": "bool",
          "name": "",
          "type": "bool"
        }
      ],
      "stateMutability": "view",
      "type": "function",
      "constant": true
    },
    {
      "inputs": [
        {
          "internalType": "address",
          "name": "_contractDao",
          "type": "address"
        },
        {
          "internalType": "uint256",
          "name": "voteSessionId",
          "type": "uint256"
        },
        {
          "internalType": "address",
          "name": "voter",
          "type": "address"
        }
      ],
      "name": "hasVoted",
      "outputs": [
        {
          "internalType": "bool",
          "name": "",
          "type": "bool"
        }
      ],
      "stateMutability": "view",
      "type": "function",
      "constant": true
    },
    {
      "inputs": [
        {
          "internalType": "address",
          "name": "_contractDao",
          "type": "address"
        },
        {
          "internalType": "address",
          "name": "_memberDao",
          "type": "address"
        }
      ],
      "name": "addDao",
      "outputs": [],
      "stateMutability": "nonpayable",
      "type": "function"
    }
  ],
  "bytecode": "0x60806040523480156200001157600080fd5b50620000446200002f6200004a640100000000026401000000009004565b62000052640100000000026401000000009004565b62000116565b600033905090565b60008060009054906101000a900473ffffffffffffffffffffffffffffffffffffffff169050816000806101000a81548173ffffffffffffffffffffffffffffffffffffffff021916908373ffffffffffffffffffffffffffffffffffffffff1602179055508173ffffffffffffffffffffffffffffffffffffffff168173ffffffffffffffffffffffffffffffffffffffff167f8be0079c531659141344cd1fd0a4f28419497f9722a3daafe3b4186f6b6457e060405160405180910390a35050565b6125c380620001266000396000f3fe608060405234801561001057600080fd5b50600436106100c6576000357c0100000000000000000000000000000000000000000000000000000000900480638b1ce2ef1161008e5780638b1ce2ef146101595780638da5cb5b14610189578063c25f3cf6146101a7578063e69a190a146101d9578063ebd0e27a1461020f578063f2fde38b1461022d576100c6565b80630fae38ac146100cb57806312ee7e41146100fb57806338e58af0146101175780636a348b7b14610133578063715018a61461014f575b600080fd5b6100e560048036038101906100e091906117ad565b610249565b6040516100f2919061181b565b60405180910390f35b61011560048036038101906101109190611836565b610395565b005b610131600480360381019061012c91906119f5565b6106e9565b005b61014d60048036038101906101489190611a94565b6109a6565b005b610157610f22565b005b610173600480360381019061016e9190611ae7565b610faa565b604051610180919061181b565b60405180910390f35b610191611272565b60405161019e9190611b36565b60405180910390f35b6101c160048036038101906101bc9190611b51565b61129b565b6040516101d093929190611b8d565b60405180910390f35b6101f360048036038101906101ee9190611ae7565b6112f2565b6040516102069796959493929190611cc3565b60405180910390f35b610217611498565b6040516102249190611d40565b60405180910390f35b61024760048036038101906102429190611b51565b61149e565b005b6000600360008573ffffffffffffffffffffffffffffffffffffffff1673ffffffffffffffffffffffffffffffffffffffff168152602001908152602001600020600084815260200190815260200160002060070160019054906101000a900460ff166102eb576040517f08c379a00000000000000000000000000000000000000000000000000000000081526004016102e290611da7565b60405180910390fd5b600360008573ffffffffffffffffffffffffffffffffffffffff1673ffffffffffffffffffffffffffffffffffffffff168152602001908152602001600020600084815260200190815260200160002060050160008373ffffffffffffffffffffffffffffffffffffffff1673ffffffffffffffffffffffffffffffffffffffff16815260200190815260200160002060000160159054906101000a900460ff1690509392505050565b8160011515600560008373ffffffffffffffffffffffffffffffffffffffff1673ffffffffffffffffffffffffffffffffffffffff16815260200190815260200160002060003373ffffffffffffffffffffffffffffffffffffffff1673ffffffffffffffffffffffffffffffffffffffff16815260200190815260200160002060009054906101000a900460ff16151514610466576040517f08c379a000000000000000000000000000000000000000000000000000000000815260040161045d90611e13565b60405180910390fd5b600460008473ffffffffffffffffffffffffffffffffffffffff1673ffffffffffffffffffffffffffffffffffffffff16815260200190815260200160002060040160009054906101000a900460ff16156104f6576040517f08c379a00000000000000000000000000000000000000000000000000000000081526004016104ed90611e7f565b60405180910390fd5b6001600460008573ffffffffffffffffffffffffffffffffffffffff1673ffffffffffffffffffffffffffffffffffffffff16815260200190815260200160002060040160006101000a81548160ff02191690831515021790555082600460008573ffffffffffffffffffffffffffffffffffffffff1673ffffffffffffffffffffffffffffffffffffffff16815260200190815260200160002060000160006101000a81548173ffffffffffffffffffffffffffffffffffffffff021916908373ffffffffffffffffffffffffffffffffffffffff1602179055508273ffffffffffffffffffffffffffffffffffffffff1663d8d8e93c6040516020016105fd90611eeb565b604051602081830303815290604052805190602001206040518263ffffffff167c010000000000000000000000000000000000000000000000000000000002815260040161064b9190611f46565b60006040518083038186803b15801561066357600080fd5b505afa158015610677573d6000803e3d6000fd5b505050506040513d6000823e3d601f19601f820116820180604052508101906106a09190612119565b60200151600660006101000a81548173ffffffffffffffffffffffffffffffffffffffff021916908373ffffffffffffffffffffffffffffffffffffffff160217905550505050565b6002600081546106f890612191565b919050819055506000600360008673ffffffffffffffffffffffffffffffffffffffff1673ffffffffffffffffffffffffffffffffffffffff1681526020019081526020016000206000600254815260200190815260200160002060040160006101000a81548160ff02191690831515021790555082600360008673ffffffffffffffffffffffffffffffffffffffff1673ffffffffffffffffffffffffffffffffffffffff1681526020019081526020016000206000600254815260200190815260200160002060020190805190602001906107d6929190611662565b5081600360008673ffffffffffffffffffffffffffffffffffffffff1673ffffffffffffffffffffffffffffffffffffffff168152602001908152602001600020600060025481526020019081526020016000206003019080519060200190610840929190611662565b5033600360008673ffffffffffffffffffffffffffffffffffffffff1673ffffffffffffffffffffffffffffffffffffffff1681526020019081526020016000206000600254815260200190815260200160002060000160006101000a81548173ffffffffffffffffffffffffffffffffffffffff021916908373ffffffffffffffffffffffffffffffffffffffff1602179055508060ff1660018111156108eb576108ea611c4c565b5b600360008673ffffffffffffffffffffffffffffffffffffffff1673ffffffffffffffffffffffffffffffffffffffff1681526020019081526020016000206000600254815260200190815260200160002060070160006101000a81548160ff0219169083600181111561096257610961611c4c565b5b02179055507fcd6cc57f1b7b27f4de7516169856aba6cdae3616948048548d9e3893565c616033846040516109989291906121da565b60405180910390a150505050565b600360008473ffffffffffffffffffffffffffffffffffffffff1673ffffffffffffffffffffffffffffffffffffffff168152602001908152602001600020600083815260200190815260200160002060070160019054906101000a900460ff16610a46576040517f08c379a0000000000000000000000000000000000000000000000000000000008152600401610a3d90611da7565b60405180910390fd5b610a508383610faa565b610a8f576040517f08c379a0000000000000000000000000000000000000000000000000000000008152600401610a8690612256565b60405180910390fd5b610a9a838333610249565b610ad9576040517f08c379a0000000000000000000000000000000000000000000000000000000008152600401610ad0906122c2565b60405180910390fd5b600660009054906101000a900473ffffffffffffffffffffffffffffffffffffffff1673ffffffffffffffffffffffffffffffffffffffff166345ecd02f336040518263ffffffff167c0100000000000000000000000000000000000000000000000000000000028152600401610b509190611b36565b60206040518083038186803b158015610b6857600080fd5b505afa158015610b7c573d6000803e3d6000fd5b505050506040513d601f19601f82011682018060405250810190610ba091906122e2565b610bdf576040517f08c379a0000000000000000000000000000000000000000000000000000000008152600401610bd69061235b565b60405180910390fd5b8060ff166001811115610bf557610bf4611c4c565b5b600360008573ffffffffffffffffffffffffffffffffffffffff1673ffffffffffffffffffffffffffffffffffffffff1681526020019081526020016000206000600254815260200190815260200160002060050160003373ffffffffffffffffffffffffffffffffffffffff1673ffffffffffffffffffffffffffffffffffffffff16815260200190815260200160002060000160006101000a81548160ff02191690836001811115610cac57610cab611c4c565b5b02179055506001600360008573ffffffffffffffffffffffffffffffffffffffff1673ffffffffffffffffffffffffffffffffffffffff1681526020019081526020016000206000600254815260200190815260200160002060050160003373ffffffffffffffffffffffffffffffffffffffff1673ffffffffffffffffffffffffffffffffffffffff16815260200190815260200160002060000160156101000a81548160ff021916908315150217905550600360008473ffffffffffffffffffffffffffffffffffffffff1673ffffffffffffffffffffffffffffffffffffffff1681526020019081526020016000206000600254815260200190815260200160002060060160405180606001604052808360ff166001811115610dd557610dd4611c4c565b5b6001811115610de757610de6611c4c565b5b81526020013373ffffffffffffffffffffffffffffffffffffffff168152602001600115158152509080600181540180825580915050600190039060005260206000200160009091909190915060008201518160000160006101000a81548160ff02191690836001811115610e5f57610e5e611c4c565b5b021790555060208201518160000160016101000a81548173ffffffffffffffffffffffffffffffffffffffff021916908373ffffffffffffffffffffffffffffffffffffffff16021790555060408201518160000160156101000a81548160ff02191690831515021790555050507fcc66c27f993ef125e1b985d84a52726edc66dcc64e94d172f80253e37d52637233838360ff166001811115610f0657610f05611c4c565b5b604051610f15939291906123c3565b60405180910390a1505050565b610f2a611596565b73ffffffffffffffffffffffffffffffffffffffff16610f48611272565b73ffffffffffffffffffffffffffffffffffffffff1614610f9e576040517f08c379a0000000000000000000000000000000000000000000000000000000008152600401610f9590612446565b60405180910390fd5b610fa8600061159e565b565b6000600360008473ffffffffffffffffffffffffffffffffffffffff1673ffffffffffffffffffffffffffffffffffffffff168152602001908152602001600020600083815260200190815260200160002060070160019054906101000a900460ff1661104c576040517f08c379a000000000000000000000000000000000000000000000000000000000815260040161104390611da7565b60405180910390fd5b600360008473ffffffffffffffffffffffffffffffffffffffff1673ffffffffffffffffffffffffffffffffffffffff168152602001908152602001600020600083815260200190815260200160002060040160009054906101000a900460ff16156110bb576001905061126c565b6000600360008573ffffffffffffffffffffffffffffffffffffffff1673ffffffffffffffffffffffffffffffffffffffff1681526020019081526020016000206000848152602001908152602001600020600101544261111c9190612466565b90506000600181111561113257611131611c4c565b5b600360008673ffffffffffffffffffffffffffffffffffffffff1673ffffffffffffffffffffffffffffffffffffffff168152602001908152602001600020600085815260200190815260200160002060070160009054906101000a900460ff1660018111156111a5576111a4611c4c565b5b1480156111b35750610e1081115b156111c257600191505061126c565b6001808111156111d5576111d4611c4c565b5b600360008673ffffffffffffffffffffffffffffffffffffffff1673ffffffffffffffffffffffffffffffffffffffff168152602001908152602001600020600085815260200190815260200160002060070160009054906101000a900460ff16600181111561124857611247611c4c565b5b14801561125757506201518081115b1561126657600191505061126c565b60009150505b92915050565b60008060009054906101000a900473ffffffffffffffffffffffffffffffffffffffff16905090565b60046020528060005260406000206000915090508060000160009054906101000a900473ffffffffffffffffffffffffffffffffffffffff16908060010154908060040160009054906101000a900460ff16905083565b6003602052816000526040600020602052806000526040600020600091509150508060000160009054906101000a900473ffffffffffffffffffffffffffffffffffffffff169080600101549080600201805461134e906124c9565b80601f016020809104026020016040519081016040528092919081815260200182805461137a906124c9565b80156113c75780601f1061139c576101008083540402835291602001916113c7565b820191906000526020600020905b8154815290600101906020018083116113aa57829003601f168201915b5050505050908060030180546113dc906124c9565b80601f0160208091040260200160405190810160405280929190818152602001828054611408906124c9565b80156114555780601f1061142a57610100808354040283529160200191611455565b820191906000526020600020905b81548152906001019060200180831161143857829003601f168201915b5050505050908060040160009054906101000a900460ff16908060070160009054906101000a900460ff16908060070160019054906101000a900460ff16905087565b60025481565b6114a6611596565b73ffffffffffffffffffffffffffffffffffffffff166114c4611272565b73ffffffffffffffffffffffffffffffffffffffff161461151a576040517f08c379a000000000000000000000000000000000000000000000000000000000815260040161151190612446565b60405180910390fd5b600073ffffffffffffffffffffffffffffffffffffffff168173ffffffffffffffffffffffffffffffffffffffff16141561158a576040517f08c379a00000000000000000000000000000000000000000000000000000000081526004016115819061256d565b60405180910390fd5b6115938161159e565b50565b600033905090565b60008060009054906101000a900473ffffffffffffffffffffffffffffffffffffffff169050816000806101000a81548173ffffffffffffffffffffffffffffffffffffffff021916908373ffffffffffffffffffffffffffffffffffffffff1602179055508173ffffffffffffffffffffffffffffffffffffffff168173ffffffffffffffffffffffffffffffffffffffff167f8be0079c531659141344cd1fd0a4f28419497f9722a3daafe3b4186f6b6457e060405160405180910390a35050565b82805461166e906124c9565b90600052602060002090601f01602090048101928261169057600085556116d7565b82601f106116a957805160ff19168380011785556116d7565b828001600101855582156116d7579182015b828111156116d65782518255916020019190600101906116bb565b5b5090506116e491906116e8565b5090565b5b808211156117015760008160009055506001016116e9565b5090565b6000604051905090565b600080fd5b600080fd5b600073ffffffffffffffffffffffffffffffffffffffff82169050919050565b600061174482611719565b9050919050565b61175481611739565b811461175f57600080fd5b50565b6000813590506117718161174b565b92915050565b6000819050919050565b61178a81611777565b811461179557600080fd5b50565b6000813590506117a781611781565b92915050565b6000806000606084860312156117c6576117c561170f565b5b60006117d486828701611762565b93505060206117e586828701611798565b92505060406117f686828701611762565b9150509250925092565b60008115159050919050565b61181581611800565b82525050565b6000602082019050611830600083018461180c565b92915050565b6000806040838503121561184d5761184c61170f565b5b600061185b85828601611762565b925050602061186c85828601611762565b9150509250929050565b600080fd5b600080fd5b6000601f19601f8301169050919050565b7f4e487b7100000000000000000000000000000000000000000000000000000000600052604160045260246000fd5b6118c982611880565b810181811067ffffffffffffffff821117156118e8576118e7611891565b5b80604052505050565b60006118fb611705565b905061190782826118c0565b919050565b600067ffffffffffffffff82111561192757611926611891565b5b61193082611880565b9050602081019050919050565b82818337600083830152505050565b600061195f61195a8461190c565b6118f1565b90508281526020810184848401111561197b5761197a61187b565b5b61198684828561193d565b509392505050565b600082601f8301126119a3576119a2611876565b5b81356119b384826020860161194c565b91505092915050565b600060ff82169050919050565b6119d2816119bc565b81146119dd57600080fd5b50565b6000813590506119ef816119c9565b92915050565b60008060008060808587031215611a0f57611a0e61170f565b5b6000611a1d87828801611762565b945050602085013567ffffffffffffffff811115611a3e57611a3d611714565b5b611a4a8782880161198e565b935050604085013567ffffffffffffffff811115611a6b57611a6a611714565b5b611a778782880161198e565b9250506060611a88878288016119e0565b91505092959194509250565b600080600060608486031215611aad57611aac61170f565b5b6000611abb86828701611762565b9350506020611acc86828701611798565b9250506040611add868287016119e0565b9150509250925092565b60008060408385031215611afe57611afd61170f565b5b6000611b0c85828601611762565b9250506020611b1d85828601611798565b9150509250929050565b611b3081611739565b82525050565b6000602082019050611b4b6000830184611b27565b92915050565b600060208284031215611b6757611b6661170f565b5b6000611b7584828501611762565b91505092915050565b611b8781611777565b82525050565b6000606082019050611ba26000830186611b27565b611baf6020830185611b7e565b611bbc604083018461180c565b949350505050565b600081519050919050565b600082825260208201905092915050565b60005b83811015611bfe578082015181840152602081019050611be3565b83811115611c0d576000848401525b50505050565b6000611c1e82611bc4565b611c288185611bcf565b9350611c38818560208601611be0565b611c4181611880565b840191505092915050565b7f4e487b7100000000000000000000000000000000000000000000000000000000600052602160045260246000fd5b60028110611c8c57611c8b611c4c565b5b50565b6000819050611c9d82611c7b565b919050565b6000611cad82611c8f565b9050919050565b611cbd81611ca2565b82525050565b600060e082019050611cd8600083018a611b27565b611ce56020830189611b7e565b8181036040830152611cf78188611c13565b90508181036060830152611d0b8187611c13565b9050611d1a608083018661180c565b611d2760a0830185611cb4565b611d3460c083018461180c565b98975050505050505050565b6000602082019050611d556000830184611b7e565b92915050565b7f566f74652073657373696f6e206e6f7420666f756e6400000000000000000000600082015250565b6000611d91601683611bcf565b9150611d9c82611d5b565b602082019050919050565b60006020820190508181036000830152611dc081611d84565b9050919050565b7f4e6f7420617574686f72697a6564000000000000000000000000000000000000600082015250565b6000611dfd600e83611bcf565b9150611e0882611dc7565b602082019050919050565b60006020820190508181036000830152611e2c81611df0565b9050919050565b7f44616f20616c7265616479206164646564000000000000000000000000000000600082015250565b6000611e69601183611bcf565b9150611e7482611e33565b602082019050919050565b60006020820190508181036000830152611e9881611e5c565b9050919050565b7f4d656d6265724d6f64756c650000000000000000000000000000000000000000600082015250565b6000611ed5600c83611bcf565b9150611ee082611e9f565b602082019050919050565b60006020820190508181036000830152611f0481611ec8565b9050919050565b60007fffffffffffffffff00000000000000000000000000000000000000000000000082169050919050565b611f4081611f0b565b82525050565b6000602082019050611f5b6000830184611f37565b92915050565b600080fd5b600080fd5b600081519050611f7a81611781565b92915050565b600081519050611f8f8161174b565b92915050565b611f9e81611800565b8114611fa957600080fd5b50565b600081519050611fbb81611f95565b92915050565b611fca81611f0b565b8114611fd557600080fd5b50565b600081519050611fe781611fc1565b92915050565b6000612000611ffb8461190c565b6118f1565b90508281526020810184848401111561201c5761201b61187b565b5b612027848285611be0565b509392505050565b600082601f83011261204457612043611876565b5b8151612054848260208601611fed565b91505092915050565b600060c0828403121561207357612072611f61565b5b61207d60c06118f1565b9050600061208d84828501611f6b565b60008301525060206120a184828501611f80565b60208301525060406120b584828501611fac565b60408301525060606120c984828501611fd8565b60608301525060806120dd84828501611fd8565b60808301525060a082015167ffffffffffffffff81111561210157612100611f66565b5b61210d8482850161202f565b60a08301525092915050565b60006020828403121561212f5761212e61170f565b5b600082015167ffffffffffffffff81111561214d5761214c611714565b5b6121598482850161205d565b91505092915050565b7f4e487b7100000000000000000000000000000000000000000000000000000000600052601160045260246000fd5b600061219c82611777565b91507fffffffffffffffffffffffffffffffffffffffffffffffffffffffffffffffff8214156121cf576121ce612162565b5b600182019050919050565b60006040820190506121ef6000830185611b27565b81810360208301526122018184611c13565b90509392505050565b7f566f74652073657373696f6e207465726d696e61746564000000000000000000600082015250565b6000612240601783611bcf565b915061224b8261220a565b602082019050919050565b6000602082019050818103600083015261226f81612233565b9050919050565b7f416c726561647920766f74656400000000000000000000000000000000000000600082015250565b60006122ac600d83611bcf565b91506122b782612276565b602082019050919050565b600060208201905081810360008301526122db8161229f565b9050919050565b6000602082840312156122f8576122f761170f565b5b600061230684828501611fac565b91505092915050565b7f4e6f742044414f206d656d626572000000000000000000000000000000000000600082015250565b6000612345600e83611bcf565b91506123508261230f565b602082019050919050565b6000602082019050818103600083015261237481612338565b9050919050565b6002811061238c5761238b611c4c565b5b50565b600081905061239d8261237b565b919050565b60006123ad8261238f565b9050919050565b6123bd816123a2565b82525050565b60006060820190506123d86000830186611b27565b6123e56020830185611b7e565b6123f260408301846123b4565b949350505050565b7f4f776e61626c653a2063616c6c6572206973206e6f7420746865206f776e6572600082015250565b6000612430602083611bcf565b915061243b826123fa565b602082019050919050565b6000602082019050818103600083015261245f81612423565b9050919050565b600061247182611777565b915061247c83611777565b92508282101561248f5761248e612162565b5b828203905092915050565b7f4e487b7100000000000000000000000000000000000000000000000000000000600052602260045260246000fd5b600060028204905060018216806124e157607f821691505b602082108114156124f5576124f461249a565b5b50919050565b7f4f776e61626c653a206e6577206f776e657220697320746865207a65726f206160008201527f6464726573730000000000000000000000000000000000000000000000000000602082015250565b6000612557602683611bcf565b9150612562826124fb565b604082019050919050565b600060208201905081810360008301526125868161254a565b905091905056fea2646970667358221220b9bef34e0e9e3bc545e5e20a46c3cac5c6eb046a0f73037670bc0188fa11392964736f6c63430008090033",
  "immutableReferences": {},
  "source": "// SPDX-License-Identifier: MIT\npragma solidity ^0.8.9;\n\nimport \"@openzeppelin/contracts/utils/math/SafeMath.sol\";\nimport \"@openzeppelin/contracts/access/Ownable.sol\";\nimport \"../../Data.sol\";\nimport \"../Interfaces/IMembersDAO.sol\";\nimport \"../../DaoBase.sol\";\n\n//is DaosFactory\ncontract VotingYesNoModule is Ownable {\n    using SafeMath for uint256;\n    //DaoBase private dao;\n    IMembersDao private membersDao;\n    uint256 public voteSessionsCount;\n    mapping(address => mapping(uint256 => voteSession)) public voteSessions;\n    mapping(address => Data.DaoMember) public daos;\n    mapping(address => mapping(address => bool)) private authorizedContracts;\n    address private memberModuleAddress;\n\n    struct voteSession {\n        address creatorAddress;\n        uint256 creationTime;\n        string name;\n        string description;\n        bool isTerminated;\n        mapping(address => voteResult) votes;\n        voteResult[] voteResults;\n        durationEnum duration;\n        bool isCreated;\n    }\n\n    struct voteResult {\n        responseEnum response;\n        address voter;\n        bool voted;\n    }\n\n    struct voteResponseResult {\n        responseEnum response;\n        uint256 voteNumbers;\n    } \n\n    enum responseEnum {\n        yes,\n        no\n    }\n\n    enum durationEnum {\n        oneHour,\n        oneDay\n    }\n\n    event VoteSessionCreated(address creatorAddress, string name);\n    event Voted(address voterAddress, uint256 voteSessionId, responseEnum response);\n\n    modifier onlyAuthorizeContracts(address _contractDao) {\n        require(authorizedContracts[_contractDao][msg.sender] == true, \"Not authorized\");\n        _;\n    }\n\n    function createVote(address _contractDao, string memory name, string memory description, uint8 duration) public {\n        ++voteSessionsCount;\n        voteSessions[_contractDao][voteSessionsCount].isTerminated = false;\n        voteSessions[_contractDao][voteSessionsCount].name = name;\n        voteSessions[_contractDao][voteSessionsCount].description = description;\n        voteSessions[_contractDao][voteSessionsCount].creatorAddress = msg.sender;\n        voteSessions[_contractDao][voteSessionsCount].duration = durationEnum(duration);\n        \n        emit VoteSessionCreated(msg.sender, name);\n    }\n\n    function vote(address _contractDao, uint256 voteSessionId, uint8 response) public {\n        require(voteSessions[_contractDao][voteSessionId].isCreated, \"Vote session not found\");\n        require(isVoteSessionDurationExpired(_contractDao, voteSessionId), \"Vote session terminated\");\n        require(hasVoted(_contractDao, voteSessionId, msg.sender), \"Already voted\");\n        require(IMembersDao(memberModuleAddress).isActiveMember(msg.sender), \"Not DAO member\");\n\n        voteSessions[_contractDao][voteSessionsCount].votes[msg.sender].response = responseEnum(response);\n        voteSessions[_contractDao][voteSessionsCount].votes[msg.sender].voted = true;\n        voteSessions[_contractDao][voteSessionsCount].voteResults.push(voteResult(responseEnum(response), msg.sender, true));\n        \n        emit Voted(msg.sender, voteSessionId, responseEnum(response));\n    }\n\n    function isVoteSessionDurationExpired(address _contractDao, uint256 voteSessionId) public view returns (bool) {\n        require(voteSessions[_contractDao][voteSessionId].isCreated, \"Vote session not found\");\n\n        if(voteSessions[_contractDao][voteSessionId].isTerminated)\n            return true;\n\n        uint256 deltaTimestamp = block.timestamp - voteSessions[_contractDao][voteSessionId].creationTime;\n        if(voteSessions[_contractDao][voteSessionId].duration == durationEnum.oneHour && deltaTimestamp > 1 hours)\n            return true;\n        if(voteSessions[_contractDao][voteSessionId].duration == durationEnum.oneDay && deltaTimestamp > 1 days)\n            return true;\n\n        return false;\n    }    \n\n    function hasVoted(address _contractDao, uint256 voteSessionId, address voter) public view returns (bool) {\n        require(voteSessions[_contractDao][voteSessionId].isCreated, \"Vote session not found\");\n\n        return voteSessions[_contractDao][voteSessionId].votes[voter].voted;\n    }     \n\n    function addDao(address _contractDao, address _memberDao) external onlyAuthorizeContracts(_contractDao) {\n        require(!daos[_contractDao].isActive, \"Dao already added\");\n        daos[_contractDao].isActive = true;\n        daos[_contractDao].addressDao = _contractDao;\n        memberModuleAddress = DaoBase(_contractDao).getModuleData(bytes8(keccak256(abi.encode(\"MemberModule\")))).moduleAddress;\n    }\n  \n}",
  "sourcePath": "/Users/chinoiserie/delivery/BLOCKCHAIN/Alyra/MY-DAO/contracts/Modules/Implementations/VotingYesNoModule.sol",
  "compiler": {
    "name": "solc",
    "version": "0.8.9+commit.e5eed63a.Emscripten.clang"
  },
  "schemaVersion": "3.2.0",
  "updatedAt": "2022-05-15T18:53:49.722Z",
  "networkType": "ethereum",
  "devdoc": {
    "kind": "dev",
    "methods": {
      "owner()": {
        "details": "Returns the address of the current owner."
      },
      "renounceOwnership()": {
        "details": "Leaves the contract without owner. It will not be possible to call `onlyOwner` functions anymore. Can only be called by the current owner. NOTE: Renouncing ownership will leave the contract without an owner, thereby removing any functionality that is only available to the owner."
      },
      "transferOwnership(address)": {
        "details": "Transfers ownership of the contract to a new account (`newOwner`). Can only be called by the current owner."
      }
    },
    "version": 1
  },
  "userdoc": {
    "kind": "user",
    "methods": {},
    "version": 1
  }
}