{
  "contractName": "VotingYesNoModule",
  "abi": [
    {
      "inputs": [
        {
          "internalType": "address",
          "name": "_contractFactory",
          "type": "address"
        }
      ],
      "stateMutability": "nonpayable",
      "type": "constructor"
    },
    {
      "anonymous": false,
      "inputs": [
        {
          "indexed": true,
          "internalType": "address",
          "name": "previousOwner",
          "type": "address"
        },
        {
          "indexed": true,
          "internalType": "address",
          "name": "newOwner",
          "type": "address"
        }
      ],
      "name": "OwnershipTransferred",
      "type": "event"
    },
    {
      "anonymous": false,
      "inputs": [
        {
          "indexed": false,
          "internalType": "address",
          "name": "creatorAddress",
          "type": "address"
        },
        {
          "indexed": false,
          "internalType": "string",
          "name": "name",
          "type": "string"
        },
        {
          "indexed": false,
          "internalType": "string",
          "name": "description",
          "type": "string"
        },
        {
          "indexed": false,
          "internalType": "uint256",
          "name": "id",
          "type": "uint256"
        }
      ],
      "name": "VoteSessionCreated",
      "type": "event"
    },
    {
      "anonymous": false,
      "inputs": [
        {
          "indexed": false,
          "internalType": "address",
          "name": "voterAddress",
          "type": "address"
        },
        {
          "indexed": false,
          "internalType": "uint256",
          "name": "voteSessionId",
          "type": "uint256"
        },
        {
          "indexed": false,
          "internalType": "enum VotingYesNoModule.responseEnum",
          "name": "response",
          "type": "uint8"
        }
      ],
      "name": "Voted",
      "type": "event"
    },
    {
      "inputs": [
        {
          "internalType": "address",
          "name": "",
          "type": "address"
        },
        {
          "internalType": "address",
          "name": "",
          "type": "address"
        }
      ],
      "name": "authorizedAddress",
      "outputs": [
        {
          "internalType": "bool",
          "name": "",
          "type": "bool"
        }
      ],
      "stateMutability": "view",
      "type": "function",
      "constant": true
    },
    {
      "inputs": [
        {
          "internalType": "address",
          "name": "",
          "type": "address"
        }
      ],
      "name": "daos",
      "outputs": [
        {
          "internalType": "address",
          "name": "addressDao",
          "type": "address"
        },
        {
          "internalType": "uint256",
          "name": "membersCount",
          "type": "uint256"
        },
        {
          "internalType": "bool",
          "name": "isActive",
          "type": "bool"
        }
      ],
      "stateMutability": "view",
      "type": "function",
      "constant": true
    },
    {
      "inputs": [],
      "name": "owner",
      "outputs": [
        {
          "internalType": "address",
          "name": "",
          "type": "address"
        }
      ],
      "stateMutability": "view",
      "type": "function",
      "constant": true
    },
    {
      "inputs": [],
      "name": "renounceOwnership",
      "outputs": [],
      "stateMutability": "nonpayable",
      "type": "function"
    },
    {
      "inputs": [
        {
          "internalType": "address",
          "name": "newOwner",
          "type": "address"
        }
      ],
      "name": "transferOwnership",
      "outputs": [],
      "stateMutability": "nonpayable",
      "type": "function"
    },
    {
      "inputs": [
        {
          "internalType": "address",
          "name": "",
          "type": "address"
        },
        {
          "internalType": "uint256",
          "name": "",
          "type": "uint256"
        }
      ],
      "name": "voteSessions",
      "outputs": [
        {
          "internalType": "address",
          "name": "creatorAddress",
          "type": "address"
        },
        {
          "internalType": "uint256",
          "name": "creationTime",
          "type": "uint256"
        },
        {
          "internalType": "string",
          "name": "name",
          "type": "string"
        },
        {
          "internalType": "string",
          "name": "description",
          "type": "string"
        },
        {
          "internalType": "bool",
          "name": "isTerminated",
          "type": "bool"
        },
        {
          "internalType": "uint256",
          "name": "votersCount",
          "type": "uint256"
        },
        {
          "internalType": "uint256",
          "name": "duration",
          "type": "uint256"
        },
        {
          "internalType": "bool",
          "name": "isCreated",
          "type": "bool"
        }
      ],
      "stateMutability": "view",
      "type": "function",
      "constant": true
    },
    {
      "inputs": [
        {
          "internalType": "address",
          "name": "",
          "type": "address"
        }
      ],
      "name": "voteSessionsCount",
      "outputs": [
        {
          "internalType": "uint256",
          "name": "",
          "type": "uint256"
        }
      ],
      "stateMutability": "view",
      "type": "function",
      "constant": true
    },
    {
      "inputs": [
        {
          "internalType": "address",
          "name": "_contractDao",
          "type": "address"
        }
      ],
      "name": "getVotesCount",
      "outputs": [
        {
          "internalType": "uint256",
          "name": "",
          "type": "uint256"
        }
      ],
      "stateMutability": "view",
      "type": "function",
      "constant": true
    },
    {
      "inputs": [
        {
          "internalType": "address",
          "name": "_contractDao",
          "type": "address"
        },
        {
          "internalType": "uint256",
          "name": "_voteSessionId",
          "type": "uint256"
        }
      ],
      "name": "getVotesResult",
      "outputs": [
        {
          "components": [
            {
              "internalType": "enum VotingYesNoModule.responseEnum",
              "name": "response",
              "type": "uint8"
            },
            {
              "internalType": "address",
              "name": "voter",
              "type": "address"
            },
            {
              "internalType": "bool",
              "name": "voted",
              "type": "bool"
            }
          ],
          "internalType": "struct VotingYesNoModule.voteResult[]",
          "name": "",
          "type": "tuple[]"
        }
      ],
      "stateMutability": "view",
      "type": "function",
      "constant": true
    },
    {
      "inputs": [
        {
          "internalType": "address",
          "name": "_contractDao",
          "type": "address"
        },
        {
          "internalType": "uint256",
          "name": "voteSessionId",
          "type": "uint256"
        },
        {
          "internalType": "address",
          "name": "_voterAddress",
          "type": "address"
        }
      ],
      "name": "getVoteInfo",
      "outputs": [
        {
          "components": [
            {
              "internalType": "enum VotingYesNoModule.responseEnum",
              "name": "response",
              "type": "uint8"
            },
            {
              "internalType": "address",
              "name": "voter",
              "type": "address"
            },
            {
              "internalType": "bool",
              "name": "voted",
              "type": "bool"
            }
          ],
          "internalType": "struct VotingYesNoModule.voteResult",
          "name": "",
          "type": "tuple"
        }
      ],
      "stateMutability": "view",
      "type": "function",
      "constant": true
    },
    {
      "inputs": [
        {
          "internalType": "address",
          "name": "_contractDao",
          "type": "address"
        },
        {
          "internalType": "uint256",
          "name": "voteSessionId",
          "type": "uint256"
        }
      ],
      "name": "getVoteSessionInfo",
      "outputs": [
        {
          "internalType": "address",
          "name": "creatorAddress",
          "type": "address"
        },
        {
          "internalType": "uint256",
          "name": "creationTime",
          "type": "uint256"
        },
        {
          "internalType": "string",
          "name": "name",
          "type": "string"
        },
        {
          "internalType": "string",
          "name": "description",
          "type": "string"
        },
        {
          "internalType": "bool",
          "name": "isTerminated",
          "type": "bool"
        },
        {
          "internalType": "uint256",
          "name": "votersCount",
          "type": "uint256"
        },
        {
          "internalType": "uint256",
          "name": "duration",
          "type": "uint256"
        }
      ],
      "stateMutability": "view",
      "type": "function",
      "constant": true
    },
    {
      "inputs": [
        {
          "internalType": "address",
          "name": "_contractDao",
          "type": "address"
        },
        {
          "internalType": "uint256",
          "name": "voteSessionId",
          "type": "uint256"
        },
        {
          "internalType": "uint256",
          "name": "voterId",
          "type": "uint256"
        }
      ],
      "name": "getVoterAddressById",
      "outputs": [
        {
          "internalType": "address",
          "name": "",
          "type": "address"
        }
      ],
      "stateMutability": "view",
      "type": "function",
      "constant": true
    },
    {
      "inputs": [
        {
          "internalType": "address",
          "name": "_contractDao",
          "type": "address"
        },
        {
          "internalType": "uint256",
          "name": "voteSessionId",
          "type": "uint256"
        }
      ],
      "name": "getVotersCount",
      "outputs": [
        {
          "internalType": "uint256",
          "name": "",
          "type": "uint256"
        }
      ],
      "stateMutability": "view",
      "type": "function",
      "constant": true
    },
    {
      "inputs": [
        {
          "internalType": "address",
          "name": "_contractDao",
          "type": "address"
        },
        {
          "internalType": "string",
          "name": "name",
          "type": "string"
        },
        {
          "internalType": "string",
          "name": "description",
          "type": "string"
        },
        {
          "internalType": "uint256",
          "name": "duration",
          "type": "uint256"
        }
      ],
      "name": "createVote",
      "outputs": [],
      "stateMutability": "nonpayable",
      "type": "function"
    },
    {
      "inputs": [
        {
          "internalType": "address",
          "name": "_contractDao",
          "type": "address"
        },
        {
          "internalType": "uint256",
          "name": "voteSessionId",
          "type": "uint256"
        },
        {
          "internalType": "uint8",
          "name": "response",
          "type": "uint8"
        }
      ],
      "name": "vote",
      "outputs": [],
      "stateMutability": "nonpayable",
      "type": "function"
    },
    {
      "inputs": [
        {
          "internalType": "address",
          "name": "_contractDao",
          "type": "address"
        },
        {
          "internalType": "uint256",
          "name": "voteSessionId",
          "type": "uint256"
        },
        {
          "internalType": "address",
          "name": "voter",
          "type": "address"
        }
      ],
      "name": "hasVoted",
      "outputs": [
        {
          "internalType": "bool",
          "name": "",
          "type": "bool"
        }
      ],
      "stateMutability": "view",
      "type": "function",
      "constant": true
    },
    {
      "inputs": [
        {
          "internalType": "address",
          "name": "_contractDao",
          "type": "address"
        },
        {
          "internalType": "address",
          "name": "_memberDao",
          "type": "address"
        }
      ],
      "name": "addDao",
      "outputs": [],
      "stateMutability": "nonpayable",
      "type": "function"
    },
    {
      "inputs": [
        {
          "internalType": "address",
          "name": "_contractDao",
          "type": "address"
        },
        {
          "internalType": "address",
          "name": "_contractAddress",
          "type": "address"
        }
      ],
      "name": "authorizeAddress",
      "outputs": [],
      "stateMutability": "nonpayable",
      "type": "function"
    },
    {
      "inputs": [
        {
          "internalType": "address",
          "name": "_contractDao",
          "type": "address"
        },
        {
          "internalType": "address",
          "name": "_contractAddress",
          "type": "address"
        }
      ],
      "name": "denyAddress",
      "outputs": [],
      "stateMutability": "nonpayable",
      "type": "function"
    }
  ],
  "bytecode": "0x60806040523480156200001157600080fd5b5060405162003dda38038062003dda8339818101604052810190620000379190620001c0565b62000069620000546200008a640100000000026401000000009004565b62000092640100000000026401000000009004565b620000838162000092640100000000026401000000009004565b50620001f2565b600033905090565b60008060009054906101000a900473ffffffffffffffffffffffffffffffffffffffff169050816000806101000a81548173ffffffffffffffffffffffffffffffffffffffff021916908373ffffffffffffffffffffffffffffffffffffffff1602179055508173ffffffffffffffffffffffffffffffffffffffff168173ffffffffffffffffffffffffffffffffffffffff167f8be0079c531659141344cd1fd0a4f28419497f9722a3daafe3b4186f6b6457e060405160405180910390a35050565b600080fd5b600073ffffffffffffffffffffffffffffffffffffffff82169050919050565b600062000188826200015b565b9050919050565b6200019a816200017b565b8114620001a657600080fd5b50565b600081519050620001ba816200018f565b92915050565b600060208284031215620001d957620001d862000156565b5b6000620001e984828501620001a9565b91505092915050565b613bd880620002026000396000f3fe608060405234801561001057600080fd5b506004361061013e576000357c0100000000000000000000000000000000000000000000000000000000900480638da5cb5b116100ca578063db4d7dcd1161008e578063db4d7dcd14610377578063e498116f14610393578063e69a190a146103af578063f2fde38b146103e6578063fd95029a146104025761013e565b80638da5cb5b146102975780638f669505146102b5578063a5fc4dc6146102e5578063c19fe6c214610315578063c25f3cf6146103455761013e565b80636a348b7b116101115780636a348b7b146101db578063715018a6146101f7578063770e172a146102015780638670533014610237578063890222b6146102675761013e565b80630fae38ac1461014357806312ee7e4114610173578063144fdd5d1461018f57806327d06611146101bf575b600080fd5b61015d60048036038101906101589190612a85565b610432565b60405161016a9190612af3565b60405180910390f35b61018d60048036038101906101889190612b0e565b61057e565b005b6101a960048036038101906101a49190612b4e565b6109e4565b6040516101b69190612b9d565b60405180910390f35b6101d960048036038101906101d49190612cfe565b610a42565b005b6101f560048036038101906101f09190612dd6565b6111f6565b005b6101ff6119b3565b005b61021b60048036038101906102169190612b4e565b611a3b565b60405161022e9796959493929190612ec0565b60405180910390f35b610251600480360381019061024c9190612b4e565b611de9565b60405161025e91906130c3565b60405180910390f35b610281600480360381019061027c9190612b0e565b611f44565b60405161028e9190612af3565b60405180910390f35b61029f611f73565b6040516102ac91906130e5565b60405180910390f35b6102cf60048036038101906102ca9190613100565b611f9c565b6040516102dc91906130e5565b60405180910390f35b6102ff60048036038101906102fa9190613153565b61202c565b60405161030c9190612b9d565b60405180910390f35b61032f600480360381019061032a9190613153565b612044565b60405161033c9190612b9d565b60405180910390f35b61035f600480360381019061035a9190613153565b61208d565b60405161036e93929190613180565b60405180910390f35b610391600480360381019061038c9190612b0e565b6120e4565b005b6103ad60048036038101906103a89190612b0e565b61228c565b005b6103c960048036038101906103c49190612b4e565b612434565b6040516103dd9897969594939291906131b7565b60405180910390f35b61040060048036038101906103fb9190613153565b6125d3565b005b61041c60048036038101906104179190612a85565b6126cb565b6040516104299190613285565b60405180910390f35b6000600360008573ffffffffffffffffffffffffffffffffffffffff1673ffffffffffffffffffffffffffffffffffffffff1681526020019081526020016000206000848152602001908152602001600020600a0160009054906101000a900460ff166104d4576040517f08c379a00000000000000000000000000000000000000000000000000000000081526004016104cb906132ec565b60405180910390fd5b600360008573ffffffffffffffffffffffffffffffffffffffff1673ffffffffffffffffffffffffffffffffffffffff168152602001908152602001600020600084815260200190815260200160002060060160008373ffffffffffffffffffffffffffffffffffffffff1673ffffffffffffffffffffffffffffffffffffffff16815260200190815260200160002060000160159054906101000a900460ff1690509392505050565b8160011515600560008373ffffffffffffffffffffffffffffffffffffffff1673ffffffffffffffffffffffffffffffffffffffff16815260200190815260200160002060003373ffffffffffffffffffffffffffffffffffffffff1673ffffffffffffffffffffffffffffffffffffffff16815260200190815260200160002060009054906101000a900460ff161515148061064d575061061e611f73565b73ffffffffffffffffffffffffffffffffffffffff163373ffffffffffffffffffffffffffffffffffffffff16145b61068c576040517f08c379a000000000000000000000000000000000000000000000000000000000815260040161068390613358565b60405180910390fd5b600460008473ffffffffffffffffffffffffffffffffffffffff1673ffffffffffffffffffffffffffffffffffffffff16815260200190815260200160002060040160009054906101000a900460ff161561071c576040517f08c379a0000000000000000000000000000000000000000000000000000000008152600401610713906133c4565b60405180910390fd5b6001600460008573ffffffffffffffffffffffffffffffffffffffff1673ffffffffffffffffffffffffffffffffffffffff16815260200190815260200160002060040160006101000a81548160ff02191690831515021790555082600460008573ffffffffffffffffffffffffffffffffffffffff1673ffffffffffffffffffffffffffffffffffffffff16815260200190815260200160002060000160006101000a81548173ffffffffffffffffffffffffffffffffffffffff021916908373ffffffffffffffffffffffffffffffffffffffff1602179055508273ffffffffffffffffffffffffffffffffffffffff16636323997760405160200161082390613430565b6040516020818303038152906040528051906020012060006040518363ffffffff167c01000000000000000000000000000000000000000000000000000000000281526004016108749291906134d0565b60006040518083038186803b15801561088c57600080fd5b505afa1580156108a0573d6000803e3d6000fd5b505050506040513d6000823e3d601f19601f820116820180604052508101906108c991906136c5565b60200151600660008573ffffffffffffffffffffffffffffffffffffffff1673ffffffffffffffffffffffffffffffffffffffff16815260200190815260200160002060006101000a81548173ffffffffffffffffffffffffffffffffffffffff021916908373ffffffffffffffffffffffffffffffffffffffff1602179055506001600560008573ffffffffffffffffffffffffffffffffffffffff1673ffffffffffffffffffffffffffffffffffffffff16815260200190815260200160002060008473ffffffffffffffffffffffffffffffffffffffff1673ffffffffffffffffffffffffffffffffffffffff16815260200190815260200160002060006101000a81548160ff021916908315150217905550505050565b6000600360008473ffffffffffffffffffffffffffffffffffffffff1673ffffffffffffffffffffffffffffffffffffffff168152602001908152602001600020600083815260200190815260200160002060050154905092915050565b600660008573ffffffffffffffffffffffffffffffffffffffff1673ffffffffffffffffffffffffffffffffffffffff16815260200190815260200160002060009054906101000a900473ffffffffffffffffffffffffffffffffffffffff1673ffffffffffffffffffffffffffffffffffffffff16638ecf772085336040518363ffffffff167c0100000000000000000000000000000000000000000000000000000000028152600401610af892919061370e565b60206040518083038186803b158015610b1057600080fd5b505afa158015610b24573d6000803e3d6000fd5b505050506040513d601f19601f82011682018060405250810190610b489190613737565b610b87576040517f08c379a0000000000000000000000000000000000000000000000000000000008152600401610b7e906137b0565b60405180910390fd5b6000600360008673ffffffffffffffffffffffffffffffffffffffff1673ffffffffffffffffffffffffffffffffffffffff1681526020019081526020016000206000600260008873ffffffffffffffffffffffffffffffffffffffff1673ffffffffffffffffffffffffffffffffffffffff16815260200190815260200160002054815260200190815260200160002060040160006101000a81548160ff0219169083151502179055506001600360008673ffffffffffffffffffffffffffffffffffffffff1673ffffffffffffffffffffffffffffffffffffffff1681526020019081526020016000206000600260008873ffffffffffffffffffffffffffffffffffffffff1673ffffffffffffffffffffffffffffffffffffffff168152602001908152602001600020548152602001908152602001600020600a0160006101000a81548160ff02191690831515021790555042600360008673ffffffffffffffffffffffffffffffffffffffff1673ffffffffffffffffffffffffffffffffffffffff1681526020019081526020016000206000600260008873ffffffffffffffffffffffffffffffffffffffff1673ffffffffffffffffffffffffffffffffffffffff1681526020019081526020016000205481526020019081526020016000206001018190555082600360008673ffffffffffffffffffffffffffffffffffffffff1673ffffffffffffffffffffffffffffffffffffffff1681526020019081526020016000206000600260008873ffffffffffffffffffffffffffffffffffffffff1673ffffffffffffffffffffffffffffffffffffffff1681526020019081526020016000205481526020019081526020016000206002019080519060200190610e1a9291906128ef565b5081600360008673ffffffffffffffffffffffffffffffffffffffff1673ffffffffffffffffffffffffffffffffffffffff1681526020019081526020016000206000600260008873ffffffffffffffffffffffffffffffffffffffff1673ffffffffffffffffffffffffffffffffffffffff1681526020019081526020016000205481526020019081526020016000206003019080519060200190610ec19291906128ef565b5033600360008673ffffffffffffffffffffffffffffffffffffffff1673ffffffffffffffffffffffffffffffffffffffff1681526020019081526020016000206000600260008873ffffffffffffffffffffffffffffffffffffffff1673ffffffffffffffffffffffffffffffffffffffff16815260200190815260200160002054815260200190815260200160002060000160006101000a81548173ffffffffffffffffffffffffffffffffffffffff021916908373ffffffffffffffffffffffffffffffffffffffff16021790555080600360008673ffffffffffffffffffffffffffffffffffffffff1673ffffffffffffffffffffffffffffffffffffffff1681526020019081526020016000206000600260008873ffffffffffffffffffffffffffffffffffffffff1673ffffffffffffffffffffffffffffffffffffffff168152602001908152602001600020548152602001908152602001600020600901819055506000600360008673ffffffffffffffffffffffffffffffffffffffff1673ffffffffffffffffffffffffffffffffffffffff1681526020019081526020016000206000600260008873ffffffffffffffffffffffffffffffffffffffff1673ffffffffffffffffffffffffffffffffffffffff16815260200190815260200160002054815260200190815260200160002060060160003373ffffffffffffffffffffffffffffffffffffffff1673ffffffffffffffffffffffffffffffffffffffff16815260200190815260200160002060000160156101000a81548160ff021916908315150217905550600260008573ffffffffffffffffffffffffffffffffffffffff1673ffffffffffffffffffffffffffffffffffffffff16815260200190815260200160002060008154611161906137ff565b919050819055507fc9dacb6f995d8bca3f0a5e84d106a122c00f8df2dda6a759eec9c7353701ae053384846001600260008a73ffffffffffffffffffffffffffffffffffffffff1673ffffffffffffffffffffffffffffffffffffffff168152602001908152602001600020546111d89190613848565b6040516111e8949392919061387c565b60405180910390a150505050565b600360008473ffffffffffffffffffffffffffffffffffffffff1673ffffffffffffffffffffffffffffffffffffffff1681526020019081526020016000206000838152602001908152602001600020600a0160009054906101000a900460ff16611296576040517f08c379a000000000000000000000000000000000000000000000000000000000815260040161128d906132ec565b60405180910390fd5b600360008473ffffffffffffffffffffffffffffffffffffffff1673ffffffffffffffffffffffffffffffffffffffff168152602001908152602001600020600083815260200190815260200160002060090154600360008573ffffffffffffffffffffffffffffffffffffffff1673ffffffffffffffffffffffffffffffffffffffff16815260200190815260200160002060008481526020019081526020016000206001015461134891906138cf565b4210611389576040517f08c379a000000000000000000000000000000000000000000000000000000000815260040161138090613971565b60405180910390fd5b611394838333610432565b156113d4576040517f08c379a00000000000000000000000000000000000000000000000000000000081526004016113cb906139dd565b60405180910390fd5b600660008473ffffffffffffffffffffffffffffffffffffffff1673ffffffffffffffffffffffffffffffffffffffff16815260200190815260200160002060009054906101000a900473ffffffffffffffffffffffffffffffffffffffff1673ffffffffffffffffffffffffffffffffffffffff16638ecf772084336040518363ffffffff167c010000000000000000000000000000000000000000000000000000000002815260040161148a92919061370e565b60206040518083038186803b1580156114a257600080fd5b505afa1580156114b6573d6000803e3d6000fd5b505050506040513d601f19601f820116820180604052508101906114da9190613737565b611519576040517f08c379a0000000000000000000000000000000000000000000000000000000008152600401611510906137b0565b60405180910390fd5b33600360008573ffffffffffffffffffffffffffffffffffffffff1673ffffffffffffffffffffffffffffffffffffffff16815260200190815260200160002060008481526020019081526020016000206007016000600360008773ffffffffffffffffffffffffffffffffffffffff1673ffffffffffffffffffffffffffffffffffffffff168152602001908152602001600020600086815260200190815260200160002060050154815260200190815260200160002060006101000a81548173ffffffffffffffffffffffffffffffffffffffff021916908373ffffffffffffffffffffffffffffffffffffffff160217905550600360008473ffffffffffffffffffffffffffffffffffffffff1673ffffffffffffffffffffffffffffffffffffffff16815260200190815260200160002060008381526020019081526020016000206005016000815461166f906137ff565b919050819055508060ff16600181111561168c5761168b612f69565b5b600360008573ffffffffffffffffffffffffffffffffffffffff1673ffffffffffffffffffffffffffffffffffffffff168152602001908152602001600020600084815260200190815260200160002060060160003373ffffffffffffffffffffffffffffffffffffffff1673ffffffffffffffffffffffffffffffffffffffff16815260200190815260200160002060000160006101000a81548160ff0219169083600181111561174157611740612f69565b5b02179055506001600360008573ffffffffffffffffffffffffffffffffffffffff1673ffffffffffffffffffffffffffffffffffffffff168152602001908152602001600020600084815260200190815260200160002060060160003373ffffffffffffffffffffffffffffffffffffffff1673ffffffffffffffffffffffffffffffffffffffff16815260200190815260200160002060000160156101000a81548160ff021916908315150217905550600360008473ffffffffffffffffffffffffffffffffffffffff1673ffffffffffffffffffffffffffffffffffffffff168152602001908152602001600020600083815260200190815260200160002060080160405180606001604052808360ff16600181111561186657611865612f69565b5b600181111561187857611877612f69565b5b81526020013373ffffffffffffffffffffffffffffffffffffffff168152602001600115158152509080600181540180825580915050600190039060005260206000200160009091909190915060008201518160000160006101000a81548160ff021916908360018111156118f0576118ef612f69565b5b021790555060208201518160000160016101000a81548173ffffffffffffffffffffffffffffffffffffffff021916908373ffffffffffffffffffffffffffffffffffffffff16021790555060408201518160000160156101000a81548160ff02191690831515021790555050507fcc66c27f993ef125e1b985d84a52726edc66dcc64e94d172f80253e37d52637233838360ff16600181111561199757611996612f69565b5b6040516119a693929190613a0c565b60405180910390a1505050565b6119bb612823565b73ffffffffffffffffffffffffffffffffffffffff166119d9611f73565b73ffffffffffffffffffffffffffffffffffffffff1614611a2f576040517f08c379a0000000000000000000000000000000000000000000000000000000008152600401611a2690613a8f565b60405180910390fd5b611a39600061282b565b565b6000806060806000806000600360008a73ffffffffffffffffffffffffffffffffffffffff1673ffffffffffffffffffffffffffffffffffffffff168152602001908152602001600020600089815260200190815260200160002060000160009054906101000a900473ffffffffffffffffffffffffffffffffffffffff169650600360008a73ffffffffffffffffffffffffffffffffffffffff1673ffffffffffffffffffffffffffffffffffffffff1681526020019081526020016000206000898152602001908152602001600020600101549550600360008a73ffffffffffffffffffffffffffffffffffffffff1673ffffffffffffffffffffffffffffffffffffffff16815260200190815260200160002060008981526020019081526020016000206002018054611b7090613ade565b80601f0160208091040260200160405190810160405280929190818152602001828054611b9c90613ade565b8015611be95780601f10611bbe57610100808354040283529160200191611be9565b820191906000526020600020905b815481529060010190602001808311611bcc57829003601f168201915b50505050509450600360008a73ffffffffffffffffffffffffffffffffffffffff1673ffffffffffffffffffffffffffffffffffffffff16815260200190815260200160002060008981526020019081526020016000206003018054611c4e90613ade565b80601f0160208091040260200160405190810160405280929190818152602001828054611c7a90613ade565b8015611cc75780601f10611c9c57610100808354040283529160200191611cc7565b820191906000526020600020905b815481529060010190602001808311611caa57829003601f168201915b50505050509350600360008a73ffffffffffffffffffffffffffffffffffffffff1673ffffffffffffffffffffffffffffffffffffffff168152602001908152602001600020600089815260200190815260200160002060040160009054906101000a900460ff169250600360008a73ffffffffffffffffffffffffffffffffffffffff1673ffffffffffffffffffffffffffffffffffffffff1681526020019081526020016000206000898152602001908152602001600020600501549150600360008a73ffffffffffffffffffffffffffffffffffffffff1673ffffffffffffffffffffffffffffffffffffffff168152602001908152602001600020600089815260200190815260200160002060090154905092959891949750929550565b6060600360008473ffffffffffffffffffffffffffffffffffffffff1673ffffffffffffffffffffffffffffffffffffffff1681526020019081526020016000206000838152602001908152602001600020600801805480602002602001604051908101604052809291908181526020016000905b82821015611f38578382906000526020600020016040518060600160405290816000820160009054906101000a900460ff166001811115611ea257611ea1612f69565b5b6001811115611eb457611eb3612f69565b5b81526020016000820160019054906101000a900473ffffffffffffffffffffffffffffffffffffffff1673ffffffffffffffffffffffffffffffffffffffff1673ffffffffffffffffffffffffffffffffffffffff1681526020016000820160159054906101000a900460ff16151515158152505081526020019060010190611e5e565b50505050905092915050565b60056020528160005260406000206020528060005260406000206000915091509054906101000a900460ff1681565b60008060009054906101000a900473ffffffffffffffffffffffffffffffffffffffff16905090565b6000600360008573ffffffffffffffffffffffffffffffffffffffff1673ffffffffffffffffffffffffffffffffffffffff1681526020019081526020016000206000848152602001908152602001600020600701600083815260200190815260200160002060009054906101000a900473ffffffffffffffffffffffffffffffffffffffff1690509392505050565b60026020528060005260406000206000915090505481565b6000600260008373ffffffffffffffffffffffffffffffffffffffff1673ffffffffffffffffffffffffffffffffffffffff168152602001908152602001600020549050919050565b60046020528060005260406000206000915090508060000160009054906101000a900473ffffffffffffffffffffffffffffffffffffffff16908060010154908060040160009054906101000a900460ff16905083565b8160011515600560008373ffffffffffffffffffffffffffffffffffffffff1673ffffffffffffffffffffffffffffffffffffffff16815260200190815260200160002060003373ffffffffffffffffffffffffffffffffffffffff1673ffffffffffffffffffffffffffffffffffffffff16815260200190815260200160002060009054906101000a900460ff16151514806121b35750612184611f73565b73ffffffffffffffffffffffffffffffffffffffff163373ffffffffffffffffffffffffffffffffffffffff16145b6121f2576040517f08c379a00000000000000000000000000000000000000000000000000000000081526004016121e990613358565b60405180910390fd5b6001600560008573ffffffffffffffffffffffffffffffffffffffff1673ffffffffffffffffffffffffffffffffffffffff16815260200190815260200160002060008473ffffffffffffffffffffffffffffffffffffffff1673ffffffffffffffffffffffffffffffffffffffff16815260200190815260200160002060006101000a81548160ff021916908315150217905550505050565b8160011515600560008373ffffffffffffffffffffffffffffffffffffffff1673ffffffffffffffffffffffffffffffffffffffff16815260200190815260200160002060003373ffffffffffffffffffffffffffffffffffffffff1673ffffffffffffffffffffffffffffffffffffffff16815260200190815260200160002060009054906101000a900460ff161515148061235b575061232c611f73565b73ffffffffffffffffffffffffffffffffffffffff163373ffffffffffffffffffffffffffffffffffffffff16145b61239a576040517f08c379a000000000000000000000000000000000000000000000000000000000815260040161239190613358565b60405180910390fd5b6000600560008573ffffffffffffffffffffffffffffffffffffffff1673ffffffffffffffffffffffffffffffffffffffff16815260200190815260200160002060008473ffffffffffffffffffffffffffffffffffffffff1673ffffffffffffffffffffffffffffffffffffffff16815260200190815260200160002060006101000a81548160ff021916908315150217905550505050565b6003602052816000526040600020602052806000526040600020600091509150508060000160009054906101000a900473ffffffffffffffffffffffffffffffffffffffff169080600101549080600201805461249090613ade565b80601f01602080910402602001604051908101604052809291908181526020018280546124bc90613ade565b80156125095780601f106124de57610100808354040283529160200191612509565b820191906000526020600020905b8154815290600101906020018083116124ec57829003601f168201915b50505050509080600301805461251e90613ade565b80601f016020809104026020016040519081016040528092919081815260200182805461254a90613ade565b80156125975780601f1061256c57610100808354040283529160200191612597565b820191906000526020600020905b81548152906001019060200180831161257a57829003601f168201915b5050505050908060040160009054906101000a900460ff169080600501549080600901549080600a0160009054906101000a900460ff16905088565b6125db612823565b73ffffffffffffffffffffffffffffffffffffffff166125f9611f73565b73ffffffffffffffffffffffffffffffffffffffff161461264f576040517f08c379a000000000000000000000000000000000000000000000000000000000815260040161264690613a8f565b60405180910390fd5b600073ffffffffffffffffffffffffffffffffffffffff168173ffffffffffffffffffffffffffffffffffffffff1614156126bf576040517f08c379a00000000000000000000000000000000000000000000000000000000081526004016126b690613b82565b60405180910390fd5b6126c88161282b565b50565b6126d3612975565b600360008573ffffffffffffffffffffffffffffffffffffffff1673ffffffffffffffffffffffffffffffffffffffff168152602001908152602001600020600084815260200190815260200160002060060160008373ffffffffffffffffffffffffffffffffffffffff1673ffffffffffffffffffffffffffffffffffffffff1681526020019081526020016000206040518060600160405290816000820160009054906101000a900460ff16600181111561279357612792612f69565b5b60018111156127a5576127a4612f69565b5b81526020016000820160019054906101000a900473ffffffffffffffffffffffffffffffffffffffff1673ffffffffffffffffffffffffffffffffffffffff1673ffffffffffffffffffffffffffffffffffffffff1681526020016000820160159054906101000a900460ff16151515158152505090509392505050565b600033905090565b60008060009054906101000a900473ffffffffffffffffffffffffffffffffffffffff169050816000806101000a81548173ffffffffffffffffffffffffffffffffffffffff021916908373ffffffffffffffffffffffffffffffffffffffff1602179055508173ffffffffffffffffffffffffffffffffffffffff168173ffffffffffffffffffffffffffffffffffffffff167f8be0079c531659141344cd1fd0a4f28419497f9722a3daafe3b4186f6b6457e060405160405180910390a35050565b8280546128fb90613ade565b90600052602060002090601f01602090048101928261291d5760008555612964565b82601f1061293657805160ff1916838001178555612964565b82800160010185558215612964579182015b82811115612963578251825591602001919060010190612948565b5b50905061297191906129c0565b5090565b60405180606001604052806000600181111561299457612993612f69565b5b8152602001600073ffffffffffffffffffffffffffffffffffffffff1681526020016000151581525090565b5b808211156129d95760008160009055506001016129c1565b5090565b6000604051905090565b600080fd5b600080fd5b600073ffffffffffffffffffffffffffffffffffffffff82169050919050565b6000612a1c826129f1565b9050919050565b612a2c81612a11565b8114612a3757600080fd5b50565b600081359050612a4981612a23565b92915050565b6000819050919050565b612a6281612a4f565b8114612a6d57600080fd5b50565b600081359050612a7f81612a59565b92915050565b600080600060608486031215612a9e57612a9d6129e7565b5b6000612aac86828701612a3a565b9350506020612abd86828701612a70565b9250506040612ace86828701612a3a565b9150509250925092565b60008115159050919050565b612aed81612ad8565b82525050565b6000602082019050612b086000830184612ae4565b92915050565b60008060408385031215612b2557612b246129e7565b5b6000612b3385828601612a3a565b9250506020612b4485828601612a3a565b9150509250929050565b60008060408385031215612b6557612b646129e7565b5b6000612b7385828601612a3a565b9250506020612b8485828601612a70565b9150509250929050565b612b9781612a4f565b82525050565b6000602082019050612bb26000830184612b8e565b92915050565b600080fd5b600080fd5b6000601f19601f8301169050919050565b7f4e487b7100000000000000000000000000000000000000000000000000000000600052604160045260246000fd5b612c0b82612bc2565b810181811067ffffffffffffffff82111715612c2a57612c29612bd3565b5b80604052505050565b6000612c3d6129dd565b9050612c498282612c02565b919050565b600067ffffffffffffffff821115612c6957612c68612bd3565b5b612c7282612bc2565b9050602081019050919050565b82818337600083830152505050565b6000612ca1612c9c84612c4e565b612c33565b905082815260208101848484011115612cbd57612cbc612bbd565b5b612cc8848285612c7f565b509392505050565b600082601f830112612ce557612ce4612bb8565b5b8135612cf5848260208601612c8e565b91505092915050565b60008060008060808587031215612d1857612d176129e7565b5b6000612d2687828801612a3a565b945050602085013567ffffffffffffffff811115612d4757612d466129ec565b5b612d5387828801612cd0565b935050604085013567ffffffffffffffff811115612d7457612d736129ec565b5b612d8087828801612cd0565b9250506060612d9187828801612a70565b91505092959194509250565b600060ff82169050919050565b612db381612d9d565b8114612dbe57600080fd5b50565b600081359050612dd081612daa565b92915050565b600080600060608486031215612def57612dee6129e7565b5b6000612dfd86828701612a3a565b9350506020612e0e86828701612a70565b9250506040612e1f86828701612dc1565b9150509250925092565b612e3281612a11565b82525050565b600081519050919050565b600082825260208201905092915050565b60005b83811015612e72578082015181840152602081019050612e57565b83811115612e81576000848401525b50505050565b6000612e9282612e38565b612e9c8185612e43565b9350612eac818560208601612e54565b612eb581612bc2565b840191505092915050565b600060e082019050612ed5600083018a612e29565b612ee26020830189612b8e565b8181036040830152612ef48188612e87565b90508181036060830152612f088187612e87565b9050612f176080830186612ae4565b612f2460a0830185612b8e565b612f3160c0830184612b8e565b98975050505050505050565b600081519050919050565b600082825260208201905092915050565b6000819050602082019050919050565b7f4e487b7100000000000000000000000000000000000000000000000000000000600052602160045260246000fd5b60028110612fa957612fa8612f69565b5b50565b6000819050612fba82612f98565b919050565b6000612fca82612fac565b9050919050565b612fda81612fbf565b82525050565b612fe981612a11565b82525050565b612ff881612ad8565b82525050565b6060820160008201516130146000850182612fd1565b5060208201516130276020850182612fe0565b50604082015161303a6040850182612fef565b50505050565b600061304c8383612ffe565b60608301905092915050565b6000602082019050919050565b600061307082612f3d565b61307a8185612f48565b935061308583612f59565b8060005b838110156130b657815161309d8882613040565b97506130a883613058565b925050600181019050613089565b5085935050505092915050565b600060208201905081810360008301526130dd8184613065565b905092915050565b60006020820190506130fa6000830184612e29565b92915050565b600080600060608486031215613119576131186129e7565b5b600061312786828701612a3a565b935050602061313886828701612a70565b925050604061314986828701612a70565b9150509250925092565b600060208284031215613169576131686129e7565b5b600061317784828501612a3a565b91505092915050565b60006060820190506131956000830186612e29565b6131a26020830185612b8e565b6131af6040830184612ae4565b949350505050565b6000610100820190506131cd600083018b612e29565b6131da602083018a612b8e565b81810360408301526131ec8189612e87565b905081810360608301526132008188612e87565b905061320f6080830187612ae4565b61321c60a0830186612b8e565b61322960c0830185612b8e565b61323660e0830184612ae4565b9998505050505050505050565b6060820160008201516132596000850182612fd1565b50602082015161326c6020850182612fe0565b50604082015161327f6040850182612fef565b50505050565b600060608201905061329a6000830184613243565b92915050565b7f566f74652073657373696f6e206e6f7420666f756e6400000000000000000000600082015250565b60006132d6601683612e43565b91506132e1826132a0565b602082019050919050565b60006020820190508181036000830152613305816132c9565b9050919050565b7f4e6f7420617574686f72697a6564204242420000000000000000000000000000600082015250565b6000613342601283612e43565b915061334d8261330c565b602082019050919050565b6000602082019050818103600083015261337181613335565b9050919050565b7f44616f20616c7265616479206164646564000000000000000000000000000000600082015250565b60006133ae601183612e43565b91506133b982613378565b602082019050919050565b600060208201905081810360008301526133dd816133a1565b9050919050565b7f4d656d6265724d6f64756c650000000000000000000000000000000000000000600082015250565b600061341a600c83612e43565b9150613425826133e4565b602082019050919050565b600060208201905081810360008301526134498161340d565b9050919050565b60007fffffffffffffffff00000000000000000000000000000000000000000000000082169050919050565b61348581613450565b82525050565b6000819050919050565b6000819050919050565b60006134ba6134b56134b08461348b565b613495565b612a4f565b9050919050565b6134ca8161349f565b82525050565b60006040820190506134e5600083018561347c565b6134f260208301846134c1565b9392505050565b600080fd5b600080fd5b60008151905061351281612a59565b92915050565b60008151905061352781612a23565b92915050565b61353681612ad8565b811461354157600080fd5b50565b6000815190506135538161352d565b92915050565b61356281613450565b811461356d57600080fd5b50565b60008151905061357f81613559565b92915050565b600061359861359384612c4e565b612c33565b9050828152602081018484840111156135b4576135b3612bbd565b5b6135bf848285612e54565b509392505050565b600082601f8301126135dc576135db612bb8565b5b81516135ec848260208601613585565b91505092915050565b600060e0828403121561360b5761360a6134f9565b5b61361560e0612c33565b9050600061362584828501613503565b600083015250602061363984828501613518565b602083015250604061364d84828501613544565b604083015250606061366184828501613544565b606083015250608061367584828501613570565b60808301525060a061368984828501613570565b60a08301525060c082015167ffffffffffffffff8111156136ad576136ac6134fe565b5b6136b9848285016135c7565b60c08301525092915050565b6000602082840312156136db576136da6129e7565b5b600082015167ffffffffffffffff8111156136f9576136f86129ec565b5b613705848285016135f5565b91505092915050565b60006040820190506137236000830185612e29565b6137306020830184612e29565b9392505050565b60006020828403121561374d5761374c6129e7565b5b600061375b84828501613544565b91505092915050565b7f4e6f742044414f206d656d626572000000000000000000000000000000000000600082015250565b600061379a600e83612e43565b91506137a582613764565b602082019050919050565b600060208201905081810360008301526137c98161378d565b9050919050565b7f4e487b7100000000000000000000000000000000000000000000000000000000600052601160045260246000fd5b600061380a82612a4f565b91507fffffffffffffffffffffffffffffffffffffffffffffffffffffffffffffffff82141561383d5761383c6137d0565b5b600182019050919050565b600061385382612a4f565b915061385e83612a4f565b925082821015613871576138706137d0565b5b828203905092915050565b60006080820190506138916000830187612e29565b81810360208301526138a38186612e87565b905081810360408301526138b78185612e87565b90506138c66060830184612b8e565b95945050505050565b60006138da82612a4f565b91506138e583612a4f565b9250827fffffffffffffffffffffffffffffffffffffffffffffffffffffffffffffffff0382111561391a576139196137d0565b5b828201905092915050565b7f566f74652073657373696f6e207465726d696e61746564000000000000000000600082015250565b600061395b601783612e43565b915061396682613925565b602082019050919050565b6000602082019050818103600083015261398a8161394e565b9050919050565b7f416c726561647920766f74656400000000000000000000000000000000000000600082015250565b60006139c7600d83612e43565b91506139d282613991565b602082019050919050565b600060208201905081810360008301526139f6816139ba565b9050919050565b613a0681612fbf565b82525050565b6000606082019050613a216000830186612e29565b613a2e6020830185612b8e565b613a3b60408301846139fd565b949350505050565b7f4f776e61626c653a2063616c6c6572206973206e6f7420746865206f776e6572600082015250565b6000613a79602083612e43565b9150613a8482613a43565b602082019050919050565b60006020820190508181036000830152613aa881613a6c565b9050919050565b7f4e487b7100000000000000000000000000000000000000000000000000000000600052602260045260246000fd5b60006002820490506001821680613af657607f821691505b60208210811415613b0a57613b09613aaf565b5b50919050565b7f4f776e61626c653a206e6577206f776e657220697320746865207a65726f206160008201527f6464726573730000000000000000000000000000000000000000000000000000602082015250565b6000613b6c602683612e43565b9150613b7782613b10565b604082019050919050565b60006020820190508181036000830152613b9b81613b5f565b905091905056fea2646970667358221220faf9877559adf7c6a74a576fac256e9cd226172d32d0c2804f8d01e2b445d7b964736f6c63430008090033",
  "immutableReferences": {},
  "source": "// SPDX-License-Identifier: MIT\r\npragma solidity ^0.8.9;\r\n\r\nimport \"@openzeppelin/contracts/utils/math/SafeMath.sol\";\r\nimport \"@openzeppelin/contracts/access/Ownable.sol\";\r\nimport \"../../Data.sol\";\r\nimport \"../Interfaces/IMembersDAO.sol\";\r\nimport \"../../DaoBase.sol\";\r\n\r\ncontract VotingYesNoModule is Ownable {\r\n    using SafeMath for uint256;\r\n    /// @notice import MembershipModule interface for members\r\n    IMembersDao private membersDao;\r\n\r\n    /**\r\n    * @notice store count of all votes of a dao\r\n    * @dev param address is address of the daoBase. return vote count\r\n    */\r\n    mapping(address => uint256) public voteSessionsCount;\r\n\r\n    /**\r\n    * @notice store vote session data\r\n    * @dev param address is address of the daoBase, param uint256 the id of the vote session.\r\n    * return voteSession struct\r\n    */\r\n    mapping(address => mapping(uint256 => voteSession)) public voteSessions;\r\n\r\n    /**\r\n    * @notice store daos info\r\n    * @dev param address is address of the daoBase. return daoMember struct\r\n    */\r\n    mapping(address => Data.DaoMember) public daos;\r\n\r\n    /**\r\n    * @notice store authorized address\r\n    * @dev param0 address is address of the daoBase, param1 address to authorized. return bool true or false\r\n    */\r\n    mapping(address => mapping(address => bool)) public authorizedAddress;\r\n\r\n    /**\r\n    * @notice store membership module address of the daoBase\r\n    * @dev param0 address is address of the daoBase. return address of the membership module\r\n    */\r\n    mapping(address => address) private memberModuleAddresses;\r\n\r\n    /**\r\n    * @notice store vote session data\r\n    * @return creatorAddress: the address who create the trade\r\n    * @return creationTime: timestamp of the time the vote is created\r\n    * @return name: name of the vote session\r\n    * @return description: description of the vote session\r\n    * @return isTerminated: if the vote is finish\r\n    * @return votersCount: how many votes this session as\r\n    * @return votes: the vote result of an specific address\r\n    * @return voterAddresses: the addres linked to the id\r\n    * @return voteResults: array of all vote result\r\n    * @return duration: timestamp of the duration \r\n    * @return isCreated:\r\n    */\r\n    struct voteSession {\r\n        address creatorAddress;\r\n        uint256 creationTime;\r\n        string name;\r\n        string description;\r\n        bool isTerminated;\r\n        uint256 votersCount;\r\n        mapping(address => voteResult) votes;\r\n        mapping(uint256 => address) voterAddresses;\r\n        voteResult[] voteResults;\r\n        uint256 duration;\r\n        bool isCreated;\r\n    }\r\n\r\n    /**\r\n    * @notice store vote result\r\n    * @return response: the response of the vote\r\n    * @return voter: the address who submit the vote\r\n    * @return voted: true or false if user voted\r\n    */\r\n    struct voteResult {\r\n        responseEnum response;\r\n        address voter;\r\n        bool voted;\r\n    }\r\n\r\n    /**\r\n    * @notice store vote result\r\n    * @return response: the response of the vote\r\n    * @return voteNumbers: the id of the vote\r\n    */\r\n    struct voteResponseResult {\r\n        responseEnum response;\r\n        uint256 voteNumbers;\r\n    } \r\n\r\n    /**\r\n    * @notice enum for response\r\n    * @return yes: yes\r\n    * @return no: no\r\n    */\r\n    enum responseEnum {\r\n        yes,\r\n        no\r\n    }\r\n\r\n    \r\n    event VoteSessionCreated(address creatorAddress, string name, string description, uint256 id);\r\n    event Voted(address voterAddress, uint256 voteSessionId, responseEnum response);\r\n\r\n    /**\r\n    * @notice constructor change the owner to be the DaosFactory\r\n    * @dev param 0 address of the DaosFactory\r\n    */\r\n    constructor(address _contractFactory) {\r\n        _transferOwnership(_contractFactory);\r\n    }\r\n\r\n     /**\r\n    * @notice check msg.sender is authorized\r\n    * @dev param 0 address of the DaosFactory\r\n    */\r\n    modifier onlyAuthorizeAddress(address _contractDao) {\r\n        require(authorizedAddress[_contractDao][msg.sender] == true, \"Not authorized BB\");\r\n        _;\r\n    }\r\n\r\n    /**\r\n    * @notice check msg.sender is authorized or the owner\r\n    * @dev param 0 address of the DaosFactory\r\n    */\r\n    modifier onlyAuthorizeAddressOrOwner(address _contractDao) {\r\n        require(authorizedAddress[_contractDao][msg.sender] == true || msg.sender == owner(), \"Not authorized BBB\");\r\n        _;\r\n    }\r\n\r\n    /**\r\n    * @notice get vote session count of a specific dao\r\n    * @return voteSessionsCount: the vote session count\r\n    */\r\n    function getVotesCount(address _contractDao) public view returns (uint256)\r\n    {\r\n        return voteSessionsCount[_contractDao];\r\n    }\r\n\r\n    /**\r\n    * @notice get vote result of a specific session of the dao\r\n    * @return voteResults: array of the voteResults struct\r\n    */\r\n    function getVotesResult(address _contractDao, uint256 _voteSessionId)\r\n        public\r\n        view\r\n        returns(voteResult[] memory)\r\n    {\r\n        return(voteSessions[_contractDao][_voteSessionId].voteResults);\r\n    }\r\n\r\n    /**\r\n    * @notice get vote info of a specific voter address\r\n    * @return voteResults: struct of the result info\r\n    */\r\n    function getVoteInfo(address _contractDao, uint256 voteSessionId, address _voterAddress)\r\n        external\r\n        view\r\n        returns(voteResult memory)\r\n    {\r\n        return(voteSessions[_contractDao][voteSessionId].votes[_voterAddress]);\r\n    }\r\n\r\n    /**\r\n    * @notice get vote session info of a specific session\r\n    * @return creatorAddress the address who create the trade\r\n    * @return creationTime timestamp of the time the vote is created\r\n    * @return name name of the vote session\r\n    * @return description description of the vote session\r\n    * @return isTerminated if the vote is finish\r\n    * @return votersCount how many votes this session as\r\n    * @return duration timestamp of the duration \r\n    */\r\n    function getVoteSessionInfo(address _contractDao, uint256 voteSessionId)\r\n        external\r\n        view \r\n        returns (\r\n            address creatorAddress,\r\n            uint256 creationTime,\r\n            string memory name,\r\n            string memory description,\r\n            bool isTerminated,\r\n            uint256 votersCount,\r\n            uint256 duration\r\n        )\r\n    {\r\n        creatorAddress = voteSessions[_contractDao][voteSessionId].creatorAddress;\r\n        creationTime = voteSessions[_contractDao][voteSessionId].creationTime;\r\n        name = voteSessions[_contractDao][voteSessionId].name;\r\n        description = voteSessions[_contractDao][voteSessionId].description;\r\n        isTerminated = voteSessions[_contractDao][voteSessionId].isTerminated;\r\n        votersCount = voteSessions[_contractDao][voteSessionId].votersCount;\r\n        duration = voteSessions[_contractDao][voteSessionId].duration;\r\n    }\r\n\r\n    /**\r\n    * @notice get address of the voter by his id\r\n    * @return voterAddresses: the voter address\r\n    */\r\n    function getVoterAddressById(address _contractDao, uint256 voteSessionId, uint256 voterId)\r\n        external\r\n        view\r\n        returns(address)\r\n    {\r\n        return voteSessions[_contractDao][voteSessionId].voterAddresses[voterId];\r\n    }\r\n\r\n    /**\r\n    * @notice get voter count of a vote session\r\n    * @return votersCount the voter count\r\n    */\r\n    function getVotersCount(address _contractDao, uint256 voteSessionId)\r\n        external\r\n        view\r\n        returns(uint256)\r\n    {\r\n        return voteSessions[_contractDao][voteSessionId].votersCount;\r\n    }\r\n\r\n    /**\r\n    * @notice create a new vote session\r\n    * @dev duration ex: 1 day vote = 1*24*60*60\r\n    * @param _contractDao the address of the dao\r\n    * @param name the name of the vote session\r\n    * @param description the description of the vote session\r\n    * @param duration the timestamp for the duration\r\n    */\r\n    function createVote(\r\n        address _contractDao,\r\n        string memory name,\r\n        string memory description,\r\n        uint256 duration\r\n    )   \r\n        public\r\n    {\r\n        require(IMembersDao(memberModuleAddresses[_contractDao]).isActiveMember(_contractDao, msg.sender), \"Not DAO member\");\r\n        \r\n        voteSessions[_contractDao][voteSessionsCount[_contractDao]].isTerminated = false;\r\n        voteSessions[_contractDao][voteSessionsCount[_contractDao]].isCreated = true;\r\n        voteSessions[_contractDao][voteSessionsCount[_contractDao]].creationTime = block.timestamp;\r\n        voteSessions[_contractDao][voteSessionsCount[_contractDao]].name = name;\r\n        voteSessions[_contractDao][voteSessionsCount[_contractDao]].description = description;\r\n        voteSessions[_contractDao][voteSessionsCount[_contractDao]].creatorAddress = msg.sender;\r\n        voteSessions[_contractDao][voteSessionsCount[_contractDao]].duration = duration;\r\n        voteSessions[_contractDao][voteSessionsCount[_contractDao]].votes[msg.sender].voted = false;\r\n        ++voteSessionsCount[_contractDao];\r\n\r\n        emit VoteSessionCreated(msg.sender, name, description, voteSessionsCount[_contractDao] - 1);\r\n    }\r\n\r\n    /**\r\n    * @notice submit a vote\r\n    * @param _contractDao the address of the dao\r\n    * @param voteSessionId the id of the vote session\r\n    * @param response the response of the vote see enum responseEnum\r\n    */\r\n    function vote(address _contractDao, uint256 voteSessionId, uint8 response) public {\r\n        require(voteSessions[_contractDao][voteSessionId].isCreated, \"Vote session not found\");\r\n        require(block.timestamp < voteSessions[_contractDao][voteSessionId].creationTime \r\n            + voteSessions[_contractDao][voteSessionId].duration, \"Vote session terminated\");\r\n        require(!hasVoted(_contractDao, voteSessionId, msg.sender), \"Already voted\");\r\n        require(IMembersDao(memberModuleAddresses[_contractDao]).isActiveMember(_contractDao, msg.sender), \"Not DAO member\");\r\n\r\n        //add voter address\r\n        voteSessions[_contractDao][voteSessionId].voterAddresses[voteSessions[_contractDao][voteSessionId].votersCount] = msg.sender;\r\n        ++voteSessions[_contractDao][voteSessionId].votersCount;\r\n\r\n        //add voter vote\r\n        voteSessions[_contractDao][voteSessionId].votes[msg.sender].response = responseEnum(response);\r\n        voteSessions[_contractDao][voteSessionId].votes[msg.sender].voted = true;\r\n        voteSessions[_contractDao][voteSessionId].voteResults.push(voteResult(responseEnum(response), msg.sender, true));\r\n        \r\n        emit Voted(msg.sender, voteSessionId, responseEnum(response));\r\n    }\r\n\r\n    /**\r\n    * @notice get if a specific address has voted\r\n    * @param _contractDao the address of the dao\r\n    * @param voteSessionId the id of the vote session\r\n    * @param voter the address of the voter\r\n    */\r\n    function hasVoted(address _contractDao, uint256 voteSessionId, address voter)\r\n        public\r\n        view\r\n        returns(bool)\r\n    {\r\n        require(voteSessions[_contractDao][voteSessionId].isCreated, \"Vote session not found\");\r\n\r\n        return voteSessions[_contractDao][voteSessionId].votes[voter].voted;\r\n    }\r\n\r\n    /**\r\n    * @notice link a dao to SimpleDonationsModule\r\n    * @param _contractDao address of the dao\r\n    * @param _memberDao address of the user of the dao in this case the owner of the dao\r\n    */\r\n    function addDao(address _contractDao, address _memberDao)\r\n        external\r\n        onlyAuthorizeAddressOrOwner(_contractDao)\r\n    {\r\n        require(!daos[_contractDao].isActive, \"Dao already added\");\r\n        daos[_contractDao].isActive = true;\r\n        daos[_contractDao].addressDao = _contractDao;\r\n        memberModuleAddresses[_contractDao] = DaoBase(_contractDao)\r\n            .getModuleDataByIndex(bytes8(keccak256(abi.encode(\"MemberModule\"))), 0).moduleAddress;\r\n        authorizedAddress[_contractDao][_memberDao] = true;\r\n    }\r\n\r\n    /**\r\n    * @notice authorize a new address\r\n    * @param _contractDao address of the dao\r\n    * @param _contractAddress address that will be authorized\r\n    */\r\n    function authorizeAddress(address _contractDao, address _contractAddress)\r\n        external\r\n        onlyAuthorizeAddressOrOwner(_contractDao)\r\n    {\r\n        authorizedAddress[_contractDao][_contractAddress] = true;\r\n    }\r\n\r\n    /**\r\n    * @notice deny a authorized address\r\n    * @param _contractDao address of the dao\r\n    * @param _contractAddress address that will be deny\r\n    */\r\n    function denyAddress(address _contractDao, address _contractAddress)\r\n        external\r\n        onlyAuthorizeAddressOrOwner(_contractDao)\r\n    {\r\n        authorizedAddress[_contractDao][_contractAddress] = false;\r\n    }\r\n}",
  "sourcePath": "C:\\Users\\mdmou\\source\\repos\\MY-DAO\\contracts\\Modules\\Implementations\\VotingYesNoModule.sol",
  "compiler": {
    "name": "solc",
    "version": "0.8.9+commit.e5eed63a.Emscripten.clang"
  },
  "schemaVersion": "3.4.4",
  "updatedAt": "2022-05-23T15:43:50.937Z",
  "networkType": "ethereum",
  "devdoc": {
    "kind": "dev",
    "methods": {
      "addDao(address,address)": {
        "params": {
          "_contractDao": "address of the dao",
          "_memberDao": "address of the user of the dao in this case the owner of the dao"
        }
      },
      "authorizeAddress(address,address)": {
        "params": {
          "_contractAddress": "address that will be authorized",
          "_contractDao": "address of the dao"
        }
      },
      "constructor": {
        "details": "param 0 address of the DaosFactory"
      },
      "createVote(address,string,string,uint256)": {
        "details": "duration ex: 1 day vote = 1*24*60*60",
        "params": {
          "_contractDao": "the address of the dao",
          "description": "the description of the vote session",
          "duration": "the timestamp for the duration",
          "name": "the name of the vote session"
        }
      },
      "denyAddress(address,address)": {
        "params": {
          "_contractAddress": "address that will be deny",
          "_contractDao": "address of the dao"
        }
      },
      "getVoteInfo(address,uint256,address)": {
        "returns": {
          "_0": "voteResults: struct of the result info"
        }
      },
      "getVoteSessionInfo(address,uint256)": {
        "returns": {
          "creationTime": "timestamp of the time the vote is created",
          "creatorAddress": "the address who create the trade",
          "description": "description of the vote session",
          "duration": "timestamp of the duration ",
          "isTerminated": "if the vote is finish",
          "name": "name of the vote session",
          "votersCount": "how many votes this session as"
        }
      },
      "getVoterAddressById(address,uint256,uint256)": {
        "returns": {
          "_0": "voterAddresses: the voter address"
        }
      },
      "getVotersCount(address,uint256)": {
        "returns": {
          "_0": "votersCount the voter count"
        }
      },
      "getVotesCount(address)": {
        "returns": {
          "_0": "voteSessionsCount: the vote session count"
        }
      },
      "getVotesResult(address,uint256)": {
        "returns": {
          "_0": "voteResults: array of the voteResults struct"
        }
      },
      "hasVoted(address,uint256,address)": {
        "params": {
          "_contractDao": "the address of the dao",
          "voteSessionId": "the id of the vote session",
          "voter": "the address of the voter"
        }
      },
      "owner()": {
        "details": "Returns the address of the current owner."
      },
      "renounceOwnership()": {
        "details": "Leaves the contract without owner. It will not be possible to call `onlyOwner` functions anymore. Can only be called by the current owner. NOTE: Renouncing ownership will leave the contract without an owner, thereby removing any functionality that is only available to the owner."
      },
      "transferOwnership(address)": {
        "details": "Transfers ownership of the contract to a new account (`newOwner`). Can only be called by the current owner."
      },
      "vote(address,uint256,uint8)": {
        "params": {
          "_contractDao": "the address of the dao",
          "response": "the response of the vote see enum responseEnum",
          "voteSessionId": "the id of the vote session"
        }
      }
    },
    "stateVariables": {
      "authorizedAddress": {
        "details": "param0 address is address of the daoBase, param1 address to authorized. return bool true or false"
      },
      "daos": {
        "details": "param address is address of the daoBase. return daoMember struct"
      },
      "memberModuleAddresses": {
        "details": "param0 address is address of the daoBase. return address of the membership module"
      },
      "voteSessions": {
        "details": "param address is address of the daoBase, param uint256 the id of the vote session. return voteSession struct"
      },
      "voteSessionsCount": {
        "details": "param address is address of the daoBase. return vote count"
      }
    },
    "version": 1
  },
  "userdoc": {
    "kind": "user",
    "methods": {
      "addDao(address,address)": {
        "notice": "link a dao to SimpleDonationsModule"
      },
      "authorizeAddress(address,address)": {
        "notice": "authorize a new address"
      },
      "authorizedAddress(address,address)": {
        "notice": "store authorized address"
      },
      "constructor": {
        "notice": "constructor change the owner to be the DaosFactory"
      },
      "createVote(address,string,string,uint256)": {
        "notice": "create a new vote session"
      },
      "daos(address)": {
        "notice": "store daos info"
      },
      "denyAddress(address,address)": {
        "notice": "deny a authorized address"
      },
      "getVoteInfo(address,uint256,address)": {
        "notice": "get vote info of a specific voter address"
      },
      "getVoteSessionInfo(address,uint256)": {
        "notice": "get vote session info of a specific session"
      },
      "getVoterAddressById(address,uint256,uint256)": {
        "notice": "get address of the voter by his id"
      },
      "getVotersCount(address,uint256)": {
        "notice": "get voter count of a vote session"
      },
      "getVotesCount(address)": {
        "notice": "get vote session count of a specific dao"
      },
      "getVotesResult(address,uint256)": {
        "notice": "get vote result of a specific session of the dao"
      },
      "hasVoted(address,uint256,address)": {
        "notice": "get if a specific address has voted"
      },
      "vote(address,uint256,uint8)": {
        "notice": "submit a vote"
      },
      "voteSessions(address,uint256)": {
        "notice": "store vote session data"
      },
      "voteSessionsCount(address)": {
        "notice": "store count of all votes of a dao"
      }
    },
    "version": 1
  }
}